{
  "contracts/src/HoneyFactory.sol": {
    "HoneyFactory": {
      "abi": [
        {
          "inputs": [
            {
              "internalType": "address",
              "name": "_tokenMap",
              "type": "address"
            },
            {
              "internalType": "address",
              "name": "_router",
              "type": "address"
            }
          ],
          "stateMutability": "nonpayable",
          "type": "constructor"
        },
        {
          "inputs": [],
          "name": "AccessControlBadConfirmation",
          "type": "error"
        },
        {
          "inputs": [
            {
              "internalType": "address",
              "name": "account",
              "type": "address"
            },
            {
              "internalType": "bytes32",
              "name": "neededRole",
              "type": "bytes32"
            }
          ],
          "name": "AccessControlUnauthorizedAccount",
          "type": "error"
        },
        {
          "inputs": [],
          "name": "AlreadyExists",
          "type": "error"
        },
        {
          "inputs": [],
          "name": "InvalidLength",
          "type": "error"
        },
        {
          "inputs": [],
          "name": "InvalidMessageSender",
          "type": "error"
        },
        {
          "inputs": [
            {
              "internalType": "uint256",
              "name": "chainSelector",
              "type": "uint256"
            }
          ],
          "name": "InvalidPeer",
          "type": "error"
        },
        {
          "inputs": [
            {
              "internalType": "address",
              "name": "router",
              "type": "address"
            }
          ],
          "name": "InvalidRouter",
          "type": "error"
        },
        {
          "inputs": [],
          "name": "NotCreated",
          "type": "error"
        },
        {
          "inputs": [
            {
              "internalType": "address",
              "name": "owner",
              "type": "address"
            }
          ],
          "name": "OwnableInvalidOwner",
          "type": "error"
        },
        {
          "inputs": [
            {
              "internalType": "address",
              "name": "account",
              "type": "address"
            }
          ],
          "name": "OwnableUnauthorizedAccount",
          "type": "error"
        },
        {
          "inputs": [],
          "name": "RouterAddressCannotBeZero",
          "type": "error"
        },
        {
          "anonymous": false,
          "inputs": [
            {
              "indexed": true,
              "internalType": "address",
              "name": "previousOwner",
              "type": "address"
            },
            {
              "indexed": true,
              "internalType": "address",
              "name": "newOwner",
              "type": "address"
            }
          ],
          "name": "OwnershipTransferred",
          "type": "event"
        },
        {
          "anonymous": false,
          "inputs": [
            {
              "indexed": false,
              "internalType": "uint256",
              "name": "sourceChainSelector",
              "type": "uint256"
            },
            {
              "indexed": false,
              "internalType": "address",
              "name": "receiver",
              "type": "address"
            },
            {
              "indexed": false,
              "internalType": "uint256",
              "name": "amount",
              "type": "uint256"
            }
          ],
          "name": "ReleasedTokens",
          "type": "event"
        },
        {
          "anonymous": false,
          "inputs": [
            {
              "indexed": true,
              "internalType": "bytes32",
              "name": "role",
              "type": "bytes32"
            },
            {
              "indexed": true,
              "internalType": "bytes32",
              "name": "previousAdminRole",
              "type": "bytes32"
            },
            {
              "indexed": true,
              "internalType": "bytes32",
              "name": "newAdminRole",
              "type": "bytes32"
            }
          ],
          "name": "RoleAdminChanged",
          "type": "event"
        },
        {
          "anonymous": false,
          "inputs": [
            {
              "indexed": true,
              "internalType": "bytes32",
              "name": "role",
              "type": "bytes32"
            },
            {
              "indexed": true,
              "internalType": "address",
              "name": "account",
              "type": "address"
            },
            {
              "indexed": true,
              "internalType": "address",
              "name": "sender",
              "type": "address"
            }
          ],
          "name": "RoleGranted",
          "type": "event"
        },
        {
          "anonymous": false,
          "inputs": [
            {
              "indexed": true,
              "internalType": "bytes32",
              "name": "role",
              "type": "bytes32"
            },
            {
              "indexed": true,
              "internalType": "address",
              "name": "account",
              "type": "address"
            },
            {
              "indexed": true,
              "internalType": "address",
              "name": "sender",
              "type": "address"
            }
          ],
          "name": "RoleRevoked",
          "type": "event"
        },
        {
          "inputs": [],
          "name": "DEFAULT_ADMIN_ROLE",
          "outputs": [
            {
              "internalType": "bytes32",
              "name": "",
              "type": "bytes32"
            }
          ],
          "stateMutability": "view",
          "type": "function"
        },
        {
          "inputs": [],
          "name": "HONEY_ROUTER_ROLE",
          "outputs": [
            {
              "internalType": "bytes32",
              "name": "",
              "type": "bytes32"
            }
          ],
          "stateMutability": "view",
          "type": "function"
        },
        {
          "inputs": [
            {
              "internalType": "address",
              "name": "honeyRouter",
              "type": "address"
            }
          ],
          "name": "addRouter",
          "outputs": [],
          "stateMutability": "nonpayable",
          "type": "function"
        },
        {
          "inputs": [
            {
              "internalType": "address",
              "name": "token",
              "type": "address"
            }
          ],
          "name": "createPool",
          "outputs": [],
          "stateMutability": "nonpayable",
          "type": "function"
        },
        {
          "inputs": [
            {
              "internalType": "address",
              "name": "receiver",
              "type": "address"
            },
            {
              "internalType": "uint256",
              "name": "destinationChainSelector",
              "type": "uint256"
            },
            {
              "internalType": "address",
              "name": "token",
              "type": "address"
            },
            {
              "internalType": "uint256",
              "name": "amount",
              "type": "uint256"
            }
          ],
          "name": "crossChainCall",
          "outputs": [],
          "stateMutability": "payable",
          "type": "function"
        },
        {
          "inputs": [],
          "name": "getEquitoFee",
          "outputs": [
            {
              "internalType": "uint256",
              "name": "",
              "type": "uint256"
            }
          ],
          "stateMutability": "view",
          "type": "function"
        },
        {
          "inputs": [
            {
              "internalType": "uint256",
              "name": "chainSelector",
              "type": "uint256"
            }
          ],
          "name": "getPeer",
          "outputs": [
            {
              "components": [
                {
                  "internalType": "bytes32",
                  "name": "lower",
                  "type": "bytes32"
                },
                {
                  "internalType": "bytes32",
                  "name": "upper",
                  "type": "bytes32"
                }
              ],
              "internalType": "struct bytes64",
              "name": "",
              "type": "tuple"
            }
          ],
          "stateMutability": "view",
          "type": "function"
        },
        {
          "inputs": [
            {
              "internalType": "address",
              "name": "token",
              "type": "address"
            }
          ],
          "name": "getPool",
          "outputs": [
            {
              "internalType": "address",
              "name": "",
              "type": "address"
            }
          ],
          "stateMutability": "view",
          "type": "function"
        },
        {
          "inputs": [
            {
              "internalType": "bytes32",
              "name": "role",
              "type": "bytes32"
            }
          ],
          "name": "getRoleAdmin",
          "outputs": [
            {
              "internalType": "bytes32",
              "name": "",
              "type": "bytes32"
            }
          ],
          "stateMutability": "view",
          "type": "function"
        },
        {
          "inputs": [
            {
              "internalType": "bytes32",
              "name": "role",
              "type": "bytes32"
            },
            {
              "internalType": "address",
              "name": "account",
              "type": "address"
            }
          ],
          "name": "grantRole",
          "outputs": [],
          "stateMutability": "nonpayable",
          "type": "function"
        },
        {
          "inputs": [
            {
              "internalType": "bytes32",
              "name": "role",
              "type": "bytes32"
            },
            {
              "internalType": "address",
              "name": "account",
              "type": "address"
            }
          ],
          "name": "hasRole",
          "outputs": [
            {
              "internalType": "bool",
              "name": "",
              "type": "bool"
            }
          ],
          "stateMutability": "view",
          "type": "function"
        },
        {
          "inputs": [],
          "name": "owner",
          "outputs": [
            {
              "internalType": "address",
              "name": "",
              "type": "address"
            }
          ],
          "stateMutability": "view",
          "type": "function"
        },
        {
          "inputs": [
            {
              "internalType": "uint256",
              "name": "",
              "type": "uint256"
            }
          ],
          "name": "peers",
          "outputs": [
            {
              "internalType": "bytes32",
              "name": "lower",
              "type": "bytes32"
            },
            {
              "internalType": "bytes32",
              "name": "upper",
              "type": "bytes32"
            }
          ],
          "stateMutability": "view",
          "type": "function"
        },
        {
          "inputs": [
            {
              "components": [
                {
                  "internalType": "uint256",
                  "name": "blockNumber",
                  "type": "uint256"
                },
                {
                  "internalType": "uint256",
                  "name": "sourceChainSelector",
                  "type": "uint256"
                },
                {
                  "components": [
                    {
                      "internalType": "bytes32",
                      "name": "lower",
                      "type": "bytes32"
                    },
                    {
                      "internalType": "bytes32",
                      "name": "upper",
                      "type": "bytes32"
                    }
                  ],
                  "internalType": "struct bytes64",
                  "name": "sender",
                  "type": "tuple"
                },
                {
                  "internalType": "uint256",
                  "name": "destinationChainSelector",
                  "type": "uint256"
                },
                {
                  "components": [
                    {
                      "internalType": "bytes32",
                      "name": "lower",
                      "type": "bytes32"
                    },
                    {
                      "internalType": "bytes32",
                      "name": "upper",
                      "type": "bytes32"
                    }
                  ],
                  "internalType": "struct bytes64",
                  "name": "receiver",
                  "type": "tuple"
                },
                {
                  "internalType": "bytes32",
                  "name": "hashedData",
                  "type": "bytes32"
                }
              ],
              "internalType": "struct EquitoMessage",
              "name": "message",
              "type": "tuple"
            },
            {
              "internalType": "bytes",
              "name": "messageData",
              "type": "bytes"
            }
          ],
          "name": "receiveMessage",
          "outputs": [],
          "stateMutability": "payable",
          "type": "function"
        },
        {
          "inputs": [
            {
              "internalType": "address",
              "name": "honeyRouter",
              "type": "address"
            }
          ],
          "name": "removeRouter",
          "outputs": [],
          "stateMutability": "nonpayable",
          "type": "function"
        },
        {
          "inputs": [],
          "name": "renounceOwnership",
          "outputs": [],
          "stateMutability": "nonpayable",
          "type": "function"
        },
        {
          "inputs": [
            {
              "internalType": "bytes32",
              "name": "role",
              "type": "bytes32"
            },
            {
              "internalType": "address",
              "name": "callerConfirmation",
              "type": "address"
            }
          ],
          "name": "renounceRole",
          "outputs": [],
          "stateMutability": "nonpayable",
          "type": "function"
        },
        {
          "inputs": [
            {
              "internalType": "bytes32",
              "name": "role",
              "type": "bytes32"
            },
            {
              "internalType": "address",
              "name": "account",
              "type": "address"
            }
          ],
          "name": "revokeRole",
          "outputs": [],
          "stateMutability": "nonpayable",
          "type": "function"
        },
        {
          "inputs": [
            {
              "internalType": "uint256[]",
              "name": "chainSelectors",
              "type": "uint256[]"
            },
            {
              "components": [
                {
                  "internalType": "bytes32",
                  "name": "lower",
                  "type": "bytes32"
                },
                {
                  "internalType": "bytes32",
                  "name": "upper",
                  "type": "bytes32"
                }
              ],
              "internalType": "struct bytes64[]",
              "name": "addresses",
              "type": "tuple[]"
            }
          ],
          "name": "setPeers",
          "outputs": [],
          "stateMutability": "nonpayable",
          "type": "function"
        },
        {
          "inputs": [
            {
              "internalType": "bytes4",
              "name": "interfaceId",
              "type": "bytes4"
            }
          ],
          "name": "supportsInterface",
          "outputs": [
            {
              "internalType": "bool",
              "name": "",
              "type": "bool"
            }
          ],
          "stateMutability": "view",
          "type": "function"
        },
        {
          "inputs": [
            {
              "internalType": "address",
              "name": "value",
              "type": "address"
            }
          ],
          "name": "toBase64",
          "outputs": [
            {
              "components": [
                {
                  "internalType": "bytes32",
                  "name": "lower",
                  "type": "bytes32"
                },
                {
                  "internalType": "bytes32",
                  "name": "upper",
                  "type": "bytes32"
                }
              ],
              "internalType": "struct bytes64",
              "name": "",
              "type": "tuple"
            }
          ],
          "stateMutability": "pure",
          "type": "function"
        },
        {
          "inputs": [
            {
              "internalType": "address",
              "name": "newOwner",
              "type": "address"
            }
          ],
          "name": "transferOwnership",
          "outputs": [],
          "stateMutability": "nonpayable",
          "type": "function"
        },
        {
          "inputs": [],
          "name": "weth",
          "outputs": [
            {
              "internalType": "address",
              "name": "",
              "type": "address"
            }
          ],
          "stateMutability": "pure",
          "type": "function"
        },
        {
          "inputs": [
            {
              "internalType": "address",
              "name": "token",
              "type": "address"
            },
            {
              "internalType": "uint256",
              "name": "amount",
              "type": "uint256"
            }
          ],
          "name": "withdrawFromPool",
          "outputs": [],
          "stateMutability": "nonpayable",
          "type": "function"
        }
      ],
      "evm": {
        "bytecode": {
          "linkReferences": {},
          "object": "60a0346200011f57601f620041e338819003918201601f19168301916001600160401b03831184841017620001245780849260409485528339810103126200011f576200005a602062000052836200013a565b92016200013a565b90331562000106576000549060018060a01b03918260018060a01b031994338684161760005560405192823391167f8be0079c531659141344cd1fd0a4f28419497f9722a3daafe3b4186f6b6457e0600080a316908115620000f7575060805216906004541617600455620000cf336200014f565b506040516140019081620001e282396080518181816105df015281816108cb0152610dc00152f35b635008268360e01b8152600490fd5b604051631e4fbdf760e01b815260006004820152602490fd5b600080fd5b634e487b7160e01b600052604160045260246000fd5b51906001600160a01b03821682036200011f57565b6001600160a01b031660008181527fac33ff75c19e70fe83507db0d683fd3465c996598dc972688b7ace676c89077b602052604081205490919060ff16620001dd5781805260026020526040822081835260205260408220600160ff1982541617905533917f2f8788117e7eff1d82e926ec794901d17c78024a50270940304540a733656f0d8180a4600190565b509056fe608060408181526004803610156200001657600080fd5b600092833560e01c90816301ffc9a714620010d857508063248a9ca314620010ac57806324ca984e146200107a5780632ef3f1a5146200103d5780632f2ff15d146200100d57806336568abe1462000fa65780633fc8cef31462000f7557806359a1aae11462000e445780635c42132e1462000d7157806367ebb6b21462000cbc5780636ae0b1541462000c8a578063715018a61462000c20578063879d182d146200086b5780638da5cb5b14620008435780639049f9d214620006e357806391d148541462000699578063a217fddf146200067c578063a628b47f14620004f0578063bbe4f6db1462000475578063be4f3e8f1462000442578063c1bf9e5814620002d7578063d547741f1462000290578063ef88e0e114620001fd5763f2fde38b146200014457600080fd5b34620001f9576020366003190112620001f957620001616200117c565b906200016c620014ec565b6001600160a01b03809216928315620001ca5750506000548273ffffffffffffffffffffffffffffffffffffffff19821617600055167f8be0079c531659141344cd1fd0a4f28419497f9722a3daafe3b4186f6b6457e0600080a380f35b908460249251917f1e4fbdf7000000000000000000000000000000000000000000000000000000008352820152fd5b8280fd5b5050346200028c5760203660031901126200028c57906200028891620002226200117c565b916000602083516200023481620011aa565b82815201526000602083516200024a81620011aa565b82815201526001600160a01b038251936200026585620011aa565b168352602083015251918291829190916020806040830194805184520151910152565b0390f35b5080fd5b509034620001f95780600319360112620001f957620002d39135620002cd6001620002ba62001193565b938387526002602052862001546200126e565b62001473565b5080f35b508290346200028c57826003193601126200028c57620002f66200117c565b926024357f0a775b33f9a8a1bd7919099707cfe9320f63c8a6cd38fa171b61aacb968ce641806000526002602052826000203360005260205260ff8360002054161562000425575083946001600160a01b0380911673eeeeeeeeeeeeeeeeeeeeeeeeeeeeeeeeeeeeeeee90818114600014620003e3575085526003602052828520541692833b15620003df578251627b8a6760e11b81529081019182523360208301529284918491908290849082906040015b03925af1908115620003d65750620003c057505080f35b620003cb90620011dd565b620003d35780f35b80fd5b513d84823e3d90fd5b8480fd5b8652506003602052828520541692833b15620003df578251627b8a6760e11b8152908101918252336020830152928491849190829084908290604001620003a9565b8360449184519163e2517d3f60e01b835233908301526024820152fd5b5034620001f9576020366003190112620001f9579181923581526001602052206001815491015482519182526020820152f35b5034620001f9576020366003190112620001f9576001600160a01b0390816200049d6200117c565b1690818552600360205282848620541615620004c9575083839160209552600385522054169051908152f35b83517f8fead4d2000000000000000000000000000000000000000000000000000000008152fd5b506080366003190112620001f957620005086200117c565b91602435604435936001600160a01b03918286168096036200067757828451926020978885015216848301526064356060830152606082526080820182811067ffffffffffffffff821117620006625791869391959285528588526001845284882095600186519788957fdc20313700000000000000000000000000000000000000000000000000000000875281549087015201546024850152604484015260806064840152805190816084850152885b8281106200064957505060a483828a83839584010152601f8019910116810103019134907f0000000000000000000000000000000000000000000000000000000000000000165af190811562000640575062000613578280f35b813d831162000638575b620006298183620011f2565b81010312620003d35738808280f35b503d6200061d565b513d85823e3d90fd5b81810186015188820160a40152889588955001620005b9565b604186634e487b7160e01b6000525260246000fd5b600080fd5b5050346200028c57816003193601126200028c5751908152602090f35b5034620001f95781600319360112620001f9576001600160a01b0382602094620006c262001193565b9335815260028652209116600052825260ff81600020541690519015158152f35b509034620001f9576020366003190112620001f9576001600160a01b0390816200070c6200117c565b169283855260036020528282862054166200081c5773eeeeeeeeeeeeeeeeeeeeeeeeeeeeeeeeeeeeeeee8403620007b8578151906113a28083019183831067ffffffffffffffff841117620007a5575090829162002c2a8339039085f09283156200079b57845260036020528320911673ffffffffffffffffffffffffffffffffffffffff1982541617905580f35b81513d86823e3d90fd5b876041602492634e487b7160e01b835252fd5b8151906116e38083019183831067ffffffffffffffff841117620007a55750602091839162001547833986815203019085f09283156200079b57845260036020528320911673ffffffffffffffffffffffffffffffffffffffff1982541617905580f35b90517f23369fa6000000000000000000000000000000000000000000000000000000008152fd5b5050346200028c57816003193601126200028c576001600160a01b0360209254169051908152f35b5091366003190161012081126200028c5761010013620003d3576101043567ffffffffffffffff808211620001f95736602383011215620001f95781850135908111620001f9578101366024820111620001f9576001600160a01b0391827f000000000000000000000000000000000000000000000000000000000000000016330362000bf15760243591828552602090600182528187872088516200091181620011aa565b600182549283835201549283910152604435149081159162000be3575b50156200095d578787517f7fee69a1000000000000000000000000000000000000000000000000000000008152fd5b9085886060858a9503126200028c576200097a6024860162001531565b968060646200098c6044890162001531565b970135961697848260448186541693895194859384927fb464631b00000000000000000000000000000000000000000000000000000000845216888301528c60248301525afa90811562000bd957908291859162000b94575b5073eeeeeeeeeeeeeeeeeeeeeeeeeeeeeeeeeeeeeeee911681810362000abf57508352600384528483205416803b15620001f9578451627b8a6760e11b81529182018681526001600160a01b03891660208201528391839182908490829060400103925af1801562000ab55762000a91575b5050907f40627f7438e2974529d03c9b047342d738a7a1759fed232175525a8c048c94449460609493925b8251948552840152820152a180f35b62000aa1909594939295620011dd565b62000ab157909192858762000a57565b8580fd5b84513d84823e3d90fd5b905083929398959697985260038452858220541691823b156200028c578551627b8a6760e11b81529081018781526001600160a01b03861660208201529092839182908490829060400103925af1801562000b8a5762000b49575b5091606093917f40627f7438e2974529d03c9b047342d738a7a1759fed232175525a8c048c9444959362000a82565b917f40627f7438e2974529d03c9b047342d738a7a1759fed232175525a8c048c94449593919662000b7d60609694620011dd565b9691939550919362000b1a565b84513d89823e3d90fd5b809250868092503d831162000bd1575b62000bb08183620011f2565b8101031262000bcd5751818116810362000bcd5781908b620009e5565b8380fd5b503d62000ba4565b86513d86823e3d90fd5b90506064351415386200092e565b84517fd7f733340000000000000000000000000000000000000000000000000000000081523381880152602490fd5b8334620003d35780600319360112620003d35762000c3d620014ec565b806001600160a01b03815473ffffffffffffffffffffffffffffffffffffffff1981168355167f8be0079c531659141344cd1fd0a4f28419497f9722a3daafe3b4186f6b6457e08280a380f35b8334620003d3576020366003190112620003d357620002d362000cac6200117c565b62000cb662001215565b620013c6565b508290346200028c5760203660031901126200028c5782813592806020835162000ce681620011aa565b82815201528381526001602052209183519262000d0384620011aa565b600181549182865201549081602086015215908162000d67575b5062000d385783518351815260208085015190820152604090f35b602492508351917f78d0dbfc000000000000000000000000000000000000000000000000000000008352820152fd5b9050158562000d1d565b509034620001f95782600319360112620001f9578051917fb88c914800000000000000000000000000000000000000000000000000000000835230908301526020826024816001600160a01b037f0000000000000000000000000000000000000000000000000000000000000000165afa91821562000e3a57839262000dfc575b6020838351908152f35b9091506020813d60201162000e31575b8162000e1b60209383620011f2565b81010312620001f9576020925051903862000df2565b3d915062000e0c565b81513d85823e3d90fd5b5034620001f95781600319360112620001f95780359067ffffffffffffffff808311620003df5736602384011215620003df57828201359281841162000ab15760249260059236858760051b8501011162000f715784359181831162000f6d573660238401121562000f6d578281013591821162000f6d5760069136878260061b8601011162000f695762000ed8620014ec565b62000ee2620014ec565b80880362000f4157895b88811062000ef8578a80f35b8181101562000f2f5780871b86018801358b52600160208190528a8c2082861b87018a810135825560440135908201550162000eec565b878b603285634e487b7160e01b835252fd5b5087517f947d5a84000000000000000000000000000000000000000000000000000000008152fd5b8980fd5b8880fd5b8780fd5b5050346200028c57816003193601126200028c576020905173eeeeeeeeeeeeeeeeeeeeeeeeeeeeeeeeeeeeeeee8152f35b509190346200028c57806003193601126200028c5762000fc562001193565b90336001600160a01b0383160362000fe55750620002d391923562001473565b8390517f6697b232000000000000000000000000000000000000000000000000000000008152fd5b509034620001f95780600319360112620001f957620002d39135620010376001620002ba62001193565b62001349565b5050346200028c57816003193601126200028c57602090517f0a775b33f9a8a1bd7919099707cfe9320f63c8a6cd38fa171b61aacb968ce6418152f35b8334620003d3576020366003190112620003d357620002d36200109c6200117c565b620010a662001215565b62001295565b5034620001f9576020366003190112620001f95781602093600192358152600285522001549051908152f35b92505034620001f9576020366003190112620001f957357fffffffff000000000000000000000000000000000000000000000000000000008116809103620001f957602092507f7965db0b00000000000000000000000000000000000000000000000000000000811490811562001151575b5015158152f35b7f01ffc9a700000000000000000000000000000000000000000000000000000000915014386200114a565b600435906001600160a01b03821682036200067757565b602435906001600160a01b03821682036200067757565b6040810190811067ffffffffffffffff821117620011c757604052565b634e487b7160e01b600052604160045260246000fd5b67ffffffffffffffff8111620011c757604052565b90601f8019910116810190811067ffffffffffffffff821117620011c757604052565b3360009081527fac33ff75c19e70fe83507db0d683fd3465c996598dc972688b7ace676c89077b602052604081205460ff1615620012505750565b6044906040519063e2517d3f60e01b82523360048301526024820152fd5b80600052600260205260406000203360005260205260ff6040600020541615620012505750565b6001600160a01b031660008181527f2a44413c737edf57c9a9b5a5edce85f99936144e881302a0cfc518c4333a371f60205260408120549091907f0a775b33f9a8a1bd7919099707cfe9320f63c8a6cd38fa171b61aacb968ce6419060ff16620013445780835260026020526040832082845260205260408320600160ff198254161790557f2f8788117e7eff1d82e926ec794901d17c78024a50270940304540a733656f0d339380a4600190565b505090565b9060009180835260026020526001600160a01b036040842092169182845260205260ff60408420541615600014620013445780835260026020526040832082845260205260408320600160ff198254161790557f2f8788117e7eff1d82e926ec794901d17c78024a50270940304540a733656f0d339380a4600190565b6001600160a01b031660008181527f2a44413c737edf57c9a9b5a5edce85f99936144e881302a0cfc518c4333a371f60205260408120549091907f0a775b33f9a8a1bd7919099707cfe9320f63c8a6cd38fa171b61aacb968ce6419060ff161562001344578083526002602052604083208284526020526040832060ff1981541690557ff6391f5c32d9c69d2a47ea670b442974b53935d1edc7fd64eb21e047a839171b339380a4600190565b9060009180835260026020526001600160a01b036040842092169182845260205260ff60408420541660001462001344578083526002602052604083208284526020526040832060ff1981541690557ff6391f5c32d9c69d2a47ea670b442974b53935d1edc7fd64eb21e047a839171b339380a4600190565b6001600160a01b036000541633036200150157565b60246040517f118cdaa7000000000000000000000000000000000000000000000000000000008152336004820152fd5b35906001600160a01b0382168203620006775756fe60a0346200039457601f90601f196001600160401b03620016e33881900385810184168501838111868210176200029857859282916040528339602094859181010312620003945751936001600160a01b038516850362000394576200006462000399565b60128152712437b732bca837b7b6102628102a37b5b2b760711b858201526200008c62000399565b91600392838152620484c560ec1b878201528251858111620002985784546001948582811c9216801562000389575b8a831014620003735781858493116200031d575b508990858311600114620002ba57600092620002ae575b505060001982871b1c191690841b1784555b8051948511620002985760049687548481811c911680156200028d575b8282101462000278578381116200022d575b5080928611600114620001c1575084955090849291600095620001b5575b50501b92600019911b1c19161790555b608052600780546001600160a01b031916339081179091556200017890620003b9565b5060405161129790816200044c82396080518181816101340152818161021301528181610393015281816104b60152818161073d0152610c9d0152f35b01519350388062000145565b939295859081168860005285600020956000905b89838310620002125750505010620001f7575b50505050811b01905562000155565b01519060f884600019921b161c1916905538808080620001e8565b858701518955909701969485019488935090810190620001d5565b88600052816000208480890160051c820192848a106200026e575b0160051c019085905b8281106200026157505062000127565b6000815501859062000251565b9250819262000248565b602289634e487b7160e01b6000525260246000fd5b90607f169062000115565b634e487b7160e01b600052604160045260246000fd5b015190503880620000e6565b908987941691886000528b6000209260005b8d828210620003065750508411620002ed575b505050811b018455620000f8565b015160001983891b60f8161c19169055388080620002df565b8385015186558a97909501949384019301620002cc565b90915086600052896000208580850160051c8201928c861062000369575b918891869594930160051c01915b82811062000359575050620000cf565b6000815585945088910162000349565b925081926200033b565b634e487b7160e01b600052602260045260246000fd5b91607f1691620000bb565b600080fd5b60408051919082016001600160401b038111838210176200029857604052565b6001600160a01b031660008181527f05b8ccbb9d4d8fb16ea74ce3c29a41f1b461fbdaff4714a0d9a8eb05499746bc602052604081205490919060ff16620004475781805260056020526040822081835260205260408220600160ff1982541617905533917f2f8788117e7eff1d82e926ec794901d17c78024a50270940304540a733656f0d8180a4600190565b509056fe608060408181526004918236101561001657600080fd5b600092833560e01c918262f714ce14610c535750816301ffc9a714610bb257816306fdde0314610abb578163095ea7b314610a1357816318160ddd146109f457816323b872dd146108e5578163248a9ca3146108ba5781632f2ff15d14610890578163313ce5671461087457816336568abe1461081557816351c6590a1461071057816370a08231146106da5781638f840ddd146106bb57816391d148541461067557816395d89b41146105705781639d7de6b314610292578163a217fddf14610277578163a9059cbb14610246578163b6b55f25146101eb578163d547741f146101a757508063dd62ed3e1461015c5763fc0c546a1461011657600080fd5b34610158578160031936011261015857602090516001600160a01b037f0000000000000000000000000000000000000000000000000000000000000000168152f35b5080fd5b5034610158578060031936011261015857602091610178610cfa565b82610181610cdf565b926001600160a01b03809316815260018652209116600052825280600020549051908152f35b919050346101e757806003193601126101e7576101e391356101de60016101cc610cdf565b93838752600560205286200154610df4565b610ffd565b5080f35b8280fd5b8390346101585760203660031901126101585761024090356102388130336001600160a01b037f000000000000000000000000000000000000000000000000000000000000000016611075565b600654610dda565b60065580f35b505034610158578060031936011261015857602090610270610266610cfa565b6024359033610ea0565b5160018152f35b50503461015857816003193601126101585751908152602090f35b9050816003193601126101e75780358015610561576102bf6102b660065483610d91565b60025490610dba565b92831561055257331561053c573385526020918583528186205481811061051057908087923384528386520383832055806002540360025582519081527fddf252ad1be2c89b69c2b068fc378daa952ba7f163c4a11628f55a4df523b3ef843392a33085528482528481812054928584106000146104a0576001600160a01b0390858183600754168651928380927f5c42132e0000000000000000000000000000000000000000000000000000000082525afa918215610496578492610468575b505061038c8588610de7565b916103bb817f000000000000000000000000000000000000000000000000000000000000000016963388610e38565b6007541694853b1561046457608491855196879485937fa628b47f000000000000000000000000000000000000000000000000000000008552338b8601526024356024860152604485015260648401525af1801561045a57610428575b505050610240905b600654610de7565b67ffffffffffffffff8295939511610447575291506102403880610418565b602483604187634e487b7160e01b835252fd5b81513d87823e3d90fd5b8380fd5b90809250813d831161048f575b61047f8183610d59565b810103126101e757513880610380565b503d610475565b85513d86823e3d90fd5b5050928092506104db9150336001600160a01b037f000000000000000000000000000000000000000000000000000000000000000016610e38565b82803415610507575b8180809234903390f1156104fc576102409150610420565b5051903d90823e3d90fd5b506108fc6104e4565b825163391434e360e21b8152338187019081526020810192909252604082018390529081906060010390fd5b82856024925191634b637e8f60e11b8352820152fd5b905051636067798b60e01b8152fd5b509051636067798b60e01b8152fd5b83833461015857816003193601126101585780519180938054916001908360011c926001851694851561066b575b60209586861081146106585785895290811561063457506001146105dc575b6105d887876105ce828c0383610d59565b5191829182610d10565b0390f35b81529295507f8a35acfbc15ff81a39ae7d344fd709f28e8600b4aa8c65c6b64bfe7fe36bd19b5b82841061062157505050826105d8946105ce928201019486806105bd565b8054868501880152928601928101610603565b60ff19168887015250505050151560051b83010192506105ce826105d886806105bd565b602484602285634e487b7160e01b835252fd5b93607f169361059e565b9050346101e757816003193601126101e7578160209360ff92610696610cdf565b90358252600586526001600160a01b0383832091168252855220541690519015158152f35b5050346101585781600319360112610158576020906006549051908152f35b50503461015857602036600319011261015857806020926001600160a01b03610701610cfa565b16815280845220549051908152f35b83915034610158576020366003190112610158578035908115610807576107628230336001600160a01b037f000000000000000000000000000000000000000000000000000000000000000016611075565b600654806107ec575069021e19e0c9bab2400000905b33156107d65750610240929361079082600254610dda565b6002553385528460205280852082815401905551908152837fddf252ad1be2c89b69c2b068fc378daa952ba7f163c4a11628f55a4df523b3ef60203393a3600654610dda565b6024908486519163ec442f0560e01b8352820152fd5b610801906107fc60025485610d91565b610dba565b90610778565b8351636067798b60e01b8152fd5b83833461015857806003193601126101585761082f610cdf565b90336001600160a01b0383160361084c57506101e3919235610ffd565b8390517f6697b232000000000000000000000000000000000000000000000000000000008152fd5b5050346101585781600319360112610158576020905160128152f35b919050346101e757806003193601126101e7576101e391356108b560016101cc610cdf565b610f7c565b9050346101e75760203660031901126101e75781602093600192358152600585522001549051908152f35b905082346109f15760603660031901126109f157610901610cfa565b610909610cdf565b91604435936001600160a01b038316808352600160205286832033845260205286832054916000198303610946575b602088610270898989610ea0565b8683106109ac5781156109965733156109805750825260016020908152868320338452815291869020908590039055829061027087610938565b60249084895191634a1406b160e11b8352820152fd5b6024908489519163e602df0560e01b8352820152fd5b87517ffb8f41b2000000000000000000000000000000000000000000000000000000008152339181019182526020820193909352604081018790528291506060010390fd5b80fd5b5050346101585781600319360112610158576020906002549051908152f35b9050346101e757816003193601126101e757610a2d610cfa565b602435903315610aa5576001600160a01b0316918215610a8f57508083602095338152600187528181208582528752205582519081527f8c5be1e5ebec7d5bd14f71427d1e84f3dd0314c0f7b2291e5b200ac8c7c3b925843392a35160018152f35b60249085855191634a1406b160e11b8352820152fd5b6024838686519163e602df0560e01b8352820152fd5b919050346101e757826003193601126101e75780519183600354906001908260011c92600181168015610ba8575b6020958686108214610b955750848852908115610b735750600114610b1a575b6105d886866105ce828b0383610d59565b929550600383527fc2575a0e9e593c00f959f8c92f12db2869c3395a3b0502d05e2516446f71f85b5b828410610b6057505050826105d8946105ce928201019438610b09565b8054868501880152928601928101610b43565b60ff191687860152505050151560051b83010192506105ce826105d838610b09565b836022602492634e487b7160e01b835252fd5b93607f1693610ae9565b9050346101e75760203660031901126101e75735907fffffffff0000000000000000000000000000000000000000000000000000000082168092036101e757602092507f7965db0b000000000000000000000000000000000000000000000000000000008214918215610c29575b50519015158152f35b7f01ffc9a70000000000000000000000000000000000000000000000000000000014915038610c20565b9091503461046457826003193601126104645760ff610c70610cdf565b9385805260056020528086203387526020528520541615610cc5575090610cc29135906001600160a01b037f000000000000000000000000000000000000000000000000000000000000000016610e38565b80f35b8360449263e2517d3f60e01b835233908301526024820152fd5b602435906001600160a01b0382168203610cf557565b600080fd5b600435906001600160a01b0382168203610cf557565b6020808252825181830181905290939260005b828110610d4557505060409293506000838284010152601f8019910116010190565b818101860151848201604001528501610d23565b90601f8019910116810190811067ffffffffffffffff821117610d7b57604052565b634e487b7160e01b600052604160045260246000fd5b81810292918115918404141715610da457565b634e487b7160e01b600052601160045260246000fd5b8115610dc4570490565b634e487b7160e01b600052601260045260246000fd5b91908201809211610da457565b91908203918211610da457565b80600052600560205260406000203360005260205260ff6040600020541615610e1a5750565b6044906040519063e2517d3f60e01b82523360048301526024820152fd5b916001600160a01b03604051927fa9059cbb000000000000000000000000000000000000000000000000000000006020850152166024830152604482015260448152608081019181831067ffffffffffffffff841117610d7b57610e9e926040526110e0565b565b916001600160a01b03808416928315610f645716928315610f4c5760009083825281602052604082205490838210610f1a575091604082827fddf252ad1be2c89b69c2b068fc378daa952ba7f163c4a11628f55a4df523b3ef958760209652828652038282205586815220818154019055604051908152a3565b60405163391434e360e21b81526001600160a01b03919091166004820152602481019190915260448101839052606490fd5b602460405163ec442f0560e01b815260006004820152fd5b6024604051634b637e8f60e11b815260006004820152fd5b9060009180835260056020526001600160a01b036040842092169182845260205260ff60408420541615600014610ff85780835260056020526040832082845260205260408320600160ff198254161790557f2f8788117e7eff1d82e926ec794901d17c78024a50270940304540a733656f0d339380a4600190565b505090565b9060009180835260056020526001600160a01b036040842092169182845260205260ff604084205416600014610ff8578083526005602052604083208284526020526040832060ff1981541690557ff6391f5c32d9c69d2a47ea670b442974b53935d1edc7fd64eb21e047a839171b339380a4600190565b9290604051927f23b872dd0000000000000000000000000000000000000000000000000000000060208501526001600160a01b03809216602485015216604483015260648201526064815260a081019181831067ffffffffffffffff841117610d7b57610e9e926040525b6001600160a01b031690600080826020829451910182865af13d156111c2573d9067ffffffffffffffff82116111ae579061113d916040519161112d6020601f19601f8401160184610d59565b82523d84602084013e5b846111ce565b908151918215159283611186575b5050506111555750565b602490604051907f5274afe70000000000000000000000000000000000000000000000000000000082526004820152fd5b8192935090602091810103126101585760200151908115918215036109f1575038808061114b565b602483634e487b7160e01b81526041600452fd5b61113d90606090611137565b9061120d57508051156111e357805190602001fd5b60046040517f1425ea42000000000000000000000000000000000000000000000000000000008152fd5b81511580611258575b61121e575090565b6024906001600160a01b03604051917f9996b315000000000000000000000000000000000000000000000000000000008352166004820152fd5b50803b1561121656fea264697066735822122012ab25788f562d1572c1d8cd63b8e9c9973e8b8171b87e1609e4b88c0db420c164736f6c6343000818003360803462000338576040906001600160401b0390808301828111828210176200023857835260128152602091712437b732bca837b7b6102628102a37b5b2b760711b8383015283518481018181108382111762000238578552600390818152620484c560ec1b8582015283519083821162000238578254916001958684811c941680156200032d575b8885101462000317578190601f94858111620002c1575b5088908583116001146200025a576000926200024e575b505060001982861b1c191690861b1783555b8051938411620002385760049586548681811c911680156200022d575b828210146200021857838111620001cd575b50809285116001146200015f575093839491849260009562000153575b50501b92600019911b1c19161790555b600780546001600160a01b0319163390811790915562000144906200033d565b5051610fd29081620003d08239f35b01519350388062000114565b92919084601f1981168860005285600020956000905b89838310620001b2575050501062000197575b50505050811b01905562000124565b01519060f884600019921b161c191690553880808062000188565b85870151895590970196948501948893509081019062000175565b87600052816000208480880160051c8201928489106200020e575b0160051c019087905b82811062000201575050620000f7565b60008155018790620001f1565b92508192620001e8565b602288634e487b7160e01b6000525260246000fd5b90607f1690620000e5565b634e487b7160e01b600052604160045260246000fd5b015190503880620000b6565b90889350601f19831691876000528a6000209260005b8c828210620002aa575050841162000291575b505050811b018355620000c8565b015160001983881b60f8161c1916905538808062000283565b8385015186558c9790950194938401930162000270565b90915085600052886000208580850160051c8201928b86106200030d575b918a91869594930160051c01915b828110620002fd5750506200009f565b600081558594508a9101620002ed565b92508192620002df565b634e487b7160e01b600052602260045260246000fd5b93607f169362000088565b600080fd5b6001600160a01b031660008181527f05b8ccbb9d4d8fb16ea74ce3c29a41f1b461fbdaff4714a0d9a8eb05499746bc602052604081205490919060ff16620003cb5781805260056020526040822081835260205260408220600160ff1982541617905533917f2f8788117e7eff1d82e926ec794901d17c78024a50270940304540a733656f0d8180a4600190565b509056fe608060408181526004908136101561001657600080fd5b600092833560e01c908162f714ce14610bdd5750806301ffc9a714610b3c57806306fdde0314610a47578063095ea7b31461099f57806318160ddd1461098057806323b872dd14610875578063248a9ca31461084a5780632f2ff15d14610822578063313ce5671461080657806336568abe146107a657806370a08231146107705780638f840ddd1461075157806391d148541461070b57806395d89b41146106055780639d7de6b3146102ce578063a217fddf146102b3578063a9059cbb14610282578063d0e30db014610267578063d547741f14610229578063dd62ed3e146101d95763e8078d941461010a57600080fd5b826003193601126101d55734156101c857600654806101ad575069021e19e0c9bab2400000915b3315610198575061014482600254610d69565b600255336000526000602052806000208281540190555190815260007fddf252ad1be2c89b69c2b068fc378daa952ba7f163c4a11628f55a4df523b3ef60203393a361019234600654610d69565b60065580f35b83602492519163ec442f0560e01b8352820152fd5b6101c2906101bd60025434610d20565b610d49565b91610131565b51636067798b60e01b8152fd5b8280fd5b8382346102255780600319360112610225576020916101f6610c89565b826101ff610c6e565b926001600160a01b03809316815260018652209116600052825280600020549051908152f35b5080fd5b50346101d557806003193601126101d557610263913561025e600161024c610c6e565b93838752600560205286200154610d83565b610f24565b5080f35b838060031936011261027f5761019234600654610d69565b80fd5b8382346102255780600319360112610225576020906102ac6102a2610c89565b6024359033610dc7565b5160018152f35b83823461022557816003193601126102255751908152602090f35b5090816003193601126101d557803580156105f6576102fb6102f260065483610d20565b60025490610d49565b9283156105e75733156105d157338552602091858352818620548181106105a557908087923384528386520383832055806002540360025582519081527fddf252ad1be2c89b69c2b068fc378daa952ba7f163c4a11628f55a4df523b3ef843392a384479285841060001461056357846001600160a01b03918083600754168651938480927f5c42132e0000000000000000000000000000000000000000000000000000000082525afa91821561055957868986928395610520575b50826103ce81936103c9888495610d76565b610d76565b99818115610517575b3390f11561050d5782600754169185517f3fc8cef300000000000000000000000000000000000000000000000000000000815282818a81875afa9283156105035786936104ca575b5050823b156104c657608492865197889586947fa628b47f000000000000000000000000000000000000000000000000000000008652338c870152602435602487015216604485015260648401525af180156104bc5761048a575b505050610192905b600654610d76565b67ffffffffffffffff82959395116104a957529150610192388061047a565b602483604187634e487b7160e01b835252fd5b81513d87823e3d90fd5b8480fd5b9080929350813d83116104fc575b6104e28183610ce8565b810103126104c6575183811681036104c65790388061041f565b503d6104d8565b87513d88823e3d90fd5b84513d85823e3d90fd5b506108fc6103d7565b94505050508082813d8311610552575b61053a8183610ce8565b8101031261054e57905190838689826103b7565b8380fd5b503d610530565b85513d86823e3d90fd5b508080935080929594506105773486610d69565b81811561059c575b3390f115610591576101929150610482565b5051903d90823e3d90fd5b506108fc61057f565b825163391434e360e21b8152338187019081526020810192909252604082018390529081906060010390fd5b82856024925191634b637e8f60e11b8352820152fd5b905051636067798b60e01b8152fd5b509051636067798b60e01b8152fd5b5082903461022557816003193601126102255780519180938054916001908360011c9260018516948515610701575b60209586861081146106ee578589529081156106ca5750600114610672575b61066e8787610664828c0383610ce8565b5191829182610c9f565b0390f35b81529295507f8a35acfbc15ff81a39ae7d344fd709f28e8600b4aa8c65c6b64bfe7fe36bd19b5b8284106106b7575050508261066e9461066492820101948680610653565b8054868501880152928601928101610699565b60ff19168887015250505050151560051b83010192506106648261066e8680610653565b602484602285634e487b7160e01b835252fd5b93607f1693610634565b5090346101d557816003193601126101d5578160209360ff9261072c610c6e565b90358252600586526001600160a01b0383832091168252855220541690519015158152f35b8382346102255781600319360112610225576020906006549051908152f35b83823461022557602036600319011261022557806020926001600160a01b03610797610c89565b16815280845220549051908152f35b508290346102255780600319360112610225576107c1610c6e565b90336001600160a01b038316036107de5750610263919235610f24565b8390517f6697b232000000000000000000000000000000000000000000000000000000008152fd5b8382346102255781600319360112610225576020905160128152f35b50346101d557806003193601126101d5576102639135610845600161024c610c6e565b610ea3565b5090346101d55760203660031901126101d55781602093600192358152600585522001549051908152f35b50913461027f57606036600319011261027f57610890610c89565b610898610c6e565b91604435936001600160a01b0383168083526001602052868320338452602052868320549160001983036108d5575b6020886102ac898989610dc7565b86831061093b57811561092557331561090f575082526001602090815286832033845281529186902090859003905582906102ac386108c7565b60249084895191634a1406b160e11b8352820152fd5b6024908489519163e602df0560e01b8352820152fd5b87517ffb8f41b2000000000000000000000000000000000000000000000000000000008152339181019182526020820193909352604081018790528291506060010390fd5b8382346102255781600319360112610225576020906002549051908152f35b5090346101d557816003193601126101d5576109b9610c89565b602435903315610a31576001600160a01b0316918215610a1b57508083602095338152600187528181208582528752205582519081527f8c5be1e5ebec7d5bd14f71427d1e84f3dd0314c0f7b2291e5b200ac8c7c3b925843392a35160018152f35b60249085855191634a1406b160e11b8352820152fd5b6024838686519163e602df0560e01b8352820152fd5b50346101d557826003193601126101d55780519183600354906001908260011c92600181168015610b32575b6020958686108214610b1f5750848852908115610afd5750600114610aa4575b61066e8686610664828b0383610ce8565b929550600383527fc2575a0e9e593c00f959f8c92f12db2869c3395a3b0502d05e2516446f71f85b5b828410610aea575050508261066e94610664928201019438610a93565b8054868501880152928601928101610acd565b60ff191687860152505050151560051b83010192506106648261066e38610a93565b836022602492634e487b7160e01b835252fd5b93607f1693610a73565b5090346101d55760203660031901126101d55735907fffffffff0000000000000000000000000000000000000000000000000000000082168092036101d557602092507f7965db0b000000000000000000000000000000000000000000000000000000008214918215610bb3575b50519015158152f35b7f01ffc9a70000000000000000000000000000000000000000000000000000000014915038610baa565b919290503461054e578260031936011261054e57803591610bfc610c6e565b91858052600560205284862033875260205260ff858720541615610c5357505083808093819382908215610c49575b6001600160a01b031690f115610c3f575080f35b51903d90823e3d90fd5b6108fc9150610c2b565b908560449263e2517d3f60e01b835233908301526024820152fd5b602435906001600160a01b0382168203610c8457565b600080fd5b600435906001600160a01b0382168203610c8457565b6020808252825181830181905290939260005b828110610cd457505060409293506000838284010152601f8019910116010190565b818101860151848201604001528501610cb2565b90601f8019910116810190811067ffffffffffffffff821117610d0a57604052565b634e487b7160e01b600052604160045260246000fd5b81810292918115918404141715610d3357565b634e487b7160e01b600052601160045260246000fd5b8115610d53570490565b634e487b7160e01b600052601260045260246000fd5b91908201809211610d3357565b91908203918211610d3357565b80600052600560205260406000203360005260205260ff6040600020541615610da95750565b6044906040519063e2517d3f60e01b82523360048301526024820152fd5b916001600160a01b03808416928315610e8b5716928315610e735760009083825281602052604082205490838210610e41575091604082827fddf252ad1be2c89b69c2b068fc378daa952ba7f163c4a11628f55a4df523b3ef958760209652828652038282205586815220818154019055604051908152a3565b60405163391434e360e21b81526001600160a01b03919091166004820152602481019190915260448101839052606490fd5b602460405163ec442f0560e01b815260006004820152fd5b6024604051634b637e8f60e11b815260006004820152fd5b9060009180835260056020526001600160a01b036040842092169182845260205260ff60408420541615600014610f1f5780835260056020526040832082845260205260408320600160ff198254161790557f2f8788117e7eff1d82e926ec794901d17c78024a50270940304540a733656f0d339380a4600190565b505090565b9060009180835260056020526001600160a01b036040842092169182845260205260ff604084205416600014610f1f578083526005602052604083208284526020526040832060ff1981541690557ff6391f5c32d9c69d2a47ea670b442974b53935d1edc7fd64eb21e047a839171b339380a460019056fea26469706673582212209ef06aa881fae08c22f9fa14bb44e6a114a188aeb3bd416d77a16c86030904a964736f6c63430008180033a2646970667358221220f8518244a40d975f459f9ef699cfdc5c9cde9c787afc403747d7730e562b37ef64736f6c63430008180033",
          "opcodes": "PUSH1 0xA0 CALLVALUE PUSH3 0x11F JUMPI PUSH1 0x1F PUSH3 0x41E3 CODESIZE DUP2 SWAP1 SUB SWAP2 DUP3 ADD PUSH1 0x1F NOT AND DUP4 ADD SWAP2 PUSH1 0x1 PUSH1 0x1 PUSH1 0x40 SHL SUB DUP4 GT DUP5 DUP5 LT OR PUSH3 0x124 JUMPI DUP1 DUP5 SWAP3 PUSH1 0x40 SWAP5 DUP6 MSTORE DUP4 CODECOPY DUP2 ADD SUB SLT PUSH3 0x11F JUMPI PUSH3 0x5A PUSH1 0x20 PUSH3 0x52 DUP4 PUSH3 0x13A JUMP JUMPDEST SWAP3 ADD PUSH3 0x13A JUMP JUMPDEST SWAP1 CALLER ISZERO PUSH3 0x106 JUMPI PUSH1 0x0 SLOAD SWAP1 PUSH1 0x1 DUP1 PUSH1 0xA0 SHL SUB SWAP2 DUP3 PUSH1 0x1 DUP1 PUSH1 0xA0 SHL SUB NOT SWAP5 CALLER DUP7 DUP5 AND OR PUSH1 0x0 SSTORE PUSH1 0x40 MLOAD SWAP3 DUP3 CALLER SWAP2 AND PUSH32 0x8BE0079C531659141344CD1FD0A4F28419497F9722A3DAAFE3B4186F6B6457E0 PUSH1 0x0 DUP1 LOG3 AND SWAP1 DUP2 ISZERO PUSH3 0xF7 JUMPI POP PUSH1 0x80 MSTORE AND SWAP1 PUSH1 0x4 SLOAD AND OR PUSH1 0x4 SSTORE PUSH3 0xCF CALLER PUSH3 0x14F JUMP JUMPDEST POP PUSH1 0x40 MLOAD PUSH2 0x4001 SWAP1 DUP2 PUSH3 0x1E2 DUP3 CODECOPY PUSH1 0x80 MLOAD DUP2 DUP2 DUP2 PUSH2 0x5DF ADD MSTORE DUP2 DUP2 PUSH2 0x8CB ADD MSTORE PUSH2 0xDC0 ADD MSTORE RETURN JUMPDEST PUSH4 0x50082683 PUSH1 0xE0 SHL DUP2 MSTORE PUSH1 0x4 SWAP1 REVERT JUMPDEST PUSH1 0x40 MLOAD PUSH4 0x1E4FBDF7 PUSH1 0xE0 SHL DUP2 MSTORE PUSH1 0x0 PUSH1 0x4 DUP3 ADD MSTORE PUSH1 0x24 SWAP1 REVERT JUMPDEST PUSH1 0x0 DUP1 REVERT JUMPDEST PUSH4 0x4E487B71 PUSH1 0xE0 SHL PUSH1 0x0 MSTORE PUSH1 0x41 PUSH1 0x4 MSTORE PUSH1 0x24 PUSH1 0x0 REVERT JUMPDEST MLOAD SWAP1 PUSH1 0x1 PUSH1 0x1 PUSH1 0xA0 SHL SUB DUP3 AND DUP3 SUB PUSH3 0x11F JUMPI JUMP JUMPDEST PUSH1 0x1 PUSH1 0x1 PUSH1 0xA0 SHL SUB AND PUSH1 0x0 DUP2 DUP2 MSTORE PUSH32 0xAC33FF75C19E70FE83507DB0D683FD3465C996598DC972688B7ACE676C89077B PUSH1 0x20 MSTORE PUSH1 0x40 DUP2 KECCAK256 SLOAD SWAP1 SWAP2 SWAP1 PUSH1 0xFF AND PUSH3 0x1DD JUMPI DUP2 DUP1 MSTORE PUSH1 0x2 PUSH1 0x20 MSTORE PUSH1 0x40 DUP3 KECCAK256 DUP2 DUP4 MSTORE PUSH1 0x20 MSTORE PUSH1 0x40 DUP3 KECCAK256 PUSH1 0x1 PUSH1 0xFF NOT DUP3 SLOAD AND OR SWAP1 SSTORE CALLER SWAP2 PUSH32 0x2F8788117E7EFF1D82E926EC794901D17C78024A50270940304540A733656F0D DUP2 DUP1 LOG4 PUSH1 0x1 SWAP1 JUMP JUMPDEST POP SWAP1 JUMP INVALID PUSH1 0x80 PUSH1 0x40 DUP2 DUP2 MSTORE PUSH1 0x4 DUP1 CALLDATASIZE LT ISZERO PUSH3 0x16 JUMPI PUSH1 0x0 DUP1 REVERT JUMPDEST PUSH1 0x0 SWAP3 DUP4 CALLDATALOAD PUSH1 0xE0 SHR SWAP1 DUP2 PUSH4 0x1FFC9A7 EQ PUSH3 0x10D8 JUMPI POP DUP1 PUSH4 0x248A9CA3 EQ PUSH3 0x10AC JUMPI DUP1 PUSH4 0x24CA984E EQ PUSH3 0x107A JUMPI DUP1 PUSH4 0x2EF3F1A5 EQ PUSH3 0x103D JUMPI DUP1 PUSH4 0x2F2FF15D EQ PUSH3 0x100D JUMPI DUP1 PUSH4 0x36568ABE EQ PUSH3 0xFA6 JUMPI DUP1 PUSH4 0x3FC8CEF3 EQ PUSH3 0xF75 JUMPI DUP1 PUSH4 0x59A1AAE1 EQ PUSH3 0xE44 JUMPI DUP1 PUSH4 0x5C42132E EQ PUSH3 0xD71 JUMPI DUP1 PUSH4 0x67EBB6B2 EQ PUSH3 0xCBC JUMPI DUP1 PUSH4 0x6AE0B154 EQ PUSH3 0xC8A JUMPI DUP1 PUSH4 0x715018A6 EQ PUSH3 0xC20 JUMPI DUP1 PUSH4 0x879D182D EQ PUSH3 0x86B JUMPI DUP1 PUSH4 0x8DA5CB5B EQ PUSH3 0x843 JUMPI DUP1 PUSH4 0x9049F9D2 EQ PUSH3 0x6E3 JUMPI DUP1 PUSH4 0x91D14854 EQ PUSH3 0x699 JUMPI DUP1 PUSH4 0xA217FDDF EQ PUSH3 0x67C JUMPI DUP1 PUSH4 0xA628B47F EQ PUSH3 0x4F0 JUMPI DUP1 PUSH4 0xBBE4F6DB EQ PUSH3 0x475 JUMPI DUP1 PUSH4 0xBE4F3E8F EQ PUSH3 0x442 JUMPI DUP1 PUSH4 0xC1BF9E58 EQ PUSH3 0x2D7 JUMPI DUP1 PUSH4 0xD547741F EQ PUSH3 0x290 JUMPI DUP1 PUSH4 0xEF88E0E1 EQ PUSH3 0x1FD JUMPI PUSH4 0xF2FDE38B EQ PUSH3 0x144 JUMPI PUSH1 0x0 DUP1 REVERT JUMPDEST CALLVALUE PUSH3 0x1F9 JUMPI PUSH1 0x20 CALLDATASIZE PUSH1 0x3 NOT ADD SLT PUSH3 0x1F9 JUMPI PUSH3 0x161 PUSH3 0x117C JUMP JUMPDEST SWAP1 PUSH3 0x16C PUSH3 0x14EC JUMP JUMPDEST PUSH1 0x1 PUSH1 0x1 PUSH1 0xA0 SHL SUB DUP1 SWAP3 AND SWAP3 DUP4 ISZERO PUSH3 0x1CA JUMPI POP POP PUSH1 0x0 SLOAD DUP3 PUSH20 0xFFFFFFFFFFFFFFFFFFFFFFFFFFFFFFFFFFFFFFFF NOT DUP3 AND OR PUSH1 0x0 SSTORE AND PUSH32 0x8BE0079C531659141344CD1FD0A4F28419497F9722A3DAAFE3B4186F6B6457E0 PUSH1 0x0 DUP1 LOG3 DUP1 RETURN JUMPDEST SWAP1 DUP5 PUSH1 0x24 SWAP3 MLOAD SWAP2 PUSH32 0x1E4FBDF700000000000000000000000000000000000000000000000000000000 DUP4 MSTORE DUP3 ADD MSTORE REVERT JUMPDEST DUP3 DUP1 REVERT JUMPDEST POP POP CALLVALUE PUSH3 0x28C JUMPI PUSH1 0x20 CALLDATASIZE PUSH1 0x3 NOT ADD SLT PUSH3 0x28C JUMPI SWAP1 PUSH3 0x288 SWAP2 PUSH3 0x222 PUSH3 0x117C JUMP JUMPDEST SWAP2 PUSH1 0x0 PUSH1 0x20 DUP4 MLOAD PUSH3 0x234 DUP2 PUSH3 0x11AA JUMP JUMPDEST DUP3 DUP2 MSTORE ADD MSTORE PUSH1 0x0 PUSH1 0x20 DUP4 MLOAD PUSH3 0x24A DUP2 PUSH3 0x11AA JUMP JUMPDEST DUP3 DUP2 MSTORE ADD MSTORE PUSH1 0x1 PUSH1 0x1 PUSH1 0xA0 SHL SUB DUP3 MLOAD SWAP4 PUSH3 0x265 DUP6 PUSH3 0x11AA JUMP JUMPDEST AND DUP4 MSTORE PUSH1 0x20 DUP4 ADD MSTORE MLOAD SWAP2 DUP3 SWAP2 DUP3 SWAP2 SWAP1 SWAP2 PUSH1 0x20 DUP1 PUSH1 0x40 DUP4 ADD SWAP5 DUP1 MLOAD DUP5 MSTORE ADD MLOAD SWAP2 ADD MSTORE JUMP JUMPDEST SUB SWAP1 RETURN JUMPDEST POP DUP1 REVERT JUMPDEST POP SWAP1 CALLVALUE PUSH3 0x1F9 JUMPI DUP1 PUSH1 0x3 NOT CALLDATASIZE ADD SLT PUSH3 0x1F9 JUMPI PUSH3 0x2D3 SWAP2 CALLDATALOAD PUSH3 0x2CD PUSH1 0x1 PUSH3 0x2BA PUSH3 0x1193 JUMP JUMPDEST SWAP4 DUP4 DUP8 MSTORE PUSH1 0x2 PUSH1 0x20 MSTORE DUP7 KECCAK256 ADD SLOAD PUSH3 0x126E JUMP JUMPDEST PUSH3 0x1473 JUMP JUMPDEST POP DUP1 RETURN JUMPDEST POP DUP3 SWAP1 CALLVALUE PUSH3 0x28C JUMPI DUP3 PUSH1 0x3 NOT CALLDATASIZE ADD SLT PUSH3 0x28C JUMPI PUSH3 0x2F6 PUSH3 0x117C JUMP JUMPDEST SWAP3 PUSH1 0x24 CALLDATALOAD PUSH32 0xA775B33F9A8A1BD7919099707CFE9320F63C8A6CD38FA171B61AACB968CE641 DUP1 PUSH1 0x0 MSTORE PUSH1 0x2 PUSH1 0x20 MSTORE DUP3 PUSH1 0x0 KECCAK256 CALLER PUSH1 0x0 MSTORE PUSH1 0x20 MSTORE PUSH1 0xFF DUP4 PUSH1 0x0 KECCAK256 SLOAD AND ISZERO PUSH3 0x425 JUMPI POP DUP4 SWAP5 PUSH1 0x1 PUSH1 0x1 PUSH1 0xA0 SHL SUB DUP1 SWAP2 AND PUSH20 0xEEEEEEEEEEEEEEEEEEEEEEEEEEEEEEEEEEEEEEEE SWAP1 DUP2 DUP2 EQ PUSH1 0x0 EQ PUSH3 0x3E3 JUMPI POP DUP6 MSTORE PUSH1 0x3 PUSH1 0x20 MSTORE DUP3 DUP6 KECCAK256 SLOAD AND SWAP3 DUP4 EXTCODESIZE ISZERO PUSH3 0x3DF JUMPI DUP3 MLOAD PUSH3 0x7B8A67 PUSH1 0xE1 SHL DUP2 MSTORE SWAP1 DUP2 ADD SWAP2 DUP3 MSTORE CALLER PUSH1 0x20 DUP4 ADD MSTORE SWAP3 DUP5 SWAP2 DUP5 SWAP2 SWAP1 DUP3 SWAP1 DUP5 SWAP1 DUP3 SWAP1 PUSH1 0x40 ADD JUMPDEST SUB SWAP3 GAS CALL SWAP1 DUP2 ISZERO PUSH3 0x3D6 JUMPI POP PUSH3 0x3C0 JUMPI POP POP DUP1 RETURN JUMPDEST PUSH3 0x3CB SWAP1 PUSH3 0x11DD JUMP JUMPDEST PUSH3 0x3D3 JUMPI DUP1 RETURN JUMPDEST DUP1 REVERT JUMPDEST MLOAD RETURNDATASIZE DUP5 DUP3 RETURNDATACOPY RETURNDATASIZE SWAP1 REVERT JUMPDEST DUP5 DUP1 REVERT JUMPDEST DUP7 MSTORE POP PUSH1 0x3 PUSH1 0x20 MSTORE DUP3 DUP6 KECCAK256 SLOAD AND SWAP3 DUP4 EXTCODESIZE ISZERO PUSH3 0x3DF JUMPI DUP3 MLOAD PUSH3 0x7B8A67 PUSH1 0xE1 SHL DUP2 MSTORE SWAP1 DUP2 ADD SWAP2 DUP3 MSTORE CALLER PUSH1 0x20 DUP4 ADD MSTORE SWAP3 DUP5 SWAP2 DUP5 SWAP2 SWAP1 DUP3 SWAP1 DUP5 SWAP1 DUP3 SWAP1 PUSH1 0x40 ADD PUSH3 0x3A9 JUMP JUMPDEST DUP4 PUSH1 0x44 SWAP2 DUP5 MLOAD SWAP2 PUSH4 0xE2517D3F PUSH1 0xE0 SHL DUP4 MSTORE CALLER SWAP1 DUP4 ADD MSTORE PUSH1 0x24 DUP3 ADD MSTORE REVERT JUMPDEST POP CALLVALUE PUSH3 0x1F9 JUMPI PUSH1 0x20 CALLDATASIZE PUSH1 0x3 NOT ADD SLT PUSH3 0x1F9 JUMPI SWAP2 DUP2 SWAP3 CALLDATALOAD DUP2 MSTORE PUSH1 0x1 PUSH1 0x20 MSTORE KECCAK256 PUSH1 0x1 DUP2 SLOAD SWAP2 ADD SLOAD DUP3 MLOAD SWAP2 DUP3 MSTORE PUSH1 0x20 DUP3 ADD MSTORE RETURN JUMPDEST POP CALLVALUE PUSH3 0x1F9 JUMPI PUSH1 0x20 CALLDATASIZE PUSH1 0x3 NOT ADD SLT PUSH3 0x1F9 JUMPI PUSH1 0x1 PUSH1 0x1 PUSH1 0xA0 SHL SUB SWAP1 DUP2 PUSH3 0x49D PUSH3 0x117C JUMP JUMPDEST AND SWAP1 DUP2 DUP6 MSTORE PUSH1 0x3 PUSH1 0x20 MSTORE DUP3 DUP5 DUP7 KECCAK256 SLOAD AND ISZERO PUSH3 0x4C9 JUMPI POP DUP4 DUP4 SWAP2 PUSH1 0x20 SWAP6 MSTORE PUSH1 0x3 DUP6 MSTORE KECCAK256 SLOAD AND SWAP1 MLOAD SWAP1 DUP2 MSTORE RETURN JUMPDEST DUP4 MLOAD PUSH32 0x8FEAD4D200000000000000000000000000000000000000000000000000000000 DUP2 MSTORE REVERT JUMPDEST POP PUSH1 0x80 CALLDATASIZE PUSH1 0x3 NOT ADD SLT PUSH3 0x1F9 JUMPI PUSH3 0x508 PUSH3 0x117C JUMP JUMPDEST SWAP2 PUSH1 0x24 CALLDATALOAD PUSH1 0x44 CALLDATALOAD SWAP4 PUSH1 0x1 PUSH1 0x1 PUSH1 0xA0 SHL SUB SWAP2 DUP3 DUP7 AND DUP1 SWAP7 SUB PUSH3 0x677 JUMPI DUP3 DUP5 MLOAD SWAP3 PUSH1 0x20 SWAP8 DUP9 DUP6 ADD MSTORE AND DUP5 DUP4 ADD MSTORE PUSH1 0x64 CALLDATALOAD PUSH1 0x60 DUP4 ADD MSTORE PUSH1 0x60 DUP3 MSTORE PUSH1 0x80 DUP3 ADD DUP3 DUP2 LT PUSH8 0xFFFFFFFFFFFFFFFF DUP3 GT OR PUSH3 0x662 JUMPI SWAP2 DUP7 SWAP4 SWAP2 SWAP6 SWAP3 DUP6 MSTORE DUP6 DUP9 MSTORE PUSH1 0x1 DUP5 MSTORE DUP5 DUP9 KECCAK256 SWAP6 PUSH1 0x1 DUP7 MLOAD SWAP8 DUP9 SWAP6 PUSH32 0xDC20313700000000000000000000000000000000000000000000000000000000 DUP8 MSTORE DUP2 SLOAD SWAP1 DUP8 ADD MSTORE ADD SLOAD PUSH1 0x24 DUP6 ADD MSTORE PUSH1 0x44 DUP5 ADD MSTORE PUSH1 0x80 PUSH1 0x64 DUP5 ADD MSTORE DUP1 MLOAD SWAP1 DUP2 PUSH1 0x84 DUP6 ADD MSTORE DUP9 JUMPDEST DUP3 DUP2 LT PUSH3 0x649 JUMPI POP POP PUSH1 0xA4 DUP4 DUP3 DUP11 DUP4 DUP4 SWAP6 DUP5 ADD ADD MSTORE PUSH1 0x1F DUP1 NOT SWAP2 ADD AND DUP2 ADD SUB ADD SWAP2 CALLVALUE SWAP1 PUSH32 0x0 AND GAS CALL SWAP1 DUP2 ISZERO PUSH3 0x640 JUMPI POP PUSH3 0x613 JUMPI DUP3 DUP1 RETURN JUMPDEST DUP2 RETURNDATASIZE DUP4 GT PUSH3 0x638 JUMPI JUMPDEST PUSH3 0x629 DUP2 DUP4 PUSH3 0x11F2 JUMP JUMPDEST DUP2 ADD SUB SLT PUSH3 0x3D3 JUMPI CODESIZE DUP1 DUP3 DUP1 RETURN JUMPDEST POP RETURNDATASIZE PUSH3 0x61D JUMP JUMPDEST MLOAD RETURNDATASIZE DUP6 DUP3 RETURNDATACOPY RETURNDATASIZE SWAP1 REVERT JUMPDEST DUP2 DUP2 ADD DUP7 ADD MLOAD DUP9 DUP3 ADD PUSH1 0xA4 ADD MSTORE DUP9 SWAP6 DUP9 SWAP6 POP ADD PUSH3 0x5B9 JUMP JUMPDEST PUSH1 0x41 DUP7 PUSH4 0x4E487B71 PUSH1 0xE0 SHL PUSH1 0x0 MSTORE MSTORE PUSH1 0x24 PUSH1 0x0 REVERT JUMPDEST PUSH1 0x0 DUP1 REVERT JUMPDEST POP POP CALLVALUE PUSH3 0x28C JUMPI DUP2 PUSH1 0x3 NOT CALLDATASIZE ADD SLT PUSH3 0x28C JUMPI MLOAD SWAP1 DUP2 MSTORE PUSH1 0x20 SWAP1 RETURN JUMPDEST POP CALLVALUE PUSH3 0x1F9 JUMPI DUP2 PUSH1 0x3 NOT CALLDATASIZE ADD SLT PUSH3 0x1F9 JUMPI PUSH1 0x1 PUSH1 0x1 PUSH1 0xA0 SHL SUB DUP3 PUSH1 0x20 SWAP5 PUSH3 0x6C2 PUSH3 0x1193 JUMP JUMPDEST SWAP4 CALLDATALOAD DUP2 MSTORE PUSH1 0x2 DUP7 MSTORE KECCAK256 SWAP2 AND PUSH1 0x0 MSTORE DUP3 MSTORE PUSH1 0xFF DUP2 PUSH1 0x0 KECCAK256 SLOAD AND SWAP1 MLOAD SWAP1 ISZERO ISZERO DUP2 MSTORE RETURN JUMPDEST POP SWAP1 CALLVALUE PUSH3 0x1F9 JUMPI PUSH1 0x20 CALLDATASIZE PUSH1 0x3 NOT ADD SLT PUSH3 0x1F9 JUMPI PUSH1 0x1 PUSH1 0x1 PUSH1 0xA0 SHL SUB SWAP1 DUP2 PUSH3 0x70C PUSH3 0x117C JUMP JUMPDEST AND SWAP3 DUP4 DUP6 MSTORE PUSH1 0x3 PUSH1 0x20 MSTORE DUP3 DUP3 DUP7 KECCAK256 SLOAD AND PUSH3 0x81C JUMPI PUSH20 0xEEEEEEEEEEEEEEEEEEEEEEEEEEEEEEEEEEEEEEEE DUP5 SUB PUSH3 0x7B8 JUMPI DUP2 MLOAD SWAP1 PUSH2 0x13A2 DUP1 DUP4 ADD SWAP2 DUP4 DUP4 LT PUSH8 0xFFFFFFFFFFFFFFFF DUP5 GT OR PUSH3 0x7A5 JUMPI POP SWAP1 DUP3 SWAP2 PUSH3 0x2C2A DUP4 CODECOPY SUB SWAP1 DUP6 CREATE SWAP3 DUP4 ISZERO PUSH3 0x79B JUMPI DUP5 MSTORE PUSH1 0x3 PUSH1 0x20 MSTORE DUP4 KECCAK256 SWAP2 AND PUSH20 0xFFFFFFFFFFFFFFFFFFFFFFFFFFFFFFFFFFFFFFFF NOT DUP3 SLOAD AND OR SWAP1 SSTORE DUP1 RETURN JUMPDEST DUP2 MLOAD RETURNDATASIZE DUP7 DUP3 RETURNDATACOPY RETURNDATASIZE SWAP1 REVERT JUMPDEST DUP8 PUSH1 0x41 PUSH1 0x24 SWAP3 PUSH4 0x4E487B71 PUSH1 0xE0 SHL DUP4 MSTORE MSTORE REVERT JUMPDEST DUP2 MLOAD SWAP1 PUSH2 0x16E3 DUP1 DUP4 ADD SWAP2 DUP4 DUP4 LT PUSH8 0xFFFFFFFFFFFFFFFF DUP5 GT OR PUSH3 0x7A5 JUMPI POP PUSH1 0x20 SWAP2 DUP4 SWAP2 PUSH3 0x1547 DUP4 CODECOPY DUP7 DUP2 MSTORE SUB ADD SWAP1 DUP6 CREATE SWAP3 DUP4 ISZERO PUSH3 0x79B JUMPI DUP5 MSTORE PUSH1 0x3 PUSH1 0x20 MSTORE DUP4 KECCAK256 SWAP2 AND PUSH20 0xFFFFFFFFFFFFFFFFFFFFFFFFFFFFFFFFFFFFFFFF NOT DUP3 SLOAD AND OR SWAP1 SSTORE DUP1 RETURN JUMPDEST SWAP1 MLOAD PUSH32 0x23369FA600000000000000000000000000000000000000000000000000000000 DUP2 MSTORE REVERT JUMPDEST POP POP CALLVALUE PUSH3 0x28C JUMPI DUP2 PUSH1 0x3 NOT CALLDATASIZE ADD SLT PUSH3 0x28C JUMPI PUSH1 0x1 PUSH1 0x1 PUSH1 0xA0 SHL SUB PUSH1 0x20 SWAP3 SLOAD AND SWAP1 MLOAD SWAP1 DUP2 MSTORE RETURN JUMPDEST POP SWAP2 CALLDATASIZE PUSH1 0x3 NOT ADD PUSH2 0x120 DUP2 SLT PUSH3 0x28C JUMPI PUSH2 0x100 SGT PUSH3 0x3D3 JUMPI PUSH2 0x104 CALLDATALOAD PUSH8 0xFFFFFFFFFFFFFFFF DUP1 DUP3 GT PUSH3 0x1F9 JUMPI CALLDATASIZE PUSH1 0x23 DUP4 ADD SLT ISZERO PUSH3 0x1F9 JUMPI DUP2 DUP6 ADD CALLDATALOAD SWAP1 DUP2 GT PUSH3 0x1F9 JUMPI DUP2 ADD CALLDATASIZE PUSH1 0x24 DUP3 ADD GT PUSH3 0x1F9 JUMPI PUSH1 0x1 PUSH1 0x1 PUSH1 0xA0 SHL SUB SWAP2 DUP3 PUSH32 0x0 AND CALLER SUB PUSH3 0xBF1 JUMPI PUSH1 0x24 CALLDATALOAD SWAP2 DUP3 DUP6 MSTORE PUSH1 0x20 SWAP1 PUSH1 0x1 DUP3 MSTORE DUP2 DUP8 DUP8 KECCAK256 DUP9 MLOAD PUSH3 0x911 DUP2 PUSH3 0x11AA JUMP JUMPDEST PUSH1 0x1 DUP3 SLOAD SWAP3 DUP4 DUP4 MSTORE ADD SLOAD SWAP3 DUP4 SWAP2 ADD MSTORE PUSH1 0x44 CALLDATALOAD EQ SWAP1 DUP2 ISZERO SWAP2 PUSH3 0xBE3 JUMPI JUMPDEST POP ISZERO PUSH3 0x95D JUMPI DUP8 DUP8 MLOAD PUSH32 0x7FEE69A100000000000000000000000000000000000000000000000000000000 DUP2 MSTORE REVERT JUMPDEST SWAP1 DUP6 DUP9 PUSH1 0x60 DUP6 DUP11 SWAP6 SUB SLT PUSH3 0x28C JUMPI PUSH3 0x97A PUSH1 0x24 DUP7 ADD PUSH3 0x1531 JUMP JUMPDEST SWAP7 DUP1 PUSH1 0x64 PUSH3 0x98C PUSH1 0x44 DUP10 ADD PUSH3 0x1531 JUMP JUMPDEST SWAP8 ADD CALLDATALOAD SWAP7 AND SWAP8 DUP5 DUP3 PUSH1 0x44 DUP2 DUP7 SLOAD AND SWAP4 DUP10 MLOAD SWAP5 DUP6 SWAP4 DUP5 SWAP3 PUSH32 0xB464631B00000000000000000000000000000000000000000000000000000000 DUP5 MSTORE AND DUP9 DUP4 ADD MSTORE DUP13 PUSH1 0x24 DUP4 ADD MSTORE GAS STATICCALL SWAP1 DUP2 ISZERO PUSH3 0xBD9 JUMPI SWAP1 DUP3 SWAP2 DUP6 SWAP2 PUSH3 0xB94 JUMPI JUMPDEST POP PUSH20 0xEEEEEEEEEEEEEEEEEEEEEEEEEEEEEEEEEEEEEEEE SWAP2 AND DUP2 DUP2 SUB PUSH3 0xABF JUMPI POP DUP4 MSTORE PUSH1 0x3 DUP5 MSTORE DUP5 DUP4 KECCAK256 SLOAD AND DUP1 EXTCODESIZE ISZERO PUSH3 0x1F9 JUMPI DUP5 MLOAD PUSH3 0x7B8A67 PUSH1 0xE1 SHL DUP2 MSTORE SWAP2 DUP3 ADD DUP7 DUP2 MSTORE PUSH1 0x1 PUSH1 0x1 PUSH1 0xA0 SHL SUB DUP10 AND PUSH1 0x20 DUP3 ADD MSTORE DUP4 SWAP2 DUP4 SWAP2 DUP3 SWAP1 DUP5 SWAP1 DUP3 SWAP1 PUSH1 0x40 ADD SUB SWAP3 GAS CALL DUP1 ISZERO PUSH3 0xAB5 JUMPI PUSH3 0xA91 JUMPI JUMPDEST POP POP SWAP1 PUSH32 0x40627F7438E2974529D03C9B047342D738A7A1759FED232175525A8C048C9444 SWAP5 PUSH1 0x60 SWAP5 SWAP4 SWAP3 JUMPDEST DUP3 MLOAD SWAP5 DUP6 MSTORE DUP5 ADD MSTORE DUP3 ADD MSTORE LOG1 DUP1 RETURN JUMPDEST PUSH3 0xAA1 SWAP1 SWAP6 SWAP5 SWAP4 SWAP3 SWAP6 PUSH3 0x11DD JUMP JUMPDEST PUSH3 0xAB1 JUMPI SWAP1 SWAP2 SWAP3 DUP6 DUP8 PUSH3 0xA57 JUMP JUMPDEST DUP6 DUP1 REVERT JUMPDEST DUP5 MLOAD RETURNDATASIZE DUP5 DUP3 RETURNDATACOPY RETURNDATASIZE SWAP1 REVERT JUMPDEST SWAP1 POP DUP4 SWAP3 SWAP4 SWAP9 SWAP6 SWAP7 SWAP8 SWAP9 MSTORE PUSH1 0x3 DUP5 MSTORE DUP6 DUP3 KECCAK256 SLOAD AND SWAP2 DUP3 EXTCODESIZE ISZERO PUSH3 0x28C JUMPI DUP6 MLOAD PUSH3 0x7B8A67 PUSH1 0xE1 SHL DUP2 MSTORE SWAP1 DUP2 ADD DUP8 DUP2 MSTORE PUSH1 0x1 PUSH1 0x1 PUSH1 0xA0 SHL SUB DUP7 AND PUSH1 0x20 DUP3 ADD MSTORE SWAP1 SWAP3 DUP4 SWAP2 DUP3 SWAP1 DUP5 SWAP1 DUP3 SWAP1 PUSH1 0x40 ADD SUB SWAP3 GAS CALL DUP1 ISZERO PUSH3 0xB8A JUMPI PUSH3 0xB49 JUMPI JUMPDEST POP SWAP2 PUSH1 0x60 SWAP4 SWAP2 PUSH32 0x40627F7438E2974529D03C9B047342D738A7A1759FED232175525A8C048C9444 SWAP6 SWAP4 PUSH3 0xA82 JUMP JUMPDEST SWAP2 PUSH32 0x40627F7438E2974529D03C9B047342D738A7A1759FED232175525A8C048C9444 SWAP6 SWAP4 SWAP2 SWAP7 PUSH3 0xB7D PUSH1 0x60 SWAP7 SWAP5 PUSH3 0x11DD JUMP JUMPDEST SWAP7 SWAP2 SWAP4 SWAP6 POP SWAP2 SWAP4 PUSH3 0xB1A JUMP JUMPDEST DUP5 MLOAD RETURNDATASIZE DUP10 DUP3 RETURNDATACOPY RETURNDATASIZE SWAP1 REVERT JUMPDEST DUP1 SWAP3 POP DUP7 DUP1 SWAP3 POP RETURNDATASIZE DUP4 GT PUSH3 0xBD1 JUMPI JUMPDEST PUSH3 0xBB0 DUP2 DUP4 PUSH3 0x11F2 JUMP JUMPDEST DUP2 ADD SUB SLT PUSH3 0xBCD JUMPI MLOAD DUP2 DUP2 AND DUP2 SUB PUSH3 0xBCD JUMPI DUP2 SWAP1 DUP12 PUSH3 0x9E5 JUMP JUMPDEST DUP4 DUP1 REVERT JUMPDEST POP RETURNDATASIZE PUSH3 0xBA4 JUMP JUMPDEST DUP7 MLOAD RETURNDATASIZE DUP7 DUP3 RETURNDATACOPY RETURNDATASIZE SWAP1 REVERT JUMPDEST SWAP1 POP PUSH1 0x64 CALLDATALOAD EQ ISZERO CODESIZE PUSH3 0x92E JUMP JUMPDEST DUP5 MLOAD PUSH32 0xD7F7333400000000000000000000000000000000000000000000000000000000 DUP2 MSTORE CALLER DUP2 DUP9 ADD MSTORE PUSH1 0x24 SWAP1 REVERT JUMPDEST DUP4 CALLVALUE PUSH3 0x3D3 JUMPI DUP1 PUSH1 0x3 NOT CALLDATASIZE ADD SLT PUSH3 0x3D3 JUMPI PUSH3 0xC3D PUSH3 0x14EC JUMP JUMPDEST DUP1 PUSH1 0x1 PUSH1 0x1 PUSH1 0xA0 SHL SUB DUP2 SLOAD PUSH20 0xFFFFFFFFFFFFFFFFFFFFFFFFFFFFFFFFFFFFFFFF NOT DUP2 AND DUP4 SSTORE AND PUSH32 0x8BE0079C531659141344CD1FD0A4F28419497F9722A3DAAFE3B4186F6B6457E0 DUP3 DUP1 LOG3 DUP1 RETURN JUMPDEST DUP4 CALLVALUE PUSH3 0x3D3 JUMPI PUSH1 0x20 CALLDATASIZE PUSH1 0x3 NOT ADD SLT PUSH3 0x3D3 JUMPI PUSH3 0x2D3 PUSH3 0xCAC PUSH3 0x117C JUMP JUMPDEST PUSH3 0xCB6 PUSH3 0x1215 JUMP JUMPDEST PUSH3 0x13C6 JUMP JUMPDEST POP DUP3 SWAP1 CALLVALUE PUSH3 0x28C JUMPI PUSH1 0x20 CALLDATASIZE PUSH1 0x3 NOT ADD SLT PUSH3 0x28C JUMPI DUP3 DUP2 CALLDATALOAD SWAP3 DUP1 PUSH1 0x20 DUP4 MLOAD PUSH3 0xCE6 DUP2 PUSH3 0x11AA JUMP JUMPDEST DUP3 DUP2 MSTORE ADD MSTORE DUP4 DUP2 MSTORE PUSH1 0x1 PUSH1 0x20 MSTORE KECCAK256 SWAP2 DUP4 MLOAD SWAP3 PUSH3 0xD03 DUP5 PUSH3 0x11AA JUMP JUMPDEST PUSH1 0x1 DUP2 SLOAD SWAP2 DUP3 DUP7 MSTORE ADD SLOAD SWAP1 DUP2 PUSH1 0x20 DUP7 ADD MSTORE ISZERO SWAP1 DUP2 PUSH3 0xD67 JUMPI JUMPDEST POP PUSH3 0xD38 JUMPI DUP4 MLOAD DUP4 MLOAD DUP2 MSTORE PUSH1 0x20 DUP1 DUP6 ADD MLOAD SWAP1 DUP3 ADD MSTORE PUSH1 0x40 SWAP1 RETURN JUMPDEST PUSH1 0x24 SWAP3 POP DUP4 MLOAD SWAP2 PUSH32 0x78D0DBFC00000000000000000000000000000000000000000000000000000000 DUP4 MSTORE DUP3 ADD MSTORE REVERT JUMPDEST SWAP1 POP ISZERO DUP6 PUSH3 0xD1D JUMP JUMPDEST POP SWAP1 CALLVALUE PUSH3 0x1F9 JUMPI DUP3 PUSH1 0x3 NOT CALLDATASIZE ADD SLT PUSH3 0x1F9 JUMPI DUP1 MLOAD SWAP2 PUSH32 0xB88C914800000000000000000000000000000000000000000000000000000000 DUP4 MSTORE ADDRESS SWAP1 DUP4 ADD MSTORE PUSH1 0x20 DUP3 PUSH1 0x24 DUP2 PUSH1 0x1 PUSH1 0x1 PUSH1 0xA0 SHL SUB PUSH32 0x0 AND GAS STATICCALL SWAP2 DUP3 ISZERO PUSH3 0xE3A JUMPI DUP4 SWAP3 PUSH3 0xDFC JUMPI JUMPDEST PUSH1 0x20 DUP4 DUP4 MLOAD SWAP1 DUP2 MSTORE RETURN JUMPDEST SWAP1 SWAP2 POP PUSH1 0x20 DUP2 RETURNDATASIZE PUSH1 0x20 GT PUSH3 0xE31 JUMPI JUMPDEST DUP2 PUSH3 0xE1B PUSH1 0x20 SWAP4 DUP4 PUSH3 0x11F2 JUMP JUMPDEST DUP2 ADD SUB SLT PUSH3 0x1F9 JUMPI PUSH1 0x20 SWAP3 POP MLOAD SWAP1 CODESIZE PUSH3 0xDF2 JUMP JUMPDEST RETURNDATASIZE SWAP2 POP PUSH3 0xE0C JUMP JUMPDEST DUP2 MLOAD RETURNDATASIZE DUP6 DUP3 RETURNDATACOPY RETURNDATASIZE SWAP1 REVERT JUMPDEST POP CALLVALUE PUSH3 0x1F9 JUMPI DUP2 PUSH1 0x3 NOT CALLDATASIZE ADD SLT PUSH3 0x1F9 JUMPI DUP1 CALLDATALOAD SWAP1 PUSH8 0xFFFFFFFFFFFFFFFF DUP1 DUP4 GT PUSH3 0x3DF JUMPI CALLDATASIZE PUSH1 0x23 DUP5 ADD SLT ISZERO PUSH3 0x3DF JUMPI DUP3 DUP3 ADD CALLDATALOAD SWAP3 DUP2 DUP5 GT PUSH3 0xAB1 JUMPI PUSH1 0x24 SWAP3 PUSH1 0x5 SWAP3 CALLDATASIZE DUP6 DUP8 PUSH1 0x5 SHL DUP6 ADD ADD GT PUSH3 0xF71 JUMPI DUP5 CALLDATALOAD SWAP2 DUP2 DUP4 GT PUSH3 0xF6D JUMPI CALLDATASIZE PUSH1 0x23 DUP5 ADD SLT ISZERO PUSH3 0xF6D JUMPI DUP3 DUP2 ADD CALLDATALOAD SWAP2 DUP3 GT PUSH3 0xF6D JUMPI PUSH1 0x6 SWAP2 CALLDATASIZE DUP8 DUP3 PUSH1 0x6 SHL DUP7 ADD ADD GT PUSH3 0xF69 JUMPI PUSH3 0xED8 PUSH3 0x14EC JUMP JUMPDEST PUSH3 0xEE2 PUSH3 0x14EC JUMP JUMPDEST DUP1 DUP9 SUB PUSH3 0xF41 JUMPI DUP10 JUMPDEST DUP9 DUP2 LT PUSH3 0xEF8 JUMPI DUP11 DUP1 RETURN JUMPDEST DUP2 DUP2 LT ISZERO PUSH3 0xF2F JUMPI DUP1 DUP8 SHL DUP7 ADD DUP9 ADD CALLDATALOAD DUP12 MSTORE PUSH1 0x1 PUSH1 0x20 DUP2 SWAP1 MSTORE DUP11 DUP13 KECCAK256 DUP3 DUP7 SHL DUP8 ADD DUP11 DUP2 ADD CALLDATALOAD DUP3 SSTORE PUSH1 0x44 ADD CALLDATALOAD SWAP1 DUP3 ADD SSTORE ADD PUSH3 0xEEC JUMP JUMPDEST DUP8 DUP12 PUSH1 0x32 DUP6 PUSH4 0x4E487B71 PUSH1 0xE0 SHL DUP4 MSTORE MSTORE REVERT JUMPDEST POP DUP8 MLOAD PUSH32 0x947D5A8400000000000000000000000000000000000000000000000000000000 DUP2 MSTORE REVERT JUMPDEST DUP10 DUP1 REVERT JUMPDEST DUP9 DUP1 REVERT JUMPDEST DUP8 DUP1 REVERT JUMPDEST POP POP CALLVALUE PUSH3 0x28C JUMPI DUP2 PUSH1 0x3 NOT CALLDATASIZE ADD SLT PUSH3 0x28C JUMPI PUSH1 0x20 SWAP1 MLOAD PUSH20 0xEEEEEEEEEEEEEEEEEEEEEEEEEEEEEEEEEEEEEEEE DUP2 MSTORE RETURN JUMPDEST POP SWAP2 SWAP1 CALLVALUE PUSH3 0x28C JUMPI DUP1 PUSH1 0x3 NOT CALLDATASIZE ADD SLT PUSH3 0x28C JUMPI PUSH3 0xFC5 PUSH3 0x1193 JUMP JUMPDEST SWAP1 CALLER PUSH1 0x1 PUSH1 0x1 PUSH1 0xA0 SHL SUB DUP4 AND SUB PUSH3 0xFE5 JUMPI POP PUSH3 0x2D3 SWAP2 SWAP3 CALLDATALOAD PUSH3 0x1473 JUMP JUMPDEST DUP4 SWAP1 MLOAD PUSH32 0x6697B23200000000000000000000000000000000000000000000000000000000 DUP2 MSTORE REVERT JUMPDEST POP SWAP1 CALLVALUE PUSH3 0x1F9 JUMPI DUP1 PUSH1 0x3 NOT CALLDATASIZE ADD SLT PUSH3 0x1F9 JUMPI PUSH3 0x2D3 SWAP2 CALLDATALOAD PUSH3 0x1037 PUSH1 0x1 PUSH3 0x2BA PUSH3 0x1193 JUMP JUMPDEST PUSH3 0x1349 JUMP JUMPDEST POP POP CALLVALUE PUSH3 0x28C JUMPI DUP2 PUSH1 0x3 NOT CALLDATASIZE ADD SLT PUSH3 0x28C JUMPI PUSH1 0x20 SWAP1 MLOAD PUSH32 0xA775B33F9A8A1BD7919099707CFE9320F63C8A6CD38FA171B61AACB968CE641 DUP2 MSTORE RETURN JUMPDEST DUP4 CALLVALUE PUSH3 0x3D3 JUMPI PUSH1 0x20 CALLDATASIZE PUSH1 0x3 NOT ADD SLT PUSH3 0x3D3 JUMPI PUSH3 0x2D3 PUSH3 0x109C PUSH3 0x117C JUMP JUMPDEST PUSH3 0x10A6 PUSH3 0x1215 JUMP JUMPDEST PUSH3 0x1295 JUMP JUMPDEST POP CALLVALUE PUSH3 0x1F9 JUMPI PUSH1 0x20 CALLDATASIZE PUSH1 0x3 NOT ADD SLT PUSH3 0x1F9 JUMPI DUP2 PUSH1 0x20 SWAP4 PUSH1 0x1 SWAP3 CALLDATALOAD DUP2 MSTORE PUSH1 0x2 DUP6 MSTORE KECCAK256 ADD SLOAD SWAP1 MLOAD SWAP1 DUP2 MSTORE RETURN JUMPDEST SWAP3 POP POP CALLVALUE PUSH3 0x1F9 JUMPI PUSH1 0x20 CALLDATASIZE PUSH1 0x3 NOT ADD SLT PUSH3 0x1F9 JUMPI CALLDATALOAD PUSH32 0xFFFFFFFF00000000000000000000000000000000000000000000000000000000 DUP2 AND DUP1 SWAP2 SUB PUSH3 0x1F9 JUMPI PUSH1 0x20 SWAP3 POP PUSH32 0x7965DB0B00000000000000000000000000000000000000000000000000000000 DUP2 EQ SWAP1 DUP2 ISZERO PUSH3 0x1151 JUMPI JUMPDEST POP ISZERO ISZERO DUP2 MSTORE RETURN JUMPDEST PUSH32 0x1FFC9A700000000000000000000000000000000000000000000000000000000 SWAP2 POP EQ CODESIZE PUSH3 0x114A JUMP JUMPDEST PUSH1 0x4 CALLDATALOAD SWAP1 PUSH1 0x1 PUSH1 0x1 PUSH1 0xA0 SHL SUB DUP3 AND DUP3 SUB PUSH3 0x677 JUMPI JUMP JUMPDEST PUSH1 0x24 CALLDATALOAD SWAP1 PUSH1 0x1 PUSH1 0x1 PUSH1 0xA0 SHL SUB DUP3 AND DUP3 SUB PUSH3 0x677 JUMPI JUMP JUMPDEST PUSH1 0x40 DUP2 ADD SWAP1 DUP2 LT PUSH8 0xFFFFFFFFFFFFFFFF DUP3 GT OR PUSH3 0x11C7 JUMPI PUSH1 0x40 MSTORE JUMP JUMPDEST PUSH4 0x4E487B71 PUSH1 0xE0 SHL PUSH1 0x0 MSTORE PUSH1 0x41 PUSH1 0x4 MSTORE PUSH1 0x24 PUSH1 0x0 REVERT JUMPDEST PUSH8 0xFFFFFFFFFFFFFFFF DUP2 GT PUSH3 0x11C7 JUMPI PUSH1 0x40 MSTORE JUMP JUMPDEST SWAP1 PUSH1 0x1F DUP1 NOT SWAP2 ADD AND DUP2 ADD SWAP1 DUP2 LT PUSH8 0xFFFFFFFFFFFFFFFF DUP3 GT OR PUSH3 0x11C7 JUMPI PUSH1 0x40 MSTORE JUMP JUMPDEST CALLER PUSH1 0x0 SWAP1 DUP2 MSTORE PUSH32 0xAC33FF75C19E70FE83507DB0D683FD3465C996598DC972688B7ACE676C89077B PUSH1 0x20 MSTORE PUSH1 0x40 DUP2 KECCAK256 SLOAD PUSH1 0xFF AND ISZERO PUSH3 0x1250 JUMPI POP JUMP JUMPDEST PUSH1 0x44 SWAP1 PUSH1 0x40 MLOAD SWAP1 PUSH4 0xE2517D3F PUSH1 0xE0 SHL DUP3 MSTORE CALLER PUSH1 0x4 DUP4 ADD MSTORE PUSH1 0x24 DUP3 ADD MSTORE REVERT JUMPDEST DUP1 PUSH1 0x0 MSTORE PUSH1 0x2 PUSH1 0x20 MSTORE PUSH1 0x40 PUSH1 0x0 KECCAK256 CALLER PUSH1 0x0 MSTORE PUSH1 0x20 MSTORE PUSH1 0xFF PUSH1 0x40 PUSH1 0x0 KECCAK256 SLOAD AND ISZERO PUSH3 0x1250 JUMPI POP JUMP JUMPDEST PUSH1 0x1 PUSH1 0x1 PUSH1 0xA0 SHL SUB AND PUSH1 0x0 DUP2 DUP2 MSTORE PUSH32 0x2A44413C737EDF57C9A9B5A5EDCE85F99936144E881302A0CFC518C4333A371F PUSH1 0x20 MSTORE PUSH1 0x40 DUP2 KECCAK256 SLOAD SWAP1 SWAP2 SWAP1 PUSH32 0xA775B33F9A8A1BD7919099707CFE9320F63C8A6CD38FA171B61AACB968CE641 SWAP1 PUSH1 0xFF AND PUSH3 0x1344 JUMPI DUP1 DUP4 MSTORE PUSH1 0x2 PUSH1 0x20 MSTORE PUSH1 0x40 DUP4 KECCAK256 DUP3 DUP5 MSTORE PUSH1 0x20 MSTORE PUSH1 0x40 DUP4 KECCAK256 PUSH1 0x1 PUSH1 0xFF NOT DUP3 SLOAD AND OR SWAP1 SSTORE PUSH32 0x2F8788117E7EFF1D82E926EC794901D17C78024A50270940304540A733656F0D CALLER SWAP4 DUP1 LOG4 PUSH1 0x1 SWAP1 JUMP JUMPDEST POP POP SWAP1 JUMP JUMPDEST SWAP1 PUSH1 0x0 SWAP2 DUP1 DUP4 MSTORE PUSH1 0x2 PUSH1 0x20 MSTORE PUSH1 0x1 PUSH1 0x1 PUSH1 0xA0 SHL SUB PUSH1 0x40 DUP5 KECCAK256 SWAP3 AND SWAP2 DUP3 DUP5 MSTORE PUSH1 0x20 MSTORE PUSH1 0xFF PUSH1 0x40 DUP5 KECCAK256 SLOAD AND ISZERO PUSH1 0x0 EQ PUSH3 0x1344 JUMPI DUP1 DUP4 MSTORE PUSH1 0x2 PUSH1 0x20 MSTORE PUSH1 0x40 DUP4 KECCAK256 DUP3 DUP5 MSTORE PUSH1 0x20 MSTORE PUSH1 0x40 DUP4 KECCAK256 PUSH1 0x1 PUSH1 0xFF NOT DUP3 SLOAD AND OR SWAP1 SSTORE PUSH32 0x2F8788117E7EFF1D82E926EC794901D17C78024A50270940304540A733656F0D CALLER SWAP4 DUP1 LOG4 PUSH1 0x1 SWAP1 JUMP JUMPDEST PUSH1 0x1 PUSH1 0x1 PUSH1 0xA0 SHL SUB AND PUSH1 0x0 DUP2 DUP2 MSTORE PUSH32 0x2A44413C737EDF57C9A9B5A5EDCE85F99936144E881302A0CFC518C4333A371F PUSH1 0x20 MSTORE PUSH1 0x40 DUP2 KECCAK256 SLOAD SWAP1 SWAP2 SWAP1 PUSH32 0xA775B33F9A8A1BD7919099707CFE9320F63C8A6CD38FA171B61AACB968CE641 SWAP1 PUSH1 0xFF AND ISZERO PUSH3 0x1344 JUMPI DUP1 DUP4 MSTORE PUSH1 0x2 PUSH1 0x20 MSTORE PUSH1 0x40 DUP4 KECCAK256 DUP3 DUP5 MSTORE PUSH1 0x20 MSTORE PUSH1 0x40 DUP4 KECCAK256 PUSH1 0xFF NOT DUP2 SLOAD AND SWAP1 SSTORE PUSH32 0xF6391F5C32D9C69D2A47EA670B442974B53935D1EDC7FD64EB21E047A839171B CALLER SWAP4 DUP1 LOG4 PUSH1 0x1 SWAP1 JUMP JUMPDEST SWAP1 PUSH1 0x0 SWAP2 DUP1 DUP4 MSTORE PUSH1 0x2 PUSH1 0x20 MSTORE PUSH1 0x1 PUSH1 0x1 PUSH1 0xA0 SHL SUB PUSH1 0x40 DUP5 KECCAK256 SWAP3 AND SWAP2 DUP3 DUP5 MSTORE PUSH1 0x20 MSTORE PUSH1 0xFF PUSH1 0x40 DUP5 KECCAK256 SLOAD AND PUSH1 0x0 EQ PUSH3 0x1344 JUMPI DUP1 DUP4 MSTORE PUSH1 0x2 PUSH1 0x20 MSTORE PUSH1 0x40 DUP4 KECCAK256 DUP3 DUP5 MSTORE PUSH1 0x20 MSTORE PUSH1 0x40 DUP4 KECCAK256 PUSH1 0xFF NOT DUP2 SLOAD AND SWAP1 SSTORE PUSH32 0xF6391F5C32D9C69D2A47EA670B442974B53935D1EDC7FD64EB21E047A839171B CALLER SWAP4 DUP1 LOG4 PUSH1 0x1 SWAP1 JUMP JUMPDEST PUSH1 0x1 PUSH1 0x1 PUSH1 0xA0 SHL SUB PUSH1 0x0 SLOAD AND CALLER SUB PUSH3 0x1501 JUMPI JUMP JUMPDEST PUSH1 0x24 PUSH1 0x40 MLOAD PUSH32 0x118CDAA700000000000000000000000000000000000000000000000000000000 DUP2 MSTORE CALLER PUSH1 0x4 DUP3 ADD MSTORE REVERT JUMPDEST CALLDATALOAD SWAP1 PUSH1 0x1 PUSH1 0x1 PUSH1 0xA0 SHL SUB DUP3 AND DUP3 SUB PUSH3 0x677 JUMPI JUMP INVALID PUSH1 0xA0 CALLVALUE PUSH3 0x394 JUMPI PUSH1 0x1F SWAP1 PUSH1 0x1F NOT PUSH1 0x1 PUSH1 0x1 PUSH1 0x40 SHL SUB PUSH3 0x16E3 CODESIZE DUP2 SWAP1 SUB DUP6 DUP2 ADD DUP5 AND DUP6 ADD DUP4 DUP2 GT DUP7 DUP3 LT OR PUSH3 0x298 JUMPI DUP6 SWAP3 DUP3 SWAP2 PUSH1 0x40 MSTORE DUP4 CODECOPY PUSH1 0x20 SWAP5 DUP6 SWAP2 DUP2 ADD SUB SLT PUSH3 0x394 JUMPI MLOAD SWAP4 PUSH1 0x1 PUSH1 0x1 PUSH1 0xA0 SHL SUB DUP6 AND DUP6 SUB PUSH3 0x394 JUMPI PUSH3 0x64 PUSH3 0x399 JUMP JUMPDEST PUSH1 0x12 DUP2 MSTORE PUSH18 0x2437B732BCA837B7B6102628102A37B5B2B7 PUSH1 0x71 SHL DUP6 DUP3 ADD MSTORE PUSH3 0x8C PUSH3 0x399 JUMP JUMPDEST SWAP2 PUSH1 0x3 SWAP3 DUP4 DUP2 MSTORE PUSH3 0x484C5 PUSH1 0xEC SHL DUP8 DUP3 ADD MSTORE DUP3 MLOAD DUP6 DUP2 GT PUSH3 0x298 JUMPI DUP5 SLOAD PUSH1 0x1 SWAP5 DUP6 DUP3 DUP2 SHR SWAP3 AND DUP1 ISZERO PUSH3 0x389 JUMPI JUMPDEST DUP11 DUP4 LT EQ PUSH3 0x373 JUMPI DUP2 DUP6 DUP5 SWAP4 GT PUSH3 0x31D JUMPI JUMPDEST POP DUP10 SWAP1 DUP6 DUP4 GT PUSH1 0x1 EQ PUSH3 0x2BA JUMPI PUSH1 0x0 SWAP3 PUSH3 0x2AE JUMPI JUMPDEST POP POP PUSH1 0x0 NOT DUP3 DUP8 SHL SHR NOT AND SWAP1 DUP5 SHL OR DUP5 SSTORE JUMPDEST DUP1 MLOAD SWAP5 DUP6 GT PUSH3 0x298 JUMPI PUSH1 0x4 SWAP7 DUP8 SLOAD DUP5 DUP2 DUP2 SHR SWAP2 AND DUP1 ISZERO PUSH3 0x28D JUMPI JUMPDEST DUP3 DUP3 LT EQ PUSH3 0x278 JUMPI DUP4 DUP2 GT PUSH3 0x22D JUMPI JUMPDEST POP DUP1 SWAP3 DUP7 GT PUSH1 0x1 EQ PUSH3 0x1C1 JUMPI POP DUP5 SWAP6 POP SWAP1 DUP5 SWAP3 SWAP2 PUSH1 0x0 SWAP6 PUSH3 0x1B5 JUMPI JUMPDEST POP POP SHL SWAP3 PUSH1 0x0 NOT SWAP2 SHL SHR NOT AND OR SWAP1 SSTORE JUMPDEST PUSH1 0x80 MSTORE PUSH1 0x7 DUP1 SLOAD PUSH1 0x1 PUSH1 0x1 PUSH1 0xA0 SHL SUB NOT AND CALLER SWAP1 DUP2 OR SWAP1 SWAP2 SSTORE PUSH3 0x178 SWAP1 PUSH3 0x3B9 JUMP JUMPDEST POP PUSH1 0x40 MLOAD PUSH2 0x1297 SWAP1 DUP2 PUSH3 0x44C DUP3 CODECOPY PUSH1 0x80 MLOAD DUP2 DUP2 DUP2 PUSH2 0x134 ADD MSTORE DUP2 DUP2 PUSH2 0x213 ADD MSTORE DUP2 DUP2 PUSH2 0x393 ADD MSTORE DUP2 DUP2 PUSH2 0x4B6 ADD MSTORE DUP2 DUP2 PUSH2 0x73D ADD MSTORE PUSH2 0xC9D ADD MSTORE RETURN JUMPDEST ADD MLOAD SWAP4 POP CODESIZE DUP1 PUSH3 0x145 JUMP JUMPDEST SWAP4 SWAP3 SWAP6 DUP6 SWAP1 DUP2 AND DUP9 PUSH1 0x0 MSTORE DUP6 PUSH1 0x0 KECCAK256 SWAP6 PUSH1 0x0 SWAP1 JUMPDEST DUP10 DUP4 DUP4 LT PUSH3 0x212 JUMPI POP POP POP LT PUSH3 0x1F7 JUMPI JUMPDEST POP POP POP POP DUP2 SHL ADD SWAP1 SSTORE PUSH3 0x155 JUMP JUMPDEST ADD MLOAD SWAP1 PUSH1 0xF8 DUP5 PUSH1 0x0 NOT SWAP3 SHL AND SHR NOT AND SWAP1 SSTORE CODESIZE DUP1 DUP1 DUP1 PUSH3 0x1E8 JUMP JUMPDEST DUP6 DUP8 ADD MLOAD DUP10 SSTORE SWAP1 SWAP8 ADD SWAP7 SWAP5 DUP6 ADD SWAP5 DUP9 SWAP4 POP SWAP1 DUP2 ADD SWAP1 PUSH3 0x1D5 JUMP JUMPDEST DUP9 PUSH1 0x0 MSTORE DUP2 PUSH1 0x0 KECCAK256 DUP5 DUP1 DUP10 ADD PUSH1 0x5 SHR DUP3 ADD SWAP3 DUP5 DUP11 LT PUSH3 0x26E JUMPI JUMPDEST ADD PUSH1 0x5 SHR ADD SWAP1 DUP6 SWAP1 JUMPDEST DUP3 DUP2 LT PUSH3 0x261 JUMPI POP POP PUSH3 0x127 JUMP JUMPDEST PUSH1 0x0 DUP2 SSTORE ADD DUP6 SWAP1 PUSH3 0x251 JUMP JUMPDEST SWAP3 POP DUP2 SWAP3 PUSH3 0x248 JUMP JUMPDEST PUSH1 0x22 DUP10 PUSH4 0x4E487B71 PUSH1 0xE0 SHL PUSH1 0x0 MSTORE MSTORE PUSH1 0x24 PUSH1 0x0 REVERT JUMPDEST SWAP1 PUSH1 0x7F AND SWAP1 PUSH3 0x115 JUMP JUMPDEST PUSH4 0x4E487B71 PUSH1 0xE0 SHL PUSH1 0x0 MSTORE PUSH1 0x41 PUSH1 0x4 MSTORE PUSH1 0x24 PUSH1 0x0 REVERT JUMPDEST ADD MLOAD SWAP1 POP CODESIZE DUP1 PUSH3 0xE6 JUMP JUMPDEST SWAP1 DUP10 DUP8 SWAP5 AND SWAP2 DUP9 PUSH1 0x0 MSTORE DUP12 PUSH1 0x0 KECCAK256 SWAP3 PUSH1 0x0 JUMPDEST DUP14 DUP3 DUP3 LT PUSH3 0x306 JUMPI POP POP DUP5 GT PUSH3 0x2ED JUMPI JUMPDEST POP POP POP DUP2 SHL ADD DUP5 SSTORE PUSH3 0xF8 JUMP JUMPDEST ADD MLOAD PUSH1 0x0 NOT DUP4 DUP10 SHL PUSH1 0xF8 AND SHR NOT AND SWAP1 SSTORE CODESIZE DUP1 DUP1 PUSH3 0x2DF JUMP JUMPDEST DUP4 DUP6 ADD MLOAD DUP7 SSTORE DUP11 SWAP8 SWAP1 SWAP6 ADD SWAP5 SWAP4 DUP5 ADD SWAP4 ADD PUSH3 0x2CC JUMP JUMPDEST SWAP1 SWAP2 POP DUP7 PUSH1 0x0 MSTORE DUP10 PUSH1 0x0 KECCAK256 DUP6 DUP1 DUP6 ADD PUSH1 0x5 SHR DUP3 ADD SWAP3 DUP13 DUP7 LT PUSH3 0x369 JUMPI JUMPDEST SWAP2 DUP9 SWAP2 DUP7 SWAP6 SWAP5 SWAP4 ADD PUSH1 0x5 SHR ADD SWAP2 JUMPDEST DUP3 DUP2 LT PUSH3 0x359 JUMPI POP POP PUSH3 0xCF JUMP JUMPDEST PUSH1 0x0 DUP2 SSTORE DUP6 SWAP5 POP DUP9 SWAP2 ADD PUSH3 0x349 JUMP JUMPDEST SWAP3 POP DUP2 SWAP3 PUSH3 0x33B JUMP JUMPDEST PUSH4 0x4E487B71 PUSH1 0xE0 SHL PUSH1 0x0 MSTORE PUSH1 0x22 PUSH1 0x4 MSTORE PUSH1 0x24 PUSH1 0x0 REVERT JUMPDEST SWAP2 PUSH1 0x7F AND SWAP2 PUSH3 0xBB JUMP JUMPDEST PUSH1 0x0 DUP1 REVERT JUMPDEST PUSH1 0x40 DUP1 MLOAD SWAP2 SWAP1 DUP3 ADD PUSH1 0x1 PUSH1 0x1 PUSH1 0x40 SHL SUB DUP2 GT DUP4 DUP3 LT OR PUSH3 0x298 JUMPI PUSH1 0x40 MSTORE JUMP JUMPDEST PUSH1 0x1 PUSH1 0x1 PUSH1 0xA0 SHL SUB AND PUSH1 0x0 DUP2 DUP2 MSTORE PUSH32 0x5B8CCBB9D4D8FB16EA74CE3C29A41F1B461FBDAFF4714A0D9A8EB05499746BC PUSH1 0x20 MSTORE PUSH1 0x40 DUP2 KECCAK256 SLOAD SWAP1 SWAP2 SWAP1 PUSH1 0xFF AND PUSH3 0x447 JUMPI DUP2 DUP1 MSTORE PUSH1 0x5 PUSH1 0x20 MSTORE PUSH1 0x40 DUP3 KECCAK256 DUP2 DUP4 MSTORE PUSH1 0x20 MSTORE PUSH1 0x40 DUP3 KECCAK256 PUSH1 0x1 PUSH1 0xFF NOT DUP3 SLOAD AND OR SWAP1 SSTORE CALLER SWAP2 PUSH32 0x2F8788117E7EFF1D82E926EC794901D17C78024A50270940304540A733656F0D DUP2 DUP1 LOG4 PUSH1 0x1 SWAP1 JUMP JUMPDEST POP SWAP1 JUMP INVALID PUSH1 0x80 PUSH1 0x40 DUP2 DUP2 MSTORE PUSH1 0x4 SWAP2 DUP3 CALLDATASIZE LT ISZERO PUSH2 0x16 JUMPI PUSH1 0x0 DUP1 REVERT JUMPDEST PUSH1 0x0 SWAP3 DUP4 CALLDATALOAD PUSH1 0xE0 SHR SWAP2 DUP3 PUSH3 0xF714CE EQ PUSH2 0xC53 JUMPI POP DUP2 PUSH4 0x1FFC9A7 EQ PUSH2 0xBB2 JUMPI DUP2 PUSH4 0x6FDDE03 EQ PUSH2 0xABB JUMPI DUP2 PUSH4 0x95EA7B3 EQ PUSH2 0xA13 JUMPI DUP2 PUSH4 0x18160DDD EQ PUSH2 0x9F4 JUMPI DUP2 PUSH4 0x23B872DD EQ PUSH2 0x8E5 JUMPI DUP2 PUSH4 0x248A9CA3 EQ PUSH2 0x8BA JUMPI DUP2 PUSH4 0x2F2FF15D EQ PUSH2 0x890 JUMPI DUP2 PUSH4 0x313CE567 EQ PUSH2 0x874 JUMPI DUP2 PUSH4 0x36568ABE EQ PUSH2 0x815 JUMPI DUP2 PUSH4 0x51C6590A EQ PUSH2 0x710 JUMPI DUP2 PUSH4 0x70A08231 EQ PUSH2 0x6DA JUMPI DUP2 PUSH4 0x8F840DDD EQ PUSH2 0x6BB JUMPI DUP2 PUSH4 0x91D14854 EQ PUSH2 0x675 JUMPI DUP2 PUSH4 0x95D89B41 EQ PUSH2 0x570 JUMPI DUP2 PUSH4 0x9D7DE6B3 EQ PUSH2 0x292 JUMPI DUP2 PUSH4 0xA217FDDF EQ PUSH2 0x277 JUMPI DUP2 PUSH4 0xA9059CBB EQ PUSH2 0x246 JUMPI DUP2 PUSH4 0xB6B55F25 EQ PUSH2 0x1EB JUMPI DUP2 PUSH4 0xD547741F EQ PUSH2 0x1A7 JUMPI POP DUP1 PUSH4 0xDD62ED3E EQ PUSH2 0x15C JUMPI PUSH4 0xFC0C546A EQ PUSH2 0x116 JUMPI PUSH1 0x0 DUP1 REVERT JUMPDEST CALLVALUE PUSH2 0x158 JUMPI DUP2 PUSH1 0x3 NOT CALLDATASIZE ADD SLT PUSH2 0x158 JUMPI PUSH1 0x20 SWAP1 MLOAD PUSH1 0x1 PUSH1 0x1 PUSH1 0xA0 SHL SUB PUSH32 0x0 AND DUP2 MSTORE RETURN JUMPDEST POP DUP1 REVERT JUMPDEST POP CALLVALUE PUSH2 0x158 JUMPI DUP1 PUSH1 0x3 NOT CALLDATASIZE ADD SLT PUSH2 0x158 JUMPI PUSH1 0x20 SWAP2 PUSH2 0x178 PUSH2 0xCFA JUMP JUMPDEST DUP3 PUSH2 0x181 PUSH2 0xCDF JUMP JUMPDEST SWAP3 PUSH1 0x1 PUSH1 0x1 PUSH1 0xA0 SHL SUB DUP1 SWAP4 AND DUP2 MSTORE PUSH1 0x1 DUP7 MSTORE KECCAK256 SWAP2 AND PUSH1 0x0 MSTORE DUP3 MSTORE DUP1 PUSH1 0x0 KECCAK256 SLOAD SWAP1 MLOAD SWAP1 DUP2 MSTORE RETURN JUMPDEST SWAP2 SWAP1 POP CALLVALUE PUSH2 0x1E7 JUMPI DUP1 PUSH1 0x3 NOT CALLDATASIZE ADD SLT PUSH2 0x1E7 JUMPI PUSH2 0x1E3 SWAP2 CALLDATALOAD PUSH2 0x1DE PUSH1 0x1 PUSH2 0x1CC PUSH2 0xCDF JUMP JUMPDEST SWAP4 DUP4 DUP8 MSTORE PUSH1 0x5 PUSH1 0x20 MSTORE DUP7 KECCAK256 ADD SLOAD PUSH2 0xDF4 JUMP JUMPDEST PUSH2 0xFFD JUMP JUMPDEST POP DUP1 RETURN JUMPDEST DUP3 DUP1 REVERT JUMPDEST DUP4 SWAP1 CALLVALUE PUSH2 0x158 JUMPI PUSH1 0x20 CALLDATASIZE PUSH1 0x3 NOT ADD SLT PUSH2 0x158 JUMPI PUSH2 0x240 SWAP1 CALLDATALOAD PUSH2 0x238 DUP2 ADDRESS CALLER PUSH1 0x1 PUSH1 0x1 PUSH1 0xA0 SHL SUB PUSH32 0x0 AND PUSH2 0x1075 JUMP JUMPDEST PUSH1 0x6 SLOAD PUSH2 0xDDA JUMP JUMPDEST PUSH1 0x6 SSTORE DUP1 RETURN JUMPDEST POP POP CALLVALUE PUSH2 0x158 JUMPI DUP1 PUSH1 0x3 NOT CALLDATASIZE ADD SLT PUSH2 0x158 JUMPI PUSH1 0x20 SWAP1 PUSH2 0x270 PUSH2 0x266 PUSH2 0xCFA JUMP JUMPDEST PUSH1 0x24 CALLDATALOAD SWAP1 CALLER PUSH2 0xEA0 JUMP JUMPDEST MLOAD PUSH1 0x1 DUP2 MSTORE RETURN JUMPDEST POP POP CALLVALUE PUSH2 0x158 JUMPI DUP2 PUSH1 0x3 NOT CALLDATASIZE ADD SLT PUSH2 0x158 JUMPI MLOAD SWAP1 DUP2 MSTORE PUSH1 0x20 SWAP1 RETURN JUMPDEST SWAP1 POP DUP2 PUSH1 0x3 NOT CALLDATASIZE ADD SLT PUSH2 0x1E7 JUMPI DUP1 CALLDATALOAD DUP1 ISZERO PUSH2 0x561 JUMPI PUSH2 0x2BF PUSH2 0x2B6 PUSH1 0x6 SLOAD DUP4 PUSH2 0xD91 JUMP JUMPDEST PUSH1 0x2 SLOAD SWAP1 PUSH2 0xDBA JUMP JUMPDEST SWAP3 DUP4 ISZERO PUSH2 0x552 JUMPI CALLER ISZERO PUSH2 0x53C JUMPI CALLER DUP6 MSTORE PUSH1 0x20 SWAP2 DUP6 DUP4 MSTORE DUP2 DUP7 KECCAK256 SLOAD DUP2 DUP2 LT PUSH2 0x510 JUMPI SWAP1 DUP1 DUP8 SWAP3 CALLER DUP5 MSTORE DUP4 DUP7 MSTORE SUB DUP4 DUP4 KECCAK256 SSTORE DUP1 PUSH1 0x2 SLOAD SUB PUSH1 0x2 SSTORE DUP3 MLOAD SWAP1 DUP2 MSTORE PUSH32 0xDDF252AD1BE2C89B69C2B068FC378DAA952BA7F163C4A11628F55A4DF523B3EF DUP5 CALLER SWAP3 LOG3 ADDRESS DUP6 MSTORE DUP5 DUP3 MSTORE DUP5 DUP2 DUP2 KECCAK256 SLOAD SWAP3 DUP6 DUP5 LT PUSH1 0x0 EQ PUSH2 0x4A0 JUMPI PUSH1 0x1 PUSH1 0x1 PUSH1 0xA0 SHL SUB SWAP1 DUP6 DUP2 DUP4 PUSH1 0x7 SLOAD AND DUP7 MLOAD SWAP3 DUP4 DUP1 SWAP3 PUSH32 0x5C42132E00000000000000000000000000000000000000000000000000000000 DUP3 MSTORE GAS STATICCALL SWAP2 DUP3 ISZERO PUSH2 0x496 JUMPI DUP5 SWAP3 PUSH2 0x468 JUMPI JUMPDEST POP POP PUSH2 0x38C DUP6 DUP9 PUSH2 0xDE7 JUMP JUMPDEST SWAP2 PUSH2 0x3BB DUP2 PUSH32 0x0 AND SWAP7 CALLER DUP9 PUSH2 0xE38 JUMP JUMPDEST PUSH1 0x7 SLOAD AND SWAP5 DUP6 EXTCODESIZE ISZERO PUSH2 0x464 JUMPI PUSH1 0x84 SWAP2 DUP6 MLOAD SWAP7 DUP8 SWAP5 DUP6 SWAP4 PUSH32 0xA628B47F00000000000000000000000000000000000000000000000000000000 DUP6 MSTORE CALLER DUP12 DUP7 ADD MSTORE PUSH1 0x24 CALLDATALOAD PUSH1 0x24 DUP7 ADD MSTORE PUSH1 0x44 DUP6 ADD MSTORE PUSH1 0x64 DUP5 ADD MSTORE GAS CALL DUP1 ISZERO PUSH2 0x45A JUMPI PUSH2 0x428 JUMPI JUMPDEST POP POP POP PUSH2 0x240 SWAP1 JUMPDEST PUSH1 0x6 SLOAD PUSH2 0xDE7 JUMP JUMPDEST PUSH8 0xFFFFFFFFFFFFFFFF DUP3 SWAP6 SWAP4 SWAP6 GT PUSH2 0x447 JUMPI MSTORE SWAP2 POP PUSH2 0x240 CODESIZE DUP1 PUSH2 0x418 JUMP JUMPDEST PUSH1 0x24 DUP4 PUSH1 0x41 DUP8 PUSH4 0x4E487B71 PUSH1 0xE0 SHL DUP4 MSTORE MSTORE REVERT JUMPDEST DUP2 MLOAD RETURNDATASIZE DUP8 DUP3 RETURNDATACOPY RETURNDATASIZE SWAP1 REVERT JUMPDEST DUP4 DUP1 REVERT JUMPDEST SWAP1 DUP1 SWAP3 POP DUP2 RETURNDATASIZE DUP4 GT PUSH2 0x48F JUMPI JUMPDEST PUSH2 0x47F DUP2 DUP4 PUSH2 0xD59 JUMP JUMPDEST DUP2 ADD SUB SLT PUSH2 0x1E7 JUMPI MLOAD CODESIZE DUP1 PUSH2 0x380 JUMP JUMPDEST POP RETURNDATASIZE PUSH2 0x475 JUMP JUMPDEST DUP6 MLOAD RETURNDATASIZE DUP7 DUP3 RETURNDATACOPY RETURNDATASIZE SWAP1 REVERT JUMPDEST POP POP SWAP3 DUP1 SWAP3 POP PUSH2 0x4DB SWAP2 POP CALLER PUSH1 0x1 PUSH1 0x1 PUSH1 0xA0 SHL SUB PUSH32 0x0 AND PUSH2 0xE38 JUMP JUMPDEST DUP3 DUP1 CALLVALUE ISZERO PUSH2 0x507 JUMPI JUMPDEST DUP2 DUP1 DUP1 SWAP3 CALLVALUE SWAP1 CALLER SWAP1 CALL ISZERO PUSH2 0x4FC JUMPI PUSH2 0x240 SWAP2 POP PUSH2 0x420 JUMP JUMPDEST POP MLOAD SWAP1 RETURNDATASIZE SWAP1 DUP3 RETURNDATACOPY RETURNDATASIZE SWAP1 REVERT JUMPDEST POP PUSH2 0x8FC PUSH2 0x4E4 JUMP JUMPDEST DUP3 MLOAD PUSH4 0x391434E3 PUSH1 0xE2 SHL DUP2 MSTORE CALLER DUP2 DUP8 ADD SWAP1 DUP2 MSTORE PUSH1 0x20 DUP2 ADD SWAP3 SWAP1 SWAP3 MSTORE PUSH1 0x40 DUP3 ADD DUP4 SWAP1 MSTORE SWAP1 DUP2 SWAP1 PUSH1 0x60 ADD SUB SWAP1 REVERT JUMPDEST DUP3 DUP6 PUSH1 0x24 SWAP3 MLOAD SWAP2 PUSH4 0x4B637E8F PUSH1 0xE1 SHL DUP4 MSTORE DUP3 ADD MSTORE REVERT JUMPDEST SWAP1 POP MLOAD PUSH4 0x6067798B PUSH1 0xE0 SHL DUP2 MSTORE REVERT JUMPDEST POP SWAP1 MLOAD PUSH4 0x6067798B PUSH1 0xE0 SHL DUP2 MSTORE REVERT JUMPDEST DUP4 DUP4 CALLVALUE PUSH2 0x158 JUMPI DUP2 PUSH1 0x3 NOT CALLDATASIZE ADD SLT PUSH2 0x158 JUMPI DUP1 MLOAD SWAP2 DUP1 SWAP4 DUP1 SLOAD SWAP2 PUSH1 0x1 SWAP1 DUP4 PUSH1 0x1 SHR SWAP3 PUSH1 0x1 DUP6 AND SWAP5 DUP6 ISZERO PUSH2 0x66B JUMPI JUMPDEST PUSH1 0x20 SWAP6 DUP7 DUP7 LT DUP2 EQ PUSH2 0x658 JUMPI DUP6 DUP10 MSTORE SWAP1 DUP2 ISZERO PUSH2 0x634 JUMPI POP PUSH1 0x1 EQ PUSH2 0x5DC JUMPI JUMPDEST PUSH2 0x5D8 DUP8 DUP8 PUSH2 0x5CE DUP3 DUP13 SUB DUP4 PUSH2 0xD59 JUMP JUMPDEST MLOAD SWAP2 DUP3 SWAP2 DUP3 PUSH2 0xD10 JUMP JUMPDEST SUB SWAP1 RETURN JUMPDEST DUP2 MSTORE SWAP3 SWAP6 POP PUSH32 0x8A35ACFBC15FF81A39AE7D344FD709F28E8600B4AA8C65C6B64BFE7FE36BD19B JUMPDEST DUP3 DUP5 LT PUSH2 0x621 JUMPI POP POP POP DUP3 PUSH2 0x5D8 SWAP5 PUSH2 0x5CE SWAP3 DUP3 ADD ADD SWAP5 DUP7 DUP1 PUSH2 0x5BD JUMP JUMPDEST DUP1 SLOAD DUP7 DUP6 ADD DUP9 ADD MSTORE SWAP3 DUP7 ADD SWAP3 DUP2 ADD PUSH2 0x603 JUMP JUMPDEST PUSH1 0xFF NOT AND DUP9 DUP8 ADD MSTORE POP POP POP POP ISZERO ISZERO PUSH1 0x5 SHL DUP4 ADD ADD SWAP3 POP PUSH2 0x5CE DUP3 PUSH2 0x5D8 DUP7 DUP1 PUSH2 0x5BD JUMP JUMPDEST PUSH1 0x24 DUP5 PUSH1 0x22 DUP6 PUSH4 0x4E487B71 PUSH1 0xE0 SHL DUP4 MSTORE MSTORE REVERT JUMPDEST SWAP4 PUSH1 0x7F AND SWAP4 PUSH2 0x59E JUMP JUMPDEST SWAP1 POP CALLVALUE PUSH2 0x1E7 JUMPI DUP2 PUSH1 0x3 NOT CALLDATASIZE ADD SLT PUSH2 0x1E7 JUMPI DUP2 PUSH1 0x20 SWAP4 PUSH1 0xFF SWAP3 PUSH2 0x696 PUSH2 0xCDF JUMP JUMPDEST SWAP1 CALLDATALOAD DUP3 MSTORE PUSH1 0x5 DUP7 MSTORE PUSH1 0x1 PUSH1 0x1 PUSH1 0xA0 SHL SUB DUP4 DUP4 KECCAK256 SWAP2 AND DUP3 MSTORE DUP6 MSTORE KECCAK256 SLOAD AND SWAP1 MLOAD SWAP1 ISZERO ISZERO DUP2 MSTORE RETURN JUMPDEST POP POP CALLVALUE PUSH2 0x158 JUMPI DUP2 PUSH1 0x3 NOT CALLDATASIZE ADD SLT PUSH2 0x158 JUMPI PUSH1 0x20 SWAP1 PUSH1 0x6 SLOAD SWAP1 MLOAD SWAP1 DUP2 MSTORE RETURN JUMPDEST POP POP CALLVALUE PUSH2 0x158 JUMPI PUSH1 0x20 CALLDATASIZE PUSH1 0x3 NOT ADD SLT PUSH2 0x158 JUMPI DUP1 PUSH1 0x20 SWAP3 PUSH1 0x1 PUSH1 0x1 PUSH1 0xA0 SHL SUB PUSH2 0x701 PUSH2 0xCFA JUMP JUMPDEST AND DUP2 MSTORE DUP1 DUP5 MSTORE KECCAK256 SLOAD SWAP1 MLOAD SWAP1 DUP2 MSTORE RETURN JUMPDEST DUP4 SWAP2 POP CALLVALUE PUSH2 0x158 JUMPI PUSH1 0x20 CALLDATASIZE PUSH1 0x3 NOT ADD SLT PUSH2 0x158 JUMPI DUP1 CALLDATALOAD SWAP1 DUP2 ISZERO PUSH2 0x807 JUMPI PUSH2 0x762 DUP3 ADDRESS CALLER PUSH1 0x1 PUSH1 0x1 PUSH1 0xA0 SHL SUB PUSH32 0x0 AND PUSH2 0x1075 JUMP JUMPDEST PUSH1 0x6 SLOAD DUP1 PUSH2 0x7EC JUMPI POP PUSH10 0x21E19E0C9BAB2400000 SWAP1 JUMPDEST CALLER ISZERO PUSH2 0x7D6 JUMPI POP PUSH2 0x240 SWAP3 SWAP4 PUSH2 0x790 DUP3 PUSH1 0x2 SLOAD PUSH2 0xDDA JUMP JUMPDEST PUSH1 0x2 SSTORE CALLER DUP6 MSTORE DUP5 PUSH1 0x20 MSTORE DUP1 DUP6 KECCAK256 DUP3 DUP2 SLOAD ADD SWAP1 SSTORE MLOAD SWAP1 DUP2 MSTORE DUP4 PUSH32 0xDDF252AD1BE2C89B69C2B068FC378DAA952BA7F163C4A11628F55A4DF523B3EF PUSH1 0x20 CALLER SWAP4 LOG3 PUSH1 0x6 SLOAD PUSH2 0xDDA JUMP JUMPDEST PUSH1 0x24 SWAP1 DUP5 DUP7 MLOAD SWAP2 PUSH4 0xEC442F05 PUSH1 0xE0 SHL DUP4 MSTORE DUP3 ADD MSTORE REVERT JUMPDEST PUSH2 0x801 SWAP1 PUSH2 0x7FC PUSH1 0x2 SLOAD DUP6 PUSH2 0xD91 JUMP JUMPDEST PUSH2 0xDBA JUMP JUMPDEST SWAP1 PUSH2 0x778 JUMP JUMPDEST DUP4 MLOAD PUSH4 0x6067798B PUSH1 0xE0 SHL DUP2 MSTORE REVERT JUMPDEST DUP4 DUP4 CALLVALUE PUSH2 0x158 JUMPI DUP1 PUSH1 0x3 NOT CALLDATASIZE ADD SLT PUSH2 0x158 JUMPI PUSH2 0x82F PUSH2 0xCDF JUMP JUMPDEST SWAP1 CALLER PUSH1 0x1 PUSH1 0x1 PUSH1 0xA0 SHL SUB DUP4 AND SUB PUSH2 0x84C JUMPI POP PUSH2 0x1E3 SWAP2 SWAP3 CALLDATALOAD PUSH2 0xFFD JUMP JUMPDEST DUP4 SWAP1 MLOAD PUSH32 0x6697B23200000000000000000000000000000000000000000000000000000000 DUP2 MSTORE REVERT JUMPDEST POP POP CALLVALUE PUSH2 0x158 JUMPI DUP2 PUSH1 0x3 NOT CALLDATASIZE ADD SLT PUSH2 0x158 JUMPI PUSH1 0x20 SWAP1 MLOAD PUSH1 0x12 DUP2 MSTORE RETURN JUMPDEST SWAP2 SWAP1 POP CALLVALUE PUSH2 0x1E7 JUMPI DUP1 PUSH1 0x3 NOT CALLDATASIZE ADD SLT PUSH2 0x1E7 JUMPI PUSH2 0x1E3 SWAP2 CALLDATALOAD PUSH2 0x8B5 PUSH1 0x1 PUSH2 0x1CC PUSH2 0xCDF JUMP JUMPDEST PUSH2 0xF7C JUMP JUMPDEST SWAP1 POP CALLVALUE PUSH2 0x1E7 JUMPI PUSH1 0x20 CALLDATASIZE PUSH1 0x3 NOT ADD SLT PUSH2 0x1E7 JUMPI DUP2 PUSH1 0x20 SWAP4 PUSH1 0x1 SWAP3 CALLDATALOAD DUP2 MSTORE PUSH1 0x5 DUP6 MSTORE KECCAK256 ADD SLOAD SWAP1 MLOAD SWAP1 DUP2 MSTORE RETURN JUMPDEST SWAP1 POP DUP3 CALLVALUE PUSH2 0x9F1 JUMPI PUSH1 0x60 CALLDATASIZE PUSH1 0x3 NOT ADD SLT PUSH2 0x9F1 JUMPI PUSH2 0x901 PUSH2 0xCFA JUMP JUMPDEST PUSH2 0x909 PUSH2 0xCDF JUMP JUMPDEST SWAP2 PUSH1 0x44 CALLDATALOAD SWAP4 PUSH1 0x1 PUSH1 0x1 PUSH1 0xA0 SHL SUB DUP4 AND DUP1 DUP4 MSTORE PUSH1 0x1 PUSH1 0x20 MSTORE DUP7 DUP4 KECCAK256 CALLER DUP5 MSTORE PUSH1 0x20 MSTORE DUP7 DUP4 KECCAK256 SLOAD SWAP2 PUSH1 0x0 NOT DUP4 SUB PUSH2 0x946 JUMPI JUMPDEST PUSH1 0x20 DUP9 PUSH2 0x270 DUP10 DUP10 DUP10 PUSH2 0xEA0 JUMP JUMPDEST DUP7 DUP4 LT PUSH2 0x9AC JUMPI DUP2 ISZERO PUSH2 0x996 JUMPI CALLER ISZERO PUSH2 0x980 JUMPI POP DUP3 MSTORE PUSH1 0x1 PUSH1 0x20 SWAP1 DUP2 MSTORE DUP7 DUP4 KECCAK256 CALLER DUP5 MSTORE DUP2 MSTORE SWAP2 DUP7 SWAP1 KECCAK256 SWAP1 DUP6 SWAP1 SUB SWAP1 SSTORE DUP3 SWAP1 PUSH2 0x270 DUP8 PUSH2 0x938 JUMP JUMPDEST PUSH1 0x24 SWAP1 DUP5 DUP10 MLOAD SWAP2 PUSH4 0x4A1406B1 PUSH1 0xE1 SHL DUP4 MSTORE DUP3 ADD MSTORE REVERT JUMPDEST PUSH1 0x24 SWAP1 DUP5 DUP10 MLOAD SWAP2 PUSH4 0xE602DF05 PUSH1 0xE0 SHL DUP4 MSTORE DUP3 ADD MSTORE REVERT JUMPDEST DUP8 MLOAD PUSH32 0xFB8F41B200000000000000000000000000000000000000000000000000000000 DUP2 MSTORE CALLER SWAP2 DUP2 ADD SWAP2 DUP3 MSTORE PUSH1 0x20 DUP3 ADD SWAP4 SWAP1 SWAP4 MSTORE PUSH1 0x40 DUP2 ADD DUP8 SWAP1 MSTORE DUP3 SWAP2 POP PUSH1 0x60 ADD SUB SWAP1 REVERT JUMPDEST DUP1 REVERT JUMPDEST POP POP CALLVALUE PUSH2 0x158 JUMPI DUP2 PUSH1 0x3 NOT CALLDATASIZE ADD SLT PUSH2 0x158 JUMPI PUSH1 0x20 SWAP1 PUSH1 0x2 SLOAD SWAP1 MLOAD SWAP1 DUP2 MSTORE RETURN JUMPDEST SWAP1 POP CALLVALUE PUSH2 0x1E7 JUMPI DUP2 PUSH1 0x3 NOT CALLDATASIZE ADD SLT PUSH2 0x1E7 JUMPI PUSH2 0xA2D PUSH2 0xCFA JUMP JUMPDEST PUSH1 0x24 CALLDATALOAD SWAP1 CALLER ISZERO PUSH2 0xAA5 JUMPI PUSH1 0x1 PUSH1 0x1 PUSH1 0xA0 SHL SUB AND SWAP2 DUP3 ISZERO PUSH2 0xA8F JUMPI POP DUP1 DUP4 PUSH1 0x20 SWAP6 CALLER DUP2 MSTORE PUSH1 0x1 DUP8 MSTORE DUP2 DUP2 KECCAK256 DUP6 DUP3 MSTORE DUP8 MSTORE KECCAK256 SSTORE DUP3 MLOAD SWAP1 DUP2 MSTORE PUSH32 0x8C5BE1E5EBEC7D5BD14F71427D1E84F3DD0314C0F7B2291E5B200AC8C7C3B925 DUP5 CALLER SWAP3 LOG3 MLOAD PUSH1 0x1 DUP2 MSTORE RETURN JUMPDEST PUSH1 0x24 SWAP1 DUP6 DUP6 MLOAD SWAP2 PUSH4 0x4A1406B1 PUSH1 0xE1 SHL DUP4 MSTORE DUP3 ADD MSTORE REVERT JUMPDEST PUSH1 0x24 DUP4 DUP7 DUP7 MLOAD SWAP2 PUSH4 0xE602DF05 PUSH1 0xE0 SHL DUP4 MSTORE DUP3 ADD MSTORE REVERT JUMPDEST SWAP2 SWAP1 POP CALLVALUE PUSH2 0x1E7 JUMPI DUP3 PUSH1 0x3 NOT CALLDATASIZE ADD SLT PUSH2 0x1E7 JUMPI DUP1 MLOAD SWAP2 DUP4 PUSH1 0x3 SLOAD SWAP1 PUSH1 0x1 SWAP1 DUP3 PUSH1 0x1 SHR SWAP3 PUSH1 0x1 DUP2 AND DUP1 ISZERO PUSH2 0xBA8 JUMPI JUMPDEST PUSH1 0x20 SWAP6 DUP7 DUP7 LT DUP3 EQ PUSH2 0xB95 JUMPI POP DUP5 DUP9 MSTORE SWAP1 DUP2 ISZERO PUSH2 0xB73 JUMPI POP PUSH1 0x1 EQ PUSH2 0xB1A JUMPI JUMPDEST PUSH2 0x5D8 DUP7 DUP7 PUSH2 0x5CE DUP3 DUP12 SUB DUP4 PUSH2 0xD59 JUMP JUMPDEST SWAP3 SWAP6 POP PUSH1 0x3 DUP4 MSTORE PUSH32 0xC2575A0E9E593C00F959F8C92F12DB2869C3395A3B0502D05E2516446F71F85B JUMPDEST DUP3 DUP5 LT PUSH2 0xB60 JUMPI POP POP POP DUP3 PUSH2 0x5D8 SWAP5 PUSH2 0x5CE SWAP3 DUP3 ADD ADD SWAP5 CODESIZE PUSH2 0xB09 JUMP JUMPDEST DUP1 SLOAD DUP7 DUP6 ADD DUP9 ADD MSTORE SWAP3 DUP7 ADD SWAP3 DUP2 ADD PUSH2 0xB43 JUMP JUMPDEST PUSH1 0xFF NOT AND DUP8 DUP7 ADD MSTORE POP POP POP ISZERO ISZERO PUSH1 0x5 SHL DUP4 ADD ADD SWAP3 POP PUSH2 0x5CE DUP3 PUSH2 0x5D8 CODESIZE PUSH2 0xB09 JUMP JUMPDEST DUP4 PUSH1 0x22 PUSH1 0x24 SWAP3 PUSH4 0x4E487B71 PUSH1 0xE0 SHL DUP4 MSTORE MSTORE REVERT JUMPDEST SWAP4 PUSH1 0x7F AND SWAP4 PUSH2 0xAE9 JUMP JUMPDEST SWAP1 POP CALLVALUE PUSH2 0x1E7 JUMPI PUSH1 0x20 CALLDATASIZE PUSH1 0x3 NOT ADD SLT PUSH2 0x1E7 JUMPI CALLDATALOAD SWAP1 PUSH32 0xFFFFFFFF00000000000000000000000000000000000000000000000000000000 DUP3 AND DUP1 SWAP3 SUB PUSH2 0x1E7 JUMPI PUSH1 0x20 SWAP3 POP PUSH32 0x7965DB0B00000000000000000000000000000000000000000000000000000000 DUP3 EQ SWAP2 DUP3 ISZERO PUSH2 0xC29 JUMPI JUMPDEST POP MLOAD SWAP1 ISZERO ISZERO DUP2 MSTORE RETURN JUMPDEST PUSH32 0x1FFC9A700000000000000000000000000000000000000000000000000000000 EQ SWAP2 POP CODESIZE PUSH2 0xC20 JUMP JUMPDEST SWAP1 SWAP2 POP CALLVALUE PUSH2 0x464 JUMPI DUP3 PUSH1 0x3 NOT CALLDATASIZE ADD SLT PUSH2 0x464 JUMPI PUSH1 0xFF PUSH2 0xC70 PUSH2 0xCDF JUMP JUMPDEST SWAP4 DUP6 DUP1 MSTORE PUSH1 0x5 PUSH1 0x20 MSTORE DUP1 DUP7 KECCAK256 CALLER DUP8 MSTORE PUSH1 0x20 MSTORE DUP6 KECCAK256 SLOAD AND ISZERO PUSH2 0xCC5 JUMPI POP SWAP1 PUSH2 0xCC2 SWAP2 CALLDATALOAD SWAP1 PUSH1 0x1 PUSH1 0x1 PUSH1 0xA0 SHL SUB PUSH32 0x0 AND PUSH2 0xE38 JUMP JUMPDEST DUP1 RETURN JUMPDEST DUP4 PUSH1 0x44 SWAP3 PUSH4 0xE2517D3F PUSH1 0xE0 SHL DUP4 MSTORE CALLER SWAP1 DUP4 ADD MSTORE PUSH1 0x24 DUP3 ADD MSTORE REVERT JUMPDEST PUSH1 0x24 CALLDATALOAD SWAP1 PUSH1 0x1 PUSH1 0x1 PUSH1 0xA0 SHL SUB DUP3 AND DUP3 SUB PUSH2 0xCF5 JUMPI JUMP JUMPDEST PUSH1 0x0 DUP1 REVERT JUMPDEST PUSH1 0x4 CALLDATALOAD SWAP1 PUSH1 0x1 PUSH1 0x1 PUSH1 0xA0 SHL SUB DUP3 AND DUP3 SUB PUSH2 0xCF5 JUMPI JUMP JUMPDEST PUSH1 0x20 DUP1 DUP3 MSTORE DUP3 MLOAD DUP2 DUP4 ADD DUP2 SWAP1 MSTORE SWAP1 SWAP4 SWAP3 PUSH1 0x0 JUMPDEST DUP3 DUP2 LT PUSH2 0xD45 JUMPI POP POP PUSH1 0x40 SWAP3 SWAP4 POP PUSH1 0x0 DUP4 DUP3 DUP5 ADD ADD MSTORE PUSH1 0x1F DUP1 NOT SWAP2 ADD AND ADD ADD SWAP1 JUMP JUMPDEST DUP2 DUP2 ADD DUP7 ADD MLOAD DUP5 DUP3 ADD PUSH1 0x40 ADD MSTORE DUP6 ADD PUSH2 0xD23 JUMP JUMPDEST SWAP1 PUSH1 0x1F DUP1 NOT SWAP2 ADD AND DUP2 ADD SWAP1 DUP2 LT PUSH8 0xFFFFFFFFFFFFFFFF DUP3 GT OR PUSH2 0xD7B JUMPI PUSH1 0x40 MSTORE JUMP JUMPDEST PUSH4 0x4E487B71 PUSH1 0xE0 SHL PUSH1 0x0 MSTORE PUSH1 0x41 PUSH1 0x4 MSTORE PUSH1 0x24 PUSH1 0x0 REVERT JUMPDEST DUP2 DUP2 MUL SWAP3 SWAP2 DUP2 ISZERO SWAP2 DUP5 DIV EQ OR ISZERO PUSH2 0xDA4 JUMPI JUMP JUMPDEST PUSH4 0x4E487B71 PUSH1 0xE0 SHL PUSH1 0x0 MSTORE PUSH1 0x11 PUSH1 0x4 MSTORE PUSH1 0x24 PUSH1 0x0 REVERT JUMPDEST DUP2 ISZERO PUSH2 0xDC4 JUMPI DIV SWAP1 JUMP JUMPDEST PUSH4 0x4E487B71 PUSH1 0xE0 SHL PUSH1 0x0 MSTORE PUSH1 0x12 PUSH1 0x4 MSTORE PUSH1 0x24 PUSH1 0x0 REVERT JUMPDEST SWAP2 SWAP1 DUP3 ADD DUP1 SWAP3 GT PUSH2 0xDA4 JUMPI JUMP JUMPDEST SWAP2 SWAP1 DUP3 SUB SWAP2 DUP3 GT PUSH2 0xDA4 JUMPI JUMP JUMPDEST DUP1 PUSH1 0x0 MSTORE PUSH1 0x5 PUSH1 0x20 MSTORE PUSH1 0x40 PUSH1 0x0 KECCAK256 CALLER PUSH1 0x0 MSTORE PUSH1 0x20 MSTORE PUSH1 0xFF PUSH1 0x40 PUSH1 0x0 KECCAK256 SLOAD AND ISZERO PUSH2 0xE1A JUMPI POP JUMP JUMPDEST PUSH1 0x44 SWAP1 PUSH1 0x40 MLOAD SWAP1 PUSH4 0xE2517D3F PUSH1 0xE0 SHL DUP3 MSTORE CALLER PUSH1 0x4 DUP4 ADD MSTORE PUSH1 0x24 DUP3 ADD MSTORE REVERT JUMPDEST SWAP2 PUSH1 0x1 PUSH1 0x1 PUSH1 0xA0 SHL SUB PUSH1 0x40 MLOAD SWAP3 PUSH32 0xA9059CBB00000000000000000000000000000000000000000000000000000000 PUSH1 0x20 DUP6 ADD MSTORE AND PUSH1 0x24 DUP4 ADD MSTORE PUSH1 0x44 DUP3 ADD MSTORE PUSH1 0x44 DUP2 MSTORE PUSH1 0x80 DUP2 ADD SWAP2 DUP2 DUP4 LT PUSH8 0xFFFFFFFFFFFFFFFF DUP5 GT OR PUSH2 0xD7B JUMPI PUSH2 0xE9E SWAP3 PUSH1 0x40 MSTORE PUSH2 0x10E0 JUMP JUMPDEST JUMP JUMPDEST SWAP2 PUSH1 0x1 PUSH1 0x1 PUSH1 0xA0 SHL SUB DUP1 DUP5 AND SWAP3 DUP4 ISZERO PUSH2 0xF64 JUMPI AND SWAP3 DUP4 ISZERO PUSH2 0xF4C JUMPI PUSH1 0x0 SWAP1 DUP4 DUP3 MSTORE DUP2 PUSH1 0x20 MSTORE PUSH1 0x40 DUP3 KECCAK256 SLOAD SWAP1 DUP4 DUP3 LT PUSH2 0xF1A JUMPI POP SWAP2 PUSH1 0x40 DUP3 DUP3 PUSH32 0xDDF252AD1BE2C89B69C2B068FC378DAA952BA7F163C4A11628F55A4DF523B3EF SWAP6 DUP8 PUSH1 0x20 SWAP7 MSTORE DUP3 DUP7 MSTORE SUB DUP3 DUP3 KECCAK256 SSTORE DUP7 DUP2 MSTORE KECCAK256 DUP2 DUP2 SLOAD ADD SWAP1 SSTORE PUSH1 0x40 MLOAD SWAP1 DUP2 MSTORE LOG3 JUMP JUMPDEST PUSH1 0x40 MLOAD PUSH4 0x391434E3 PUSH1 0xE2 SHL DUP2 MSTORE PUSH1 0x1 PUSH1 0x1 PUSH1 0xA0 SHL SUB SWAP2 SWAP1 SWAP2 AND PUSH1 0x4 DUP3 ADD MSTORE PUSH1 0x24 DUP2 ADD SWAP2 SWAP1 SWAP2 MSTORE PUSH1 0x44 DUP2 ADD DUP4 SWAP1 MSTORE PUSH1 0x64 SWAP1 REVERT JUMPDEST PUSH1 0x24 PUSH1 0x40 MLOAD PUSH4 0xEC442F05 PUSH1 0xE0 SHL DUP2 MSTORE PUSH1 0x0 PUSH1 0x4 DUP3 ADD MSTORE REVERT JUMPDEST PUSH1 0x24 PUSH1 0x40 MLOAD PUSH4 0x4B637E8F PUSH1 0xE1 SHL DUP2 MSTORE PUSH1 0x0 PUSH1 0x4 DUP3 ADD MSTORE REVERT JUMPDEST SWAP1 PUSH1 0x0 SWAP2 DUP1 DUP4 MSTORE PUSH1 0x5 PUSH1 0x20 MSTORE PUSH1 0x1 PUSH1 0x1 PUSH1 0xA0 SHL SUB PUSH1 0x40 DUP5 KECCAK256 SWAP3 AND SWAP2 DUP3 DUP5 MSTORE PUSH1 0x20 MSTORE PUSH1 0xFF PUSH1 0x40 DUP5 KECCAK256 SLOAD AND ISZERO PUSH1 0x0 EQ PUSH2 0xFF8 JUMPI DUP1 DUP4 MSTORE PUSH1 0x5 PUSH1 0x20 MSTORE PUSH1 0x40 DUP4 KECCAK256 DUP3 DUP5 MSTORE PUSH1 0x20 MSTORE PUSH1 0x40 DUP4 KECCAK256 PUSH1 0x1 PUSH1 0xFF NOT DUP3 SLOAD AND OR SWAP1 SSTORE PUSH32 0x2F8788117E7EFF1D82E926EC794901D17C78024A50270940304540A733656F0D CALLER SWAP4 DUP1 LOG4 PUSH1 0x1 SWAP1 JUMP JUMPDEST POP POP SWAP1 JUMP JUMPDEST SWAP1 PUSH1 0x0 SWAP2 DUP1 DUP4 MSTORE PUSH1 0x5 PUSH1 0x20 MSTORE PUSH1 0x1 PUSH1 0x1 PUSH1 0xA0 SHL SUB PUSH1 0x40 DUP5 KECCAK256 SWAP3 AND SWAP2 DUP3 DUP5 MSTORE PUSH1 0x20 MSTORE PUSH1 0xFF PUSH1 0x40 DUP5 KECCAK256 SLOAD AND PUSH1 0x0 EQ PUSH2 0xFF8 JUMPI DUP1 DUP4 MSTORE PUSH1 0x5 PUSH1 0x20 MSTORE PUSH1 0x40 DUP4 KECCAK256 DUP3 DUP5 MSTORE PUSH1 0x20 MSTORE PUSH1 0x40 DUP4 KECCAK256 PUSH1 0xFF NOT DUP2 SLOAD AND SWAP1 SSTORE PUSH32 0xF6391F5C32D9C69D2A47EA670B442974B53935D1EDC7FD64EB21E047A839171B CALLER SWAP4 DUP1 LOG4 PUSH1 0x1 SWAP1 JUMP JUMPDEST SWAP3 SWAP1 PUSH1 0x40 MLOAD SWAP3 PUSH32 0x23B872DD00000000000000000000000000000000000000000000000000000000 PUSH1 0x20 DUP6 ADD MSTORE PUSH1 0x1 PUSH1 0x1 PUSH1 0xA0 SHL SUB DUP1 SWAP3 AND PUSH1 0x24 DUP6 ADD MSTORE AND PUSH1 0x44 DUP4 ADD MSTORE PUSH1 0x64 DUP3 ADD MSTORE PUSH1 0x64 DUP2 MSTORE PUSH1 0xA0 DUP2 ADD SWAP2 DUP2 DUP4 LT PUSH8 0xFFFFFFFFFFFFFFFF DUP5 GT OR PUSH2 0xD7B JUMPI PUSH2 0xE9E SWAP3 PUSH1 0x40 MSTORE JUMPDEST PUSH1 0x1 PUSH1 0x1 PUSH1 0xA0 SHL SUB AND SWAP1 PUSH1 0x0 DUP1 DUP3 PUSH1 0x20 DUP3 SWAP5 MLOAD SWAP2 ADD DUP3 DUP7 GAS CALL RETURNDATASIZE ISZERO PUSH2 0x11C2 JUMPI RETURNDATASIZE SWAP1 PUSH8 0xFFFFFFFFFFFFFFFF DUP3 GT PUSH2 0x11AE JUMPI SWAP1 PUSH2 0x113D SWAP2 PUSH1 0x40 MLOAD SWAP2 PUSH2 0x112D PUSH1 0x20 PUSH1 0x1F NOT PUSH1 0x1F DUP5 ADD AND ADD DUP5 PUSH2 0xD59 JUMP JUMPDEST DUP3 MSTORE RETURNDATASIZE DUP5 PUSH1 0x20 DUP5 ADD RETURNDATACOPY JUMPDEST DUP5 PUSH2 0x11CE JUMP JUMPDEST SWAP1 DUP2 MLOAD SWAP2 DUP3 ISZERO ISZERO SWAP3 DUP4 PUSH2 0x1186 JUMPI JUMPDEST POP POP POP PUSH2 0x1155 JUMPI POP JUMP JUMPDEST PUSH1 0x24 SWAP1 PUSH1 0x40 MLOAD SWAP1 PUSH32 0x5274AFE700000000000000000000000000000000000000000000000000000000 DUP3 MSTORE PUSH1 0x4 DUP3 ADD MSTORE REVERT JUMPDEST DUP2 SWAP3 SWAP4 POP SWAP1 PUSH1 0x20 SWAP2 DUP2 ADD SUB SLT PUSH2 0x158 JUMPI PUSH1 0x20 ADD MLOAD SWAP1 DUP2 ISZERO SWAP2 DUP3 ISZERO SUB PUSH2 0x9F1 JUMPI POP CODESIZE DUP1 DUP1 PUSH2 0x114B JUMP JUMPDEST PUSH1 0x24 DUP4 PUSH4 0x4E487B71 PUSH1 0xE0 SHL DUP2 MSTORE PUSH1 0x41 PUSH1 0x4 MSTORE REVERT JUMPDEST PUSH2 0x113D SWAP1 PUSH1 0x60 SWAP1 PUSH2 0x1137 JUMP JUMPDEST SWAP1 PUSH2 0x120D JUMPI POP DUP1 MLOAD ISZERO PUSH2 0x11E3 JUMPI DUP1 MLOAD SWAP1 PUSH1 0x20 ADD REVERT JUMPDEST PUSH1 0x4 PUSH1 0x40 MLOAD PUSH32 0x1425EA4200000000000000000000000000000000000000000000000000000000 DUP2 MSTORE REVERT JUMPDEST DUP2 MLOAD ISZERO DUP1 PUSH2 0x1258 JUMPI JUMPDEST PUSH2 0x121E JUMPI POP SWAP1 JUMP JUMPDEST PUSH1 0x24 SWAP1 PUSH1 0x1 PUSH1 0x1 PUSH1 0xA0 SHL SUB PUSH1 0x40 MLOAD SWAP2 PUSH32 0x9996B31500000000000000000000000000000000000000000000000000000000 DUP4 MSTORE AND PUSH1 0x4 DUP3 ADD MSTORE REVERT JUMPDEST POP DUP1 EXTCODESIZE ISZERO PUSH2 0x1216 JUMP INVALID LOG2 PUSH5 0x6970667358 0x22 SLT KECCAK256 SLT 0xAB 0x25 PUSH25 0x8F562D1572C1D8CD63B8E9C9973E8B8171B87E1609E4B88C0D 0xB4 KECCAK256 0xC1 PUSH5 0x736F6C6343 STOP ADDMOD XOR STOP CALLER PUSH1 0x80 CALLVALUE PUSH3 0x338 JUMPI PUSH1 0x40 SWAP1 PUSH1 0x1 PUSH1 0x1 PUSH1 0x40 SHL SUB SWAP1 DUP1 DUP4 ADD DUP3 DUP2 GT DUP3 DUP3 LT OR PUSH3 0x238 JUMPI DUP4 MSTORE PUSH1 0x12 DUP2 MSTORE PUSH1 0x20 SWAP2 PUSH18 0x2437B732BCA837B7B6102628102A37B5B2B7 PUSH1 0x71 SHL DUP4 DUP4 ADD MSTORE DUP4 MLOAD DUP5 DUP2 ADD DUP2 DUP2 LT DUP4 DUP3 GT OR PUSH3 0x238 JUMPI DUP6 MSTORE PUSH1 0x3 SWAP1 DUP2 DUP2 MSTORE PUSH3 0x484C5 PUSH1 0xEC SHL DUP6 DUP3 ADD MSTORE DUP4 MLOAD SWAP1 DUP4 DUP3 GT PUSH3 0x238 JUMPI DUP3 SLOAD SWAP2 PUSH1 0x1 SWAP6 DUP7 DUP5 DUP2 SHR SWAP5 AND DUP1 ISZERO PUSH3 0x32D JUMPI JUMPDEST DUP9 DUP6 LT EQ PUSH3 0x317 JUMPI DUP2 SWAP1 PUSH1 0x1F SWAP5 DUP6 DUP2 GT PUSH3 0x2C1 JUMPI JUMPDEST POP DUP9 SWAP1 DUP6 DUP4 GT PUSH1 0x1 EQ PUSH3 0x25A JUMPI PUSH1 0x0 SWAP3 PUSH3 0x24E JUMPI JUMPDEST POP POP PUSH1 0x0 NOT DUP3 DUP7 SHL SHR NOT AND SWAP1 DUP7 SHL OR DUP4 SSTORE JUMPDEST DUP1 MLOAD SWAP4 DUP5 GT PUSH3 0x238 JUMPI PUSH1 0x4 SWAP6 DUP7 SLOAD DUP7 DUP2 DUP2 SHR SWAP2 AND DUP1 ISZERO PUSH3 0x22D JUMPI JUMPDEST DUP3 DUP3 LT EQ PUSH3 0x218 JUMPI DUP4 DUP2 GT PUSH3 0x1CD JUMPI JUMPDEST POP DUP1 SWAP3 DUP6 GT PUSH1 0x1 EQ PUSH3 0x15F JUMPI POP SWAP4 DUP4 SWAP5 SWAP2 DUP5 SWAP3 PUSH1 0x0 SWAP6 PUSH3 0x153 JUMPI JUMPDEST POP POP SHL SWAP3 PUSH1 0x0 NOT SWAP2 SHL SHR NOT AND OR SWAP1 SSTORE JUMPDEST PUSH1 0x7 DUP1 SLOAD PUSH1 0x1 PUSH1 0x1 PUSH1 0xA0 SHL SUB NOT AND CALLER SWAP1 DUP2 OR SWAP1 SWAP2 SSTORE PUSH3 0x144 SWAP1 PUSH3 0x33D JUMP JUMPDEST POP MLOAD PUSH2 0xFD2 SWAP1 DUP2 PUSH3 0x3D0 DUP3 CODECOPY RETURN JUMPDEST ADD MLOAD SWAP4 POP CODESIZE DUP1 PUSH3 0x114 JUMP JUMPDEST SWAP3 SWAP2 SWAP1 DUP5 PUSH1 0x1F NOT DUP2 AND DUP9 PUSH1 0x0 MSTORE DUP6 PUSH1 0x0 KECCAK256 SWAP6 PUSH1 0x0 SWAP1 JUMPDEST DUP10 DUP4 DUP4 LT PUSH3 0x1B2 JUMPI POP POP POP LT PUSH3 0x197 JUMPI JUMPDEST POP POP POP POP DUP2 SHL ADD SWAP1 SSTORE PUSH3 0x124 JUMP JUMPDEST ADD MLOAD SWAP1 PUSH1 0xF8 DUP5 PUSH1 0x0 NOT SWAP3 SHL AND SHR NOT AND SWAP1 SSTORE CODESIZE DUP1 DUP1 DUP1 PUSH3 0x188 JUMP JUMPDEST DUP6 DUP8 ADD MLOAD DUP10 SSTORE SWAP1 SWAP8 ADD SWAP7 SWAP5 DUP6 ADD SWAP5 DUP9 SWAP4 POP SWAP1 DUP2 ADD SWAP1 PUSH3 0x175 JUMP JUMPDEST DUP8 PUSH1 0x0 MSTORE DUP2 PUSH1 0x0 KECCAK256 DUP5 DUP1 DUP9 ADD PUSH1 0x5 SHR DUP3 ADD SWAP3 DUP5 DUP10 LT PUSH3 0x20E JUMPI JUMPDEST ADD PUSH1 0x5 SHR ADD SWAP1 DUP8 SWAP1 JUMPDEST DUP3 DUP2 LT PUSH3 0x201 JUMPI POP POP PUSH3 0xF7 JUMP JUMPDEST PUSH1 0x0 DUP2 SSTORE ADD DUP8 SWAP1 PUSH3 0x1F1 JUMP JUMPDEST SWAP3 POP DUP2 SWAP3 PUSH3 0x1E8 JUMP JUMPDEST PUSH1 0x22 DUP9 PUSH4 0x4E487B71 PUSH1 0xE0 SHL PUSH1 0x0 MSTORE MSTORE PUSH1 0x24 PUSH1 0x0 REVERT JUMPDEST SWAP1 PUSH1 0x7F AND SWAP1 PUSH3 0xE5 JUMP JUMPDEST PUSH4 0x4E487B71 PUSH1 0xE0 SHL PUSH1 0x0 MSTORE PUSH1 0x41 PUSH1 0x4 MSTORE PUSH1 0x24 PUSH1 0x0 REVERT JUMPDEST ADD MLOAD SWAP1 POP CODESIZE DUP1 PUSH3 0xB6 JUMP JUMPDEST SWAP1 DUP9 SWAP4 POP PUSH1 0x1F NOT DUP4 AND SWAP2 DUP8 PUSH1 0x0 MSTORE DUP11 PUSH1 0x0 KECCAK256 SWAP3 PUSH1 0x0 JUMPDEST DUP13 DUP3 DUP3 LT PUSH3 0x2AA JUMPI POP POP DUP5 GT PUSH3 0x291 JUMPI JUMPDEST POP POP POP DUP2 SHL ADD DUP4 SSTORE PUSH3 0xC8 JUMP JUMPDEST ADD MLOAD PUSH1 0x0 NOT DUP4 DUP9 SHL PUSH1 0xF8 AND SHR NOT AND SWAP1 SSTORE CODESIZE DUP1 DUP1 PUSH3 0x283 JUMP JUMPDEST DUP4 DUP6 ADD MLOAD DUP7 SSTORE DUP13 SWAP8 SWAP1 SWAP6 ADD SWAP5 SWAP4 DUP5 ADD SWAP4 ADD PUSH3 0x270 JUMP JUMPDEST SWAP1 SWAP2 POP DUP6 PUSH1 0x0 MSTORE DUP9 PUSH1 0x0 KECCAK256 DUP6 DUP1 DUP6 ADD PUSH1 0x5 SHR DUP3 ADD SWAP3 DUP12 DUP7 LT PUSH3 0x30D JUMPI JUMPDEST SWAP2 DUP11 SWAP2 DUP7 SWAP6 SWAP5 SWAP4 ADD PUSH1 0x5 SHR ADD SWAP2 JUMPDEST DUP3 DUP2 LT PUSH3 0x2FD JUMPI POP POP PUSH3 0x9F JUMP JUMPDEST PUSH1 0x0 DUP2 SSTORE DUP6 SWAP5 POP DUP11 SWAP2 ADD PUSH3 0x2ED JUMP JUMPDEST SWAP3 POP DUP2 SWAP3 PUSH3 0x2DF JUMP JUMPDEST PUSH4 0x4E487B71 PUSH1 0xE0 SHL PUSH1 0x0 MSTORE PUSH1 0x22 PUSH1 0x4 MSTORE PUSH1 0x24 PUSH1 0x0 REVERT JUMPDEST SWAP4 PUSH1 0x7F AND SWAP4 PUSH3 0x88 JUMP JUMPDEST PUSH1 0x0 DUP1 REVERT JUMPDEST PUSH1 0x1 PUSH1 0x1 PUSH1 0xA0 SHL SUB AND PUSH1 0x0 DUP2 DUP2 MSTORE PUSH32 0x5B8CCBB9D4D8FB16EA74CE3C29A41F1B461FBDAFF4714A0D9A8EB05499746BC PUSH1 0x20 MSTORE PUSH1 0x40 DUP2 KECCAK256 SLOAD SWAP1 SWAP2 SWAP1 PUSH1 0xFF AND PUSH3 0x3CB JUMPI DUP2 DUP1 MSTORE PUSH1 0x5 PUSH1 0x20 MSTORE PUSH1 0x40 DUP3 KECCAK256 DUP2 DUP4 MSTORE PUSH1 0x20 MSTORE PUSH1 0x40 DUP3 KECCAK256 PUSH1 0x1 PUSH1 0xFF NOT DUP3 SLOAD AND OR SWAP1 SSTORE CALLER SWAP2 PUSH32 0x2F8788117E7EFF1D82E926EC794901D17C78024A50270940304540A733656F0D DUP2 DUP1 LOG4 PUSH1 0x1 SWAP1 JUMP JUMPDEST POP SWAP1 JUMP INVALID PUSH1 0x80 PUSH1 0x40 DUP2 DUP2 MSTORE PUSH1 0x4 SWAP1 DUP2 CALLDATASIZE LT ISZERO PUSH2 0x16 JUMPI PUSH1 0x0 DUP1 REVERT JUMPDEST PUSH1 0x0 SWAP3 DUP4 CALLDATALOAD PUSH1 0xE0 SHR SWAP1 DUP2 PUSH3 0xF714CE EQ PUSH2 0xBDD JUMPI POP DUP1 PUSH4 0x1FFC9A7 EQ PUSH2 0xB3C JUMPI DUP1 PUSH4 0x6FDDE03 EQ PUSH2 0xA47 JUMPI DUP1 PUSH4 0x95EA7B3 EQ PUSH2 0x99F JUMPI DUP1 PUSH4 0x18160DDD EQ PUSH2 0x980 JUMPI DUP1 PUSH4 0x23B872DD EQ PUSH2 0x875 JUMPI DUP1 PUSH4 0x248A9CA3 EQ PUSH2 0x84A JUMPI DUP1 PUSH4 0x2F2FF15D EQ PUSH2 0x822 JUMPI DUP1 PUSH4 0x313CE567 EQ PUSH2 0x806 JUMPI DUP1 PUSH4 0x36568ABE EQ PUSH2 0x7A6 JUMPI DUP1 PUSH4 0x70A08231 EQ PUSH2 0x770 JUMPI DUP1 PUSH4 0x8F840DDD EQ PUSH2 0x751 JUMPI DUP1 PUSH4 0x91D14854 EQ PUSH2 0x70B JUMPI DUP1 PUSH4 0x95D89B41 EQ PUSH2 0x605 JUMPI DUP1 PUSH4 0x9D7DE6B3 EQ PUSH2 0x2CE JUMPI DUP1 PUSH4 0xA217FDDF EQ PUSH2 0x2B3 JUMPI DUP1 PUSH4 0xA9059CBB EQ PUSH2 0x282 JUMPI DUP1 PUSH4 0xD0E30DB0 EQ PUSH2 0x267 JUMPI DUP1 PUSH4 0xD547741F EQ PUSH2 0x229 JUMPI DUP1 PUSH4 0xDD62ED3E EQ PUSH2 0x1D9 JUMPI PUSH4 0xE8078D94 EQ PUSH2 0x10A JUMPI PUSH1 0x0 DUP1 REVERT JUMPDEST DUP3 PUSH1 0x3 NOT CALLDATASIZE ADD SLT PUSH2 0x1D5 JUMPI CALLVALUE ISZERO PUSH2 0x1C8 JUMPI PUSH1 0x6 SLOAD DUP1 PUSH2 0x1AD JUMPI POP PUSH10 0x21E19E0C9BAB2400000 SWAP2 JUMPDEST CALLER ISZERO PUSH2 0x198 JUMPI POP PUSH2 0x144 DUP3 PUSH1 0x2 SLOAD PUSH2 0xD69 JUMP JUMPDEST PUSH1 0x2 SSTORE CALLER PUSH1 0x0 MSTORE PUSH1 0x0 PUSH1 0x20 MSTORE DUP1 PUSH1 0x0 KECCAK256 DUP3 DUP2 SLOAD ADD SWAP1 SSTORE MLOAD SWAP1 DUP2 MSTORE PUSH1 0x0 PUSH32 0xDDF252AD1BE2C89B69C2B068FC378DAA952BA7F163C4A11628F55A4DF523B3EF PUSH1 0x20 CALLER SWAP4 LOG3 PUSH2 0x192 CALLVALUE PUSH1 0x6 SLOAD PUSH2 0xD69 JUMP JUMPDEST PUSH1 0x6 SSTORE DUP1 RETURN JUMPDEST DUP4 PUSH1 0x24 SWAP3 MLOAD SWAP2 PUSH4 0xEC442F05 PUSH1 0xE0 SHL DUP4 MSTORE DUP3 ADD MSTORE REVERT JUMPDEST PUSH2 0x1C2 SWAP1 PUSH2 0x1BD PUSH1 0x2 SLOAD CALLVALUE PUSH2 0xD20 JUMP JUMPDEST PUSH2 0xD49 JUMP JUMPDEST SWAP2 PUSH2 0x131 JUMP JUMPDEST MLOAD PUSH4 0x6067798B PUSH1 0xE0 SHL DUP2 MSTORE REVERT JUMPDEST DUP3 DUP1 REVERT JUMPDEST DUP4 DUP3 CALLVALUE PUSH2 0x225 JUMPI DUP1 PUSH1 0x3 NOT CALLDATASIZE ADD SLT PUSH2 0x225 JUMPI PUSH1 0x20 SWAP2 PUSH2 0x1F6 PUSH2 0xC89 JUMP JUMPDEST DUP3 PUSH2 0x1FF PUSH2 0xC6E JUMP JUMPDEST SWAP3 PUSH1 0x1 PUSH1 0x1 PUSH1 0xA0 SHL SUB DUP1 SWAP4 AND DUP2 MSTORE PUSH1 0x1 DUP7 MSTORE KECCAK256 SWAP2 AND PUSH1 0x0 MSTORE DUP3 MSTORE DUP1 PUSH1 0x0 KECCAK256 SLOAD SWAP1 MLOAD SWAP1 DUP2 MSTORE RETURN JUMPDEST POP DUP1 REVERT JUMPDEST POP CALLVALUE PUSH2 0x1D5 JUMPI DUP1 PUSH1 0x3 NOT CALLDATASIZE ADD SLT PUSH2 0x1D5 JUMPI PUSH2 0x263 SWAP2 CALLDATALOAD PUSH2 0x25E PUSH1 0x1 PUSH2 0x24C PUSH2 0xC6E JUMP JUMPDEST SWAP4 DUP4 DUP8 MSTORE PUSH1 0x5 PUSH1 0x20 MSTORE DUP7 KECCAK256 ADD SLOAD PUSH2 0xD83 JUMP JUMPDEST PUSH2 0xF24 JUMP JUMPDEST POP DUP1 RETURN JUMPDEST DUP4 DUP1 PUSH1 0x3 NOT CALLDATASIZE ADD SLT PUSH2 0x27F JUMPI PUSH2 0x192 CALLVALUE PUSH1 0x6 SLOAD PUSH2 0xD69 JUMP JUMPDEST DUP1 REVERT JUMPDEST DUP4 DUP3 CALLVALUE PUSH2 0x225 JUMPI DUP1 PUSH1 0x3 NOT CALLDATASIZE ADD SLT PUSH2 0x225 JUMPI PUSH1 0x20 SWAP1 PUSH2 0x2AC PUSH2 0x2A2 PUSH2 0xC89 JUMP JUMPDEST PUSH1 0x24 CALLDATALOAD SWAP1 CALLER PUSH2 0xDC7 JUMP JUMPDEST MLOAD PUSH1 0x1 DUP2 MSTORE RETURN JUMPDEST DUP4 DUP3 CALLVALUE PUSH2 0x225 JUMPI DUP2 PUSH1 0x3 NOT CALLDATASIZE ADD SLT PUSH2 0x225 JUMPI MLOAD SWAP1 DUP2 MSTORE PUSH1 0x20 SWAP1 RETURN JUMPDEST POP SWAP1 DUP2 PUSH1 0x3 NOT CALLDATASIZE ADD SLT PUSH2 0x1D5 JUMPI DUP1 CALLDATALOAD DUP1 ISZERO PUSH2 0x5F6 JUMPI PUSH2 0x2FB PUSH2 0x2F2 PUSH1 0x6 SLOAD DUP4 PUSH2 0xD20 JUMP JUMPDEST PUSH1 0x2 SLOAD SWAP1 PUSH2 0xD49 JUMP JUMPDEST SWAP3 DUP4 ISZERO PUSH2 0x5E7 JUMPI CALLER ISZERO PUSH2 0x5D1 JUMPI CALLER DUP6 MSTORE PUSH1 0x20 SWAP2 DUP6 DUP4 MSTORE DUP2 DUP7 KECCAK256 SLOAD DUP2 DUP2 LT PUSH2 0x5A5 JUMPI SWAP1 DUP1 DUP8 SWAP3 CALLER DUP5 MSTORE DUP4 DUP7 MSTORE SUB DUP4 DUP4 KECCAK256 SSTORE DUP1 PUSH1 0x2 SLOAD SUB PUSH1 0x2 SSTORE DUP3 MLOAD SWAP1 DUP2 MSTORE PUSH32 0xDDF252AD1BE2C89B69C2B068FC378DAA952BA7F163C4A11628F55A4DF523B3EF DUP5 CALLER SWAP3 LOG3 DUP5 SELFBALANCE SWAP3 DUP6 DUP5 LT PUSH1 0x0 EQ PUSH2 0x563 JUMPI DUP5 PUSH1 0x1 PUSH1 0x1 PUSH1 0xA0 SHL SUB SWAP2 DUP1 DUP4 PUSH1 0x7 SLOAD AND DUP7 MLOAD SWAP4 DUP5 DUP1 SWAP3 PUSH32 0x5C42132E00000000000000000000000000000000000000000000000000000000 DUP3 MSTORE GAS STATICCALL SWAP2 DUP3 ISZERO PUSH2 0x559 JUMPI DUP7 DUP10 DUP7 SWAP3 DUP4 SWAP6 PUSH2 0x520 JUMPI JUMPDEST POP DUP3 PUSH2 0x3CE DUP2 SWAP4 PUSH2 0x3C9 DUP9 DUP5 SWAP6 PUSH2 0xD76 JUMP JUMPDEST PUSH2 0xD76 JUMP JUMPDEST SWAP10 DUP2 DUP2 ISZERO PUSH2 0x517 JUMPI JUMPDEST CALLER SWAP1 CALL ISZERO PUSH2 0x50D JUMPI DUP3 PUSH1 0x7 SLOAD AND SWAP2 DUP6 MLOAD PUSH32 0x3FC8CEF300000000000000000000000000000000000000000000000000000000 DUP2 MSTORE DUP3 DUP2 DUP11 DUP2 DUP8 GAS STATICCALL SWAP3 DUP4 ISZERO PUSH2 0x503 JUMPI DUP7 SWAP4 PUSH2 0x4CA JUMPI JUMPDEST POP POP DUP3 EXTCODESIZE ISZERO PUSH2 0x4C6 JUMPI PUSH1 0x84 SWAP3 DUP7 MLOAD SWAP8 DUP9 SWAP6 DUP7 SWAP5 PUSH32 0xA628B47F00000000000000000000000000000000000000000000000000000000 DUP7 MSTORE CALLER DUP13 DUP8 ADD MSTORE PUSH1 0x24 CALLDATALOAD PUSH1 0x24 DUP8 ADD MSTORE AND PUSH1 0x44 DUP6 ADD MSTORE PUSH1 0x64 DUP5 ADD MSTORE GAS CALL DUP1 ISZERO PUSH2 0x4BC JUMPI PUSH2 0x48A JUMPI JUMPDEST POP POP POP PUSH2 0x192 SWAP1 JUMPDEST PUSH1 0x6 SLOAD PUSH2 0xD76 JUMP JUMPDEST PUSH8 0xFFFFFFFFFFFFFFFF DUP3 SWAP6 SWAP4 SWAP6 GT PUSH2 0x4A9 JUMPI MSTORE SWAP2 POP PUSH2 0x192 CODESIZE DUP1 PUSH2 0x47A JUMP JUMPDEST PUSH1 0x24 DUP4 PUSH1 0x41 DUP8 PUSH4 0x4E487B71 PUSH1 0xE0 SHL DUP4 MSTORE MSTORE REVERT JUMPDEST DUP2 MLOAD RETURNDATASIZE DUP8 DUP3 RETURNDATACOPY RETURNDATASIZE SWAP1 REVERT JUMPDEST DUP5 DUP1 REVERT JUMPDEST SWAP1 DUP1 SWAP3 SWAP4 POP DUP2 RETURNDATASIZE DUP4 GT PUSH2 0x4FC JUMPI JUMPDEST PUSH2 0x4E2 DUP2 DUP4 PUSH2 0xCE8 JUMP JUMPDEST DUP2 ADD SUB SLT PUSH2 0x4C6 JUMPI MLOAD DUP4 DUP2 AND DUP2 SUB PUSH2 0x4C6 JUMPI SWAP1 CODESIZE DUP1 PUSH2 0x41F JUMP JUMPDEST POP RETURNDATASIZE PUSH2 0x4D8 JUMP JUMPDEST DUP8 MLOAD RETURNDATASIZE DUP9 DUP3 RETURNDATACOPY RETURNDATASIZE SWAP1 REVERT JUMPDEST DUP5 MLOAD RETURNDATASIZE DUP6 DUP3 RETURNDATACOPY RETURNDATASIZE SWAP1 REVERT JUMPDEST POP PUSH2 0x8FC PUSH2 0x3D7 JUMP JUMPDEST SWAP5 POP POP POP POP DUP1 DUP3 DUP2 RETURNDATASIZE DUP4 GT PUSH2 0x552 JUMPI JUMPDEST PUSH2 0x53A DUP2 DUP4 PUSH2 0xCE8 JUMP JUMPDEST DUP2 ADD SUB SLT PUSH2 0x54E JUMPI SWAP1 MLOAD SWAP1 DUP4 DUP7 DUP10 DUP3 PUSH2 0x3B7 JUMP JUMPDEST DUP4 DUP1 REVERT JUMPDEST POP RETURNDATASIZE PUSH2 0x530 JUMP JUMPDEST DUP6 MLOAD RETURNDATASIZE DUP7 DUP3 RETURNDATACOPY RETURNDATASIZE SWAP1 REVERT JUMPDEST POP DUP1 DUP1 SWAP4 POP DUP1 SWAP3 SWAP6 SWAP5 POP PUSH2 0x577 CALLVALUE DUP7 PUSH2 0xD69 JUMP JUMPDEST DUP2 DUP2 ISZERO PUSH2 0x59C JUMPI JUMPDEST CALLER SWAP1 CALL ISZERO PUSH2 0x591 JUMPI PUSH2 0x192 SWAP2 POP PUSH2 0x482 JUMP JUMPDEST POP MLOAD SWAP1 RETURNDATASIZE SWAP1 DUP3 RETURNDATACOPY RETURNDATASIZE SWAP1 REVERT JUMPDEST POP PUSH2 0x8FC PUSH2 0x57F JUMP JUMPDEST DUP3 MLOAD PUSH4 0x391434E3 PUSH1 0xE2 SHL DUP2 MSTORE CALLER DUP2 DUP8 ADD SWAP1 DUP2 MSTORE PUSH1 0x20 DUP2 ADD SWAP3 SWAP1 SWAP3 MSTORE PUSH1 0x40 DUP3 ADD DUP4 SWAP1 MSTORE SWAP1 DUP2 SWAP1 PUSH1 0x60 ADD SUB SWAP1 REVERT JUMPDEST DUP3 DUP6 PUSH1 0x24 SWAP3 MLOAD SWAP2 PUSH4 0x4B637E8F PUSH1 0xE1 SHL DUP4 MSTORE DUP3 ADD MSTORE REVERT JUMPDEST SWAP1 POP MLOAD PUSH4 0x6067798B PUSH1 0xE0 SHL DUP2 MSTORE REVERT JUMPDEST POP SWAP1 MLOAD PUSH4 0x6067798B PUSH1 0xE0 SHL DUP2 MSTORE REVERT JUMPDEST POP DUP3 SWAP1 CALLVALUE PUSH2 0x225 JUMPI DUP2 PUSH1 0x3 NOT CALLDATASIZE ADD SLT PUSH2 0x225 JUMPI DUP1 MLOAD SWAP2 DUP1 SWAP4 DUP1 SLOAD SWAP2 PUSH1 0x1 SWAP1 DUP4 PUSH1 0x1 SHR SWAP3 PUSH1 0x1 DUP6 AND SWAP5 DUP6 ISZERO PUSH2 0x701 JUMPI JUMPDEST PUSH1 0x20 SWAP6 DUP7 DUP7 LT DUP2 EQ PUSH2 0x6EE JUMPI DUP6 DUP10 MSTORE SWAP1 DUP2 ISZERO PUSH2 0x6CA JUMPI POP PUSH1 0x1 EQ PUSH2 0x672 JUMPI JUMPDEST PUSH2 0x66E DUP8 DUP8 PUSH2 0x664 DUP3 DUP13 SUB DUP4 PUSH2 0xCE8 JUMP JUMPDEST MLOAD SWAP2 DUP3 SWAP2 DUP3 PUSH2 0xC9F JUMP JUMPDEST SUB SWAP1 RETURN JUMPDEST DUP2 MSTORE SWAP3 SWAP6 POP PUSH32 0x8A35ACFBC15FF81A39AE7D344FD709F28E8600B4AA8C65C6B64BFE7FE36BD19B JUMPDEST DUP3 DUP5 LT PUSH2 0x6B7 JUMPI POP POP POP DUP3 PUSH2 0x66E SWAP5 PUSH2 0x664 SWAP3 DUP3 ADD ADD SWAP5 DUP7 DUP1 PUSH2 0x653 JUMP JUMPDEST DUP1 SLOAD DUP7 DUP6 ADD DUP9 ADD MSTORE SWAP3 DUP7 ADD SWAP3 DUP2 ADD PUSH2 0x699 JUMP JUMPDEST PUSH1 0xFF NOT AND DUP9 DUP8 ADD MSTORE POP POP POP POP ISZERO ISZERO PUSH1 0x5 SHL DUP4 ADD ADD SWAP3 POP PUSH2 0x664 DUP3 PUSH2 0x66E DUP7 DUP1 PUSH2 0x653 JUMP JUMPDEST PUSH1 0x24 DUP5 PUSH1 0x22 DUP6 PUSH4 0x4E487B71 PUSH1 0xE0 SHL DUP4 MSTORE MSTORE REVERT JUMPDEST SWAP4 PUSH1 0x7F AND SWAP4 PUSH2 0x634 JUMP JUMPDEST POP SWAP1 CALLVALUE PUSH2 0x1D5 JUMPI DUP2 PUSH1 0x3 NOT CALLDATASIZE ADD SLT PUSH2 0x1D5 JUMPI DUP2 PUSH1 0x20 SWAP4 PUSH1 0xFF SWAP3 PUSH2 0x72C PUSH2 0xC6E JUMP JUMPDEST SWAP1 CALLDATALOAD DUP3 MSTORE PUSH1 0x5 DUP7 MSTORE PUSH1 0x1 PUSH1 0x1 PUSH1 0xA0 SHL SUB DUP4 DUP4 KECCAK256 SWAP2 AND DUP3 MSTORE DUP6 MSTORE KECCAK256 SLOAD AND SWAP1 MLOAD SWAP1 ISZERO ISZERO DUP2 MSTORE RETURN JUMPDEST DUP4 DUP3 CALLVALUE PUSH2 0x225 JUMPI DUP2 PUSH1 0x3 NOT CALLDATASIZE ADD SLT PUSH2 0x225 JUMPI PUSH1 0x20 SWAP1 PUSH1 0x6 SLOAD SWAP1 MLOAD SWAP1 DUP2 MSTORE RETURN JUMPDEST DUP4 DUP3 CALLVALUE PUSH2 0x225 JUMPI PUSH1 0x20 CALLDATASIZE PUSH1 0x3 NOT ADD SLT PUSH2 0x225 JUMPI DUP1 PUSH1 0x20 SWAP3 PUSH1 0x1 PUSH1 0x1 PUSH1 0xA0 SHL SUB PUSH2 0x797 PUSH2 0xC89 JUMP JUMPDEST AND DUP2 MSTORE DUP1 DUP5 MSTORE KECCAK256 SLOAD SWAP1 MLOAD SWAP1 DUP2 MSTORE RETURN JUMPDEST POP DUP3 SWAP1 CALLVALUE PUSH2 0x225 JUMPI DUP1 PUSH1 0x3 NOT CALLDATASIZE ADD SLT PUSH2 0x225 JUMPI PUSH2 0x7C1 PUSH2 0xC6E JUMP JUMPDEST SWAP1 CALLER PUSH1 0x1 PUSH1 0x1 PUSH1 0xA0 SHL SUB DUP4 AND SUB PUSH2 0x7DE JUMPI POP PUSH2 0x263 SWAP2 SWAP3 CALLDATALOAD PUSH2 0xF24 JUMP JUMPDEST DUP4 SWAP1 MLOAD PUSH32 0x6697B23200000000000000000000000000000000000000000000000000000000 DUP2 MSTORE REVERT JUMPDEST DUP4 DUP3 CALLVALUE PUSH2 0x225 JUMPI DUP2 PUSH1 0x3 NOT CALLDATASIZE ADD SLT PUSH2 0x225 JUMPI PUSH1 0x20 SWAP1 MLOAD PUSH1 0x12 DUP2 MSTORE RETURN JUMPDEST POP CALLVALUE PUSH2 0x1D5 JUMPI DUP1 PUSH1 0x3 NOT CALLDATASIZE ADD SLT PUSH2 0x1D5 JUMPI PUSH2 0x263 SWAP2 CALLDATALOAD PUSH2 0x845 PUSH1 0x1 PUSH2 0x24C PUSH2 0xC6E JUMP JUMPDEST PUSH2 0xEA3 JUMP JUMPDEST POP SWAP1 CALLVALUE PUSH2 0x1D5 JUMPI PUSH1 0x20 CALLDATASIZE PUSH1 0x3 NOT ADD SLT PUSH2 0x1D5 JUMPI DUP2 PUSH1 0x20 SWAP4 PUSH1 0x1 SWAP3 CALLDATALOAD DUP2 MSTORE PUSH1 0x5 DUP6 MSTORE KECCAK256 ADD SLOAD SWAP1 MLOAD SWAP1 DUP2 MSTORE RETURN JUMPDEST POP SWAP2 CALLVALUE PUSH2 0x27F JUMPI PUSH1 0x60 CALLDATASIZE PUSH1 0x3 NOT ADD SLT PUSH2 0x27F JUMPI PUSH2 0x890 PUSH2 0xC89 JUMP JUMPDEST PUSH2 0x898 PUSH2 0xC6E JUMP JUMPDEST SWAP2 PUSH1 0x44 CALLDATALOAD SWAP4 PUSH1 0x1 PUSH1 0x1 PUSH1 0xA0 SHL SUB DUP4 AND DUP1 DUP4 MSTORE PUSH1 0x1 PUSH1 0x20 MSTORE DUP7 DUP4 KECCAK256 CALLER DUP5 MSTORE PUSH1 0x20 MSTORE DUP7 DUP4 KECCAK256 SLOAD SWAP2 PUSH1 0x0 NOT DUP4 SUB PUSH2 0x8D5 JUMPI JUMPDEST PUSH1 0x20 DUP9 PUSH2 0x2AC DUP10 DUP10 DUP10 PUSH2 0xDC7 JUMP JUMPDEST DUP7 DUP4 LT PUSH2 0x93B JUMPI DUP2 ISZERO PUSH2 0x925 JUMPI CALLER ISZERO PUSH2 0x90F JUMPI POP DUP3 MSTORE PUSH1 0x1 PUSH1 0x20 SWAP1 DUP2 MSTORE DUP7 DUP4 KECCAK256 CALLER DUP5 MSTORE DUP2 MSTORE SWAP2 DUP7 SWAP1 KECCAK256 SWAP1 DUP6 SWAP1 SUB SWAP1 SSTORE DUP3 SWAP1 PUSH2 0x2AC CODESIZE PUSH2 0x8C7 JUMP JUMPDEST PUSH1 0x24 SWAP1 DUP5 DUP10 MLOAD SWAP2 PUSH4 0x4A1406B1 PUSH1 0xE1 SHL DUP4 MSTORE DUP3 ADD MSTORE REVERT JUMPDEST PUSH1 0x24 SWAP1 DUP5 DUP10 MLOAD SWAP2 PUSH4 0xE602DF05 PUSH1 0xE0 SHL DUP4 MSTORE DUP3 ADD MSTORE REVERT JUMPDEST DUP8 MLOAD PUSH32 0xFB8F41B200000000000000000000000000000000000000000000000000000000 DUP2 MSTORE CALLER SWAP2 DUP2 ADD SWAP2 DUP3 MSTORE PUSH1 0x20 DUP3 ADD SWAP4 SWAP1 SWAP4 MSTORE PUSH1 0x40 DUP2 ADD DUP8 SWAP1 MSTORE DUP3 SWAP2 POP PUSH1 0x60 ADD SUB SWAP1 REVERT JUMPDEST DUP4 DUP3 CALLVALUE PUSH2 0x225 JUMPI DUP2 PUSH1 0x3 NOT CALLDATASIZE ADD SLT PUSH2 0x225 JUMPI PUSH1 0x20 SWAP1 PUSH1 0x2 SLOAD SWAP1 MLOAD SWAP1 DUP2 MSTORE RETURN JUMPDEST POP SWAP1 CALLVALUE PUSH2 0x1D5 JUMPI DUP2 PUSH1 0x3 NOT CALLDATASIZE ADD SLT PUSH2 0x1D5 JUMPI PUSH2 0x9B9 PUSH2 0xC89 JUMP JUMPDEST PUSH1 0x24 CALLDATALOAD SWAP1 CALLER ISZERO PUSH2 0xA31 JUMPI PUSH1 0x1 PUSH1 0x1 PUSH1 0xA0 SHL SUB AND SWAP2 DUP3 ISZERO PUSH2 0xA1B JUMPI POP DUP1 DUP4 PUSH1 0x20 SWAP6 CALLER DUP2 MSTORE PUSH1 0x1 DUP8 MSTORE DUP2 DUP2 KECCAK256 DUP6 DUP3 MSTORE DUP8 MSTORE KECCAK256 SSTORE DUP3 MLOAD SWAP1 DUP2 MSTORE PUSH32 0x8C5BE1E5EBEC7D5BD14F71427D1E84F3DD0314C0F7B2291E5B200AC8C7C3B925 DUP5 CALLER SWAP3 LOG3 MLOAD PUSH1 0x1 DUP2 MSTORE RETURN JUMPDEST PUSH1 0x24 SWAP1 DUP6 DUP6 MLOAD SWAP2 PUSH4 0x4A1406B1 PUSH1 0xE1 SHL DUP4 MSTORE DUP3 ADD MSTORE REVERT JUMPDEST PUSH1 0x24 DUP4 DUP7 DUP7 MLOAD SWAP2 PUSH4 0xE602DF05 PUSH1 0xE0 SHL DUP4 MSTORE DUP3 ADD MSTORE REVERT JUMPDEST POP CALLVALUE PUSH2 0x1D5 JUMPI DUP3 PUSH1 0x3 NOT CALLDATASIZE ADD SLT PUSH2 0x1D5 JUMPI DUP1 MLOAD SWAP2 DUP4 PUSH1 0x3 SLOAD SWAP1 PUSH1 0x1 SWAP1 DUP3 PUSH1 0x1 SHR SWAP3 PUSH1 0x1 DUP2 AND DUP1 ISZERO PUSH2 0xB32 JUMPI JUMPDEST PUSH1 0x20 SWAP6 DUP7 DUP7 LT DUP3 EQ PUSH2 0xB1F JUMPI POP DUP5 DUP9 MSTORE SWAP1 DUP2 ISZERO PUSH2 0xAFD JUMPI POP PUSH1 0x1 EQ PUSH2 0xAA4 JUMPI JUMPDEST PUSH2 0x66E DUP7 DUP7 PUSH2 0x664 DUP3 DUP12 SUB DUP4 PUSH2 0xCE8 JUMP JUMPDEST SWAP3 SWAP6 POP PUSH1 0x3 DUP4 MSTORE PUSH32 0xC2575A0E9E593C00F959F8C92F12DB2869C3395A3B0502D05E2516446F71F85B JUMPDEST DUP3 DUP5 LT PUSH2 0xAEA JUMPI POP POP POP DUP3 PUSH2 0x66E SWAP5 PUSH2 0x664 SWAP3 DUP3 ADD ADD SWAP5 CODESIZE PUSH2 0xA93 JUMP JUMPDEST DUP1 SLOAD DUP7 DUP6 ADD DUP9 ADD MSTORE SWAP3 DUP7 ADD SWAP3 DUP2 ADD PUSH2 0xACD JUMP JUMPDEST PUSH1 0xFF NOT AND DUP8 DUP7 ADD MSTORE POP POP POP ISZERO ISZERO PUSH1 0x5 SHL DUP4 ADD ADD SWAP3 POP PUSH2 0x664 DUP3 PUSH2 0x66E CODESIZE PUSH2 0xA93 JUMP JUMPDEST DUP4 PUSH1 0x22 PUSH1 0x24 SWAP3 PUSH4 0x4E487B71 PUSH1 0xE0 SHL DUP4 MSTORE MSTORE REVERT JUMPDEST SWAP4 PUSH1 0x7F AND SWAP4 PUSH2 0xA73 JUMP JUMPDEST POP SWAP1 CALLVALUE PUSH2 0x1D5 JUMPI PUSH1 0x20 CALLDATASIZE PUSH1 0x3 NOT ADD SLT PUSH2 0x1D5 JUMPI CALLDATALOAD SWAP1 PUSH32 0xFFFFFFFF00000000000000000000000000000000000000000000000000000000 DUP3 AND DUP1 SWAP3 SUB PUSH2 0x1D5 JUMPI PUSH1 0x20 SWAP3 POP PUSH32 0x7965DB0B00000000000000000000000000000000000000000000000000000000 DUP3 EQ SWAP2 DUP3 ISZERO PUSH2 0xBB3 JUMPI JUMPDEST POP MLOAD SWAP1 ISZERO ISZERO DUP2 MSTORE RETURN JUMPDEST PUSH32 0x1FFC9A700000000000000000000000000000000000000000000000000000000 EQ SWAP2 POP CODESIZE PUSH2 0xBAA JUMP JUMPDEST SWAP2 SWAP3 SWAP1 POP CALLVALUE PUSH2 0x54E JUMPI DUP3 PUSH1 0x3 NOT CALLDATASIZE ADD SLT PUSH2 0x54E JUMPI DUP1 CALLDATALOAD SWAP2 PUSH2 0xBFC PUSH2 0xC6E JUMP JUMPDEST SWAP2 DUP6 DUP1 MSTORE PUSH1 0x5 PUSH1 0x20 MSTORE DUP5 DUP7 KECCAK256 CALLER DUP8 MSTORE PUSH1 0x20 MSTORE PUSH1 0xFF DUP6 DUP8 KECCAK256 SLOAD AND ISZERO PUSH2 0xC53 JUMPI POP POP DUP4 DUP1 DUP1 SWAP4 DUP2 SWAP4 DUP3 SWAP1 DUP3 ISZERO PUSH2 0xC49 JUMPI JUMPDEST PUSH1 0x1 PUSH1 0x1 PUSH1 0xA0 SHL SUB AND SWAP1 CALL ISZERO PUSH2 0xC3F JUMPI POP DUP1 RETURN JUMPDEST MLOAD SWAP1 RETURNDATASIZE SWAP1 DUP3 RETURNDATACOPY RETURNDATASIZE SWAP1 REVERT JUMPDEST PUSH2 0x8FC SWAP2 POP PUSH2 0xC2B JUMP JUMPDEST SWAP1 DUP6 PUSH1 0x44 SWAP3 PUSH4 0xE2517D3F PUSH1 0xE0 SHL DUP4 MSTORE CALLER SWAP1 DUP4 ADD MSTORE PUSH1 0x24 DUP3 ADD MSTORE REVERT JUMPDEST PUSH1 0x24 CALLDATALOAD SWAP1 PUSH1 0x1 PUSH1 0x1 PUSH1 0xA0 SHL SUB DUP3 AND DUP3 SUB PUSH2 0xC84 JUMPI JUMP JUMPDEST PUSH1 0x0 DUP1 REVERT JUMPDEST PUSH1 0x4 CALLDATALOAD SWAP1 PUSH1 0x1 PUSH1 0x1 PUSH1 0xA0 SHL SUB DUP3 AND DUP3 SUB PUSH2 0xC84 JUMPI JUMP JUMPDEST PUSH1 0x20 DUP1 DUP3 MSTORE DUP3 MLOAD DUP2 DUP4 ADD DUP2 SWAP1 MSTORE SWAP1 SWAP4 SWAP3 PUSH1 0x0 JUMPDEST DUP3 DUP2 LT PUSH2 0xCD4 JUMPI POP POP PUSH1 0x40 SWAP3 SWAP4 POP PUSH1 0x0 DUP4 DUP3 DUP5 ADD ADD MSTORE PUSH1 0x1F DUP1 NOT SWAP2 ADD AND ADD ADD SWAP1 JUMP JUMPDEST DUP2 DUP2 ADD DUP7 ADD MLOAD DUP5 DUP3 ADD PUSH1 0x40 ADD MSTORE DUP6 ADD PUSH2 0xCB2 JUMP JUMPDEST SWAP1 PUSH1 0x1F DUP1 NOT SWAP2 ADD AND DUP2 ADD SWAP1 DUP2 LT PUSH8 0xFFFFFFFFFFFFFFFF DUP3 GT OR PUSH2 0xD0A JUMPI PUSH1 0x40 MSTORE JUMP JUMPDEST PUSH4 0x4E487B71 PUSH1 0xE0 SHL PUSH1 0x0 MSTORE PUSH1 0x41 PUSH1 0x4 MSTORE PUSH1 0x24 PUSH1 0x0 REVERT JUMPDEST DUP2 DUP2 MUL SWAP3 SWAP2 DUP2 ISZERO SWAP2 DUP5 DIV EQ OR ISZERO PUSH2 0xD33 JUMPI JUMP JUMPDEST PUSH4 0x4E487B71 PUSH1 0xE0 SHL PUSH1 0x0 MSTORE PUSH1 0x11 PUSH1 0x4 MSTORE PUSH1 0x24 PUSH1 0x0 REVERT JUMPDEST DUP2 ISZERO PUSH2 0xD53 JUMPI DIV SWAP1 JUMP JUMPDEST PUSH4 0x4E487B71 PUSH1 0xE0 SHL PUSH1 0x0 MSTORE PUSH1 0x12 PUSH1 0x4 MSTORE PUSH1 0x24 PUSH1 0x0 REVERT JUMPDEST SWAP2 SWAP1 DUP3 ADD DUP1 SWAP3 GT PUSH2 0xD33 JUMPI JUMP JUMPDEST SWAP2 SWAP1 DUP3 SUB SWAP2 DUP3 GT PUSH2 0xD33 JUMPI JUMP JUMPDEST DUP1 PUSH1 0x0 MSTORE PUSH1 0x5 PUSH1 0x20 MSTORE PUSH1 0x40 PUSH1 0x0 KECCAK256 CALLER PUSH1 0x0 MSTORE PUSH1 0x20 MSTORE PUSH1 0xFF PUSH1 0x40 PUSH1 0x0 KECCAK256 SLOAD AND ISZERO PUSH2 0xDA9 JUMPI POP JUMP JUMPDEST PUSH1 0x44 SWAP1 PUSH1 0x40 MLOAD SWAP1 PUSH4 0xE2517D3F PUSH1 0xE0 SHL DUP3 MSTORE CALLER PUSH1 0x4 DUP4 ADD MSTORE PUSH1 0x24 DUP3 ADD MSTORE REVERT JUMPDEST SWAP2 PUSH1 0x1 PUSH1 0x1 PUSH1 0xA0 SHL SUB DUP1 DUP5 AND SWAP3 DUP4 ISZERO PUSH2 0xE8B JUMPI AND SWAP3 DUP4 ISZERO PUSH2 0xE73 JUMPI PUSH1 0x0 SWAP1 DUP4 DUP3 MSTORE DUP2 PUSH1 0x20 MSTORE PUSH1 0x40 DUP3 KECCAK256 SLOAD SWAP1 DUP4 DUP3 LT PUSH2 0xE41 JUMPI POP SWAP2 PUSH1 0x40 DUP3 DUP3 PUSH32 0xDDF252AD1BE2C89B69C2B068FC378DAA952BA7F163C4A11628F55A4DF523B3EF SWAP6 DUP8 PUSH1 0x20 SWAP7 MSTORE DUP3 DUP7 MSTORE SUB DUP3 DUP3 KECCAK256 SSTORE DUP7 DUP2 MSTORE KECCAK256 DUP2 DUP2 SLOAD ADD SWAP1 SSTORE PUSH1 0x40 MLOAD SWAP1 DUP2 MSTORE LOG3 JUMP JUMPDEST PUSH1 0x40 MLOAD PUSH4 0x391434E3 PUSH1 0xE2 SHL DUP2 MSTORE PUSH1 0x1 PUSH1 0x1 PUSH1 0xA0 SHL SUB SWAP2 SWAP1 SWAP2 AND PUSH1 0x4 DUP3 ADD MSTORE PUSH1 0x24 DUP2 ADD SWAP2 SWAP1 SWAP2 MSTORE PUSH1 0x44 DUP2 ADD DUP4 SWAP1 MSTORE PUSH1 0x64 SWAP1 REVERT JUMPDEST PUSH1 0x24 PUSH1 0x40 MLOAD PUSH4 0xEC442F05 PUSH1 0xE0 SHL DUP2 MSTORE PUSH1 0x0 PUSH1 0x4 DUP3 ADD MSTORE REVERT JUMPDEST PUSH1 0x24 PUSH1 0x40 MLOAD PUSH4 0x4B637E8F PUSH1 0xE1 SHL DUP2 MSTORE PUSH1 0x0 PUSH1 0x4 DUP3 ADD MSTORE REVERT JUMPDEST SWAP1 PUSH1 0x0 SWAP2 DUP1 DUP4 MSTORE PUSH1 0x5 PUSH1 0x20 MSTORE PUSH1 0x1 PUSH1 0x1 PUSH1 0xA0 SHL SUB PUSH1 0x40 DUP5 KECCAK256 SWAP3 AND SWAP2 DUP3 DUP5 MSTORE PUSH1 0x20 MSTORE PUSH1 0xFF PUSH1 0x40 DUP5 KECCAK256 SLOAD AND ISZERO PUSH1 0x0 EQ PUSH2 0xF1F JUMPI DUP1 DUP4 MSTORE PUSH1 0x5 PUSH1 0x20 MSTORE PUSH1 0x40 DUP4 KECCAK256 DUP3 DUP5 MSTORE PUSH1 0x20 MSTORE PUSH1 0x40 DUP4 KECCAK256 PUSH1 0x1 PUSH1 0xFF NOT DUP3 SLOAD AND OR SWAP1 SSTORE PUSH32 0x2F8788117E7EFF1D82E926EC794901D17C78024A50270940304540A733656F0D CALLER SWAP4 DUP1 LOG4 PUSH1 0x1 SWAP1 JUMP JUMPDEST POP POP SWAP1 JUMP JUMPDEST SWAP1 PUSH1 0x0 SWAP2 DUP1 DUP4 MSTORE PUSH1 0x5 PUSH1 0x20 MSTORE PUSH1 0x1 PUSH1 0x1 PUSH1 0xA0 SHL SUB PUSH1 0x40 DUP5 KECCAK256 SWAP3 AND SWAP2 DUP3 DUP5 MSTORE PUSH1 0x20 MSTORE PUSH1 0xFF PUSH1 0x40 DUP5 KECCAK256 SLOAD AND PUSH1 0x0 EQ PUSH2 0xF1F JUMPI DUP1 DUP4 MSTORE PUSH1 0x5 PUSH1 0x20 MSTORE PUSH1 0x40 DUP4 KECCAK256 DUP3 DUP5 MSTORE PUSH1 0x20 MSTORE PUSH1 0x40 DUP4 KECCAK256 PUSH1 0xFF NOT DUP2 SLOAD AND SWAP1 SSTORE PUSH32 0xF6391F5C32D9C69D2A47EA670B442974B53935D1EDC7FD64EB21E047A839171B CALLER SWAP4 DUP1 LOG4 PUSH1 0x1 SWAP1 JUMP INVALID LOG2 PUSH5 0x6970667358 0x22 SLT KECCAK256 SWAP15 CREATE PUSH11 0xA881FAE08C22F9FA14BB44 0xE6 LOG1 EQ LOG1 DUP9 0xAE 0xB3 0xBD COINBASE PUSH14 0x77A16C86030904A964736F6C6343 STOP ADDMOD XOR STOP CALLER LOG2 PUSH5 0x6970667358 0x22 SLT KECCAK256 0xF8 MLOAD DUP3 PREVRANDAO LOG4 0xD SWAP8 PUSH0 GASLIMIT SWAP16 SWAP15 0xF6 SWAP10 0xCF 0xDC TLOAD SWAP13 0xDE SWAP13 PUSH25 0x7AFC403747D7730E562B37EF64736F6C634300081800330000 "
        },
        "methodIdentifiers": {
          "DEFAULT_ADMIN_ROLE()": "a217fddf",
          "HONEY_ROUTER_ROLE()": "2ef3f1a5",
          "addRouter(address)": "24ca984e",
          "createPool(address)": "9049f9d2",
          "crossChainCall(address,uint256,address,uint256)": "a628b47f",
          "getEquitoFee()": "5c42132e",
          "getPeer(uint256)": "67ebb6b2",
          "getPool(address)": "bbe4f6db",
          "getRoleAdmin(bytes32)": "248a9ca3",
          "grantRole(bytes32,address)": "2f2ff15d",
          "hasRole(bytes32,address)": "91d14854",
          "owner()": "8da5cb5b",
          "peers(uint256)": "be4f3e8f",
          "receiveMessage((uint256,uint256,(bytes32,bytes32),uint256,(bytes32,bytes32),bytes32),bytes)": "879d182d",
          "removeRouter(address)": "6ae0b154",
          "renounceOwnership()": "715018a6",
          "renounceRole(bytes32,address)": "36568abe",
          "revokeRole(bytes32,address)": "d547741f",
          "setPeers(uint256[],(bytes32,bytes32)[])": "59a1aae1",
          "supportsInterface(bytes4)": "01ffc9a7",
          "toBase64(address)": "ef88e0e1",
          "transferOwnership(address)": "f2fde38b",
          "weth()": "3fc8cef3",
          "withdrawFromPool(address,uint256)": "c1bf9e58"
        }
      }
    }
  }
}