{
  "_format": "hh-sol-artifact-1",
  "contractName": "HoneyRouter01",
  "sourceName": "contracts/src/HoneyRouter01.sol",
  "abi": [
    {
      "inputs": [
        {
          "internalType": "address",
          "name": "_tokenMap",
          "type": "address"
        },
        {
          "internalType": "address",
          "name": "_router",
          "type": "address"
        },
        {
          "internalType": "address",
          "name": "_treasury",
          "type": "address"
        }
      ],
      "stateMutability": "nonpayable",
      "type": "constructor"
    },
    {
      "inputs": [],
      "name": "AccessControlBadConfirmation",
      "type": "error"
    },
    {
      "inputs": [
        {
          "internalType": "address",
          "name": "account",
          "type": "address"
        },
        {
          "internalType": "bytes32",
          "name": "neededRole",
          "type": "bytes32"
        }
      ],
      "name": "AccessControlUnauthorizedAccount",
      "type": "error"
    },
    {
      "inputs": [
        {
          "internalType": "address",
          "name": "target",
          "type": "address"
        }
      ],
      "name": "AddressEmptyCode",
      "type": "error"
    },
    {
      "inputs": [
        {
          "internalType": "address",
          "name": "account",
          "type": "address"
        }
      ],
      "name": "AddressInsufficientBalance",
      "type": "error"
    },
    {
      "inputs": [],
      "name": "EnforcedPause",
      "type": "error"
    },
    {
      "inputs": [],
      "name": "ExpectedPause",
      "type": "error"
    },
    {
      "inputs": [],
      "name": "FailedInnerCall",
      "type": "error"
    },
    {
      "inputs": [
        {
          "internalType": "uint256",
          "name": "amountOut",
          "type": "uint256"
        },
        {
          "internalType": "uint256",
          "name": "expectedAmountOut",
          "type": "uint256"
        }
      ],
      "name": "InsufficientOutputAmount",
      "type": "error"
    },
    {
      "inputs": [],
      "name": "InvalidLength",
      "type": "error"
    },
    {
      "inputs": [],
      "name": "InvalidMessageSender",
      "type": "error"
    },
    {
      "inputs": [
        {
          "internalType": "uint256",
          "name": "chainSelector",
          "type": "uint256"
        }
      ],
      "name": "InvalidPeer",
      "type": "error"
    },
    {
      "inputs": [
        {
          "internalType": "address",
          "name": "router",
          "type": "address"
        }
      ],
      "name": "InvalidRouter",
      "type": "error"
    },
    {
      "inputs": [
        {
          "internalType": "address",
          "name": "owner",
          "type": "address"
        }
      ],
      "name": "OwnableInvalidOwner",
      "type": "error"
    },
    {
      "inputs": [
        {
          "internalType": "address",
          "name": "account",
          "type": "address"
        }
      ],
      "name": "OwnableUnauthorizedAccount",
      "type": "error"
    },
    {
      "inputs": [],
      "name": "RouterAddressCannotBeZero",
      "type": "error"
    },
    {
      "inputs": [
        {
          "internalType": "address",
          "name": "token",
          "type": "address"
        }
      ],
      "name": "SafeERC20FailedOperation",
      "type": "error"
    },
    {
      "anonymous": false,
      "inputs": [
        {
          "indexed": true,
          "internalType": "address",
          "name": "previousOwner",
          "type": "address"
        },
        {
          "indexed": true,
          "internalType": "address",
          "name": "newOwner",
          "type": "address"
        }
      ],
      "name": "OwnershipTransferred",
      "type": "event"
    },
    {
      "anonymous": false,
      "inputs": [
        {
          "indexed": false,
          "internalType": "address",
          "name": "account",
          "type": "address"
        }
      ],
      "name": "Paused",
      "type": "event"
    },
    {
      "anonymous": false,
      "inputs": [
        {
          "indexed": true,
          "internalType": "bytes32",
          "name": "role",
          "type": "bytes32"
        },
        {
          "indexed": true,
          "internalType": "bytes32",
          "name": "previousAdminRole",
          "type": "bytes32"
        },
        {
          "indexed": true,
          "internalType": "bytes32",
          "name": "newAdminRole",
          "type": "bytes32"
        }
      ],
      "name": "RoleAdminChanged",
      "type": "event"
    },
    {
      "anonymous": false,
      "inputs": [
        {
          "indexed": true,
          "internalType": "bytes32",
          "name": "role",
          "type": "bytes32"
        },
        {
          "indexed": true,
          "internalType": "address",
          "name": "account",
          "type": "address"
        },
        {
          "indexed": true,
          "internalType": "address",
          "name": "sender",
          "type": "address"
        }
      ],
      "name": "RoleGranted",
      "type": "event"
    },
    {
      "anonymous": false,
      "inputs": [
        {
          "indexed": true,
          "internalType": "bytes32",
          "name": "role",
          "type": "bytes32"
        },
        {
          "indexed": true,
          "internalType": "address",
          "name": "account",
          "type": "address"
        },
        {
          "indexed": true,
          "internalType": "address",
          "name": "sender",
          "type": "address"
        }
      ],
      "name": "RoleRevoked",
      "type": "event"
    },
    {
      "anonymous": false,
      "inputs": [
        {
          "indexed": false,
          "internalType": "address",
          "name": "account",
          "type": "address"
        }
      ],
      "name": "Unpaused",
      "type": "event"
    },
    {
      "inputs": [],
      "name": "ADMIN_ROLE",
      "outputs": [
        {
          "internalType": "bytes32",
          "name": "",
          "type": "bytes32"
        }
      ],
      "stateMutability": "view",
      "type": "function"
    },
    {
      "inputs": [],
      "name": "DEFAULT_ADMIN_ROLE",
      "outputs": [
        {
          "internalType": "bytes32",
          "name": "",
          "type": "bytes32"
        }
      ],
      "stateMutability": "view",
      "type": "function"
    },
    {
      "inputs": [],
      "name": "EXECUTOR",
      "outputs": [
        {
          "internalType": "address",
          "name": "",
          "type": "address"
        }
      ],
      "stateMutability": "view",
      "type": "function"
    },
    {
      "inputs": [],
      "name": "TREASURY",
      "outputs": [
        {
          "internalType": "address",
          "name": "",
          "type": "address"
        }
      ],
      "stateMutability": "view",
      "type": "function"
    },
    {
      "inputs": [
        {
          "internalType": "string",
          "name": "name",
          "type": "string"
        },
        {
          "internalType": "string",
          "name": "routerURI",
          "type": "string"
        },
        {
          "internalType": "address",
          "name": "routerId",
          "type": "address"
        }
      ],
      "name": "addRouter",
      "outputs": [],
      "stateMutability": "nonpayable",
      "type": "function"
    },
    {
      "inputs": [
        {
          "internalType": "uint256",
          "name": "amountIn",
          "type": "uint256"
        },
        {
          "internalType": "address",
          "name": "tokenIn",
          "type": "address"
        },
        {
          "internalType": "address",
          "name": "tokenOut",
          "type": "address"
        }
      ],
      "name": "bestRouter",
      "outputs": [
        {
          "internalType": "uint256",
          "name": "",
          "type": "uint256"
        },
        {
          "internalType": "address",
          "name": "",
          "type": "address"
        }
      ],
      "stateMutability": "view",
      "type": "function"
    },
    {
      "inputs": [
        {
          "internalType": "uint256",
          "name": "chainSelector",
          "type": "uint256"
        }
      ],
      "name": "getPeer",
      "outputs": [
        {
          "components": [
            {
              "internalType": "bytes32",
              "name": "lower",
              "type": "bytes32"
            },
            {
              "internalType": "bytes32",
              "name": "upper",
              "type": "bytes32"
            }
          ],
          "internalType": "struct bytes64",
          "name": "",
          "type": "tuple"
        }
      ],
      "stateMutability": "view",
      "type": "function"
    },
    {
      "inputs": [
        {
          "internalType": "bytes32",
          "name": "role",
          "type": "bytes32"
        }
      ],
      "name": "getRoleAdmin",
      "outputs": [
        {
          "internalType": "bytes32",
          "name": "",
          "type": "bytes32"
        }
      ],
      "stateMutability": "view",
      "type": "function"
    },
    {
      "inputs": [
        {
          "internalType": "bytes32",
          "name": "role",
          "type": "bytes32"
        },
        {
          "internalType": "address",
          "name": "account",
          "type": "address"
        }
      ],
      "name": "grantRole",
      "outputs": [],
      "stateMutability": "nonpayable",
      "type": "function"
    },
    {
      "inputs": [
        {
          "internalType": "bytes32",
          "name": "role",
          "type": "bytes32"
        },
        {
          "internalType": "address",
          "name": "account",
          "type": "address"
        }
      ],
      "name": "hasRole",
      "outputs": [
        {
          "internalType": "bool",
          "name": "",
          "type": "bool"
        }
      ],
      "stateMutability": "view",
      "type": "function"
    },
    {
      "inputs": [],
      "name": "owner",
      "outputs": [
        {
          "internalType": "address",
          "name": "",
          "type": "address"
        }
      ],
      "stateMutability": "view",
      "type": "function"
    },
    {
      "inputs": [],
      "name": "pause",
      "outputs": [],
      "stateMutability": "nonpayable",
      "type": "function"
    },
    {
      "inputs": [],
      "name": "paused",
      "outputs": [
        {
          "internalType": "bool",
          "name": "",
          "type": "bool"
        }
      ],
      "stateMutability": "view",
      "type": "function"
    },
    {
      "inputs": [
        {
          "internalType": "uint256",
          "name": "",
          "type": "uint256"
        }
      ],
      "name": "peers",
      "outputs": [
        {
          "internalType": "bytes32",
          "name": "lower",
          "type": "bytes32"
        },
        {
          "internalType": "bytes32",
          "name": "upper",
          "type": "bytes32"
        }
      ],
      "stateMutability": "view",
      "type": "function"
    },
    {
      "inputs": [
        {
          "components": [
            {
              "internalType": "uint256",
              "name": "blockNumber",
              "type": "uint256"
            },
            {
              "internalType": "uint256",
              "name": "sourceChainSelector",
              "type": "uint256"
            },
            {
              "components": [
                {
                  "internalType": "bytes32",
                  "name": "lower",
                  "type": "bytes32"
                },
                {
                  "internalType": "bytes32",
                  "name": "upper",
                  "type": "bytes32"
                }
              ],
              "internalType": "struct bytes64",
              "name": "sender",
              "type": "tuple"
            },
            {
              "internalType": "uint256",
              "name": "destinationChainSelector",
              "type": "uint256"
            },
            {
              "components": [
                {
                  "internalType": "bytes32",
                  "name": "lower",
                  "type": "bytes32"
                },
                {
                  "internalType": "bytes32",
                  "name": "upper",
                  "type": "bytes32"
                }
              ],
              "internalType": "struct bytes64",
              "name": "receiver",
              "type": "tuple"
            },
            {
              "internalType": "bytes32",
              "name": "hashedData",
              "type": "bytes32"
            }
          ],
          "internalType": "struct EquitoMessage",
          "name": "message",
          "type": "tuple"
        },
        {
          "internalType": "bytes",
          "name": "messageData",
          "type": "bytes"
        }
      ],
      "name": "receiveMessage",
      "outputs": [],
      "stateMutability": "payable",
      "type": "function"
    },
    {
      "inputs": [
        {
          "internalType": "address",
          "name": "routerId",
          "type": "address"
        }
      ],
      "name": "removeRouter",
      "outputs": [],
      "stateMutability": "nonpayable",
      "type": "function"
    },
    {
      "inputs": [],
      "name": "renounceOwnership",
      "outputs": [],
      "stateMutability": "nonpayable",
      "type": "function"
    },
    {
      "inputs": [
        {
          "internalType": "bytes32",
          "name": "role",
          "type": "bytes32"
        },
        {
          "internalType": "address",
          "name": "callerConfirmation",
          "type": "address"
        }
      ],
      "name": "renounceRole",
      "outputs": [],
      "stateMutability": "nonpayable",
      "type": "function"
    },
    {
      "inputs": [
        {
          "internalType": "bytes32",
          "name": "role",
          "type": "bytes32"
        },
        {
          "internalType": "address",
          "name": "account",
          "type": "address"
        }
      ],
      "name": "revokeRole",
      "outputs": [],
      "stateMutability": "nonpayable",
      "type": "function"
    },
    {
      "inputs": [
        {
          "internalType": "uint256[]",
          "name": "chainSelectors",
          "type": "uint256[]"
        },
        {
          "components": [
            {
              "internalType": "bytes32",
              "name": "lower",
              "type": "bytes32"
            },
            {
              "internalType": "bytes32",
              "name": "upper",
              "type": "bytes32"
            }
          ],
          "internalType": "struct bytes64[]",
          "name": "addresses",
          "type": "tuple[]"
        }
      ],
      "name": "setPeers",
      "outputs": [],
      "stateMutability": "nonpayable",
      "type": "function"
    },
    {
      "inputs": [
        {
          "internalType": "bytes4",
          "name": "interfaceId",
          "type": "bytes4"
        }
      ],
      "name": "supportsInterface",
      "outputs": [
        {
          "internalType": "bool",
          "name": "",
          "type": "bool"
        }
      ],
      "stateMutability": "view",
      "type": "function"
    },
    {
      "inputs": [
        {
          "internalType": "address",
          "name": "tokenOut",
          "type": "address"
        },
        {
          "internalType": "uint256",
          "name": "amountOutMin",
          "type": "uint256"
        },
        {
          "internalType": "uint256",
          "name": "deadline",
          "type": "uint256"
        },
        {
          "internalType": "uint256",
          "name": "destinationChainSelector",
          "type": "uint256"
        }
      ],
      "name": "swapETHToTokens",
      "outputs": [],
      "stateMutability": "payable",
      "type": "function"
    },
    {
      "inputs": [
        {
          "internalType": "address",
          "name": "tokenIn",
          "type": "address"
        },
        {
          "internalType": "uint256",
          "name": "amountIn",
          "type": "uint256"
        },
        {
          "internalType": "address",
          "name": "tokenOut",
          "type": "address"
        },
        {
          "internalType": "uint256",
          "name": "amountOutMin",
          "type": "uint256"
        },
        {
          "internalType": "uint256",
          "name": "deadline",
          "type": "uint256"
        },
        {
          "internalType": "uint256",
          "name": "destinationChainSelector",
          "type": "uint256"
        }
      ],
      "name": "swapTokensToTokens",
      "outputs": [],
      "stateMutability": "payable",
      "type": "function"
    },
    {
      "inputs": [
        {
          "internalType": "address",
          "name": "newOwner",
          "type": "address"
        }
      ],
      "name": "transferOwnership",
      "outputs": [],
      "stateMutability": "nonpayable",
      "type": "function"
    },
    {
      "inputs": [],
      "name": "unPause",
      "outputs": [],
      "stateMutability": "nonpayable",
      "type": "function"
    },
    {
      "inputs": [
        {
          "internalType": "address",
          "name": "newFactory",
          "type": "address"
        }
      ],
      "name": "updateFactory",
      "outputs": [],
      "stateMutability": "nonpayable",
      "type": "function"
    }
  ],
  "bytecode": "0x60a034620001c657601f620033ed38819003918201601f19168301926001600160401b0392909183851183861017620001cb578160609284926040978852833981010312620001c6576200005381620001e1565b6200006e846200006660208501620001e1565b9301620001e1565b92600154913315620001ae576001600160a81b0319831633600881811b610100600160a81b03169290921760015587516001600160a01b0396600096919388939192901c83167f8be0079c531659141344cd1fd0a4f28419497f9722a3daafe3b4186f6b6457e08880a3169081156200019f57509084916080528160018060a01b03199616866004541617600455168460055416176005558451906115f180830191838310908311176200018b5790829162001ddc8339039082f0908115620001805750169060035416176003556200014733620001f6565b50620001533362000298565b5051611ac390816200031982396080518181816104d601528181610866015281816110d601526117e70152f35b8451903d90823e3d90fd5b634e487b7160e01b84526041600452602484fd5b635008268360e01b8152600490fd5b8551631e4fbdf760e01b815260006004820152602490fd5b600080fd5b634e487b7160e01b600052604160045260246000fd5b51906001600160a01b0382168203620001c657565b6001600160a01b031660008181527f7d7ffb7a348e1c6a02869081a26547b49160dd3df72d1d75a570eb9b698292ec60205260408120549091907fa49807205ce4d355092ef5a8a18f56e8913cf4a201fbe287825b095693c217759060ff166200029357808352826020526040832082845260205260408320600160ff19825416179055600080516020620033cd833981519152339380a4600190565b505090565b6001600160a01b031660008181527fad3228b676f7d3cd4284a5443f17f1962b36e491b30a40b2405849e597ba5fb5602052604081205490919060ff166200031457818052816020526040822081835260205260408220600160ff198254161790553391600080516020620033cd8339815191528180a4600190565b509056fe608080604052600436101561001357600080fd5b600090813560e01c90816301ffc9a71461132457508063248a9ca3146112f85780632d2c5565146112d15780632f2ff15d1461129457806336568abe1461123457806346fc10f014610fc957806359a1aae114610ea35780635c975abb14610e8057806361ee103114610d98578063630dc7cb14610d7157806367ebb6b214610cc55780636ae0b15414610c3b578063715018a614610bce57806375b238fc14610b935780638456cb5914610b39578063879d182d146108215780638da5cb5b146107f757806391d14854146107ab578063a217fddf1461078f578063b89eb11d14610679578063be4f3e8f14610645578063c87c4a0114610328578063d547741f146102e7578063d9f165dc14610290578063f2fde38b146101c45763f7b188a51461013f57600080fd5b346101c157806003193601126101c157610157611594565b60015460ff8116156101975760ff19166001557f5db9ee0a495bf2e6ff9c91a7834c1ba4fdd244a5e8aa4e537bd38aeae4b073aa6020604051338152a180f35b60046040517f8dfc202b000000000000000000000000000000000000000000000000000000008152fd5b80fd5b50346101c15760203660031901126101c1576101de6113da565b6101e66118b1565b6001600160a01b0380821691821561025f5774ffffffffffffffffffffffffffffffffffffffff006001549160081b1674ffffffffffffffffffffffffffffffffffffffff001982161760015560081c167f8be0079c531659141344cd1fd0a4f28419497f9722a3daafe3b4186f6b6457e0600080a380f35b602484604051907f1e4fbdf70000000000000000000000000000000000000000000000000000000082526004820152fd5b50346101c15760203660031901126101c1576001600160a01b036102b26113da565b6102ba611594565b167fffffffffffffffffffffffff0000000000000000000000000000000000000000600654161760065580f35b50346101c15760403660031901126101c1576103246004356103076113c4565b908084528360205261031f60016040862001546115ce565b611673565b5080f35b5060c03660031901126101c15761033d6113da565b6103456113f0565b9061034e6116e9565b6003546040517f23b872dd000000000000000000000000000000000000000000000000000000006020820152336024808301919091526001600160a01b039092166044820152903560648083019190915281526103bf906103b060848261147a565b6001600160a01b03831661190c565b6040516370a0823160e01b81523060048201526020816024816001600160a01b0387165afa801561056a578490610611575b6103ff91506064359061149c565b60206001600160a01b0360a48160035416948760405196879485937fa1e8320900000000000000000000000000000000000000000000000000000000855216600484015260243560248401526001600160a01b0389166044840152606435606484015260843560848401525af191821561056a5784926105dd575b50604051906370a0823160e01b82523060048301526020826024816001600160a01b0388165afa9182156105d257859261059e575b50808210610575575050604051634e4bc84760e01b81526020816004816001600160a01b037f0000000000000000000000000000000000000000000000000000000000000000165afa90811561056a578491610533575b5060a4350361052657610523916001600160a01b03339116611855565b80f35b6105239160a4353361171f565b90506020813d602011610562575b8161054e6020938361147a565b8101031261055d575138610506565b600080fd5b3d9150610541565b6040513d86823e3d90fd5b604491610581916114bf565b6040519063d28d3eb560e01b825260048201526064356024820152fd5b9091506020813d6020116105ca575b816105ba6020938361147a565b8101031261055d575190386104af565b3d91506105ad565b6040513d87823e3d90fd5b9091506020813d602011610609575b816105f96020938361147a565b8101031261055d5751903861047a565b3d91506105ec565b506020813d60201161063d575b8161062b6020938361147a565b8101031261055d576103ff90516103f1565b3d915061061e565b50346101c15760203660031901126101c1576040809160043581526002602052206001815491015482519182526020820152f35b50346101c1578060031960603682011261078c5767ffffffffffffffff90600435828111610787576106af903690600401611406565b919092602435908111610783576106ca903690600401611406565b9190936106d56113f0565b916106de611501565b6001600160a01b0394856003541693843b1561077f57889661074c889461073d986040519b8c9a8b998a987fb89eb11d000000000000000000000000000000000000000000000000000000008a52606060048b015260648a01916114e0565b928784030160248801526114e0565b9116604483015203925af18015610774576107645750f35b61076d90611466565b6101c15780f35b6040513d84823e3d90fd5b8880fd5b8480fd5b505050fd5b50fd5b50346101c157806003193601126101c157602090604051908152f35b50346101c15760403660031901126101c1576001600160a01b0360406107cf6113c4565b92600435815280602052209116600052602052602060ff604060002054166040519015158152f35b50346101c157806003193601126101c15760206001600160a01b0360015460081c16604051908152f35b5036600319016101208112610ac357610100136101c1576101043567ffffffffffffffff8111610ac357610859903690600401611406565b906001600160a01b0390817f0000000000000000000000000000000000000000000000000000000000000000163303610b0957602435918285526020936002855284604087206040516108ab81611434565b6001825492838352015492839101526044351490811591610afc575b50156108f75760046040517f7fee69a1000000000000000000000000000000000000000000000000000000008152fd5b82606091810103126107835761097684610910846118f8565b94604061091e8387016118f8565b9501359584806005541691604051958694859384937fb464631b0000000000000000000000000000000000000000000000000000000085521660048401602090939291936001600160a01b0360408201951681520152565b03915afa908115610aa4578691610ac7575b50858260065416803b15610ac3576040517fc1bf9e580000000000000000000000000000000000000000000000000000000081526001600160a01b0384166004820152602481018790529082908290604490829084905af1801561077457610aaf575b5050604051937fdbceb005000000000000000000000000000000000000000000000000000000008552600485015260408460248173__$cee652c4e9f55bc124e1380243e2f45138$__5af4938415610aa45786958795610a65575b5050610523948280610a5b9316941684611855565b6004541690611855565b91945094506040853d604011610a9c575b81610a836040938361147a565b81010312610a98578451940151928482610a46565b8580fd5b3d9150610a76565b6040513d88823e3d90fd5b610ab890611466565b610a985785386109eb565b5080fd5b90508481813d8311610af5575b610ade818361147a565b81010312610a9857610aef906114cc565b38610988565b503d610ad4565b90506064351415386108c7565b60246040517fd7f73334000000000000000000000000000000000000000000000000000000008152336004820152fd5b50346101c157806003193601126101c157610b52611594565b610b5a6116e9565b600160ff19815416176001557f62e78cea01bee320cd4e420270b5ea74000d11b0c9f74754ebdbfc544b05a2586020604051338152a180f35b50346101c157806003193601126101c15760206040517fa49807205ce4d355092ef5a8a18f56e8913cf4a201fbe287825b095693c217758152f35b50346101c157806003193601126101c157610be76118b1565b60006001600160a01b0360015474ffffffffffffffffffffffffffffffffffffffff0019811660015560081c167f8be0079c531659141344cd1fd0a4f28419497f9722a3daafe3b4186f6b6457e08280a380f35b50346101c15760203660031901126101c157610c556113da565b610c5d611501565b816001600160a01b03806003541692833b15610cc1576024908360405195869485937f6ae0b1540000000000000000000000000000000000000000000000000000000085521660048401525af1801561077457610cb8575080f35b61052390611466565b8280fd5b50346101c15760203660031901126101c1576040600435918060208351610ceb81611434565b828152015282815260026020522060405190610d0682611434565b600181549182845201546020830191818352159081610d68575b50610d375760408093505191518252516020820152f35b602483604051907f78d0dbfc0000000000000000000000000000000000000000000000000000000082526004820152fd5b90501538610d20565b50346101c157806003193601126101c15760206001600160a01b0360035416604051908152f35b50346101c15760603660031901126101c157610db26113c4565b60646040610dbe6113f0565b926001600160a01b03928391826003541683855197889586947f61ee103100000000000000000000000000000000000000000000000000000000865260043560048701521660248501521660448301525afa8015610e755783928491610e31575b50604080945051928352166020820152f35b9250506040823d604011610e6d575b81610e4d6040938361147a565b81010312610cc15760409250610e676020835193016114cc565b38610e1f565b3d9150610e40565b6040513d85823e3d90fd5b50346101c157806003193601126101c157602060ff600154166040519015158152f35b50346101c15760403660031901126101c15767ffffffffffffffff600435818111610cc15736602382011215610cc157806004013591808311610fc55760249160059136848660051b84010111610a9857833590808211610fc15736602383011215610fc1578160040135908111610fc15760069036868260061b85010111610fbd57610f2e6118b1565b610f366118b1565b808703610f9357875b878110610f4a578880f35b81811015610f805780861b8501870135895260026020526040892081841b85018881013582556044013560019182015501610f3f565b8689634e487b7160e01b81526032600452fd5b60046040517f947d5a84000000000000000000000000000000000000000000000000000000008152fd5b8780fd5b8680fd5b8380fd5b5060803660031901126101c157610fde6113da565b8160243591606435610fee6116e9565b6001600160a01b039384831694604051916370a0823160e01b80845230600485015260209384816024818c5afa801561122957839089906111f8575b611034925061149c565b84846003541660848b6040519b8c9384927fa6b97e27000000000000000000000000000000000000000000000000000000008452346004850152602484015288604484015260443560648401525af19788156111be578a986111c9575b5060405191825230600483015284826024818c5afa9182156111be578a9261118b575b50808210611163575050508160049160405192838092634e4bc84760e01b82527f0000000000000000000000000000000000000000000000000000000000000000165afa9081156111585783928892611127575b50500361111c575050610523913390611855565b61052393503361171f565b8193508092503d8311611151575b61113f818361147a565b81010312610a98578190513880611108565b503d611135565b6040513d89823e3d90fd5b60449291611170916114bf565b906040519163d28d3eb560e01b835260048301526024820152fd5b9091508481813d83116111b7575b6111a3818361147a565b810103126111b3575190386110b4565b8980fd5b503d611199565b6040513d8c823e3d90fd5b9097508481813d83116111f1575b6111e1818361147a565b810103126111b357519638611091565b503d6111d7565b50508481813d8311611222575b61120f818361147a565b81010312610fbd5782611034915161102a565b503d611205565b6040513d8a823e3d90fd5b50346101c15760403660031901126101c15761124e6113c4565b336001600160a01b0382160361126a5761032490600435611673565b60046040517f6697b232000000000000000000000000000000000000000000000000000000008152fd5b50346101c15760403660031901126101c1576103246004356112b46113c4565b90808452836020526112cc60016040862001546115ce565b6115f4565b50346101c157806003193601126101c15760206001600160a01b0360045416604051908152f35b50346101c15760203660031901126101c157600160406020926004358152808452200154604051908152f35b905034610ac3576020366003190112610ac3576004357fffffffff000000000000000000000000000000000000000000000000000000008116809103610cc157602092507f7965db0b00000000000000000000000000000000000000000000000000000000811490811561139a575b5015158152f35b7f01ffc9a70000000000000000000000000000000000000000000000000000000091501438611393565b602435906001600160a01b038216820361055d57565b600435906001600160a01b038216820361055d57565b604435906001600160a01b038216820361055d57565b9181601f8401121561055d5782359167ffffffffffffffff831161055d576020838186019501011161055d57565b6040810190811067ffffffffffffffff82111761145057604052565b634e487b7160e01b600052604160045260246000fd5b67ffffffffffffffff811161145057604052565b90601f8019910116810190811067ffffffffffffffff82111761145057604052565b919082018092116114a957565b634e487b7160e01b600052601160045260246000fd5b919082039182116114a957565b51906001600160a01b038216820361055d57565b908060209392818452848401376000828201840152601f01601f1916010190565b3360009081527f7d7ffb7a348e1c6a02869081a26547b49160dd3df72d1d75a570eb9b698292ec60205260409020547fa49807205ce4d355092ef5a8a18f56e8913cf4a201fbe287825b095693c217759060ff161561155d5750565b604490604051907fe2517d3f0000000000000000000000000000000000000000000000000000000082523360048301526024820152fd5b3360009081527fad3228b676f7d3cd4284a5443f17f1962b36e491b30a40b2405849e597ba5fb5602052604081205460ff161561155d5750565b80600052600060205260406000203360005260205260ff604060002054161561155d5750565b90600091808352826020526001600160a01b036040842092169182845260205260ff6040842054161560001461166e57808352826020526040832082845260205260408320600160ff198254161790557f2f8788117e7eff1d82e926ec794901d17c78024a50270940304540a733656f0d339380a4600190565b505090565b90600091808352826020526001600160a01b036040842092169182845260205260ff60408420541660001461166e5780835282602052604083208284526020526040832060ff1981541690557ff6391f5c32d9c69d2a47ea670b442974b53935d1edc7fd64eb21e047a839171b339380a4600190565b60ff600154166116f557565b60046040517fd93c0665000000000000000000000000000000000000000000000000000000008152fd5b604080516001600160a01b0394851660208083019190915292909416908401526060808401949094529282529091906001908290601f1961176160808761147a565b6000958287526002845260408720926040519586947fdc2031370000000000000000000000000000000000000000000000000000000086528054600487015201546024850152604484015260806064840152805190816084850152875b82811061183d57505060a491601f82898587958601015201168101030181346001600160a01b037f0000000000000000000000000000000000000000000000000000000000000000165af18015610e755761181857505050565b813d8311611836575b61182b818361147a565b810103126101c15750565b503d611821565b81810186015187820160a401528795879550016117be565b6040517fa9059cbb0000000000000000000000000000000000000000000000000000000060208201526001600160a01b039290921660248301526044808301939093529181526118af916118aa60648361147a565b61190c565b565b6001600160a01b0360015460081c1633036118c857565b60246040517f118cdaa7000000000000000000000000000000000000000000000000000000008152336004820152fd5b35906001600160a01b038216820361055d57565b6001600160a01b031690600080826020829451910182865af13d156119ee573d9067ffffffffffffffff82116119da579061196991604051916119596020601f19601f840116018461147a565b82523d84602084013e5b846119fa565b9081519182151592836119b2575b5050506119815750565b602490604051907f5274afe70000000000000000000000000000000000000000000000000000000082526004820152fd5b819293509060209181010312610ac35760200151908115918215036101c15750388080611977565b602483634e487b7160e01b81526041600452fd5b61196990606090611963565b90611a395750805115611a0f57805190602001fd5b60046040517f1425ea42000000000000000000000000000000000000000000000000000000008152fd5b81511580611a84575b611a4a575090565b6024906001600160a01b03604051917f9996b315000000000000000000000000000000000000000000000000000000008352166004820152fd5b50803b15611a4256fea2646970667358221220d29b39ec66f2b5921ae761a5ab9df47fcf8c77aa24f718b98c7d49ff4d31bf7c64736f6c6343000818003360806040523461002c5761001233610031565b5061001c336100d1565b5060405161148190816101508239f35b600080fd5b6001600160a01b031660008181527f7d7ffb7a348e1c6a02869081a26547b49160dd3df72d1d75a570eb9b698292ec60205260408120549091907fa49807205ce4d355092ef5a8a18f56e8913cf4a201fbe287825b095693c217759060ff166100cc57808352826020526040832082845260205260408320600160ff198254161790556000805160206115d1833981519152339380a4600190565b505090565b6001600160a01b031660008181527fad3228b676f7d3cd4284a5443f17f1962b36e491b30a40b2405849e597ba5fb5602052604081205490919060ff1661014b57818052816020526040822081835260205260408220600160ff1982541617905533916000805160206115d18339815191528180a4600190565b509056fe608060408181526004908136101561001657600080fd5b600092833560e01c90816301ffc9a714610cc557508063248a9ca314610c9b5780632f2ff15d14610c7357806336568abe14610c1357806361ee103114610bcd5780636ae0b15414610ab65780636ee4035d14610a7457806375b238fc14610a3957806380dd9a1f146109d15780638369166d1461093057806391d14854146108eb578063a1e8320914610759578063a217fddf1461073e578063a5be5f7a1461071f578063a6b97e271461042f578063b89eb11d1461011f5763d547741f146100df57600080fd5b3461011b578060031936011261011b5761011791356101126001610101610d64565b9383875286602052862001546111f1565b611296565b5080f35b8280fd5b5082903461042b57606036600319011261042b5767ffffffffffffffff908335828111610427576101539036908601610f87565b602493919335828111610423576101706101a09136908901610f87565b61019761017b610d7f565b9761018461115e565b87519561019087610e32565b3691611117565b84523691611117565b916020918281019384526001600160a01b038616875260019485845287209051908151838111610410579086916101d78254610df8565b93601f948581116103e4575b5086908583116001146103825761021292918c9183610377575b50508160011b916000199060031b1c19161790565b81555b0193519283519283116103645761022c8554610df8565b82811161032e575b50809183116001146102cd575081906102629388926102c25750508160011b916000199060031b1c19161790565b90555b60025490680100000000000000008210156102af578161028d916102ac949301600255610dab565b9091906001600160a01b038084549260031b9316831b921b1916179055565b80f35b602484604187634e487b7160e01b835252fd5b0151905088806101fd565b908593601f198416868a52838a20938a905b82821061031557505084116102fc575b505050811b019055610265565b015160001960f88460031b161c191690558780806102ef565b84840151865589979095019493840193908101906102df565b61035590868a52828a208480870160051c82019285881061035b575b0160051c0190610fb5565b89610234565b9250819261034a565b60248860418b634e487b7160e01b835252fd5b015190508d806101fd565b838c52878c209190601f1984168d5b8a8282106103ce57505090848795949392106103b5575b505050811b018155610215565b015160001960f88460031b161c191690558c80806103a8565b8385015186558d98909501949384019301610391565b61040a90848d52888d208780860160051c8201928b871061035b570160051c0190610fb5565b8c6101e3565b60248960418c634e487b7160e01b835252fd5b8580fd5b8380fd5b5080fd5b5082608036600319011261071c578235610447610d64565b60449160443590849285938695600290600254916001600160a01b03809516985b83811061060a57505050508381106105ee5750865163095ea7b360e01b81526001600160a01b038516818a019081526020818101859052908290819060400103818a805af180156105e45791879593916105309795936105b5575b508851946104d086610e64565b6002865289366020880137866104e58761102d565b526104ef8661103a565b5288518097819682957f7ff36ab50000000000000000000000000000000000000000000000000000000084528d8401526080602484015260848301906110da565b33604483015260643560648301520393165af19081156105ab578291610589575b5080516000198101929083116105765760208461056e858561104a565b519051908152f35b80601186634e487b7160e01b6024945252fd5b6105a591503d8084833e61059d8183610e80565b81019061105e565b84610551565b83513d84823e3d90fd5b6105d69060203d6020116105dd575b6105ce8183610e80565b810190611015565b508a6104c3565b503d6105c4565b88513d89823e3d90fd5b88846044928a519263d28d3eb560e01b84528301526024820152fd5b8c8c805161061781610e64565b848152813660208301378d61062b8261102d565b528c6106368261103a565b528d868a8c61064488610dab565b92905460039861067289519889978896879463d06ca61f60e01b865285015260249b8c8501528301906110da565b0393891b1c165afa908115610711578e80926106f6575b505080516000198101929083116106e257508f95949392916106aa9161104a565b518781116106c1575b505060010190919250610468565b6001929b5088919750966106d48c610dab565b9054911b1c1699908f6106b3565b90508f60118f91634e487b7160e01b835252fd5b61070a92503d8091833e61059d8183610e80565b388e610689565b508e513d8f823e3d90fd5b80fd5b83823461042b578160031936011261042b576020906002549051908152f35b83823461042b578160031936011261042b5751908152602090f35b508260a036600319011261071c5761076f610d95565b60243561077a610d7f565b916064359161078a84838361130c565b92908481106108cf57506001600160a01b0380911694826020858b6107d68c51948593849363095ea7b360e01b85528401602090939291936001600160a01b0360408201951681520152565b03818b8b5af180156108c5579188969594939187936108a6575b508951976107fd89610e64565b600289528a3660208b01376108118961102d565b528161081c8961103a565b91169052896108698a51988997889687947f38ed1739000000000000000000000000000000000000000000000000000000008652850152602484015260a0604484015260a48301906110da565b33606483015260843560848301520393165af19081156105ab578291610589575080516000198101929083116105765760208461056e858561104a565b6108be9060203d6020116105dd576105ce8183610e80565b508b6107f0565b89513d8a823e3d90fd5b88856044928a519263d28d3eb560e01b84528301526024820152fd5b50903461011b578160031936011261011b578160209360ff9261090c610d64565b903582528186526001600160a01b0383832091168252855220541690519015158152f35b50823461071c576020908160031936011261071c57826109cd916001600160a01b0361095a610d95565b606086855161096881610e32565b8281520152168152600184522091836109ba61099c600183519661098b88610e32565b61099481610ea2565b885201610ea2565b92808601938452825196879682885251918701526060860190610f47565b915190601f198584030190850152610f47565b0390f35b83823461042b57602036600319011261042b5780916001600160a01b036109f6610d95565b168152600160205220906109cd610a186001610a1185610ea2565b9401610ea2565b610a2b8351948486958652850190610f47565b908382036020850152610f47565b83823461042b578160031936011261042b57602090517fa49807205ce4d355092ef5a8a18f56e8913cf4a201fbe287825b095693c217758152f35b50903461011b57602036600319011261011b57359160025483101561071c57506001600160a01b03610aa7602093610dab565b92905490519260031b1c168152f35b503461011b57602036600319011261011b57600191610ad3610d95565b90610adc61115e565b6001600160a01b03809216808652610b05858695816020528820610aff81610fcc565b01610fcc565b85945b610b10578580f35b600280549081871015610bc757849183610b2989610dab565b949054600395861b1c1614610b45575050508380950194610b08565b93925094509460001992838101908111610bb4579061028d85610b6a610b7794610dab565b9054908a1b1c1691610dab565b8354908115610ba157500192610b8c84610dab565b81939154921b1b191690555538808080808580f35b866031602492634e487b7160e01b835252fd5b602488601185634e487b7160e01b835252fd5b50508580f35b50913461071c57606036600319011261071c5750610c046001600160a01b0391610bf5610d64565b610bfd610d7f565b913561130c565b83519182529091166020820152f35b5082903461042b578060031936011261042b57610c2e610d64565b90336001600160a01b03831603610c4b5750610117919235611296565b8390517f6697b232000000000000000000000000000000000000000000000000000000008152fd5b503461011b578060031936011261011b576101179135610c966001610101610d64565b611217565b50903461011b57602036600319011261011b57816020936001923581528085522001549051908152f35b8490843461011b57602036600319011261011b57357fffffffff00000000000000000000000000000000000000000000000000000000811680910361011b57602092507f7965db0b000000000000000000000000000000000000000000000000000000008114908115610d3a575b5015158152f35b7f01ffc9a70000000000000000000000000000000000000000000000000000000091501483610d33565b602435906001600160a01b0382168203610d7a57565b600080fd5b604435906001600160a01b0382168203610d7a57565b600435906001600160a01b0382168203610d7a57565b600254811015610de25760026000527f405787fa12a823e0f2b7631cc41b3ba8828b3321ca811111fa75cd3aa3bb5ace0190600090565b634e487b7160e01b600052603260045260246000fd5b90600182811c92168015610e28575b6020831014610e1257565b634e487b7160e01b600052602260045260246000fd5b91607f1691610e07565b6040810190811067ffffffffffffffff821117610e4e57604052565b634e487b7160e01b600052604160045260246000fd5b6060810190811067ffffffffffffffff821117610e4e57604052565b90601f8019910116810190811067ffffffffffffffff821117610e4e57604052565b90604051918260008254610eb581610df8565b90818452602094600191600181169081600014610f255750600114610ee6575b505050610ee492500383610e80565b565b600090815285812095935091905b818310610f0d575050610ee49350820101388080610ed5565b85548884018501529485019487945091830191610ef4565b92505050610ee494925060ff191682840152151560051b820101388080610ed5565b919082519283825260005b848110610f73575050826000602080949584010152601f8019910116010190565b602081830181015184830182015201610f52565b9181601f84011215610d7a5782359167ffffffffffffffff8311610d7a5760208381860195010111610d7a57565b818110610fc0575050565b60008155600101610fb5565b610fd68154610df8565b9081610fe0575050565b81601f60009311600114610ff2575055565b908083918252611011601f60208420940160051c840160018501610fb5565b5555565b90816020910312610d7a57518015158103610d7a5790565b805115610de25760200190565b805160011015610de25760400190565b8051821015610de25760209160051b010190565b906020908183820312610d7a57825167ffffffffffffffff93848211610d7a570181601f82011215610d7a578051938411610e4e578360051b90604051946110a885840187610e80565b85528380860192820101928311610d7a578301905b8282106110cb575050505090565b815181529083019083016110bd565b90815180825260208080930193019160005b8281106110fa575050505090565b83516001600160a01b0316855293810193928101926001016110ec565b92919267ffffffffffffffff8211610e4e5760405191611141601f8201601f191660200184610e80565b829481845281830111610d7a578281602093846000960137010152565b3360009081527f7d7ffb7a348e1c6a02869081a26547b49160dd3df72d1d75a570eb9b698292ec60205260409020547fa49807205ce4d355092ef5a8a18f56e8913cf4a201fbe287825b095693c217759060ff16156111ba5750565b604490604051907fe2517d3f0000000000000000000000000000000000000000000000000000000082523360048301526024820152fd5b80600052600060205260406000203360005260205260ff60406000205416156111ba5750565b90600091808352826020526001600160a01b036040842092169182845260205260ff6040842054161560001461129157808352826020526040832082845260205260408320600160ff198254161790557f2f8788117e7eff1d82e926ec794901d17c78024a50270940304540a733656f0d339380a4600190565b505090565b90600091808352826020526001600160a01b036040842092169182845260205260ff6040842054166000146112915780835282602052604083208284526020526040832060ff1981541690557ff6391f5c32d9c69d2a47ea670b442974b53935d1edc7fd64eb21e047a839171b339380a4600190565b600280546000959486949192855b84811061132b575050505050509190565b600060408781519161133c83610e64565b8583528036602085013761134f8361102d565b926001600160a01b0393848a1690526113678161103a565b84891690528361137687610dab565b96905460039785518094819363d06ca61f60e01b83526004998a840152826113a96024998b8b84015260448301906110da565b03938c1b1c165afa9283156114415750600092611426575b508151600019810193908411611413575050906113dd9161104a565b518981116113f1575b50505060010161131a565b909198506001929a50976114048b610dab565b9054911b1c16989038806113e6565b601190634e487b7160e01b600052526000fd5b61143a91923d8091833e61059d8183610e80565b90386113c1565b513d6000823e3d90fdfea264697066735822122057bcf4d44ba8f848009b8a6b5a061958e16717d8ae4aa8171d6a408f9857297e64736f6c634300081800332f8788117e7eff1d82e926ec794901d17c78024a50270940304540a733656f0d2f8788117e7eff1d82e926ec794901d17c78024a50270940304540a733656f0d",
  "linkReferences": {
    "contracts/src/lib/HoneyFeeMath.sol": {
      "HoneyFeeMath": [
        {
          "length": 20,
          "start": 3386
        }
      ]
    }
  },
  "deployedLinkReferences": {
    "contracts/src/lib/HoneyFeeMath.sol": {
      "HoneyFeeMath": [
        {
          "length": 20,
          "start": 2593
        }
      ]
    }
  }
}