{
  "_format": "hh-sol-artifact-1",
  "contractName": "HoneyFactory",
  "sourceName": "contracts/src/HoneyFactory.sol",
  "abi": [
    {
      "inputs": [
        {
          "internalType": "address",
          "name": "_tokenMap",
          "type": "address"
        },
        {
          "internalType": "address",
          "name": "_router",
          "type": "address"
        }
      ],
      "stateMutability": "nonpayable",
      "type": "constructor"
    },
    {
      "inputs": [],
      "name": "AccessControlBadConfirmation",
      "type": "error"
    },
    {
      "inputs": [
        {
          "internalType": "address",
          "name": "account",
          "type": "address"
        },
        {
          "internalType": "bytes32",
          "name": "neededRole",
          "type": "bytes32"
        }
      ],
      "name": "AccessControlUnauthorizedAccount",
      "type": "error"
    },
    {
      "inputs": [],
      "name": "AlreadyExists",
      "type": "error"
    },
    {
      "inputs": [],
      "name": "InvalidLength",
      "type": "error"
    },
    {
      "inputs": [],
      "name": "InvalidMessageSender",
      "type": "error"
    },
    {
      "inputs": [
        {
          "internalType": "uint256",
          "name": "chainSelector",
          "type": "uint256"
        }
      ],
      "name": "InvalidPeer",
      "type": "error"
    },
    {
      "inputs": [
        {
          "internalType": "address",
          "name": "router",
          "type": "address"
        }
      ],
      "name": "InvalidRouter",
      "type": "error"
    },
    {
      "inputs": [],
      "name": "NotCreated",
      "type": "error"
    },
    {
      "inputs": [
        {
          "internalType": "address",
          "name": "owner",
          "type": "address"
        }
      ],
      "name": "OwnableInvalidOwner",
      "type": "error"
    },
    {
      "inputs": [
        {
          "internalType": "address",
          "name": "account",
          "type": "address"
        }
      ],
      "name": "OwnableUnauthorizedAccount",
      "type": "error"
    },
    {
      "inputs": [],
      "name": "RouterAddressCannotBeZero",
      "type": "error"
    },
    {
      "anonymous": false,
      "inputs": [
        {
          "indexed": true,
          "internalType": "address",
          "name": "previousOwner",
          "type": "address"
        },
        {
          "indexed": true,
          "internalType": "address",
          "name": "newOwner",
          "type": "address"
        }
      ],
      "name": "OwnershipTransferred",
      "type": "event"
    },
    {
      "anonymous": false,
      "inputs": [
        {
          "indexed": false,
          "internalType": "uint256",
          "name": "sourceChainSelector",
          "type": "uint256"
        },
        {
          "indexed": false,
          "internalType": "address",
          "name": "receiver",
          "type": "address"
        },
        {
          "indexed": false,
          "internalType": "uint256",
          "name": "amount",
          "type": "uint256"
        }
      ],
      "name": "ReleasedTokens",
      "type": "event"
    },
    {
      "anonymous": false,
      "inputs": [
        {
          "indexed": true,
          "internalType": "bytes32",
          "name": "role",
          "type": "bytes32"
        },
        {
          "indexed": true,
          "internalType": "bytes32",
          "name": "previousAdminRole",
          "type": "bytes32"
        },
        {
          "indexed": true,
          "internalType": "bytes32",
          "name": "newAdminRole",
          "type": "bytes32"
        }
      ],
      "name": "RoleAdminChanged",
      "type": "event"
    },
    {
      "anonymous": false,
      "inputs": [
        {
          "indexed": true,
          "internalType": "bytes32",
          "name": "role",
          "type": "bytes32"
        },
        {
          "indexed": true,
          "internalType": "address",
          "name": "account",
          "type": "address"
        },
        {
          "indexed": true,
          "internalType": "address",
          "name": "sender",
          "type": "address"
        }
      ],
      "name": "RoleGranted",
      "type": "event"
    },
    {
      "anonymous": false,
      "inputs": [
        {
          "indexed": true,
          "internalType": "bytes32",
          "name": "role",
          "type": "bytes32"
        },
        {
          "indexed": true,
          "internalType": "address",
          "name": "account",
          "type": "address"
        },
        {
          "indexed": true,
          "internalType": "address",
          "name": "sender",
          "type": "address"
        }
      ],
      "name": "RoleRevoked",
      "type": "event"
    },
    {
      "inputs": [],
      "name": "DEFAULT_ADMIN_ROLE",
      "outputs": [
        {
          "internalType": "bytes32",
          "name": "",
          "type": "bytes32"
        }
      ],
      "stateMutability": "view",
      "type": "function"
    },
    {
      "inputs": [],
      "name": "HONEY_ROUTER_ROLE",
      "outputs": [
        {
          "internalType": "bytes32",
          "name": "",
          "type": "bytes32"
        }
      ],
      "stateMutability": "view",
      "type": "function"
    },
    {
      "inputs": [
        {
          "internalType": "address",
          "name": "honeyRouter",
          "type": "address"
        }
      ],
      "name": "addRouter",
      "outputs": [],
      "stateMutability": "nonpayable",
      "type": "function"
    },
    {
      "inputs": [
        {
          "internalType": "address",
          "name": "token",
          "type": "address"
        }
      ],
      "name": "createPool",
      "outputs": [],
      "stateMutability": "nonpayable",
      "type": "function"
    },
    {
      "inputs": [
        {
          "internalType": "address",
          "name": "receiver",
          "type": "address"
        },
        {
          "internalType": "uint256",
          "name": "destinationChainSelector",
          "type": "uint256"
        },
        {
          "internalType": "address",
          "name": "token",
          "type": "address"
        },
        {
          "internalType": "uint256",
          "name": "amount",
          "type": "uint256"
        }
      ],
      "name": "crossChainCall",
      "outputs": [],
      "stateMutability": "payable",
      "type": "function"
    },
    {
      "inputs": [],
      "name": "getEquitoFee",
      "outputs": [
        {
          "internalType": "uint256",
          "name": "",
          "type": "uint256"
        }
      ],
      "stateMutability": "view",
      "type": "function"
    },
    {
      "inputs": [
        {
          "internalType": "uint256",
          "name": "chainSelector",
          "type": "uint256"
        }
      ],
      "name": "getPeer",
      "outputs": [
        {
          "components": [
            {
              "internalType": "bytes32",
              "name": "lower",
              "type": "bytes32"
            },
            {
              "internalType": "bytes32",
              "name": "upper",
              "type": "bytes32"
            }
          ],
          "internalType": "struct bytes64",
          "name": "",
          "type": "tuple"
        }
      ],
      "stateMutability": "view",
      "type": "function"
    },
    {
      "inputs": [
        {
          "internalType": "address",
          "name": "token",
          "type": "address"
        }
      ],
      "name": "getPool",
      "outputs": [
        {
          "internalType": "address",
          "name": "",
          "type": "address"
        }
      ],
      "stateMutability": "view",
      "type": "function"
    },
    {
      "inputs": [
        {
          "internalType": "bytes32",
          "name": "role",
          "type": "bytes32"
        }
      ],
      "name": "getRoleAdmin",
      "outputs": [
        {
          "internalType": "bytes32",
          "name": "",
          "type": "bytes32"
        }
      ],
      "stateMutability": "view",
      "type": "function"
    },
    {
      "inputs": [
        {
          "internalType": "bytes32",
          "name": "role",
          "type": "bytes32"
        },
        {
          "internalType": "address",
          "name": "account",
          "type": "address"
        }
      ],
      "name": "grantRole",
      "outputs": [],
      "stateMutability": "nonpayable",
      "type": "function"
    },
    {
      "inputs": [
        {
          "internalType": "bytes32",
          "name": "role",
          "type": "bytes32"
        },
        {
          "internalType": "address",
          "name": "account",
          "type": "address"
        }
      ],
      "name": "hasRole",
      "outputs": [
        {
          "internalType": "bool",
          "name": "",
          "type": "bool"
        }
      ],
      "stateMutability": "view",
      "type": "function"
    },
    {
      "inputs": [],
      "name": "owner",
      "outputs": [
        {
          "internalType": "address",
          "name": "",
          "type": "address"
        }
      ],
      "stateMutability": "view",
      "type": "function"
    },
    {
      "inputs": [
        {
          "internalType": "uint256",
          "name": "",
          "type": "uint256"
        }
      ],
      "name": "peers",
      "outputs": [
        {
          "internalType": "bytes32",
          "name": "lower",
          "type": "bytes32"
        },
        {
          "internalType": "bytes32",
          "name": "upper",
          "type": "bytes32"
        }
      ],
      "stateMutability": "view",
      "type": "function"
    },
    {
      "inputs": [
        {
          "components": [
            {
              "internalType": "uint256",
              "name": "blockNumber",
              "type": "uint256"
            },
            {
              "internalType": "uint256",
              "name": "sourceChainSelector",
              "type": "uint256"
            },
            {
              "components": [
                {
                  "internalType": "bytes32",
                  "name": "lower",
                  "type": "bytes32"
                },
                {
                  "internalType": "bytes32",
                  "name": "upper",
                  "type": "bytes32"
                }
              ],
              "internalType": "struct bytes64",
              "name": "sender",
              "type": "tuple"
            },
            {
              "internalType": "uint256",
              "name": "destinationChainSelector",
              "type": "uint256"
            },
            {
              "components": [
                {
                  "internalType": "bytes32",
                  "name": "lower",
                  "type": "bytes32"
                },
                {
                  "internalType": "bytes32",
                  "name": "upper",
                  "type": "bytes32"
                }
              ],
              "internalType": "struct bytes64",
              "name": "receiver",
              "type": "tuple"
            },
            {
              "internalType": "bytes32",
              "name": "hashedData",
              "type": "bytes32"
            }
          ],
          "internalType": "struct EquitoMessage",
          "name": "message",
          "type": "tuple"
        },
        {
          "internalType": "bytes",
          "name": "messageData",
          "type": "bytes"
        }
      ],
      "name": "receiveMessage",
      "outputs": [],
      "stateMutability": "payable",
      "type": "function"
    },
    {
      "inputs": [
        {
          "internalType": "address",
          "name": "honeyRouter",
          "type": "address"
        }
      ],
      "name": "removeRouter",
      "outputs": [],
      "stateMutability": "nonpayable",
      "type": "function"
    },
    {
      "inputs": [],
      "name": "renounceOwnership",
      "outputs": [],
      "stateMutability": "nonpayable",
      "type": "function"
    },
    {
      "inputs": [
        {
          "internalType": "bytes32",
          "name": "role",
          "type": "bytes32"
        },
        {
          "internalType": "address",
          "name": "callerConfirmation",
          "type": "address"
        }
      ],
      "name": "renounceRole",
      "outputs": [],
      "stateMutability": "nonpayable",
      "type": "function"
    },
    {
      "inputs": [
        {
          "internalType": "bytes32",
          "name": "role",
          "type": "bytes32"
        },
        {
          "internalType": "address",
          "name": "account",
          "type": "address"
        }
      ],
      "name": "revokeRole",
      "outputs": [],
      "stateMutability": "nonpayable",
      "type": "function"
    },
    {
      "inputs": [
        {
          "internalType": "uint256[]",
          "name": "chainSelectors",
          "type": "uint256[]"
        },
        {
          "components": [
            {
              "internalType": "bytes32",
              "name": "lower",
              "type": "bytes32"
            },
            {
              "internalType": "bytes32",
              "name": "upper",
              "type": "bytes32"
            }
          ],
          "internalType": "struct bytes64[]",
          "name": "addresses",
          "type": "tuple[]"
        }
      ],
      "name": "setPeers",
      "outputs": [],
      "stateMutability": "nonpayable",
      "type": "function"
    },
    {
      "inputs": [
        {
          "internalType": "bytes4",
          "name": "interfaceId",
          "type": "bytes4"
        }
      ],
      "name": "supportsInterface",
      "outputs": [
        {
          "internalType": "bool",
          "name": "",
          "type": "bool"
        }
      ],
      "stateMutability": "view",
      "type": "function"
    },
    {
      "inputs": [
        {
          "internalType": "address",
          "name": "newOwner",
          "type": "address"
        }
      ],
      "name": "transferOwnership",
      "outputs": [],
      "stateMutability": "nonpayable",
      "type": "function"
    },
    {
      "inputs": [],
      "name": "weth",
      "outputs": [
        {
          "internalType": "address",
          "name": "",
          "type": "address"
        }
      ],
      "stateMutability": "pure",
      "type": "function"
    },
    {
      "inputs": [
        {
          "internalType": "address",
          "name": "token",
          "type": "address"
        },
        {
          "internalType": "uint256",
          "name": "amount",
          "type": "uint256"
        }
      ],
      "name": "withdrawFromPool",
      "outputs": [],
      "stateMutability": "nonpayable",
      "type": "function"
    }
  ],
  "bytecode": "0x60a0346200011f57601f6200432e38819003918201601f19168301916001600160401b03831184841017620001245780849260409485528339810103126200011f576200005a602062000052836200013a565b92016200013a565b90331562000106576000549060018060a01b03918260018060a01b031994338684161760005560405192823391167f8be0079c531659141344cd1fd0a4f28419497f9722a3daafe3b4186f6b6457e0600080a316908115620000f7575060805216906004541617600455620000cf336200014f565b5060405161414c9081620001e28239608051818181610544015281816108300152610d210152f35b635008268360e01b8152600490fd5b604051631e4fbdf760e01b815260006004820152602490fd5b600080fd5b634e487b7160e01b600052604160045260246000fd5b51906001600160a01b03821682036200011f57565b6001600160a01b031660008181527fac33ff75c19e70fe83507db0d683fd3465c996598dc972688b7ace676c89077b602052604081205490919060ff16620001dd5781805260026020526040822081835260205260408220600160ff1982541617905533917f2f8788117e7eff1d82e926ec794901d17c78024a50270940304540a733656f0d8180a4600190565b509056fe608060408181526004803610156200001657600080fd5b600092833560e01c90816301ffc9a7146200103957508063248a9ca3146200100d57806324ca984e1462000fdb5780632ef3f1a51462000f9e5780632f2ff15d1462000f6e57806336568abe1462000f075780633fc8cef31462000ed657806359a1aae11462000da55780635c42132e1462000cd257806367ebb6b21462000c215780636ae0b1541462000bef578063715018a61462000b85578063879d182d14620007d05780638da5cb5b14620007a85780639049f9d2146200064857806391d1485414620005fe578063a217fddf14620005e1578063a628b47f1462000455578063bbe4f6db14620003da578063be4f3e8f14620003a7578063c1bf9e581462000238578063d547741f14620001f15763f2fde38b146200013857600080fd5b34620001ed576020366003190112620001ed5762000155620010dd565b90620001606200144d565b6001600160a01b03809216928315620001be5750506000548273ffffffffffffffffffffffffffffffffffffffff19821617600055167f8be0079c531659141344cd1fd0a4f28419497f9722a3daafe3b4186f6b6457e0600080a380f35b908460249251917f1e4fbdf7000000000000000000000000000000000000000000000000000000008352820152fd5b8280fd5b509034620001ed5780600319360112620001ed576200023491356200022e60016200021b620010f4565b93838752600260205286200154620011cf565b620013d4565b5080f35b50829034620003a35782600319360112620003a35762000257620010dd565b926024357f0a775b33f9a8a1bd7919099707cfe9320f63c8a6cd38fa171b61aacb968ce641806000526002602052826000203360005260205260ff8360002054161562000386575083946001600160a01b0380911673eeeeeeeeeeeeeeeeeeeeeeeeeeeeeeeeeeeeeeee9081811460001462000344575085526003602052828520541692833b1562000340578251627b8a6760e11b81529081019182523360208301529284918491908290849082906040015b03925af19081156200033757506200032157505080f35b6200032c906200113e565b620003345780f35b80fd5b513d84823e3d90fd5b8480fd5b8652506003602052828520541692833b1562000340578251627b8a6760e11b81529081019182523360208301529284918491908290849082906040016200030a565b8360449184519163e2517d3f60e01b835233908301526024820152fd5b5080fd5b5034620001ed576020366003190112620001ed579181923581526001602052206001815491015482519182526020820152f35b5034620001ed576020366003190112620001ed576001600160a01b03908162000402620010dd565b16908185526003602052828486205416156200042e575083839160209552600385522054169051908152f35b83517f8fead4d2000000000000000000000000000000000000000000000000000000008152fd5b506080366003190112620001ed576200046d620010dd565b91602435604435936001600160a01b0391828616809603620005dc57828451926020978885015216848301526064356060830152606082526080820182811067ffffffffffffffff821117620005c75791869391959285528588526001845284882095600186519788957fdc20313700000000000000000000000000000000000000000000000000000000875281549087015201546024850152604484015260806064840152805190816084850152885b828110620005ae57505060a483828a83839584010152601f8019910116810103019134907f0000000000000000000000000000000000000000000000000000000000000000165af1908115620005a5575062000578578280f35b813d83116200059d575b6200058e818362001153565b81010312620003345738808280f35b503d62000582565b513d85823e3d90fd5b81810186015188820160a401528895889550016200051e565b604186634e487b7160e01b6000525260246000fd5b600080fd5b505034620003a35781600319360112620003a35751908152602090f35b5034620001ed5781600319360112620001ed576001600160a01b038260209462000627620010f4565b9335815260028652209116600052825260ff81600020541690519015158152f35b509034620001ed576020366003190112620001ed576001600160a01b03908162000671620010dd565b16928385526003602052828286205416620007815773eeeeeeeeeeeeeeeeeeeeeeeeeeeeeeeeeeeeeeee84036200071d578151906114a68083019183831067ffffffffffffffff8411176200070a575090829162002c718339039085f09283156200070057845260036020528320911673ffffffffffffffffffffffffffffffffffffffff1982541617905580f35b81513d86823e3d90fd5b876041602492634e487b7160e01b835252fd5b8151906117c98083019183831067ffffffffffffffff8411176200070a57506020918391620014a8833986815203019085f09283156200070057845260036020528320911673ffffffffffffffffffffffffffffffffffffffff1982541617905580f35b90517f23369fa6000000000000000000000000000000000000000000000000000000008152fd5b505034620003a35781600319360112620003a3576001600160a01b0360209254169051908152f35b509136600319016101208112620003a3576101001362000334576101043567ffffffffffffffff808211620001ed5736602383011215620001ed5781850135908111620001ed578101366024820111620001ed576001600160a01b0391827f000000000000000000000000000000000000000000000000000000000000000016330362000b5657602435918285526020906001825281878720885162000876816200110b565b600182549283835201549283910152604435149081159162000b48575b5015620008c2578787517f7fee69a1000000000000000000000000000000000000000000000000000000008152fd5b9085886060858a950312620003a357620008df6024860162001492565b96806064620008f16044890162001492565b970135961697848260448186541693895194859384927fb464631b00000000000000000000000000000000000000000000000000000000845216888301528c60248301525afa90811562000b3e57908291859162000af9575b5073eeeeeeeeeeeeeeeeeeeeeeeeeeeeeeeeeeeeeeee911681810362000a2457508352600384528483205416803b15620001ed578451627b8a6760e11b81529182018681526001600160a01b03891660208201528391839182908490829060400103925af1801562000a1a57620009f6575b5050907f40627f7438e2974529d03c9b047342d738a7a1759fed232175525a8c048c94449460609493925b8251948552840152820152a180f35b62000a069095949392956200113e565b62000a16579091928587620009bc565b8580fd5b84513d84823e3d90fd5b905083929398959697985260038452858220541691823b15620003a3578551627b8a6760e11b81529081018781526001600160a01b03861660208201529092839182908490829060400103925af1801562000aef5762000aae575b5091606093917f40627f7438e2974529d03c9b047342d738a7a1759fed232175525a8c048c94449593620009e7565b917f40627f7438e2974529d03c9b047342d738a7a1759fed232175525a8c048c94449593919662000ae2606096946200113e565b9691939550919362000a7f565b84513d89823e3d90fd5b809250868092503d831162000b36575b62000b15818362001153565b8101031262000b325751818116810362000b325781908b6200094a565b8380fd5b503d62000b09565b86513d86823e3d90fd5b905060643514153862000893565b84517fd7f733340000000000000000000000000000000000000000000000000000000081523381880152602490fd5b8334620003345780600319360112620003345762000ba26200144d565b806001600160a01b03815473ffffffffffffffffffffffffffffffffffffffff1981168355167f8be0079c531659141344cd1fd0a4f28419497f9722a3daafe3b4186f6b6457e08280a380f35b83346200033457602036600319011262000334576200023462000c11620010dd565b62000c1b62001176565b62001327565b50829034620003a3576020366003190112620003a35782813592806020835162000c4b816200110b565b82815201528381526001602052209083519262000c68846200110b565b60018354938486520154602085019381855215908162000cc8575b5062000c99575050825191518252516020820152f35b602492508451917f78d0dbfc000000000000000000000000000000000000000000000000000000008352820152fd5b9050158662000c83565b509034620001ed5782600319360112620001ed578051917fb88c914800000000000000000000000000000000000000000000000000000000835230908301526020826024816001600160a01b037f0000000000000000000000000000000000000000000000000000000000000000165afa91821562000d9b57839262000d5d575b6020838351908152f35b9091506020813d60201162000d92575b8162000d7c6020938362001153565b81010312620001ed576020925051903862000d53565b3d915062000d6d565b81513d85823e3d90fd5b5034620001ed5781600319360112620001ed5780359067ffffffffffffffff8083116200034057366023840112156200034057828201359281841162000a165760249260059236858760051b8501011162000ed25784359181831162000ece573660238401121562000ece578281013591821162000ece5760069136878260061b8601011162000eca5762000e396200144d565b62000e436200144d565b80880362000ea257895b88811062000e59578a80f35b8181101562000e905780871b86018801358b52600160208190528a8c2082861b87018a810135825560440135908201550162000e4d565b878b603285634e487b7160e01b835252fd5b5087517f947d5a84000000000000000000000000000000000000000000000000000000008152fd5b8980fd5b8880fd5b8780fd5b505034620003a35781600319360112620003a3576020905173eeeeeeeeeeeeeeeeeeeeeeeeeeeeeeeeeeeeeeee8152f35b50919034620003a35780600319360112620003a35762000f26620010f4565b90336001600160a01b0383160362000f46575062000234919235620013d4565b8390517f6697b232000000000000000000000000000000000000000000000000000000008152fd5b509034620001ed5780600319360112620001ed5762000234913562000f9860016200021b620010f4565b620012aa565b505034620003a35781600319360112620003a357602090517f0a775b33f9a8a1bd7919099707cfe9320f63c8a6cd38fa171b61aacb968ce6418152f35b83346200033457602036600319011262000334576200023462000ffd620010dd565b6200100762001176565b620011f6565b5034620001ed576020366003190112620001ed5781602093600192358152600285522001549051908152f35b92505034620001ed576020366003190112620001ed57357fffffffff000000000000000000000000000000000000000000000000000000008116809103620001ed57602092507f7965db0b000000000000000000000000000000000000000000000000000000008114908115620010b2575b5015158152f35b7f01ffc9a70000000000000000000000000000000000000000000000000000000091501438620010ab565b600435906001600160a01b0382168203620005dc57565b602435906001600160a01b0382168203620005dc57565b6040810190811067ffffffffffffffff8211176200112857604052565b634e487b7160e01b600052604160045260246000fd5b67ffffffffffffffff81116200112857604052565b90601f8019910116810190811067ffffffffffffffff8211176200112857604052565b3360009081527fac33ff75c19e70fe83507db0d683fd3465c996598dc972688b7ace676c89077b602052604081205460ff1615620011b15750565b6044906040519063e2517d3f60e01b82523360048301526024820152fd5b80600052600260205260406000203360005260205260ff6040600020541615620011b15750565b6001600160a01b031660008181527f2a44413c737edf57c9a9b5a5edce85f99936144e881302a0cfc518c4333a371f60205260408120549091907f0a775b33f9a8a1bd7919099707cfe9320f63c8a6cd38fa171b61aacb968ce6419060ff16620012a55780835260026020526040832082845260205260408320600160ff198254161790557f2f8788117e7eff1d82e926ec794901d17c78024a50270940304540a733656f0d339380a4600190565b505090565b9060009180835260026020526001600160a01b036040842092169182845260205260ff60408420541615600014620012a55780835260026020526040832082845260205260408320600160ff198254161790557f2f8788117e7eff1d82e926ec794901d17c78024a50270940304540a733656f0d339380a4600190565b6001600160a01b031660008181527f2a44413c737edf57c9a9b5a5edce85f99936144e881302a0cfc518c4333a371f60205260408120549091907f0a775b33f9a8a1bd7919099707cfe9320f63c8a6cd38fa171b61aacb968ce6419060ff1615620012a5578083526002602052604083208284526020526040832060ff1981541690557ff6391f5c32d9c69d2a47ea670b442974b53935d1edc7fd64eb21e047a839171b339380a4600190565b9060009180835260026020526001600160a01b036040842092169182845260205260ff604084205416600014620012a5578083526002602052604083208284526020526040832060ff1981541690557ff6391f5c32d9c69d2a47ea670b442974b53935d1edc7fd64eb21e047a839171b339380a4600190565b6001600160a01b036000541633036200146257565b60246040517f118cdaa7000000000000000000000000000000000000000000000000000000008152336004820152fd5b35906001600160a01b0382168203620005dc5756fe60a034620003a057601f90601f196001600160401b03620017c9388190038581018416850183811186821017620002a457859282916040528339602094859181010312620003a05751936001600160a01b0385168503620003a05762000064620003a5565b60128152712437b732bca837b7b6102628102a37b5b2b760711b858201526200008c620003a5565b916003928381526212141560ea1b878201528251858111620002a45784546001948582811c9216801562000395575b8a8310146200037f57818584931162000329575b508990858311600114620002c657600092620002ba575b505060001982871b1c191690841b1784555b8051948511620002a45760049687548481811c9116801562000299575b82821014620002845783811162000239575b5080928611600114620001cd575084955090849291600095620001c1575b50501b92600019911b1c19161790555b608052600780546001600160a01b031916339081179091556200017890620003c5565b50620001843362000468565b506040516112bf9081620004ea823960805181818161013f0152818161021e01528181610395015281816104ba0152818161074c0152610cbd0152f35b01519350388062000145565b939295859081168860005285600020956000905b898383106200021e575050501062000203575b50505050811b01905562000155565b01519060f884600019921b161c1916905538808080620001f4565b858701518955909701969485019488935090810190620001e1565b88600052816000208480890160051c820192848a106200027a575b0160051c019085905b8281106200026d57505062000127565b600081550185906200025d565b9250819262000254565b602289634e487b7160e01b6000525260246000fd5b90607f169062000115565b634e487b7160e01b600052604160045260246000fd5b015190503880620000e6565b908987941691886000528b6000209260005b8d828210620003125750508411620002f9575b505050811b018455620000f8565b015160001983891b60f8161c19169055388080620002eb565b8385015186558a97909501949384019301620002d8565b90915086600052896000208580850160051c8201928c861062000375575b918891869594930160051c01915b82811062000365575050620000cf565b6000815585945088910162000355565b9250819262000347565b634e487b7160e01b600052602260045260246000fd5b91607f1691620000bb565b600080fd5b60408051919082016001600160401b03811183821017620002a457604052565b6001600160a01b031660008181527fd8ef4509105c3edb0b04658b4528edc5ddd30ea5a81e623a2623c88db1eb54b660205260408120549091907fa49807205ce4d355092ef5a8a18f56e8913cf4a201fbe287825b095693c217759060ff16620004635780835260056020526040832082845260205260408320600160ff19825416179055600080516020620017a9833981519152339380a4600190565b505090565b6001600160a01b031660008181527f05b8ccbb9d4d8fb16ea74ce3c29a41f1b461fbdaff4714a0d9a8eb05499746bc602052604081205490919060ff16620004e55781805260056020526040822081835260205260408220600160ff198254161790553391600080516020620017a98339815191528180a4600190565b509056fe608060408181526004918236101561001657600080fd5b600092833560e01c918262f714ce14610c5a5750816301ffc9a714610bb957816306fdde0314610ac2578163095ea7b314610a1a57816318160ddd146109fb57816323b872dd146108ec578163248a9ca3146108c15781632f2ff15d14610897578163313ce5671461087b57816336568abe1461081c57816351c6590a1461071f57816370a08231146106e957816375b238fc146106ae5781638f840ddd1461068f57816391d148541461064957816395d89b41146105445781639d7de6b31461029d578163a217fddf14610282578163a9059cbb14610251578163b6b55f25146101f6578163d547741f146101b257508063dd62ed3e146101675763fc0c546a1461012157600080fd5b34610163578160031936011261016357602090516001600160a01b037f0000000000000000000000000000000000000000000000000000000000000000168152f35b5080fd5b5034610163578060031936011261016357602091610183610d22565b8261018c610d07565b926001600160a01b03809316815260018652209116600052825280600020549051908152f35b919050346101f257806003193601126101f2576101ee91356101e960016101d7610d07565b93838752600560205286200154610e1c565b611025565b5080f35b8280fd5b8390346101635760203660031901126101635761024b90356102438130336001600160a01b037f00000000000000000000000000000000000000000000000000000000000000001661109d565b600654610e02565b60065580f35b50503461016357806003193601126101635760209061027b610271610d22565b6024359033610ec8565b5160018152f35b50503461016357816003193601126101635751908152602090f35b9050816003193601126101f25780358015610535576102ca6102c160065483610db9565b60025490610de2565b92831561052657331561051057338552602091858352818620548181106104e457908087923384528386520383832055806002540360025582519081527fddf252ad1be2c89b69c2b068fc378daa952ba7f163c4a11628f55a4df523b3ef843392a38447928584106000146104a2576001600160a01b0390858183600754168651928380927f5c42132e0000000000000000000000000000000000000000000000000000000082525afa91821561049857849261046a575b505061038e8588610e0f565b916103bd817f000000000000000000000000000000000000000000000000000000000000000016963388610e60565b6007541694853b1561046657608491855196879485937fa628b47f000000000000000000000000000000000000000000000000000000008552338b8601526024356024860152604485015260648401525af1801561045c5761042a575b50505061024b905b600654610e0f565b67ffffffffffffffff82959395116104495752915061024b388061041a565b602483604187634e487b7160e01b835252fd5b81513d87823e3d90fd5b8380fd5b90809250813d8311610491575b6104818183610d81565b810103126101f257513880610382565b503d610477565b85513d86823e3d90fd5b5050505050806104df61024b92336001600160a01b037f000000000000000000000000000000000000000000000000000000000000000016610e60565b610422565b825163391434e360e21b8152338187019081526020810192909252604082018390529081906060010390fd5b82856024925191634b637e8f60e11b8352820152fd5b905051636067798b60e01b8152fd5b509051636067798b60e01b8152fd5b83833461016357816003193601126101635780519180938054916001908360011c926001851694851561063f575b602095868610811461062c5785895290811561060857506001146105b0575b6105ac87876105a2828c0383610d81565b5191829182610d38565b0390f35b81529295507f8a35acfbc15ff81a39ae7d344fd709f28e8600b4aa8c65c6b64bfe7fe36bd19b5b8284106105f557505050826105ac946105a292820101948680610591565b80548685018801529286019281016105d7565b60ff19168887015250505050151560051b83010192506105a2826105ac8680610591565b602484602285634e487b7160e01b835252fd5b93607f1693610572565b9050346101f257816003193601126101f2578160209360ff9261066a610d07565b90358252600586526001600160a01b0383832091168252855220541690519015158152f35b5050346101635781600319360112610163576020906006549051908152f35b505034610163578160031936011261016357602090517fa49807205ce4d355092ef5a8a18f56e8913cf4a201fbe287825b095693c217758152f35b50503461016357602036600319011261016357806020926001600160a01b03610710610d22565b16815280845220549051908152f35b8391503461016357602036600319011261016357803590811561080e576107718230336001600160a01b037f00000000000000000000000000000000000000000000000000000000000000001661109d565b600654806107f35750612710905b33156107dd575061024b929361079782600254610e02565b6002553385528460205280852082815401905551908152837fddf252ad1be2c89b69c2b068fc378daa952ba7f163c4a11628f55a4df523b3ef60203393a3600654610e02565b6024908486519163ec442f0560e01b8352820152fd5b6108089061080360025485610db9565b610de2565b9061077f565b8351636067798b60e01b8152fd5b838334610163578060031936011261016357610836610d07565b90336001600160a01b0383160361085357506101ee919235611025565b8390517f6697b232000000000000000000000000000000000000000000000000000000008152fd5b5050346101635781600319360112610163576020905160128152f35b919050346101f257806003193601126101f2576101ee91356108bc60016101d7610d07565b610fa4565b9050346101f25760203660031901126101f25781602093600192358152600585522001549051908152f35b905082346109f85760603660031901126109f857610908610d22565b610910610d07565b91604435936001600160a01b03831680835260016020528683203384526020528683205491600019830361094d575b60208861027b898989610ec8565b8683106109b357811561099d5733156109875750825260016020908152868320338452815291869020908590039055829061027b8761093f565b60249084895191634a1406b160e11b8352820152fd5b6024908489519163e602df0560e01b8352820152fd5b87517ffb8f41b2000000000000000000000000000000000000000000000000000000008152339181019182526020820193909352604081018790528291506060010390fd5b80fd5b5050346101635781600319360112610163576020906002549051908152f35b9050346101f257816003193601126101f257610a34610d22565b602435903315610aac576001600160a01b0316918215610a9657508083602095338152600187528181208582528752205582519081527f8c5be1e5ebec7d5bd14f71427d1e84f3dd0314c0f7b2291e5b200ac8c7c3b925843392a35160018152f35b60249085855191634a1406b160e11b8352820152fd5b6024838686519163e602df0560e01b8352820152fd5b919050346101f257826003193601126101f25780519183600354906001908260011c92600181168015610baf575b6020958686108214610b9c5750848852908115610b7a5750600114610b21575b6105ac86866105a2828b0383610d81565b929550600383527fc2575a0e9e593c00f959f8c92f12db2869c3395a3b0502d05e2516446f71f85b5b828410610b6757505050826105ac946105a2928201019438610b10565b8054868501880152928601928101610b4a565b60ff191687860152505050151560051b83010192506105a2826105ac38610b10565b836022602492634e487b7160e01b835252fd5b93607f1693610af0565b9050346101f25760203660031901126101f25735907fffffffff0000000000000000000000000000000000000000000000000000000082168092036101f257602092507f7965db0b000000000000000000000000000000000000000000000000000000008214918215610c30575b50519015158152f35b7f01ffc9a70000000000000000000000000000000000000000000000000000000014915038610c27565b838591346101f257816003193601126101f257610c75610d07565b9160ff7fa49807205ce4d355092ef5a8a18f56e8913cf4a201fbe287825b095693c217759182865260056020528086203387526020528520541615610ced5783610cea8635857f00000000000000000000000000000000000000000000000000000000000000006001600160a01b0316610e60565b80f35b63e2517d3f60e01b82523382860152602482015260449150fd5b602435906001600160a01b0382168203610d1d57565b600080fd5b600435906001600160a01b0382168203610d1d57565b6020808252825181830181905290939260005b828110610d6d57505060409293506000838284010152601f8019910116010190565b818101860151848201604001528501610d4b565b90601f8019910116810190811067ffffffffffffffff821117610da357604052565b634e487b7160e01b600052604160045260246000fd5b81810292918115918404141715610dcc57565b634e487b7160e01b600052601160045260246000fd5b8115610dec570490565b634e487b7160e01b600052601260045260246000fd5b91908201809211610dcc57565b91908203918211610dcc57565b80600052600560205260406000203360005260205260ff6040600020541615610e425750565b6044906040519063e2517d3f60e01b82523360048301526024820152fd5b916001600160a01b03604051927fa9059cbb000000000000000000000000000000000000000000000000000000006020850152166024830152604482015260448152608081019181831067ffffffffffffffff841117610da357610ec692604052611108565b565b916001600160a01b03808416928315610f8c5716928315610f745760009083825281602052604082205490838210610f42575091604082827fddf252ad1be2c89b69c2b068fc378daa952ba7f163c4a11628f55a4df523b3ef958760209652828652038282205586815220818154019055604051908152a3565b60405163391434e360e21b81526001600160a01b03919091166004820152602481019190915260448101839052606490fd5b602460405163ec442f0560e01b815260006004820152fd5b6024604051634b637e8f60e11b815260006004820152fd5b9060009180835260056020526001600160a01b036040842092169182845260205260ff604084205416156000146110205780835260056020526040832082845260205260408320600160ff198254161790557f2f8788117e7eff1d82e926ec794901d17c78024a50270940304540a733656f0d339380a4600190565b505090565b9060009180835260056020526001600160a01b036040842092169182845260205260ff604084205416600014611020578083526005602052604083208284526020526040832060ff1981541690557ff6391f5c32d9c69d2a47ea670b442974b53935d1edc7fd64eb21e047a839171b339380a4600190565b9290604051927f23b872dd0000000000000000000000000000000000000000000000000000000060208501526001600160a01b03809216602485015216604483015260648201526064815260a081019181831067ffffffffffffffff841117610da357610ec6926040525b6001600160a01b031690600080826020829451910182865af13d156111ea573d9067ffffffffffffffff82116111d6579061116591604051916111556020601f19601f8401160184610d81565b82523d84602084013e5b846111f6565b9081519182151592836111ae575b50505061117d5750565b602490604051907f5274afe70000000000000000000000000000000000000000000000000000000082526004820152fd5b8192935090602091810103126101635760200151908115918215036109f85750388080611173565b602483634e487b7160e01b81526041600452fd5b6111659060609061115f565b90611235575080511561120b57805190602001fd5b60046040517f1425ea42000000000000000000000000000000000000000000000000000000008152fd5b81511580611280575b611246575090565b6024906001600160a01b03604051917f9996b315000000000000000000000000000000000000000000000000000000008352166004820152fd5b50803b1561123e56fea26469706673582212202ab7dcedbc30e7234c690b5fdb6be4e6940e96da1e9254ab38446b3a5252108364736f6c634300081800332f8788117e7eff1d82e926ec794901d17c78024a50270940304540a733656f0d60803462000344576040906001600160401b0390808301828111828210176200024457835260128152602091712437b732bca837b7b6102628102a37b5b2b760711b83830152835184810181811083821117620002445785526003908181526212141560ea1b8582015283519083821162000244578254916001958684811c9416801562000339575b8885101462000323578190601f94858111620002cd575b50889085831160011462000266576000926200025a575b505060001982861b1c191690861b1783555b8051938411620002445760049586548681811c9116801562000239575b828210146200022457838111620001d9575b50809285116001146200016b57509383949184926000956200015f575b50501b92600019911b1c19161790555b600780546001600160a01b03191633908117909155620001449062000349565b506200015033620003ec565b505161101890816200046e8239f35b01519350388062000114565b92919084601f1981168860005285600020956000905b89838310620001be5750505010620001a3575b50505050811b01905562000124565b01519060f884600019921b161c191690553880808062000194565b85870151895590970196948501948893509081019062000181565b87600052816000208480880160051c8201928489106200021a575b0160051c019087905b8281106200020d575050620000f7565b60008155018790620001fd565b92508192620001f4565b602288634e487b7160e01b6000525260246000fd5b90607f1690620000e5565b634e487b7160e01b600052604160045260246000fd5b015190503880620000b6565b90889350601f19831691876000528a6000209260005b8c828210620002b657505084116200029d575b505050811b018355620000c8565b015160001983881b60f8161c191690553880806200028f565b8385015186558c979095019493840193016200027c565b90915085600052886000208580850160051c8201928b861062000319575b918a91869594930160051c01915b828110620003095750506200009f565b600081558594508a9101620002f9565b92508192620002eb565b634e487b7160e01b600052602260045260246000fd5b93607f169362000088565b600080fd5b6001600160a01b031660008181527fd8ef4509105c3edb0b04658b4528edc5ddd30ea5a81e623a2623c88db1eb54b660205260408120549091907fa49807205ce4d355092ef5a8a18f56e8913cf4a201fbe287825b095693c217759060ff16620003e75780835260056020526040832082845260205260408320600160ff1982541617905560008051602062001486833981519152339380a4600190565b505090565b6001600160a01b031660008181527f05b8ccbb9d4d8fb16ea74ce3c29a41f1b461fbdaff4714a0d9a8eb05499746bc602052604081205490919060ff16620004695781805260056020526040822081835260205260408220600160ff198254161790553391600080516020620014868339815191528180a4600190565b509056fe608060408181526004908136101561001657600080fd5b600092833560e01c908162f714ce14610c015750806301ffc9a714610b6057806306fdde0314610a6b578063095ea7b3146109c357806318160ddd146109a457806323b872dd14610899578063248a9ca31461086e5780632f2ff15d14610846578063313ce5671461082a57806336568abe146107ca57806370a082311461079457806375b238fc146107595780638f840ddd1461073a57806391d14854146106f457806395d89b41146105ee5780639d7de6b3146102d1578063a217fddf146102b6578063a9059cbb14610285578063d0e30db01461026a578063d547741f1461022c578063dd62ed3e146101dc5763e8078d941461011557600080fd5b826003193601126101d85734156101cb57600654806101b05750612710915b331561019b575061014782600254610dbc565b600255336000526000602052806000208281540190555190815260007fddf252ad1be2c89b69c2b068fc378daa952ba7f163c4a11628f55a4df523b3ef60203393a361019534600654610dbc565b60065580f35b83602492519163ec442f0560e01b8352820152fd5b6101c5906101c060025434610d66565b610d8f565b91610134565b51636067798b60e01b8152fd5b8280fd5b8382346102285780600319360112610228576020916101f9610ccf565b82610202610cb4565b926001600160a01b03809316815260018652209116600052825280600020549051908152f35b5080fd5b50346101d857806003193601126101d8576102669135610261600161024f610cb4565b93838752600560205286200154610dc9565b610f6a565b5080f35b83806003193601126102825761019534600654610dbc565b80fd5b8382346102285780600319360112610228576020906102af6102a5610ccf565b6024359033610e0d565b5160018152f35b83823461022857816003193601126102285751908152602090f35b5090816003193601126101d857803580156105df576102fe6102f560065483610d66565b60025490610d8f565b9283156105d05733156105ba573385526020918583528186205481811061058e57908087923384528386520383832055806002540360025582519081527fddf252ad1be2c89b69c2b068fc378daa952ba7f163c4a11628f55a4df523b3ef843392a384479285841060001461056657846001600160a01b03918083600754168651938480927f5c42132e0000000000000000000000000000000000000000000000000000000082525afa91821561055c57868986928395610523575b50826103d181936103cc888495610daf565b610daf565b9981811561051a575b3390f1156105105782600754169185517f3fc8cef300000000000000000000000000000000000000000000000000000000815282818a81875afa9283156105065786936104cd575b5050823b156104c957608492865197889586947fa628b47f000000000000000000000000000000000000000000000000000000008652338c870152602435602487015216604485015260648401525af180156104bf5761048d575b505050610195905b600654610daf565b67ffffffffffffffff82959395116104ac57529150610195388061047d565b602483604187634e487b7160e01b835252fd5b81513d87823e3d90fd5b8480fd5b9080929350813d83116104ff575b6104e58183610d2e565b810103126104c9575183811681036104c957903880610422565b503d6104db565b87513d88823e3d90fd5b84513d85823e3d90fd5b506108fc6103da565b94505050508082813d8311610555575b61053d8183610d2e565b8101031261055157905190838689826103ba565b8380fd5b503d610533565b85513d86823e3d90fd5b50849350808093508092953382f115610583576101959150610485565b5051903d90823e3d90fd5b825163391434e360e21b8152338187019081526020810192909252604082018390529081906060010390fd5b82856024925191634b637e8f60e11b8352820152fd5b905051636067798b60e01b8152fd5b509051636067798b60e01b8152fd5b5082903461022857816003193601126102285780519180938054916001908360011c92600185169485156106ea575b60209586861081146106d7578589529081156106b3575060011461065b575b610657878761064d828c0383610d2e565b5191829182610ce5565b0390f35b81529295507f8a35acfbc15ff81a39ae7d344fd709f28e8600b4aa8c65c6b64bfe7fe36bd19b5b8284106106a057505050826106579461064d9282010194868061063c565b8054868501880152928601928101610682565b60ff19168887015250505050151560051b830101925061064d82610657868061063c565b602484602285634e487b7160e01b835252fd5b93607f169361061d565b5090346101d857816003193601126101d8578160209360ff92610715610cb4565b90358252600586526001600160a01b0383832091168252855220541690519015158152f35b8382346102285781600319360112610228576020906006549051908152f35b838234610228578160031936011261022857602090517fa49807205ce4d355092ef5a8a18f56e8913cf4a201fbe287825b095693c217758152f35b83823461022857602036600319011261022857806020926001600160a01b036107bb610ccf565b16815280845220549051908152f35b508290346102285780600319360112610228576107e5610cb4565b90336001600160a01b038316036108025750610266919235610f6a565b8390517f6697b232000000000000000000000000000000000000000000000000000000008152fd5b8382346102285781600319360112610228576020905160128152f35b50346101d857806003193601126101d8576102669135610869600161024f610cb4565b610ee9565b5090346101d85760203660031901126101d85781602093600192358152600585522001549051908152f35b509134610282576060366003190112610282576108b4610ccf565b6108bc610cb4565b91604435936001600160a01b0383168083526001602052868320338452602052868320549160001983036108f9575b6020886102af898989610e0d565b86831061095f578115610949573315610933575082526001602090815286832033845281529186902090859003905582906102af386108eb565b60249084895191634a1406b160e11b8352820152fd5b6024908489519163e602df0560e01b8352820152fd5b87517ffb8f41b2000000000000000000000000000000000000000000000000000000008152339181019182526020820193909352604081018790528291506060010390fd5b8382346102285781600319360112610228576020906002549051908152f35b5090346101d857816003193601126101d8576109dd610ccf565b602435903315610a55576001600160a01b0316918215610a3f57508083602095338152600187528181208582528752205582519081527f8c5be1e5ebec7d5bd14f71427d1e84f3dd0314c0f7b2291e5b200ac8c7c3b925843392a35160018152f35b60249085855191634a1406b160e11b8352820152fd5b6024838686519163e602df0560e01b8352820152fd5b50346101d857826003193601126101d85780519183600354906001908260011c92600181168015610b56575b6020958686108214610b435750848852908115610b215750600114610ac8575b610657868661064d828b0383610d2e565b929550600383527fc2575a0e9e593c00f959f8c92f12db2869c3395a3b0502d05e2516446f71f85b5b828410610b0e57505050826106579461064d928201019438610ab7565b8054868501880152928601928101610af1565b60ff191687860152505050151560051b830101925061064d8261065738610ab7565b836022602492634e487b7160e01b835252fd5b93607f1693610a97565b5090346101d85760203660031901126101d85735907fffffffff0000000000000000000000000000000000000000000000000000000082168092036101d857602092507f7965db0b000000000000000000000000000000000000000000000000000000008214918215610bd7575b50519015158152f35b7f01ffc9a70000000000000000000000000000000000000000000000000000000014915038610bce565b9192905034610551578260031936011261055157803591610c20610cb4565b917fa49807205ce4d355092ef5a8a18f56e8913cf4a201fbe287825b095693c2177590818752600560205285872033885260205260ff868820541615610c9a5750505083808093819382908215610c90575b6001600160a01b031690f115610c86575080f35b51903d90823e3d90fd5b6108fc9150610c72565b6044935063e2517d3f60e01b835233908301526024820152fd5b602435906001600160a01b0382168203610cca57565b600080fd5b600435906001600160a01b0382168203610cca57565b6020808252825181830181905290939260005b828110610d1a57505060409293506000838284010152601f8019910116010190565b818101860151848201604001528501610cf8565b90601f8019910116810190811067ffffffffffffffff821117610d5057604052565b634e487b7160e01b600052604160045260246000fd5b81810292918115918404141715610d7957565b634e487b7160e01b600052601160045260246000fd5b8115610d99570490565b634e487b7160e01b600052601260045260246000fd5b91908203918211610d7957565b91908201809211610d7957565b80600052600560205260406000203360005260205260ff6040600020541615610def5750565b6044906040519063e2517d3f60e01b82523360048301526024820152fd5b916001600160a01b03808416928315610ed15716928315610eb95760009083825281602052604082205490838210610e87575091604082827fddf252ad1be2c89b69c2b068fc378daa952ba7f163c4a11628f55a4df523b3ef958760209652828652038282205586815220818154019055604051908152a3565b60405163391434e360e21b81526001600160a01b03919091166004820152602481019190915260448101839052606490fd5b602460405163ec442f0560e01b815260006004820152fd5b6024604051634b637e8f60e11b815260006004820152fd5b9060009180835260056020526001600160a01b036040842092169182845260205260ff60408420541615600014610f655780835260056020526040832082845260205260408320600160ff198254161790557f2f8788117e7eff1d82e926ec794901d17c78024a50270940304540a733656f0d339380a4600190565b505090565b9060009180835260056020526001600160a01b036040842092169182845260205260ff604084205416600014610f65578083526005602052604083208284526020526040832060ff1981541690557ff6391f5c32d9c69d2a47ea670b442974b53935d1edc7fd64eb21e047a839171b339380a460019056fea264697066735822122079964d7a7a8a338d6d0fded41e019954943a605bc40bf10248fe715186f0819464736f6c634300081800332f8788117e7eff1d82e926ec794901d17c78024a50270940304540a733656f0da2646970667358221220c4c295c274db25d3fc929db3403adb0dab633794690424cbb229cefef3541dd864736f6c63430008180033",
  "linkReferences": {},
  "deployedLinkReferences": {}
}