{
  "_format": "hh-sol-artifact-1",
  "contractName": "HoneyFeeMath",
  "sourceName": "contracts/src/lib/HoneyFeeMath.sol",
  "abi": [
    {
      "inputs": [],
      "name": "DENOMINATOR",
      "outputs": [
        {
          "internalType": "uint256",
          "name": "",
          "type": "uint256"
        }
      ],
      "stateMutability": "view",
      "type": "function"
    },
    {
      "inputs": [],
      "name": "HONEY_FEE_PERCENTAGE",
      "outputs": [
        {
          "internalType": "uint256",
          "name": "",
          "type": "uint256"
        }
      ],
      "stateMutability": "view",
      "type": "function"
    },
    {
      "inputs": [
        {
          "internalType": "uint256",
          "name": "value",
          "type": "uint256"
        },
        {
          "internalType": "uint256",
          "name": "percentage",
          "type": "uint256"
        }
      ],
      "name": "extract",
      "outputs": [
        {
          "internalType": "uint256",
          "name": "",
          "type": "uint256"
        }
      ],
      "stateMutability": "pure",
      "type": "function"
    },
    {
      "inputs": [
        {
          "internalType": "uint256",
          "name": "amount",
          "type": "uint256"
        }
      ],
      "name": "split",
      "outputs": [
        {
          "internalType": "uint256",
          "name": "",
          "type": "uint256"
        },
        {
          "internalType": "uint256",
          "name": "",
          "type": "uint256"
        }
      ],
      "stateMutability": "pure",
      "type": "function"
    }
  ],
  "bytecode": "0x6080806040523461001a576101cd9081610020823930815050f35b600080fdfe608060409080825260048036101561001657600080fd5b600091823560e01c9081637968669714610180575080638139e0f6146100d4578063918f8674146100bb5763dbceb0051461005057600080fd5b60203660031901126100b7578035916103e88084029084820414841517156100a457620f424090049182840393841161009157505082519182526020820152f35b906011602492634e487b7160e01b835252fd5b506011602492634e487b7160e01b835252fd5b5080fd5b8284816003193601126100b75760209051620f42408152f35b5091806003193601126100b75782359060243592620f424092838511610123578481029481860414901517156101105750602093505191048152f35b80601186634e487b7160e01b6024945252fd5b60648660208551917f08c379a0000000000000000000000000000000000000000000000000000000008352820152601d60248201527f50657263656e746167652063616e6e6f742065786365656420313030250000006044820152fd5b8390816003193601126100b757806103e860209252f3fea26469706673582212203555b9dd6bf27bb3011cc04c88cdeb145df4ec576db291e7f543d8a4461b2b7a64736f6c63430008180033",
  "linkReferences": {},
  "deployedLinkReferences": {}
}