{
  "_format": "hh-sol-artifact-1",
  "contractName": "HoneyRouter01",
  "sourceName": "contracts/src/HoneyRouter01.sol",
  "abi": [
    {
      "inputs": [
        {
          "internalType": "address",
          "name": "_tokenMap",
          "type": "address"
        },
        {
          "internalType": "address",
          "name": "_router",
          "type": "address"
        },
        {
          "internalType": "address",
          "name": "_treasury",
          "type": "address"
        }
      ],
      "stateMutability": "nonpayable",
      "type": "constructor"
    },
    {
      "inputs": [],
      "name": "AccessControlBadConfirmation",
      "type": "error"
    },
    {
      "inputs": [
        {
          "internalType": "address",
          "name": "account",
          "type": "address"
        },
        {
          "internalType": "bytes32",
          "name": "neededRole",
          "type": "bytes32"
        }
      ],
      "name": "AccessControlUnauthorizedAccount",
      "type": "error"
    },
    {
      "inputs": [
        {
          "internalType": "address",
          "name": "target",
          "type": "address"
        }
      ],
      "name": "AddressEmptyCode",
      "type": "error"
    },
    {
      "inputs": [
        {
          "internalType": "address",
          "name": "account",
          "type": "address"
        }
      ],
      "name": "AddressInsufficientBalance",
      "type": "error"
    },
    {
      "inputs": [],
      "name": "EnforcedPause",
      "type": "error"
    },
    {
      "inputs": [],
      "name": "ExpectedPause",
      "type": "error"
    },
    {
      "inputs": [],
      "name": "FailedInnerCall",
      "type": "error"
    },
    {
      "inputs": [
        {
          "internalType": "uint256",
          "name": "amountOut",
          "type": "uint256"
        },
        {
          "internalType": "uint256",
          "name": "expectedAmountOut",
          "type": "uint256"
        }
      ],
      "name": "InsufficientOutputAmount",
      "type": "error"
    },
    {
      "inputs": [],
      "name": "InvalidLength",
      "type": "error"
    },
    {
      "inputs": [],
      "name": "InvalidMessageSender",
      "type": "error"
    },
    {
      "inputs": [
        {
          "internalType": "uint256",
          "name": "chainSelector",
          "type": "uint256"
        }
      ],
      "name": "InvalidPeer",
      "type": "error"
    },
    {
      "inputs": [
        {
          "internalType": "address",
          "name": "router",
          "type": "address"
        }
      ],
      "name": "InvalidRouter",
      "type": "error"
    },
    {
      "inputs": [
        {
          "internalType": "address",
          "name": "owner",
          "type": "address"
        }
      ],
      "name": "OwnableInvalidOwner",
      "type": "error"
    },
    {
      "inputs": [
        {
          "internalType": "address",
          "name": "account",
          "type": "address"
        }
      ],
      "name": "OwnableUnauthorizedAccount",
      "type": "error"
    },
    {
      "inputs": [],
      "name": "RouterAddressCannotBeZero",
      "type": "error"
    },
    {
      "inputs": [
        {
          "internalType": "address",
          "name": "token",
          "type": "address"
        }
      ],
      "name": "SafeERC20FailedOperation",
      "type": "error"
    },
    {
      "anonymous": false,
      "inputs": [
        {
          "indexed": true,
          "internalType": "address",
          "name": "previousOwner",
          "type": "address"
        },
        {
          "indexed": true,
          "internalType": "address",
          "name": "newOwner",
          "type": "address"
        }
      ],
      "name": "OwnershipTransferred",
      "type": "event"
    },
    {
      "anonymous": false,
      "inputs": [
        {
          "indexed": false,
          "internalType": "address",
          "name": "account",
          "type": "address"
        }
      ],
      "name": "Paused",
      "type": "event"
    },
    {
      "anonymous": false,
      "inputs": [
        {
          "indexed": true,
          "internalType": "bytes32",
          "name": "role",
          "type": "bytes32"
        },
        {
          "indexed": true,
          "internalType": "bytes32",
          "name": "previousAdminRole",
          "type": "bytes32"
        },
        {
          "indexed": true,
          "internalType": "bytes32",
          "name": "newAdminRole",
          "type": "bytes32"
        }
      ],
      "name": "RoleAdminChanged",
      "type": "event"
    },
    {
      "anonymous": false,
      "inputs": [
        {
          "indexed": true,
          "internalType": "bytes32",
          "name": "role",
          "type": "bytes32"
        },
        {
          "indexed": true,
          "internalType": "address",
          "name": "account",
          "type": "address"
        },
        {
          "indexed": true,
          "internalType": "address",
          "name": "sender",
          "type": "address"
        }
      ],
      "name": "RoleGranted",
      "type": "event"
    },
    {
      "anonymous": false,
      "inputs": [
        {
          "indexed": true,
          "internalType": "bytes32",
          "name": "role",
          "type": "bytes32"
        },
        {
          "indexed": true,
          "internalType": "address",
          "name": "account",
          "type": "address"
        },
        {
          "indexed": true,
          "internalType": "address",
          "name": "sender",
          "type": "address"
        }
      ],
      "name": "RoleRevoked",
      "type": "event"
    },
    {
      "anonymous": false,
      "inputs": [
        {
          "indexed": false,
          "internalType": "address",
          "name": "account",
          "type": "address"
        }
      ],
      "name": "Unpaused",
      "type": "event"
    },
    {
      "inputs": [],
      "name": "ADMIN_ROLE",
      "outputs": [
        {
          "internalType": "bytes32",
          "name": "",
          "type": "bytes32"
        }
      ],
      "stateMutability": "view",
      "type": "function"
    },
    {
      "inputs": [],
      "name": "DEFAULT_ADMIN_ROLE",
      "outputs": [
        {
          "internalType": "bytes32",
          "name": "",
          "type": "bytes32"
        }
      ],
      "stateMutability": "view",
      "type": "function"
    },
    {
      "inputs": [],
      "name": "EXECUTOR",
      "outputs": [
        {
          "internalType": "address",
          "name": "",
          "type": "address"
        }
      ],
      "stateMutability": "view",
      "type": "function"
    },
    {
      "inputs": [],
      "name": "TREASURY",
      "outputs": [
        {
          "internalType": "address",
          "name": "",
          "type": "address"
        }
      ],
      "stateMutability": "view",
      "type": "function"
    },
    {
      "inputs": [
        {
          "internalType": "string",
          "name": "name",
          "type": "string"
        },
        {
          "internalType": "string",
          "name": "routerURI",
          "type": "string"
        },
        {
          "internalType": "address",
          "name": "routerId",
          "type": "address"
        }
      ],
      "name": "addRouter",
      "outputs": [],
      "stateMutability": "nonpayable",
      "type": "function"
    },
    {
      "inputs": [
        {
          "internalType": "uint256",
          "name": "amountIn",
          "type": "uint256"
        },
        {
          "internalType": "address",
          "name": "tokenOut",
          "type": "address"
        }
      ],
      "name": "bestSwapETHToTokens",
      "outputs": [
        {
          "internalType": "uint256",
          "name": "",
          "type": "uint256"
        },
        {
          "internalType": "address",
          "name": "",
          "type": "address"
        },
        {
          "components": [
            {
              "internalType": "string",
              "name": "name",
              "type": "string"
            },
            {
              "internalType": "string",
              "name": "routerURI",
              "type": "string"
            }
          ],
          "internalType": "struct IHoneyExecutor.Router",
          "name": "",
          "type": "tuple"
        }
      ],
      "stateMutability": "view",
      "type": "function"
    },
    {
      "inputs": [
        {
          "internalType": "uint256",
          "name": "amountIn",
          "type": "uint256"
        },
        {
          "internalType": "address",
          "name": "tokenIn",
          "type": "address"
        },
        {
          "internalType": "address",
          "name": "tokenOut",
          "type": "address"
        }
      ],
      "name": "bestSwapTokensToTokens",
      "outputs": [
        {
          "internalType": "uint256",
          "name": "",
          "type": "uint256"
        },
        {
          "internalType": "address",
          "name": "",
          "type": "address"
        },
        {
          "components": [
            {
              "internalType": "string",
              "name": "name",
              "type": "string"
            },
            {
              "internalType": "string",
              "name": "routerURI",
              "type": "string"
            }
          ],
          "internalType": "struct IHoneyExecutor.Router",
          "name": "",
          "type": "tuple"
        }
      ],
      "stateMutability": "view",
      "type": "function"
    },
    {
      "inputs": [],
      "name": "getEquitoFee",
      "outputs": [
        {
          "internalType": "uint256",
          "name": "",
          "type": "uint256"
        }
      ],
      "stateMutability": "view",
      "type": "function"
    },
    {
      "inputs": [
        {
          "internalType": "uint256",
          "name": "chainSelector",
          "type": "uint256"
        }
      ],
      "name": "getPeer",
      "outputs": [
        {
          "components": [
            {
              "internalType": "bytes32",
              "name": "lower",
              "type": "bytes32"
            },
            {
              "internalType": "bytes32",
              "name": "upper",
              "type": "bytes32"
            }
          ],
          "internalType": "struct bytes64",
          "name": "",
          "type": "tuple"
        }
      ],
      "stateMutability": "view",
      "type": "function"
    },
    {
      "inputs": [
        {
          "internalType": "bytes32",
          "name": "role",
          "type": "bytes32"
        }
      ],
      "name": "getRoleAdmin",
      "outputs": [
        {
          "internalType": "bytes32",
          "name": "",
          "type": "bytes32"
        }
      ],
      "stateMutability": "view",
      "type": "function"
    },
    {
      "inputs": [
        {
          "internalType": "bytes32",
          "name": "role",
          "type": "bytes32"
        },
        {
          "internalType": "address",
          "name": "account",
          "type": "address"
        }
      ],
      "name": "grantRole",
      "outputs": [],
      "stateMutability": "nonpayable",
      "type": "function"
    },
    {
      "inputs": [
        {
          "internalType": "bytes32",
          "name": "role",
          "type": "bytes32"
        },
        {
          "internalType": "address",
          "name": "account",
          "type": "address"
        }
      ],
      "name": "hasRole",
      "outputs": [
        {
          "internalType": "bool",
          "name": "",
          "type": "bool"
        }
      ],
      "stateMutability": "view",
      "type": "function"
    },
    {
      "inputs": [],
      "name": "owner",
      "outputs": [
        {
          "internalType": "address",
          "name": "",
          "type": "address"
        }
      ],
      "stateMutability": "view",
      "type": "function"
    },
    {
      "inputs": [],
      "name": "pause",
      "outputs": [],
      "stateMutability": "nonpayable",
      "type": "function"
    },
    {
      "inputs": [],
      "name": "paused",
      "outputs": [
        {
          "internalType": "bool",
          "name": "",
          "type": "bool"
        }
      ],
      "stateMutability": "view",
      "type": "function"
    },
    {
      "inputs": [
        {
          "internalType": "uint256",
          "name": "",
          "type": "uint256"
        }
      ],
      "name": "peers",
      "outputs": [
        {
          "internalType": "bytes32",
          "name": "lower",
          "type": "bytes32"
        },
        {
          "internalType": "bytes32",
          "name": "upper",
          "type": "bytes32"
        }
      ],
      "stateMutability": "view",
      "type": "function"
    },
    {
      "inputs": [
        {
          "components": [
            {
              "internalType": "uint256",
              "name": "blockNumber",
              "type": "uint256"
            },
            {
              "internalType": "uint256",
              "name": "sourceChainSelector",
              "type": "uint256"
            },
            {
              "components": [
                {
                  "internalType": "bytes32",
                  "name": "lower",
                  "type": "bytes32"
                },
                {
                  "internalType": "bytes32",
                  "name": "upper",
                  "type": "bytes32"
                }
              ],
              "internalType": "struct bytes64",
              "name": "sender",
              "type": "tuple"
            },
            {
              "internalType": "uint256",
              "name": "destinationChainSelector",
              "type": "uint256"
            },
            {
              "components": [
                {
                  "internalType": "bytes32",
                  "name": "lower",
                  "type": "bytes32"
                },
                {
                  "internalType": "bytes32",
                  "name": "upper",
                  "type": "bytes32"
                }
              ],
              "internalType": "struct bytes64",
              "name": "receiver",
              "type": "tuple"
            },
            {
              "internalType": "bytes32",
              "name": "hashedData",
              "type": "bytes32"
            }
          ],
          "internalType": "struct EquitoMessage",
          "name": "message",
          "type": "tuple"
        },
        {
          "internalType": "bytes",
          "name": "messageData",
          "type": "bytes"
        }
      ],
      "name": "receiveMessage",
      "outputs": [],
      "stateMutability": "payable",
      "type": "function"
    },
    {
      "inputs": [
        {
          "internalType": "address",
          "name": "routerId",
          "type": "address"
        }
      ],
      "name": "removeRouter",
      "outputs": [],
      "stateMutability": "nonpayable",
      "type": "function"
    },
    {
      "inputs": [],
      "name": "renounceOwnership",
      "outputs": [],
      "stateMutability": "nonpayable",
      "type": "function"
    },
    {
      "inputs": [
        {
          "internalType": "bytes32",
          "name": "role",
          "type": "bytes32"
        },
        {
          "internalType": "address",
          "name": "callerConfirmation",
          "type": "address"
        }
      ],
      "name": "renounceRole",
      "outputs": [],
      "stateMutability": "nonpayable",
      "type": "function"
    },
    {
      "inputs": [
        {
          "internalType": "bytes32",
          "name": "role",
          "type": "bytes32"
        },
        {
          "internalType": "address",
          "name": "account",
          "type": "address"
        }
      ],
      "name": "revokeRole",
      "outputs": [],
      "stateMutability": "nonpayable",
      "type": "function"
    },
    {
      "inputs": [
        {
          "internalType": "uint256[]",
          "name": "chainSelectors",
          "type": "uint256[]"
        },
        {
          "components": [
            {
              "internalType": "bytes32",
              "name": "lower",
              "type": "bytes32"
            },
            {
              "internalType": "bytes32",
              "name": "upper",
              "type": "bytes32"
            }
          ],
          "internalType": "struct bytes64[]",
          "name": "addresses",
          "type": "tuple[]"
        }
      ],
      "name": "setPeers",
      "outputs": [],
      "stateMutability": "nonpayable",
      "type": "function"
    },
    {
      "inputs": [
        {
          "internalType": "bytes4",
          "name": "interfaceId",
          "type": "bytes4"
        }
      ],
      "name": "supportsInterface",
      "outputs": [
        {
          "internalType": "bool",
          "name": "",
          "type": "bool"
        }
      ],
      "stateMutability": "view",
      "type": "function"
    },
    {
      "inputs": [
        {
          "internalType": "address",
          "name": "tokenOut",
          "type": "address"
        },
        {
          "internalType": "uint256",
          "name": "amountOutMin",
          "type": "uint256"
        },
        {
          "internalType": "uint256",
          "name": "deadline",
          "type": "uint256"
        },
        {
          "internalType": "uint256",
          "name": "destinationChainSelector",
          "type": "uint256"
        }
      ],
      "name": "swapETHToTokens",
      "outputs": [],
      "stateMutability": "payable",
      "type": "function"
    },
    {
      "inputs": [
        {
          "internalType": "address",
          "name": "tokenIn",
          "type": "address"
        },
        {
          "internalType": "uint256",
          "name": "amountIn",
          "type": "uint256"
        },
        {
          "internalType": "address",
          "name": "tokenOut",
          "type": "address"
        },
        {
          "internalType": "uint256",
          "name": "amountOutMin",
          "type": "uint256"
        },
        {
          "internalType": "uint256",
          "name": "deadline",
          "type": "uint256"
        },
        {
          "internalType": "uint256",
          "name": "destinationChainSelector",
          "type": "uint256"
        }
      ],
      "name": "swapTokensToTokens",
      "outputs": [],
      "stateMutability": "payable",
      "type": "function"
    },
    {
      "inputs": [
        {
          "internalType": "address",
          "name": "newOwner",
          "type": "address"
        }
      ],
      "name": "transferOwnership",
      "outputs": [],
      "stateMutability": "nonpayable",
      "type": "function"
    },
    {
      "inputs": [],
      "name": "unPause",
      "outputs": [],
      "stateMutability": "nonpayable",
      "type": "function"
    },
    {
      "inputs": [
        {
          "internalType": "address",
          "name": "newFactory",
          "type": "address"
        }
      ],
      "name": "updateFactory",
      "outputs": [],
      "stateMutability": "nonpayable",
      "type": "function"
    }
  ],
  "bytecode": "0x60a034620001cd57601f620037ff38819003918201601f19168301926001600160401b0392909183851183861017620001d2578160609284926040978852833981010312620001cd576200005381620001e8565b6200006e846200006660208501620001e8565b9301620001e8565b92600154913315620001b5576001600160a81b0319831633600881811b610100600160a81b03169290921760015587516001600160a01b0396600096919388939192901c83167f8be0079c531659141344cd1fd0a4f28419497f9722a3daafe3b4186f6b6457e08880a316908115620001a657509084916080528160018060a01b0319961686600454161760045516846005541617600555845190611775808301918383109083111762000192579082916200206a8339039082f0908115620001875750169060035416176003556200014733620001fd565b5062000153336200029f565b5051611d4a90816200032082396080518181816104f2015281816109e301528181610f85015281816112290152611aa60152f35b8451903d90823e3d90fd5b634e487b7160e01b84526041600452602484fd5b635008268360e01b8152600490fd5b8551631e4fbdf760e01b815260006004820152602490fd5b600080fd5b634e487b7160e01b600052604160045260246000fd5b51906001600160a01b0382168203620001cd57565b6001600160a01b031660008181527f7d7ffb7a348e1c6a02869081a26547b49160dd3df72d1d75a570eb9b698292ec60205260408120549091907fa49807205ce4d355092ef5a8a18f56e8913cf4a201fbe287825b095693c217759060ff166200029a57808352826020526040832082845260205260408320600160ff19825416179055600080516020620037df833981519152339380a4600190565b505090565b6001600160a01b031660008181527fad3228b676f7d3cd4284a5443f17f1962b36e491b30a40b2405849e597ba5fb5602052604081205490919060ff166200031b57818052816020526040822081835260205260408220600160ff198254161790553391600080516020620037df8339815191528180a4600190565b509056fe608080604052600436101561001357600080fd5b600090813560e01c90816301ffc9a71461147757508063248a9ca31461144b5780632d2c5565146114245780632f2ff15d146113e757806336568abe1461138757806346fc10f01461111c57806359a1aae114610ff65780635c42132e14610f385780635c975abb14610f15578063630dc7cb14610eee57806367ebb6b214610e425780636ae0b15414610db8578063715018a614610d4b57806375b238fc14610d105780638456cb5914610cb6578063879d182d1461099e5780638da5cb5b1461097457806391d14854146109285780639deb5fd414610898578063a1620dc2146107c7578063a217fddf146107ab578063b89eb11d14610695578063be4f3e8f14610661578063c87c4a011461033e578063d547741f146102fd578063d9f165dc146102a6578063f2fde38b146101da5763f7b188a51461015557600080fd5b346101d757806003193601126101d75761016d611873565b60015460ff8116156101ad5760ff19166001557f5db9ee0a495bf2e6ff9c91a7834c1ba4fdd244a5e8aa4e537bd38aeae4b073aa6020604051338152a180f35b60046040517f8dfc202b000000000000000000000000000000000000000000000000000000008152fd5b80fd5b50346101d75760203660031901126101d7576101f461152d565b6101fc611b62565b6001600160a01b038082169182156102755774ffffffffffffffffffffffffffffffffffffffff006001549160081b1674ffffffffffffffffffffffffffffffffffffffff001982161760015560081c167f8be0079c531659141344cd1fd0a4f28419497f9722a3daafe3b4186f6b6457e0600080a380f35b602484604051907f1e4fbdf70000000000000000000000000000000000000000000000000000000082526004820152fd5b50346101d75760203660031901126101d7576001600160a01b036102c861152d565b6102d0611873565b167fffffffffffffffffffffffff0000000000000000000000000000000000000000600654161760065580f35b50346101d75760403660031901126101d75761033a60043561031d611517565b908084528360205261033560016040862001546118ad565b611952565b5080f35b5060c03660031901126101d75761035361152d565b61035b611543565b906103646119c8565b6003546040517f23b872dd000000000000000000000000000000000000000000000000000000006020820152336024808301919091526001600160a01b039092166044820152903560648201526103db906103cc81608481015b03601f198101835282611663565b6001600160a01b038316611bbd565b6040516370a0823160e01b81523060048201526020816024816001600160a01b0387165afa801561058657849061062d575b61041b915060643590611685565b60206001600160a01b0360a48160035416948760405196879485937fa1e8320900000000000000000000000000000000000000000000000000000000855216600484015260243560248401526001600160a01b0389166044840152606435606484015260843560848401525af19182156105865784926105f9575b50604051906370a0823160e01b82523060048301526020826024816001600160a01b0388165afa9182156105ee5785926105ba575b50808210610591575050604051634e4bc84760e01b81526020816004816001600160a01b037f0000000000000000000000000000000000000000000000000000000000000000165afa90811561058657849161054f575b5060a435036105425761053f916001600160a01b03339116611b06565b80f35b61053f9160a435336119fe565b90506020813d60201161057e575b8161056a60209383611663565b81010312610579575138610522565b600080fd5b3d915061055d565b6040513d86823e3d90fd5b60449161059d916116a8565b6040519063d28d3eb560e01b825260048201526064356024820152fd5b9091506020813d6020116105e6575b816105d660209383611663565b81010312610579575190386104cb565b3d91506105c9565b6040513d87823e3d90fd5b9091506020813d602011610625575b8161061560209383611663565b8101031261057957519038610496565b3d9150610608565b506020813d602011610659575b8161064760209383611663565b810103126105795761041b905161040d565b3d915061063a565b50346101d75760203660031901126101d7576040809160043581526002602052206001815491015482519182526020820152f35b50346101d757806003196060368201126107a85767ffffffffffffffff906004358281116107a3576106cb903690600401611559565b91909260243590811161079f576106e6903690600401611559565b9190936106f1611543565b916106fa6117e0565b6001600160a01b0394856003541693843b1561079b5788966107688894610759986040519b8c9a8b998a987fb89eb11d000000000000000000000000000000000000000000000000000000008a52606060048b015260648a01916117bf565b928784030160248801526117bf565b9116604483015203925af18015610790576107805750f35b6107899061164f565b6101d75780f35b6040513d84823e3d90fd5b8880fd5b8480fd5b505050fd5b50fd5b50346101d757806003193601126101d757602090604051908152f35b50346101d75760603660031901126101d7576107e1611517565b816107ea611543565b916107f36116b5565b5060646001600160a01b039182600354168360405196879586947fa1620dc200000000000000000000000000000000000000000000000000000000865260043560048701521660248501521660448301525afa801561079057829183809261086c575b505061086890604051938493846115cf565b0390f35b909150610868935061089092503d8091833e6108888183611663565b810190611740565b909238610856565b50346101d75760403660031901126101d7576108b2611517565b6108ba6116b5565b50816001600160a01b03604481600354169360405194859384927f9deb5fd400000000000000000000000000000000000000000000000000000000845260043560048501521660248301525afa801561079057829183809261086c57505061086890604051938493846115cf565b50346101d75760403660031901126101d7576001600160a01b03604061094c611517565b92600435815280602052209116600052602052602060ff604060002054166040519015158152f35b50346101d757806003193601126101d75760206001600160a01b0360015460081c16604051908152f35b5036600319016101208112610c4057610100136101d7576101043567ffffffffffffffff8111610c40576109d6903690600401611559565b906001600160a01b0390817f0000000000000000000000000000000000000000000000000000000000000000163303610c865760243591828552602093600285528460408720604051610a288161161d565b6001825492838352015492839101526044351490811591610c79575b5015610a745760046040517f7fee69a1000000000000000000000000000000000000000000000000000000008152fd5b826060918101031261079f57610af384610a8d84611ba9565b946040610a9b838701611ba9565b9501359584806005541691604051958694859384937fb464631b0000000000000000000000000000000000000000000000000000000085521660048401602090939291936001600160a01b0360408201951681520152565b03915afa908115610c21578691610c44575b50858260065416803b15610c40576040517fc1bf9e580000000000000000000000000000000000000000000000000000000081526001600160a01b0384166004820152602481018790529082908290604490829084905af1801561079057610c2c575b5050604051937fdbceb005000000000000000000000000000000000000000000000000000000008552600485015260408460248173__$cee652c4e9f55bc124e1380243e2f45138$__5af4938415610c215786958795610be2575b505061053f948280610bd89316941684611b06565b6004541690611b06565b91945094506040853d604011610c19575b81610c0060409383611663565b81010312610c15578451940151928482610bc3565b8580fd5b3d9150610bf3565b6040513d88823e3d90fd5b610c359061164f565b610c15578538610b68565b5080fd5b90508481813d8311610c72575b610c5b8183611663565b81010312610c1557610c6c906116ce565b38610b05565b503d610c51565b9050606435141538610a44565b60246040517fd7f73334000000000000000000000000000000000000000000000000000000008152336004820152fd5b50346101d757806003193601126101d757610ccf611873565b610cd76119c8565b600160ff19815416176001557f62e78cea01bee320cd4e420270b5ea74000d11b0c9f74754ebdbfc544b05a2586020604051338152a180f35b50346101d757806003193601126101d75760206040517fa49807205ce4d355092ef5a8a18f56e8913cf4a201fbe287825b095693c217758152f35b50346101d757806003193601126101d757610d64611b62565b60006001600160a01b0360015474ffffffffffffffffffffffffffffffffffffffff0019811660015560081c167f8be0079c531659141344cd1fd0a4f28419497f9722a3daafe3b4186f6b6457e08280a380f35b50346101d75760203660031901126101d757610dd261152d565b610dda6117e0565b816001600160a01b03806003541692833b15610e3e576024908360405195869485937f6ae0b1540000000000000000000000000000000000000000000000000000000085521660048401525af1801561079057610e35575080f35b61053f9061164f565b8280fd5b50346101d75760203660031901126101d7576040600435918060208351610e688161161d565b828152015282815260026020522060405190610e838261161d565b600181549182845201546020830191818352159081610ee5575b50610eb45760408093505191518252516020820152f35b602483604051907f78d0dbfc0000000000000000000000000000000000000000000000000000000082526004820152fd5b90501538610e9d565b50346101d757806003193601126101d75760206001600160a01b0360035416604051908152f35b50346101d757806003193601126101d757602060ff600154166040519015158152f35b50346101d757806003193601126101d7576040517fb88c91480000000000000000000000000000000000000000000000000000000081523060048201526020816024816001600160a01b037f0000000000000000000000000000000000000000000000000000000000000000165afa908115610790578291610fc0575b602082604051908152f35b90506020813d602011610fee575b81610fdb60209383611663565b81010312610c4057602091505138610fb5565b3d9150610fce565b50346101d75760403660031901126101d75767ffffffffffffffff600435818111610e3e5736602382011215610e3e578060040135918083116111185760249160059136848660051b84010111610c155783359080821161111457366023830112156111145781600401359081116111145760069036868260061b8501011161111057611081611b62565b611089611b62565b8087036110e657875b87811061109d578880f35b818110156110d35780861b8501870135895260026020526040892081841b85018881013582556044013560019182015501611092565b8689634e487b7160e01b81526032600452fd5b60046040517f947d5a84000000000000000000000000000000000000000000000000000000008152fd5b8780fd5b8680fd5b8380fd5b5060803660031901126101d75761113161152d565b81602435916064356111416119c8565b6001600160a01b039384831694604051916370a0823160e01b80845230600485015260209384816024818c5afa801561137c578390899061134b575b6111879250611685565b84846003541660848b6040519b8c9384927fa6b97e27000000000000000000000000000000000000000000000000000000008452346004850152602484015288604484015260443560648401525af1978815611311578a9861131c575b5060405191825230600483015284826024818c5afa918215611311578a926112de575b508082106112b6575050508160049160405192838092634e4bc84760e01b82527f0000000000000000000000000000000000000000000000000000000000000000165afa9081156112ab578392889261127a575b50500361126f57505061053f913390611b06565b61053f9350336119fe565b8193508092503d83116112a4575b6112928183611663565b81010312610c1557819051388061125b565b503d611288565b6040513d89823e3d90fd5b604492916112c3916116a8565b906040519163d28d3eb560e01b835260048301526024820152fd5b9091508481813d831161130a575b6112f68183611663565b8101031261130657519038611207565b8980fd5b503d6112ec565b6040513d8c823e3d90fd5b9097508481813d8311611344575b6113348183611663565b81010312611306575196386111e4565b503d61132a565b50508481813d8311611375575b6113628183611663565b810103126111105782611187915161117d565b503d611358565b6040513d8a823e3d90fd5b50346101d75760403660031901126101d7576113a1611517565b336001600160a01b038216036113bd5761033a90600435611952565b60046040517f6697b232000000000000000000000000000000000000000000000000000000008152fd5b50346101d75760403660031901126101d75761033a600435611407611517565b908084528360205261141f60016040862001546118ad565b6118d3565b50346101d757806003193601126101d75760206001600160a01b0360045416604051908152f35b50346101d75760203660031901126101d757600160406020926004358152808452200154604051908152f35b905034610c40576020366003190112610c40576004357fffffffff000000000000000000000000000000000000000000000000000000008116809103610e3e57602092507f7965db0b0000000000000000000000000000000000000000000000000000000081149081156114ed575b5015158152f35b7f01ffc9a700000000000000000000000000000000000000000000000000000000915014386114e6565b602435906001600160a01b038216820361057957565b600435906001600160a01b038216820361057957565b604435906001600160a01b038216820361057957565b9181601f840112156105795782359167ffffffffffffffff8311610579576020838186019501011161057957565b60005b83811061159a5750506000910152565b818101518382015260200161158a565b906020916115c381518092818552858086019101611587565b601f01601f1916010190565b9061161a93926001600160a01b0391835216602082015260606040820152602061160583516040606085015260a08401906115aa565b920151906080605f19828503019101526115aa565b90565b6040810190811067ffffffffffffffff82111761163957604052565b634e487b7160e01b600052604160045260246000fd5b67ffffffffffffffff811161163957604052565b90601f8019910116810190811067ffffffffffffffff82111761163957604052565b9190820180921161169257565b634e487b7160e01b600052601160045260246000fd5b9190820391821161169257565b604051906116c28261161d565b60606020838281520152565b51906001600160a01b038216820361057957565b67ffffffffffffffff811161163957601f01601f191660200190565b81601f82011215610579578051611714816116e2565b926117226040519485611663565b818452602082840101116105795761161a9160208085019101611587565b916060838303126105795782519261175a602082016116ce565b92604082015167ffffffffffffffff92838211610579570190604082820312610579576040519261178a8461161d565b8251818111610579578261179f9185016116fe565b84526020830151908111610579576117b792016116fe565b602082015290565b908060209392818452848401376000828201840152601f01601f1916010190565b3360009081527f7d7ffb7a348e1c6a02869081a26547b49160dd3df72d1d75a570eb9b698292ec60205260409020547fa49807205ce4d355092ef5a8a18f56e8913cf4a201fbe287825b095693c217759060ff161561183c5750565b604490604051907fe2517d3f0000000000000000000000000000000000000000000000000000000082523360048301526024820152fd5b3360009081527fad3228b676f7d3cd4284a5443f17f1962b36e491b30a40b2405849e597ba5fb5602052604081205460ff161561183c5750565b80600052600060205260406000203360005260205260ff604060002054161561183c5750565b90600091808352826020526001600160a01b036040842092169182845260205260ff6040842054161560001461194d57808352826020526040832082845260205260408320600160ff198254161790557f2f8788117e7eff1d82e926ec794901d17c78024a50270940304540a733656f0d339380a4600190565b505090565b90600091808352826020526001600160a01b036040842092169182845260205260ff60408420541660001461194d5780835282602052604083208284526020526040832060ff1981541690557ff6391f5c32d9c69d2a47ea670b442974b53935d1edc7fd64eb21e047a839171b339380a4600190565b60ff600154166119d457565b60046040517fd93c0665000000000000000000000000000000000000000000000000000000008152fd5b604080516001600160a01b0394851660208083019190915292909416908401526060830193909352908290600190611a3981608081016103be565b8360005260028352611a9960406000209160405195869485947fdc203137000000000000000000000000000000000000000000000000000000008652805460048701520154602485015260448401526080606484015260848301906115aa565b0381346001600160a01b037f0000000000000000000000000000000000000000000000000000000000000000165af18015611afa57611ad6575050565b813d8311611af3575b611ae98183611663565b8101031261057957565b503d611adf565b6040513d6000823e3d90fd5b6040517fa9059cbb0000000000000000000000000000000000000000000000000000000060208201526001600160a01b03929092166024830152604480830193909352918152611b6091611b5b606483611663565b611bbd565b565b6001600160a01b0360015460081c163303611b7957565b60246040517f118cdaa7000000000000000000000000000000000000000000000000000000008152336004820152fd5b35906001600160a01b038216820361057957565b6001600160a01b031690611c08600080836020829551910182875af13d15611c79573d90611bea826116e2565b91611bf86040519384611663565b82523d84602084013e5b84611c81565b908151918215159283611c51575b505050611c205750565b602490604051907f5274afe70000000000000000000000000000000000000000000000000000000082526004820152fd5b819293509060209181010312610c405760200151908115918215036101d75750388080611c16565b606090611c02565b90611cc05750805115611c9657805190602001fd5b60046040517f1425ea42000000000000000000000000000000000000000000000000000000008152fd5b81511580611d0b575b611cd1575090565b6024906001600160a01b03604051917f9996b315000000000000000000000000000000000000000000000000000000008352166004820152fd5b50803b15611cc956fea26469706673582212203f10994251066c87e77f967782f24468555bf835e22f516d791a44e1d2388bbd64736f6c6343000818003360806040523461002c5761001233610031565b5061001c336100d1565b5060405161160590816101508239f35b600080fd5b6001600160a01b031660008181527f7d7ffb7a348e1c6a02869081a26547b49160dd3df72d1d75a570eb9b698292ec60205260408120549091907fa49807205ce4d355092ef5a8a18f56e8913cf4a201fbe287825b095693c217759060ff166100cc57808352826020526040832082845260205260408320600160ff19825416179055600080516020611755833981519152339380a4600190565b505090565b6001600160a01b031660008181527fad3228b676f7d3cd4284a5443f17f1962b36e491b30a40b2405849e597ba5fb5602052604081205490919060ff1661014b57818052816020526040822081835260205260408220600160ff1982541617905533916000805160206117558339815191528180a4600190565b509056fe608060408181526004908136101561001657600080fd5b600092833560e01c90816301ffc9a714610bd957508063248a9ca314610baf5780632f2ff15d14610b8757806336568abe14610b275780636ae0b15414610a105780636ee4035d146109ce57806375b238fc1461099357806380dd9a1f1461092b5780638369166d146108d657806391d14854146108915780639deb5fd41461085f578063a1620dc214610812578063a1e8320914610630578063a217fddf14610615578063a5be5f7a146105f6578063a6b97e271461043a578063b89eb11d1461012a5763d547741f146100ea57600080fd5b34610126578060031936011261012657610122913561011d600161010c610c78565b9383875286602052862001546111a3565b611248565b5080f35b8280fd5b508290346104365760603660031901126104365767ffffffffffffffff9083358281116104325761015e9036908601610eed565b60249391933582811161042e5761017b6101ab9136908901610eed565b6101a2610186610ca9565b9761018f611110565b87519561019b87610d46565b36916110c9565b845236916110c9565b916020918281019384526001600160a01b03861687526001948584528720905190815183811161041b579086916101e28254610d0c565b93601f948581116103ef575b50869085831160011461038d5761021d92918c9183610382575b50508160011b916000199060031b1c19161790565b81555b01935192835192831161036f576102378554610d0c565b828111610339575b50809183116001146102d85750819061026d9388926102cd5750508160011b916000199060031b1c19161790565b90555b60025490680100000000000000008210156102ba5781610298916102b7949301600255610cbf565b9091906001600160a01b038084549260031b9316831b921b1916179055565b80f35b602484604187634e487b7160e01b835252fd5b015190508880610208565b908593601f198416868a52838a20938a905b8282106103205750508411610307575b505050811b019055610270565b015160001960f88460031b161c191690558780806102fa565b84840151865589979095019493840193908101906102ea565b61036090868a52828a208480870160051c820192858810610366575b0160051c0190610f1b565b8961023f565b92508192610355565b60248860418b634e487b7160e01b835252fd5b015190508d80610208565b838c52878c209190601f1984168d5b8a8282106103d957505090848795949392106103c0575b505050811b018155610220565b015160001960f88460031b161c191690558c80806103b3565b8385015186558d9890950194938401930161039c565b61041590848d52888d208780860160051c8201928b8710610366570160051c0190610f1b565b8c6101ee565b60248960418c634e487b7160e01b835252fd5b8580fd5b8380fd5b5080fd5b508260803660031901126105f3578235610452610c78565b9060443561046083836112be565b509290936001600160a01b03809416938751956315ab88c960e31b87526020878b81895afa9687156105e95788976105b8575b5084811061059c5750916105189593918795938951956104b287610d78565b600287528a366020890137816104c788610fc0565b911690526104d486610fcd565b9116905287518096819582947f7ff36ab50000000000000000000000000000000000000000000000000000000084528c84015260806024840152608483019061106d565b336044830152606435606483015203925af1908115610592578291610570575b50805160001981019290831161055d576020846105558585610fdd565b519051908152f35b80601186634e487b7160e01b6024945252fd5b61058c91503d8084833e6105848183610d94565b810190610ff1565b84610538565b83513d84823e3d90fd5b89856044928b519263d28d3eb560e01b84528301526024820152fd5b6105db91975060203d6020116105e2575b6105d38183610d94565b8101906110aa565b958a610493565b503d6105c9565b89513d8a823e3d90fd5b80fd5b8382346104365781600319360112610436576020906002549051908152f35b83823461043657816003193601126104365751908152602090f35b50829060a036600319011261043657610647610c93565b9160243592610654610ca9565b9060643590610664838288611482565b5096908381106107f657506001600160a01b0380921693828751987f095ea7b3000000000000000000000000000000000000000000000000000000008a521692838a8a01528260248a015260209889816044818b8b5af180156105e95790889695949392916107ae575b508851966106db88610d78565b6002885289368c8a01376106ee88610fc0565b526106f887610fcd565b9116905283896107468951978896879586947f38ed1739000000000000000000000000000000000000000000000000000000008652850152602484015260a0604484015260a483019061106d565b336064830152608435608483015203925af1908115610592578291610794575b50805160001981019290831161078157509061055591610fdd565b80601187634e487b7160e01b6024945252fd5b6107a891503d8084833e6105848183610d94565b85610766565b909192939495508981813d83116107ef575b6107ca8183610d94565b810103126107eb5751801515036107e7579086949392918b6106ce565b8680fd5b8780fd5b503d6107c0565b888460449289519263d28d3eb560e01b84528301526024820152fd5b5082346105f35760603660031901126105f3575061084d61085b92610835610c78565b61083d610ca9565b91610846610f7b565b5035611482565b909391925193849384610ec8565b0390f35b5082346105f357816003193601126105f3575061084d61085b92610881610c78565b9061088a610f7b565b50356112be565b5090346101265781600319360112610126578160209360ff926108b2610c78565b903582528186526001600160a01b0383832091168252855220541690519015158152f35b838234610436576020366003190112610436576109188161085b936001600160a01b03610901610c93565b610909610f7b565b50168152600160205220610f94565b9051918291602083526020830190610e9b565b8382346104365760203660031901126104365780916001600160a01b03610950610c93565b1681526001602052209061085b610972600161096b85610db6565b9401610db6565b6109858351948486958652850190610e5b565b908382036020850152610e5b565b838234610436578160031936011261043657602090517fa49807205ce4d355092ef5a8a18f56e8913cf4a201fbe287825b095693c217758152f35b5090346101265760203660031901126101265735916002548310156105f357506001600160a01b03610a01602093610cbf565b92905490519260031b1c168152f35b503461012657602036600319011261012657600191610a2d610c93565b90610a36611110565b6001600160a01b03809216808652610a5f858695816020528820610a5981610f32565b01610f32565b85945b610a6a578580f35b600280549081871015610b2157849183610a8389610cbf565b949054600395861b1c1614610a9f575050508380950194610a62565b93925094509460001992838101908111610b0e579061029885610ac4610ad194610cbf565b9054908a1b1c1691610cbf565b8354908115610afb57500192610ae684610cbf565b81939154921b1b191690555538808080808580f35b866031602492634e487b7160e01b835252fd5b602488601185634e487b7160e01b835252fd5b50508580f35b50829034610436578060031936011261043657610b42610c78565b90336001600160a01b03831603610b5f5750610122919235611248565b8390517f6697b232000000000000000000000000000000000000000000000000000000008152fd5b50346101265780600319360112610126576101229135610baa600161010c610c78565b6111c9565b50903461012657602036600319011261012657816020936001923581528085522001549051908152f35b8490843461012657602036600319011261012657357fffffffff00000000000000000000000000000000000000000000000000000000811680910361012657602092507f7965db0b000000000000000000000000000000000000000000000000000000008114908115610c4e575b5015158152f35b7f01ffc9a70000000000000000000000000000000000000000000000000000000091501483610c47565b602435906001600160a01b0382168203610c8e57565b600080fd5b600435906001600160a01b0382168203610c8e57565b604435906001600160a01b0382168203610c8e57565b600254811015610cf65760026000527f405787fa12a823e0f2b7631cc41b3ba8828b3321ca811111fa75cd3aa3bb5ace0190600090565b634e487b7160e01b600052603260045260246000fd5b90600182811c92168015610d3c575b6020831014610d2657565b634e487b7160e01b600052602260045260246000fd5b91607f1691610d1b565b6040810190811067ffffffffffffffff821117610d6257604052565b634e487b7160e01b600052604160045260246000fd5b6060810190811067ffffffffffffffff821117610d6257604052565b90601f8019910116810190811067ffffffffffffffff821117610d6257604052565b90604051918260008254610dc981610d0c565b90818452602094600191600181169081600014610e395750600114610dfa575b505050610df892500383610d94565b565b600090815285812095935091905b818310610e21575050610df89350820101388080610de9565b85548884018501529485019487945091830191610e08565b92505050610df894925060ff191682840152151560051b820101388080610de9565b919082519283825260005b848110610e87575050826000602080949584010152601f8019910116010190565b602081830181015184830182015201610e66565b610ec5916020610eb48351604084526040840190610e5b565b920151906020818403910152610e5b565b90565b6001600160a01b03610ec5949360609383521660208201528160408201520190610e9b565b9181601f84011215610c8e5782359167ffffffffffffffff8311610c8e5760208381860195010111610c8e57565b818110610f26575050565b60008155600101610f1b565b610f3c8154610d0c565b9081610f46575050565b81601f60009311600114610f58575055565b908083918252610f77601f60208420940160051c840160018501610f1b565b5555565b60405190610f8882610d46565b60606020838281520152565b90604051610fa181610d46565b6020610fbb60018395610fb381610db6565b855201610db6565b910152565b805115610cf65760200190565b805160011015610cf65760400190565b8051821015610cf65760209160051b010190565b906020908183820312610c8e57825167ffffffffffffffff93848211610c8e570181601f82011215610c8e578051938411610d62578360051b906040519461103b85840187610d94565b85528380860192820101928311610c8e578301905b82821061105e575050505090565b81518152908301908301611050565b90815180825260208080930193019160005b82811061108d575050505090565b83516001600160a01b03168552938101939281019260010161107f565b90816020910312610c8e57516001600160a01b0381168103610c8e5790565b92919267ffffffffffffffff8211610d6257604051916110f3601f8201601f191660200184610d94565b829481845281830111610c8e578281602093846000960137010152565b3360009081527f7d7ffb7a348e1c6a02869081a26547b49160dd3df72d1d75a570eb9b698292ec60205260409020547fa49807205ce4d355092ef5a8a18f56e8913cf4a201fbe287825b095693c217759060ff161561116c5750565b604490604051907fe2517d3f0000000000000000000000000000000000000000000000000000000082523360048301526024820152fd5b80600052600060205260406000203360005260205260ff604060002054161561116c5750565b90600091808352826020526001600160a01b036040842092169182845260205260ff6040842054161560001461124357808352826020526040832082845260205260408320600160ff198254161790557f2f8788117e7eff1d82e926ec794901d17c78024a50270940304540a733656f0d339380a4600190565b505090565b90600091808352826020526001600160a01b036040842092169182845260205260ff6040842054166000146112435780835282602052604083208284526020526040832060ff1981541690557ff6391f5c32d9c69d2a47ea670b442974b53935d1edc7fd64eb21e047a839171b339380a4600190565b90916112c8610f7b565b506002805460009485949290855b8381106113045750505050506001600160a01b0383166000526001602052610ec56040600020929392610f94565b61130d81610cbf565b906001600160a01b039054600392604090815180916315ab88c960e31b82526020928391818860049889938c1b1c165afa9081156114775760009161145a575b508280519261135b84610d78565b8a845236908401378461136d83610fc0565b9116905261137a81610fcd565b84881690528361138987610cbf565b905490871b1c1660008351809263d06ca61f60e01b82528d8783015281806113bc6024978989840152604483019061106d565b03915afa9283156114505750600092611435575b508151600019810193908411611422575050906113ec91610fdd565b51898111611400575b5050506001016112d6565b909198506001929950976114138a610cbf565b9054911b1c16979038806113f5565b601190634e487b7160e01b600052526000fd5b61144991923d8091833e6105848183610d94565b90386113d0565b513d6000823e3d90fd5b6114719150823d84116105e2576105d38183610d94565b3861134d565b83513d6000823e3d90fd5b92909261148d610f7b565b5060009260009460009160028054935b8481106114cc575050505050506001600160a01b0383166000526001602052610ec56040600020929392610f94565b60006040878151916114dd83610d78565b858352803660208501376114f083610fc0565b926001600160a01b0393848a16905261150881610fcd565b84891690528361151787610cbf565b96905460039785518094819363d06ca61f60e01b83526004998a8401528261154a6024998b8b840152604483019061106d565b03938c1b1c165afa92831561145057506000926115b4575b5081516000198101939084116114225750509061157e91610fdd565b518a8111611592575b50505060010161149d565b909199506001929a50986115a58b610cbf565b9054911b1c1698903880611587565b6115c891923d8091833e6105848183610d94565b903861156256fea26469706673582212203f53f878ff82cc932db612943c3555ff2fc4bd7f6dac216655d51e58f62b6d2264736f6c634300081800332f8788117e7eff1d82e926ec794901d17c78024a50270940304540a733656f0d2f8788117e7eff1d82e926ec794901d17c78024a50270940304540a733656f0d",
  "linkReferences": {
    "contracts/src/lib/HoneyFeeMath.sol": {
      "HoneyFeeMath": [
        {
          "length": 20,
          "start": 3774
        }
      ]
    }
  },
  "deployedLinkReferences": {
    "contracts/src/lib/HoneyFeeMath.sol": {
      "HoneyFeeMath": [
        {
          "length": 20,
          "start": 2974
        }
      ]
    }
  }
}