{
  "_format": "hh-sol-artifact-1",
  "contractName": "HoneyExecutor",
  "sourceName": "contracts/src/HoneyExecutor.sol",
  "abi": [
    {
      "inputs": [],
      "stateMutability": "nonpayable",
      "type": "constructor"
    },
    {
      "inputs": [],
      "name": "AccessControlBadConfirmation",
      "type": "error"
    },
    {
      "inputs": [
        {
          "internalType": "address",
          "name": "account",
          "type": "address"
        },
        {
          "internalType": "bytes32",
          "name": "neededRole",
          "type": "bytes32"
        }
      ],
      "name": "AccessControlUnauthorizedAccount",
      "type": "error"
    },
    {
      "inputs": [
        {
          "internalType": "uint256",
          "name": "amountOut",
          "type": "uint256"
        },
        {
          "internalType": "uint256",
          "name": "expectedAmountOut",
          "type": "uint256"
        }
      ],
      "name": "InsufficientOutputAmount",
      "type": "error"
    },
    {
      "anonymous": false,
      "inputs": [
        {
          "indexed": true,
          "internalType": "bytes32",
          "name": "role",
          "type": "bytes32"
        },
        {
          "indexed": true,
          "internalType": "bytes32",
          "name": "previousAdminRole",
          "type": "bytes32"
        },
        {
          "indexed": true,
          "internalType": "bytes32",
          "name": "newAdminRole",
          "type": "bytes32"
        }
      ],
      "name": "RoleAdminChanged",
      "type": "event"
    },
    {
      "anonymous": false,
      "inputs": [
        {
          "indexed": true,
          "internalType": "bytes32",
          "name": "role",
          "type": "bytes32"
        },
        {
          "indexed": true,
          "internalType": "address",
          "name": "account",
          "type": "address"
        },
        {
          "indexed": true,
          "internalType": "address",
          "name": "sender",
          "type": "address"
        }
      ],
      "name": "RoleGranted",
      "type": "event"
    },
    {
      "anonymous": false,
      "inputs": [
        {
          "indexed": true,
          "internalType": "bytes32",
          "name": "role",
          "type": "bytes32"
        },
        {
          "indexed": true,
          "internalType": "address",
          "name": "account",
          "type": "address"
        },
        {
          "indexed": true,
          "internalType": "address",
          "name": "sender",
          "type": "address"
        }
      ],
      "name": "RoleRevoked",
      "type": "event"
    },
    {
      "inputs": [],
      "name": "DEFAULT_ADMIN_ROLE",
      "outputs": [
        {
          "internalType": "bytes32",
          "name": "",
          "type": "bytes32"
        }
      ],
      "stateMutability": "view",
      "type": "function"
    },
    {
      "inputs": [
        {
          "internalType": "string",
          "name": "name",
          "type": "string"
        },
        {
          "internalType": "string",
          "name": "routerURI",
          "type": "string"
        },
        {
          "internalType": "address",
          "name": "routerId",
          "type": "address"
        }
      ],
      "name": "addRouter",
      "outputs": [],
      "stateMutability": "nonpayable",
      "type": "function"
    },
    {
      "inputs": [
        {
          "internalType": "uint256",
          "name": "amountIn",
          "type": "uint256"
        },
        {
          "internalType": "address",
          "name": "tokenIn",
          "type": "address"
        },
        {
          "internalType": "address",
          "name": "tokenOut",
          "type": "address"
        }
      ],
      "name": "bestRouter",
      "outputs": [
        {
          "internalType": "uint256",
          "name": "",
          "type": "uint256"
        },
        {
          "internalType": "address",
          "name": "",
          "type": "address"
        },
        {
          "components": [
            {
              "internalType": "string",
              "name": "name",
              "type": "string"
            },
            {
              "internalType": "string",
              "name": "routerURI",
              "type": "string"
            }
          ],
          "internalType": "struct IHoneyExecutor.Router",
          "name": "",
          "type": "tuple"
        }
      ],
      "stateMutability": "view",
      "type": "function"
    },
    {
      "inputs": [
        {
          "internalType": "bytes32",
          "name": "role",
          "type": "bytes32"
        }
      ],
      "name": "getRoleAdmin",
      "outputs": [
        {
          "internalType": "bytes32",
          "name": "",
          "type": "bytes32"
        }
      ],
      "stateMutability": "view",
      "type": "function"
    },
    {
      "inputs": [
        {
          "internalType": "address",
          "name": "routerId",
          "type": "address"
        }
      ],
      "name": "getRouter",
      "outputs": [
        {
          "components": [
            {
              "internalType": "string",
              "name": "name",
              "type": "string"
            },
            {
              "internalType": "string",
              "name": "routerURI",
              "type": "string"
            }
          ],
          "internalType": "struct IHoneyExecutor.Router",
          "name": "",
          "type": "tuple"
        }
      ],
      "stateMutability": "view",
      "type": "function"
    },
    {
      "inputs": [],
      "name": "getRouterCount",
      "outputs": [
        {
          "internalType": "uint256",
          "name": "",
          "type": "uint256"
        }
      ],
      "stateMutability": "view",
      "type": "function"
    },
    {
      "inputs": [
        {
          "internalType": "bytes32",
          "name": "role",
          "type": "bytes32"
        },
        {
          "internalType": "address",
          "name": "account",
          "type": "address"
        }
      ],
      "name": "grantRole",
      "outputs": [],
      "stateMutability": "nonpayable",
      "type": "function"
    },
    {
      "inputs": [
        {
          "internalType": "bytes32",
          "name": "role",
          "type": "bytes32"
        },
        {
          "internalType": "address",
          "name": "account",
          "type": "address"
        }
      ],
      "name": "hasRole",
      "outputs": [
        {
          "internalType": "bool",
          "name": "",
          "type": "bool"
        }
      ],
      "stateMutability": "view",
      "type": "function"
    },
    {
      "inputs": [
        {
          "internalType": "address",
          "name": "routerId",
          "type": "address"
        }
      ],
      "name": "removeRouter",
      "outputs": [],
      "stateMutability": "nonpayable",
      "type": "function"
    },
    {
      "inputs": [
        {
          "internalType": "bytes32",
          "name": "role",
          "type": "bytes32"
        },
        {
          "internalType": "address",
          "name": "callerConfirmation",
          "type": "address"
        }
      ],
      "name": "renounceRole",
      "outputs": [],
      "stateMutability": "nonpayable",
      "type": "function"
    },
    {
      "inputs": [
        {
          "internalType": "bytes32",
          "name": "role",
          "type": "bytes32"
        },
        {
          "internalType": "address",
          "name": "account",
          "type": "address"
        }
      ],
      "name": "revokeRole",
      "outputs": [],
      "stateMutability": "nonpayable",
      "type": "function"
    },
    {
      "inputs": [
        {
          "internalType": "uint256",
          "name": "",
          "type": "uint256"
        }
      ],
      "name": "routerIds",
      "outputs": [
        {
          "internalType": "address",
          "name": "",
          "type": "address"
        }
      ],
      "stateMutability": "view",
      "type": "function"
    },
    {
      "inputs": [
        {
          "internalType": "address",
          "name": "",
          "type": "address"
        }
      ],
      "name": "routers",
      "outputs": [
        {
          "internalType": "string",
          "name": "name",
          "type": "string"
        },
        {
          "internalType": "string",
          "name": "routerURI",
          "type": "string"
        }
      ],
      "stateMutability": "view",
      "type": "function"
    },
    {
      "inputs": [
        {
          "internalType": "bytes4",
          "name": "interfaceId",
          "type": "bytes4"
        }
      ],
      "name": "supportsInterface",
      "outputs": [
        {
          "internalType": "bool",
          "name": "",
          "type": "bool"
        }
      ],
      "stateMutability": "view",
      "type": "function"
    },
    {
      "inputs": [
        {
          "internalType": "address",
          "name": "tokenOut",
          "type": "address"
        },
        {
          "internalType": "uint256",
          "name": "amountOutMin",
          "type": "uint256"
        },
        {
          "internalType": "address",
          "name": "to",
          "type": "address"
        }
      ],
      "name": "swapETHToTokens",
      "outputs": [
        {
          "internalType": "uint256",
          "name": "",
          "type": "uint256"
        }
      ],
      "stateMutability": "payable",
      "type": "function"
    },
    {
      "inputs": [
        {
          "internalType": "address",
          "name": "tokenIn",
          "type": "address"
        },
        {
          "internalType": "uint256",
          "name": "amountIn",
          "type": "uint256"
        },
        {
          "internalType": "uint256",
          "name": "amountOutMin",
          "type": "uint256"
        },
        {
          "internalType": "address",
          "name": "to",
          "type": "address"
        }
      ],
      "name": "swapTokensToETH",
      "outputs": [
        {
          "internalType": "uint256",
          "name": "",
          "type": "uint256"
        }
      ],
      "stateMutability": "payable",
      "type": "function"
    },
    {
      "inputs": [
        {
          "internalType": "address",
          "name": "tokenIn",
          "type": "address"
        },
        {
          "internalType": "uint256",
          "name": "amountIn",
          "type": "uint256"
        },
        {
          "internalType": "address",
          "name": "tokenOut",
          "type": "address"
        },
        {
          "internalType": "uint256",
          "name": "amountOutMin",
          "type": "uint256"
        },
        {
          "internalType": "address",
          "name": "to",
          "type": "address"
        }
      ],
      "name": "swapTokensToTokens",
      "outputs": [
        {
          "internalType": "uint256",
          "name": "",
          "type": "uint256"
        }
      ],
      "stateMutability": "payable",
      "type": "function"
    },
    {
      "stateMutability": "payable",
      "type": "receive"
    }
  ],
  "bytecode": "0x6080604052346100225761001233610027565b506040516113fe90816100b88239f35b600080fd5b6001600160a01b031660008181527fad3228b676f7d3cd4284a5443f17f1962b36e491b30a40b2405849e597ba5fb5602052604081205490919060ff166100b357818052816020526040822081835260205260408220600160ff1982541617905533917f2f8788117e7eff1d82e926ec794901d17c78024a50270940304540a733656f0d8180a4600190565b509056fe608060409080825260049182361015610023575b505050361561002157600080fd5b005b600091823560e01c90816301ffc9a714610d2657508063248a9ca314610cfc5780632f2ff15d14610cd257806336568abe14610c7457806361ee103114610c105780636ae0b15414610af75780636ee4035d14610ab557806380dd9a1f14610a4e5780638369166d146109f657806391d14854146109b157806395eb0870146107b8578063a217fddf1461079e578063a5be5f7a14610780578063b89eb11d14610481578063d219d1f3146102c6578063d547741f146102835763fc7a6a23036100135760a036600319011261027f576100fb610df6565b9260243593610108610de0565b916001600160a01b03608435818116936064359185900361027b5761012e86828b6112b7565b50929081811061025f57505082169386519863095ea7b360e01b8a526020998a818061017385888b8401602090939291936001600160a01b0360408201951681520152565b03818d8b5af180156102555792608495928c989795928c95610228575b50838b519a8b998a987f3f3f80c3000000000000000000000000000000000000000000000000000000008a5289015216602487015260448601526064850152165af192831561021d5780936101e8575b505051908152f35b909192508382813d8311610216575b6102018183610f32565b810103126102135750519038806101e0565b80fd5b503d6101f7565b8251903d90823e3d90fd5b610247908a3d8c1161024e575b61023f8183610f32565b8101906110cc565b5038610190565b503d610235565b89513d8c823e3d90fd5b60449186918a519263d28d3eb560e01b84528301526024820152fd5b8780fd5b5080fd5b508290346102c257806003193601126102c2576102be91356102b960016102a8610dc5565b93838752866020528620015461119c565b611241565b5080f35b8280fd5b50606036600319011261027f576102db610df6565b92602493602435916102eb610de0565b926102f4611027565b508596869387946002546001600160a01b039384809416975b8281106103a757505050169182885260209860018a5261032e888a206110a0565b5081811061038b57505091604491889493875196879586947fbed2d5e800000000000000000000000000000000000000000000000000000000865285015216602483015234905af192831561021d5780936101e857505051908152f35b604491859189519263d28d3eb560e01b84528301526024820152fd5b90919293506103b581610e79565b90546003918c5190632550332960e11b825273eeeeeeeeeeeeeeeeeeeeeeeeeeeeeeeeeeeeeeee8b8301528b86830152346044830152816064818b6020968795891b1c165afa918215610475578e92610443575b50508d8111610422575b5050600101908493929161030d565b86919d5060019295509c61043586610e79565b9054911b1c16939038610413565b90809250813d831161046e575b61045a8183610f32565b8101031261046a57513880610409565b8c80fd5b503d610450565b8e8e51903d90823e3d90fd5b503461027f57606036600319011261027f5767ffffffffffffffff90833582811161077c576104b39036908601610ff9565b602493919335828111610778576104d06105009136908901610ff9565b6104f76104db610de0565b976104e461112b565b8751956104f087610f00565b36916110e4565b845236916110e4565b916020918281019384526001600160a01b038616875260019485845287209051908151838111610765579086916105378254610ec6565b93601f94858111610739575b5086908583116001146106d75761057292918c9183610622575b50508160011b916000199060031b1c19161790565b81555b0193519283519283116106c45761058c8554610ec6565b82811161068e575b508091831160011461062d575081906105c29388926106225750508160011b916000199060031b1c19161790565b90555b600254906801000000000000000082101561060f57816105ed9161060c949301600255610e79565b9091906001600160a01b038084549260031b9316831b921b1916179055565b80f35b602484604187634e487b7160e01b835252fd5b01519050388061055d565b908593601f198416868a52838a20938a905b828210610675575050841161065c575b505050811b0190556105c5565b015160001960f88460031b161c1916905538808061064f565b848401518655899790950194938401939081019061063f565b6106b590868a52828a208480870160051c8201928588106106bb575b0160051c0190611040565b38610594565b925081926106aa565b60248860418b634e487b7160e01b835252fd5b838c52878c209190601f1984168d5b8a828210610723575050908487959493921061070a575b505050811b018155610575565b015160001960f88460031b161c191690553880806106fd565b8385015186558d989095019493840193016106e6565b61075f90848d52888d208780860160051c8201928b87106106bb570160051c0190611040565b38610543565b60248960418c634e487b7160e01b835252fd5b8580fd5b8380fd5b503461027f578160031936011261027f576020906002549051908152f35b503461027f578160031936011261027f5751908152602090f35b50608036600319011261027f576107cd610df6565b6024359060443594606435956001600160a01b03968781168091036109ad576107f4611027565b50869787908895816002549116965b8181106108ec57505081169283895260209960018b52610824898b206110a0565b5081811061025f575050865163095ea7b360e01b81526001600160a01b039091168482019081526020810187905289908290819060400103818b895af180156108e257928995949289926064956108c5575b50885197889687957f796449dd000000000000000000000000000000000000000000000000000000008752860152602485015260448401525af192831561021d5780936101e857505051908152f35b6108db90883d8a1161024e5761023f8183610f32565b5038610876565b87513d8a823e3d90fd5b6108f581610e79565b90546003918c5190632550332960e11b82528b8b83015273eeeeeeeeeeeeeeeeeeeeeeeeeeeeeeeeeeeeeeee60248301528c604483015281606481896020968795891b1c165afa918215610475578e9261097f575b50508d811161095e575b5050600101610803565b84919d5060019295509c61097186610e79565b9054911b1c16939038610954565b90809250813d83116109a6575b6109968183610f32565b8101031261046a5751388061094a565b503d61098c565b8680fd5b5082346102c257816003193601126102c2578160209360ff926109d2610dc5565b903582528186526001600160a01b0383832091168252855220541690519015158152f35b503461027f57602036600319011261027f57610a3781610a4a936001600160a01b03610a20610df6565b610a28611027565b501681526001602052206110a0565b9051918291602083526020830190610e4c565b0390f35b503461027f57602036600319011261027f5780916001600160a01b03610a72610df6565b16815260016020522090610a4a610a946001610a8d85610f54565b9401610f54565b610aa78351948486958652850190610e0c565b908382036020850152610e0c565b5082346102c25760203660031901126102c257359160025483101561021357506001600160a01b03610ae8602093610e79565b92905490519260031b1c168152f35b508290346102c25760203660031901126102c257600191610b16610df6565b90610b1f61112b565b6001600160a01b03809216808652610b48858695816020528820610b4281611057565b01611057565b85945b610b53578580f35b600280549081871015610c0a57849183610b6c89610e79565b949054600395861b1c1614610b88575050508380950194610b4b565b93925094509460001992838101908111610bf757906105ed85610bad610bba94610e79565b9054908a1b1c1691610e79565b8354908115610be457500192610bcf84610e79565b81939154921b1b191690555581808080808580f35b866031602492634e487b7160e01b835252fd5b602488601185634e487b7160e01b835252fd5b50508580f35b509190346102135760603660031901126102135750610a4a610c4e606092610c36610dc5565b610c3e610de0565b91610c47611027565b50356112b7565b919390946001600160a01b03815196879687521660208601528401526060830190610e4c565b503461027f578060031936011261027f57610c8d610dc5565b90336001600160a01b03831603610caa57506102be919235611241565b8390517f6697b232000000000000000000000000000000000000000000000000000000008152fd5b508290346102c257806003193601126102c2576102be9135610cf760016102a8610dc5565b6111c2565b5082346102c25760203660031901126102c257816020936001923581528085522001549051908152f35b839085346102c25760203660031901126102c257357fffffffff0000000000000000000000000000000000000000000000000000000081168091036102c257602092507f7965db0b000000000000000000000000000000000000000000000000000000008114908115610d9b575b5015158152f35b7f01ffc9a70000000000000000000000000000000000000000000000000000000091501483610d94565b602435906001600160a01b0382168203610ddb57565b600080fd5b604435906001600160a01b0382168203610ddb57565b600435906001600160a01b0382168203610ddb57565b919082519283825260005b848110610e38575050826000602080949584010152601f8019910116010190565b602081830181015184830182015201610e17565b610e76916020610e658351604084526040840190610e0c565b920151906020818403910152610e0c565b90565b600254811015610eb05760026000527f405787fa12a823e0f2b7631cc41b3ba8828b3321ca811111fa75cd3aa3bb5ace0190600090565b634e487b7160e01b600052603260045260246000fd5b90600182811c92168015610ef6575b6020831014610ee057565b634e487b7160e01b600052602260045260246000fd5b91607f1691610ed5565b6040810190811067ffffffffffffffff821117610f1c57604052565b634e487b7160e01b600052604160045260246000fd5b90601f8019910116810190811067ffffffffffffffff821117610f1c57604052565b90604051918260008254610f6781610ec6565b90818452602094600191600181169081600014610fd75750600114610f98575b505050610f9692500383610f32565b565b600090815285812095935091905b818310610fbf575050610f969350820101388080610f87565b85548884018501529485019487945091830191610fa6565b92505050610f9694925060ff191682840152151560051b820101388080610f87565b9181601f84011215610ddb5782359167ffffffffffffffff8311610ddb5760208381860195010111610ddb57565b6040519061103482610f00565b60606020838281520152565b81811061104b575050565b60008155600101611040565b6110618154610ec6565b908161106b575050565b81601f6000931160011461107d575055565b90808391825261109c601f60208420940160051c840160018501611040565b5555565b906040516110ad81610f00565b60206110c7600183956110bf81610f54565b855201610f54565b910152565b90816020910312610ddb57518015158103610ddb5790565b92919267ffffffffffffffff8211610f1c576040519161110e601f8201601f191660200184610f32565b829481845281830111610ddb578281602093846000960137010152565b3360009081527fad3228b676f7d3cd4284a5443f17f1962b36e491b30a40b2405849e597ba5fb5602052604081205460ff16156111655750565b604490604051907fe2517d3f0000000000000000000000000000000000000000000000000000000082523360048301526024820152fd5b80600052600060205260406000203360005260205260ff60406000205416156111655750565b90600091808352826020526001600160a01b036040842092169182845260205260ff6040842054161560001461123c57808352826020526040832082845260205260408320600160ff198254161790557f2f8788117e7eff1d82e926ec794901d17c78024a50270940304540a733656f0d339380a4600190565b505090565b90600091808352826020526001600160a01b036040842092169182845260205260ff60408420541660001461123c5780835282602052604083208284526020526040832060ff1981541690557ff6391f5c32d9c69d2a47ea670b442974b53935d1edc7fd64eb21e047a839171b339380a4600190565b919290926112c3611027565b506002546000948594855b8381106112fc5750505050506001600160a01b0383166000526001602052610e7660406000209293926110a0565b61130581610e79565b906001600160a01b03905491600392604090815192632550332960e11b84528489166004850152848b166024850152876044850152836064818760209586958b1b1c165afa9182156113be5750600091611392575b509050898111611370575b5050506001016112ce565b909198506001929950976113838a610e79565b9054911b1c1697903880611365565b82813d83116113b7575b6113a68183610f32565b81010312610213575051803861135a565b503d61139c565b513d6000823e3d90fdfea2646970667358221220d3557ab0af9e5579aa8d9841545d0053a69ba5e777643862317f786f9632ffaf64736f6c63430008180033",
  "linkReferences": {},
  "deployedLinkReferences": {}
}