{
  "_format": "hh-sol-artifact-1",
  "contractName": "HoneyFactory",
  "sourceName": "contracts/src/HoneyFactory.sol",
  "abi": [
    {
      "inputs": [
        {
          "internalType": "address",
          "name": "_tokenMap",
          "type": "address"
        },
        {
          "internalType": "address",
          "name": "_router",
          "type": "address"
        }
      ],
      "stateMutability": "nonpayable",
      "type": "constructor"
    },
    {
      "inputs": [],
      "name": "AccessControlBadConfirmation",
      "type": "error"
    },
    {
      "inputs": [
        {
          "internalType": "address",
          "name": "account",
          "type": "address"
        },
        {
          "internalType": "bytes32",
          "name": "neededRole",
          "type": "bytes32"
        }
      ],
      "name": "AccessControlUnauthorizedAccount",
      "type": "error"
    },
    {
      "inputs": [],
      "name": "AlreadyExists",
      "type": "error"
    },
    {
      "inputs": [],
      "name": "InvalidLength",
      "type": "error"
    },
    {
      "inputs": [],
      "name": "InvalidMessageSender",
      "type": "error"
    },
    {
      "inputs": [
        {
          "internalType": "uint256",
          "name": "chainSelector",
          "type": "uint256"
        }
      ],
      "name": "InvalidPeer",
      "type": "error"
    },
    {
      "inputs": [
        {
          "internalType": "address",
          "name": "router",
          "type": "address"
        }
      ],
      "name": "InvalidRouter",
      "type": "error"
    },
    {
      "inputs": [],
      "name": "NotCreated",
      "type": "error"
    },
    {
      "inputs": [
        {
          "internalType": "address",
          "name": "owner",
          "type": "address"
        }
      ],
      "name": "OwnableInvalidOwner",
      "type": "error"
    },
    {
      "inputs": [
        {
          "internalType": "address",
          "name": "account",
          "type": "address"
        }
      ],
      "name": "OwnableUnauthorizedAccount",
      "type": "error"
    },
    {
      "inputs": [],
      "name": "RouterAddressCannotBeZero",
      "type": "error"
    },
    {
      "anonymous": false,
      "inputs": [
        {
          "indexed": true,
          "internalType": "address",
          "name": "previousOwner",
          "type": "address"
        },
        {
          "indexed": true,
          "internalType": "address",
          "name": "newOwner",
          "type": "address"
        }
      ],
      "name": "OwnershipTransferred",
      "type": "event"
    },
    {
      "anonymous": false,
      "inputs": [
        {
          "indexed": false,
          "internalType": "uint256",
          "name": "sourceChainSelector",
          "type": "uint256"
        },
        {
          "indexed": false,
          "internalType": "address",
          "name": "receiver",
          "type": "address"
        },
        {
          "indexed": false,
          "internalType": "uint256",
          "name": "amount",
          "type": "uint256"
        }
      ],
      "name": "ReleasedTokens",
      "type": "event"
    },
    {
      "anonymous": false,
      "inputs": [
        {
          "indexed": true,
          "internalType": "bytes32",
          "name": "role",
          "type": "bytes32"
        },
        {
          "indexed": true,
          "internalType": "bytes32",
          "name": "previousAdminRole",
          "type": "bytes32"
        },
        {
          "indexed": true,
          "internalType": "bytes32",
          "name": "newAdminRole",
          "type": "bytes32"
        }
      ],
      "name": "RoleAdminChanged",
      "type": "event"
    },
    {
      "anonymous": false,
      "inputs": [
        {
          "indexed": true,
          "internalType": "bytes32",
          "name": "role",
          "type": "bytes32"
        },
        {
          "indexed": true,
          "internalType": "address",
          "name": "account",
          "type": "address"
        },
        {
          "indexed": true,
          "internalType": "address",
          "name": "sender",
          "type": "address"
        }
      ],
      "name": "RoleGranted",
      "type": "event"
    },
    {
      "anonymous": false,
      "inputs": [
        {
          "indexed": true,
          "internalType": "bytes32",
          "name": "role",
          "type": "bytes32"
        },
        {
          "indexed": true,
          "internalType": "address",
          "name": "account",
          "type": "address"
        },
        {
          "indexed": true,
          "internalType": "address",
          "name": "sender",
          "type": "address"
        }
      ],
      "name": "RoleRevoked",
      "type": "event"
    },
    {
      "inputs": [],
      "name": "DEFAULT_ADMIN_ROLE",
      "outputs": [
        {
          "internalType": "bytes32",
          "name": "",
          "type": "bytes32"
        }
      ],
      "stateMutability": "view",
      "type": "function"
    },
    {
      "inputs": [],
      "name": "HONEY_ROUTER_ROLE",
      "outputs": [
        {
          "internalType": "bytes32",
          "name": "",
          "type": "bytes32"
        }
      ],
      "stateMutability": "view",
      "type": "function"
    },
    {
      "inputs": [
        {
          "internalType": "address",
          "name": "honeyRouter",
          "type": "address"
        }
      ],
      "name": "addRouter",
      "outputs": [],
      "stateMutability": "nonpayable",
      "type": "function"
    },
    {
      "inputs": [
        {
          "internalType": "address",
          "name": "token",
          "type": "address"
        }
      ],
      "name": "createPool",
      "outputs": [],
      "stateMutability": "nonpayable",
      "type": "function"
    },
    {
      "inputs": [
        {
          "internalType": "address",
          "name": "receiver",
          "type": "address"
        },
        {
          "internalType": "uint256",
          "name": "destinationChainSelector",
          "type": "uint256"
        },
        {
          "internalType": "address",
          "name": "token",
          "type": "address"
        },
        {
          "internalType": "uint256",
          "name": "amount",
          "type": "uint256"
        }
      ],
      "name": "crossChainCall",
      "outputs": [],
      "stateMutability": "payable",
      "type": "function"
    },
    {
      "inputs": [],
      "name": "getEquitoFee",
      "outputs": [
        {
          "internalType": "uint256",
          "name": "",
          "type": "uint256"
        }
      ],
      "stateMutability": "view",
      "type": "function"
    },
    {
      "inputs": [
        {
          "internalType": "uint256",
          "name": "chainSelector",
          "type": "uint256"
        }
      ],
      "name": "getPeer",
      "outputs": [
        {
          "components": [
            {
              "internalType": "bytes32",
              "name": "lower",
              "type": "bytes32"
            },
            {
              "internalType": "bytes32",
              "name": "upper",
              "type": "bytes32"
            }
          ],
          "internalType": "struct bytes64",
          "name": "",
          "type": "tuple"
        }
      ],
      "stateMutability": "view",
      "type": "function"
    },
    {
      "inputs": [
        {
          "internalType": "address",
          "name": "token",
          "type": "address"
        }
      ],
      "name": "getPool",
      "outputs": [
        {
          "internalType": "address",
          "name": "",
          "type": "address"
        }
      ],
      "stateMutability": "view",
      "type": "function"
    },
    {
      "inputs": [
        {
          "internalType": "bytes32",
          "name": "role",
          "type": "bytes32"
        }
      ],
      "name": "getRoleAdmin",
      "outputs": [
        {
          "internalType": "bytes32",
          "name": "",
          "type": "bytes32"
        }
      ],
      "stateMutability": "view",
      "type": "function"
    },
    {
      "inputs": [
        {
          "internalType": "bytes32",
          "name": "role",
          "type": "bytes32"
        },
        {
          "internalType": "address",
          "name": "account",
          "type": "address"
        }
      ],
      "name": "grantRole",
      "outputs": [],
      "stateMutability": "nonpayable",
      "type": "function"
    },
    {
      "inputs": [
        {
          "internalType": "bytes32",
          "name": "role",
          "type": "bytes32"
        },
        {
          "internalType": "address",
          "name": "account",
          "type": "address"
        }
      ],
      "name": "hasRole",
      "outputs": [
        {
          "internalType": "bool",
          "name": "",
          "type": "bool"
        }
      ],
      "stateMutability": "view",
      "type": "function"
    },
    {
      "inputs": [],
      "name": "owner",
      "outputs": [
        {
          "internalType": "address",
          "name": "",
          "type": "address"
        }
      ],
      "stateMutability": "view",
      "type": "function"
    },
    {
      "inputs": [
        {
          "internalType": "uint256",
          "name": "",
          "type": "uint256"
        }
      ],
      "name": "peers",
      "outputs": [
        {
          "internalType": "bytes32",
          "name": "lower",
          "type": "bytes32"
        },
        {
          "internalType": "bytes32",
          "name": "upper",
          "type": "bytes32"
        }
      ],
      "stateMutability": "view",
      "type": "function"
    },
    {
      "inputs": [
        {
          "components": [
            {
              "internalType": "uint256",
              "name": "blockNumber",
              "type": "uint256"
            },
            {
              "internalType": "uint256",
              "name": "sourceChainSelector",
              "type": "uint256"
            },
            {
              "components": [
                {
                  "internalType": "bytes32",
                  "name": "lower",
                  "type": "bytes32"
                },
                {
                  "internalType": "bytes32",
                  "name": "upper",
                  "type": "bytes32"
                }
              ],
              "internalType": "struct bytes64",
              "name": "sender",
              "type": "tuple"
            },
            {
              "internalType": "uint256",
              "name": "destinationChainSelector",
              "type": "uint256"
            },
            {
              "components": [
                {
                  "internalType": "bytes32",
                  "name": "lower",
                  "type": "bytes32"
                },
                {
                  "internalType": "bytes32",
                  "name": "upper",
                  "type": "bytes32"
                }
              ],
              "internalType": "struct bytes64",
              "name": "receiver",
              "type": "tuple"
            },
            {
              "internalType": "bytes32",
              "name": "hashedData",
              "type": "bytes32"
            }
          ],
          "internalType": "struct EquitoMessage",
          "name": "message",
          "type": "tuple"
        },
        {
          "internalType": "bytes",
          "name": "messageData",
          "type": "bytes"
        }
      ],
      "name": "receiveMessage",
      "outputs": [],
      "stateMutability": "payable",
      "type": "function"
    },
    {
      "inputs": [
        {
          "internalType": "address",
          "name": "honeyRouter",
          "type": "address"
        }
      ],
      "name": "removeRouter",
      "outputs": [],
      "stateMutability": "nonpayable",
      "type": "function"
    },
    {
      "inputs": [],
      "name": "renounceOwnership",
      "outputs": [],
      "stateMutability": "nonpayable",
      "type": "function"
    },
    {
      "inputs": [
        {
          "internalType": "bytes32",
          "name": "role",
          "type": "bytes32"
        },
        {
          "internalType": "address",
          "name": "callerConfirmation",
          "type": "address"
        }
      ],
      "name": "renounceRole",
      "outputs": [],
      "stateMutability": "nonpayable",
      "type": "function"
    },
    {
      "inputs": [
        {
          "internalType": "bytes32",
          "name": "role",
          "type": "bytes32"
        },
        {
          "internalType": "address",
          "name": "account",
          "type": "address"
        }
      ],
      "name": "revokeRole",
      "outputs": [],
      "stateMutability": "nonpayable",
      "type": "function"
    },
    {
      "inputs": [
        {
          "internalType": "uint256[]",
          "name": "chainSelectors",
          "type": "uint256[]"
        },
        {
          "components": [
            {
              "internalType": "bytes32",
              "name": "lower",
              "type": "bytes32"
            },
            {
              "internalType": "bytes32",
              "name": "upper",
              "type": "bytes32"
            }
          ],
          "internalType": "struct bytes64[]",
          "name": "addresses",
          "type": "tuple[]"
        }
      ],
      "name": "setPeers",
      "outputs": [],
      "stateMutability": "nonpayable",
      "type": "function"
    },
    {
      "inputs": [
        {
          "internalType": "bytes4",
          "name": "interfaceId",
          "type": "bytes4"
        }
      ],
      "name": "supportsInterface",
      "outputs": [
        {
          "internalType": "bool",
          "name": "",
          "type": "bool"
        }
      ],
      "stateMutability": "view",
      "type": "function"
    },
    {
      "inputs": [
        {
          "internalType": "address",
          "name": "newOwner",
          "type": "address"
        }
      ],
      "name": "transferOwnership",
      "outputs": [],
      "stateMutability": "nonpayable",
      "type": "function"
    },
    {
      "inputs": [],
      "name": "weth",
      "outputs": [
        {
          "internalType": "address",
          "name": "",
          "type": "address"
        }
      ],
      "stateMutability": "pure",
      "type": "function"
    },
    {
      "inputs": [
        {
          "internalType": "address",
          "name": "token",
          "type": "address"
        },
        {
          "internalType": "uint256",
          "name": "amount",
          "type": "uint256"
        }
      ],
      "name": "withdrawFromPool",
      "outputs": [],
      "stateMutability": "nonpayable",
      "type": "function"
    }
  ],
  "bytecode": "0x60a0346200011f57601f6200433e38819003918201601f19168301916001600160401b03831184841017620001245780849260409485528339810103126200011f576200005a602062000052836200013a565b92016200013a565b90331562000106576000549060018060a01b03918260018060a01b031994338684161760005560405192823391167f8be0079c531659141344cd1fd0a4f28419497f9722a3daafe3b4186f6b6457e0600080a316908115620000f7575060805216906004541617600455620000cf336200014f565b5060405161415c9081620001e28239608051818181610544015281816108300152610d210152f35b635008268360e01b8152600490fd5b604051631e4fbdf760e01b815260006004820152602490fd5b600080fd5b634e487b7160e01b600052604160045260246000fd5b51906001600160a01b03821682036200011f57565b6001600160a01b031660008181527fac33ff75c19e70fe83507db0d683fd3465c996598dc972688b7ace676c89077b602052604081205490919060ff16620001dd5781805260026020526040822081835260205260408220600160ff1982541617905533917f2f8788117e7eff1d82e926ec794901d17c78024a50270940304540a733656f0d8180a4600190565b509056fe608060408181526004803610156200001657600080fd5b600092833560e01c90816301ffc9a7146200103957508063248a9ca3146200100d57806324ca984e1462000fdb5780632ef3f1a51462000f9e5780632f2ff15d1462000f6e57806336568abe1462000f075780633fc8cef31462000ed657806359a1aae11462000da55780635c42132e1462000cd257806367ebb6b21462000c215780636ae0b1541462000bef578063715018a61462000b85578063879d182d14620007d05780638da5cb5b14620007a85780639049f9d2146200064857806391d1485414620005fe578063a217fddf14620005e1578063a628b47f1462000455578063bbe4f6db14620003da578063be4f3e8f14620003a7578063c1bf9e581462000238578063d547741f14620001f15763f2fde38b146200013857600080fd5b34620001ed576020366003190112620001ed5762000155620010dd565b90620001606200144d565b6001600160a01b03809216928315620001be5750506000548273ffffffffffffffffffffffffffffffffffffffff19821617600055167f8be0079c531659141344cd1fd0a4f28419497f9722a3daafe3b4186f6b6457e0600080a380f35b908460249251917f1e4fbdf7000000000000000000000000000000000000000000000000000000008352820152fd5b8280fd5b509034620001ed5780600319360112620001ed576200023491356200022e60016200021b620010f4565b93838752600260205286200154620011cf565b620013d4565b5080f35b50829034620003a35782600319360112620003a35762000257620010dd565b926024357f0a775b33f9a8a1bd7919099707cfe9320f63c8a6cd38fa171b61aacb968ce641806000526002602052826000203360005260205260ff8360002054161562000386575083946001600160a01b0380911673eeeeeeeeeeeeeeeeeeeeeeeeeeeeeeeeeeeeeeee9081811460001462000344575085526003602052828520541692833b1562000340578251627b8a6760e11b81529081019182523360208301529284918491908290849082906040015b03925af19081156200033757506200032157505080f35b6200032c906200113e565b620003345780f35b80fd5b513d84823e3d90fd5b8480fd5b8652506003602052828520541692833b1562000340578251627b8a6760e11b81529081019182523360208301529284918491908290849082906040016200030a565b8360449184519163e2517d3f60e01b835233908301526024820152fd5b5080fd5b5034620001ed576020366003190112620001ed579181923581526001602052206001815491015482519182526020820152f35b5034620001ed576020366003190112620001ed576001600160a01b03908162000402620010dd565b16908185526003602052828486205416156200042e575083839160209552600385522054169051908152f35b83517f8fead4d2000000000000000000000000000000000000000000000000000000008152fd5b506080366003190112620001ed576200046d620010dd565b91602435604435936001600160a01b0391828616809603620005dc57828451926020978885015216848301526064356060830152606082526080820182811067ffffffffffffffff821117620005c75791869391959285528588526001845284882095600186519788957fdc20313700000000000000000000000000000000000000000000000000000000875281549087015201546024850152604484015260806064840152805190816084850152885b828110620005ae57505060a483828a83839584010152601f8019910116810103019134907f0000000000000000000000000000000000000000000000000000000000000000165af1908115620005a5575062000578578280f35b813d83116200059d575b6200058e818362001153565b81010312620003345738808280f35b503d62000582565b513d85823e3d90fd5b81810186015188820160a401528895889550016200051e565b604186634e487b7160e01b6000525260246000fd5b600080fd5b505034620003a35781600319360112620003a35751908152602090f35b5034620001ed5781600319360112620001ed576001600160a01b038260209462000627620010f4565b9335815260028652209116600052825260ff81600020541690519015158152f35b509034620001ed576020366003190112620001ed576001600160a01b03908162000671620010dd565b16928385526003602052828286205416620007815773eeeeeeeeeeeeeeeeeeeeeeeeeeeeeeeeeeeeeeee84036200071d578151906114ae8083019183831067ffffffffffffffff8411176200070a575090829162002c798339039085f09283156200070057845260036020528320911673ffffffffffffffffffffffffffffffffffffffff1982541617905580f35b81513d86823e3d90fd5b876041602492634e487b7160e01b835252fd5b8151906117d18083019183831067ffffffffffffffff8411176200070a57506020918391620014a8833986815203019085f09283156200070057845260036020528320911673ffffffffffffffffffffffffffffffffffffffff1982541617905580f35b90517f23369fa6000000000000000000000000000000000000000000000000000000008152fd5b505034620003a35781600319360112620003a3576001600160a01b0360209254169051908152f35b509136600319016101208112620003a3576101001362000334576101043567ffffffffffffffff808211620001ed5736602383011215620001ed5781850135908111620001ed578101366024820111620001ed576001600160a01b0391827f000000000000000000000000000000000000000000000000000000000000000016330362000b5657602435918285526020906001825281878720885162000876816200110b565b600182549283835201549283910152604435149081159162000b48575b5015620008c2578787517f7fee69a1000000000000000000000000000000000000000000000000000000008152fd5b9085886060858a950312620003a357620008df6024860162001492565b96806064620008f16044890162001492565b970135961697848260448186541693895194859384927fb464631b00000000000000000000000000000000000000000000000000000000845216888301528c60248301525afa90811562000b3e57908291859162000af9575b5073eeeeeeeeeeeeeeeeeeeeeeeeeeeeeeeeeeeeeeee911681810362000a2457508352600384528483205416803b15620001ed578451627b8a6760e11b81529182018681526001600160a01b03891660208201528391839182908490829060400103925af1801562000a1a57620009f6575b5050907f40627f7438e2974529d03c9b047342d738a7a1759fed232175525a8c048c94449460609493925b8251948552840152820152a180f35b62000a069095949392956200113e565b62000a16579091928587620009bc565b8580fd5b84513d84823e3d90fd5b905083929398959697985260038452858220541691823b15620003a3578551627b8a6760e11b81529081018781526001600160a01b03861660208201529092839182908490829060400103925af1801562000aef5762000aae575b5091606093917f40627f7438e2974529d03c9b047342d738a7a1759fed232175525a8c048c94449593620009e7565b917f40627f7438e2974529d03c9b047342d738a7a1759fed232175525a8c048c94449593919662000ae2606096946200113e565b9691939550919362000a7f565b84513d89823e3d90fd5b809250868092503d831162000b36575b62000b15818362001153565b8101031262000b325751818116810362000b325781908b6200094a565b8380fd5b503d62000b09565b86513d86823e3d90fd5b905060643514153862000893565b84517fd7f733340000000000000000000000000000000000000000000000000000000081523381880152602490fd5b8334620003345780600319360112620003345762000ba26200144d565b806001600160a01b03815473ffffffffffffffffffffffffffffffffffffffff1981168355167f8be0079c531659141344cd1fd0a4f28419497f9722a3daafe3b4186f6b6457e08280a380f35b83346200033457602036600319011262000334576200023462000c11620010dd565b62000c1b62001176565b62001327565b50829034620003a3576020366003190112620003a35782813592806020835162000c4b816200110b565b82815201528381526001602052209083519262000c68846200110b565b60018354938486520154602085019381855215908162000cc8575b5062000c99575050825191518252516020820152f35b602492508451917f78d0dbfc000000000000000000000000000000000000000000000000000000008352820152fd5b9050158662000c83565b509034620001ed5782600319360112620001ed578051917fb88c914800000000000000000000000000000000000000000000000000000000835230908301526020826024816001600160a01b037f0000000000000000000000000000000000000000000000000000000000000000165afa91821562000d9b57839262000d5d575b6020838351908152f35b9091506020813d60201162000d92575b8162000d7c6020938362001153565b81010312620001ed576020925051903862000d53565b3d915062000d6d565b81513d85823e3d90fd5b5034620001ed5781600319360112620001ed5780359067ffffffffffffffff8083116200034057366023840112156200034057828201359281841162000a165760249260059236858760051b8501011162000ed25784359181831162000ece573660238401121562000ece578281013591821162000ece5760069136878260061b8601011162000eca5762000e396200144d565b62000e436200144d565b80880362000ea257895b88811062000e59578a80f35b8181101562000e905780871b86018801358b52600160208190528a8c2082861b87018a810135825560440135908201550162000e4d565b878b603285634e487b7160e01b835252fd5b5087517f947d5a84000000000000000000000000000000000000000000000000000000008152fd5b8980fd5b8880fd5b8780fd5b505034620003a35781600319360112620003a3576020905173eeeeeeeeeeeeeeeeeeeeeeeeeeeeeeeeeeeeeeee8152f35b50919034620003a35780600319360112620003a35762000f26620010f4565b90336001600160a01b0383160362000f46575062000234919235620013d4565b8390517f6697b232000000000000000000000000000000000000000000000000000000008152fd5b509034620001ed5780600319360112620001ed5762000234913562000f9860016200021b620010f4565b620012aa565b505034620003a35781600319360112620003a357602090517f0a775b33f9a8a1bd7919099707cfe9320f63c8a6cd38fa171b61aacb968ce6418152f35b83346200033457602036600319011262000334576200023462000ffd620010dd565b6200100762001176565b620011f6565b5034620001ed576020366003190112620001ed5781602093600192358152600285522001549051908152f35b92505034620001ed576020366003190112620001ed57357fffffffff000000000000000000000000000000000000000000000000000000008116809103620001ed57602092507f7965db0b000000000000000000000000000000000000000000000000000000008114908115620010b2575b5015158152f35b7f01ffc9a70000000000000000000000000000000000000000000000000000000091501438620010ab565b600435906001600160a01b0382168203620005dc57565b602435906001600160a01b0382168203620005dc57565b6040810190811067ffffffffffffffff8211176200112857604052565b634e487b7160e01b600052604160045260246000fd5b67ffffffffffffffff81116200112857604052565b90601f8019910116810190811067ffffffffffffffff8211176200112857604052565b3360009081527fac33ff75c19e70fe83507db0d683fd3465c996598dc972688b7ace676c89077b602052604081205460ff1615620011b15750565b6044906040519063e2517d3f60e01b82523360048301526024820152fd5b80600052600260205260406000203360005260205260ff6040600020541615620011b15750565b6001600160a01b031660008181527f2a44413c737edf57c9a9b5a5edce85f99936144e881302a0cfc518c4333a371f60205260408120549091907f0a775b33f9a8a1bd7919099707cfe9320f63c8a6cd38fa171b61aacb968ce6419060ff16620012a55780835260026020526040832082845260205260408320600160ff198254161790557f2f8788117e7eff1d82e926ec794901d17c78024a50270940304540a733656f0d339380a4600190565b505090565b9060009180835260026020526001600160a01b036040842092169182845260205260ff60408420541615600014620012a55780835260026020526040832082845260205260408320600160ff198254161790557f2f8788117e7eff1d82e926ec794901d17c78024a50270940304540a733656f0d339380a4600190565b6001600160a01b031660008181527f2a44413c737edf57c9a9b5a5edce85f99936144e881302a0cfc518c4333a371f60205260408120549091907f0a775b33f9a8a1bd7919099707cfe9320f63c8a6cd38fa171b61aacb968ce6419060ff1615620012a5578083526002602052604083208284526020526040832060ff1981541690557ff6391f5c32d9c69d2a47ea670b442974b53935d1edc7fd64eb21e047a839171b339380a4600190565b9060009180835260026020526001600160a01b036040842092169182845260205260ff604084205416600014620012a5578083526002602052604083208284526020526040832060ff1981541690557ff6391f5c32d9c69d2a47ea670b442974b53935d1edc7fd64eb21e047a839171b339380a4600190565b6001600160a01b036000541633036200146257565b60246040517f118cdaa7000000000000000000000000000000000000000000000000000000008152336004820152fd5b35906001600160a01b0382168203620005dc5756fe60a034620003a057601f90601f196001600160401b03620017d1388190038581018416850183811186821017620002a457859282916040528339602094859181010312620003a05751936001600160a01b0385168503620003a05762000064620003a5565b60128152712437b732bca837b7b6102628102a37b5b2b760711b858201526200008c620003a5565b916003928381526212141560ea1b878201528251858111620002a45784546001948582811c9216801562000395575b8a8310146200037f57818584931162000329575b508990858311600114620002c657600092620002ba575b505060001982871b1c191690841b1784555b8051948511620002a45760049687548481811c9116801562000299575b82821014620002845783811162000239575b5080928611600114620001cd575084955090849291600095620001c1575b50501b92600019911b1c19161790555b608052600780546001600160a01b031916339081179091556200017890620003c5565b50620001843362000468565b506040516112c79081620004ea823960805181818161013f0152818161021e01528181610395015281816104ba0152818161074c0152610cc50152f35b01519350388062000145565b939295859081168860005285600020956000905b898383106200021e575050501062000203575b50505050811b01905562000155565b01519060f884600019921b161c1916905538808080620001f4565b858701518955909701969485019488935090810190620001e1565b88600052816000208480890160051c820192848a106200027a575b0160051c019085905b8281106200026d57505062000127565b600081550185906200025d565b9250819262000254565b602289634e487b7160e01b6000525260246000fd5b90607f169062000115565b634e487b7160e01b600052604160045260246000fd5b015190503880620000e6565b908987941691886000528b6000209260005b8d828210620003125750508411620002f9575b505050811b018455620000f8565b015160001983891b60f8161c19169055388080620002eb565b8385015186558a97909501949384019301620002d8565b90915086600052896000208580850160051c8201928c861062000375575b918891869594930160051c01915b82811062000365575050620000cf565b6000815585945088910162000355565b9250819262000347565b634e487b7160e01b600052602260045260246000fd5b91607f1691620000bb565b600080fd5b60408051919082016001600160401b03811183821017620002a457604052565b6001600160a01b031660008181527fd8ef4509105c3edb0b04658b4528edc5ddd30ea5a81e623a2623c88db1eb54b660205260408120549091907fa49807205ce4d355092ef5a8a18f56e8913cf4a201fbe287825b095693c217759060ff16620004635780835260056020526040832082845260205260408320600160ff19825416179055600080516020620017b1833981519152339380a4600190565b505090565b6001600160a01b031660008181527f05b8ccbb9d4d8fb16ea74ce3c29a41f1b461fbdaff4714a0d9a8eb05499746bc602052604081205490919060ff16620004e55781805260056020526040822081835260205260408220600160ff198254161790553391600080516020620017b18339815191528180a4600190565b509056fe608060408181526004918236101561001657600080fd5b600092833560e01c918262f714ce14610c625750816301ffc9a714610bc157816306fdde0314610aca578163095ea7b314610a2257816318160ddd14610a0357816323b872dd146108f4578163248a9ca3146108c95781632f2ff15d1461089f578163313ce5671461088357816336568abe1461082457816351c6590a1461071f57816370a08231146106e957816375b238fc146106ae5781638f840ddd1461068f57816391d148541461064957816395d89b41146105445781639d7de6b31461029d578163a217fddf14610282578163a9059cbb14610251578163b6b55f25146101f6578163d547741f146101b257508063dd62ed3e146101675763fc0c546a1461012157600080fd5b34610163578160031936011261016357602090516001600160a01b037f0000000000000000000000000000000000000000000000000000000000000000168152f35b5080fd5b5034610163578060031936011261016357602091610183610d2a565b8261018c610d0f565b926001600160a01b03809316815260018652209116600052825280600020549051908152f35b919050346101f257806003193601126101f2576101ee91356101e960016101d7610d0f565b93838752600560205286200154610e24565b61102d565b5080f35b8280fd5b8390346101635760203660031901126101635761024b90356102438130336001600160a01b037f0000000000000000000000000000000000000000000000000000000000000000166110a5565b600654610e0a565b60065580f35b50503461016357806003193601126101635760209061027b610271610d2a565b6024359033610ed0565b5160018152f35b50503461016357816003193601126101635751908152602090f35b9050816003193601126101f25780358015610535576102ca6102c160065483610dc1565b60025490610dea565b92831561052657331561051057338552602091858352818620548181106104e457908087923384528386520383832055806002540360025582519081527fddf252ad1be2c89b69c2b068fc378daa952ba7f163c4a11628f55a4df523b3ef843392a38447928584106000146104a2576001600160a01b0390858183600754168651928380927f5c42132e0000000000000000000000000000000000000000000000000000000082525afa91821561049857849261046a575b505061038e8588610e17565b916103bd817f000000000000000000000000000000000000000000000000000000000000000016963388610e68565b6007541694853b1561046657608491855196879485937fa628b47f000000000000000000000000000000000000000000000000000000008552338b8601526024356024860152604485015260648401525af1801561045c5761042a575b50505061024b905b600654610e17565b67ffffffffffffffff82959395116104495752915061024b388061041a565b602483604187634e487b7160e01b835252fd5b81513d87823e3d90fd5b8380fd5b90809250813d8311610491575b6104818183610d89565b810103126101f257513880610382565b503d610477565b85513d86823e3d90fd5b5050505050806104df61024b92336001600160a01b037f000000000000000000000000000000000000000000000000000000000000000016610e68565b610422565b825163391434e360e21b8152338187019081526020810192909252604082018390529081906060010390fd5b82856024925191634b637e8f60e11b8352820152fd5b905051636067798b60e01b8152fd5b509051636067798b60e01b8152fd5b83833461016357816003193601126101635780519180938054916001908360011c926001851694851561063f575b602095868610811461062c5785895290811561060857506001146105b0575b6105ac87876105a2828c0383610d89565b5191829182610d40565b0390f35b81529295507f8a35acfbc15ff81a39ae7d344fd709f28e8600b4aa8c65c6b64bfe7fe36bd19b5b8284106105f557505050826105ac946105a292820101948680610591565b80548685018801529286019281016105d7565b60ff19168887015250505050151560051b83010192506105a2826105ac8680610591565b602484602285634e487b7160e01b835252fd5b93607f1693610572565b9050346101f257816003193601126101f2578160209360ff9261066a610d0f565b90358252600586526001600160a01b0383832091168252855220541690519015158152f35b5050346101635781600319360112610163576020906006549051908152f35b505034610163578160031936011261016357602090517fa49807205ce4d355092ef5a8a18f56e8913cf4a201fbe287825b095693c217758152f35b50503461016357602036600319011261016357806020926001600160a01b03610710610d2a565b16815280845220549051908152f35b83915034610163576020366003190112610163578035908115610816576107718230336001600160a01b037f0000000000000000000000000000000000000000000000000000000000000000166110a5565b600654806107fb575069021e19e0c9bab2400000905b33156107e5575061024b929361079f82600254610e0a565b6002553385528460205280852082815401905551908152837fddf252ad1be2c89b69c2b068fc378daa952ba7f163c4a11628f55a4df523b3ef60203393a3600654610e0a565b6024908486519163ec442f0560e01b8352820152fd5b6108109061080b60025485610dc1565b610dea565b90610787565b8351636067798b60e01b8152fd5b83833461016357806003193601126101635761083e610d0f565b90336001600160a01b0383160361085b57506101ee91923561102d565b8390517f6697b232000000000000000000000000000000000000000000000000000000008152fd5b5050346101635781600319360112610163576020905160128152f35b919050346101f257806003193601126101f2576101ee91356108c460016101d7610d0f565b610fac565b9050346101f25760203660031901126101f25781602093600192358152600585522001549051908152f35b90508234610a00576060366003190112610a0057610910610d2a565b610918610d0f565b91604435936001600160a01b038316808352600160205286832033845260205286832054916000198303610955575b60208861027b898989610ed0565b8683106109bb5781156109a557331561098f5750825260016020908152868320338452815291869020908590039055829061027b87610947565b60249084895191634a1406b160e11b8352820152fd5b6024908489519163e602df0560e01b8352820152fd5b87517ffb8f41b2000000000000000000000000000000000000000000000000000000008152339181019182526020820193909352604081018790528291506060010390fd5b80fd5b5050346101635781600319360112610163576020906002549051908152f35b9050346101f257816003193601126101f257610a3c610d2a565b602435903315610ab4576001600160a01b0316918215610a9e57508083602095338152600187528181208582528752205582519081527f8c5be1e5ebec7d5bd14f71427d1e84f3dd0314c0f7b2291e5b200ac8c7c3b925843392a35160018152f35b60249085855191634a1406b160e11b8352820152fd5b6024838686519163e602df0560e01b8352820152fd5b919050346101f257826003193601126101f25780519183600354906001908260011c92600181168015610bb7575b6020958686108214610ba45750848852908115610b825750600114610b29575b6105ac86866105a2828b0383610d89565b929550600383527fc2575a0e9e593c00f959f8c92f12db2869c3395a3b0502d05e2516446f71f85b5b828410610b6f57505050826105ac946105a2928201019438610b18565b8054868501880152928601928101610b52565b60ff191687860152505050151560051b83010192506105a2826105ac38610b18565b836022602492634e487b7160e01b835252fd5b93607f1693610af8565b9050346101f25760203660031901126101f25735907fffffffff0000000000000000000000000000000000000000000000000000000082168092036101f257602092507f7965db0b000000000000000000000000000000000000000000000000000000008214918215610c38575b50519015158152f35b7f01ffc9a70000000000000000000000000000000000000000000000000000000014915038610c2f565b838591346101f257816003193601126101f257610c7d610d0f565b9160ff7fa49807205ce4d355092ef5a8a18f56e8913cf4a201fbe287825b095693c217759182865260056020528086203387526020528520541615610cf55783610cf28635857f00000000000000000000000000000000000000000000000000000000000000006001600160a01b0316610e68565b80f35b63e2517d3f60e01b82523382860152602482015260449150fd5b602435906001600160a01b0382168203610d2557565b600080fd5b600435906001600160a01b0382168203610d2557565b6020808252825181830181905290939260005b828110610d7557505060409293506000838284010152601f8019910116010190565b818101860151848201604001528501610d53565b90601f8019910116810190811067ffffffffffffffff821117610dab57604052565b634e487b7160e01b600052604160045260246000fd5b81810292918115918404141715610dd457565b634e487b7160e01b600052601160045260246000fd5b8115610df4570490565b634e487b7160e01b600052601260045260246000fd5b91908201809211610dd457565b91908203918211610dd457565b80600052600560205260406000203360005260205260ff6040600020541615610e4a5750565b6044906040519063e2517d3f60e01b82523360048301526024820152fd5b916001600160a01b03604051927fa9059cbb000000000000000000000000000000000000000000000000000000006020850152166024830152604482015260448152608081019181831067ffffffffffffffff841117610dab57610ece92604052611110565b565b916001600160a01b03808416928315610f945716928315610f7c5760009083825281602052604082205490838210610f4a575091604082827fddf252ad1be2c89b69c2b068fc378daa952ba7f163c4a11628f55a4df523b3ef958760209652828652038282205586815220818154019055604051908152a3565b60405163391434e360e21b81526001600160a01b03919091166004820152602481019190915260448101839052606490fd5b602460405163ec442f0560e01b815260006004820152fd5b6024604051634b637e8f60e11b815260006004820152fd5b9060009180835260056020526001600160a01b036040842092169182845260205260ff604084205416156000146110285780835260056020526040832082845260205260408320600160ff198254161790557f2f8788117e7eff1d82e926ec794901d17c78024a50270940304540a733656f0d339380a4600190565b505090565b9060009180835260056020526001600160a01b036040842092169182845260205260ff604084205416600014611028578083526005602052604083208284526020526040832060ff1981541690557ff6391f5c32d9c69d2a47ea670b442974b53935d1edc7fd64eb21e047a839171b339380a4600190565b9290604051927f23b872dd0000000000000000000000000000000000000000000000000000000060208501526001600160a01b03809216602485015216604483015260648201526064815260a081019181831067ffffffffffffffff841117610dab57610ece926040525b6001600160a01b031690600080826020829451910182865af13d156111f2573d9067ffffffffffffffff82116111de579061116d916040519161115d6020601f19601f8401160184610d89565b82523d84602084013e5b846111fe565b9081519182151592836111b6575b5050506111855750565b602490604051907f5274afe70000000000000000000000000000000000000000000000000000000082526004820152fd5b819293509060209181010312610163576020015190811591821503610a00575038808061117b565b602483634e487b7160e01b81526041600452fd5b61116d90606090611167565b9061123d575080511561121357805190602001fd5b60046040517f1425ea42000000000000000000000000000000000000000000000000000000008152fd5b81511580611288575b61124e575090565b6024906001600160a01b03604051917f9996b315000000000000000000000000000000000000000000000000000000008352166004820152fd5b50803b1561124656fea264697066735822122076dc529b62fc1066ee0c4a429dbeca2703a9c141f94e1a9130d36d2f4e08077164736f6c634300081800332f8788117e7eff1d82e926ec794901d17c78024a50270940304540a733656f0d60803462000344576040906001600160401b0390808301828111828210176200024457835260128152602091712437b732bca837b7b6102628102a37b5b2b760711b83830152835184810181811083821117620002445785526003908181526212141560ea1b8582015283519083821162000244578254916001958684811c9416801562000339575b8885101462000323578190601f94858111620002cd575b50889085831160011462000266576000926200025a575b505060001982861b1c191690861b1783555b8051938411620002445760049586548681811c9116801562000239575b828210146200022457838111620001d9575b50809285116001146200016b57509383949184926000956200015f575b50501b92600019911b1c19161790555b600780546001600160a01b03191633908117909155620001449062000349565b506200015033620003ec565b505161102090816200046e8239f35b01519350388062000114565b92919084601f1981168860005285600020956000905b89838310620001be5750505010620001a3575b50505050811b01905562000124565b01519060f884600019921b161c191690553880808062000194565b85870151895590970196948501948893509081019062000181565b87600052816000208480880160051c8201928489106200021a575b0160051c019087905b8281106200020d575050620000f7565b60008155018790620001fd565b92508192620001f4565b602288634e487b7160e01b6000525260246000fd5b90607f1690620000e5565b634e487b7160e01b600052604160045260246000fd5b015190503880620000b6565b90889350601f19831691876000528a6000209260005b8c828210620002b657505084116200029d575b505050811b018355620000c8565b015160001983881b60f8161c191690553880806200028f565b8385015186558c979095019493840193016200027c565b90915085600052886000208580850160051c8201928b861062000319575b918a91869594930160051c01915b828110620003095750506200009f565b600081558594508a9101620002f9565b92508192620002eb565b634e487b7160e01b600052602260045260246000fd5b93607f169362000088565b600080fd5b6001600160a01b031660008181527fd8ef4509105c3edb0b04658b4528edc5ddd30ea5a81e623a2623c88db1eb54b660205260408120549091907fa49807205ce4d355092ef5a8a18f56e8913cf4a201fbe287825b095693c217759060ff16620003e75780835260056020526040832082845260205260408320600160ff198254161790556000805160206200148e833981519152339380a4600190565b505090565b6001600160a01b031660008181527f05b8ccbb9d4d8fb16ea74ce3c29a41f1b461fbdaff4714a0d9a8eb05499746bc602052604081205490919060ff16620004695781805260056020526040822081835260205260408220600160ff1982541617905533916000805160206200148e8339815191528180a4600190565b509056fe608060408181526004908136101561001657600080fd5b600092833560e01c908162f714ce14610c095750806301ffc9a714610b6857806306fdde0314610a73578063095ea7b3146109cb57806318160ddd146109ac57806323b872dd146108a1578063248a9ca3146108765780632f2ff15d1461084e578063313ce5671461083257806336568abe146107d257806370a082311461079c57806375b238fc146107615780638f840ddd1461074257806391d14854146106fc57806395d89b41146105f65780639d7de6b3146102d9578063a217fddf146102be578063a9059cbb1461028d578063d0e30db014610272578063d547741f14610234578063dd62ed3e146101e45763e8078d941461011557600080fd5b826003193601126101e05734156101d357600654806101b8575069021e19e0c9bab2400000915b33156101a3575061014f82600254610dc4565b600255336000526000602052806000208281540190555190815260007fddf252ad1be2c89b69c2b068fc378daa952ba7f163c4a11628f55a4df523b3ef60203393a361019d34600654610dc4565b60065580f35b83602492519163ec442f0560e01b8352820152fd5b6101cd906101c860025434610d6e565b610d97565b9161013c565b51636067798b60e01b8152fd5b8280fd5b838234610230578060031936011261023057602091610201610cd7565b8261020a610cbc565b926001600160a01b03809316815260018652209116600052825280600020549051908152f35b5080fd5b50346101e057806003193601126101e05761026e91356102696001610257610cbc565b93838752600560205286200154610dd1565b610f72565b5080f35b838060031936011261028a5761019d34600654610dc4565b80fd5b8382346102305780600319360112610230576020906102b76102ad610cd7565b6024359033610e15565b5160018152f35b83823461023057816003193601126102305751908152602090f35b5090816003193601126101e057803580156105e7576103066102fd60065483610d6e565b60025490610d97565b9283156105d85733156105c2573385526020918583528186205481811061059657908087923384528386520383832055806002540360025582519081527fddf252ad1be2c89b69c2b068fc378daa952ba7f163c4a11628f55a4df523b3ef843392a384479285841060001461056e57846001600160a01b03918083600754168651938480927f5c42132e0000000000000000000000000000000000000000000000000000000082525afa9182156105645786898692839561052b575b50826103d981936103d4888495610db7565b610db7565b99818115610522575b3390f1156105185782600754169185517f3fc8cef300000000000000000000000000000000000000000000000000000000815282818a81875afa92831561050e5786936104d5575b5050823b156104d157608492865197889586947fa628b47f000000000000000000000000000000000000000000000000000000008652338c870152602435602487015216604485015260648401525af180156104c757610495575b50505061019d905b600654610db7565b67ffffffffffffffff82959395116104b45752915061019d3880610485565b602483604187634e487b7160e01b835252fd5b81513d87823e3d90fd5b8480fd5b9080929350813d8311610507575b6104ed8183610d36565b810103126104d1575183811681036104d15790388061042a565b503d6104e3565b87513d88823e3d90fd5b84513d85823e3d90fd5b506108fc6103e2565b94505050508082813d831161055d575b6105458183610d36565b8101031261055957905190838689826103c2565b8380fd5b503d61053b565b85513d86823e3d90fd5b50849350808093508092953382f11561058b5761019d915061048d565b5051903d90823e3d90fd5b825163391434e360e21b8152338187019081526020810192909252604082018390529081906060010390fd5b82856024925191634b637e8f60e11b8352820152fd5b905051636067798b60e01b8152fd5b509051636067798b60e01b8152fd5b5082903461023057816003193601126102305780519180938054916001908360011c92600185169485156106f2575b60209586861081146106df578589529081156106bb5750600114610663575b61065f8787610655828c0383610d36565b5191829182610ced565b0390f35b81529295507f8a35acfbc15ff81a39ae7d344fd709f28e8600b4aa8c65c6b64bfe7fe36bd19b5b8284106106a8575050508261065f9461065592820101948680610644565b805486850188015292860192810161068a565b60ff19168887015250505050151560051b83010192506106558261065f8680610644565b602484602285634e487b7160e01b835252fd5b93607f1693610625565b5090346101e057816003193601126101e0578160209360ff9261071d610cbc565b90358252600586526001600160a01b0383832091168252855220541690519015158152f35b8382346102305781600319360112610230576020906006549051908152f35b838234610230578160031936011261023057602090517fa49807205ce4d355092ef5a8a18f56e8913cf4a201fbe287825b095693c217758152f35b83823461023057602036600319011261023057806020926001600160a01b036107c3610cd7565b16815280845220549051908152f35b508290346102305780600319360112610230576107ed610cbc565b90336001600160a01b0383160361080a575061026e919235610f72565b8390517f6697b232000000000000000000000000000000000000000000000000000000008152fd5b8382346102305781600319360112610230576020905160128152f35b50346101e057806003193601126101e05761026e91356108716001610257610cbc565b610ef1565b5090346101e05760203660031901126101e05781602093600192358152600585522001549051908152f35b50913461028a57606036600319011261028a576108bc610cd7565b6108c4610cbc565b91604435936001600160a01b038316808352600160205286832033845260205286832054916000198303610901575b6020886102b7898989610e15565b86831061096757811561095157331561093b575082526001602090815286832033845281529186902090859003905582906102b7386108f3565b60249084895191634a1406b160e11b8352820152fd5b6024908489519163e602df0560e01b8352820152fd5b87517ffb8f41b2000000000000000000000000000000000000000000000000000000008152339181019182526020820193909352604081018790528291506060010390fd5b8382346102305781600319360112610230576020906002549051908152f35b5090346101e057816003193601126101e0576109e5610cd7565b602435903315610a5d576001600160a01b0316918215610a4757508083602095338152600187528181208582528752205582519081527f8c5be1e5ebec7d5bd14f71427d1e84f3dd0314c0f7b2291e5b200ac8c7c3b925843392a35160018152f35b60249085855191634a1406b160e11b8352820152fd5b6024838686519163e602df0560e01b8352820152fd5b50346101e057826003193601126101e05780519183600354906001908260011c92600181168015610b5e575b6020958686108214610b4b5750848852908115610b295750600114610ad0575b61065f8686610655828b0383610d36565b929550600383527fc2575a0e9e593c00f959f8c92f12db2869c3395a3b0502d05e2516446f71f85b5b828410610b16575050508261065f94610655928201019438610abf565b8054868501880152928601928101610af9565b60ff191687860152505050151560051b83010192506106558261065f38610abf565b836022602492634e487b7160e01b835252fd5b93607f1693610a9f565b5090346101e05760203660031901126101e05735907fffffffff0000000000000000000000000000000000000000000000000000000082168092036101e057602092507f7965db0b000000000000000000000000000000000000000000000000000000008214918215610bdf575b50519015158152f35b7f01ffc9a70000000000000000000000000000000000000000000000000000000014915038610bd6565b9192905034610559578260031936011261055957803591610c28610cbc565b917fa49807205ce4d355092ef5a8a18f56e8913cf4a201fbe287825b095693c2177590818752600560205285872033885260205260ff868820541615610ca25750505083808093819382908215610c98575b6001600160a01b031690f115610c8e575080f35b51903d90823e3d90fd5b6108fc9150610c7a565b6044935063e2517d3f60e01b835233908301526024820152fd5b602435906001600160a01b0382168203610cd257565b600080fd5b600435906001600160a01b0382168203610cd257565b6020808252825181830181905290939260005b828110610d2257505060409293506000838284010152601f8019910116010190565b818101860151848201604001528501610d00565b90601f8019910116810190811067ffffffffffffffff821117610d5857604052565b634e487b7160e01b600052604160045260246000fd5b81810292918115918404141715610d8157565b634e487b7160e01b600052601160045260246000fd5b8115610da1570490565b634e487b7160e01b600052601260045260246000fd5b91908203918211610d8157565b91908201809211610d8157565b80600052600560205260406000203360005260205260ff6040600020541615610df75750565b6044906040519063e2517d3f60e01b82523360048301526024820152fd5b916001600160a01b03808416928315610ed95716928315610ec15760009083825281602052604082205490838210610e8f575091604082827fddf252ad1be2c89b69c2b068fc378daa952ba7f163c4a11628f55a4df523b3ef958760209652828652038282205586815220818154019055604051908152a3565b60405163391434e360e21b81526001600160a01b03919091166004820152602481019190915260448101839052606490fd5b602460405163ec442f0560e01b815260006004820152fd5b6024604051634b637e8f60e11b815260006004820152fd5b9060009180835260056020526001600160a01b036040842092169182845260205260ff60408420541615600014610f6d5780835260056020526040832082845260205260408320600160ff198254161790557f2f8788117e7eff1d82e926ec794901d17c78024a50270940304540a733656f0d339380a4600190565b505090565b9060009180835260056020526001600160a01b036040842092169182845260205260ff604084205416600014610f6d578083526005602052604083208284526020526040832060ff1981541690557ff6391f5c32d9c69d2a47ea670b442974b53935d1edc7fd64eb21e047a839171b339380a460019056fea26469706673582212204ab6c2c22f7f5984ba6154a7f9ffa1a261ebef1495c9799b99f61b4f226c68b064736f6c634300081800332f8788117e7eff1d82e926ec794901d17c78024a50270940304540a733656f0da2646970667358221220cd964b9599b380ff8bbbdae1be015cee828451652cdd1d61ba463c3ded98d9f164736f6c63430008180033",
  "linkReferences": {},
  "deployedLinkReferences": {}
}