{
  "_format": "hh-sol-artifact-1",
  "contractName": "WBNB",
  "sourceName": "contracts/src/tokens/WBNB.sol",
  "abi": [
    {
      "inputs": [],
      "stateMutability": "nonpayable",
      "type": "constructor"
    },
    {
      "inputs": [
        {
          "internalType": "address",
          "name": "spender",
          "type": "address"
        },
        {
          "internalType": "uint256",
          "name": "allowance",
          "type": "uint256"
        },
        {
          "internalType": "uint256",
          "name": "needed",
          "type": "uint256"
        }
      ],
      "name": "ERC20InsufficientAllowance",
      "type": "error"
    },
    {
      "inputs": [
        {
          "internalType": "address",
          "name": "sender",
          "type": "address"
        },
        {
          "internalType": "uint256",
          "name": "balance",
          "type": "uint256"
        },
        {
          "internalType": "uint256",
          "name": "needed",
          "type": "uint256"
        }
      ],
      "name": "ERC20InsufficientBalance",
      "type": "error"
    },
    {
      "inputs": [
        {
          "internalType": "address",
          "name": "approver",
          "type": "address"
        }
      ],
      "name": "ERC20InvalidApprover",
      "type": "error"
    },
    {
      "inputs": [
        {
          "internalType": "address",
          "name": "receiver",
          "type": "address"
        }
      ],
      "name": "ERC20InvalidReceiver",
      "type": "error"
    },
    {
      "inputs": [
        {
          "internalType": "address",
          "name": "sender",
          "type": "address"
        }
      ],
      "name": "ERC20InvalidSender",
      "type": "error"
    },
    {
      "inputs": [
        {
          "internalType": "address",
          "name": "spender",
          "type": "address"
        }
      ],
      "name": "ERC20InvalidSpender",
      "type": "error"
    },
    {
      "anonymous": false,
      "inputs": [
        {
          "indexed": true,
          "internalType": "address",
          "name": "owner",
          "type": "address"
        },
        {
          "indexed": true,
          "internalType": "address",
          "name": "spender",
          "type": "address"
        },
        {
          "indexed": false,
          "internalType": "uint256",
          "name": "value",
          "type": "uint256"
        }
      ],
      "name": "Approval",
      "type": "event"
    },
    {
      "anonymous": false,
      "inputs": [
        {
          "indexed": true,
          "internalType": "address",
          "name": "from",
          "type": "address"
        },
        {
          "indexed": true,
          "internalType": "address",
          "name": "to",
          "type": "address"
        },
        {
          "indexed": false,
          "internalType": "uint256",
          "name": "value",
          "type": "uint256"
        }
      ],
      "name": "Transfer",
      "type": "event"
    },
    {
      "inputs": [
        {
          "internalType": "address",
          "name": "owner",
          "type": "address"
        },
        {
          "internalType": "address",
          "name": "spender",
          "type": "address"
        }
      ],
      "name": "allowance",
      "outputs": [
        {
          "internalType": "uint256",
          "name": "",
          "type": "uint256"
        }
      ],
      "stateMutability": "view",
      "type": "function"
    },
    {
      "inputs": [
        {
          "internalType": "address",
          "name": "spender",
          "type": "address"
        },
        {
          "internalType": "uint256",
          "name": "value",
          "type": "uint256"
        }
      ],
      "name": "approve",
      "outputs": [
        {
          "internalType": "bool",
          "name": "",
          "type": "bool"
        }
      ],
      "stateMutability": "nonpayable",
      "type": "function"
    },
    {
      "inputs": [
        {
          "internalType": "address",
          "name": "account",
          "type": "address"
        }
      ],
      "name": "balanceOf",
      "outputs": [
        {
          "internalType": "uint256",
          "name": "",
          "type": "uint256"
        }
      ],
      "stateMutability": "view",
      "type": "function"
    },
    {
      "inputs": [],
      "name": "decimals",
      "outputs": [
        {
          "internalType": "uint8",
          "name": "",
          "type": "uint8"
        }
      ],
      "stateMutability": "view",
      "type": "function"
    },
    {
      "inputs": [],
      "name": "freeMint",
      "outputs": [],
      "stateMutability": "nonpayable",
      "type": "function"
    },
    {
      "inputs": [],
      "name": "name",
      "outputs": [
        {
          "internalType": "string",
          "name": "",
          "type": "string"
        }
      ],
      "stateMutability": "view",
      "type": "function"
    },
    {
      "inputs": [],
      "name": "symbol",
      "outputs": [
        {
          "internalType": "string",
          "name": "",
          "type": "string"
        }
      ],
      "stateMutability": "view",
      "type": "function"
    },
    {
      "inputs": [],
      "name": "totalSupply",
      "outputs": [
        {
          "internalType": "uint256",
          "name": "",
          "type": "uint256"
        }
      ],
      "stateMutability": "view",
      "type": "function"
    },
    {
      "inputs": [
        {
          "internalType": "address",
          "name": "to",
          "type": "address"
        },
        {
          "internalType": "uint256",
          "name": "value",
          "type": "uint256"
        }
      ],
      "name": "transfer",
      "outputs": [
        {
          "internalType": "bool",
          "name": "",
          "type": "bool"
        }
      ],
      "stateMutability": "nonpayable",
      "type": "function"
    },
    {
      "inputs": [
        {
          "internalType": "address",
          "name": "from",
          "type": "address"
        },
        {
          "internalType": "address",
          "name": "to",
          "type": "address"
        },
        {
          "internalType": "uint256",
          "name": "value",
          "type": "uint256"
        }
      ],
      "name": "transferFrom",
      "outputs": [
        {
          "internalType": "bool",
          "name": "",
          "type": "bool"
        }
      ],
      "stateMutability": "nonpayable",
      "type": "function"
    }
  ],
  "bytecode": "0x608034620003c9576040906001600160401b039080830182811182821017620003b3578352600f81526020906e577261707065642042696e616e636560881b8282015283519284840184811082821117620003b3578552600493848152632ba1272160e11b8482015282518281116200039e576003918254916001958684811c9416801562000393575b888510146200037e578190601f9485811162000328575b508890858311600114620002c157600092620002b5575b505060001982861b1c191690861b1783555b8051938411620002a05786548581811c9116801562000295575b87821014620002805782811162000235575b5085918411600114620001ca57938394918492600095620001be575b50501b92600019911b1c19161782555b3315620001a7576002546b033b2e3c9fd0803ce8000000928382018092116200019257506000917fddf252ad1be2c89b69c2b068fc378daa952ba7f163c4a11628f55a4df523b3ef9160025533835282815284832084815401905584519384523393a35161078d9081620003cf8239f35b601190634e487b7160e01b6000525260246000fd5b506000602492519163ec442f0560e01b8352820152fd5b01519350388062000111565b9190601f198416928760005284876000209460005b89898383106200021d575050501062000202575b50505050811b01825562000121565b01519060f884600019921b161c1916905538808080620001f3565b868601518955909701969485019488935001620001df565b87600052866000208380870160051c82019289881062000276575b0160051c019086905b82811062000269575050620000f5565b6000815501869062000259565b9250819262000250565b602288634e487b7160e01b6000525260246000fd5b90607f1690620000e3565b604187634e487b7160e01b6000525260246000fd5b015190503880620000b7565b90889350601f19831691876000528a6000209260005b8c828210620003115750508411620002f8575b505050811b018355620000c9565b015160001983881b60f8161c19169055388080620002ea565b8385015186558c97909501949384019301620002d7565b90915085600052886000208580850160051c8201928b861062000374575b918a91869594930160051c01915b82811062000364575050620000a0565b600081558594508a910162000354565b9250819262000346565b602289634e487b7160e01b6000525260246000fd5b93607f169362000089565b604186634e487b7160e01b6000525260246000fd5b634e487b7160e01b600052604160045260246000fd5b600080fdfe608060408181526004918236101561001657600080fd5b600092833560e01c91826306fdde03146104f557508163095ea7b31461044d57816318160ddd1461042e57816323b872dd1461031f578163313ce567146103035781635b70ea9f1461026557816370a082311461022f57816395d89b411461010e57508063a9059cbb146100de5763dd62ed3e1461009357600080fd5b346100da57806003193601126100da57806020926100af610618565b6100b7610633565b6001600160a01b0391821683526001865283832091168252845220549051908152f35b5080fd5b50346100da57806003193601126100da576020906101076100fd610618565b6024359033610649565b5160018152f35b8383346100da57816003193601126100da5780519082845460018160011c9060018316928315610225575b6020938484108114610212578388529081156101f657506001146101a1575b505050829003601f01601f191682019267ffffffffffffffff84118385101761018e575082918261018a9252826105cf565b0390f35b80604186634e487b7160e01b6024945252fd5b8787529192508591837f8a35acfbc15ff81a39ae7d344fd709f28e8600b4aa8c65c6b64bfe7fe36bd19b5b8385106101e25750505050830101858080610158565b8054888601830152930192849082016101cc565b60ff1916878501525050151560051b8401019050858080610158565b60248960228c634e487b7160e01b835252fd5b91607f1691610139565b5050346100da5760203660031901126100da57806020926001600160a01b03610256610618565b16815280845220549051908152f35b919050346102ff57826003193601126102ff5733156102ea57600254678ac7230489e80000928382018092116102d757506002553383528260205280832082815401905551908152817fddf252ad1be2c89b69c2b068fc378daa952ba7f163c4a11628f55a4df523b3ef60203393a380f35b846011602492634e487b7160e01b835252fd5b91602492519163ec442f0560e01b8352820152fd5b8280fd5b5050346100da57816003193601126100da576020905160128152f35b9050823461042b57606036600319011261042b5761033b610618565b610343610633565b91604435936001600160a01b038316808352600160205286832033845260205286832054916000198303610380575b602088610107898989610649565b8683106103e65781156103d05733156103ba5750825260016020908152868320338452815291869020908590039055829061010787610372565b60249084895191634a1406b160e11b8352820152fd5b6024908489519163e602df0560e01b8352820152fd5b87517ffb8f41b2000000000000000000000000000000000000000000000000000000008152339181019182526020820193909352604081018790528291506060010390fd5b80fd5b5050346100da57816003193601126100da576020906002549051908152f35b9050346102ff57816003193601126102ff57610467610618565b6024359033156104df576001600160a01b03169182156104c957508083602095338152600187528181208582528752205582519081527f8c5be1e5ebec7d5bd14f71427d1e84f3dd0314c0f7b2291e5b200ac8c7c3b925843392a35160018152f35b60249085855191634a1406b160e11b8352820152fd5b6024838686519163e602df0560e01b8352820152fd5b849084346102ff57826003193601126102ff578260035460018160011c90600183169283156105c5575b6020938484108114610212578388529081156101f6575060011461056f57505050829003601f01601f191682019267ffffffffffffffff84118385101761018e575082918261018a9252826105cf565b600387529192508591837fc2575a0e9e593c00f959f8c92f12db2869c3395a3b0502d05e2516446f71f85b5b8385106105b15750505050830101858080610158565b80548886018301529301928490820161059b565b91607f169161051f565b6020808252825181830181905290939260005b82811061060457505060409293506000838284010152601f8019910116010190565b8181018601518482016040015285016105e2565b600435906001600160a01b038216820361062e57565b600080fd5b602435906001600160a01b038216820361062e57565b916001600160a01b03808416928315610726571692831561070e57600090838252816020526040822054908382106106c3575091604082827fddf252ad1be2c89b69c2b068fc378daa952ba7f163c4a11628f55a4df523b3ef958760209652828652038282205586815220818154019055604051908152a3565b6040517fe450d38c0000000000000000000000000000000000000000000000000000000081526001600160a01b03919091166004820152602481019190915260448101839052606490fd5b602460405163ec442f0560e01b815260006004820152fd5b60246040517f96c6fd1e00000000000000000000000000000000000000000000000000000000815260006004820152fdfea264697066735822122075c1e95b0ac90fc6fa5a6c3b727270e247ee787b85ad0a9bf99bf5f2a68af64a64736f6c63430008180033",
  "linkReferences": {},
  "deployedLinkReferences": {}
}