{
  "_format": "hh-sol-artifact-1",
  "contractName": "BasicRouter",
  "sourceName": "contracts/routers/BasicRouter.sol",
  "abi": [
    {
      "inputs": [],
      "stateMutability": "nonpayable",
      "type": "constructor"
    },
    {
      "inputs": [],
      "name": "AccessControlBadConfirmation",
      "type": "error"
    },
    {
      "inputs": [
        {
          "internalType": "address",
          "name": "account",
          "type": "address"
        },
        {
          "internalType": "bytes32",
          "name": "neededRole",
          "type": "bytes32"
        }
      ],
      "name": "AccessControlUnauthorizedAccount",
      "type": "error"
    },
    {
      "inputs": [
        {
          "internalType": "address",
          "name": "target",
          "type": "address"
        }
      ],
      "name": "AddressEmptyCode",
      "type": "error"
    },
    {
      "inputs": [
        {
          "internalType": "address",
          "name": "account",
          "type": "address"
        }
      ],
      "name": "AddressInsufficientBalance",
      "type": "error"
    },
    {
      "inputs": [],
      "name": "FailedInnerCall",
      "type": "error"
    },
    {
      "inputs": [
        {
          "internalType": "address",
          "name": "token",
          "type": "address"
        }
      ],
      "name": "SafeERC20FailedOperation",
      "type": "error"
    },
    {
      "anonymous": false,
      "inputs": [
        {
          "indexed": true,
          "internalType": "address",
          "name": "from",
          "type": "address"
        },
        {
          "indexed": false,
          "internalType": "uint256",
          "name": "amountIn",
          "type": "uint256"
        },
        {
          "indexed": true,
          "internalType": "address",
          "name": "tokenOut",
          "type": "address"
        },
        {
          "indexed": false,
          "internalType": "uint256",
          "name": "amountOut",
          "type": "uint256"
        }
      ],
      "name": "EthToTokenSwap",
      "type": "event"
    },
    {
      "anonymous": false,
      "inputs": [
        {
          "indexed": true,
          "internalType": "bytes32",
          "name": "role",
          "type": "bytes32"
        },
        {
          "indexed": true,
          "internalType": "bytes32",
          "name": "previousAdminRole",
          "type": "bytes32"
        },
        {
          "indexed": true,
          "internalType": "bytes32",
          "name": "newAdminRole",
          "type": "bytes32"
        }
      ],
      "name": "RoleAdminChanged",
      "type": "event"
    },
    {
      "anonymous": false,
      "inputs": [
        {
          "indexed": true,
          "internalType": "bytes32",
          "name": "role",
          "type": "bytes32"
        },
        {
          "indexed": true,
          "internalType": "address",
          "name": "account",
          "type": "address"
        },
        {
          "indexed": true,
          "internalType": "address",
          "name": "sender",
          "type": "address"
        }
      ],
      "name": "RoleGranted",
      "type": "event"
    },
    {
      "anonymous": false,
      "inputs": [
        {
          "indexed": true,
          "internalType": "bytes32",
          "name": "role",
          "type": "bytes32"
        },
        {
          "indexed": true,
          "internalType": "address",
          "name": "account",
          "type": "address"
        },
        {
          "indexed": true,
          "internalType": "address",
          "name": "sender",
          "type": "address"
        }
      ],
      "name": "RoleRevoked",
      "type": "event"
    },
    {
      "anonymous": false,
      "inputs": [
        {
          "indexed": true,
          "internalType": "address",
          "name": "from",
          "type": "address"
        },
        {
          "indexed": true,
          "internalType": "address",
          "name": "tokenIn",
          "type": "address"
        },
        {
          "indexed": true,
          "internalType": "address",
          "name": "tokenOut",
          "type": "address"
        },
        {
          "indexed": false,
          "internalType": "uint256",
          "name": "amountIn",
          "type": "uint256"
        },
        {
          "indexed": false,
          "internalType": "uint256",
          "name": "amountOut",
          "type": "uint256"
        }
      ],
      "name": "TokenSwap",
      "type": "event"
    },
    {
      "anonymous": false,
      "inputs": [
        {
          "indexed": true,
          "internalType": "address",
          "name": "from",
          "type": "address"
        },
        {
          "indexed": true,
          "internalType": "address",
          "name": "tokenIn",
          "type": "address"
        },
        {
          "indexed": false,
          "internalType": "uint256",
          "name": "amountIn",
          "type": "uint256"
        },
        {
          "indexed": false,
          "internalType": "uint256",
          "name": "amountOut",
          "type": "uint256"
        }
      ],
      "name": "TokenToEthSwap",
      "type": "event"
    },
    {
      "inputs": [],
      "name": "DEFAULT_ADMIN_ROLE",
      "outputs": [
        {
          "internalType": "bytes32",
          "name": "",
          "type": "bytes32"
        }
      ],
      "stateMutability": "view",
      "type": "function"
    },
    {
      "inputs": [
        {
          "internalType": "address",
          "name": "tokenIn",
          "type": "address"
        },
        {
          "internalType": "address",
          "name": "tokenOut",
          "type": "address"
        },
        {
          "internalType": "uint256",
          "name": "amountIn",
          "type": "uint256"
        }
      ],
      "name": "getAmountOut",
      "outputs": [
        {
          "internalType": "uint256",
          "name": "",
          "type": "uint256"
        }
      ],
      "stateMutability": "view",
      "type": "function"
    },
    {
      "inputs": [
        {
          "internalType": "bytes32",
          "name": "role",
          "type": "bytes32"
        }
      ],
      "name": "getRoleAdmin",
      "outputs": [
        {
          "internalType": "bytes32",
          "name": "",
          "type": "bytes32"
        }
      ],
      "stateMutability": "view",
      "type": "function"
    },
    {
      "inputs": [
        {
          "internalType": "bytes32",
          "name": "role",
          "type": "bytes32"
        },
        {
          "internalType": "address",
          "name": "account",
          "type": "address"
        }
      ],
      "name": "grantRole",
      "outputs": [],
      "stateMutability": "nonpayable",
      "type": "function"
    },
    {
      "inputs": [
        {
          "internalType": "bytes32",
          "name": "role",
          "type": "bytes32"
        },
        {
          "internalType": "address",
          "name": "account",
          "type": "address"
        }
      ],
      "name": "hasRole",
      "outputs": [
        {
          "internalType": "bool",
          "name": "",
          "type": "bool"
        }
      ],
      "stateMutability": "view",
      "type": "function"
    },
    {
      "inputs": [
        {
          "internalType": "bytes32",
          "name": "role",
          "type": "bytes32"
        },
        {
          "internalType": "address",
          "name": "callerConfirmation",
          "type": "address"
        }
      ],
      "name": "renounceRole",
      "outputs": [],
      "stateMutability": "nonpayable",
      "type": "function"
    },
    {
      "inputs": [
        {
          "internalType": "bytes32",
          "name": "role",
          "type": "bytes32"
        },
        {
          "internalType": "address",
          "name": "account",
          "type": "address"
        }
      ],
      "name": "revokeRole",
      "outputs": [],
      "stateMutability": "nonpayable",
      "type": "function"
    },
    {
      "inputs": [
        {
          "internalType": "address",
          "name": "token",
          "type": "address"
        },
        {
          "internalType": "uint256",
          "name": "priceUSD",
          "type": "uint256"
        }
      ],
      "name": "setTokenPrice",
      "outputs": [],
      "stateMutability": "nonpayable",
      "type": "function"
    },
    {
      "inputs": [
        {
          "internalType": "bytes4",
          "name": "interfaceId",
          "type": "bytes4"
        }
      ],
      "name": "supportsInterface",
      "outputs": [
        {
          "internalType": "bool",
          "name": "",
          "type": "bool"
        }
      ],
      "stateMutability": "view",
      "type": "function"
    },
    {
      "inputs": [
        {
          "internalType": "address",
          "name": "tokenOut",
          "type": "address"
        },
        {
          "internalType": "address",
          "name": "to",
          "type": "address"
        }
      ],
      "name": "swapETHToTokens",
      "outputs": [
        {
          "internalType": "uint256",
          "name": "",
          "type": "uint256"
        }
      ],
      "stateMutability": "payable",
      "type": "function"
    },
    {
      "inputs": [
        {
          "internalType": "address",
          "name": "tokenIn",
          "type": "address"
        },
        {
          "internalType": "address",
          "name": "tokenOut",
          "type": "address"
        },
        {
          "internalType": "uint256",
          "name": "amountIn",
          "type": "uint256"
        },
        {
          "internalType": "address",
          "name": "to",
          "type": "address"
        }
      ],
      "name": "swapTokenToToken",
      "outputs": [
        {
          "internalType": "uint256",
          "name": "",
          "type": "uint256"
        }
      ],
      "stateMutability": "nonpayable",
      "type": "function"
    },
    {
      "inputs": [
        {
          "internalType": "address",
          "name": "tokenIn",
          "type": "address"
        },
        {
          "internalType": "uint256",
          "name": "amountIn",
          "type": "uint256"
        },
        {
          "internalType": "address",
          "name": "to",
          "type": "address"
        }
      ],
      "name": "swapTokensToETH",
      "outputs": [
        {
          "internalType": "uint256",
          "name": "",
          "type": "uint256"
        }
      ],
      "stateMutability": "nonpayable",
      "type": "function"
    },
    {
      "inputs": [
        {
          "internalType": "address",
          "name": "",
          "type": "address"
        }
      ],
      "name": "tokenPricesUSD",
      "outputs": [
        {
          "internalType": "uint256",
          "name": "",
          "type": "uint256"
        }
      ],
      "stateMutability": "view",
      "type": "function"
    },
    {
      "inputs": [],
      "name": "weth",
      "outputs": [
        {
          "internalType": "address",
          "name": "",
          "type": "address"
        }
      ],
      "stateMutability": "pure",
      "type": "function"
    },
    {
      "stateMutability": "payable",
      "type": "receive"
    }
  ],
  "bytecode": "0x6080604052346100225761001233610027565b50604051610dc990816100b88239f35b600080fd5b6001600160a01b031660008181527fad3228b676f7d3cd4284a5443f17f1962b36e491b30a40b2405849e597ba5fb5602052604081205490919060ff166100b357818052816020526040822081835260205260408220600160ff1982541617905533917f2f8788117e7eff1d82e926ec794901d17c78024a50270940304540a733656f0d8180a4600190565b509056fe6080604081815260049081361015610022575b505050361561002057600080fd5b005b600092833560e01c90816301ffc9a7146108385750806319089a0d14610801578063248a9ca3146107d75780632f2ff15d146107af57806336568abe1461074f5780633f3f80c3146105a15780633fc8cef314610572578063431f63c9146105035780634aa06652146104ca578063796449dd1461032657806391d14854146102e1578063a217fddf146102c6578063bed2d5e8146101055763d547741f0361001257346101015780600319360112610101576100fd91356100f860016100e76108f2565b938387528660205286200154610a7f565b610b42565b5080f35b8280fd5b508083916003193601126102c25761011b6108d7565b6101236108f2565b341561027f5773eeeeeeeeeeeeeeeeeeeeeeeeeeeeeeeeeeeeeeee8452602094600186526101816001600160a01b038587205494169384875261017c868820549180151580610276575b61017690610a1c565b34610940565b610969565b9484516370a0823160e01b815230838201528781602481885afa91821561026b5790818893610235575b5050106101f35750836101be9183610bb8565b815134815283858201527f59a6c2d15a2ae3486483464c924ab1cb80dcfd000530f15c1f89f25f22e69853833392a351908152f35b6064908685519162461bcd60e51b8352820152601a60248201527f496e73756666696369656e7420746f6b656e2062616c616e63650000000000006044820152fd5b915091508782813d8311610264575b61024e8183610908565b81010312610261575085905188806101ab565b80fd5b503d610244565b8651903d90823e3d90fd5b5082151561016d565b606485602085519162461bcd60e51b8352820152601560248201527f4d7573742073656e642045544820746f207377617000000000000000000000006044820152fd5b5080fd5b8382346102c257816003193601126102c25751908152602090f35b5090346101015781600319360112610101578160209360ff926103026108f2565b903582528186526001600160a01b0383832091168252855220541690519015158152f35b5034610101576060366003190112610101576103406108d7565b602435604435946001600160a01b03958681168091036102c25773eeeeeeeeeeeeeeeeeeeeeeeeeeeeeeeeeeeeeeee82526103a4602097600189528684205495169485845261017c87852054821515806104c1575b61039e90610a1c565b86610940565b85516323b872dd60e01b815233818901908152306020820152604081018690529197918990829081906060010381878a5af180156104b75761048a575b50864710610448575081808088819482821561043f575bf1156104345750825190815283858201527f0de0de7715272cc074c6aa787cb38a0922f4f1eb76660f2ec9a2973a1e23ff86833392a351908152f35b8351903d90823e3d90fd5b506108fc6103f8565b6064908887519162461bcd60e51b8352820152601860248201527f496e73756666696369656e74204554482062616c616e636500000000000000006044820152fd5b6104a990893d8b116104b0575b6104a18183610908565b810190610a67565b50386103e1565b503d610497565b87513d86823e3d90fd5b50801515610395565b8382346102c25760603660031901126102c2576020906104fc6104eb6108d7565b6104f36108f2565b60443591610989565b9051908152f35b50903461010157816003193601126101015761051d6108d7565b908380528360205282842033855260205260ff83852054161561055557506001600160a01b0316825260016020526024359082205580f35b6044908484519163e2517d3f60e01b835233908301526024820152fd5b8382346102c257816003193601126102c2576020905173eeeeeeeeeeeeeeeeeeeeeeeeeeeeeeeeeeeeeeee8152f35b508290346102c25760803660031901126102c2576105bd6108d7565b916105c66108f2565b936044356064356001600160a01b0392838216820361074b57836105eb848a8a610989565b87516323b872dd60e01b602080830191909152336024830152306044830152606480830188905282529a91999290921695916106329061062c608482610908565b87610c20565b169486516370a0823160e01b8152308382015289816024818a5afa9182156107405790818a9361070d575b5050106106a55750856106709185610bb8565b835190815284868201527f2e05fc618ccc3aec7d710f137a131e0ab5b31af09fc6a0edb726dcd94b2e478f843392a451908152f35b6084908887519162461bcd60e51b8352820152602160248201527f496e73756666696369656e74206f757470757420746f6b656e2062616c616e6360448201527f65000000000000000000000000000000000000000000000000000000000000006064820152fd5b915091508982813d8311610739575b6107268183610908565b8101031261026157508790518a8061065d565b503d61071c565b8851903d90823e3d90fd5b8480fd5b508290346102c257806003193601126102c25761076a6108f2565b90336001600160a01b0383160361078757506100fd919235610b42565b8390517f6697b232000000000000000000000000000000000000000000000000000000008152fd5b50346101015780600319360112610101576100fd91356107d260016100e76108f2565b610ac3565b50903461010157602036600319011261010157816020936001923581528085522001549051908152f35b8382346102c25760203660031901126102c257806020926001600160a01b036108286108d7565b1681526001845220549051908152f35b8490843461010157602036600319011261010157357fffffffff00000000000000000000000000000000000000000000000000000000811680910361010157602092507f7965db0b0000000000000000000000000000000000000000000000000000000081149081156108ad575b5015158152f35b7f01ffc9a700000000000000000000000000000000000000000000000000000000915014836108a6565b600435906001600160a01b03821682036108ed57565b600080fd5b602435906001600160a01b03821682036108ed57565b90601f8019910116810190811067ffffffffffffffff82111761092a57604052565b634e487b7160e01b600052604160045260246000fd5b8181029291811591840414171561095357565b634e487b7160e01b600052601160045260246000fd5b8115610973570490565b634e487b7160e01b600052601260045260246000fd5b9190916001600160a01b03809116600052600160205260406000205492166000526040600020549082151580610a13575b156109cf576109cc9261017c91610940565b90565b606460405162461bcd60e51b815260206004820152601360248201527f546f6b656e207072696365206e6f7420736574000000000000000000000000006044820152fd5b508115156109ba565b15610a2357565b606460405162461bcd60e51b815260206004820152601a60248201527f455448206f7220546f6b656e207072696365206e6f74207365740000000000006044820152fd5b908160209103126108ed575180151581036108ed5790565b80600052600060205260406000203360005260205260ff6040600020541615610aa55750565b6044906040519063e2517d3f60e01b82523360048301526024820152fd5b90600091808352826020526001600160a01b036040842092169182845260205260ff60408420541615600014610b3d57808352826020526040832082845260205260408320600160ff198254161790557f2f8788117e7eff1d82e926ec794901d17c78024a50270940304540a733656f0d339380a4600190565b505090565b90600091808352826020526001600160a01b036040842092169182845260205260ff604084205416600014610b3d5780835282602052604083208284526020526040832060ff1981541690557ff6391f5c32d9c69d2a47ea670b442974b53935d1edc7fd64eb21e047a839171b339380a4600190565b916001600160a01b03604051927fa9059cbb000000000000000000000000000000000000000000000000000000006020850152166024830152604482015260448152608081019181831067ffffffffffffffff84111761092a57610c1e92604052610c20565b565b6001600160a01b031690600080826020829451910182865af13d15610cf3573d67ffffffffffffffff8111610cdf57604051610c7d939291610c6c601f8201601f191660200183610908565b8152809260203d92013e5b83610d00565b8051908115159182610cc4575b5050610c935750565b602490604051907f5274afe70000000000000000000000000000000000000000000000000000000082526004820152fd5b610cd79250602080918301019101610a67565b153880610c8a565b602483634e487b7160e01b81526041600452fd5b610c7d9150606090610c77565b90610d3f5750805115610d1557805190602001fd5b60046040517f1425ea42000000000000000000000000000000000000000000000000000000008152fd5b81511580610d8a575b610d50575090565b6024906001600160a01b03604051917f9996b315000000000000000000000000000000000000000000000000000000008352166004820152fd5b50803b15610d4856fea2646970667358221220102913725928c657f6e1becefa30313e799b0f1bdec2698b825823b9763cdd7064736f6c63430008180033",
  "linkReferences": {},
  "deployedLinkReferences": {}
}