{
  "_format": "hh-sol-artifact-1",
  "contractName": "HoneyFactory",
  "sourceName": "contracts/src/HoneyFactory.sol",
  "abi": [
    {
      "inputs": [
        {
          "internalType": "address",
          "name": "_tokenMap",
          "type": "address"
        },
        {
          "internalType": "address",
          "name": "_router",
          "type": "address"
        }
      ],
      "stateMutability": "nonpayable",
      "type": "constructor"
    },
    {
      "inputs": [],
      "name": "AccessControlBadConfirmation",
      "type": "error"
    },
    {
      "inputs": [
        {
          "internalType": "address",
          "name": "account",
          "type": "address"
        },
        {
          "internalType": "bytes32",
          "name": "neededRole",
          "type": "bytes32"
        }
      ],
      "name": "AccessControlUnauthorizedAccount",
      "type": "error"
    },
    {
      "inputs": [],
      "name": "AlreadyExists",
      "type": "error"
    },
    {
      "inputs": [],
      "name": "InvalidLength",
      "type": "error"
    },
    {
      "inputs": [],
      "name": "InvalidMessageSender",
      "type": "error"
    },
    {
      "inputs": [
        {
          "internalType": "uint256",
          "name": "chainSelector",
          "type": "uint256"
        }
      ],
      "name": "InvalidPeer",
      "type": "error"
    },
    {
      "inputs": [
        {
          "internalType": "address",
          "name": "router",
          "type": "address"
        }
      ],
      "name": "InvalidRouter",
      "type": "error"
    },
    {
      "inputs": [],
      "name": "NotCreated",
      "type": "error"
    },
    {
      "inputs": [
        {
          "internalType": "address",
          "name": "owner",
          "type": "address"
        }
      ],
      "name": "OwnableInvalidOwner",
      "type": "error"
    },
    {
      "inputs": [
        {
          "internalType": "address",
          "name": "account",
          "type": "address"
        }
      ],
      "name": "OwnableUnauthorizedAccount",
      "type": "error"
    },
    {
      "inputs": [],
      "name": "RouterAddressCannotBeZero",
      "type": "error"
    },
    {
      "anonymous": false,
      "inputs": [
        {
          "indexed": true,
          "internalType": "address",
          "name": "previousOwner",
          "type": "address"
        },
        {
          "indexed": true,
          "internalType": "address",
          "name": "newOwner",
          "type": "address"
        }
      ],
      "name": "OwnershipTransferred",
      "type": "event"
    },
    {
      "anonymous": false,
      "inputs": [
        {
          "indexed": false,
          "internalType": "uint256",
          "name": "sourceChainSelector",
          "type": "uint256"
        },
        {
          "indexed": false,
          "internalType": "address",
          "name": "receiver",
          "type": "address"
        },
        {
          "indexed": false,
          "internalType": "uint256",
          "name": "amount",
          "type": "uint256"
        }
      ],
      "name": "ReleasedTokens",
      "type": "event"
    },
    {
      "anonymous": false,
      "inputs": [
        {
          "indexed": true,
          "internalType": "bytes32",
          "name": "role",
          "type": "bytes32"
        },
        {
          "indexed": true,
          "internalType": "bytes32",
          "name": "previousAdminRole",
          "type": "bytes32"
        },
        {
          "indexed": true,
          "internalType": "bytes32",
          "name": "newAdminRole",
          "type": "bytes32"
        }
      ],
      "name": "RoleAdminChanged",
      "type": "event"
    },
    {
      "anonymous": false,
      "inputs": [
        {
          "indexed": true,
          "internalType": "bytes32",
          "name": "role",
          "type": "bytes32"
        },
        {
          "indexed": true,
          "internalType": "address",
          "name": "account",
          "type": "address"
        },
        {
          "indexed": true,
          "internalType": "address",
          "name": "sender",
          "type": "address"
        }
      ],
      "name": "RoleGranted",
      "type": "event"
    },
    {
      "anonymous": false,
      "inputs": [
        {
          "indexed": true,
          "internalType": "bytes32",
          "name": "role",
          "type": "bytes32"
        },
        {
          "indexed": true,
          "internalType": "address",
          "name": "account",
          "type": "address"
        },
        {
          "indexed": true,
          "internalType": "address",
          "name": "sender",
          "type": "address"
        }
      ],
      "name": "RoleRevoked",
      "type": "event"
    },
    {
      "inputs": [],
      "name": "DEFAULT_ADMIN_ROLE",
      "outputs": [
        {
          "internalType": "bytes32",
          "name": "",
          "type": "bytes32"
        }
      ],
      "stateMutability": "view",
      "type": "function"
    },
    {
      "inputs": [],
      "name": "HONEY_ROUTER_ROLE",
      "outputs": [
        {
          "internalType": "bytes32",
          "name": "",
          "type": "bytes32"
        }
      ],
      "stateMutability": "view",
      "type": "function"
    },
    {
      "inputs": [
        {
          "internalType": "address",
          "name": "honeyRouter",
          "type": "address"
        }
      ],
      "name": "addRouter",
      "outputs": [],
      "stateMutability": "nonpayable",
      "type": "function"
    },
    {
      "inputs": [
        {
          "internalType": "address",
          "name": "token",
          "type": "address"
        }
      ],
      "name": "createPool",
      "outputs": [],
      "stateMutability": "nonpayable",
      "type": "function"
    },
    {
      "inputs": [
        {
          "internalType": "address",
          "name": "receiver",
          "type": "address"
        },
        {
          "internalType": "uint256",
          "name": "destinationChainSelector",
          "type": "uint256"
        },
        {
          "internalType": "address",
          "name": "token",
          "type": "address"
        },
        {
          "internalType": "uint256",
          "name": "amount",
          "type": "uint256"
        }
      ],
      "name": "crossChainCall",
      "outputs": [],
      "stateMutability": "payable",
      "type": "function"
    },
    {
      "inputs": [],
      "name": "getEquitoFee",
      "outputs": [
        {
          "internalType": "uint256",
          "name": "",
          "type": "uint256"
        }
      ],
      "stateMutability": "view",
      "type": "function"
    },
    {
      "inputs": [
        {
          "internalType": "uint256",
          "name": "chainSelector",
          "type": "uint256"
        }
      ],
      "name": "getPeer",
      "outputs": [
        {
          "components": [
            {
              "internalType": "bytes32",
              "name": "lower",
              "type": "bytes32"
            },
            {
              "internalType": "bytes32",
              "name": "upper",
              "type": "bytes32"
            }
          ],
          "internalType": "struct bytes64",
          "name": "",
          "type": "tuple"
        }
      ],
      "stateMutability": "view",
      "type": "function"
    },
    {
      "inputs": [
        {
          "internalType": "address",
          "name": "token",
          "type": "address"
        }
      ],
      "name": "getPool",
      "outputs": [
        {
          "internalType": "address",
          "name": "",
          "type": "address"
        }
      ],
      "stateMutability": "view",
      "type": "function"
    },
    {
      "inputs": [
        {
          "internalType": "bytes32",
          "name": "role",
          "type": "bytes32"
        }
      ],
      "name": "getRoleAdmin",
      "outputs": [
        {
          "internalType": "bytes32",
          "name": "",
          "type": "bytes32"
        }
      ],
      "stateMutability": "view",
      "type": "function"
    },
    {
      "inputs": [
        {
          "internalType": "bytes32",
          "name": "role",
          "type": "bytes32"
        },
        {
          "internalType": "address",
          "name": "account",
          "type": "address"
        }
      ],
      "name": "grantRole",
      "outputs": [],
      "stateMutability": "nonpayable",
      "type": "function"
    },
    {
      "inputs": [
        {
          "internalType": "bytes32",
          "name": "role",
          "type": "bytes32"
        },
        {
          "internalType": "address",
          "name": "account",
          "type": "address"
        }
      ],
      "name": "hasRole",
      "outputs": [
        {
          "internalType": "bool",
          "name": "",
          "type": "bool"
        }
      ],
      "stateMutability": "view",
      "type": "function"
    },
    {
      "inputs": [],
      "name": "owner",
      "outputs": [
        {
          "internalType": "address",
          "name": "",
          "type": "address"
        }
      ],
      "stateMutability": "view",
      "type": "function"
    },
    {
      "inputs": [
        {
          "internalType": "uint256",
          "name": "",
          "type": "uint256"
        }
      ],
      "name": "peers",
      "outputs": [
        {
          "internalType": "bytes32",
          "name": "lower",
          "type": "bytes32"
        },
        {
          "internalType": "bytes32",
          "name": "upper",
          "type": "bytes32"
        }
      ],
      "stateMutability": "view",
      "type": "function"
    },
    {
      "inputs": [
        {
          "components": [
            {
              "internalType": "uint256",
              "name": "blockNumber",
              "type": "uint256"
            },
            {
              "internalType": "uint256",
              "name": "sourceChainSelector",
              "type": "uint256"
            },
            {
              "components": [
                {
                  "internalType": "bytes32",
                  "name": "lower",
                  "type": "bytes32"
                },
                {
                  "internalType": "bytes32",
                  "name": "upper",
                  "type": "bytes32"
                }
              ],
              "internalType": "struct bytes64",
              "name": "sender",
              "type": "tuple"
            },
            {
              "internalType": "uint256",
              "name": "destinationChainSelector",
              "type": "uint256"
            },
            {
              "components": [
                {
                  "internalType": "bytes32",
                  "name": "lower",
                  "type": "bytes32"
                },
                {
                  "internalType": "bytes32",
                  "name": "upper",
                  "type": "bytes32"
                }
              ],
              "internalType": "struct bytes64",
              "name": "receiver",
              "type": "tuple"
            },
            {
              "internalType": "bytes32",
              "name": "hashedData",
              "type": "bytes32"
            }
          ],
          "internalType": "struct EquitoMessage",
          "name": "message",
          "type": "tuple"
        },
        {
          "internalType": "bytes",
          "name": "messageData",
          "type": "bytes"
        }
      ],
      "name": "receiveMessage",
      "outputs": [],
      "stateMutability": "payable",
      "type": "function"
    },
    {
      "inputs": [
        {
          "internalType": "address",
          "name": "honeyRouter",
          "type": "address"
        }
      ],
      "name": "removeRouter",
      "outputs": [],
      "stateMutability": "nonpayable",
      "type": "function"
    },
    {
      "inputs": [],
      "name": "renounceOwnership",
      "outputs": [],
      "stateMutability": "nonpayable",
      "type": "function"
    },
    {
      "inputs": [
        {
          "internalType": "bytes32",
          "name": "role",
          "type": "bytes32"
        },
        {
          "internalType": "address",
          "name": "callerConfirmation",
          "type": "address"
        }
      ],
      "name": "renounceRole",
      "outputs": [],
      "stateMutability": "nonpayable",
      "type": "function"
    },
    {
      "inputs": [
        {
          "internalType": "bytes32",
          "name": "role",
          "type": "bytes32"
        },
        {
          "internalType": "address",
          "name": "account",
          "type": "address"
        }
      ],
      "name": "revokeRole",
      "outputs": [],
      "stateMutability": "nonpayable",
      "type": "function"
    },
    {
      "inputs": [
        {
          "internalType": "uint256[]",
          "name": "chainSelectors",
          "type": "uint256[]"
        },
        {
          "components": [
            {
              "internalType": "bytes32",
              "name": "lower",
              "type": "bytes32"
            },
            {
              "internalType": "bytes32",
              "name": "upper",
              "type": "bytes32"
            }
          ],
          "internalType": "struct bytes64[]",
          "name": "addresses",
          "type": "tuple[]"
        }
      ],
      "name": "setPeers",
      "outputs": [],
      "stateMutability": "nonpayable",
      "type": "function"
    },
    {
      "inputs": [
        {
          "internalType": "bytes4",
          "name": "interfaceId",
          "type": "bytes4"
        }
      ],
      "name": "supportsInterface",
      "outputs": [
        {
          "internalType": "bool",
          "name": "",
          "type": "bool"
        }
      ],
      "stateMutability": "view",
      "type": "function"
    },
    {
      "inputs": [
        {
          "internalType": "address",
          "name": "value",
          "type": "address"
        }
      ],
      "name": "toBase64",
      "outputs": [
        {
          "components": [
            {
              "internalType": "bytes32",
              "name": "lower",
              "type": "bytes32"
            },
            {
              "internalType": "bytes32",
              "name": "upper",
              "type": "bytes32"
            }
          ],
          "internalType": "struct bytes64",
          "name": "",
          "type": "tuple"
        }
      ],
      "stateMutability": "pure",
      "type": "function"
    },
    {
      "inputs": [
        {
          "internalType": "address",
          "name": "newOwner",
          "type": "address"
        }
      ],
      "name": "transferOwnership",
      "outputs": [],
      "stateMutability": "nonpayable",
      "type": "function"
    },
    {
      "inputs": [],
      "name": "weth",
      "outputs": [
        {
          "internalType": "address",
          "name": "",
          "type": "address"
        }
      ],
      "stateMutability": "pure",
      "type": "function"
    },
    {
      "inputs": [
        {
          "internalType": "address",
          "name": "token",
          "type": "address"
        },
        {
          "internalType": "uint256",
          "name": "amount",
          "type": "uint256"
        }
      ],
      "name": "withdrawFromPool",
      "outputs": [],
      "stateMutability": "nonpayable",
      "type": "function"
    }
  ],
  "bytecode": "0x60a0346200011f57601f620041e338819003918201601f19168301916001600160401b03831184841017620001245780849260409485528339810103126200011f576200005a602062000052836200013a565b92016200013a565b90331562000106576000549060018060a01b03918260018060a01b031994338684161760005560405192823391167f8be0079c531659141344cd1fd0a4f28419497f9722a3daafe3b4186f6b6457e0600080a316908115620000f7575060805216906004541617600455620000cf336200014f565b506040516140019081620001e282396080518181816105df015281816108cb0152610dc00152f35b635008268360e01b8152600490fd5b604051631e4fbdf760e01b815260006004820152602490fd5b600080fd5b634e487b7160e01b600052604160045260246000fd5b51906001600160a01b03821682036200011f57565b6001600160a01b031660008181527fac33ff75c19e70fe83507db0d683fd3465c996598dc972688b7ace676c89077b602052604081205490919060ff16620001dd5781805260026020526040822081835260205260408220600160ff1982541617905533917f2f8788117e7eff1d82e926ec794901d17c78024a50270940304540a733656f0d8180a4600190565b509056fe608060408181526004803610156200001657600080fd5b600092833560e01c90816301ffc9a714620010d857508063248a9ca314620010ac57806324ca984e146200107a5780632ef3f1a5146200103d5780632f2ff15d146200100d57806336568abe1462000fa65780633fc8cef31462000f7557806359a1aae11462000e445780635c42132e1462000d7157806367ebb6b21462000cbc5780636ae0b1541462000c8a578063715018a61462000c20578063879d182d146200086b5780638da5cb5b14620008435780639049f9d214620006e357806391d148541462000699578063a217fddf146200067c578063a628b47f14620004f0578063bbe4f6db1462000475578063be4f3e8f1462000442578063c1bf9e5814620002d7578063d547741f1462000290578063ef88e0e114620001fd5763f2fde38b146200014457600080fd5b34620001f9576020366003190112620001f957620001616200117c565b906200016c620014ec565b6001600160a01b03809216928315620001ca5750506000548273ffffffffffffffffffffffffffffffffffffffff19821617600055167f8be0079c531659141344cd1fd0a4f28419497f9722a3daafe3b4186f6b6457e0600080a380f35b908460249251917f1e4fbdf7000000000000000000000000000000000000000000000000000000008352820152fd5b8280fd5b5050346200028c5760203660031901126200028c57906200028891620002226200117c565b916000602083516200023481620011aa565b82815201526000602083516200024a81620011aa565b82815201526001600160a01b038251936200026585620011aa565b168352602083015251918291829190916020806040830194805184520151910152565b0390f35b5080fd5b509034620001f95780600319360112620001f957620002d39135620002cd6001620002ba62001193565b938387526002602052862001546200126e565b62001473565b5080f35b508290346200028c57826003193601126200028c57620002f66200117c565b926024357f0a775b33f9a8a1bd7919099707cfe9320f63c8a6cd38fa171b61aacb968ce641806000526002602052826000203360005260205260ff8360002054161562000425575083946001600160a01b0380911673eeeeeeeeeeeeeeeeeeeeeeeeeeeeeeeeeeeeeeee90818114600014620003e3575085526003602052828520541692833b15620003df578251627b8a6760e11b81529081019182523360208301529284918491908290849082906040015b03925af1908115620003d65750620003c057505080f35b620003cb90620011dd565b620003d35780f35b80fd5b513d84823e3d90fd5b8480fd5b8652506003602052828520541692833b15620003df578251627b8a6760e11b8152908101918252336020830152928491849190829084908290604001620003a9565b8360449184519163e2517d3f60e01b835233908301526024820152fd5b5034620001f9576020366003190112620001f9579181923581526001602052206001815491015482519182526020820152f35b5034620001f9576020366003190112620001f9576001600160a01b0390816200049d6200117c565b1690818552600360205282848620541615620004c9575083839160209552600385522054169051908152f35b83517f8fead4d2000000000000000000000000000000000000000000000000000000008152fd5b506080366003190112620001f957620005086200117c565b91602435604435936001600160a01b03918286168096036200067757828451926020978885015216848301526064356060830152606082526080820182811067ffffffffffffffff821117620006625791869391959285528588526001845284882095600186519788957fdc20313700000000000000000000000000000000000000000000000000000000875281549087015201546024850152604484015260806064840152805190816084850152885b8281106200064957505060a483828a83839584010152601f8019910116810103019134907f0000000000000000000000000000000000000000000000000000000000000000165af190811562000640575062000613578280f35b813d831162000638575b620006298183620011f2565b81010312620003d35738808280f35b503d6200061d565b513d85823e3d90fd5b81810186015188820160a40152889588955001620005b9565b604186634e487b7160e01b6000525260246000fd5b600080fd5b5050346200028c57816003193601126200028c5751908152602090f35b5034620001f95781600319360112620001f9576001600160a01b0382602094620006c262001193565b9335815260028652209116600052825260ff81600020541690519015158152f35b509034620001f9576020366003190112620001f9576001600160a01b0390816200070c6200117c565b169283855260036020528282862054166200081c5773eeeeeeeeeeeeeeeeeeeeeeeeeeeeeeeeeeeeeeee8403620007b8578151906113a28083019183831067ffffffffffffffff841117620007a5575090829162002c2a8339039085f09283156200079b57845260036020528320911673ffffffffffffffffffffffffffffffffffffffff1982541617905580f35b81513d86823e3d90fd5b876041602492634e487b7160e01b835252fd5b8151906116e38083019183831067ffffffffffffffff841117620007a55750602091839162001547833986815203019085f09283156200079b57845260036020528320911673ffffffffffffffffffffffffffffffffffffffff1982541617905580f35b90517f23369fa6000000000000000000000000000000000000000000000000000000008152fd5b5050346200028c57816003193601126200028c576001600160a01b0360209254169051908152f35b5091366003190161012081126200028c5761010013620003d3576101043567ffffffffffffffff808211620001f95736602383011215620001f95781850135908111620001f9578101366024820111620001f9576001600160a01b0391827f000000000000000000000000000000000000000000000000000000000000000016330362000bf15760243591828552602090600182528187872088516200091181620011aa565b600182549283835201549283910152604435149081159162000be3575b50156200095d578787517f7fee69a1000000000000000000000000000000000000000000000000000000008152fd5b9085886060858a9503126200028c576200097a6024860162001531565b968060646200098c6044890162001531565b970135961697848260448186541693895194859384927fb464631b00000000000000000000000000000000000000000000000000000000845216888301528c60248301525afa90811562000bd957908291859162000b94575b5073eeeeeeeeeeeeeeeeeeeeeeeeeeeeeeeeeeeeeeee911681810362000abf57508352600384528483205416803b15620001f9578451627b8a6760e11b81529182018681526001600160a01b03891660208201528391839182908490829060400103925af1801562000ab55762000a91575b5050907f40627f7438e2974529d03c9b047342d738a7a1759fed232175525a8c048c94449460609493925b8251948552840152820152a180f35b62000aa1909594939295620011dd565b62000ab157909192858762000a57565b8580fd5b84513d84823e3d90fd5b905083929398959697985260038452858220541691823b156200028c578551627b8a6760e11b81529081018781526001600160a01b03861660208201529092839182908490829060400103925af1801562000b8a5762000b49575b5091606093917f40627f7438e2974529d03c9b047342d738a7a1759fed232175525a8c048c9444959362000a82565b917f40627f7438e2974529d03c9b047342d738a7a1759fed232175525a8c048c94449593919662000b7d60609694620011dd565b9691939550919362000b1a565b84513d89823e3d90fd5b809250868092503d831162000bd1575b62000bb08183620011f2565b8101031262000bcd5751818116810362000bcd5781908b620009e5565b8380fd5b503d62000ba4565b86513d86823e3d90fd5b90506064351415386200092e565b84517fd7f733340000000000000000000000000000000000000000000000000000000081523381880152602490fd5b8334620003d35780600319360112620003d35762000c3d620014ec565b806001600160a01b03815473ffffffffffffffffffffffffffffffffffffffff1981168355167f8be0079c531659141344cd1fd0a4f28419497f9722a3daafe3b4186f6b6457e08280a380f35b8334620003d3576020366003190112620003d357620002d362000cac6200117c565b62000cb662001215565b620013c6565b508290346200028c5760203660031901126200028c5782813592806020835162000ce681620011aa565b82815201528381526001602052209183519262000d0384620011aa565b600181549182865201549081602086015215908162000d67575b5062000d385783518351815260208085015190820152604090f35b602492508351917f78d0dbfc000000000000000000000000000000000000000000000000000000008352820152fd5b9050158562000d1d565b509034620001f95782600319360112620001f9578051917fb88c914800000000000000000000000000000000000000000000000000000000835230908301526020826024816001600160a01b037f0000000000000000000000000000000000000000000000000000000000000000165afa91821562000e3a57839262000dfc575b6020838351908152f35b9091506020813d60201162000e31575b8162000e1b60209383620011f2565b81010312620001f9576020925051903862000df2565b3d915062000e0c565b81513d85823e3d90fd5b5034620001f95781600319360112620001f95780359067ffffffffffffffff808311620003df5736602384011215620003df57828201359281841162000ab15760249260059236858760051b8501011162000f715784359181831162000f6d573660238401121562000f6d578281013591821162000f6d5760069136878260061b8601011162000f695762000ed8620014ec565b62000ee2620014ec565b80880362000f4157895b88811062000ef8578a80f35b8181101562000f2f5780871b86018801358b52600160208190528a8c2082861b87018a810135825560440135908201550162000eec565b878b603285634e487b7160e01b835252fd5b5087517f947d5a84000000000000000000000000000000000000000000000000000000008152fd5b8980fd5b8880fd5b8780fd5b5050346200028c57816003193601126200028c576020905173eeeeeeeeeeeeeeeeeeeeeeeeeeeeeeeeeeeeeeee8152f35b509190346200028c57806003193601126200028c5762000fc562001193565b90336001600160a01b0383160362000fe55750620002d391923562001473565b8390517f6697b232000000000000000000000000000000000000000000000000000000008152fd5b509034620001f95780600319360112620001f957620002d39135620010376001620002ba62001193565b62001349565b5050346200028c57816003193601126200028c57602090517f0a775b33f9a8a1bd7919099707cfe9320f63c8a6cd38fa171b61aacb968ce6418152f35b8334620003d3576020366003190112620003d357620002d36200109c6200117c565b620010a662001215565b62001295565b5034620001f9576020366003190112620001f95781602093600192358152600285522001549051908152f35b92505034620001f9576020366003190112620001f957357fffffffff000000000000000000000000000000000000000000000000000000008116809103620001f957602092507f7965db0b00000000000000000000000000000000000000000000000000000000811490811562001151575b5015158152f35b7f01ffc9a700000000000000000000000000000000000000000000000000000000915014386200114a565b600435906001600160a01b03821682036200067757565b602435906001600160a01b03821682036200067757565b6040810190811067ffffffffffffffff821117620011c757604052565b634e487b7160e01b600052604160045260246000fd5b67ffffffffffffffff8111620011c757604052565b90601f8019910116810190811067ffffffffffffffff821117620011c757604052565b3360009081527fac33ff75c19e70fe83507db0d683fd3465c996598dc972688b7ace676c89077b602052604081205460ff1615620012505750565b6044906040519063e2517d3f60e01b82523360048301526024820152fd5b80600052600260205260406000203360005260205260ff6040600020541615620012505750565b6001600160a01b031660008181527f2a44413c737edf57c9a9b5a5edce85f99936144e881302a0cfc518c4333a371f60205260408120549091907f0a775b33f9a8a1bd7919099707cfe9320f63c8a6cd38fa171b61aacb968ce6419060ff16620013445780835260026020526040832082845260205260408320600160ff198254161790557f2f8788117e7eff1d82e926ec794901d17c78024a50270940304540a733656f0d339380a4600190565b505090565b9060009180835260026020526001600160a01b036040842092169182845260205260ff60408420541615600014620013445780835260026020526040832082845260205260408320600160ff198254161790557f2f8788117e7eff1d82e926ec794901d17c78024a50270940304540a733656f0d339380a4600190565b6001600160a01b031660008181527f2a44413c737edf57c9a9b5a5edce85f99936144e881302a0cfc518c4333a371f60205260408120549091907f0a775b33f9a8a1bd7919099707cfe9320f63c8a6cd38fa171b61aacb968ce6419060ff161562001344578083526002602052604083208284526020526040832060ff1981541690557ff6391f5c32d9c69d2a47ea670b442974b53935d1edc7fd64eb21e047a839171b339380a4600190565b9060009180835260026020526001600160a01b036040842092169182845260205260ff60408420541660001462001344578083526002602052604083208284526020526040832060ff1981541690557ff6391f5c32d9c69d2a47ea670b442974b53935d1edc7fd64eb21e047a839171b339380a4600190565b6001600160a01b036000541633036200150157565b60246040517f118cdaa7000000000000000000000000000000000000000000000000000000008152336004820152fd5b35906001600160a01b0382168203620006775756fe60a0346200039457601f90601f196001600160401b03620016e33881900385810184168501838111868210176200029857859282916040528339602094859181010312620003945751936001600160a01b038516850362000394576200006462000399565b60128152712437b732bca837b7b6102628102a37b5b2b760711b858201526200008c62000399565b91600392838152620484c560ec1b878201528251858111620002985784546001948582811c9216801562000389575b8a831014620003735781858493116200031d575b508990858311600114620002ba57600092620002ae575b505060001982871b1c191690841b1784555b8051948511620002985760049687548481811c911680156200028d575b8282101462000278578381116200022d575b5080928611600114620001c1575084955090849291600095620001b5575b50501b92600019911b1c19161790555b608052600780546001600160a01b031916339081179091556200017890620003b9565b5060405161129790816200044c82396080518181816101340152818161021301528181610393015281816104b60152818161073d0152610c9d0152f35b01519350388062000145565b939295859081168860005285600020956000905b89838310620002125750505010620001f7575b50505050811b01905562000155565b01519060f884600019921b161c1916905538808080620001e8565b858701518955909701969485019488935090810190620001d5565b88600052816000208480890160051c820192848a106200026e575b0160051c019085905b8281106200026157505062000127565b6000815501859062000251565b9250819262000248565b602289634e487b7160e01b6000525260246000fd5b90607f169062000115565b634e487b7160e01b600052604160045260246000fd5b015190503880620000e6565b908987941691886000528b6000209260005b8d828210620003065750508411620002ed575b505050811b018455620000f8565b015160001983891b60f8161c19169055388080620002df565b8385015186558a97909501949384019301620002cc565b90915086600052896000208580850160051c8201928c861062000369575b918891869594930160051c01915b82811062000359575050620000cf565b6000815585945088910162000349565b925081926200033b565b634e487b7160e01b600052602260045260246000fd5b91607f1691620000bb565b600080fd5b60408051919082016001600160401b038111838210176200029857604052565b6001600160a01b031660008181527f05b8ccbb9d4d8fb16ea74ce3c29a41f1b461fbdaff4714a0d9a8eb05499746bc602052604081205490919060ff16620004475781805260056020526040822081835260205260408220600160ff1982541617905533917f2f8788117e7eff1d82e926ec794901d17c78024a50270940304540a733656f0d8180a4600190565b509056fe608060408181526004918236101561001657600080fd5b600092833560e01c918262f714ce14610c535750816301ffc9a714610bb257816306fdde0314610abb578163095ea7b314610a1357816318160ddd146109f457816323b872dd146108e5578163248a9ca3146108ba5781632f2ff15d14610890578163313ce5671461087457816336568abe1461081557816351c6590a1461071057816370a08231146106da5781638f840ddd146106bb57816391d148541461067557816395d89b41146105705781639d7de6b314610292578163a217fddf14610277578163a9059cbb14610246578163b6b55f25146101eb578163d547741f146101a757508063dd62ed3e1461015c5763fc0c546a1461011657600080fd5b34610158578160031936011261015857602090516001600160a01b037f0000000000000000000000000000000000000000000000000000000000000000168152f35b5080fd5b5034610158578060031936011261015857602091610178610cfa565b82610181610cdf565b926001600160a01b03809316815260018652209116600052825280600020549051908152f35b919050346101e757806003193601126101e7576101e391356101de60016101cc610cdf565b93838752600560205286200154610df4565b610ffd565b5080f35b8280fd5b8390346101585760203660031901126101585761024090356102388130336001600160a01b037f000000000000000000000000000000000000000000000000000000000000000016611075565b600654610dda565b60065580f35b505034610158578060031936011261015857602090610270610266610cfa565b6024359033610ea0565b5160018152f35b50503461015857816003193601126101585751908152602090f35b9050816003193601126101e75780358015610561576102bf6102b660065483610d91565b60025490610dba565b92831561055257331561053c573385526020918583528186205481811061051057908087923384528386520383832055806002540360025582519081527fddf252ad1be2c89b69c2b068fc378daa952ba7f163c4a11628f55a4df523b3ef843392a33085528482528481812054928584106000146104a0576001600160a01b0390858183600754168651928380927f5c42132e0000000000000000000000000000000000000000000000000000000082525afa918215610496578492610468575b505061038c8588610de7565b916103bb817f000000000000000000000000000000000000000000000000000000000000000016963388610e38565b6007541694853b1561046457608491855196879485937fa628b47f000000000000000000000000000000000000000000000000000000008552338b8601526024356024860152604485015260648401525af1801561045a57610428575b505050610240905b600654610de7565b67ffffffffffffffff8295939511610447575291506102403880610418565b602483604187634e487b7160e01b835252fd5b81513d87823e3d90fd5b8380fd5b90809250813d831161048f575b61047f8183610d59565b810103126101e757513880610380565b503d610475565b85513d86823e3d90fd5b5050928092506104db9150336001600160a01b037f000000000000000000000000000000000000000000000000000000000000000016610e38565b82803415610507575b8180809234903390f1156104fc576102409150610420565b5051903d90823e3d90fd5b506108fc6104e4565b825163391434e360e21b8152338187019081526020810192909252604082018390529081906060010390fd5b82856024925191634b637e8f60e11b8352820152fd5b905051636067798b60e01b8152fd5b509051636067798b60e01b8152fd5b83833461015857816003193601126101585780519180938054916001908360011c926001851694851561066b575b60209586861081146106585785895290811561063457506001146105dc575b6105d887876105ce828c0383610d59565b5191829182610d10565b0390f35b81529295507f8a35acfbc15ff81a39ae7d344fd709f28e8600b4aa8c65c6b64bfe7fe36bd19b5b82841061062157505050826105d8946105ce928201019486806105bd565b8054868501880152928601928101610603565b60ff19168887015250505050151560051b83010192506105ce826105d886806105bd565b602484602285634e487b7160e01b835252fd5b93607f169361059e565b9050346101e757816003193601126101e7578160209360ff92610696610cdf565b90358252600586526001600160a01b0383832091168252855220541690519015158152f35b5050346101585781600319360112610158576020906006549051908152f35b50503461015857602036600319011261015857806020926001600160a01b03610701610cfa565b16815280845220549051908152f35b83915034610158576020366003190112610158578035908115610807576107628230336001600160a01b037f000000000000000000000000000000000000000000000000000000000000000016611075565b600654806107ec575069021e19e0c9bab2400000905b33156107d65750610240929361079082600254610dda565b6002553385528460205280852082815401905551908152837fddf252ad1be2c89b69c2b068fc378daa952ba7f163c4a11628f55a4df523b3ef60203393a3600654610dda565b6024908486519163ec442f0560e01b8352820152fd5b610801906107fc60025485610d91565b610dba565b90610778565b8351636067798b60e01b8152fd5b83833461015857806003193601126101585761082f610cdf565b90336001600160a01b0383160361084c57506101e3919235610ffd565b8390517f6697b232000000000000000000000000000000000000000000000000000000008152fd5b5050346101585781600319360112610158576020905160128152f35b919050346101e757806003193601126101e7576101e391356108b560016101cc610cdf565b610f7c565b9050346101e75760203660031901126101e75781602093600192358152600585522001549051908152f35b905082346109f15760603660031901126109f157610901610cfa565b610909610cdf565b91604435936001600160a01b038316808352600160205286832033845260205286832054916000198303610946575b602088610270898989610ea0565b8683106109ac5781156109965733156109805750825260016020908152868320338452815291869020908590039055829061027087610938565b60249084895191634a1406b160e11b8352820152fd5b6024908489519163e602df0560e01b8352820152fd5b87517ffb8f41b2000000000000000000000000000000000000000000000000000000008152339181019182526020820193909352604081018790528291506060010390fd5b80fd5b5050346101585781600319360112610158576020906002549051908152f35b9050346101e757816003193601126101e757610a2d610cfa565b602435903315610aa5576001600160a01b0316918215610a8f57508083602095338152600187528181208582528752205582519081527f8c5be1e5ebec7d5bd14f71427d1e84f3dd0314c0f7b2291e5b200ac8c7c3b925843392a35160018152f35b60249085855191634a1406b160e11b8352820152fd5b6024838686519163e602df0560e01b8352820152fd5b919050346101e757826003193601126101e75780519183600354906001908260011c92600181168015610ba8575b6020958686108214610b955750848852908115610b735750600114610b1a575b6105d886866105ce828b0383610d59565b929550600383527fc2575a0e9e593c00f959f8c92f12db2869c3395a3b0502d05e2516446f71f85b5b828410610b6057505050826105d8946105ce928201019438610b09565b8054868501880152928601928101610b43565b60ff191687860152505050151560051b83010192506105ce826105d838610b09565b836022602492634e487b7160e01b835252fd5b93607f1693610ae9565b9050346101e75760203660031901126101e75735907fffffffff0000000000000000000000000000000000000000000000000000000082168092036101e757602092507f7965db0b000000000000000000000000000000000000000000000000000000008214918215610c29575b50519015158152f35b7f01ffc9a70000000000000000000000000000000000000000000000000000000014915038610c20565b9091503461046457826003193601126104645760ff610c70610cdf565b9385805260056020528086203387526020528520541615610cc5575090610cc29135906001600160a01b037f000000000000000000000000000000000000000000000000000000000000000016610e38565b80f35b8360449263e2517d3f60e01b835233908301526024820152fd5b602435906001600160a01b0382168203610cf557565b600080fd5b600435906001600160a01b0382168203610cf557565b6020808252825181830181905290939260005b828110610d4557505060409293506000838284010152601f8019910116010190565b818101860151848201604001528501610d23565b90601f8019910116810190811067ffffffffffffffff821117610d7b57604052565b634e487b7160e01b600052604160045260246000fd5b81810292918115918404141715610da457565b634e487b7160e01b600052601160045260246000fd5b8115610dc4570490565b634e487b7160e01b600052601260045260246000fd5b91908201809211610da457565b91908203918211610da457565b80600052600560205260406000203360005260205260ff6040600020541615610e1a5750565b6044906040519063e2517d3f60e01b82523360048301526024820152fd5b916001600160a01b03604051927fa9059cbb000000000000000000000000000000000000000000000000000000006020850152166024830152604482015260448152608081019181831067ffffffffffffffff841117610d7b57610e9e926040526110e0565b565b916001600160a01b03808416928315610f645716928315610f4c5760009083825281602052604082205490838210610f1a575091604082827fddf252ad1be2c89b69c2b068fc378daa952ba7f163c4a11628f55a4df523b3ef958760209652828652038282205586815220818154019055604051908152a3565b60405163391434e360e21b81526001600160a01b03919091166004820152602481019190915260448101839052606490fd5b602460405163ec442f0560e01b815260006004820152fd5b6024604051634b637e8f60e11b815260006004820152fd5b9060009180835260056020526001600160a01b036040842092169182845260205260ff60408420541615600014610ff85780835260056020526040832082845260205260408320600160ff198254161790557f2f8788117e7eff1d82e926ec794901d17c78024a50270940304540a733656f0d339380a4600190565b505090565b9060009180835260056020526001600160a01b036040842092169182845260205260ff604084205416600014610ff8578083526005602052604083208284526020526040832060ff1981541690557ff6391f5c32d9c69d2a47ea670b442974b53935d1edc7fd64eb21e047a839171b339380a4600190565b9290604051927f23b872dd0000000000000000000000000000000000000000000000000000000060208501526001600160a01b03809216602485015216604483015260648201526064815260a081019181831067ffffffffffffffff841117610d7b57610e9e926040525b6001600160a01b031690600080826020829451910182865af13d156111c2573d9067ffffffffffffffff82116111ae579061113d916040519161112d6020601f19601f8401160184610d59565b82523d84602084013e5b846111ce565b908151918215159283611186575b5050506111555750565b602490604051907f5274afe70000000000000000000000000000000000000000000000000000000082526004820152fd5b8192935090602091810103126101585760200151908115918215036109f1575038808061114b565b602483634e487b7160e01b81526041600452fd5b61113d90606090611137565b9061120d57508051156111e357805190602001fd5b60046040517f1425ea42000000000000000000000000000000000000000000000000000000008152fd5b81511580611258575b61121e575090565b6024906001600160a01b03604051917f9996b315000000000000000000000000000000000000000000000000000000008352166004820152fd5b50803b1561121656fea264697066735822122012ab25788f562d1572c1d8cd63b8e9c9973e8b8171b87e1609e4b88c0db420c164736f6c6343000818003360803462000338576040906001600160401b0390808301828111828210176200023857835260128152602091712437b732bca837b7b6102628102a37b5b2b760711b8383015283518481018181108382111762000238578552600390818152620484c560ec1b8582015283519083821162000238578254916001958684811c941680156200032d575b8885101462000317578190601f94858111620002c1575b5088908583116001146200025a576000926200024e575b505060001982861b1c191690861b1783555b8051938411620002385760049586548681811c911680156200022d575b828210146200021857838111620001cd575b50809285116001146200015f575093839491849260009562000153575b50501b92600019911b1c19161790555b600780546001600160a01b0319163390811790915562000144906200033d565b5051610fd29081620003d08239f35b01519350388062000114565b92919084601f1981168860005285600020956000905b89838310620001b2575050501062000197575b50505050811b01905562000124565b01519060f884600019921b161c191690553880808062000188565b85870151895590970196948501948893509081019062000175565b87600052816000208480880160051c8201928489106200020e575b0160051c019087905b82811062000201575050620000f7565b60008155018790620001f1565b92508192620001e8565b602288634e487b7160e01b6000525260246000fd5b90607f1690620000e5565b634e487b7160e01b600052604160045260246000fd5b015190503880620000b6565b90889350601f19831691876000528a6000209260005b8c828210620002aa575050841162000291575b505050811b018355620000c8565b015160001983881b60f8161c1916905538808062000283565b8385015186558c9790950194938401930162000270565b90915085600052886000208580850160051c8201928b86106200030d575b918a91869594930160051c01915b828110620002fd5750506200009f565b600081558594508a9101620002ed565b92508192620002df565b634e487b7160e01b600052602260045260246000fd5b93607f169362000088565b600080fd5b6001600160a01b031660008181527f05b8ccbb9d4d8fb16ea74ce3c29a41f1b461fbdaff4714a0d9a8eb05499746bc602052604081205490919060ff16620003cb5781805260056020526040822081835260205260408220600160ff1982541617905533917f2f8788117e7eff1d82e926ec794901d17c78024a50270940304540a733656f0d8180a4600190565b509056fe608060408181526004908136101561001657600080fd5b600092833560e01c908162f714ce14610bdd5750806301ffc9a714610b3c57806306fdde0314610a47578063095ea7b31461099f57806318160ddd1461098057806323b872dd14610875578063248a9ca31461084a5780632f2ff15d14610822578063313ce5671461080657806336568abe146107a657806370a08231146107705780638f840ddd1461075157806391d148541461070b57806395d89b41146106055780639d7de6b3146102ce578063a217fddf146102b3578063a9059cbb14610282578063d0e30db014610267578063d547741f14610229578063dd62ed3e146101d95763e8078d941461010a57600080fd5b826003193601126101d55734156101c857600654806101ad575069021e19e0c9bab2400000915b3315610198575061014482600254610d69565b600255336000526000602052806000208281540190555190815260007fddf252ad1be2c89b69c2b068fc378daa952ba7f163c4a11628f55a4df523b3ef60203393a361019234600654610d69565b60065580f35b83602492519163ec442f0560e01b8352820152fd5b6101c2906101bd60025434610d20565b610d49565b91610131565b51636067798b60e01b8152fd5b8280fd5b8382346102255780600319360112610225576020916101f6610c89565b826101ff610c6e565b926001600160a01b03809316815260018652209116600052825280600020549051908152f35b5080fd5b50346101d557806003193601126101d557610263913561025e600161024c610c6e565b93838752600560205286200154610d83565b610f24565b5080f35b838060031936011261027f5761019234600654610d69565b80fd5b8382346102255780600319360112610225576020906102ac6102a2610c89565b6024359033610dc7565b5160018152f35b83823461022557816003193601126102255751908152602090f35b5090816003193601126101d557803580156105f6576102fb6102f260065483610d20565b60025490610d49565b9283156105e75733156105d157338552602091858352818620548181106105a557908087923384528386520383832055806002540360025582519081527fddf252ad1be2c89b69c2b068fc378daa952ba7f163c4a11628f55a4df523b3ef843392a384479285841060001461056357846001600160a01b03918083600754168651938480927f5c42132e0000000000000000000000000000000000000000000000000000000082525afa91821561055957868986928395610520575b50826103ce81936103c9888495610d76565b610d76565b99818115610517575b3390f11561050d5782600754169185517f3fc8cef300000000000000000000000000000000000000000000000000000000815282818a81875afa9283156105035786936104ca575b5050823b156104c657608492865197889586947fa628b47f000000000000000000000000000000000000000000000000000000008652338c870152602435602487015216604485015260648401525af180156104bc5761048a575b505050610192905b600654610d76565b67ffffffffffffffff82959395116104a957529150610192388061047a565b602483604187634e487b7160e01b835252fd5b81513d87823e3d90fd5b8480fd5b9080929350813d83116104fc575b6104e28183610ce8565b810103126104c6575183811681036104c65790388061041f565b503d6104d8565b87513d88823e3d90fd5b84513d85823e3d90fd5b506108fc6103d7565b94505050508082813d8311610552575b61053a8183610ce8565b8101031261054e57905190838689826103b7565b8380fd5b503d610530565b85513d86823e3d90fd5b508080935080929594506105773486610d69565b81811561059c575b3390f115610591576101929150610482565b5051903d90823e3d90fd5b506108fc61057f565b825163391434e360e21b8152338187019081526020810192909252604082018390529081906060010390fd5b82856024925191634b637e8f60e11b8352820152fd5b905051636067798b60e01b8152fd5b509051636067798b60e01b8152fd5b5082903461022557816003193601126102255780519180938054916001908360011c9260018516948515610701575b60209586861081146106ee578589529081156106ca5750600114610672575b61066e8787610664828c0383610ce8565b5191829182610c9f565b0390f35b81529295507f8a35acfbc15ff81a39ae7d344fd709f28e8600b4aa8c65c6b64bfe7fe36bd19b5b8284106106b7575050508261066e9461066492820101948680610653565b8054868501880152928601928101610699565b60ff19168887015250505050151560051b83010192506106648261066e8680610653565b602484602285634e487b7160e01b835252fd5b93607f1693610634565b5090346101d557816003193601126101d5578160209360ff9261072c610c6e565b90358252600586526001600160a01b0383832091168252855220541690519015158152f35b8382346102255781600319360112610225576020906006549051908152f35b83823461022557602036600319011261022557806020926001600160a01b03610797610c89565b16815280845220549051908152f35b508290346102255780600319360112610225576107c1610c6e565b90336001600160a01b038316036107de5750610263919235610f24565b8390517f6697b232000000000000000000000000000000000000000000000000000000008152fd5b8382346102255781600319360112610225576020905160128152f35b50346101d557806003193601126101d5576102639135610845600161024c610c6e565b610ea3565b5090346101d55760203660031901126101d55781602093600192358152600585522001549051908152f35b50913461027f57606036600319011261027f57610890610c89565b610898610c6e565b91604435936001600160a01b0383168083526001602052868320338452602052868320549160001983036108d5575b6020886102ac898989610dc7565b86831061093b57811561092557331561090f575082526001602090815286832033845281529186902090859003905582906102ac386108c7565b60249084895191634a1406b160e11b8352820152fd5b6024908489519163e602df0560e01b8352820152fd5b87517ffb8f41b2000000000000000000000000000000000000000000000000000000008152339181019182526020820193909352604081018790528291506060010390fd5b8382346102255781600319360112610225576020906002549051908152f35b5090346101d557816003193601126101d5576109b9610c89565b602435903315610a31576001600160a01b0316918215610a1b57508083602095338152600187528181208582528752205582519081527f8c5be1e5ebec7d5bd14f71427d1e84f3dd0314c0f7b2291e5b200ac8c7c3b925843392a35160018152f35b60249085855191634a1406b160e11b8352820152fd5b6024838686519163e602df0560e01b8352820152fd5b50346101d557826003193601126101d55780519183600354906001908260011c92600181168015610b32575b6020958686108214610b1f5750848852908115610afd5750600114610aa4575b61066e8686610664828b0383610ce8565b929550600383527fc2575a0e9e593c00f959f8c92f12db2869c3395a3b0502d05e2516446f71f85b5b828410610aea575050508261066e94610664928201019438610a93565b8054868501880152928601928101610acd565b60ff191687860152505050151560051b83010192506106648261066e38610a93565b836022602492634e487b7160e01b835252fd5b93607f1693610a73565b5090346101d55760203660031901126101d55735907fffffffff0000000000000000000000000000000000000000000000000000000082168092036101d557602092507f7965db0b000000000000000000000000000000000000000000000000000000008214918215610bb3575b50519015158152f35b7f01ffc9a70000000000000000000000000000000000000000000000000000000014915038610baa565b919290503461054e578260031936011261054e57803591610bfc610c6e565b91858052600560205284862033875260205260ff858720541615610c5357505083808093819382908215610c49575b6001600160a01b031690f115610c3f575080f35b51903d90823e3d90fd5b6108fc9150610c2b565b908560449263e2517d3f60e01b835233908301526024820152fd5b602435906001600160a01b0382168203610c8457565b600080fd5b600435906001600160a01b0382168203610c8457565b6020808252825181830181905290939260005b828110610cd457505060409293506000838284010152601f8019910116010190565b818101860151848201604001528501610cb2565b90601f8019910116810190811067ffffffffffffffff821117610d0a57604052565b634e487b7160e01b600052604160045260246000fd5b81810292918115918404141715610d3357565b634e487b7160e01b600052601160045260246000fd5b8115610d53570490565b634e487b7160e01b600052601260045260246000fd5b91908201809211610d3357565b91908203918211610d3357565b80600052600560205260406000203360005260205260ff6040600020541615610da95750565b6044906040519063e2517d3f60e01b82523360048301526024820152fd5b916001600160a01b03808416928315610e8b5716928315610e735760009083825281602052604082205490838210610e41575091604082827fddf252ad1be2c89b69c2b068fc378daa952ba7f163c4a11628f55a4df523b3ef958760209652828652038282205586815220818154019055604051908152a3565b60405163391434e360e21b81526001600160a01b03919091166004820152602481019190915260448101839052606490fd5b602460405163ec442f0560e01b815260006004820152fd5b6024604051634b637e8f60e11b815260006004820152fd5b9060009180835260056020526001600160a01b036040842092169182845260205260ff60408420541615600014610f1f5780835260056020526040832082845260205260408320600160ff198254161790557f2f8788117e7eff1d82e926ec794901d17c78024a50270940304540a733656f0d339380a4600190565b505090565b9060009180835260056020526001600160a01b036040842092169182845260205260ff604084205416600014610f1f578083526005602052604083208284526020526040832060ff1981541690557ff6391f5c32d9c69d2a47ea670b442974b53935d1edc7fd64eb21e047a839171b339380a460019056fea26469706673582212209ef06aa881fae08c22f9fa14bb44e6a114a188aeb3bd416d77a16c86030904a964736f6c63430008180033a2646970667358221220f8518244a40d975f459f9ef699cfdc5c9cde9c787afc403747d7730e562b37ef64736f6c63430008180033",
  "linkReferences": {},
  "deployedLinkReferences": {}
}