{
  "_format": "hh-sol-artifact-1",
  "contractName": "HoneyExecutor",
  "sourceName": "contracts/src/HoneyExecutor.sol",
  "abi": [
    {
      "inputs": [],
      "stateMutability": "nonpayable",
      "type": "constructor"
    },
    {
      "inputs": [],
      "name": "AccessControlBadConfirmation",
      "type": "error"
    },
    {
      "inputs": [
        {
          "internalType": "address",
          "name": "account",
          "type": "address"
        },
        {
          "internalType": "bytes32",
          "name": "neededRole",
          "type": "bytes32"
        }
      ],
      "name": "AccessControlUnauthorizedAccount",
      "type": "error"
    },
    {
      "inputs": [
        {
          "internalType": "uint256",
          "name": "amountOut",
          "type": "uint256"
        },
        {
          "internalType": "uint256",
          "name": "expectedAmountOut",
          "type": "uint256"
        }
      ],
      "name": "InsufficientOutputAmount",
      "type": "error"
    },
    {
      "anonymous": false,
      "inputs": [
        {
          "indexed": true,
          "internalType": "bytes32",
          "name": "role",
          "type": "bytes32"
        },
        {
          "indexed": true,
          "internalType": "bytes32",
          "name": "previousAdminRole",
          "type": "bytes32"
        },
        {
          "indexed": true,
          "internalType": "bytes32",
          "name": "newAdminRole",
          "type": "bytes32"
        }
      ],
      "name": "RoleAdminChanged",
      "type": "event"
    },
    {
      "anonymous": false,
      "inputs": [
        {
          "indexed": true,
          "internalType": "bytes32",
          "name": "role",
          "type": "bytes32"
        },
        {
          "indexed": true,
          "internalType": "address",
          "name": "account",
          "type": "address"
        },
        {
          "indexed": true,
          "internalType": "address",
          "name": "sender",
          "type": "address"
        }
      ],
      "name": "RoleGranted",
      "type": "event"
    },
    {
      "anonymous": false,
      "inputs": [
        {
          "indexed": true,
          "internalType": "bytes32",
          "name": "role",
          "type": "bytes32"
        },
        {
          "indexed": true,
          "internalType": "address",
          "name": "account",
          "type": "address"
        },
        {
          "indexed": true,
          "internalType": "address",
          "name": "sender",
          "type": "address"
        }
      ],
      "name": "RoleRevoked",
      "type": "event"
    },
    {
      "inputs": [],
      "name": "DEFAULT_ADMIN_ROLE",
      "outputs": [
        {
          "internalType": "bytes32",
          "name": "",
          "type": "bytes32"
        }
      ],
      "stateMutability": "view",
      "type": "function"
    },
    {
      "inputs": [
        {
          "internalType": "string",
          "name": "name",
          "type": "string"
        },
        {
          "internalType": "string",
          "name": "routerURI",
          "type": "string"
        },
        {
          "internalType": "address",
          "name": "routerId",
          "type": "address"
        }
      ],
      "name": "addRouter",
      "outputs": [],
      "stateMutability": "nonpayable",
      "type": "function"
    },
    {
      "inputs": [
        {
          "internalType": "uint256",
          "name": "amountIn",
          "type": "uint256"
        },
        {
          "internalType": "address",
          "name": "tokenIn",
          "type": "address"
        },
        {
          "internalType": "address",
          "name": "tokenOut",
          "type": "address"
        }
      ],
      "name": "bestRouter",
      "outputs": [
        {
          "internalType": "uint256",
          "name": "",
          "type": "uint256"
        },
        {
          "internalType": "address",
          "name": "",
          "type": "address"
        },
        {
          "components": [
            {
              "internalType": "string",
              "name": "name",
              "type": "string"
            },
            {
              "internalType": "string",
              "name": "routerURI",
              "type": "string"
            }
          ],
          "internalType": "struct IHoneyExecutor.Router",
          "name": "",
          "type": "tuple"
        }
      ],
      "stateMutability": "view",
      "type": "function"
    },
    {
      "inputs": [
        {
          "internalType": "bytes32",
          "name": "role",
          "type": "bytes32"
        }
      ],
      "name": "getRoleAdmin",
      "outputs": [
        {
          "internalType": "bytes32",
          "name": "",
          "type": "bytes32"
        }
      ],
      "stateMutability": "view",
      "type": "function"
    },
    {
      "inputs": [
        {
          "internalType": "address",
          "name": "routerId",
          "type": "address"
        }
      ],
      "name": "getRouter",
      "outputs": [
        {
          "components": [
            {
              "internalType": "string",
              "name": "name",
              "type": "string"
            },
            {
              "internalType": "string",
              "name": "routerURI",
              "type": "string"
            }
          ],
          "internalType": "struct IHoneyExecutor.Router",
          "name": "",
          "type": "tuple"
        }
      ],
      "stateMutability": "view",
      "type": "function"
    },
    {
      "inputs": [],
      "name": "getRouterCount",
      "outputs": [
        {
          "internalType": "uint256",
          "name": "",
          "type": "uint256"
        }
      ],
      "stateMutability": "view",
      "type": "function"
    },
    {
      "inputs": [
        {
          "internalType": "bytes32",
          "name": "role",
          "type": "bytes32"
        },
        {
          "internalType": "address",
          "name": "account",
          "type": "address"
        }
      ],
      "name": "grantRole",
      "outputs": [],
      "stateMutability": "nonpayable",
      "type": "function"
    },
    {
      "inputs": [
        {
          "internalType": "bytes32",
          "name": "role",
          "type": "bytes32"
        },
        {
          "internalType": "address",
          "name": "account",
          "type": "address"
        }
      ],
      "name": "hasRole",
      "outputs": [
        {
          "internalType": "bool",
          "name": "",
          "type": "bool"
        }
      ],
      "stateMutability": "view",
      "type": "function"
    },
    {
      "inputs": [
        {
          "internalType": "address",
          "name": "routerId",
          "type": "address"
        }
      ],
      "name": "removeRouter",
      "outputs": [],
      "stateMutability": "nonpayable",
      "type": "function"
    },
    {
      "inputs": [
        {
          "internalType": "bytes32",
          "name": "role",
          "type": "bytes32"
        },
        {
          "internalType": "address",
          "name": "callerConfirmation",
          "type": "address"
        }
      ],
      "name": "renounceRole",
      "outputs": [],
      "stateMutability": "nonpayable",
      "type": "function"
    },
    {
      "inputs": [
        {
          "internalType": "bytes32",
          "name": "role",
          "type": "bytes32"
        },
        {
          "internalType": "address",
          "name": "account",
          "type": "address"
        }
      ],
      "name": "revokeRole",
      "outputs": [],
      "stateMutability": "nonpayable",
      "type": "function"
    },
    {
      "inputs": [
        {
          "internalType": "uint256",
          "name": "",
          "type": "uint256"
        }
      ],
      "name": "routerIds",
      "outputs": [
        {
          "internalType": "address",
          "name": "",
          "type": "address"
        }
      ],
      "stateMutability": "view",
      "type": "function"
    },
    {
      "inputs": [
        {
          "internalType": "address",
          "name": "",
          "type": "address"
        }
      ],
      "name": "routers",
      "outputs": [
        {
          "internalType": "string",
          "name": "name",
          "type": "string"
        },
        {
          "internalType": "string",
          "name": "routerURI",
          "type": "string"
        }
      ],
      "stateMutability": "view",
      "type": "function"
    },
    {
      "inputs": [
        {
          "internalType": "bytes4",
          "name": "interfaceId",
          "type": "bytes4"
        }
      ],
      "name": "supportsInterface",
      "outputs": [
        {
          "internalType": "bool",
          "name": "",
          "type": "bool"
        }
      ],
      "stateMutability": "view",
      "type": "function"
    },
    {
      "inputs": [
        {
          "internalType": "address",
          "name": "tokenOut",
          "type": "address"
        },
        {
          "internalType": "uint256",
          "name": "amountOutMin",
          "type": "uint256"
        },
        {
          "internalType": "address",
          "name": "to",
          "type": "address"
        }
      ],
      "name": "swapETHToTokens",
      "outputs": [
        {
          "internalType": "uint256",
          "name": "",
          "type": "uint256"
        }
      ],
      "stateMutability": "payable",
      "type": "function"
    },
    {
      "inputs": [
        {
          "internalType": "address",
          "name": "tokenIn",
          "type": "address"
        },
        {
          "internalType": "uint256",
          "name": "amountIn",
          "type": "uint256"
        },
        {
          "internalType": "uint256",
          "name": "amountOutMin",
          "type": "uint256"
        },
        {
          "internalType": "address",
          "name": "to",
          "type": "address"
        }
      ],
      "name": "swapTokensToETH",
      "outputs": [
        {
          "internalType": "uint256",
          "name": "",
          "type": "uint256"
        }
      ],
      "stateMutability": "payable",
      "type": "function"
    },
    {
      "inputs": [
        {
          "internalType": "address",
          "name": "tokenIn",
          "type": "address"
        },
        {
          "internalType": "uint256",
          "name": "amountIn",
          "type": "uint256"
        },
        {
          "internalType": "address",
          "name": "tokenOut",
          "type": "address"
        },
        {
          "internalType": "uint256",
          "name": "amountOutMin",
          "type": "uint256"
        },
        {
          "internalType": "address",
          "name": "to",
          "type": "address"
        }
      ],
      "name": "swapTokensToTokens",
      "outputs": [
        {
          "internalType": "uint256",
          "name": "",
          "type": "uint256"
        }
      ],
      "stateMutability": "payable",
      "type": "function"
    }
  ],
  "bytecode": "0x6080604052346100225761001233610027565b506040516113f790816100b88239f35b600080fd5b6001600160a01b031660008181527fad3228b676f7d3cd4284a5443f17f1962b36e491b30a40b2405849e597ba5fb5602052604081205490919060ff166100b357818052816020526040822081835260205260408220600160ff1982541617905533917f2f8788117e7eff1d82e926ec794901d17c78024a50270940304540a733656f0d8180a4600190565b509056fe60806040908082526004918236101561001757600080fd5b600091823560e01c90816301ffc9a714610d1f57508063248a9ca314610cf55780632f2ff15d14610ccb57806336568abe14610c6d57806361ee103114610c095780636ae0b15414610af05780636ee4035d14610aae57806380dd9a1f14610a475780638369166d146109ef57806391d14854146109aa57806395eb0870146107b1578063a217fddf14610797578063a5be5f7a14610779578063b89eb11d1461047a578063d219d1f3146102bf578063d547741f1461027c5763fc7a6a23146100e057600080fd5b60a0366003190112610278576100f4610def565b9260243593610101610dd9565b916001600160a01b0360843581811693606435918590036102745761012786828b6112b0565b50929081811061025857505082169386519863095ea7b360e01b8a526020998a818061016c85888b8401602090939291936001600160a01b0360408201951681520152565b03818d8b5af1801561024e5792608495928c989795928c95610221575b50838b519a8b998a987f3f3f80c3000000000000000000000000000000000000000000000000000000008a5289015216602487015260448601526064850152165af19283156102165780936101e1575b505051908152f35b909192508382813d831161020f575b6101fa8183610f2b565b8101031261020c5750519038806101d9565b80fd5b503d6101f0565b8251903d90823e3d90fd5b610240908a3d8c11610247575b6102388183610f2b565b8101906110c5565b5038610189565b503d61022e565b89513d8c823e3d90fd5b60449186918a519263d28d3eb560e01b84528301526024820152fd5b8780fd5b5080fd5b508290346102bb57806003193601126102bb576102b791356102b260016102a1610dbe565b938387528660205286200154611195565b61123a565b5080f35b8280fd5b506060366003190112610278576102d4610def565b92602493602435916102e4610dd9565b926102ed611020565b508596869387946002546001600160a01b039384809416975b8281106103a057505050169182885260209860018a52610327888a20611099565b5081811061038457505091604491889493875196879586947fbed2d5e800000000000000000000000000000000000000000000000000000000865285015216602483015234905af19283156102165780936101e157505051908152f35b604491859189519263d28d3eb560e01b84528301526024820152fd5b90919293506103ae81610e72565b90546003918c5190632550332960e11b825273eeeeeeeeeeeeeeeeeeeeeeeeeeeeeeeeeeeeeeee8b8301528b86830152346044830152816064818b6020968795891b1c165afa91821561046e578e9261043c575b50508d811161041b575b50506001019084939291610306565b86919d5060019295509c61042e86610e72565b9054911b1c1693903861040c565b90809250813d8311610467575b6104538183610f2b565b8101031261046357513880610402565b8c80fd5b503d610449565b8e8e51903d90823e3d90fd5b50346102785760603660031901126102785767ffffffffffffffff908335828111610775576104ac9036908601610ff2565b602493919335828111610771576104c96104f99136908901610ff2565b6104f06104d4610dd9565b976104dd611124565b8751956104e987610ef9565b36916110dd565b845236916110dd565b916020918281019384526001600160a01b03861687526001948584528720905190815183811161075e579086916105308254610ebf565b93601f94858111610732575b5086908583116001146106d05761056b92918c918361061b575b50508160011b916000199060031b1c19161790565b81555b0193519283519283116106bd576105858554610ebf565b828111610687575b5080918311600114610626575081906105bb93889261061b5750508160011b916000199060031b1c19161790565b90555b600254906801000000000000000082101561060857816105e691610605949301600255610e72565b9091906001600160a01b038084549260031b9316831b921b1916179055565b80f35b602484604187634e487b7160e01b835252fd5b015190503880610556565b908593601f198416868a52838a20938a905b82821061066e5750508411610655575b505050811b0190556105be565b015160001960f88460031b161c19169055388080610648565b8484015186558997909501949384019390810190610638565b6106ae90868a52828a208480870160051c8201928588106106b4575b0160051c0190611039565b3861058d565b925081926106a3565b60248860418b634e487b7160e01b835252fd5b838c52878c209190601f1984168d5b8a82821061071c5750509084879594939210610703575b505050811b01815561056e565b015160001960f88460031b161c191690553880806106f6565b8385015186558d989095019493840193016106df565b61075890848d52888d208780860160051c8201928b87106106b4570160051c0190611039565b3861053c565b60248960418c634e487b7160e01b835252fd5b8580fd5b8380fd5b50346102785781600319360112610278576020906002549051908152f35b503461027857816003193601126102785751908152602090f35b506080366003190112610278576107c6610def565b6024359060443594606435956001600160a01b03968781168091036109a6576107ed611020565b50869787908895816002549116965b8181106108e557505081169283895260209960018b5261081d898b20611099565b50818110610258575050865163095ea7b360e01b81526001600160a01b039091168482019081526020810187905289908290819060400103818b895af180156108db57928995949289926064956108be575b50885197889687957f796449dd000000000000000000000000000000000000000000000000000000008752860152602485015260448401525af19283156102165780936101e157505051908152f35b6108d490883d8a11610247576102388183610f2b565b503861086f565b87513d8a823e3d90fd5b6108ee81610e72565b90546003918c5190632550332960e11b82528b8b83015273eeeeeeeeeeeeeeeeeeeeeeeeeeeeeeeeeeeeeeee60248301528c604483015281606481896020968795891b1c165afa91821561046e578e92610978575b50508d8111610957575b50506001016107fc565b84919d5060019295509c61096a86610e72565b9054911b1c1693903861094d565b90809250813d831161099f575b61098f8183610f2b565b8101031261046357513880610943565b503d610985565b8680fd5b5082346102bb57816003193601126102bb578160209360ff926109cb610dbe565b903582528186526001600160a01b0383832091168252855220541690519015158152f35b503461027857602036600319011261027857610a3081610a43936001600160a01b03610a19610def565b610a21611020565b50168152600160205220611099565b9051918291602083526020830190610e45565b0390f35b50346102785760203660031901126102785780916001600160a01b03610a6b610def565b16815260016020522090610a43610a8d6001610a8685610f4d565b9401610f4d565b610aa08351948486958652850190610e05565b908382036020850152610e05565b5082346102bb5760203660031901126102bb57359160025483101561020c57506001600160a01b03610ae1602093610e72565b92905490519260031b1c168152f35b508290346102bb5760203660031901126102bb57600191610b0f610def565b90610b18611124565b6001600160a01b03809216808652610b41858695816020528820610b3b81611050565b01611050565b85945b610b4c578580f35b600280549081871015610c0357849183610b6589610e72565b949054600395861b1c1614610b81575050508380950194610b44565b93925094509460001992838101908111610bf057906105e685610ba6610bb394610e72565b9054908a1b1c1691610e72565b8354908115610bdd57500192610bc884610e72565b81939154921b1b191690555581808080808580f35b866031602492634e487b7160e01b835252fd5b602488601185634e487b7160e01b835252fd5b50508580f35b5091903461020c57606036600319011261020c5750610a43610c47606092610c2f610dbe565b610c37610dd9565b91610c40611020565b50356112b0565b919390946001600160a01b03815196879687521660208601528401526060830190610e45565b5034610278578060031936011261027857610c86610dbe565b90336001600160a01b03831603610ca357506102b791923561123a565b8390517f6697b232000000000000000000000000000000000000000000000000000000008152fd5b508290346102bb57806003193601126102bb576102b79135610cf060016102a1610dbe565b6111bb565b5082346102bb5760203660031901126102bb57816020936001923581528085522001549051908152f35b839085346102bb5760203660031901126102bb57357fffffffff0000000000000000000000000000000000000000000000000000000081168091036102bb57602092507f7965db0b000000000000000000000000000000000000000000000000000000008114908115610d94575b5015158152f35b7f01ffc9a70000000000000000000000000000000000000000000000000000000091501483610d8d565b602435906001600160a01b0382168203610dd457565b600080fd5b604435906001600160a01b0382168203610dd457565b600435906001600160a01b0382168203610dd457565b919082519283825260005b848110610e31575050826000602080949584010152601f8019910116010190565b602081830181015184830182015201610e10565b610e6f916020610e5e8351604084526040840190610e05565b920151906020818403910152610e05565b90565b600254811015610ea95760026000527f405787fa12a823e0f2b7631cc41b3ba8828b3321ca811111fa75cd3aa3bb5ace0190600090565b634e487b7160e01b600052603260045260246000fd5b90600182811c92168015610eef575b6020831014610ed957565b634e487b7160e01b600052602260045260246000fd5b91607f1691610ece565b6040810190811067ffffffffffffffff821117610f1557604052565b634e487b7160e01b600052604160045260246000fd5b90601f8019910116810190811067ffffffffffffffff821117610f1557604052565b90604051918260008254610f6081610ebf565b90818452602094600191600181169081600014610fd05750600114610f91575b505050610f8f92500383610f2b565b565b600090815285812095935091905b818310610fb8575050610f8f9350820101388080610f80565b85548884018501529485019487945091830191610f9f565b92505050610f8f94925060ff191682840152151560051b820101388080610f80565b9181601f84011215610dd45782359167ffffffffffffffff8311610dd45760208381860195010111610dd457565b6040519061102d82610ef9565b60606020838281520152565b818110611044575050565b60008155600101611039565b61105a8154610ebf565b9081611064575050565b81601f60009311600114611076575055565b908083918252611095601f60208420940160051c840160018501611039565b5555565b906040516110a681610ef9565b60206110c0600183956110b881610f4d565b855201610f4d565b910152565b90816020910312610dd457518015158103610dd45790565b92919267ffffffffffffffff8211610f155760405191611107601f8201601f191660200184610f2b565b829481845281830111610dd4578281602093846000960137010152565b3360009081527fad3228b676f7d3cd4284a5443f17f1962b36e491b30a40b2405849e597ba5fb5602052604081205460ff161561115e5750565b604490604051907fe2517d3f0000000000000000000000000000000000000000000000000000000082523360048301526024820152fd5b80600052600060205260406000203360005260205260ff604060002054161561115e5750565b90600091808352826020526001600160a01b036040842092169182845260205260ff6040842054161560001461123557808352826020526040832082845260205260408320600160ff198254161790557f2f8788117e7eff1d82e926ec794901d17c78024a50270940304540a733656f0d339380a4600190565b505090565b90600091808352826020526001600160a01b036040842092169182845260205260ff6040842054166000146112355780835282602052604083208284526020526040832060ff1981541690557ff6391f5c32d9c69d2a47ea670b442974b53935d1edc7fd64eb21e047a839171b339380a4600190565b919290926112bc611020565b506002546000948594855b8381106112f55750505050506001600160a01b0383166000526001602052610e6f6040600020929392611099565b6112fe81610e72565b906001600160a01b03905491600392604090815192632550332960e11b84528489166004850152848b166024850152876044850152836064818760209586958b1b1c165afa9182156113b7575060009161138b575b509050898111611369575b5050506001016112c7565b9091985060019299509761137c8a610e72565b9054911b1c169790388061135e565b82813d83116113b0575b61139f8183610f2b565b8101031261020c5750518038611353565b503d611395565b513d6000823e3d90fdfea2646970667358221220d2a266759921d44505b49b73971d6805d7fb383d107b7e8087dc20f1f8ddf69e64736f6c63430008180033",
  "linkReferences": {},
  "deployedLinkReferences": {}
}