{
  "_format": "hh-sol-artifact-1",
  "contractName": "HoneyRouter01",
  "sourceName": "contracts/src/HoneyRouter01.sol",
  "abi": [
    {
      "inputs": [
        {
          "internalType": "address",
          "name": "_tokenMap",
          "type": "address"
        },
        {
          "internalType": "address",
          "name": "_router",
          "type": "address"
        },
        {
          "internalType": "address",
          "name": "_treasury",
          "type": "address"
        }
      ],
      "stateMutability": "nonpayable",
      "type": "constructor"
    },
    {
      "inputs": [],
      "name": "AccessControlBadConfirmation",
      "type": "error"
    },
    {
      "inputs": [
        {
          "internalType": "address",
          "name": "account",
          "type": "address"
        },
        {
          "internalType": "bytes32",
          "name": "neededRole",
          "type": "bytes32"
        }
      ],
      "name": "AccessControlUnauthorizedAccount",
      "type": "error"
    },
    {
      "inputs": [
        {
          "internalType": "address",
          "name": "target",
          "type": "address"
        }
      ],
      "name": "AddressEmptyCode",
      "type": "error"
    },
    {
      "inputs": [
        {
          "internalType": "address",
          "name": "account",
          "type": "address"
        }
      ],
      "name": "AddressInsufficientBalance",
      "type": "error"
    },
    {
      "inputs": [],
      "name": "EnforcedPause",
      "type": "error"
    },
    {
      "inputs": [],
      "name": "ExpectedPause",
      "type": "error"
    },
    {
      "inputs": [],
      "name": "FailedInnerCall",
      "type": "error"
    },
    {
      "inputs": [],
      "name": "InvalidLength",
      "type": "error"
    },
    {
      "inputs": [],
      "name": "InvalidMessageSender",
      "type": "error"
    },
    {
      "inputs": [
        {
          "internalType": "uint256",
          "name": "chainSelector",
          "type": "uint256"
        }
      ],
      "name": "InvalidPeer",
      "type": "error"
    },
    {
      "inputs": [
        {
          "internalType": "address",
          "name": "router",
          "type": "address"
        }
      ],
      "name": "InvalidRouter",
      "type": "error"
    },
    {
      "inputs": [
        {
          "internalType": "address",
          "name": "owner",
          "type": "address"
        }
      ],
      "name": "OwnableInvalidOwner",
      "type": "error"
    },
    {
      "inputs": [
        {
          "internalType": "address",
          "name": "account",
          "type": "address"
        }
      ],
      "name": "OwnableUnauthorizedAccount",
      "type": "error"
    },
    {
      "inputs": [],
      "name": "RouterAddressCannotBeZero",
      "type": "error"
    },
    {
      "inputs": [
        {
          "internalType": "address",
          "name": "token",
          "type": "address"
        }
      ],
      "name": "SafeERC20FailedOperation",
      "type": "error"
    },
    {
      "anonymous": false,
      "inputs": [
        {
          "indexed": true,
          "internalType": "address",
          "name": "previousOwner",
          "type": "address"
        },
        {
          "indexed": true,
          "internalType": "address",
          "name": "newOwner",
          "type": "address"
        }
      ],
      "name": "OwnershipTransferred",
      "type": "event"
    },
    {
      "anonymous": false,
      "inputs": [
        {
          "indexed": false,
          "internalType": "address",
          "name": "account",
          "type": "address"
        }
      ],
      "name": "Paused",
      "type": "event"
    },
    {
      "anonymous": false,
      "inputs": [
        {
          "indexed": true,
          "internalType": "bytes32",
          "name": "role",
          "type": "bytes32"
        },
        {
          "indexed": true,
          "internalType": "bytes32",
          "name": "previousAdminRole",
          "type": "bytes32"
        },
        {
          "indexed": true,
          "internalType": "bytes32",
          "name": "newAdminRole",
          "type": "bytes32"
        }
      ],
      "name": "RoleAdminChanged",
      "type": "event"
    },
    {
      "anonymous": false,
      "inputs": [
        {
          "indexed": true,
          "internalType": "bytes32",
          "name": "role",
          "type": "bytes32"
        },
        {
          "indexed": true,
          "internalType": "address",
          "name": "account",
          "type": "address"
        },
        {
          "indexed": true,
          "internalType": "address",
          "name": "sender",
          "type": "address"
        }
      ],
      "name": "RoleGranted",
      "type": "event"
    },
    {
      "anonymous": false,
      "inputs": [
        {
          "indexed": true,
          "internalType": "bytes32",
          "name": "role",
          "type": "bytes32"
        },
        {
          "indexed": true,
          "internalType": "address",
          "name": "account",
          "type": "address"
        },
        {
          "indexed": true,
          "internalType": "address",
          "name": "sender",
          "type": "address"
        }
      ],
      "name": "RoleRevoked",
      "type": "event"
    },
    {
      "anonymous": false,
      "inputs": [
        {
          "indexed": false,
          "internalType": "address",
          "name": "account",
          "type": "address"
        }
      ],
      "name": "Unpaused",
      "type": "event"
    },
    {
      "inputs": [],
      "name": "DEFAULT_ADMIN_ROLE",
      "outputs": [
        {
          "internalType": "bytes32",
          "name": "",
          "type": "bytes32"
        }
      ],
      "stateMutability": "view",
      "type": "function"
    },
    {
      "inputs": [],
      "name": "TREASURY",
      "outputs": [
        {
          "internalType": "address",
          "name": "",
          "type": "address"
        }
      ],
      "stateMutability": "view",
      "type": "function"
    },
    {
      "inputs": [
        {
          "internalType": "uint256",
          "name": "amountIn",
          "type": "uint256"
        },
        {
          "internalType": "address",
          "name": "tokenIn",
          "type": "address"
        },
        {
          "internalType": "address",
          "name": "tokenOut",
          "type": "address"
        }
      ],
      "name": "bestRouter",
      "outputs": [
        {
          "internalType": "uint256",
          "name": "",
          "type": "uint256"
        },
        {
          "internalType": "address",
          "name": "",
          "type": "address"
        },
        {
          "components": [
            {
              "internalType": "string",
              "name": "name",
              "type": "string"
            },
            {
              "internalType": "string",
              "name": "routerURI",
              "type": "string"
            }
          ],
          "internalType": "struct IHoneyExecutor.Router",
          "name": "",
          "type": "tuple"
        }
      ],
      "stateMutability": "view",
      "type": "function"
    },
    {
      "inputs": [],
      "name": "getEquitoFee",
      "outputs": [
        {
          "internalType": "uint256",
          "name": "",
          "type": "uint256"
        }
      ],
      "stateMutability": "view",
      "type": "function"
    },
    {
      "inputs": [
        {
          "internalType": "uint256",
          "name": "chainSelector",
          "type": "uint256"
        }
      ],
      "name": "getPeer",
      "outputs": [
        {
          "components": [
            {
              "internalType": "bytes32",
              "name": "lower",
              "type": "bytes32"
            },
            {
              "internalType": "bytes32",
              "name": "upper",
              "type": "bytes32"
            }
          ],
          "internalType": "struct bytes64",
          "name": "",
          "type": "tuple"
        }
      ],
      "stateMutability": "view",
      "type": "function"
    },
    {
      "inputs": [
        {
          "internalType": "bytes32",
          "name": "role",
          "type": "bytes32"
        }
      ],
      "name": "getRoleAdmin",
      "outputs": [
        {
          "internalType": "bytes32",
          "name": "",
          "type": "bytes32"
        }
      ],
      "stateMutability": "view",
      "type": "function"
    },
    {
      "inputs": [
        {
          "internalType": "bytes32",
          "name": "role",
          "type": "bytes32"
        },
        {
          "internalType": "address",
          "name": "account",
          "type": "address"
        }
      ],
      "name": "grantRole",
      "outputs": [],
      "stateMutability": "nonpayable",
      "type": "function"
    },
    {
      "inputs": [
        {
          "internalType": "bytes32",
          "name": "role",
          "type": "bytes32"
        },
        {
          "internalType": "address",
          "name": "account",
          "type": "address"
        }
      ],
      "name": "hasRole",
      "outputs": [
        {
          "internalType": "bool",
          "name": "",
          "type": "bool"
        }
      ],
      "stateMutability": "view",
      "type": "function"
    },
    {
      "inputs": [],
      "name": "owner",
      "outputs": [
        {
          "internalType": "address",
          "name": "",
          "type": "address"
        }
      ],
      "stateMutability": "view",
      "type": "function"
    },
    {
      "inputs": [],
      "name": "pause",
      "outputs": [],
      "stateMutability": "nonpayable",
      "type": "function"
    },
    {
      "inputs": [],
      "name": "paused",
      "outputs": [
        {
          "internalType": "bool",
          "name": "",
          "type": "bool"
        }
      ],
      "stateMutability": "view",
      "type": "function"
    },
    {
      "inputs": [
        {
          "internalType": "uint256",
          "name": "",
          "type": "uint256"
        }
      ],
      "name": "peers",
      "outputs": [
        {
          "internalType": "bytes32",
          "name": "lower",
          "type": "bytes32"
        },
        {
          "internalType": "bytes32",
          "name": "upper",
          "type": "bytes32"
        }
      ],
      "stateMutability": "view",
      "type": "function"
    },
    {
      "inputs": [
        {
          "components": [
            {
              "internalType": "uint256",
              "name": "blockNumber",
              "type": "uint256"
            },
            {
              "internalType": "uint256",
              "name": "sourceChainSelector",
              "type": "uint256"
            },
            {
              "components": [
                {
                  "internalType": "bytes32",
                  "name": "lower",
                  "type": "bytes32"
                },
                {
                  "internalType": "bytes32",
                  "name": "upper",
                  "type": "bytes32"
                }
              ],
              "internalType": "struct bytes64",
              "name": "sender",
              "type": "tuple"
            },
            {
              "internalType": "uint256",
              "name": "destinationChainSelector",
              "type": "uint256"
            },
            {
              "components": [
                {
                  "internalType": "bytes32",
                  "name": "lower",
                  "type": "bytes32"
                },
                {
                  "internalType": "bytes32",
                  "name": "upper",
                  "type": "bytes32"
                }
              ],
              "internalType": "struct bytes64",
              "name": "receiver",
              "type": "tuple"
            },
            {
              "internalType": "bytes32",
              "name": "hashedData",
              "type": "bytes32"
            }
          ],
          "internalType": "struct EquitoMessage",
          "name": "message",
          "type": "tuple"
        },
        {
          "internalType": "bytes",
          "name": "messageData",
          "type": "bytes"
        }
      ],
      "name": "receiveMessage",
      "outputs": [],
      "stateMutability": "payable",
      "type": "function"
    },
    {
      "inputs": [],
      "name": "renounceOwnership",
      "outputs": [],
      "stateMutability": "nonpayable",
      "type": "function"
    },
    {
      "inputs": [
        {
          "internalType": "bytes32",
          "name": "role",
          "type": "bytes32"
        },
        {
          "internalType": "address",
          "name": "callerConfirmation",
          "type": "address"
        }
      ],
      "name": "renounceRole",
      "outputs": [],
      "stateMutability": "nonpayable",
      "type": "function"
    },
    {
      "inputs": [
        {
          "internalType": "bytes32",
          "name": "role",
          "type": "bytes32"
        },
        {
          "internalType": "address",
          "name": "account",
          "type": "address"
        }
      ],
      "name": "revokeRole",
      "outputs": [],
      "stateMutability": "nonpayable",
      "type": "function"
    },
    {
      "inputs": [
        {
          "internalType": "uint256[]",
          "name": "chainSelectors",
          "type": "uint256[]"
        },
        {
          "components": [
            {
              "internalType": "bytes32",
              "name": "lower",
              "type": "bytes32"
            },
            {
              "internalType": "bytes32",
              "name": "upper",
              "type": "bytes32"
            }
          ],
          "internalType": "struct bytes64[]",
          "name": "addresses",
          "type": "tuple[]"
        }
      ],
      "name": "setPeers",
      "outputs": [],
      "stateMutability": "nonpayable",
      "type": "function"
    },
    {
      "inputs": [
        {
          "internalType": "bytes4",
          "name": "interfaceId",
          "type": "bytes4"
        }
      ],
      "name": "supportsInterface",
      "outputs": [
        {
          "internalType": "bool",
          "name": "",
          "type": "bool"
        }
      ],
      "stateMutability": "view",
      "type": "function"
    },
    {
      "inputs": [
        {
          "internalType": "address",
          "name": "tokenOut",
          "type": "address"
        },
        {
          "internalType": "uint256",
          "name": "amountOutMin",
          "type": "uint256"
        },
        {
          "internalType": "uint256",
          "name": "destinationChainSelector",
          "type": "uint256"
        }
      ],
      "name": "swapETHToTokens",
      "outputs": [],
      "stateMutability": "payable",
      "type": "function"
    },
    {
      "inputs": [
        {
          "internalType": "address",
          "name": "tokenIn",
          "type": "address"
        },
        {
          "internalType": "uint256",
          "name": "amountIn",
          "type": "uint256"
        },
        {
          "internalType": "uint256",
          "name": "amountOutMin",
          "type": "uint256"
        },
        {
          "internalType": "uint256",
          "name": "destinationChainSelector",
          "type": "uint256"
        }
      ],
      "name": "swapTokensToETH",
      "outputs": [],
      "stateMutability": "payable",
      "type": "function"
    },
    {
      "inputs": [
        {
          "internalType": "address",
          "name": "tokenIn",
          "type": "address"
        },
        {
          "internalType": "uint256",
          "name": "amountIn",
          "type": "uint256"
        },
        {
          "internalType": "address",
          "name": "tokenOut",
          "type": "address"
        },
        {
          "internalType": "uint256",
          "name": "amountOutMin",
          "type": "uint256"
        },
        {
          "internalType": "uint256",
          "name": "destinationChainSelector",
          "type": "uint256"
        }
      ],
      "name": "swapTokensToTokens",
      "outputs": [],
      "stateMutability": "payable",
      "type": "function"
    },
    {
      "inputs": [
        {
          "internalType": "address",
          "name": "value",
          "type": "address"
        }
      ],
      "name": "toBase64",
      "outputs": [
        {
          "components": [
            {
              "internalType": "bytes32",
              "name": "lower",
              "type": "bytes32"
            },
            {
              "internalType": "bytes32",
              "name": "upper",
              "type": "bytes32"
            }
          ],
          "internalType": "struct bytes64",
          "name": "",
          "type": "tuple"
        }
      ],
      "stateMutability": "pure",
      "type": "function"
    },
    {
      "inputs": [
        {
          "internalType": "address",
          "name": "newOwner",
          "type": "address"
        }
      ],
      "name": "transferOwnership",
      "outputs": [],
      "stateMutability": "nonpayable",
      "type": "function"
    },
    {
      "inputs": [],
      "name": "unPause",
      "outputs": [],
      "stateMutability": "nonpayable",
      "type": "function"
    },
    {
      "inputs": [
        {
          "internalType": "address",
          "name": "newExecutor",
          "type": "address"
        }
      ],
      "name": "updateExecutor",
      "outputs": [],
      "stateMutability": "nonpayable",
      "type": "function"
    },
    {
      "inputs": [
        {
          "internalType": "address",
          "name": "newFactory",
          "type": "address"
        }
      ],
      "name": "updateFactory",
      "outputs": [],
      "stateMutability": "nonpayable",
      "type": "function"
    }
  ],
  "bytecode": "0x60a0346200016d57601f62001e2838819003918201601f19168301916001600160401b0383118484101762000172578084926060946040528339810103126200016d576200004d8162000188565b906200006a6040620000626020840162000188565b920162000188565b91600154331562000154576001600160a81b0319811633600881811b610100600160a81b0316929092176001556040516001600160a01b0395909386939192911c83167f8be0079c531659141344cd1fd0a4f28419497f9722a3daafe3b4186f6b6457e0600080a3169081156200014557506080528160018060a01b031993168360035416176003551690600454161760045562000108336200019d565b50604051611bf990816200022f8239608051818181610407015281816106f80152818161084601528181610efa0152818161113101526118a90152f35b635008268360e01b8152600490fd5b604051631e4fbdf760e01b815260006004820152602490fd5b600080fd5b634e487b7160e01b600052604160045260246000fd5b51906001600160a01b03821682036200016d57565b6001600160a01b031660008181527fad3228b676f7d3cd4284a5443f17f1962b36e491b30a40b2405849e597ba5fb5602052604081205490919060ff166200022a57818052816020526040822081835260205260408220600160ff1982541617905533917f2f8788117e7eff1d82e926ec794901d17c78024a50270940304540a733656f0d8180a4600190565b509056fe6080604081815260048036101561001557600080fd5b600092833560e01c90816301ffc9a71461144657508063248a9ca31461141d5780632d2c5565146113f55780632f2ff15d146113cc57806336568abe1461136c578381634cbb45051461108e5750806359a1aae114610f765780635c42132e14610ec65780635c975abb14610ea257806361ee103114610d0a57806367ebb6b214610c5e578063715018a614610bf257806374936c1614610ba65780638456cb5914610b4c578063879d182d146107e95780638da5cb5b146107be57806391d1485414610779578063a1e8320914610630578063a217fddf14610615578063a4c021e9146103db578063be4f3e8f146103aa578063d547741f1461036c578063d9f165dc1461031d578063ef88e0e114610295578063f2fde38b146101c85763f7b188a51461014357600080fd5b346101c457826003193601126101c45761015b611638565b6001549060ff82161561019d575060ff1916600155513381527f5db9ee0a495bf2e6ff9c91a7834c1ba4fdd244a5e8aa4e537bd38aeae4b073aa90602090a180f35b82517f8dfc202b000000000000000000000000000000000000000000000000000000008152fd5b8280fd5b50346101c45760203660031901126101c4576101e26114fb565b6101ea6119bf565b6001600160a01b039182821693841561026657505074ffffffffffffffffffffffffffffffffffffffff006001549160081b1674ffffffffffffffffffffffffffffffffffffffff001982161760015560081c167f8be0079c531659141344cd1fd0a4f28419497f9722a3daafe3b4186f6b6457e0600080a380f35b908560249251917f1e4fbdf7000000000000000000000000000000000000000000000000000000008352820152fd5b5050346103195760203660031901126103195790610315916102b56114fb565b916000602083516102c58161156f565b82815201526000602083516102d98161156f565b82815201526001600160a01b038251936102f28561156f565b168352602083015251918291829190916020806040830194805184520151910152565b0390f35b5080fd5b8334610369576020366003190112610369576001600160a01b0361033f6114fb565b610347611638565b1673ffffffffffffffffffffffffffffffffffffffff19600554161760055580f35b80fd5b5090346101c457806003193601126101c4576103a691356103a160016103906114e5565b9383875286602052862001546116a9565b61174e565b5080f35b50346101c45760203660031901126101c4579181923581526002602052206001815491015482519182526020820152f35b5060603660031901126101c4576103f06114fb565b6044356103fb6117c4565b6001600160a01b0393847f0000000000000000000000000000000000000000000000000000000000000000168151634e4bc84760e01b80825260209182818981875afa908115610563579086918b916105e4575b500361056d5734965b8289600654169960648751809b81937fd219d1f30000000000000000000000000000000000000000000000000000000083528c169d8e8784015260243560248401523060448401525af1978815610563578a98610532575b5090829185518095819382525afa92831561052957509083929188926104f3575b5050036104e85750506104e5913390611a1a565b80f35b6104e5935033611866565b8193508092503d8311610522575b61050b81836115a1565b8101031261051d5781905138806104d1565b600080fd5b503d610501565b513d89823e3d90fd5b919097508282813d831161055c575b61054b81836115a1565b8101031261051d57905196826104b0565b503d610541565b85513d8c823e3d90fd5b8351631711922960e31b815230888201528281602481875afa908115610563578a916105b7575b5034033481116105a45796610458565b60248a60118a634e487b7160e01b835252fd5b90508281813d83116105dd575b6105ce81836115a1565b8101031261051d575138610594565b503d6105c4565b809250848092503d831161060e575b6105fd81836115a1565b8101031261051d578590513861044f565b503d6105f3565b50503461031957816003193601126103195751908152602090f35b509060a03660031901126101c4576106466114fb565b9060243592610653611511565b91608435916106606117c4565b866001600160a01b038096169561067d888260065416338a6117fa565b8060065416978451977ffc7a6a230000000000000000000000000000000000000000000000000000000089528489015260248801528086169788604489015260643560648901523060848901528760a48160209586945af196871561076f578997610740575b508190845193848092634e4bc84760e01b82527f0000000000000000000000000000000000000000000000000000000000000000165afa92831561052957509083929188926104f3575050036104e85750506104e5913390611a1a565b9096508181813d8311610768575b61075881836115a1565b8101031261051d575195816106e3565b503d61074e565b84513d8b823e3d90fd5b50346101c457816003193601126101c4576001600160a01b038260209461079e6114e5565b93358152808652209116600052825260ff81600020541690519015158152f35b5050346103195781600319360112610319576020906001600160a01b0360015460081c169051908152f35b50913660031901610120811261031957610100136103695767ffffffffffffffff610104358181116101c457366023820112156101c45780850135828111610b48576024908201923682850111610b44576001600160a01b0391827f0000000000000000000000000000000000000000000000000000000000000000163303610b185780359081875260209560028752868989208a516108888161156f565b6001825492838352015492839101526044351490811591610b0b575b50156108d2578989517f7fee69a1000000000000000000000000000000000000000000000000000000008152fd5b906060868b939a999a0312610b075761095593876108f1838901611a06565b94606461090060448b01611a06565b990135958880875416918d51998a94859384937fb464631b000000000000000000000000000000000000000000000000000000008552168a8401602090939291936001600160a01b0360408201951681520152565b03915afa948515610afd578a95610ac2575b50856005541690813b15610abe578a8a5180937fc1bf9e580000000000000000000000000000000000000000000000000000000082528183816109c38b8d8c8401602090939291936001600160a01b0360408201951681520152565b03925af18015610ab457610a8f575b505090879182519384927fdbceb0050000000000000000000000000000000000000000000000000000000084528301528173__$cee652c4e9f55bc124e1380243e2f45138$__5af4948515610a855787968896610a4a575b5050506104e5948280610a409316941684611a1a565b6003541690611a1a565b91965091945085813d8111610a7e575b610a6481836115a1565b81010312610a7a57845194015192848280610a2a565b8580fd5b503d610a5a565b86513d89823e3d90fd5b819a929a11610aa257885297878a6109d2565b5060418992634e487b7160e01b835252fd5b8a513d8d823e3d90fd5b8a80fd5b9094508781813d8311610af6575b610ada81836115a1565b81010312610af257610aeb906115c3565b938a610967565b8980fd5b503d610ad0565b89513d8c823e3d90fd5b8880fd5b90506064351415386108a4565b86517fd7f7333400000000000000000000000000000000000000000000000000000000815233818a0152fd5b8480fd5b8380fd5b50503461031957816003193601126103195760207f62e78cea01bee320cd4e420270b5ea74000d11b0c9f74754ebdbfc544b05a25891610b8a611638565b610b926117c4565b600160ff198154161760015551338152a180f35b8334610369576020366003190112610369576001600160a01b03610bc86114fb565b610bd0611638565b1673ffffffffffffffffffffffffffffffffffffffff19600654161760065580f35b8334610369578060031936011261036957610c0b6119bf565b806001600160a01b0360015474ffffffffffffffffffffffffffffffffffffffff0019811660015560081c167f8be0079c531659141344cd1fd0a4f28419497f9722a3daafe3b4186f6b6457e08280a380f35b5082903461031957602036600319011261031957828135928060208351610c848161156f565b828152015283815260026020522091835192610c9f8461156f565b6001815491828652015490816020860152159081610d01575b50610cd25783518351815260208085015190820152604090f35b602492508351917f78d0dbfc000000000000000000000000000000000000000000000000000000008352820152fd5b90501585610cb8565b50919034610319576060806003193601126101c457610d276114e5565b90610d30611511565b9284815193610d3e8561156f565b8385528360208096015260646001600160a01b039889978880600654169187519c8d9687957f61ee10310000000000000000000000000000000000000000000000000000000087528035908701521660248501521660448301525afa938415610e98578580978196610ded575b50509181610315959493610dd9935198899889521684880152818188015284519187015260a086019061154a565b910151838203605f1901608085015261154a565b9650965093503d8087873e610e0281876115a1565b85018286820312610e9457855190610e1b8588016115c3565b968381015167ffffffffffffffff91828211610abe57018481840312610af257845199610e478b61156f565b81518381116103195784610e5c9184016115f3565b8b52878201519283116103695750610dd994926103159897969492610e8192016115f3565b858a015296979581935094919394610dab565b8680fd5b81513d87823e3d90fd5b50503461031957816003193601126103195760209060ff6001541690519015158152f35b5090346101c457826003193601126101c457805191631711922960e31b835230908301526020826024816001600160a01b037f0000000000000000000000000000000000000000000000000000000000000000165afa918215610f6c578392610f34575b6020838351908152f35b9091506020813d602011610f64575b81610f50602093836115a1565b810103126101c45760209250519038610f2a565b3d9150610f43565b81513d85823e3d90fd5b5090346101c457806003193601126101c45781359167ffffffffffffffff808411610b445736602385011215610b44578382013592818411610a7a5760249260059236858760051b8901011161108a57843591818311610b075736602384011215610b075782810135918211610b075760069136878260061b86010111610af257610fff6119bf565b6110076119bf565b80880361106257895b88811061101b578a80f35b818110156110505780871b8a018801358b526002602052858b2081851b86018981013582556044013560019182015501611010565b878b603285634e487b7160e01b835252fd5b5083517f947d5a84000000000000000000000000000000000000000000000000000000008152fd5b8780fd5b919050608036600319011261031957816110a66114fb565b60243592606435916110b66117c4565b6001600160a01b03809116946110d281836006541633896117fa565b8160065416908851967f95eb087000000000000000000000000000000000000000000000000000000000885284880152602487015260443560448701523060648701528560848160209788945af1948515611362578695611333575b507f0000000000000000000000000000000000000000000000000000000000000000168651634e4bc84760e01b815284818481855afa801561132957849188916112f8575b50036111a857505050508180809281811561119f575b3390f115611195575080f35b51903d90823e3d90fd5b506108fc611189565b91945091949283519073eeeeeeeeeeeeeeeeeeeeeeeeeeeeeeeeeeeeeeee8783015233858301526060820152606081526080810181811067ffffffffffffffff8211176112e557808552631711922960e31b81523060848301528681602481865afa9081156112db57908793929189916112a9575b5060019394878a5260028652611266878b20938851998a978896879563dc20313760e01b875281549087015201546024850152604484015260806064840152608483019061154a565b03925af19081156112a0575061127b57505080f35b813d8311611299575b61128e81836115a1565b810103126103695780f35b503d611284565b513d85823e3d90fd5b93905081813d83116112d4575b6112c081876115a1565b8101031261108a579151869290600161121d565b503d6112b6565b85513d8a823e3d90fd5b602488604186634e487b7160e01b835252fd5b809250868092503d8311611322575b61131181836115a1565b81010312610e945783905138611173565b503d611307565b88513d89823e3d90fd5b9094508381813d831161135b575b61134b81836115a1565b81010312610a7a5751933861112e565b503d611341565b87513d88823e3d90fd5b509190346103195780600319360112610319576113876114e5565b90336001600160a01b038316036113a457506103a691923561174e565b8390517f6697b232000000000000000000000000000000000000000000000000000000008152fd5b5090346101c457806003193601126101c4576103a691356113f060016103906114e5565b6116cf565b5050346103195781600319360112610319576020906001600160a01b03600354169051908152f35b50346101c45760203660031901126101c457816020936001923581528085522001549051908152f35b925050346101c45760203660031901126101c457357fffffffff0000000000000000000000000000000000000000000000000000000081168091036101c457602092507f7965db0b0000000000000000000000000000000000000000000000000000000081149081156114bb575b5015158152f35b7f01ffc9a700000000000000000000000000000000000000000000000000000000915014386114b4565b602435906001600160a01b038216820361051d57565b600435906001600160a01b038216820361051d57565b604435906001600160a01b038216820361051d57565b60005b83811061153a5750506000910152565b818101518382015260200161152a565b9060209161156381518092818552858086019101611527565b601f01601f1916010190565b6040810190811067ffffffffffffffff82111761158b57604052565b634e487b7160e01b600052604160045260246000fd5b90601f8019910116810190811067ffffffffffffffff82111761158b57604052565b51906001600160a01b038216820361051d57565b67ffffffffffffffff811161158b57601f01601f191660200190565b81601f8201121561051d578051611609816115d7565b9261161760405194856115a1565b8184526020828401011161051d576116359160208085019101611527565b90565b3360009081527fad3228b676f7d3cd4284a5443f17f1962b36e491b30a40b2405849e597ba5fb5602052604081205460ff16156116725750565b604490604051907fe2517d3f0000000000000000000000000000000000000000000000000000000082523360048301526024820152fd5b80600052600060205260406000203360005260205260ff60406000205416156116725750565b90600091808352826020526001600160a01b036040842092169182845260205260ff6040842054161560001461174957808352826020526040832082845260205260408320600160ff198254161790557f2f8788117e7eff1d82e926ec794901d17c78024a50270940304540a733656f0d339380a4600190565b505090565b90600091808352826020526001600160a01b036040842092169182845260205260ff6040842054166000146117495780835282602052604083208284526020526040832060ff1981541690557ff6391f5c32d9c69d2a47ea670b442974b53935d1edc7fd64eb21e047a839171b339380a4600190565b60ff600154166117d057565b60046040517fd93c0665000000000000000000000000000000000000000000000000000000008152fd5b6040517f23b872dd0000000000000000000000000000000000000000000000000000000060208201526001600160a01b03928316602482015292909116604483015260648201929092526118649161185f82608481015b03601f1981018452836115a1565b611a6c565b565b604080516001600160a01b039485166020808301919091529290941684820152606080850195909552938352929061189f6080846115a1565b6001600160a01b037f0000000000000000000000000000000000000000000000000000000000000000168251631711922960e31b81523060048201528581602481855afa9081156119b4579086939291600091611983575b5060019083600052600285528560002061194187519889968795869463dc20313760e01b86528054600487015201546024850152604484015260806064840152608483019061154a565b03925af19081156119795750611955575050565b813d8311611972575b61196881836115a1565b8101031261051d57565b503d61195e565b513d6000823e3d90fd5b84819592503d83116119ad575b61199a81836115a1565b8101031261051d576001869351906118f7565b503d611990565b84513d6000823e3d90fd5b6001600160a01b0360015460081c1633036119d657565b60246040517f118cdaa7000000000000000000000000000000000000000000000000000000008152336004820152fd5b35906001600160a01b038216820361051d57565b6040517fa9059cbb0000000000000000000000000000000000000000000000000000000060208201526001600160a01b03909216602483015260448201929092526118649161185f8260648101611851565b6001600160a01b031690611ab7600080836020829551910182875af13d15611b28573d90611a99826115d7565b91611aa760405193846115a1565b82523d84602084013e5b84611b30565b908151918215159283611b00575b505050611acf5750565b602490604051907f5274afe70000000000000000000000000000000000000000000000000000000082526004820152fd5b8192935090602091810103126103195760200151908115918215036103695750388080611ac5565b606090611ab1565b90611b6f5750805115611b4557805190602001fd5b60046040517f1425ea42000000000000000000000000000000000000000000000000000000008152fd5b81511580611bba575b611b80575090565b6024906001600160a01b03604051917f9996b315000000000000000000000000000000000000000000000000000000008352166004820152fd5b50803b15611b7856fea264697066735822122088b8aee2ac034802efdc5ca67be9c2f252433902f04fc8983996c87232b3b6aa64736f6c63430008180033",
  "linkReferences": {
    "contracts/src/lib/HoneyFeeMath.sol": {
      "HoneyFeeMath": [
        {
          "length": 20,
          "start": 3124
        }
      ]
    }
  },
  "deployedLinkReferences": {
    "contracts/src/lib/HoneyFeeMath.sol": {
      "HoneyFeeMath": [
        {
          "length": 20,
          "start": 2565
        }
      ]
    }
  }
}