{
  "_format": "hh-sol-artifact-1",
  "contractName": "HUSDT",
  "sourceName": "contracts/src/tokens/HUSDT.sol",
  "abi": [
    {
      "inputs": [],
      "stateMutability": "nonpayable",
      "type": "constructor"
    },
    {
      "inputs": [
        {
          "internalType": "address",
          "name": "spender",
          "type": "address"
        },
        {
          "internalType": "uint256",
          "name": "allowance",
          "type": "uint256"
        },
        {
          "internalType": "uint256",
          "name": "needed",
          "type": "uint256"
        }
      ],
      "name": "ERC20InsufficientAllowance",
      "type": "error"
    },
    {
      "inputs": [
        {
          "internalType": "address",
          "name": "sender",
          "type": "address"
        },
        {
          "internalType": "uint256",
          "name": "balance",
          "type": "uint256"
        },
        {
          "internalType": "uint256",
          "name": "needed",
          "type": "uint256"
        }
      ],
      "name": "ERC20InsufficientBalance",
      "type": "error"
    },
    {
      "inputs": [
        {
          "internalType": "address",
          "name": "approver",
          "type": "address"
        }
      ],
      "name": "ERC20InvalidApprover",
      "type": "error"
    },
    {
      "inputs": [
        {
          "internalType": "address",
          "name": "receiver",
          "type": "address"
        }
      ],
      "name": "ERC20InvalidReceiver",
      "type": "error"
    },
    {
      "inputs": [
        {
          "internalType": "address",
          "name": "sender",
          "type": "address"
        }
      ],
      "name": "ERC20InvalidSender",
      "type": "error"
    },
    {
      "inputs": [
        {
          "internalType": "address",
          "name": "spender",
          "type": "address"
        }
      ],
      "name": "ERC20InvalidSpender",
      "type": "error"
    },
    {
      "anonymous": false,
      "inputs": [
        {
          "indexed": true,
          "internalType": "address",
          "name": "owner",
          "type": "address"
        },
        {
          "indexed": true,
          "internalType": "address",
          "name": "spender",
          "type": "address"
        },
        {
          "indexed": false,
          "internalType": "uint256",
          "name": "value",
          "type": "uint256"
        }
      ],
      "name": "Approval",
      "type": "event"
    },
    {
      "anonymous": false,
      "inputs": [
        {
          "indexed": true,
          "internalType": "address",
          "name": "from",
          "type": "address"
        },
        {
          "indexed": true,
          "internalType": "address",
          "name": "to",
          "type": "address"
        },
        {
          "indexed": false,
          "internalType": "uint256",
          "name": "value",
          "type": "uint256"
        }
      ],
      "name": "Transfer",
      "type": "event"
    },
    {
      "inputs": [
        {
          "internalType": "address",
          "name": "owner",
          "type": "address"
        },
        {
          "internalType": "address",
          "name": "spender",
          "type": "address"
        }
      ],
      "name": "allowance",
      "outputs": [
        {
          "internalType": "uint256",
          "name": "",
          "type": "uint256"
        }
      ],
      "stateMutability": "view",
      "type": "function"
    },
    {
      "inputs": [
        {
          "internalType": "address",
          "name": "spender",
          "type": "address"
        },
        {
          "internalType": "uint256",
          "name": "value",
          "type": "uint256"
        }
      ],
      "name": "approve",
      "outputs": [
        {
          "internalType": "bool",
          "name": "",
          "type": "bool"
        }
      ],
      "stateMutability": "nonpayable",
      "type": "function"
    },
    {
      "inputs": [
        {
          "internalType": "address",
          "name": "account",
          "type": "address"
        }
      ],
      "name": "balanceOf",
      "outputs": [
        {
          "internalType": "uint256",
          "name": "",
          "type": "uint256"
        }
      ],
      "stateMutability": "view",
      "type": "function"
    },
    {
      "inputs": [],
      "name": "decimals",
      "outputs": [
        {
          "internalType": "uint8",
          "name": "",
          "type": "uint8"
        }
      ],
      "stateMutability": "view",
      "type": "function"
    },
    {
      "inputs": [],
      "name": "freeMint",
      "outputs": [],
      "stateMutability": "nonpayable",
      "type": "function"
    },
    {
      "inputs": [],
      "name": "name",
      "outputs": [
        {
          "internalType": "string",
          "name": "",
          "type": "string"
        }
      ],
      "stateMutability": "view",
      "type": "function"
    },
    {
      "inputs": [],
      "name": "symbol",
      "outputs": [
        {
          "internalType": "string",
          "name": "",
          "type": "string"
        }
      ],
      "stateMutability": "view",
      "type": "function"
    },
    {
      "inputs": [],
      "name": "totalSupply",
      "outputs": [
        {
          "internalType": "uint256",
          "name": "",
          "type": "uint256"
        }
      ],
      "stateMutability": "view",
      "type": "function"
    },
    {
      "inputs": [
        {
          "internalType": "address",
          "name": "to",
          "type": "address"
        },
        {
          "internalType": "uint256",
          "name": "value",
          "type": "uint256"
        }
      ],
      "name": "transfer",
      "outputs": [
        {
          "internalType": "bool",
          "name": "",
          "type": "bool"
        }
      ],
      "stateMutability": "nonpayable",
      "type": "function"
    },
    {
      "inputs": [
        {
          "internalType": "address",
          "name": "from",
          "type": "address"
        },
        {
          "internalType": "address",
          "name": "to",
          "type": "address"
        },
        {
          "internalType": "uint256",
          "name": "value",
          "type": "uint256"
        }
      ],
      "name": "transferFrom",
      "outputs": [
        {
          "internalType": "bool",
          "name": "",
          "type": "bool"
        }
      ],
      "stateMutability": "nonpayable",
      "type": "function"
    }
  ],
  "bytecode": "0x608034620003a3576040906001600160401b039080830182811182821017620002a3578352601081526020906f121bdb995e4815195d1a195c881554d160821b8282015283519284840184811082821117620002a35785526005845264121554d11560da1b838501528151818111620002a3576003908154906001948583811c9316801562000398575b8784101462000382578190601f938481116200032c575b508790848311600114620002c557600092620002b9575b505060001982851b1c191690851b1782555b8551928311620002a35760049586548581811c9116801562000298575b87821014620002835782811162000238575b5085918411600114620001cd57938394918492600095620001c1575b50501b92600019911b1c19161782555b3315620001aa576002546b033b2e3c9fd0803ce8000000928382018092116200019557506000917fddf252ad1be2c89b69c2b068fc378daa952ba7f163c4a11628f55a4df523b3ef9160025533835282815284832084815401905584519384523393a35161078e9081620003a98239f35b601190634e487b7160e01b6000525260246000fd5b506000602492519163ec442f0560e01b8352820152fd5b01519350388062000114565b9190601f198416928760005284876000209460005b898983831062000220575050501062000205575b50505050811b01825562000124565b01519060f884600019921b161c1916905538808080620001f6565b868601518955909701969485019488935001620001e2565b87600052866000208380870160051c82019289881062000279575b0160051c019086905b8281106200026c575050620000f8565b600081550186906200025c565b9250819262000253565b602288634e487b7160e01b6000525260246000fd5b90607f1690620000e6565b634e487b7160e01b600052604160045260246000fd5b015190503880620000b7565b90879350601f1983169186600052896000209260005b8b828210620003155750508411620002fc575b505050811b018255620000c9565b015160001983871b60f8161c19169055388080620002ee565b8385015186558b97909501949384019301620002db565b90915084600052876000208480850160051c8201928a861062000378575b918991869594930160051c01915b82811062000368575050620000a0565b6000815585945089910162000358565b925081926200034a565b634e487b7160e01b600052602260045260246000fd5b92607f169262000089565b600080fdfe608060408181526004918236101561001657600080fd5b600092833560e01c91826306fdde03146104f657508163095ea7b31461044e57816318160ddd1461042f57816323b872dd14610320578163313ce567146103045781635b70ea9f1461026557816370a082311461022f57816395d89b411461010e57508063a9059cbb146100de5763dd62ed3e1461009357600080fd5b346100da57806003193601126100da57806020926100af610619565b6100b7610634565b6001600160a01b0391821683526001865283832091168252845220549051908152f35b5080fd5b50346100da57806003193601126100da576020906101076100fd610619565b602435903361064a565b5160018152f35b8383346100da57816003193601126100da5780519082845460018160011c9060018316928315610225575b6020938484108114610212578388529081156101f657506001146101a1575b505050829003601f01601f191682019267ffffffffffffffff84118385101761018e575082918261018a9252826105d0565b0390f35b80604186634e487b7160e01b6024945252fd5b8787529192508591837f8a35acfbc15ff81a39ae7d344fd709f28e8600b4aa8c65c6b64bfe7fe36bd19b5b8385106101e25750505050830101858080610158565b8054888601830152930192849082016101cc565b60ff1916878501525050151560051b8401019050858080610158565b60248960228c634e487b7160e01b835252fd5b91607f1691610139565b5050346100da5760203660031901126100da57806020926001600160a01b03610256610619565b16815280845220549051908152f35b9190503461030057826003193601126103005733156102eb5760025468056bc75e2d63100000928382018092116102d857506002553383528260205280832082815401905551908152817fddf252ad1be2c89b69c2b068fc378daa952ba7f163c4a11628f55a4df523b3ef60203393a380f35b846011602492634e487b7160e01b835252fd5b91602492519163ec442f0560e01b8352820152fd5b8280fd5b5050346100da57816003193601126100da576020905160128152f35b9050823461042c57606036600319011261042c5761033c610619565b610344610634565b91604435936001600160a01b038316808352600160205286832033845260205286832054916000198303610381575b60208861010789898961064a565b8683106103e75781156103d15733156103bb5750825260016020908152868320338452815291869020908590039055829061010787610373565b60249084895191634a1406b160e11b8352820152fd5b6024908489519163e602df0560e01b8352820152fd5b87517ffb8f41b2000000000000000000000000000000000000000000000000000000008152339181019182526020820193909352604081018790528291506060010390fd5b80fd5b5050346100da57816003193601126100da576020906002549051908152f35b905034610300578160031936011261030057610468610619565b6024359033156104e0576001600160a01b03169182156104ca57508083602095338152600187528181208582528752205582519081527f8c5be1e5ebec7d5bd14f71427d1e84f3dd0314c0f7b2291e5b200ac8c7c3b925843392a35160018152f35b60249085855191634a1406b160e11b8352820152fd5b6024838686519163e602df0560e01b8352820152fd5b849084346103005782600319360112610300578260035460018160011c90600183169283156105c6575b6020938484108114610212578388529081156101f6575060011461057057505050829003601f01601f191682019267ffffffffffffffff84118385101761018e575082918261018a9252826105d0565b600387529192508591837fc2575a0e9e593c00f959f8c92f12db2869c3395a3b0502d05e2516446f71f85b5b8385106105b25750505050830101858080610158565b80548886018301529301928490820161059c565b91607f1691610520565b6020808252825181830181905290939260005b82811061060557505060409293506000838284010152601f8019910116010190565b8181018601518482016040015285016105e3565b600435906001600160a01b038216820361062f57565b600080fd5b602435906001600160a01b038216820361062f57565b916001600160a01b03808416928315610727571692831561070f57600090838252816020526040822054908382106106c4575091604082827fddf252ad1be2c89b69c2b068fc378daa952ba7f163c4a11628f55a4df523b3ef958760209652828652038282205586815220818154019055604051908152a3565b6040517fe450d38c0000000000000000000000000000000000000000000000000000000081526001600160a01b03919091166004820152602481019190915260448101839052606490fd5b602460405163ec442f0560e01b815260006004820152fd5b60246040517f96c6fd1e00000000000000000000000000000000000000000000000000000000815260006004820152fdfea26469706673582212207528e7965739b28e7172a6626733f760153c45830dc2a831b90cc86ed952b5fa64736f6c63430008180033",
  "linkReferences": {},
  "deployedLinkReferences": {}
}