{
  "contracts/src/pools/HoneyERC20Pool.sol": {
    "HoneyERC20Pool": {
      "abi": [
        {
          "inputs": [
            {
              "internalType": "address",
              "name": "_token",
              "type": "address"
            }
          ],
          "stateMutability": "nonpayable",
          "type": "constructor"
        },
        {
          "inputs": [],
          "name": "AccessControlBadConfirmation",
          "type": "error"
        },
        {
          "inputs": [
            {
              "internalType": "address",
              "name": "account",
              "type": "address"
            },
            {
              "internalType": "bytes32",
              "name": "neededRole",
              "type": "bytes32"
            }
          ],
          "name": "AccessControlUnauthorizedAccount",
          "type": "error"
        },
        {
          "inputs": [
            {
              "internalType": "address",
              "name": "target",
              "type": "address"
            }
          ],
          "name": "AddressEmptyCode",
          "type": "error"
        },
        {
          "inputs": [
            {
              "internalType": "address",
              "name": "account",
              "type": "address"
            }
          ],
          "name": "AddressInsufficientBalance",
          "type": "error"
        },
        {
          "inputs": [],
          "name": "AmountInIsZero",
          "type": "error"
        },
        {
          "inputs": [
            {
              "internalType": "address",
              "name": "spender",
              "type": "address"
            },
            {
              "internalType": "uint256",
              "name": "allowance",
              "type": "uint256"
            },
            {
              "internalType": "uint256",
              "name": "needed",
              "type": "uint256"
            }
          ],
          "name": "ERC20InsufficientAllowance",
          "type": "error"
        },
        {
          "inputs": [
            {
              "internalType": "address",
              "name": "sender",
              "type": "address"
            },
            {
              "internalType": "uint256",
              "name": "balance",
              "type": "uint256"
            },
            {
              "internalType": "uint256",
              "name": "needed",
              "type": "uint256"
            }
          ],
          "name": "ERC20InsufficientBalance",
          "type": "error"
        },
        {
          "inputs": [
            {
              "internalType": "address",
              "name": "approver",
              "type": "address"
            }
          ],
          "name": "ERC20InvalidApprover",
          "type": "error"
        },
        {
          "inputs": [
            {
              "internalType": "address",
              "name": "receiver",
              "type": "address"
            }
          ],
          "name": "ERC20InvalidReceiver",
          "type": "error"
        },
        {
          "inputs": [
            {
              "internalType": "address",
              "name": "sender",
              "type": "address"
            }
          ],
          "name": "ERC20InvalidSender",
          "type": "error"
        },
        {
          "inputs": [
            {
              "internalType": "address",
              "name": "spender",
              "type": "address"
            }
          ],
          "name": "ERC20InvalidSpender",
          "type": "error"
        },
        {
          "inputs": [],
          "name": "FailedInnerCall",
          "type": "error"
        },
        {
          "inputs": [
            {
              "internalType": "address",
              "name": "token",
              "type": "address"
            }
          ],
          "name": "SafeERC20FailedOperation",
          "type": "error"
        },
        {
          "anonymous": false,
          "inputs": [
            {
              "indexed": true,
              "internalType": "address",
              "name": "owner",
              "type": "address"
            },
            {
              "indexed": true,
              "internalType": "address",
              "name": "spender",
              "type": "address"
            },
            {
              "indexed": false,
              "internalType": "uint256",
              "name": "value",
              "type": "uint256"
            }
          ],
          "name": "Approval",
          "type": "event"
        },
        {
          "anonymous": false,
          "inputs": [
            {
              "indexed": true,
              "internalType": "bytes32",
              "name": "role",
              "type": "bytes32"
            },
            {
              "indexed": true,
              "internalType": "bytes32",
              "name": "previousAdminRole",
              "type": "bytes32"
            },
            {
              "indexed": true,
              "internalType": "bytes32",
              "name": "newAdminRole",
              "type": "bytes32"
            }
          ],
          "name": "RoleAdminChanged",
          "type": "event"
        },
        {
          "anonymous": false,
          "inputs": [
            {
              "indexed": true,
              "internalType": "bytes32",
              "name": "role",
              "type": "bytes32"
            },
            {
              "indexed": true,
              "internalType": "address",
              "name": "account",
              "type": "address"
            },
            {
              "indexed": true,
              "internalType": "address",
              "name": "sender",
              "type": "address"
            }
          ],
          "name": "RoleGranted",
          "type": "event"
        },
        {
          "anonymous": false,
          "inputs": [
            {
              "indexed": true,
              "internalType": "bytes32",
              "name": "role",
              "type": "bytes32"
            },
            {
              "indexed": true,
              "internalType": "address",
              "name": "account",
              "type": "address"
            },
            {
              "indexed": true,
              "internalType": "address",
              "name": "sender",
              "type": "address"
            }
          ],
          "name": "RoleRevoked",
          "type": "event"
        },
        {
          "anonymous": false,
          "inputs": [
            {
              "indexed": true,
              "internalType": "address",
              "name": "from",
              "type": "address"
            },
            {
              "indexed": true,
              "internalType": "address",
              "name": "to",
              "type": "address"
            },
            {
              "indexed": false,
              "internalType": "uint256",
              "name": "value",
              "type": "uint256"
            }
          ],
          "name": "Transfer",
          "type": "event"
        },
        {
          "inputs": [],
          "name": "DEFAULT_ADMIN_ROLE",
          "outputs": [
            {
              "internalType": "bytes32",
              "name": "",
              "type": "bytes32"
            }
          ],
          "stateMutability": "view",
          "type": "function"
        },
        {
          "inputs": [
            {
              "internalType": "uint256",
              "name": "amount",
              "type": "uint256"
            }
          ],
          "name": "addLiquidity",
          "outputs": [],
          "stateMutability": "nonpayable",
          "type": "function"
        },
        {
          "inputs": [
            {
              "internalType": "address",
              "name": "owner",
              "type": "address"
            },
            {
              "internalType": "address",
              "name": "spender",
              "type": "address"
            }
          ],
          "name": "allowance",
          "outputs": [
            {
              "internalType": "uint256",
              "name": "",
              "type": "uint256"
            }
          ],
          "stateMutability": "view",
          "type": "function"
        },
        {
          "inputs": [
            {
              "internalType": "address",
              "name": "spender",
              "type": "address"
            },
            {
              "internalType": "uint256",
              "name": "value",
              "type": "uint256"
            }
          ],
          "name": "approve",
          "outputs": [
            {
              "internalType": "bool",
              "name": "",
              "type": "bool"
            }
          ],
          "stateMutability": "nonpayable",
          "type": "function"
        },
        {
          "inputs": [
            {
              "internalType": "address",
              "name": "account",
              "type": "address"
            }
          ],
          "name": "balanceOf",
          "outputs": [
            {
              "internalType": "uint256",
              "name": "",
              "type": "uint256"
            }
          ],
          "stateMutability": "view",
          "type": "function"
        },
        {
          "inputs": [],
          "name": "decimals",
          "outputs": [
            {
              "internalType": "uint8",
              "name": "",
              "type": "uint8"
            }
          ],
          "stateMutability": "view",
          "type": "function"
        },
        {
          "inputs": [
            {
              "internalType": "uint256",
              "name": "amount",
              "type": "uint256"
            }
          ],
          "name": "deposit",
          "outputs": [],
          "stateMutability": "nonpayable",
          "type": "function"
        },
        {
          "inputs": [
            {
              "internalType": "bytes32",
              "name": "role",
              "type": "bytes32"
            }
          ],
          "name": "getRoleAdmin",
          "outputs": [
            {
              "internalType": "bytes32",
              "name": "",
              "type": "bytes32"
            }
          ],
          "stateMutability": "view",
          "type": "function"
        },
        {
          "inputs": [
            {
              "internalType": "bytes32",
              "name": "role",
              "type": "bytes32"
            },
            {
              "internalType": "address",
              "name": "account",
              "type": "address"
            }
          ],
          "name": "grantRole",
          "outputs": [],
          "stateMutability": "nonpayable",
          "type": "function"
        },
        {
          "inputs": [
            {
              "internalType": "bytes32",
              "name": "role",
              "type": "bytes32"
            },
            {
              "internalType": "address",
              "name": "account",
              "type": "address"
            }
          ],
          "name": "hasRole",
          "outputs": [
            {
              "internalType": "bool",
              "name": "",
              "type": "bool"
            }
          ],
          "stateMutability": "view",
          "type": "function"
        },
        {
          "inputs": [],
          "name": "name",
          "outputs": [
            {
              "internalType": "string",
              "name": "",
              "type": "string"
            }
          ],
          "stateMutability": "view",
          "type": "function"
        },
        {
          "inputs": [
            {
              "internalType": "uint256",
              "name": "lpTokens",
              "type": "uint256"
            },
            {
              "internalType": "uint256",
              "name": "secondaryChainSelector",
              "type": "uint256"
            }
          ],
          "name": "removeLiquidity",
          "outputs": [],
          "stateMutability": "payable",
          "type": "function"
        },
        {
          "inputs": [
            {
              "internalType": "bytes32",
              "name": "role",
              "type": "bytes32"
            },
            {
              "internalType": "address",
              "name": "callerConfirmation",
              "type": "address"
            }
          ],
          "name": "renounceRole",
          "outputs": [],
          "stateMutability": "nonpayable",
          "type": "function"
        },
        {
          "inputs": [
            {
              "internalType": "bytes32",
              "name": "role",
              "type": "bytes32"
            },
            {
              "internalType": "address",
              "name": "account",
              "type": "address"
            }
          ],
          "name": "revokeRole",
          "outputs": [],
          "stateMutability": "nonpayable",
          "type": "function"
        },
        {
          "inputs": [
            {
              "internalType": "bytes4",
              "name": "interfaceId",
              "type": "bytes4"
            }
          ],
          "name": "supportsInterface",
          "outputs": [
            {
              "internalType": "bool",
              "name": "",
              "type": "bool"
            }
          ],
          "stateMutability": "view",
          "type": "function"
        },
        {
          "inputs": [],
          "name": "symbol",
          "outputs": [
            {
              "internalType": "string",
              "name": "",
              "type": "string"
            }
          ],
          "stateMutability": "view",
          "type": "function"
        },
        {
          "inputs": [],
          "name": "token",
          "outputs": [
            {
              "internalType": "address",
              "name": "",
              "type": "address"
            }
          ],
          "stateMutability": "view",
          "type": "function"
        },
        {
          "inputs": [],
          "name": "totalReserves",
          "outputs": [
            {
              "internalType": "uint256",
              "name": "",
              "type": "uint256"
            }
          ],
          "stateMutability": "view",
          "type": "function"
        },
        {
          "inputs": [],
          "name": "totalSupply",
          "outputs": [
            {
              "internalType": "uint256",
              "name": "",
              "type": "uint256"
            }
          ],
          "stateMutability": "view",
          "type": "function"
        },
        {
          "inputs": [
            {
              "internalType": "address",
              "name": "to",
              "type": "address"
            },
            {
              "internalType": "uint256",
              "name": "value",
              "type": "uint256"
            }
          ],
          "name": "transfer",
          "outputs": [
            {
              "internalType": "bool",
              "name": "",
              "type": "bool"
            }
          ],
          "stateMutability": "nonpayable",
          "type": "function"
        },
        {
          "inputs": [
            {
              "internalType": "address",
              "name": "from",
              "type": "address"
            },
            {
              "internalType": "address",
              "name": "to",
              "type": "address"
            },
            {
              "internalType": "uint256",
              "name": "value",
              "type": "uint256"
            }
          ],
          "name": "transferFrom",
          "outputs": [
            {
              "internalType": "bool",
              "name": "",
              "type": "bool"
            }
          ],
          "stateMutability": "nonpayable",
          "type": "function"
        },
        {
          "inputs": [
            {
              "internalType": "uint256",
              "name": "amount",
              "type": "uint256"
            },
            {
              "internalType": "address",
              "name": "to",
              "type": "address"
            }
          ],
          "name": "withdraw",
          "outputs": [],
          "stateMutability": "nonpayable",
          "type": "function"
        }
      ],
      "evm": {
        "bytecode": {
          "linkReferences": {},
          "object": "60a0346200039457601f90601f196001600160401b03620016e33881900385810184168501838111868210176200029857859282916040528339602094859181010312620003945751936001600160a01b038516850362000394576200006462000399565b60128152712437b732bca837b7b6102628102a37b5b2b760711b858201526200008c62000399565b91600392838152620484c560ec1b878201528251858111620002985784546001948582811c9216801562000389575b8a831014620003735781858493116200031d575b508990858311600114620002ba57600092620002ae575b505060001982871b1c191690841b1784555b8051948511620002985760049687548481811c911680156200028d575b8282101462000278578381116200022d575b5080928611600114620001c1575084955090849291600095620001b5575b50501b92600019911b1c19161790555b608052600780546001600160a01b031916339081179091556200017890620003b9565b5060405161129790816200044c82396080518181816101340152818161021301528181610393015281816104b60152818161073d0152610c9d0152f35b01519350388062000145565b939295859081168860005285600020956000905b89838310620002125750505010620001f7575b50505050811b01905562000155565b01519060f884600019921b161c1916905538808080620001e8565b858701518955909701969485019488935090810190620001d5565b88600052816000208480890160051c820192848a106200026e575b0160051c019085905b8281106200026157505062000127565b6000815501859062000251565b9250819262000248565b602289634e487b7160e01b6000525260246000fd5b90607f169062000115565b634e487b7160e01b600052604160045260246000fd5b015190503880620000e6565b908987941691886000528b6000209260005b8d828210620003065750508411620002ed575b505050811b018455620000f8565b015160001983891b60f8161c19169055388080620002df565b8385015186558a97909501949384019301620002cc565b90915086600052896000208580850160051c8201928c861062000369575b918891869594930160051c01915b82811062000359575050620000cf565b6000815585945088910162000349565b925081926200033b565b634e487b7160e01b600052602260045260246000fd5b91607f1691620000bb565b600080fd5b60408051919082016001600160401b038111838210176200029857604052565b6001600160a01b031660008181527f05b8ccbb9d4d8fb16ea74ce3c29a41f1b461fbdaff4714a0d9a8eb05499746bc602052604081205490919060ff16620004475781805260056020526040822081835260205260408220600160ff1982541617905533917f2f8788117e7eff1d82e926ec794901d17c78024a50270940304540a733656f0d8180a4600190565b509056fe608060408181526004918236101561001657600080fd5b600092833560e01c918262f714ce14610c535750816301ffc9a714610bb257816306fdde0314610abb578163095ea7b314610a1357816318160ddd146109f457816323b872dd146108e5578163248a9ca3146108ba5781632f2ff15d14610890578163313ce5671461087457816336568abe1461081557816351c6590a1461071057816370a08231146106da5781638f840ddd146106bb57816391d148541461067557816395d89b41146105705781639d7de6b314610292578163a217fddf14610277578163a9059cbb14610246578163b6b55f25146101eb578163d547741f146101a757508063dd62ed3e1461015c5763fc0c546a1461011657600080fd5b34610158578160031936011261015857602090516001600160a01b037f0000000000000000000000000000000000000000000000000000000000000000168152f35b5080fd5b5034610158578060031936011261015857602091610178610cfa565b82610181610cdf565b926001600160a01b03809316815260018652209116600052825280600020549051908152f35b919050346101e757806003193601126101e7576101e391356101de60016101cc610cdf565b93838752600560205286200154610df4565b610ffd565b5080f35b8280fd5b8390346101585760203660031901126101585761024090356102388130336001600160a01b037f000000000000000000000000000000000000000000000000000000000000000016611075565b600654610dda565b60065580f35b505034610158578060031936011261015857602090610270610266610cfa565b6024359033610ea0565b5160018152f35b50503461015857816003193601126101585751908152602090f35b9050816003193601126101e75780358015610561576102bf6102b660065483610d91565b60025490610dba565b92831561055257331561053c573385526020918583528186205481811061051057908087923384528386520383832055806002540360025582519081527fddf252ad1be2c89b69c2b068fc378daa952ba7f163c4a11628f55a4df523b3ef843392a33085528482528481812054928584106000146104a0576001600160a01b0390858183600754168651928380927f5c42132e0000000000000000000000000000000000000000000000000000000082525afa918215610496578492610468575b505061038c8588610de7565b916103bb817f000000000000000000000000000000000000000000000000000000000000000016963388610e38565b6007541694853b1561046457608491855196879485937fa628b47f000000000000000000000000000000000000000000000000000000008552338b8601526024356024860152604485015260648401525af1801561045a57610428575b505050610240905b600654610de7565b67ffffffffffffffff8295939511610447575291506102403880610418565b602483604187634e487b7160e01b835252fd5b81513d87823e3d90fd5b8380fd5b90809250813d831161048f575b61047f8183610d59565b810103126101e757513880610380565b503d610475565b85513d86823e3d90fd5b5050928092506104db9150336001600160a01b037f000000000000000000000000000000000000000000000000000000000000000016610e38565b82803415610507575b8180809234903390f1156104fc576102409150610420565b5051903d90823e3d90fd5b506108fc6104e4565b825163391434e360e21b8152338187019081526020810192909252604082018390529081906060010390fd5b82856024925191634b637e8f60e11b8352820152fd5b905051636067798b60e01b8152fd5b509051636067798b60e01b8152fd5b83833461015857816003193601126101585780519180938054916001908360011c926001851694851561066b575b60209586861081146106585785895290811561063457506001146105dc575b6105d887876105ce828c0383610d59565b5191829182610d10565b0390f35b81529295507f8a35acfbc15ff81a39ae7d344fd709f28e8600b4aa8c65c6b64bfe7fe36bd19b5b82841061062157505050826105d8946105ce928201019486806105bd565b8054868501880152928601928101610603565b60ff19168887015250505050151560051b83010192506105ce826105d886806105bd565b602484602285634e487b7160e01b835252fd5b93607f169361059e565b9050346101e757816003193601126101e7578160209360ff92610696610cdf565b90358252600586526001600160a01b0383832091168252855220541690519015158152f35b5050346101585781600319360112610158576020906006549051908152f35b50503461015857602036600319011261015857806020926001600160a01b03610701610cfa565b16815280845220549051908152f35b83915034610158576020366003190112610158578035908115610807576107628230336001600160a01b037f000000000000000000000000000000000000000000000000000000000000000016611075565b600654806107ec575069021e19e0c9bab2400000905b33156107d65750610240929361079082600254610dda565b6002553385528460205280852082815401905551908152837fddf252ad1be2c89b69c2b068fc378daa952ba7f163c4a11628f55a4df523b3ef60203393a3600654610dda565b6024908486519163ec442f0560e01b8352820152fd5b610801906107fc60025485610d91565b610dba565b90610778565b8351636067798b60e01b8152fd5b83833461015857806003193601126101585761082f610cdf565b90336001600160a01b0383160361084c57506101e3919235610ffd565b8390517f6697b232000000000000000000000000000000000000000000000000000000008152fd5b5050346101585781600319360112610158576020905160128152f35b919050346101e757806003193601126101e7576101e391356108b560016101cc610cdf565b610f7c565b9050346101e75760203660031901126101e75781602093600192358152600585522001549051908152f35b905082346109f15760603660031901126109f157610901610cfa565b610909610cdf565b91604435936001600160a01b038316808352600160205286832033845260205286832054916000198303610946575b602088610270898989610ea0565b8683106109ac5781156109965733156109805750825260016020908152868320338452815291869020908590039055829061027087610938565b60249084895191634a1406b160e11b8352820152fd5b6024908489519163e602df0560e01b8352820152fd5b87517ffb8f41b2000000000000000000000000000000000000000000000000000000008152339181019182526020820193909352604081018790528291506060010390fd5b80fd5b5050346101585781600319360112610158576020906002549051908152f35b9050346101e757816003193601126101e757610a2d610cfa565b602435903315610aa5576001600160a01b0316918215610a8f57508083602095338152600187528181208582528752205582519081527f8c5be1e5ebec7d5bd14f71427d1e84f3dd0314c0f7b2291e5b200ac8c7c3b925843392a35160018152f35b60249085855191634a1406b160e11b8352820152fd5b6024838686519163e602df0560e01b8352820152fd5b919050346101e757826003193601126101e75780519183600354906001908260011c92600181168015610ba8575b6020958686108214610b955750848852908115610b735750600114610b1a575b6105d886866105ce828b0383610d59565b929550600383527fc2575a0e9e593c00f959f8c92f12db2869c3395a3b0502d05e2516446f71f85b5b828410610b6057505050826105d8946105ce928201019438610b09565b8054868501880152928601928101610b43565b60ff191687860152505050151560051b83010192506105ce826105d838610b09565b836022602492634e487b7160e01b835252fd5b93607f1693610ae9565b9050346101e75760203660031901126101e75735907fffffffff0000000000000000000000000000000000000000000000000000000082168092036101e757602092507f7965db0b000000000000000000000000000000000000000000000000000000008214918215610c29575b50519015158152f35b7f01ffc9a70000000000000000000000000000000000000000000000000000000014915038610c20565b9091503461046457826003193601126104645760ff610c70610cdf565b9385805260056020528086203387526020528520541615610cc5575090610cc29135906001600160a01b037f000000000000000000000000000000000000000000000000000000000000000016610e38565b80f35b8360449263e2517d3f60e01b835233908301526024820152fd5b602435906001600160a01b0382168203610cf557565b600080fd5b600435906001600160a01b0382168203610cf557565b6020808252825181830181905290939260005b828110610d4557505060409293506000838284010152601f8019910116010190565b818101860151848201604001528501610d23565b90601f8019910116810190811067ffffffffffffffff821117610d7b57604052565b634e487b7160e01b600052604160045260246000fd5b81810292918115918404141715610da457565b634e487b7160e01b600052601160045260246000fd5b8115610dc4570490565b634e487b7160e01b600052601260045260246000fd5b91908201809211610da457565b91908203918211610da457565b80600052600560205260406000203360005260205260ff6040600020541615610e1a5750565b6044906040519063e2517d3f60e01b82523360048301526024820152fd5b916001600160a01b03604051927fa9059cbb000000000000000000000000000000000000000000000000000000006020850152166024830152604482015260448152608081019181831067ffffffffffffffff841117610d7b57610e9e926040526110e0565b565b916001600160a01b03808416928315610f645716928315610f4c5760009083825281602052604082205490838210610f1a575091604082827fddf252ad1be2c89b69c2b068fc378daa952ba7f163c4a11628f55a4df523b3ef958760209652828652038282205586815220818154019055604051908152a3565b60405163391434e360e21b81526001600160a01b03919091166004820152602481019190915260448101839052606490fd5b602460405163ec442f0560e01b815260006004820152fd5b6024604051634b637e8f60e11b815260006004820152fd5b9060009180835260056020526001600160a01b036040842092169182845260205260ff60408420541615600014610ff85780835260056020526040832082845260205260408320600160ff198254161790557f2f8788117e7eff1d82e926ec794901d17c78024a50270940304540a733656f0d339380a4600190565b505090565b9060009180835260056020526001600160a01b036040842092169182845260205260ff604084205416600014610ff8578083526005602052604083208284526020526040832060ff1981541690557ff6391f5c32d9c69d2a47ea670b442974b53935d1edc7fd64eb21e047a839171b339380a4600190565b9290604051927f23b872dd0000000000000000000000000000000000000000000000000000000060208501526001600160a01b03809216602485015216604483015260648201526064815260a081019181831067ffffffffffffffff841117610d7b57610e9e926040525b6001600160a01b031690600080826020829451910182865af13d156111c2573d9067ffffffffffffffff82116111ae579061113d916040519161112d6020601f19601f8401160184610d59565b82523d84602084013e5b846111ce565b908151918215159283611186575b5050506111555750565b602490604051907f5274afe70000000000000000000000000000000000000000000000000000000082526004820152fd5b8192935090602091810103126101585760200151908115918215036109f1575038808061114b565b602483634e487b7160e01b81526041600452fd5b61113d90606090611137565b9061120d57508051156111e357805190602001fd5b60046040517f1425ea42000000000000000000000000000000000000000000000000000000008152fd5b81511580611258575b61121e575090565b6024906001600160a01b03604051917f9996b315000000000000000000000000000000000000000000000000000000008352166004820152fd5b50803b1561121656fea264697066735822122012ab25788f562d1572c1d8cd63b8e9c9973e8b8171b87e1609e4b88c0db420c164736f6c63430008180033",
          "opcodes": "PUSH1 0xA0 CALLVALUE PUSH3 0x394 JUMPI PUSH1 0x1F SWAP1 PUSH1 0x1F NOT PUSH1 0x1 PUSH1 0x1 PUSH1 0x40 SHL SUB PUSH3 0x16E3 CODESIZE DUP2 SWAP1 SUB DUP6 DUP2 ADD DUP5 AND DUP6 ADD DUP4 DUP2 GT DUP7 DUP3 LT OR PUSH3 0x298 JUMPI DUP6 SWAP3 DUP3 SWAP2 PUSH1 0x40 MSTORE DUP4 CODECOPY PUSH1 0x20 SWAP5 DUP6 SWAP2 DUP2 ADD SUB SLT PUSH3 0x394 JUMPI MLOAD SWAP4 PUSH1 0x1 PUSH1 0x1 PUSH1 0xA0 SHL SUB DUP6 AND DUP6 SUB PUSH3 0x394 JUMPI PUSH3 0x64 PUSH3 0x399 JUMP JUMPDEST PUSH1 0x12 DUP2 MSTORE PUSH18 0x2437B732BCA837B7B6102628102A37B5B2B7 PUSH1 0x71 SHL DUP6 DUP3 ADD MSTORE PUSH3 0x8C PUSH3 0x399 JUMP JUMPDEST SWAP2 PUSH1 0x3 SWAP3 DUP4 DUP2 MSTORE PUSH3 0x484C5 PUSH1 0xEC SHL DUP8 DUP3 ADD MSTORE DUP3 MLOAD DUP6 DUP2 GT PUSH3 0x298 JUMPI DUP5 SLOAD PUSH1 0x1 SWAP5 DUP6 DUP3 DUP2 SHR SWAP3 AND DUP1 ISZERO PUSH3 0x389 JUMPI JUMPDEST DUP11 DUP4 LT EQ PUSH3 0x373 JUMPI DUP2 DUP6 DUP5 SWAP4 GT PUSH3 0x31D JUMPI JUMPDEST POP DUP10 SWAP1 DUP6 DUP4 GT PUSH1 0x1 EQ PUSH3 0x2BA JUMPI PUSH1 0x0 SWAP3 PUSH3 0x2AE JUMPI JUMPDEST POP POP PUSH1 0x0 NOT DUP3 DUP8 SHL SHR NOT AND SWAP1 DUP5 SHL OR DUP5 SSTORE JUMPDEST DUP1 MLOAD SWAP5 DUP6 GT PUSH3 0x298 JUMPI PUSH1 0x4 SWAP7 DUP8 SLOAD DUP5 DUP2 DUP2 SHR SWAP2 AND DUP1 ISZERO PUSH3 0x28D JUMPI JUMPDEST DUP3 DUP3 LT EQ PUSH3 0x278 JUMPI DUP4 DUP2 GT PUSH3 0x22D JUMPI JUMPDEST POP DUP1 SWAP3 DUP7 GT PUSH1 0x1 EQ PUSH3 0x1C1 JUMPI POP DUP5 SWAP6 POP SWAP1 DUP5 SWAP3 SWAP2 PUSH1 0x0 SWAP6 PUSH3 0x1B5 JUMPI JUMPDEST POP POP SHL SWAP3 PUSH1 0x0 NOT SWAP2 SHL SHR NOT AND OR SWAP1 SSTORE JUMPDEST PUSH1 0x80 MSTORE PUSH1 0x7 DUP1 SLOAD PUSH1 0x1 PUSH1 0x1 PUSH1 0xA0 SHL SUB NOT AND CALLER SWAP1 DUP2 OR SWAP1 SWAP2 SSTORE PUSH3 0x178 SWAP1 PUSH3 0x3B9 JUMP JUMPDEST POP PUSH1 0x40 MLOAD PUSH2 0x1297 SWAP1 DUP2 PUSH3 0x44C DUP3 CODECOPY PUSH1 0x80 MLOAD DUP2 DUP2 DUP2 PUSH2 0x134 ADD MSTORE DUP2 DUP2 PUSH2 0x213 ADD MSTORE DUP2 DUP2 PUSH2 0x393 ADD MSTORE DUP2 DUP2 PUSH2 0x4B6 ADD MSTORE DUP2 DUP2 PUSH2 0x73D ADD MSTORE PUSH2 0xC9D ADD MSTORE RETURN JUMPDEST ADD MLOAD SWAP4 POP CODESIZE DUP1 PUSH3 0x145 JUMP JUMPDEST SWAP4 SWAP3 SWAP6 DUP6 SWAP1 DUP2 AND DUP9 PUSH1 0x0 MSTORE DUP6 PUSH1 0x0 KECCAK256 SWAP6 PUSH1 0x0 SWAP1 JUMPDEST DUP10 DUP4 DUP4 LT PUSH3 0x212 JUMPI POP POP POP LT PUSH3 0x1F7 JUMPI JUMPDEST POP POP POP POP DUP2 SHL ADD SWAP1 SSTORE PUSH3 0x155 JUMP JUMPDEST ADD MLOAD SWAP1 PUSH1 0xF8 DUP5 PUSH1 0x0 NOT SWAP3 SHL AND SHR NOT AND SWAP1 SSTORE CODESIZE DUP1 DUP1 DUP1 PUSH3 0x1E8 JUMP JUMPDEST DUP6 DUP8 ADD MLOAD DUP10 SSTORE SWAP1 SWAP8 ADD SWAP7 SWAP5 DUP6 ADD SWAP5 DUP9 SWAP4 POP SWAP1 DUP2 ADD SWAP1 PUSH3 0x1D5 JUMP JUMPDEST DUP9 PUSH1 0x0 MSTORE DUP2 PUSH1 0x0 KECCAK256 DUP5 DUP1 DUP10 ADD PUSH1 0x5 SHR DUP3 ADD SWAP3 DUP5 DUP11 LT PUSH3 0x26E JUMPI JUMPDEST ADD PUSH1 0x5 SHR ADD SWAP1 DUP6 SWAP1 JUMPDEST DUP3 DUP2 LT PUSH3 0x261 JUMPI POP POP PUSH3 0x127 JUMP JUMPDEST PUSH1 0x0 DUP2 SSTORE ADD DUP6 SWAP1 PUSH3 0x251 JUMP JUMPDEST SWAP3 POP DUP2 SWAP3 PUSH3 0x248 JUMP JUMPDEST PUSH1 0x22 DUP10 PUSH4 0x4E487B71 PUSH1 0xE0 SHL PUSH1 0x0 MSTORE MSTORE PUSH1 0x24 PUSH1 0x0 REVERT JUMPDEST SWAP1 PUSH1 0x7F AND SWAP1 PUSH3 0x115 JUMP JUMPDEST PUSH4 0x4E487B71 PUSH1 0xE0 SHL PUSH1 0x0 MSTORE PUSH1 0x41 PUSH1 0x4 MSTORE PUSH1 0x24 PUSH1 0x0 REVERT JUMPDEST ADD MLOAD SWAP1 POP CODESIZE DUP1 PUSH3 0xE6 JUMP JUMPDEST SWAP1 DUP10 DUP8 SWAP5 AND SWAP2 DUP9 PUSH1 0x0 MSTORE DUP12 PUSH1 0x0 KECCAK256 SWAP3 PUSH1 0x0 JUMPDEST DUP14 DUP3 DUP3 LT PUSH3 0x306 JUMPI POP POP DUP5 GT PUSH3 0x2ED JUMPI JUMPDEST POP POP POP DUP2 SHL ADD DUP5 SSTORE PUSH3 0xF8 JUMP JUMPDEST ADD MLOAD PUSH1 0x0 NOT DUP4 DUP10 SHL PUSH1 0xF8 AND SHR NOT AND SWAP1 SSTORE CODESIZE DUP1 DUP1 PUSH3 0x2DF JUMP JUMPDEST DUP4 DUP6 ADD MLOAD DUP7 SSTORE DUP11 SWAP8 SWAP1 SWAP6 ADD SWAP5 SWAP4 DUP5 ADD SWAP4 ADD PUSH3 0x2CC JUMP JUMPDEST SWAP1 SWAP2 POP DUP7 PUSH1 0x0 MSTORE DUP10 PUSH1 0x0 KECCAK256 DUP6 DUP1 DUP6 ADD PUSH1 0x5 SHR DUP3 ADD SWAP3 DUP13 DUP7 LT PUSH3 0x369 JUMPI JUMPDEST SWAP2 DUP9 SWAP2 DUP7 SWAP6 SWAP5 SWAP4 ADD PUSH1 0x5 SHR ADD SWAP2 JUMPDEST DUP3 DUP2 LT PUSH3 0x359 JUMPI POP POP PUSH3 0xCF JUMP JUMPDEST PUSH1 0x0 DUP2 SSTORE DUP6 SWAP5 POP DUP9 SWAP2 ADD PUSH3 0x349 JUMP JUMPDEST SWAP3 POP DUP2 SWAP3 PUSH3 0x33B JUMP JUMPDEST PUSH4 0x4E487B71 PUSH1 0xE0 SHL PUSH1 0x0 MSTORE PUSH1 0x22 PUSH1 0x4 MSTORE PUSH1 0x24 PUSH1 0x0 REVERT JUMPDEST SWAP2 PUSH1 0x7F AND SWAP2 PUSH3 0xBB JUMP JUMPDEST PUSH1 0x0 DUP1 REVERT JUMPDEST PUSH1 0x40 DUP1 MLOAD SWAP2 SWAP1 DUP3 ADD PUSH1 0x1 PUSH1 0x1 PUSH1 0x40 SHL SUB DUP2 GT DUP4 DUP3 LT OR PUSH3 0x298 JUMPI PUSH1 0x40 MSTORE JUMP JUMPDEST PUSH1 0x1 PUSH1 0x1 PUSH1 0xA0 SHL SUB AND PUSH1 0x0 DUP2 DUP2 MSTORE PUSH32 0x5B8CCBB9D4D8FB16EA74CE3C29A41F1B461FBDAFF4714A0D9A8EB05499746BC PUSH1 0x20 MSTORE PUSH1 0x40 DUP2 KECCAK256 SLOAD SWAP1 SWAP2 SWAP1 PUSH1 0xFF AND PUSH3 0x447 JUMPI DUP2 DUP1 MSTORE PUSH1 0x5 PUSH1 0x20 MSTORE PUSH1 0x40 DUP3 KECCAK256 DUP2 DUP4 MSTORE PUSH1 0x20 MSTORE PUSH1 0x40 DUP3 KECCAK256 PUSH1 0x1 PUSH1 0xFF NOT DUP3 SLOAD AND OR SWAP1 SSTORE CALLER SWAP2 PUSH32 0x2F8788117E7EFF1D82E926EC794901D17C78024A50270940304540A733656F0D DUP2 DUP1 LOG4 PUSH1 0x1 SWAP1 JUMP JUMPDEST POP SWAP1 JUMP INVALID PUSH1 0x80 PUSH1 0x40 DUP2 DUP2 MSTORE PUSH1 0x4 SWAP2 DUP3 CALLDATASIZE LT ISZERO PUSH2 0x16 JUMPI PUSH1 0x0 DUP1 REVERT JUMPDEST PUSH1 0x0 SWAP3 DUP4 CALLDATALOAD PUSH1 0xE0 SHR SWAP2 DUP3 PUSH3 0xF714CE EQ PUSH2 0xC53 JUMPI POP DUP2 PUSH4 0x1FFC9A7 EQ PUSH2 0xBB2 JUMPI DUP2 PUSH4 0x6FDDE03 EQ PUSH2 0xABB JUMPI DUP2 PUSH4 0x95EA7B3 EQ PUSH2 0xA13 JUMPI DUP2 PUSH4 0x18160DDD EQ PUSH2 0x9F4 JUMPI DUP2 PUSH4 0x23B872DD EQ PUSH2 0x8E5 JUMPI DUP2 PUSH4 0x248A9CA3 EQ PUSH2 0x8BA JUMPI DUP2 PUSH4 0x2F2FF15D EQ PUSH2 0x890 JUMPI DUP2 PUSH4 0x313CE567 EQ PUSH2 0x874 JUMPI DUP2 PUSH4 0x36568ABE EQ PUSH2 0x815 JUMPI DUP2 PUSH4 0x51C6590A EQ PUSH2 0x710 JUMPI DUP2 PUSH4 0x70A08231 EQ PUSH2 0x6DA JUMPI DUP2 PUSH4 0x8F840DDD EQ PUSH2 0x6BB JUMPI DUP2 PUSH4 0x91D14854 EQ PUSH2 0x675 JUMPI DUP2 PUSH4 0x95D89B41 EQ PUSH2 0x570 JUMPI DUP2 PUSH4 0x9D7DE6B3 EQ PUSH2 0x292 JUMPI DUP2 PUSH4 0xA217FDDF EQ PUSH2 0x277 JUMPI DUP2 PUSH4 0xA9059CBB EQ PUSH2 0x246 JUMPI DUP2 PUSH4 0xB6B55F25 EQ PUSH2 0x1EB JUMPI DUP2 PUSH4 0xD547741F EQ PUSH2 0x1A7 JUMPI POP DUP1 PUSH4 0xDD62ED3E EQ PUSH2 0x15C JUMPI PUSH4 0xFC0C546A EQ PUSH2 0x116 JUMPI PUSH1 0x0 DUP1 REVERT JUMPDEST CALLVALUE PUSH2 0x158 JUMPI DUP2 PUSH1 0x3 NOT CALLDATASIZE ADD SLT PUSH2 0x158 JUMPI PUSH1 0x20 SWAP1 MLOAD PUSH1 0x1 PUSH1 0x1 PUSH1 0xA0 SHL SUB PUSH32 0x0 AND DUP2 MSTORE RETURN JUMPDEST POP DUP1 REVERT JUMPDEST POP CALLVALUE PUSH2 0x158 JUMPI DUP1 PUSH1 0x3 NOT CALLDATASIZE ADD SLT PUSH2 0x158 JUMPI PUSH1 0x20 SWAP2 PUSH2 0x178 PUSH2 0xCFA JUMP JUMPDEST DUP3 PUSH2 0x181 PUSH2 0xCDF JUMP JUMPDEST SWAP3 PUSH1 0x1 PUSH1 0x1 PUSH1 0xA0 SHL SUB DUP1 SWAP4 AND DUP2 MSTORE PUSH1 0x1 DUP7 MSTORE KECCAK256 SWAP2 AND PUSH1 0x0 MSTORE DUP3 MSTORE DUP1 PUSH1 0x0 KECCAK256 SLOAD SWAP1 MLOAD SWAP1 DUP2 MSTORE RETURN JUMPDEST SWAP2 SWAP1 POP CALLVALUE PUSH2 0x1E7 JUMPI DUP1 PUSH1 0x3 NOT CALLDATASIZE ADD SLT PUSH2 0x1E7 JUMPI PUSH2 0x1E3 SWAP2 CALLDATALOAD PUSH2 0x1DE PUSH1 0x1 PUSH2 0x1CC PUSH2 0xCDF JUMP JUMPDEST SWAP4 DUP4 DUP8 MSTORE PUSH1 0x5 PUSH1 0x20 MSTORE DUP7 KECCAK256 ADD SLOAD PUSH2 0xDF4 JUMP JUMPDEST PUSH2 0xFFD JUMP JUMPDEST POP DUP1 RETURN JUMPDEST DUP3 DUP1 REVERT JUMPDEST DUP4 SWAP1 CALLVALUE PUSH2 0x158 JUMPI PUSH1 0x20 CALLDATASIZE PUSH1 0x3 NOT ADD SLT PUSH2 0x158 JUMPI PUSH2 0x240 SWAP1 CALLDATALOAD PUSH2 0x238 DUP2 ADDRESS CALLER PUSH1 0x1 PUSH1 0x1 PUSH1 0xA0 SHL SUB PUSH32 0x0 AND PUSH2 0x1075 JUMP JUMPDEST PUSH1 0x6 SLOAD PUSH2 0xDDA JUMP JUMPDEST PUSH1 0x6 SSTORE DUP1 RETURN JUMPDEST POP POP CALLVALUE PUSH2 0x158 JUMPI DUP1 PUSH1 0x3 NOT CALLDATASIZE ADD SLT PUSH2 0x158 JUMPI PUSH1 0x20 SWAP1 PUSH2 0x270 PUSH2 0x266 PUSH2 0xCFA JUMP JUMPDEST PUSH1 0x24 CALLDATALOAD SWAP1 CALLER PUSH2 0xEA0 JUMP JUMPDEST MLOAD PUSH1 0x1 DUP2 MSTORE RETURN JUMPDEST POP POP CALLVALUE PUSH2 0x158 JUMPI DUP2 PUSH1 0x3 NOT CALLDATASIZE ADD SLT PUSH2 0x158 JUMPI MLOAD SWAP1 DUP2 MSTORE PUSH1 0x20 SWAP1 RETURN JUMPDEST SWAP1 POP DUP2 PUSH1 0x3 NOT CALLDATASIZE ADD SLT PUSH2 0x1E7 JUMPI DUP1 CALLDATALOAD DUP1 ISZERO PUSH2 0x561 JUMPI PUSH2 0x2BF PUSH2 0x2B6 PUSH1 0x6 SLOAD DUP4 PUSH2 0xD91 JUMP JUMPDEST PUSH1 0x2 SLOAD SWAP1 PUSH2 0xDBA JUMP JUMPDEST SWAP3 DUP4 ISZERO PUSH2 0x552 JUMPI CALLER ISZERO PUSH2 0x53C JUMPI CALLER DUP6 MSTORE PUSH1 0x20 SWAP2 DUP6 DUP4 MSTORE DUP2 DUP7 KECCAK256 SLOAD DUP2 DUP2 LT PUSH2 0x510 JUMPI SWAP1 DUP1 DUP8 SWAP3 CALLER DUP5 MSTORE DUP4 DUP7 MSTORE SUB DUP4 DUP4 KECCAK256 SSTORE DUP1 PUSH1 0x2 SLOAD SUB PUSH1 0x2 SSTORE DUP3 MLOAD SWAP1 DUP2 MSTORE PUSH32 0xDDF252AD1BE2C89B69C2B068FC378DAA952BA7F163C4A11628F55A4DF523B3EF DUP5 CALLER SWAP3 LOG3 ADDRESS DUP6 MSTORE DUP5 DUP3 MSTORE DUP5 DUP2 DUP2 KECCAK256 SLOAD SWAP3 DUP6 DUP5 LT PUSH1 0x0 EQ PUSH2 0x4A0 JUMPI PUSH1 0x1 PUSH1 0x1 PUSH1 0xA0 SHL SUB SWAP1 DUP6 DUP2 DUP4 PUSH1 0x7 SLOAD AND DUP7 MLOAD SWAP3 DUP4 DUP1 SWAP3 PUSH32 0x5C42132E00000000000000000000000000000000000000000000000000000000 DUP3 MSTORE GAS STATICCALL SWAP2 DUP3 ISZERO PUSH2 0x496 JUMPI DUP5 SWAP3 PUSH2 0x468 JUMPI JUMPDEST POP POP PUSH2 0x38C DUP6 DUP9 PUSH2 0xDE7 JUMP JUMPDEST SWAP2 PUSH2 0x3BB DUP2 PUSH32 0x0 AND SWAP7 CALLER DUP9 PUSH2 0xE38 JUMP JUMPDEST PUSH1 0x7 SLOAD AND SWAP5 DUP6 EXTCODESIZE ISZERO PUSH2 0x464 JUMPI PUSH1 0x84 SWAP2 DUP6 MLOAD SWAP7 DUP8 SWAP5 DUP6 SWAP4 PUSH32 0xA628B47F00000000000000000000000000000000000000000000000000000000 DUP6 MSTORE CALLER DUP12 DUP7 ADD MSTORE PUSH1 0x24 CALLDATALOAD PUSH1 0x24 DUP7 ADD MSTORE PUSH1 0x44 DUP6 ADD MSTORE PUSH1 0x64 DUP5 ADD MSTORE GAS CALL DUP1 ISZERO PUSH2 0x45A JUMPI PUSH2 0x428 JUMPI JUMPDEST POP POP POP PUSH2 0x240 SWAP1 JUMPDEST PUSH1 0x6 SLOAD PUSH2 0xDE7 JUMP JUMPDEST PUSH8 0xFFFFFFFFFFFFFFFF DUP3 SWAP6 SWAP4 SWAP6 GT PUSH2 0x447 JUMPI MSTORE SWAP2 POP PUSH2 0x240 CODESIZE DUP1 PUSH2 0x418 JUMP JUMPDEST PUSH1 0x24 DUP4 PUSH1 0x41 DUP8 PUSH4 0x4E487B71 PUSH1 0xE0 SHL DUP4 MSTORE MSTORE REVERT JUMPDEST DUP2 MLOAD RETURNDATASIZE DUP8 DUP3 RETURNDATACOPY RETURNDATASIZE SWAP1 REVERT JUMPDEST DUP4 DUP1 REVERT JUMPDEST SWAP1 DUP1 SWAP3 POP DUP2 RETURNDATASIZE DUP4 GT PUSH2 0x48F JUMPI JUMPDEST PUSH2 0x47F DUP2 DUP4 PUSH2 0xD59 JUMP JUMPDEST DUP2 ADD SUB SLT PUSH2 0x1E7 JUMPI MLOAD CODESIZE DUP1 PUSH2 0x380 JUMP JUMPDEST POP RETURNDATASIZE PUSH2 0x475 JUMP JUMPDEST DUP6 MLOAD RETURNDATASIZE DUP7 DUP3 RETURNDATACOPY RETURNDATASIZE SWAP1 REVERT JUMPDEST POP POP SWAP3 DUP1 SWAP3 POP PUSH2 0x4DB SWAP2 POP CALLER PUSH1 0x1 PUSH1 0x1 PUSH1 0xA0 SHL SUB PUSH32 0x0 AND PUSH2 0xE38 JUMP JUMPDEST DUP3 DUP1 CALLVALUE ISZERO PUSH2 0x507 JUMPI JUMPDEST DUP2 DUP1 DUP1 SWAP3 CALLVALUE SWAP1 CALLER SWAP1 CALL ISZERO PUSH2 0x4FC JUMPI PUSH2 0x240 SWAP2 POP PUSH2 0x420 JUMP JUMPDEST POP MLOAD SWAP1 RETURNDATASIZE SWAP1 DUP3 RETURNDATACOPY RETURNDATASIZE SWAP1 REVERT JUMPDEST POP PUSH2 0x8FC PUSH2 0x4E4 JUMP JUMPDEST DUP3 MLOAD PUSH4 0x391434E3 PUSH1 0xE2 SHL DUP2 MSTORE CALLER DUP2 DUP8 ADD SWAP1 DUP2 MSTORE PUSH1 0x20 DUP2 ADD SWAP3 SWAP1 SWAP3 MSTORE PUSH1 0x40 DUP3 ADD DUP4 SWAP1 MSTORE SWAP1 DUP2 SWAP1 PUSH1 0x60 ADD SUB SWAP1 REVERT JUMPDEST DUP3 DUP6 PUSH1 0x24 SWAP3 MLOAD SWAP2 PUSH4 0x4B637E8F PUSH1 0xE1 SHL DUP4 MSTORE DUP3 ADD MSTORE REVERT JUMPDEST SWAP1 POP MLOAD PUSH4 0x6067798B PUSH1 0xE0 SHL DUP2 MSTORE REVERT JUMPDEST POP SWAP1 MLOAD PUSH4 0x6067798B PUSH1 0xE0 SHL DUP2 MSTORE REVERT JUMPDEST DUP4 DUP4 CALLVALUE PUSH2 0x158 JUMPI DUP2 PUSH1 0x3 NOT CALLDATASIZE ADD SLT PUSH2 0x158 JUMPI DUP1 MLOAD SWAP2 DUP1 SWAP4 DUP1 SLOAD SWAP2 PUSH1 0x1 SWAP1 DUP4 PUSH1 0x1 SHR SWAP3 PUSH1 0x1 DUP6 AND SWAP5 DUP6 ISZERO PUSH2 0x66B JUMPI JUMPDEST PUSH1 0x20 SWAP6 DUP7 DUP7 LT DUP2 EQ PUSH2 0x658 JUMPI DUP6 DUP10 MSTORE SWAP1 DUP2 ISZERO PUSH2 0x634 JUMPI POP PUSH1 0x1 EQ PUSH2 0x5DC JUMPI JUMPDEST PUSH2 0x5D8 DUP8 DUP8 PUSH2 0x5CE DUP3 DUP13 SUB DUP4 PUSH2 0xD59 JUMP JUMPDEST MLOAD SWAP2 DUP3 SWAP2 DUP3 PUSH2 0xD10 JUMP JUMPDEST SUB SWAP1 RETURN JUMPDEST DUP2 MSTORE SWAP3 SWAP6 POP PUSH32 0x8A35ACFBC15FF81A39AE7D344FD709F28E8600B4AA8C65C6B64BFE7FE36BD19B JUMPDEST DUP3 DUP5 LT PUSH2 0x621 JUMPI POP POP POP DUP3 PUSH2 0x5D8 SWAP5 PUSH2 0x5CE SWAP3 DUP3 ADD ADD SWAP5 DUP7 DUP1 PUSH2 0x5BD JUMP JUMPDEST DUP1 SLOAD DUP7 DUP6 ADD DUP9 ADD MSTORE SWAP3 DUP7 ADD SWAP3 DUP2 ADD PUSH2 0x603 JUMP JUMPDEST PUSH1 0xFF NOT AND DUP9 DUP8 ADD MSTORE POP POP POP POP ISZERO ISZERO PUSH1 0x5 SHL DUP4 ADD ADD SWAP3 POP PUSH2 0x5CE DUP3 PUSH2 0x5D8 DUP7 DUP1 PUSH2 0x5BD JUMP JUMPDEST PUSH1 0x24 DUP5 PUSH1 0x22 DUP6 PUSH4 0x4E487B71 PUSH1 0xE0 SHL DUP4 MSTORE MSTORE REVERT JUMPDEST SWAP4 PUSH1 0x7F AND SWAP4 PUSH2 0x59E JUMP JUMPDEST SWAP1 POP CALLVALUE PUSH2 0x1E7 JUMPI DUP2 PUSH1 0x3 NOT CALLDATASIZE ADD SLT PUSH2 0x1E7 JUMPI DUP2 PUSH1 0x20 SWAP4 PUSH1 0xFF SWAP3 PUSH2 0x696 PUSH2 0xCDF JUMP JUMPDEST SWAP1 CALLDATALOAD DUP3 MSTORE PUSH1 0x5 DUP7 MSTORE PUSH1 0x1 PUSH1 0x1 PUSH1 0xA0 SHL SUB DUP4 DUP4 KECCAK256 SWAP2 AND DUP3 MSTORE DUP6 MSTORE KECCAK256 SLOAD AND SWAP1 MLOAD SWAP1 ISZERO ISZERO DUP2 MSTORE RETURN JUMPDEST POP POP CALLVALUE PUSH2 0x158 JUMPI DUP2 PUSH1 0x3 NOT CALLDATASIZE ADD SLT PUSH2 0x158 JUMPI PUSH1 0x20 SWAP1 PUSH1 0x6 SLOAD SWAP1 MLOAD SWAP1 DUP2 MSTORE RETURN JUMPDEST POP POP CALLVALUE PUSH2 0x158 JUMPI PUSH1 0x20 CALLDATASIZE PUSH1 0x3 NOT ADD SLT PUSH2 0x158 JUMPI DUP1 PUSH1 0x20 SWAP3 PUSH1 0x1 PUSH1 0x1 PUSH1 0xA0 SHL SUB PUSH2 0x701 PUSH2 0xCFA JUMP JUMPDEST AND DUP2 MSTORE DUP1 DUP5 MSTORE KECCAK256 SLOAD SWAP1 MLOAD SWAP1 DUP2 MSTORE RETURN JUMPDEST DUP4 SWAP2 POP CALLVALUE PUSH2 0x158 JUMPI PUSH1 0x20 CALLDATASIZE PUSH1 0x3 NOT ADD SLT PUSH2 0x158 JUMPI DUP1 CALLDATALOAD SWAP1 DUP2 ISZERO PUSH2 0x807 JUMPI PUSH2 0x762 DUP3 ADDRESS CALLER PUSH1 0x1 PUSH1 0x1 PUSH1 0xA0 SHL SUB PUSH32 0x0 AND PUSH2 0x1075 JUMP JUMPDEST PUSH1 0x6 SLOAD DUP1 PUSH2 0x7EC JUMPI POP PUSH10 0x21E19E0C9BAB2400000 SWAP1 JUMPDEST CALLER ISZERO PUSH2 0x7D6 JUMPI POP PUSH2 0x240 SWAP3 SWAP4 PUSH2 0x790 DUP3 PUSH1 0x2 SLOAD PUSH2 0xDDA JUMP JUMPDEST PUSH1 0x2 SSTORE CALLER DUP6 MSTORE DUP5 PUSH1 0x20 MSTORE DUP1 DUP6 KECCAK256 DUP3 DUP2 SLOAD ADD SWAP1 SSTORE MLOAD SWAP1 DUP2 MSTORE DUP4 PUSH32 0xDDF252AD1BE2C89B69C2B068FC378DAA952BA7F163C4A11628F55A4DF523B3EF PUSH1 0x20 CALLER SWAP4 LOG3 PUSH1 0x6 SLOAD PUSH2 0xDDA JUMP JUMPDEST PUSH1 0x24 SWAP1 DUP5 DUP7 MLOAD SWAP2 PUSH4 0xEC442F05 PUSH1 0xE0 SHL DUP4 MSTORE DUP3 ADD MSTORE REVERT JUMPDEST PUSH2 0x801 SWAP1 PUSH2 0x7FC PUSH1 0x2 SLOAD DUP6 PUSH2 0xD91 JUMP JUMPDEST PUSH2 0xDBA JUMP JUMPDEST SWAP1 PUSH2 0x778 JUMP JUMPDEST DUP4 MLOAD PUSH4 0x6067798B PUSH1 0xE0 SHL DUP2 MSTORE REVERT JUMPDEST DUP4 DUP4 CALLVALUE PUSH2 0x158 JUMPI DUP1 PUSH1 0x3 NOT CALLDATASIZE ADD SLT PUSH2 0x158 JUMPI PUSH2 0x82F PUSH2 0xCDF JUMP JUMPDEST SWAP1 CALLER PUSH1 0x1 PUSH1 0x1 PUSH1 0xA0 SHL SUB DUP4 AND SUB PUSH2 0x84C JUMPI POP PUSH2 0x1E3 SWAP2 SWAP3 CALLDATALOAD PUSH2 0xFFD JUMP JUMPDEST DUP4 SWAP1 MLOAD PUSH32 0x6697B23200000000000000000000000000000000000000000000000000000000 DUP2 MSTORE REVERT JUMPDEST POP POP CALLVALUE PUSH2 0x158 JUMPI DUP2 PUSH1 0x3 NOT CALLDATASIZE ADD SLT PUSH2 0x158 JUMPI PUSH1 0x20 SWAP1 MLOAD PUSH1 0x12 DUP2 MSTORE RETURN JUMPDEST SWAP2 SWAP1 POP CALLVALUE PUSH2 0x1E7 JUMPI DUP1 PUSH1 0x3 NOT CALLDATASIZE ADD SLT PUSH2 0x1E7 JUMPI PUSH2 0x1E3 SWAP2 CALLDATALOAD PUSH2 0x8B5 PUSH1 0x1 PUSH2 0x1CC PUSH2 0xCDF JUMP JUMPDEST PUSH2 0xF7C JUMP JUMPDEST SWAP1 POP CALLVALUE PUSH2 0x1E7 JUMPI PUSH1 0x20 CALLDATASIZE PUSH1 0x3 NOT ADD SLT PUSH2 0x1E7 JUMPI DUP2 PUSH1 0x20 SWAP4 PUSH1 0x1 SWAP3 CALLDATALOAD DUP2 MSTORE PUSH1 0x5 DUP6 MSTORE KECCAK256 ADD SLOAD SWAP1 MLOAD SWAP1 DUP2 MSTORE RETURN JUMPDEST SWAP1 POP DUP3 CALLVALUE PUSH2 0x9F1 JUMPI PUSH1 0x60 CALLDATASIZE PUSH1 0x3 NOT ADD SLT PUSH2 0x9F1 JUMPI PUSH2 0x901 PUSH2 0xCFA JUMP JUMPDEST PUSH2 0x909 PUSH2 0xCDF JUMP JUMPDEST SWAP2 PUSH1 0x44 CALLDATALOAD SWAP4 PUSH1 0x1 PUSH1 0x1 PUSH1 0xA0 SHL SUB DUP4 AND DUP1 DUP4 MSTORE PUSH1 0x1 PUSH1 0x20 MSTORE DUP7 DUP4 KECCAK256 CALLER DUP5 MSTORE PUSH1 0x20 MSTORE DUP7 DUP4 KECCAK256 SLOAD SWAP2 PUSH1 0x0 NOT DUP4 SUB PUSH2 0x946 JUMPI JUMPDEST PUSH1 0x20 DUP9 PUSH2 0x270 DUP10 DUP10 DUP10 PUSH2 0xEA0 JUMP JUMPDEST DUP7 DUP4 LT PUSH2 0x9AC JUMPI DUP2 ISZERO PUSH2 0x996 JUMPI CALLER ISZERO PUSH2 0x980 JUMPI POP DUP3 MSTORE PUSH1 0x1 PUSH1 0x20 SWAP1 DUP2 MSTORE DUP7 DUP4 KECCAK256 CALLER DUP5 MSTORE DUP2 MSTORE SWAP2 DUP7 SWAP1 KECCAK256 SWAP1 DUP6 SWAP1 SUB SWAP1 SSTORE DUP3 SWAP1 PUSH2 0x270 DUP8 PUSH2 0x938 JUMP JUMPDEST PUSH1 0x24 SWAP1 DUP5 DUP10 MLOAD SWAP2 PUSH4 0x4A1406B1 PUSH1 0xE1 SHL DUP4 MSTORE DUP3 ADD MSTORE REVERT JUMPDEST PUSH1 0x24 SWAP1 DUP5 DUP10 MLOAD SWAP2 PUSH4 0xE602DF05 PUSH1 0xE0 SHL DUP4 MSTORE DUP3 ADD MSTORE REVERT JUMPDEST DUP8 MLOAD PUSH32 0xFB8F41B200000000000000000000000000000000000000000000000000000000 DUP2 MSTORE CALLER SWAP2 DUP2 ADD SWAP2 DUP3 MSTORE PUSH1 0x20 DUP3 ADD SWAP4 SWAP1 SWAP4 MSTORE PUSH1 0x40 DUP2 ADD DUP8 SWAP1 MSTORE DUP3 SWAP2 POP PUSH1 0x60 ADD SUB SWAP1 REVERT JUMPDEST DUP1 REVERT JUMPDEST POP POP CALLVALUE PUSH2 0x158 JUMPI DUP2 PUSH1 0x3 NOT CALLDATASIZE ADD SLT PUSH2 0x158 JUMPI PUSH1 0x20 SWAP1 PUSH1 0x2 SLOAD SWAP1 MLOAD SWAP1 DUP2 MSTORE RETURN JUMPDEST SWAP1 POP CALLVALUE PUSH2 0x1E7 JUMPI DUP2 PUSH1 0x3 NOT CALLDATASIZE ADD SLT PUSH2 0x1E7 JUMPI PUSH2 0xA2D PUSH2 0xCFA JUMP JUMPDEST PUSH1 0x24 CALLDATALOAD SWAP1 CALLER ISZERO PUSH2 0xAA5 JUMPI PUSH1 0x1 PUSH1 0x1 PUSH1 0xA0 SHL SUB AND SWAP2 DUP3 ISZERO PUSH2 0xA8F JUMPI POP DUP1 DUP4 PUSH1 0x20 SWAP6 CALLER DUP2 MSTORE PUSH1 0x1 DUP8 MSTORE DUP2 DUP2 KECCAK256 DUP6 DUP3 MSTORE DUP8 MSTORE KECCAK256 SSTORE DUP3 MLOAD SWAP1 DUP2 MSTORE PUSH32 0x8C5BE1E5EBEC7D5BD14F71427D1E84F3DD0314C0F7B2291E5B200AC8C7C3B925 DUP5 CALLER SWAP3 LOG3 MLOAD PUSH1 0x1 DUP2 MSTORE RETURN JUMPDEST PUSH1 0x24 SWAP1 DUP6 DUP6 MLOAD SWAP2 PUSH4 0x4A1406B1 PUSH1 0xE1 SHL DUP4 MSTORE DUP3 ADD MSTORE REVERT JUMPDEST PUSH1 0x24 DUP4 DUP7 DUP7 MLOAD SWAP2 PUSH4 0xE602DF05 PUSH1 0xE0 SHL DUP4 MSTORE DUP3 ADD MSTORE REVERT JUMPDEST SWAP2 SWAP1 POP CALLVALUE PUSH2 0x1E7 JUMPI DUP3 PUSH1 0x3 NOT CALLDATASIZE ADD SLT PUSH2 0x1E7 JUMPI DUP1 MLOAD SWAP2 DUP4 PUSH1 0x3 SLOAD SWAP1 PUSH1 0x1 SWAP1 DUP3 PUSH1 0x1 SHR SWAP3 PUSH1 0x1 DUP2 AND DUP1 ISZERO PUSH2 0xBA8 JUMPI JUMPDEST PUSH1 0x20 SWAP6 DUP7 DUP7 LT DUP3 EQ PUSH2 0xB95 JUMPI POP DUP5 DUP9 MSTORE SWAP1 DUP2 ISZERO PUSH2 0xB73 JUMPI POP PUSH1 0x1 EQ PUSH2 0xB1A JUMPI JUMPDEST PUSH2 0x5D8 DUP7 DUP7 PUSH2 0x5CE DUP3 DUP12 SUB DUP4 PUSH2 0xD59 JUMP JUMPDEST SWAP3 SWAP6 POP PUSH1 0x3 DUP4 MSTORE PUSH32 0xC2575A0E9E593C00F959F8C92F12DB2869C3395A3B0502D05E2516446F71F85B JUMPDEST DUP3 DUP5 LT PUSH2 0xB60 JUMPI POP POP POP DUP3 PUSH2 0x5D8 SWAP5 PUSH2 0x5CE SWAP3 DUP3 ADD ADD SWAP5 CODESIZE PUSH2 0xB09 JUMP JUMPDEST DUP1 SLOAD DUP7 DUP6 ADD DUP9 ADD MSTORE SWAP3 DUP7 ADD SWAP3 DUP2 ADD PUSH2 0xB43 JUMP JUMPDEST PUSH1 0xFF NOT AND DUP8 DUP7 ADD MSTORE POP POP POP ISZERO ISZERO PUSH1 0x5 SHL DUP4 ADD ADD SWAP3 POP PUSH2 0x5CE DUP3 PUSH2 0x5D8 CODESIZE PUSH2 0xB09 JUMP JUMPDEST DUP4 PUSH1 0x22 PUSH1 0x24 SWAP3 PUSH4 0x4E487B71 PUSH1 0xE0 SHL DUP4 MSTORE MSTORE REVERT JUMPDEST SWAP4 PUSH1 0x7F AND SWAP4 PUSH2 0xAE9 JUMP JUMPDEST SWAP1 POP CALLVALUE PUSH2 0x1E7 JUMPI PUSH1 0x20 CALLDATASIZE PUSH1 0x3 NOT ADD SLT PUSH2 0x1E7 JUMPI CALLDATALOAD SWAP1 PUSH32 0xFFFFFFFF00000000000000000000000000000000000000000000000000000000 DUP3 AND DUP1 SWAP3 SUB PUSH2 0x1E7 JUMPI PUSH1 0x20 SWAP3 POP PUSH32 0x7965DB0B00000000000000000000000000000000000000000000000000000000 DUP3 EQ SWAP2 DUP3 ISZERO PUSH2 0xC29 JUMPI JUMPDEST POP MLOAD SWAP1 ISZERO ISZERO DUP2 MSTORE RETURN JUMPDEST PUSH32 0x1FFC9A700000000000000000000000000000000000000000000000000000000 EQ SWAP2 POP CODESIZE PUSH2 0xC20 JUMP JUMPDEST SWAP1 SWAP2 POP CALLVALUE PUSH2 0x464 JUMPI DUP3 PUSH1 0x3 NOT CALLDATASIZE ADD SLT PUSH2 0x464 JUMPI PUSH1 0xFF PUSH2 0xC70 PUSH2 0xCDF JUMP JUMPDEST SWAP4 DUP6 DUP1 MSTORE PUSH1 0x5 PUSH1 0x20 MSTORE DUP1 DUP7 KECCAK256 CALLER DUP8 MSTORE PUSH1 0x20 MSTORE DUP6 KECCAK256 SLOAD AND ISZERO PUSH2 0xCC5 JUMPI POP SWAP1 PUSH2 0xCC2 SWAP2 CALLDATALOAD SWAP1 PUSH1 0x1 PUSH1 0x1 PUSH1 0xA0 SHL SUB PUSH32 0x0 AND PUSH2 0xE38 JUMP JUMPDEST DUP1 RETURN JUMPDEST DUP4 PUSH1 0x44 SWAP3 PUSH4 0xE2517D3F PUSH1 0xE0 SHL DUP4 MSTORE CALLER SWAP1 DUP4 ADD MSTORE PUSH1 0x24 DUP3 ADD MSTORE REVERT JUMPDEST PUSH1 0x24 CALLDATALOAD SWAP1 PUSH1 0x1 PUSH1 0x1 PUSH1 0xA0 SHL SUB DUP3 AND DUP3 SUB PUSH2 0xCF5 JUMPI JUMP JUMPDEST PUSH1 0x0 DUP1 REVERT JUMPDEST PUSH1 0x4 CALLDATALOAD SWAP1 PUSH1 0x1 PUSH1 0x1 PUSH1 0xA0 SHL SUB DUP3 AND DUP3 SUB PUSH2 0xCF5 JUMPI JUMP JUMPDEST PUSH1 0x20 DUP1 DUP3 MSTORE DUP3 MLOAD DUP2 DUP4 ADD DUP2 SWAP1 MSTORE SWAP1 SWAP4 SWAP3 PUSH1 0x0 JUMPDEST DUP3 DUP2 LT PUSH2 0xD45 JUMPI POP POP PUSH1 0x40 SWAP3 SWAP4 POP PUSH1 0x0 DUP4 DUP3 DUP5 ADD ADD MSTORE PUSH1 0x1F DUP1 NOT SWAP2 ADD AND ADD ADD SWAP1 JUMP JUMPDEST DUP2 DUP2 ADD DUP7 ADD MLOAD DUP5 DUP3 ADD PUSH1 0x40 ADD MSTORE DUP6 ADD PUSH2 0xD23 JUMP JUMPDEST SWAP1 PUSH1 0x1F DUP1 NOT SWAP2 ADD AND DUP2 ADD SWAP1 DUP2 LT PUSH8 0xFFFFFFFFFFFFFFFF DUP3 GT OR PUSH2 0xD7B JUMPI PUSH1 0x40 MSTORE JUMP JUMPDEST PUSH4 0x4E487B71 PUSH1 0xE0 SHL PUSH1 0x0 MSTORE PUSH1 0x41 PUSH1 0x4 MSTORE PUSH1 0x24 PUSH1 0x0 REVERT JUMPDEST DUP2 DUP2 MUL SWAP3 SWAP2 DUP2 ISZERO SWAP2 DUP5 DIV EQ OR ISZERO PUSH2 0xDA4 JUMPI JUMP JUMPDEST PUSH4 0x4E487B71 PUSH1 0xE0 SHL PUSH1 0x0 MSTORE PUSH1 0x11 PUSH1 0x4 MSTORE PUSH1 0x24 PUSH1 0x0 REVERT JUMPDEST DUP2 ISZERO PUSH2 0xDC4 JUMPI DIV SWAP1 JUMP JUMPDEST PUSH4 0x4E487B71 PUSH1 0xE0 SHL PUSH1 0x0 MSTORE PUSH1 0x12 PUSH1 0x4 MSTORE PUSH1 0x24 PUSH1 0x0 REVERT JUMPDEST SWAP2 SWAP1 DUP3 ADD DUP1 SWAP3 GT PUSH2 0xDA4 JUMPI JUMP JUMPDEST SWAP2 SWAP1 DUP3 SUB SWAP2 DUP3 GT PUSH2 0xDA4 JUMPI JUMP JUMPDEST DUP1 PUSH1 0x0 MSTORE PUSH1 0x5 PUSH1 0x20 MSTORE PUSH1 0x40 PUSH1 0x0 KECCAK256 CALLER PUSH1 0x0 MSTORE PUSH1 0x20 MSTORE PUSH1 0xFF PUSH1 0x40 PUSH1 0x0 KECCAK256 SLOAD AND ISZERO PUSH2 0xE1A JUMPI POP JUMP JUMPDEST PUSH1 0x44 SWAP1 PUSH1 0x40 MLOAD SWAP1 PUSH4 0xE2517D3F PUSH1 0xE0 SHL DUP3 MSTORE CALLER PUSH1 0x4 DUP4 ADD MSTORE PUSH1 0x24 DUP3 ADD MSTORE REVERT JUMPDEST SWAP2 PUSH1 0x1 PUSH1 0x1 PUSH1 0xA0 SHL SUB PUSH1 0x40 MLOAD SWAP3 PUSH32 0xA9059CBB00000000000000000000000000000000000000000000000000000000 PUSH1 0x20 DUP6 ADD MSTORE AND PUSH1 0x24 DUP4 ADD MSTORE PUSH1 0x44 DUP3 ADD MSTORE PUSH1 0x44 DUP2 MSTORE PUSH1 0x80 DUP2 ADD SWAP2 DUP2 DUP4 LT PUSH8 0xFFFFFFFFFFFFFFFF DUP5 GT OR PUSH2 0xD7B JUMPI PUSH2 0xE9E SWAP3 PUSH1 0x40 MSTORE PUSH2 0x10E0 JUMP JUMPDEST JUMP JUMPDEST SWAP2 PUSH1 0x1 PUSH1 0x1 PUSH1 0xA0 SHL SUB DUP1 DUP5 AND SWAP3 DUP4 ISZERO PUSH2 0xF64 JUMPI AND SWAP3 DUP4 ISZERO PUSH2 0xF4C JUMPI PUSH1 0x0 SWAP1 DUP4 DUP3 MSTORE DUP2 PUSH1 0x20 MSTORE PUSH1 0x40 DUP3 KECCAK256 SLOAD SWAP1 DUP4 DUP3 LT PUSH2 0xF1A JUMPI POP SWAP2 PUSH1 0x40 DUP3 DUP3 PUSH32 0xDDF252AD1BE2C89B69C2B068FC378DAA952BA7F163C4A11628F55A4DF523B3EF SWAP6 DUP8 PUSH1 0x20 SWAP7 MSTORE DUP3 DUP7 MSTORE SUB DUP3 DUP3 KECCAK256 SSTORE DUP7 DUP2 MSTORE KECCAK256 DUP2 DUP2 SLOAD ADD SWAP1 SSTORE PUSH1 0x40 MLOAD SWAP1 DUP2 MSTORE LOG3 JUMP JUMPDEST PUSH1 0x40 MLOAD PUSH4 0x391434E3 PUSH1 0xE2 SHL DUP2 MSTORE PUSH1 0x1 PUSH1 0x1 PUSH1 0xA0 SHL SUB SWAP2 SWAP1 SWAP2 AND PUSH1 0x4 DUP3 ADD MSTORE PUSH1 0x24 DUP2 ADD SWAP2 SWAP1 SWAP2 MSTORE PUSH1 0x44 DUP2 ADD DUP4 SWAP1 MSTORE PUSH1 0x64 SWAP1 REVERT JUMPDEST PUSH1 0x24 PUSH1 0x40 MLOAD PUSH4 0xEC442F05 PUSH1 0xE0 SHL DUP2 MSTORE PUSH1 0x0 PUSH1 0x4 DUP3 ADD MSTORE REVERT JUMPDEST PUSH1 0x24 PUSH1 0x40 MLOAD PUSH4 0x4B637E8F PUSH1 0xE1 SHL DUP2 MSTORE PUSH1 0x0 PUSH1 0x4 DUP3 ADD MSTORE REVERT JUMPDEST SWAP1 PUSH1 0x0 SWAP2 DUP1 DUP4 MSTORE PUSH1 0x5 PUSH1 0x20 MSTORE PUSH1 0x1 PUSH1 0x1 PUSH1 0xA0 SHL SUB PUSH1 0x40 DUP5 KECCAK256 SWAP3 AND SWAP2 DUP3 DUP5 MSTORE PUSH1 0x20 MSTORE PUSH1 0xFF PUSH1 0x40 DUP5 KECCAK256 SLOAD AND ISZERO PUSH1 0x0 EQ PUSH2 0xFF8 JUMPI DUP1 DUP4 MSTORE PUSH1 0x5 PUSH1 0x20 MSTORE PUSH1 0x40 DUP4 KECCAK256 DUP3 DUP5 MSTORE PUSH1 0x20 MSTORE PUSH1 0x40 DUP4 KECCAK256 PUSH1 0x1 PUSH1 0xFF NOT DUP3 SLOAD AND OR SWAP1 SSTORE PUSH32 0x2F8788117E7EFF1D82E926EC794901D17C78024A50270940304540A733656F0D CALLER SWAP4 DUP1 LOG4 PUSH1 0x1 SWAP1 JUMP JUMPDEST POP POP SWAP1 JUMP JUMPDEST SWAP1 PUSH1 0x0 SWAP2 DUP1 DUP4 MSTORE PUSH1 0x5 PUSH1 0x20 MSTORE PUSH1 0x1 PUSH1 0x1 PUSH1 0xA0 SHL SUB PUSH1 0x40 DUP5 KECCAK256 SWAP3 AND SWAP2 DUP3 DUP5 MSTORE PUSH1 0x20 MSTORE PUSH1 0xFF PUSH1 0x40 DUP5 KECCAK256 SLOAD AND PUSH1 0x0 EQ PUSH2 0xFF8 JUMPI DUP1 DUP4 MSTORE PUSH1 0x5 PUSH1 0x20 MSTORE PUSH1 0x40 DUP4 KECCAK256 DUP3 DUP5 MSTORE PUSH1 0x20 MSTORE PUSH1 0x40 DUP4 KECCAK256 PUSH1 0xFF NOT DUP2 SLOAD AND SWAP1 SSTORE PUSH32 0xF6391F5C32D9C69D2A47EA670B442974B53935D1EDC7FD64EB21E047A839171B CALLER SWAP4 DUP1 LOG4 PUSH1 0x1 SWAP1 JUMP JUMPDEST SWAP3 SWAP1 PUSH1 0x40 MLOAD SWAP3 PUSH32 0x23B872DD00000000000000000000000000000000000000000000000000000000 PUSH1 0x20 DUP6 ADD MSTORE PUSH1 0x1 PUSH1 0x1 PUSH1 0xA0 SHL SUB DUP1 SWAP3 AND PUSH1 0x24 DUP6 ADD MSTORE AND PUSH1 0x44 DUP4 ADD MSTORE PUSH1 0x64 DUP3 ADD MSTORE PUSH1 0x64 DUP2 MSTORE PUSH1 0xA0 DUP2 ADD SWAP2 DUP2 DUP4 LT PUSH8 0xFFFFFFFFFFFFFFFF DUP5 GT OR PUSH2 0xD7B JUMPI PUSH2 0xE9E SWAP3 PUSH1 0x40 MSTORE JUMPDEST PUSH1 0x1 PUSH1 0x1 PUSH1 0xA0 SHL SUB AND SWAP1 PUSH1 0x0 DUP1 DUP3 PUSH1 0x20 DUP3 SWAP5 MLOAD SWAP2 ADD DUP3 DUP7 GAS CALL RETURNDATASIZE ISZERO PUSH2 0x11C2 JUMPI RETURNDATASIZE SWAP1 PUSH8 0xFFFFFFFFFFFFFFFF DUP3 GT PUSH2 0x11AE JUMPI SWAP1 PUSH2 0x113D SWAP2 PUSH1 0x40 MLOAD SWAP2 PUSH2 0x112D PUSH1 0x20 PUSH1 0x1F NOT PUSH1 0x1F DUP5 ADD AND ADD DUP5 PUSH2 0xD59 JUMP JUMPDEST DUP3 MSTORE RETURNDATASIZE DUP5 PUSH1 0x20 DUP5 ADD RETURNDATACOPY JUMPDEST DUP5 PUSH2 0x11CE JUMP JUMPDEST SWAP1 DUP2 MLOAD SWAP2 DUP3 ISZERO ISZERO SWAP3 DUP4 PUSH2 0x1186 JUMPI JUMPDEST POP POP POP PUSH2 0x1155 JUMPI POP JUMP JUMPDEST PUSH1 0x24 SWAP1 PUSH1 0x40 MLOAD SWAP1 PUSH32 0x5274AFE700000000000000000000000000000000000000000000000000000000 DUP3 MSTORE PUSH1 0x4 DUP3 ADD MSTORE REVERT JUMPDEST DUP2 SWAP3 SWAP4 POP SWAP1 PUSH1 0x20 SWAP2 DUP2 ADD SUB SLT PUSH2 0x158 JUMPI PUSH1 0x20 ADD MLOAD SWAP1 DUP2 ISZERO SWAP2 DUP3 ISZERO SUB PUSH2 0x9F1 JUMPI POP CODESIZE DUP1 DUP1 PUSH2 0x114B JUMP JUMPDEST PUSH1 0x24 DUP4 PUSH4 0x4E487B71 PUSH1 0xE0 SHL DUP2 MSTORE PUSH1 0x41 PUSH1 0x4 MSTORE REVERT JUMPDEST PUSH2 0x113D SWAP1 PUSH1 0x60 SWAP1 PUSH2 0x1137 JUMP JUMPDEST SWAP1 PUSH2 0x120D JUMPI POP DUP1 MLOAD ISZERO PUSH2 0x11E3 JUMPI DUP1 MLOAD SWAP1 PUSH1 0x20 ADD REVERT JUMPDEST PUSH1 0x4 PUSH1 0x40 MLOAD PUSH32 0x1425EA4200000000000000000000000000000000000000000000000000000000 DUP2 MSTORE REVERT JUMPDEST DUP2 MLOAD ISZERO DUP1 PUSH2 0x1258 JUMPI JUMPDEST PUSH2 0x121E JUMPI POP SWAP1 JUMP JUMPDEST PUSH1 0x24 SWAP1 PUSH1 0x1 PUSH1 0x1 PUSH1 0xA0 SHL SUB PUSH1 0x40 MLOAD SWAP2 PUSH32 0x9996B31500000000000000000000000000000000000000000000000000000000 DUP4 MSTORE AND PUSH1 0x4 DUP3 ADD MSTORE REVERT JUMPDEST POP DUP1 EXTCODESIZE ISZERO PUSH2 0x1216 JUMP INVALID LOG2 PUSH5 0x6970667358 0x22 SLT KECCAK256 SLT 0xAB 0x25 PUSH25 0x8F562D1572C1D8CD63B8E9C9973E8B8171B87E1609E4B88C0D 0xB4 KECCAK256 0xC1 PUSH5 0x736F6C6343 STOP ADDMOD XOR STOP CALLER "
        },
        "methodIdentifiers": {
          "DEFAULT_ADMIN_ROLE()": "a217fddf",
          "addLiquidity(uint256)": "51c6590a",
          "allowance(address,address)": "dd62ed3e",
          "approve(address,uint256)": "095ea7b3",
          "balanceOf(address)": "70a08231",
          "decimals()": "313ce567",
          "deposit(uint256)": "b6b55f25",
          "getRoleAdmin(bytes32)": "248a9ca3",
          "grantRole(bytes32,address)": "2f2ff15d",
          "hasRole(bytes32,address)": "91d14854",
          "name()": "06fdde03",
          "removeLiquidity(uint256,uint256)": "9d7de6b3",
          "renounceRole(bytes32,address)": "36568abe",
          "revokeRole(bytes32,address)": "d547741f",
          "supportsInterface(bytes4)": "01ffc9a7",
          "symbol()": "95d89b41",
          "token()": "fc0c546a",
          "totalReserves()": "8f840ddd",
          "totalSupply()": "18160ddd",
          "transfer(address,uint256)": "a9059cbb",
          "transferFrom(address,address,uint256)": "23b872dd",
          "withdraw(uint256,address)": "00f714ce"
        }
      }
    }
  }
}