{
  "contracts/src/HoneyExecutor.sol": {
    "HoneyExecutor": {
      "abi": [
        {
          "inputs": [],
          "stateMutability": "nonpayable",
          "type": "constructor"
        },
        {
          "inputs": [],
          "name": "AccessControlBadConfirmation",
          "type": "error"
        },
        {
          "inputs": [
            {
              "internalType": "address",
              "name": "account",
              "type": "address"
            },
            {
              "internalType": "bytes32",
              "name": "neededRole",
              "type": "bytes32"
            }
          ],
          "name": "AccessControlUnauthorizedAccount",
          "type": "error"
        },
        {
          "inputs": [
            {
              "internalType": "uint256",
              "name": "amountOut",
              "type": "uint256"
            },
            {
              "internalType": "uint256",
              "name": "expectedAmountOut",
              "type": "uint256"
            }
          ],
          "name": "InsufficientOutputAmount",
          "type": "error"
        },
        {
          "anonymous": false,
          "inputs": [
            {
              "indexed": true,
              "internalType": "bytes32",
              "name": "role",
              "type": "bytes32"
            },
            {
              "indexed": true,
              "internalType": "bytes32",
              "name": "previousAdminRole",
              "type": "bytes32"
            },
            {
              "indexed": true,
              "internalType": "bytes32",
              "name": "newAdminRole",
              "type": "bytes32"
            }
          ],
          "name": "RoleAdminChanged",
          "type": "event"
        },
        {
          "anonymous": false,
          "inputs": [
            {
              "indexed": true,
              "internalType": "bytes32",
              "name": "role",
              "type": "bytes32"
            },
            {
              "indexed": true,
              "internalType": "address",
              "name": "account",
              "type": "address"
            },
            {
              "indexed": true,
              "internalType": "address",
              "name": "sender",
              "type": "address"
            }
          ],
          "name": "RoleGranted",
          "type": "event"
        },
        {
          "anonymous": false,
          "inputs": [
            {
              "indexed": true,
              "internalType": "bytes32",
              "name": "role",
              "type": "bytes32"
            },
            {
              "indexed": true,
              "internalType": "address",
              "name": "account",
              "type": "address"
            },
            {
              "indexed": true,
              "internalType": "address",
              "name": "sender",
              "type": "address"
            }
          ],
          "name": "RoleRevoked",
          "type": "event"
        },
        {
          "inputs": [],
          "name": "DEFAULT_ADMIN_ROLE",
          "outputs": [
            {
              "internalType": "bytes32",
              "name": "",
              "type": "bytes32"
            }
          ],
          "stateMutability": "view",
          "type": "function"
        },
        {
          "inputs": [
            {
              "internalType": "string",
              "name": "name",
              "type": "string"
            },
            {
              "internalType": "string",
              "name": "routerURI",
              "type": "string"
            },
            {
              "internalType": "address",
              "name": "routerId",
              "type": "address"
            }
          ],
          "name": "addRouter",
          "outputs": [],
          "stateMutability": "nonpayable",
          "type": "function"
        },
        {
          "inputs": [
            {
              "internalType": "uint256",
              "name": "amountIn",
              "type": "uint256"
            },
            {
              "internalType": "address",
              "name": "tokenIn",
              "type": "address"
            },
            {
              "internalType": "address",
              "name": "tokenOut",
              "type": "address"
            }
          ],
          "name": "bestRouter",
          "outputs": [
            {
              "internalType": "uint256",
              "name": "",
              "type": "uint256"
            },
            {
              "internalType": "address",
              "name": "",
              "type": "address"
            },
            {
              "components": [
                {
                  "internalType": "string",
                  "name": "name",
                  "type": "string"
                },
                {
                  "internalType": "string",
                  "name": "routerURI",
                  "type": "string"
                }
              ],
              "internalType": "struct IHoneyExecutor.Router",
              "name": "",
              "type": "tuple"
            }
          ],
          "stateMutability": "view",
          "type": "function"
        },
        {
          "inputs": [
            {
              "internalType": "bytes32",
              "name": "role",
              "type": "bytes32"
            }
          ],
          "name": "getRoleAdmin",
          "outputs": [
            {
              "internalType": "bytes32",
              "name": "",
              "type": "bytes32"
            }
          ],
          "stateMutability": "view",
          "type": "function"
        },
        {
          "inputs": [
            {
              "internalType": "address",
              "name": "routerId",
              "type": "address"
            }
          ],
          "name": "getRouter",
          "outputs": [
            {
              "components": [
                {
                  "internalType": "string",
                  "name": "name",
                  "type": "string"
                },
                {
                  "internalType": "string",
                  "name": "routerURI",
                  "type": "string"
                }
              ],
              "internalType": "struct IHoneyExecutor.Router",
              "name": "",
              "type": "tuple"
            }
          ],
          "stateMutability": "view",
          "type": "function"
        },
        {
          "inputs": [],
          "name": "getRouterCount",
          "outputs": [
            {
              "internalType": "uint256",
              "name": "",
              "type": "uint256"
            }
          ],
          "stateMutability": "view",
          "type": "function"
        },
        {
          "inputs": [
            {
              "internalType": "bytes32",
              "name": "role",
              "type": "bytes32"
            },
            {
              "internalType": "address",
              "name": "account",
              "type": "address"
            }
          ],
          "name": "grantRole",
          "outputs": [],
          "stateMutability": "nonpayable",
          "type": "function"
        },
        {
          "inputs": [
            {
              "internalType": "bytes32",
              "name": "role",
              "type": "bytes32"
            },
            {
              "internalType": "address",
              "name": "account",
              "type": "address"
            }
          ],
          "name": "hasRole",
          "outputs": [
            {
              "internalType": "bool",
              "name": "",
              "type": "bool"
            }
          ],
          "stateMutability": "view",
          "type": "function"
        },
        {
          "inputs": [
            {
              "internalType": "address",
              "name": "routerId",
              "type": "address"
            }
          ],
          "name": "removeRouter",
          "outputs": [],
          "stateMutability": "nonpayable",
          "type": "function"
        },
        {
          "inputs": [
            {
              "internalType": "bytes32",
              "name": "role",
              "type": "bytes32"
            },
            {
              "internalType": "address",
              "name": "callerConfirmation",
              "type": "address"
            }
          ],
          "name": "renounceRole",
          "outputs": [],
          "stateMutability": "nonpayable",
          "type": "function"
        },
        {
          "inputs": [
            {
              "internalType": "bytes32",
              "name": "role",
              "type": "bytes32"
            },
            {
              "internalType": "address",
              "name": "account",
              "type": "address"
            }
          ],
          "name": "revokeRole",
          "outputs": [],
          "stateMutability": "nonpayable",
          "type": "function"
        },
        {
          "inputs": [
            {
              "internalType": "uint256",
              "name": "",
              "type": "uint256"
            }
          ],
          "name": "routerIds",
          "outputs": [
            {
              "internalType": "address",
              "name": "",
              "type": "address"
            }
          ],
          "stateMutability": "view",
          "type": "function"
        },
        {
          "inputs": [
            {
              "internalType": "address",
              "name": "",
              "type": "address"
            }
          ],
          "name": "routers",
          "outputs": [
            {
              "internalType": "string",
              "name": "name",
              "type": "string"
            },
            {
              "internalType": "string",
              "name": "routerURI",
              "type": "string"
            }
          ],
          "stateMutability": "view",
          "type": "function"
        },
        {
          "inputs": [
            {
              "internalType": "bytes4",
              "name": "interfaceId",
              "type": "bytes4"
            }
          ],
          "name": "supportsInterface",
          "outputs": [
            {
              "internalType": "bool",
              "name": "",
              "type": "bool"
            }
          ],
          "stateMutability": "view",
          "type": "function"
        },
        {
          "inputs": [
            {
              "internalType": "address",
              "name": "tokenOut",
              "type": "address"
            },
            {
              "internalType": "uint256",
              "name": "amountOutMin",
              "type": "uint256"
            },
            {
              "internalType": "address",
              "name": "to",
              "type": "address"
            }
          ],
          "name": "swapETHToTokens",
          "outputs": [
            {
              "internalType": "uint256",
              "name": "",
              "type": "uint256"
            }
          ],
          "stateMutability": "payable",
          "type": "function"
        },
        {
          "inputs": [
            {
              "internalType": "address",
              "name": "tokenIn",
              "type": "address"
            },
            {
              "internalType": "uint256",
              "name": "amountIn",
              "type": "uint256"
            },
            {
              "internalType": "uint256",
              "name": "amountOutMin",
              "type": "uint256"
            },
            {
              "internalType": "address",
              "name": "to",
              "type": "address"
            }
          ],
          "name": "swapTokensToETH",
          "outputs": [
            {
              "internalType": "uint256",
              "name": "",
              "type": "uint256"
            }
          ],
          "stateMutability": "payable",
          "type": "function"
        },
        {
          "inputs": [
            {
              "internalType": "address",
              "name": "tokenIn",
              "type": "address"
            },
            {
              "internalType": "uint256",
              "name": "amountIn",
              "type": "uint256"
            },
            {
              "internalType": "address",
              "name": "tokenOut",
              "type": "address"
            },
            {
              "internalType": "uint256",
              "name": "amountOutMin",
              "type": "uint256"
            },
            {
              "internalType": "address",
              "name": "to",
              "type": "address"
            }
          ],
          "name": "swapTokensToTokens",
          "outputs": [
            {
              "internalType": "uint256",
              "name": "",
              "type": "uint256"
            }
          ],
          "stateMutability": "payable",
          "type": "function"
        },
        {
          "stateMutability": "payable",
          "type": "receive"
        }
      ],
      "evm": {
        "bytecode": {
          "linkReferences": {},
          "object": "6080604052346100225761001233610027565b506040516113fe90816100b88239f35b600080fd5b6001600160a01b031660008181527fad3228b676f7d3cd4284a5443f17f1962b36e491b30a40b2405849e597ba5fb5602052604081205490919060ff166100b357818052816020526040822081835260205260408220600160ff1982541617905533917f2f8788117e7eff1d82e926ec794901d17c78024a50270940304540a733656f0d8180a4600190565b509056fe608060409080825260049182361015610023575b505050361561002157600080fd5b005b600091823560e01c90816301ffc9a714610d2657508063248a9ca314610cfc5780632f2ff15d14610cd257806336568abe14610c7457806361ee103114610c105780636ae0b15414610af75780636ee4035d14610ab557806380dd9a1f14610a4e5780638369166d146109f657806391d14854146109b157806395eb0870146107b8578063a217fddf1461079e578063a5be5f7a14610780578063b89eb11d14610481578063d219d1f3146102c6578063d547741f146102835763fc7a6a23036100135760a036600319011261027f576100fb610df6565b9260243593610108610de0565b916001600160a01b03608435818116936064359185900361027b5761012e86828b6112b7565b50929081811061025f57505082169386519863095ea7b360e01b8a526020998a818061017385888b8401602090939291936001600160a01b0360408201951681520152565b03818d8b5af180156102555792608495928c989795928c95610228575b50838b519a8b998a987f3f3f80c3000000000000000000000000000000000000000000000000000000008a5289015216602487015260448601526064850152165af192831561021d5780936101e8575b505051908152f35b909192508382813d8311610216575b6102018183610f32565b810103126102135750519038806101e0565b80fd5b503d6101f7565b8251903d90823e3d90fd5b610247908a3d8c1161024e575b61023f8183610f32565b8101906110cc565b5038610190565b503d610235565b89513d8c823e3d90fd5b60449186918a519263d28d3eb560e01b84528301526024820152fd5b8780fd5b5080fd5b508290346102c257806003193601126102c2576102be91356102b960016102a8610dc5565b93838752866020528620015461119c565b611241565b5080f35b8280fd5b50606036600319011261027f576102db610df6565b92602493602435916102eb610de0565b926102f4611027565b508596869387946002546001600160a01b039384809416975b8281106103a757505050169182885260209860018a5261032e888a206110a0565b5081811061038b57505091604491889493875196879586947fbed2d5e800000000000000000000000000000000000000000000000000000000865285015216602483015234905af192831561021d5780936101e857505051908152f35b604491859189519263d28d3eb560e01b84528301526024820152fd5b90919293506103b581610e79565b90546003918c5190632550332960e11b825273eeeeeeeeeeeeeeeeeeeeeeeeeeeeeeeeeeeeeeee8b8301528b86830152346044830152816064818b6020968795891b1c165afa918215610475578e92610443575b50508d8111610422575b5050600101908493929161030d565b86919d5060019295509c61043586610e79565b9054911b1c16939038610413565b90809250813d831161046e575b61045a8183610f32565b8101031261046a57513880610409565b8c80fd5b503d610450565b8e8e51903d90823e3d90fd5b503461027f57606036600319011261027f5767ffffffffffffffff90833582811161077c576104b39036908601610ff9565b602493919335828111610778576104d06105009136908901610ff9565b6104f76104db610de0565b976104e461112b565b8751956104f087610f00565b36916110e4565b845236916110e4565b916020918281019384526001600160a01b038616875260019485845287209051908151838111610765579086916105378254610ec6565b93601f94858111610739575b5086908583116001146106d75761057292918c9183610622575b50508160011b916000199060031b1c19161790565b81555b0193519283519283116106c45761058c8554610ec6565b82811161068e575b508091831160011461062d575081906105c29388926106225750508160011b916000199060031b1c19161790565b90555b600254906801000000000000000082101561060f57816105ed9161060c949301600255610e79565b9091906001600160a01b038084549260031b9316831b921b1916179055565b80f35b602484604187634e487b7160e01b835252fd5b01519050388061055d565b908593601f198416868a52838a20938a905b828210610675575050841161065c575b505050811b0190556105c5565b015160001960f88460031b161c1916905538808061064f565b848401518655899790950194938401939081019061063f565b6106b590868a52828a208480870160051c8201928588106106bb575b0160051c0190611040565b38610594565b925081926106aa565b60248860418b634e487b7160e01b835252fd5b838c52878c209190601f1984168d5b8a828210610723575050908487959493921061070a575b505050811b018155610575565b015160001960f88460031b161c191690553880806106fd565b8385015186558d989095019493840193016106e6565b61075f90848d52888d208780860160051c8201928b87106106bb570160051c0190611040565b38610543565b60248960418c634e487b7160e01b835252fd5b8580fd5b8380fd5b503461027f578160031936011261027f576020906002549051908152f35b503461027f578160031936011261027f5751908152602090f35b50608036600319011261027f576107cd610df6565b6024359060443594606435956001600160a01b03968781168091036109ad576107f4611027565b50869787908895816002549116965b8181106108ec57505081169283895260209960018b52610824898b206110a0565b5081811061025f575050865163095ea7b360e01b81526001600160a01b039091168482019081526020810187905289908290819060400103818b895af180156108e257928995949289926064956108c5575b50885197889687957f796449dd000000000000000000000000000000000000000000000000000000008752860152602485015260448401525af192831561021d5780936101e857505051908152f35b6108db90883d8a1161024e5761023f8183610f32565b5038610876565b87513d8a823e3d90fd5b6108f581610e79565b90546003918c5190632550332960e11b82528b8b83015273eeeeeeeeeeeeeeeeeeeeeeeeeeeeeeeeeeeeeeee60248301528c604483015281606481896020968795891b1c165afa918215610475578e9261097f575b50508d811161095e575b5050600101610803565b84919d5060019295509c61097186610e79565b9054911b1c16939038610954565b90809250813d83116109a6575b6109968183610f32565b8101031261046a5751388061094a565b503d61098c565b8680fd5b5082346102c257816003193601126102c2578160209360ff926109d2610dc5565b903582528186526001600160a01b0383832091168252855220541690519015158152f35b503461027f57602036600319011261027f57610a3781610a4a936001600160a01b03610a20610df6565b610a28611027565b501681526001602052206110a0565b9051918291602083526020830190610e4c565b0390f35b503461027f57602036600319011261027f5780916001600160a01b03610a72610df6565b16815260016020522090610a4a610a946001610a8d85610f54565b9401610f54565b610aa78351948486958652850190610e0c565b908382036020850152610e0c565b5082346102c25760203660031901126102c257359160025483101561021357506001600160a01b03610ae8602093610e79565b92905490519260031b1c168152f35b508290346102c25760203660031901126102c257600191610b16610df6565b90610b1f61112b565b6001600160a01b03809216808652610b48858695816020528820610b4281611057565b01611057565b85945b610b53578580f35b600280549081871015610c0a57849183610b6c89610e79565b949054600395861b1c1614610b88575050508380950194610b4b565b93925094509460001992838101908111610bf757906105ed85610bad610bba94610e79565b9054908a1b1c1691610e79565b8354908115610be457500192610bcf84610e79565b81939154921b1b191690555581808080808580f35b866031602492634e487b7160e01b835252fd5b602488601185634e487b7160e01b835252fd5b50508580f35b509190346102135760603660031901126102135750610a4a610c4e606092610c36610dc5565b610c3e610de0565b91610c47611027565b50356112b7565b919390946001600160a01b03815196879687521660208601528401526060830190610e4c565b503461027f578060031936011261027f57610c8d610dc5565b90336001600160a01b03831603610caa57506102be919235611241565b8390517f6697b232000000000000000000000000000000000000000000000000000000008152fd5b508290346102c257806003193601126102c2576102be9135610cf760016102a8610dc5565b6111c2565b5082346102c25760203660031901126102c257816020936001923581528085522001549051908152f35b839085346102c25760203660031901126102c257357fffffffff0000000000000000000000000000000000000000000000000000000081168091036102c257602092507f7965db0b000000000000000000000000000000000000000000000000000000008114908115610d9b575b5015158152f35b7f01ffc9a70000000000000000000000000000000000000000000000000000000091501483610d94565b602435906001600160a01b0382168203610ddb57565b600080fd5b604435906001600160a01b0382168203610ddb57565b600435906001600160a01b0382168203610ddb57565b919082519283825260005b848110610e38575050826000602080949584010152601f8019910116010190565b602081830181015184830182015201610e17565b610e76916020610e658351604084526040840190610e0c565b920151906020818403910152610e0c565b90565b600254811015610eb05760026000527f405787fa12a823e0f2b7631cc41b3ba8828b3321ca811111fa75cd3aa3bb5ace0190600090565b634e487b7160e01b600052603260045260246000fd5b90600182811c92168015610ef6575b6020831014610ee057565b634e487b7160e01b600052602260045260246000fd5b91607f1691610ed5565b6040810190811067ffffffffffffffff821117610f1c57604052565b634e487b7160e01b600052604160045260246000fd5b90601f8019910116810190811067ffffffffffffffff821117610f1c57604052565b90604051918260008254610f6781610ec6565b90818452602094600191600181169081600014610fd75750600114610f98575b505050610f9692500383610f32565b565b600090815285812095935091905b818310610fbf575050610f969350820101388080610f87565b85548884018501529485019487945091830191610fa6565b92505050610f9694925060ff191682840152151560051b820101388080610f87565b9181601f84011215610ddb5782359167ffffffffffffffff8311610ddb5760208381860195010111610ddb57565b6040519061103482610f00565b60606020838281520152565b81811061104b575050565b60008155600101611040565b6110618154610ec6565b908161106b575050565b81601f6000931160011461107d575055565b90808391825261109c601f60208420940160051c840160018501611040565b5555565b906040516110ad81610f00565b60206110c7600183956110bf81610f54565b855201610f54565b910152565b90816020910312610ddb57518015158103610ddb5790565b92919267ffffffffffffffff8211610f1c576040519161110e601f8201601f191660200184610f32565b829481845281830111610ddb578281602093846000960137010152565b3360009081527fad3228b676f7d3cd4284a5443f17f1962b36e491b30a40b2405849e597ba5fb5602052604081205460ff16156111655750565b604490604051907fe2517d3f0000000000000000000000000000000000000000000000000000000082523360048301526024820152fd5b80600052600060205260406000203360005260205260ff60406000205416156111655750565b90600091808352826020526001600160a01b036040842092169182845260205260ff6040842054161560001461123c57808352826020526040832082845260205260408320600160ff198254161790557f2f8788117e7eff1d82e926ec794901d17c78024a50270940304540a733656f0d339380a4600190565b505090565b90600091808352826020526001600160a01b036040842092169182845260205260ff60408420541660001461123c5780835282602052604083208284526020526040832060ff1981541690557ff6391f5c32d9c69d2a47ea670b442974b53935d1edc7fd64eb21e047a839171b339380a4600190565b919290926112c3611027565b506002546000948594855b8381106112fc5750505050506001600160a01b0383166000526001602052610e7660406000209293926110a0565b61130581610e79565b906001600160a01b03905491600392604090815192632550332960e11b84528489166004850152848b166024850152876044850152836064818760209586958b1b1c165afa9182156113be5750600091611392575b509050898111611370575b5050506001016112ce565b909198506001929950976113838a610e79565b9054911b1c1697903880611365565b82813d83116113b7575b6113a68183610f32565b81010312610213575051803861135a565b503d61139c565b513d6000823e3d90fdfea2646970667358221220d3557ab0af9e5579aa8d9841545d0053a69ba5e777643862317f786f9632ffaf64736f6c63430008180033",
          "opcodes": "PUSH1 0x80 PUSH1 0x40 MSTORE CALLVALUE PUSH2 0x22 JUMPI PUSH2 0x12 CALLER PUSH2 0x27 JUMP JUMPDEST POP PUSH1 0x40 MLOAD PUSH2 0x13FE SWAP1 DUP2 PUSH2 0xB8 DUP3 CODECOPY RETURN JUMPDEST PUSH1 0x0 DUP1 REVERT JUMPDEST PUSH1 0x1 PUSH1 0x1 PUSH1 0xA0 SHL SUB AND PUSH1 0x0 DUP2 DUP2 MSTORE PUSH32 0xAD3228B676F7D3CD4284A5443F17F1962B36E491B30A40B2405849E597BA5FB5 PUSH1 0x20 MSTORE PUSH1 0x40 DUP2 KECCAK256 SLOAD SWAP1 SWAP2 SWAP1 PUSH1 0xFF AND PUSH2 0xB3 JUMPI DUP2 DUP1 MSTORE DUP2 PUSH1 0x20 MSTORE PUSH1 0x40 DUP3 KECCAK256 DUP2 DUP4 MSTORE PUSH1 0x20 MSTORE PUSH1 0x40 DUP3 KECCAK256 PUSH1 0x1 PUSH1 0xFF NOT DUP3 SLOAD AND OR SWAP1 SSTORE CALLER SWAP2 PUSH32 0x2F8788117E7EFF1D82E926EC794901D17C78024A50270940304540A733656F0D DUP2 DUP1 LOG4 PUSH1 0x1 SWAP1 JUMP JUMPDEST POP SWAP1 JUMP INVALID PUSH1 0x80 PUSH1 0x40 SWAP1 DUP1 DUP3 MSTORE PUSH1 0x4 SWAP2 DUP3 CALLDATASIZE LT ISZERO PUSH2 0x23 JUMPI JUMPDEST POP POP POP CALLDATASIZE ISZERO PUSH2 0x21 JUMPI PUSH1 0x0 DUP1 REVERT JUMPDEST STOP JUMPDEST PUSH1 0x0 SWAP2 DUP3 CALLDATALOAD PUSH1 0xE0 SHR SWAP1 DUP2 PUSH4 0x1FFC9A7 EQ PUSH2 0xD26 JUMPI POP DUP1 PUSH4 0x248A9CA3 EQ PUSH2 0xCFC JUMPI DUP1 PUSH4 0x2F2FF15D EQ PUSH2 0xCD2 JUMPI DUP1 PUSH4 0x36568ABE EQ PUSH2 0xC74 JUMPI DUP1 PUSH4 0x61EE1031 EQ PUSH2 0xC10 JUMPI DUP1 PUSH4 0x6AE0B154 EQ PUSH2 0xAF7 JUMPI DUP1 PUSH4 0x6EE4035D EQ PUSH2 0xAB5 JUMPI DUP1 PUSH4 0x80DD9A1F EQ PUSH2 0xA4E JUMPI DUP1 PUSH4 0x8369166D EQ PUSH2 0x9F6 JUMPI DUP1 PUSH4 0x91D14854 EQ PUSH2 0x9B1 JUMPI DUP1 PUSH4 0x95EB0870 EQ PUSH2 0x7B8 JUMPI DUP1 PUSH4 0xA217FDDF EQ PUSH2 0x79E JUMPI DUP1 PUSH4 0xA5BE5F7A EQ PUSH2 0x780 JUMPI DUP1 PUSH4 0xB89EB11D EQ PUSH2 0x481 JUMPI DUP1 PUSH4 0xD219D1F3 EQ PUSH2 0x2C6 JUMPI DUP1 PUSH4 0xD547741F EQ PUSH2 0x283 JUMPI PUSH4 0xFC7A6A23 SUB PUSH2 0x13 JUMPI PUSH1 0xA0 CALLDATASIZE PUSH1 0x3 NOT ADD SLT PUSH2 0x27F JUMPI PUSH2 0xFB PUSH2 0xDF6 JUMP JUMPDEST SWAP3 PUSH1 0x24 CALLDATALOAD SWAP4 PUSH2 0x108 PUSH2 0xDE0 JUMP JUMPDEST SWAP2 PUSH1 0x1 PUSH1 0x1 PUSH1 0xA0 SHL SUB PUSH1 0x84 CALLDATALOAD DUP2 DUP2 AND SWAP4 PUSH1 0x64 CALLDATALOAD SWAP2 DUP6 SWAP1 SUB PUSH2 0x27B JUMPI PUSH2 0x12E DUP7 DUP3 DUP12 PUSH2 0x12B7 JUMP JUMPDEST POP SWAP3 SWAP1 DUP2 DUP2 LT PUSH2 0x25F JUMPI POP POP DUP3 AND SWAP4 DUP7 MLOAD SWAP9 PUSH4 0x95EA7B3 PUSH1 0xE0 SHL DUP11 MSTORE PUSH1 0x20 SWAP10 DUP11 DUP2 DUP1 PUSH2 0x173 DUP6 DUP9 DUP12 DUP5 ADD PUSH1 0x20 SWAP1 SWAP4 SWAP3 SWAP2 SWAP4 PUSH1 0x1 PUSH1 0x1 PUSH1 0xA0 SHL SUB PUSH1 0x40 DUP3 ADD SWAP6 AND DUP2 MSTORE ADD MSTORE JUMP JUMPDEST SUB DUP2 DUP14 DUP12 GAS CALL DUP1 ISZERO PUSH2 0x255 JUMPI SWAP3 PUSH1 0x84 SWAP6 SWAP3 DUP13 SWAP9 SWAP8 SWAP6 SWAP3 DUP13 SWAP6 PUSH2 0x228 JUMPI JUMPDEST POP DUP4 DUP12 MLOAD SWAP11 DUP12 SWAP10 DUP11 SWAP9 PUSH32 0x3F3F80C300000000000000000000000000000000000000000000000000000000 DUP11 MSTORE DUP10 ADD MSTORE AND PUSH1 0x24 DUP8 ADD MSTORE PUSH1 0x44 DUP7 ADD MSTORE PUSH1 0x64 DUP6 ADD MSTORE AND GAS CALL SWAP3 DUP4 ISZERO PUSH2 0x21D JUMPI DUP1 SWAP4 PUSH2 0x1E8 JUMPI JUMPDEST POP POP MLOAD SWAP1 DUP2 MSTORE RETURN JUMPDEST SWAP1 SWAP2 SWAP3 POP DUP4 DUP3 DUP2 RETURNDATASIZE DUP4 GT PUSH2 0x216 JUMPI JUMPDEST PUSH2 0x201 DUP2 DUP4 PUSH2 0xF32 JUMP JUMPDEST DUP2 ADD SUB SLT PUSH2 0x213 JUMPI POP MLOAD SWAP1 CODESIZE DUP1 PUSH2 0x1E0 JUMP JUMPDEST DUP1 REVERT JUMPDEST POP RETURNDATASIZE PUSH2 0x1F7 JUMP JUMPDEST DUP3 MLOAD SWAP1 RETURNDATASIZE SWAP1 DUP3 RETURNDATACOPY RETURNDATASIZE SWAP1 REVERT JUMPDEST PUSH2 0x247 SWAP1 DUP11 RETURNDATASIZE DUP13 GT PUSH2 0x24E JUMPI JUMPDEST PUSH2 0x23F DUP2 DUP4 PUSH2 0xF32 JUMP JUMPDEST DUP2 ADD SWAP1 PUSH2 0x10CC JUMP JUMPDEST POP CODESIZE PUSH2 0x190 JUMP JUMPDEST POP RETURNDATASIZE PUSH2 0x235 JUMP JUMPDEST DUP10 MLOAD RETURNDATASIZE DUP13 DUP3 RETURNDATACOPY RETURNDATASIZE SWAP1 REVERT JUMPDEST PUSH1 0x44 SWAP2 DUP7 SWAP2 DUP11 MLOAD SWAP3 PUSH4 0xD28D3EB5 PUSH1 0xE0 SHL DUP5 MSTORE DUP4 ADD MSTORE PUSH1 0x24 DUP3 ADD MSTORE REVERT JUMPDEST DUP8 DUP1 REVERT JUMPDEST POP DUP1 REVERT JUMPDEST POP DUP3 SWAP1 CALLVALUE PUSH2 0x2C2 JUMPI DUP1 PUSH1 0x3 NOT CALLDATASIZE ADD SLT PUSH2 0x2C2 JUMPI PUSH2 0x2BE SWAP2 CALLDATALOAD PUSH2 0x2B9 PUSH1 0x1 PUSH2 0x2A8 PUSH2 0xDC5 JUMP JUMPDEST SWAP4 DUP4 DUP8 MSTORE DUP7 PUSH1 0x20 MSTORE DUP7 KECCAK256 ADD SLOAD PUSH2 0x119C JUMP JUMPDEST PUSH2 0x1241 JUMP JUMPDEST POP DUP1 RETURN JUMPDEST DUP3 DUP1 REVERT JUMPDEST POP PUSH1 0x60 CALLDATASIZE PUSH1 0x3 NOT ADD SLT PUSH2 0x27F JUMPI PUSH2 0x2DB PUSH2 0xDF6 JUMP JUMPDEST SWAP3 PUSH1 0x24 SWAP4 PUSH1 0x24 CALLDATALOAD SWAP2 PUSH2 0x2EB PUSH2 0xDE0 JUMP JUMPDEST SWAP3 PUSH2 0x2F4 PUSH2 0x1027 JUMP JUMPDEST POP DUP6 SWAP7 DUP7 SWAP4 DUP8 SWAP5 PUSH1 0x2 SLOAD PUSH1 0x1 PUSH1 0x1 PUSH1 0xA0 SHL SUB SWAP4 DUP5 DUP1 SWAP5 AND SWAP8 JUMPDEST DUP3 DUP2 LT PUSH2 0x3A7 JUMPI POP POP POP AND SWAP2 DUP3 DUP9 MSTORE PUSH1 0x20 SWAP9 PUSH1 0x1 DUP11 MSTORE PUSH2 0x32E DUP9 DUP11 KECCAK256 PUSH2 0x10A0 JUMP JUMPDEST POP DUP2 DUP2 LT PUSH2 0x38B JUMPI POP POP SWAP2 PUSH1 0x44 SWAP2 DUP9 SWAP5 SWAP4 DUP8 MLOAD SWAP7 DUP8 SWAP6 DUP7 SWAP5 PUSH32 0xBED2D5E800000000000000000000000000000000000000000000000000000000 DUP7 MSTORE DUP6 ADD MSTORE AND PUSH1 0x24 DUP4 ADD MSTORE CALLVALUE SWAP1 GAS CALL SWAP3 DUP4 ISZERO PUSH2 0x21D JUMPI DUP1 SWAP4 PUSH2 0x1E8 JUMPI POP POP MLOAD SWAP1 DUP2 MSTORE RETURN JUMPDEST PUSH1 0x44 SWAP2 DUP6 SWAP2 DUP10 MLOAD SWAP3 PUSH4 0xD28D3EB5 PUSH1 0xE0 SHL DUP5 MSTORE DUP4 ADD MSTORE PUSH1 0x24 DUP3 ADD MSTORE REVERT JUMPDEST SWAP1 SWAP2 SWAP3 SWAP4 POP PUSH2 0x3B5 DUP2 PUSH2 0xE79 JUMP JUMPDEST SWAP1 SLOAD PUSH1 0x3 SWAP2 DUP13 MLOAD SWAP1 PUSH4 0x25503329 PUSH1 0xE1 SHL DUP3 MSTORE PUSH20 0xEEEEEEEEEEEEEEEEEEEEEEEEEEEEEEEEEEEEEEEE DUP12 DUP4 ADD MSTORE DUP12 DUP7 DUP4 ADD MSTORE CALLVALUE PUSH1 0x44 DUP4 ADD MSTORE DUP2 PUSH1 0x64 DUP2 DUP12 PUSH1 0x20 SWAP7 DUP8 SWAP6 DUP10 SHL SHR AND GAS STATICCALL SWAP2 DUP3 ISZERO PUSH2 0x475 JUMPI DUP15 SWAP3 PUSH2 0x443 JUMPI JUMPDEST POP POP DUP14 DUP2 GT PUSH2 0x422 JUMPI JUMPDEST POP POP PUSH1 0x1 ADD SWAP1 DUP5 SWAP4 SWAP3 SWAP2 PUSH2 0x30D JUMP JUMPDEST DUP7 SWAP2 SWAP14 POP PUSH1 0x1 SWAP3 SWAP6 POP SWAP13 PUSH2 0x435 DUP7 PUSH2 0xE79 JUMP JUMPDEST SWAP1 SLOAD SWAP2 SHL SHR AND SWAP4 SWAP1 CODESIZE PUSH2 0x413 JUMP JUMPDEST SWAP1 DUP1 SWAP3 POP DUP2 RETURNDATASIZE DUP4 GT PUSH2 0x46E JUMPI JUMPDEST PUSH2 0x45A DUP2 DUP4 PUSH2 0xF32 JUMP JUMPDEST DUP2 ADD SUB SLT PUSH2 0x46A JUMPI MLOAD CODESIZE DUP1 PUSH2 0x409 JUMP JUMPDEST DUP13 DUP1 REVERT JUMPDEST POP RETURNDATASIZE PUSH2 0x450 JUMP JUMPDEST DUP15 DUP15 MLOAD SWAP1 RETURNDATASIZE SWAP1 DUP3 RETURNDATACOPY RETURNDATASIZE SWAP1 REVERT JUMPDEST POP CALLVALUE PUSH2 0x27F JUMPI PUSH1 0x60 CALLDATASIZE PUSH1 0x3 NOT ADD SLT PUSH2 0x27F JUMPI PUSH8 0xFFFFFFFFFFFFFFFF SWAP1 DUP4 CALLDATALOAD DUP3 DUP2 GT PUSH2 0x77C JUMPI PUSH2 0x4B3 SWAP1 CALLDATASIZE SWAP1 DUP7 ADD PUSH2 0xFF9 JUMP JUMPDEST PUSH1 0x24 SWAP4 SWAP2 SWAP4 CALLDATALOAD DUP3 DUP2 GT PUSH2 0x778 JUMPI PUSH2 0x4D0 PUSH2 0x500 SWAP2 CALLDATASIZE SWAP1 DUP10 ADD PUSH2 0xFF9 JUMP JUMPDEST PUSH2 0x4F7 PUSH2 0x4DB PUSH2 0xDE0 JUMP JUMPDEST SWAP8 PUSH2 0x4E4 PUSH2 0x112B JUMP JUMPDEST DUP8 MLOAD SWAP6 PUSH2 0x4F0 DUP8 PUSH2 0xF00 JUMP JUMPDEST CALLDATASIZE SWAP2 PUSH2 0x10E4 JUMP JUMPDEST DUP5 MSTORE CALLDATASIZE SWAP2 PUSH2 0x10E4 JUMP JUMPDEST SWAP2 PUSH1 0x20 SWAP2 DUP3 DUP2 ADD SWAP4 DUP5 MSTORE PUSH1 0x1 PUSH1 0x1 PUSH1 0xA0 SHL SUB DUP7 AND DUP8 MSTORE PUSH1 0x1 SWAP5 DUP6 DUP5 MSTORE DUP8 KECCAK256 SWAP1 MLOAD SWAP1 DUP2 MLOAD DUP4 DUP2 GT PUSH2 0x765 JUMPI SWAP1 DUP7 SWAP2 PUSH2 0x537 DUP3 SLOAD PUSH2 0xEC6 JUMP JUMPDEST SWAP4 PUSH1 0x1F SWAP5 DUP6 DUP2 GT PUSH2 0x739 JUMPI JUMPDEST POP DUP7 SWAP1 DUP6 DUP4 GT PUSH1 0x1 EQ PUSH2 0x6D7 JUMPI PUSH2 0x572 SWAP3 SWAP2 DUP13 SWAP2 DUP4 PUSH2 0x622 JUMPI JUMPDEST POP POP DUP2 PUSH1 0x1 SHL SWAP2 PUSH1 0x0 NOT SWAP1 PUSH1 0x3 SHL SHR NOT AND OR SWAP1 JUMP JUMPDEST DUP2 SSTORE JUMPDEST ADD SWAP4 MLOAD SWAP3 DUP4 MLOAD SWAP3 DUP4 GT PUSH2 0x6C4 JUMPI PUSH2 0x58C DUP6 SLOAD PUSH2 0xEC6 JUMP JUMPDEST DUP3 DUP2 GT PUSH2 0x68E JUMPI JUMPDEST POP DUP1 SWAP2 DUP4 GT PUSH1 0x1 EQ PUSH2 0x62D JUMPI POP DUP2 SWAP1 PUSH2 0x5C2 SWAP4 DUP9 SWAP3 PUSH2 0x622 JUMPI POP POP DUP2 PUSH1 0x1 SHL SWAP2 PUSH1 0x0 NOT SWAP1 PUSH1 0x3 SHL SHR NOT AND OR SWAP1 JUMP JUMPDEST SWAP1 SSTORE JUMPDEST PUSH1 0x2 SLOAD SWAP1 PUSH9 0x10000000000000000 DUP3 LT ISZERO PUSH2 0x60F JUMPI DUP2 PUSH2 0x5ED SWAP2 PUSH2 0x60C SWAP5 SWAP4 ADD PUSH1 0x2 SSTORE PUSH2 0xE79 JUMP JUMPDEST SWAP1 SWAP2 SWAP1 PUSH1 0x1 PUSH1 0x1 PUSH1 0xA0 SHL SUB DUP1 DUP5 SLOAD SWAP3 PUSH1 0x3 SHL SWAP4 AND DUP4 SHL SWAP3 SHL NOT AND OR SWAP1 SSTORE JUMP JUMPDEST DUP1 RETURN JUMPDEST PUSH1 0x24 DUP5 PUSH1 0x41 DUP8 PUSH4 0x4E487B71 PUSH1 0xE0 SHL DUP4 MSTORE MSTORE REVERT JUMPDEST ADD MLOAD SWAP1 POP CODESIZE DUP1 PUSH2 0x55D JUMP JUMPDEST SWAP1 DUP6 SWAP4 PUSH1 0x1F NOT DUP5 AND DUP7 DUP11 MSTORE DUP4 DUP11 KECCAK256 SWAP4 DUP11 SWAP1 JUMPDEST DUP3 DUP3 LT PUSH2 0x675 JUMPI POP POP DUP5 GT PUSH2 0x65C JUMPI JUMPDEST POP POP POP DUP2 SHL ADD SWAP1 SSTORE PUSH2 0x5C5 JUMP JUMPDEST ADD MLOAD PUSH1 0x0 NOT PUSH1 0xF8 DUP5 PUSH1 0x3 SHL AND SHR NOT AND SWAP1 SSTORE CODESIZE DUP1 DUP1 PUSH2 0x64F JUMP JUMPDEST DUP5 DUP5 ADD MLOAD DUP7 SSTORE DUP10 SWAP8 SWAP1 SWAP6 ADD SWAP5 SWAP4 DUP5 ADD SWAP4 SWAP1 DUP2 ADD SWAP1 PUSH2 0x63F JUMP JUMPDEST PUSH2 0x6B5 SWAP1 DUP7 DUP11 MSTORE DUP3 DUP11 KECCAK256 DUP5 DUP1 DUP8 ADD PUSH1 0x5 SHR DUP3 ADD SWAP3 DUP6 DUP9 LT PUSH2 0x6BB JUMPI JUMPDEST ADD PUSH1 0x5 SHR ADD SWAP1 PUSH2 0x1040 JUMP JUMPDEST CODESIZE PUSH2 0x594 JUMP JUMPDEST SWAP3 POP DUP2 SWAP3 PUSH2 0x6AA JUMP JUMPDEST PUSH1 0x24 DUP9 PUSH1 0x41 DUP12 PUSH4 0x4E487B71 PUSH1 0xE0 SHL DUP4 MSTORE MSTORE REVERT JUMPDEST DUP4 DUP13 MSTORE DUP8 DUP13 KECCAK256 SWAP2 SWAP1 PUSH1 0x1F NOT DUP5 AND DUP14 JUMPDEST DUP11 DUP3 DUP3 LT PUSH2 0x723 JUMPI POP POP SWAP1 DUP5 DUP8 SWAP6 SWAP5 SWAP4 SWAP3 LT PUSH2 0x70A JUMPI JUMPDEST POP POP POP DUP2 SHL ADD DUP2 SSTORE PUSH2 0x575 JUMP JUMPDEST ADD MLOAD PUSH1 0x0 NOT PUSH1 0xF8 DUP5 PUSH1 0x3 SHL AND SHR NOT AND SWAP1 SSTORE CODESIZE DUP1 DUP1 PUSH2 0x6FD JUMP JUMPDEST DUP4 DUP6 ADD MLOAD DUP7 SSTORE DUP14 SWAP9 SWAP1 SWAP6 ADD SWAP5 SWAP4 DUP5 ADD SWAP4 ADD PUSH2 0x6E6 JUMP JUMPDEST PUSH2 0x75F SWAP1 DUP5 DUP14 MSTORE DUP9 DUP14 KECCAK256 DUP8 DUP1 DUP7 ADD PUSH1 0x5 SHR DUP3 ADD SWAP3 DUP12 DUP8 LT PUSH2 0x6BB JUMPI ADD PUSH1 0x5 SHR ADD SWAP1 PUSH2 0x1040 JUMP JUMPDEST CODESIZE PUSH2 0x543 JUMP JUMPDEST PUSH1 0x24 DUP10 PUSH1 0x41 DUP13 PUSH4 0x4E487B71 PUSH1 0xE0 SHL DUP4 MSTORE MSTORE REVERT JUMPDEST DUP6 DUP1 REVERT JUMPDEST DUP4 DUP1 REVERT JUMPDEST POP CALLVALUE PUSH2 0x27F JUMPI DUP2 PUSH1 0x3 NOT CALLDATASIZE ADD SLT PUSH2 0x27F JUMPI PUSH1 0x20 SWAP1 PUSH1 0x2 SLOAD SWAP1 MLOAD SWAP1 DUP2 MSTORE RETURN JUMPDEST POP CALLVALUE PUSH2 0x27F JUMPI DUP2 PUSH1 0x3 NOT CALLDATASIZE ADD SLT PUSH2 0x27F JUMPI MLOAD SWAP1 DUP2 MSTORE PUSH1 0x20 SWAP1 RETURN JUMPDEST POP PUSH1 0x80 CALLDATASIZE PUSH1 0x3 NOT ADD SLT PUSH2 0x27F JUMPI PUSH2 0x7CD PUSH2 0xDF6 JUMP JUMPDEST PUSH1 0x24 CALLDATALOAD SWAP1 PUSH1 0x44 CALLDATALOAD SWAP5 PUSH1 0x64 CALLDATALOAD SWAP6 PUSH1 0x1 PUSH1 0x1 PUSH1 0xA0 SHL SUB SWAP7 DUP8 DUP2 AND DUP1 SWAP2 SUB PUSH2 0x9AD JUMPI PUSH2 0x7F4 PUSH2 0x1027 JUMP JUMPDEST POP DUP7 SWAP8 DUP8 SWAP1 DUP9 SWAP6 DUP2 PUSH1 0x2 SLOAD SWAP2 AND SWAP7 JUMPDEST DUP2 DUP2 LT PUSH2 0x8EC JUMPI POP POP DUP2 AND SWAP3 DUP4 DUP10 MSTORE PUSH1 0x20 SWAP10 PUSH1 0x1 DUP12 MSTORE PUSH2 0x824 DUP10 DUP12 KECCAK256 PUSH2 0x10A0 JUMP JUMPDEST POP DUP2 DUP2 LT PUSH2 0x25F JUMPI POP POP DUP7 MLOAD PUSH4 0x95EA7B3 PUSH1 0xE0 SHL DUP2 MSTORE PUSH1 0x1 PUSH1 0x1 PUSH1 0xA0 SHL SUB SWAP1 SWAP2 AND DUP5 DUP3 ADD SWAP1 DUP2 MSTORE PUSH1 0x20 DUP2 ADD DUP8 SWAP1 MSTORE DUP10 SWAP1 DUP3 SWAP1 DUP2 SWAP1 PUSH1 0x40 ADD SUB DUP2 DUP12 DUP10 GAS CALL DUP1 ISZERO PUSH2 0x8E2 JUMPI SWAP3 DUP10 SWAP6 SWAP5 SWAP3 DUP10 SWAP3 PUSH1 0x64 SWAP6 PUSH2 0x8C5 JUMPI JUMPDEST POP DUP9 MLOAD SWAP8 DUP9 SWAP7 DUP8 SWAP6 PUSH32 0x796449DD00000000000000000000000000000000000000000000000000000000 DUP8 MSTORE DUP7 ADD MSTORE PUSH1 0x24 DUP6 ADD MSTORE PUSH1 0x44 DUP5 ADD MSTORE GAS CALL SWAP3 DUP4 ISZERO PUSH2 0x21D JUMPI DUP1 SWAP4 PUSH2 0x1E8 JUMPI POP POP MLOAD SWAP1 DUP2 MSTORE RETURN JUMPDEST PUSH2 0x8DB SWAP1 DUP9 RETURNDATASIZE DUP11 GT PUSH2 0x24E JUMPI PUSH2 0x23F DUP2 DUP4 PUSH2 0xF32 JUMP JUMPDEST POP CODESIZE PUSH2 0x876 JUMP JUMPDEST DUP8 MLOAD RETURNDATASIZE DUP11 DUP3 RETURNDATACOPY RETURNDATASIZE SWAP1 REVERT JUMPDEST PUSH2 0x8F5 DUP2 PUSH2 0xE79 JUMP JUMPDEST SWAP1 SLOAD PUSH1 0x3 SWAP2 DUP13 MLOAD SWAP1 PUSH4 0x25503329 PUSH1 0xE1 SHL DUP3 MSTORE DUP12 DUP12 DUP4 ADD MSTORE PUSH20 0xEEEEEEEEEEEEEEEEEEEEEEEEEEEEEEEEEEEEEEEE PUSH1 0x24 DUP4 ADD MSTORE DUP13 PUSH1 0x44 DUP4 ADD MSTORE DUP2 PUSH1 0x64 DUP2 DUP10 PUSH1 0x20 SWAP7 DUP8 SWAP6 DUP10 SHL SHR AND GAS STATICCALL SWAP2 DUP3 ISZERO PUSH2 0x475 JUMPI DUP15 SWAP3 PUSH2 0x97F JUMPI JUMPDEST POP POP DUP14 DUP2 GT PUSH2 0x95E JUMPI JUMPDEST POP POP PUSH1 0x1 ADD PUSH2 0x803 JUMP JUMPDEST DUP5 SWAP2 SWAP14 POP PUSH1 0x1 SWAP3 SWAP6 POP SWAP13 PUSH2 0x971 DUP7 PUSH2 0xE79 JUMP JUMPDEST SWAP1 SLOAD SWAP2 SHL SHR AND SWAP4 SWAP1 CODESIZE PUSH2 0x954 JUMP JUMPDEST SWAP1 DUP1 SWAP3 POP DUP2 RETURNDATASIZE DUP4 GT PUSH2 0x9A6 JUMPI JUMPDEST PUSH2 0x996 DUP2 DUP4 PUSH2 0xF32 JUMP JUMPDEST DUP2 ADD SUB SLT PUSH2 0x46A JUMPI MLOAD CODESIZE DUP1 PUSH2 0x94A JUMP JUMPDEST POP RETURNDATASIZE PUSH2 0x98C JUMP JUMPDEST DUP7 DUP1 REVERT JUMPDEST POP DUP3 CALLVALUE PUSH2 0x2C2 JUMPI DUP2 PUSH1 0x3 NOT CALLDATASIZE ADD SLT PUSH2 0x2C2 JUMPI DUP2 PUSH1 0x20 SWAP4 PUSH1 0xFF SWAP3 PUSH2 0x9D2 PUSH2 0xDC5 JUMP JUMPDEST SWAP1 CALLDATALOAD DUP3 MSTORE DUP2 DUP7 MSTORE PUSH1 0x1 PUSH1 0x1 PUSH1 0xA0 SHL SUB DUP4 DUP4 KECCAK256 SWAP2 AND DUP3 MSTORE DUP6 MSTORE KECCAK256 SLOAD AND SWAP1 MLOAD SWAP1 ISZERO ISZERO DUP2 MSTORE RETURN JUMPDEST POP CALLVALUE PUSH2 0x27F JUMPI PUSH1 0x20 CALLDATASIZE PUSH1 0x3 NOT ADD SLT PUSH2 0x27F JUMPI PUSH2 0xA37 DUP2 PUSH2 0xA4A SWAP4 PUSH1 0x1 PUSH1 0x1 PUSH1 0xA0 SHL SUB PUSH2 0xA20 PUSH2 0xDF6 JUMP JUMPDEST PUSH2 0xA28 PUSH2 0x1027 JUMP JUMPDEST POP AND DUP2 MSTORE PUSH1 0x1 PUSH1 0x20 MSTORE KECCAK256 PUSH2 0x10A0 JUMP JUMPDEST SWAP1 MLOAD SWAP2 DUP3 SWAP2 PUSH1 0x20 DUP4 MSTORE PUSH1 0x20 DUP4 ADD SWAP1 PUSH2 0xE4C JUMP JUMPDEST SUB SWAP1 RETURN JUMPDEST POP CALLVALUE PUSH2 0x27F JUMPI PUSH1 0x20 CALLDATASIZE PUSH1 0x3 NOT ADD SLT PUSH2 0x27F JUMPI DUP1 SWAP2 PUSH1 0x1 PUSH1 0x1 PUSH1 0xA0 SHL SUB PUSH2 0xA72 PUSH2 0xDF6 JUMP JUMPDEST AND DUP2 MSTORE PUSH1 0x1 PUSH1 0x20 MSTORE KECCAK256 SWAP1 PUSH2 0xA4A PUSH2 0xA94 PUSH1 0x1 PUSH2 0xA8D DUP6 PUSH2 0xF54 JUMP JUMPDEST SWAP5 ADD PUSH2 0xF54 JUMP JUMPDEST PUSH2 0xAA7 DUP4 MLOAD SWAP5 DUP5 DUP7 SWAP6 DUP7 MSTORE DUP6 ADD SWAP1 PUSH2 0xE0C JUMP JUMPDEST SWAP1 DUP4 DUP3 SUB PUSH1 0x20 DUP6 ADD MSTORE PUSH2 0xE0C JUMP JUMPDEST POP DUP3 CALLVALUE PUSH2 0x2C2 JUMPI PUSH1 0x20 CALLDATASIZE PUSH1 0x3 NOT ADD SLT PUSH2 0x2C2 JUMPI CALLDATALOAD SWAP2 PUSH1 0x2 SLOAD DUP4 LT ISZERO PUSH2 0x213 JUMPI POP PUSH1 0x1 PUSH1 0x1 PUSH1 0xA0 SHL SUB PUSH2 0xAE8 PUSH1 0x20 SWAP4 PUSH2 0xE79 JUMP JUMPDEST SWAP3 SWAP1 SLOAD SWAP1 MLOAD SWAP3 PUSH1 0x3 SHL SHR AND DUP2 MSTORE RETURN JUMPDEST POP DUP3 SWAP1 CALLVALUE PUSH2 0x2C2 JUMPI PUSH1 0x20 CALLDATASIZE PUSH1 0x3 NOT ADD SLT PUSH2 0x2C2 JUMPI PUSH1 0x1 SWAP2 PUSH2 0xB16 PUSH2 0xDF6 JUMP JUMPDEST SWAP1 PUSH2 0xB1F PUSH2 0x112B JUMP JUMPDEST PUSH1 0x1 PUSH1 0x1 PUSH1 0xA0 SHL SUB DUP1 SWAP3 AND DUP1 DUP7 MSTORE PUSH2 0xB48 DUP6 DUP7 SWAP6 DUP2 PUSH1 0x20 MSTORE DUP9 KECCAK256 PUSH2 0xB42 DUP2 PUSH2 0x1057 JUMP JUMPDEST ADD PUSH2 0x1057 JUMP JUMPDEST DUP6 SWAP5 JUMPDEST PUSH2 0xB53 JUMPI DUP6 DUP1 RETURN JUMPDEST PUSH1 0x2 DUP1 SLOAD SWAP1 DUP2 DUP8 LT ISZERO PUSH2 0xC0A JUMPI DUP5 SWAP2 DUP4 PUSH2 0xB6C DUP10 PUSH2 0xE79 JUMP JUMPDEST SWAP5 SWAP1 SLOAD PUSH1 0x3 SWAP6 DUP7 SHL SHR AND EQ PUSH2 0xB88 JUMPI POP POP POP DUP4 DUP1 SWAP6 ADD SWAP5 PUSH2 0xB4B JUMP JUMPDEST SWAP4 SWAP3 POP SWAP5 POP SWAP5 PUSH1 0x0 NOT SWAP3 DUP4 DUP2 ADD SWAP1 DUP2 GT PUSH2 0xBF7 JUMPI SWAP1 PUSH2 0x5ED DUP6 PUSH2 0xBAD PUSH2 0xBBA SWAP5 PUSH2 0xE79 JUMP JUMPDEST SWAP1 SLOAD SWAP1 DUP11 SHL SHR AND SWAP2 PUSH2 0xE79 JUMP JUMPDEST DUP4 SLOAD SWAP1 DUP2 ISZERO PUSH2 0xBE4 JUMPI POP ADD SWAP3 PUSH2 0xBCF DUP5 PUSH2 0xE79 JUMP JUMPDEST DUP2 SWAP4 SWAP2 SLOAD SWAP3 SHL SHL NOT AND SWAP1 SSTORE SSTORE DUP2 DUP1 DUP1 DUP1 DUP1 DUP6 DUP1 RETURN JUMPDEST DUP7 PUSH1 0x31 PUSH1 0x24 SWAP3 PUSH4 0x4E487B71 PUSH1 0xE0 SHL DUP4 MSTORE MSTORE REVERT JUMPDEST PUSH1 0x24 DUP9 PUSH1 0x11 DUP6 PUSH4 0x4E487B71 PUSH1 0xE0 SHL DUP4 MSTORE MSTORE REVERT JUMPDEST POP POP DUP6 DUP1 RETURN JUMPDEST POP SWAP2 SWAP1 CALLVALUE PUSH2 0x213 JUMPI PUSH1 0x60 CALLDATASIZE PUSH1 0x3 NOT ADD SLT PUSH2 0x213 JUMPI POP PUSH2 0xA4A PUSH2 0xC4E PUSH1 0x60 SWAP3 PUSH2 0xC36 PUSH2 0xDC5 JUMP JUMPDEST PUSH2 0xC3E PUSH2 0xDE0 JUMP JUMPDEST SWAP2 PUSH2 0xC47 PUSH2 0x1027 JUMP JUMPDEST POP CALLDATALOAD PUSH2 0x12B7 JUMP JUMPDEST SWAP2 SWAP4 SWAP1 SWAP5 PUSH1 0x1 PUSH1 0x1 PUSH1 0xA0 SHL SUB DUP2 MLOAD SWAP7 DUP8 SWAP7 DUP8 MSTORE AND PUSH1 0x20 DUP7 ADD MSTORE DUP5 ADD MSTORE PUSH1 0x60 DUP4 ADD SWAP1 PUSH2 0xE4C JUMP JUMPDEST POP CALLVALUE PUSH2 0x27F JUMPI DUP1 PUSH1 0x3 NOT CALLDATASIZE ADD SLT PUSH2 0x27F JUMPI PUSH2 0xC8D PUSH2 0xDC5 JUMP JUMPDEST SWAP1 CALLER PUSH1 0x1 PUSH1 0x1 PUSH1 0xA0 SHL SUB DUP4 AND SUB PUSH2 0xCAA JUMPI POP PUSH2 0x2BE SWAP2 SWAP3 CALLDATALOAD PUSH2 0x1241 JUMP JUMPDEST DUP4 SWAP1 MLOAD PUSH32 0x6697B23200000000000000000000000000000000000000000000000000000000 DUP2 MSTORE REVERT JUMPDEST POP DUP3 SWAP1 CALLVALUE PUSH2 0x2C2 JUMPI DUP1 PUSH1 0x3 NOT CALLDATASIZE ADD SLT PUSH2 0x2C2 JUMPI PUSH2 0x2BE SWAP2 CALLDATALOAD PUSH2 0xCF7 PUSH1 0x1 PUSH2 0x2A8 PUSH2 0xDC5 JUMP JUMPDEST PUSH2 0x11C2 JUMP JUMPDEST POP DUP3 CALLVALUE PUSH2 0x2C2 JUMPI PUSH1 0x20 CALLDATASIZE PUSH1 0x3 NOT ADD SLT PUSH2 0x2C2 JUMPI DUP2 PUSH1 0x20 SWAP4 PUSH1 0x1 SWAP3 CALLDATALOAD DUP2 MSTORE DUP1 DUP6 MSTORE KECCAK256 ADD SLOAD SWAP1 MLOAD SWAP1 DUP2 MSTORE RETURN JUMPDEST DUP4 SWAP1 DUP6 CALLVALUE PUSH2 0x2C2 JUMPI PUSH1 0x20 CALLDATASIZE PUSH1 0x3 NOT ADD SLT PUSH2 0x2C2 JUMPI CALLDATALOAD PUSH32 0xFFFFFFFF00000000000000000000000000000000000000000000000000000000 DUP2 AND DUP1 SWAP2 SUB PUSH2 0x2C2 JUMPI PUSH1 0x20 SWAP3 POP PUSH32 0x7965DB0B00000000000000000000000000000000000000000000000000000000 DUP2 EQ SWAP1 DUP2 ISZERO PUSH2 0xD9B JUMPI JUMPDEST POP ISZERO ISZERO DUP2 MSTORE RETURN JUMPDEST PUSH32 0x1FFC9A700000000000000000000000000000000000000000000000000000000 SWAP2 POP EQ DUP4 PUSH2 0xD94 JUMP JUMPDEST PUSH1 0x24 CALLDATALOAD SWAP1 PUSH1 0x1 PUSH1 0x1 PUSH1 0xA0 SHL SUB DUP3 AND DUP3 SUB PUSH2 0xDDB JUMPI JUMP JUMPDEST PUSH1 0x0 DUP1 REVERT JUMPDEST PUSH1 0x44 CALLDATALOAD SWAP1 PUSH1 0x1 PUSH1 0x1 PUSH1 0xA0 SHL SUB DUP3 AND DUP3 SUB PUSH2 0xDDB JUMPI JUMP JUMPDEST PUSH1 0x4 CALLDATALOAD SWAP1 PUSH1 0x1 PUSH1 0x1 PUSH1 0xA0 SHL SUB DUP3 AND DUP3 SUB PUSH2 0xDDB JUMPI JUMP JUMPDEST SWAP2 SWAP1 DUP3 MLOAD SWAP3 DUP4 DUP3 MSTORE PUSH1 0x0 JUMPDEST DUP5 DUP2 LT PUSH2 0xE38 JUMPI POP POP DUP3 PUSH1 0x0 PUSH1 0x20 DUP1 SWAP5 SWAP6 DUP5 ADD ADD MSTORE PUSH1 0x1F DUP1 NOT SWAP2 ADD AND ADD ADD SWAP1 JUMP JUMPDEST PUSH1 0x20 DUP2 DUP4 ADD DUP2 ADD MLOAD DUP5 DUP4 ADD DUP3 ADD MSTORE ADD PUSH2 0xE17 JUMP JUMPDEST PUSH2 0xE76 SWAP2 PUSH1 0x20 PUSH2 0xE65 DUP4 MLOAD PUSH1 0x40 DUP5 MSTORE PUSH1 0x40 DUP5 ADD SWAP1 PUSH2 0xE0C JUMP JUMPDEST SWAP3 ADD MLOAD SWAP1 PUSH1 0x20 DUP2 DUP5 SUB SWAP2 ADD MSTORE PUSH2 0xE0C JUMP JUMPDEST SWAP1 JUMP JUMPDEST PUSH1 0x2 SLOAD DUP2 LT ISZERO PUSH2 0xEB0 JUMPI PUSH1 0x2 PUSH1 0x0 MSTORE PUSH32 0x405787FA12A823E0F2B7631CC41B3BA8828B3321CA811111FA75CD3AA3BB5ACE ADD SWAP1 PUSH1 0x0 SWAP1 JUMP JUMPDEST PUSH4 0x4E487B71 PUSH1 0xE0 SHL PUSH1 0x0 MSTORE PUSH1 0x32 PUSH1 0x4 MSTORE PUSH1 0x24 PUSH1 0x0 REVERT JUMPDEST SWAP1 PUSH1 0x1 DUP3 DUP2 SHR SWAP3 AND DUP1 ISZERO PUSH2 0xEF6 JUMPI JUMPDEST PUSH1 0x20 DUP4 LT EQ PUSH2 0xEE0 JUMPI JUMP JUMPDEST PUSH4 0x4E487B71 PUSH1 0xE0 SHL PUSH1 0x0 MSTORE PUSH1 0x22 PUSH1 0x4 MSTORE PUSH1 0x24 PUSH1 0x0 REVERT JUMPDEST SWAP2 PUSH1 0x7F AND SWAP2 PUSH2 0xED5 JUMP JUMPDEST PUSH1 0x40 DUP2 ADD SWAP1 DUP2 LT PUSH8 0xFFFFFFFFFFFFFFFF DUP3 GT OR PUSH2 0xF1C JUMPI PUSH1 0x40 MSTORE JUMP JUMPDEST PUSH4 0x4E487B71 PUSH1 0xE0 SHL PUSH1 0x0 MSTORE PUSH1 0x41 PUSH1 0x4 MSTORE PUSH1 0x24 PUSH1 0x0 REVERT JUMPDEST SWAP1 PUSH1 0x1F DUP1 NOT SWAP2 ADD AND DUP2 ADD SWAP1 DUP2 LT PUSH8 0xFFFFFFFFFFFFFFFF DUP3 GT OR PUSH2 0xF1C JUMPI PUSH1 0x40 MSTORE JUMP JUMPDEST SWAP1 PUSH1 0x40 MLOAD SWAP2 DUP3 PUSH1 0x0 DUP3 SLOAD PUSH2 0xF67 DUP2 PUSH2 0xEC6 JUMP JUMPDEST SWAP1 DUP2 DUP5 MSTORE PUSH1 0x20 SWAP5 PUSH1 0x1 SWAP2 PUSH1 0x1 DUP2 AND SWAP1 DUP2 PUSH1 0x0 EQ PUSH2 0xFD7 JUMPI POP PUSH1 0x1 EQ PUSH2 0xF98 JUMPI JUMPDEST POP POP POP PUSH2 0xF96 SWAP3 POP SUB DUP4 PUSH2 0xF32 JUMP JUMPDEST JUMP JUMPDEST PUSH1 0x0 SWAP1 DUP2 MSTORE DUP6 DUP2 KECCAK256 SWAP6 SWAP4 POP SWAP2 SWAP1 JUMPDEST DUP2 DUP4 LT PUSH2 0xFBF JUMPI POP POP PUSH2 0xF96 SWAP4 POP DUP3 ADD ADD CODESIZE DUP1 DUP1 PUSH2 0xF87 JUMP JUMPDEST DUP6 SLOAD DUP9 DUP5 ADD DUP6 ADD MSTORE SWAP5 DUP6 ADD SWAP5 DUP8 SWAP5 POP SWAP2 DUP4 ADD SWAP2 PUSH2 0xFA6 JUMP JUMPDEST SWAP3 POP POP POP PUSH2 0xF96 SWAP5 SWAP3 POP PUSH1 0xFF NOT AND DUP3 DUP5 ADD MSTORE ISZERO ISZERO PUSH1 0x5 SHL DUP3 ADD ADD CODESIZE DUP1 DUP1 PUSH2 0xF87 JUMP JUMPDEST SWAP2 DUP2 PUSH1 0x1F DUP5 ADD SLT ISZERO PUSH2 0xDDB JUMPI DUP3 CALLDATALOAD SWAP2 PUSH8 0xFFFFFFFFFFFFFFFF DUP4 GT PUSH2 0xDDB JUMPI PUSH1 0x20 DUP4 DUP2 DUP7 ADD SWAP6 ADD ADD GT PUSH2 0xDDB JUMPI JUMP JUMPDEST PUSH1 0x40 MLOAD SWAP1 PUSH2 0x1034 DUP3 PUSH2 0xF00 JUMP JUMPDEST PUSH1 0x60 PUSH1 0x20 DUP4 DUP3 DUP2 MSTORE ADD MSTORE JUMP JUMPDEST DUP2 DUP2 LT PUSH2 0x104B JUMPI POP POP JUMP JUMPDEST PUSH1 0x0 DUP2 SSTORE PUSH1 0x1 ADD PUSH2 0x1040 JUMP JUMPDEST PUSH2 0x1061 DUP2 SLOAD PUSH2 0xEC6 JUMP JUMPDEST SWAP1 DUP2 PUSH2 0x106B JUMPI POP POP JUMP JUMPDEST DUP2 PUSH1 0x1F PUSH1 0x0 SWAP4 GT PUSH1 0x1 EQ PUSH2 0x107D JUMPI POP SSTORE JUMP JUMPDEST SWAP1 DUP1 DUP4 SWAP2 DUP3 MSTORE PUSH2 0x109C PUSH1 0x1F PUSH1 0x20 DUP5 KECCAK256 SWAP5 ADD PUSH1 0x5 SHR DUP5 ADD PUSH1 0x1 DUP6 ADD PUSH2 0x1040 JUMP JUMPDEST SSTORE SSTORE JUMP JUMPDEST SWAP1 PUSH1 0x40 MLOAD PUSH2 0x10AD DUP2 PUSH2 0xF00 JUMP JUMPDEST PUSH1 0x20 PUSH2 0x10C7 PUSH1 0x1 DUP4 SWAP6 PUSH2 0x10BF DUP2 PUSH2 0xF54 JUMP JUMPDEST DUP6 MSTORE ADD PUSH2 0xF54 JUMP JUMPDEST SWAP2 ADD MSTORE JUMP JUMPDEST SWAP1 DUP2 PUSH1 0x20 SWAP2 SUB SLT PUSH2 0xDDB JUMPI MLOAD DUP1 ISZERO ISZERO DUP2 SUB PUSH2 0xDDB JUMPI SWAP1 JUMP JUMPDEST SWAP3 SWAP2 SWAP3 PUSH8 0xFFFFFFFFFFFFFFFF DUP3 GT PUSH2 0xF1C JUMPI PUSH1 0x40 MLOAD SWAP2 PUSH2 0x110E PUSH1 0x1F DUP3 ADD PUSH1 0x1F NOT AND PUSH1 0x20 ADD DUP5 PUSH2 0xF32 JUMP JUMPDEST DUP3 SWAP5 DUP2 DUP5 MSTORE DUP2 DUP4 ADD GT PUSH2 0xDDB JUMPI DUP3 DUP2 PUSH1 0x20 SWAP4 DUP5 PUSH1 0x0 SWAP7 ADD CALLDATACOPY ADD ADD MSTORE JUMP JUMPDEST CALLER PUSH1 0x0 SWAP1 DUP2 MSTORE PUSH32 0xAD3228B676F7D3CD4284A5443F17F1962B36E491B30A40B2405849E597BA5FB5 PUSH1 0x20 MSTORE PUSH1 0x40 DUP2 KECCAK256 SLOAD PUSH1 0xFF AND ISZERO PUSH2 0x1165 JUMPI POP JUMP JUMPDEST PUSH1 0x44 SWAP1 PUSH1 0x40 MLOAD SWAP1 PUSH32 0xE2517D3F00000000000000000000000000000000000000000000000000000000 DUP3 MSTORE CALLER PUSH1 0x4 DUP4 ADD MSTORE PUSH1 0x24 DUP3 ADD MSTORE REVERT JUMPDEST DUP1 PUSH1 0x0 MSTORE PUSH1 0x0 PUSH1 0x20 MSTORE PUSH1 0x40 PUSH1 0x0 KECCAK256 CALLER PUSH1 0x0 MSTORE PUSH1 0x20 MSTORE PUSH1 0xFF PUSH1 0x40 PUSH1 0x0 KECCAK256 SLOAD AND ISZERO PUSH2 0x1165 JUMPI POP JUMP JUMPDEST SWAP1 PUSH1 0x0 SWAP2 DUP1 DUP4 MSTORE DUP3 PUSH1 0x20 MSTORE PUSH1 0x1 PUSH1 0x1 PUSH1 0xA0 SHL SUB PUSH1 0x40 DUP5 KECCAK256 SWAP3 AND SWAP2 DUP3 DUP5 MSTORE PUSH1 0x20 MSTORE PUSH1 0xFF PUSH1 0x40 DUP5 KECCAK256 SLOAD AND ISZERO PUSH1 0x0 EQ PUSH2 0x123C JUMPI DUP1 DUP4 MSTORE DUP3 PUSH1 0x20 MSTORE PUSH1 0x40 DUP4 KECCAK256 DUP3 DUP5 MSTORE PUSH1 0x20 MSTORE PUSH1 0x40 DUP4 KECCAK256 PUSH1 0x1 PUSH1 0xFF NOT DUP3 SLOAD AND OR SWAP1 SSTORE PUSH32 0x2F8788117E7EFF1D82E926EC794901D17C78024A50270940304540A733656F0D CALLER SWAP4 DUP1 LOG4 PUSH1 0x1 SWAP1 JUMP JUMPDEST POP POP SWAP1 JUMP JUMPDEST SWAP1 PUSH1 0x0 SWAP2 DUP1 DUP4 MSTORE DUP3 PUSH1 0x20 MSTORE PUSH1 0x1 PUSH1 0x1 PUSH1 0xA0 SHL SUB PUSH1 0x40 DUP5 KECCAK256 SWAP3 AND SWAP2 DUP3 DUP5 MSTORE PUSH1 0x20 MSTORE PUSH1 0xFF PUSH1 0x40 DUP5 KECCAK256 SLOAD AND PUSH1 0x0 EQ PUSH2 0x123C JUMPI DUP1 DUP4 MSTORE DUP3 PUSH1 0x20 MSTORE PUSH1 0x40 DUP4 KECCAK256 DUP3 DUP5 MSTORE PUSH1 0x20 MSTORE PUSH1 0x40 DUP4 KECCAK256 PUSH1 0xFF NOT DUP2 SLOAD AND SWAP1 SSTORE PUSH32 0xF6391F5C32D9C69D2A47EA670B442974B53935D1EDC7FD64EB21E047A839171B CALLER SWAP4 DUP1 LOG4 PUSH1 0x1 SWAP1 JUMP JUMPDEST SWAP2 SWAP3 SWAP1 SWAP3 PUSH2 0x12C3 PUSH2 0x1027 JUMP JUMPDEST POP PUSH1 0x2 SLOAD PUSH1 0x0 SWAP5 DUP6 SWAP5 DUP6 JUMPDEST DUP4 DUP2 LT PUSH2 0x12FC JUMPI POP POP POP POP POP PUSH1 0x1 PUSH1 0x1 PUSH1 0xA0 SHL SUB DUP4 AND PUSH1 0x0 MSTORE PUSH1 0x1 PUSH1 0x20 MSTORE PUSH2 0xE76 PUSH1 0x40 PUSH1 0x0 KECCAK256 SWAP3 SWAP4 SWAP3 PUSH2 0x10A0 JUMP JUMPDEST PUSH2 0x1305 DUP2 PUSH2 0xE79 JUMP JUMPDEST SWAP1 PUSH1 0x1 PUSH1 0x1 PUSH1 0xA0 SHL SUB SWAP1 SLOAD SWAP2 PUSH1 0x3 SWAP3 PUSH1 0x40 SWAP1 DUP2 MLOAD SWAP3 PUSH4 0x25503329 PUSH1 0xE1 SHL DUP5 MSTORE DUP5 DUP10 AND PUSH1 0x4 DUP6 ADD MSTORE DUP5 DUP12 AND PUSH1 0x24 DUP6 ADD MSTORE DUP8 PUSH1 0x44 DUP6 ADD MSTORE DUP4 PUSH1 0x64 DUP2 DUP8 PUSH1 0x20 SWAP6 DUP7 SWAP6 DUP12 SHL SHR AND GAS STATICCALL SWAP2 DUP3 ISZERO PUSH2 0x13BE JUMPI POP PUSH1 0x0 SWAP2 PUSH2 0x1392 JUMPI JUMPDEST POP SWAP1 POP DUP10 DUP2 GT PUSH2 0x1370 JUMPI JUMPDEST POP POP POP PUSH1 0x1 ADD PUSH2 0x12CE JUMP JUMPDEST SWAP1 SWAP2 SWAP9 POP PUSH1 0x1 SWAP3 SWAP10 POP SWAP8 PUSH2 0x1383 DUP11 PUSH2 0xE79 JUMP JUMPDEST SWAP1 SLOAD SWAP2 SHL SHR AND SWAP8 SWAP1 CODESIZE DUP1 PUSH2 0x1365 JUMP JUMPDEST DUP3 DUP2 RETURNDATASIZE DUP4 GT PUSH2 0x13B7 JUMPI JUMPDEST PUSH2 0x13A6 DUP2 DUP4 PUSH2 0xF32 JUMP JUMPDEST DUP2 ADD SUB SLT PUSH2 0x213 JUMPI POP MLOAD DUP1 CODESIZE PUSH2 0x135A JUMP JUMPDEST POP RETURNDATASIZE PUSH2 0x139C JUMP JUMPDEST MLOAD RETURNDATASIZE PUSH1 0x0 DUP3 RETURNDATACOPY RETURNDATASIZE SWAP1 REVERT INVALID LOG2 PUSH5 0x6970667358 0x22 SLT KECCAK256 0xD3 SSTORE PUSH27 0xB0AF9E5579AA8D9841545D0053A69BA5E777643862317F786F9632 SELFDESTRUCT 0xAF PUSH5 0x736F6C6343 STOP ADDMOD XOR STOP CALLER "
        },
        "methodIdentifiers": {
          "DEFAULT_ADMIN_ROLE()": "a217fddf",
          "addRouter(string,string,address)": "b89eb11d",
          "bestRouter(uint256,address,address)": "61ee1031",
          "getRoleAdmin(bytes32)": "248a9ca3",
          "getRouter(address)": "8369166d",
          "getRouterCount()": "a5be5f7a",
          "grantRole(bytes32,address)": "2f2ff15d",
          "hasRole(bytes32,address)": "91d14854",
          "removeRouter(address)": "6ae0b154",
          "renounceRole(bytes32,address)": "36568abe",
          "revokeRole(bytes32,address)": "d547741f",
          "routerIds(uint256)": "6ee4035d",
          "routers(address)": "80dd9a1f",
          "supportsInterface(bytes4)": "01ffc9a7",
          "swapETHToTokens(address,uint256,address)": "d219d1f3",
          "swapTokensToETH(address,uint256,uint256,address)": "95eb0870",
          "swapTokensToTokens(address,uint256,address,uint256,address)": "fc7a6a23"
        }
      }
    }
  }
}