{
  "contracts/src/HoneyRouter01.sol": {
    "HoneyRouter01": {
      "abi": [
        {
          "inputs": [
            {
              "internalType": "address",
              "name": "_tokenMap",
              "type": "address"
            },
            {
              "internalType": "address",
              "name": "_router",
              "type": "address"
            },
            {
              "internalType": "address",
              "name": "_treasury",
              "type": "address"
            }
          ],
          "stateMutability": "nonpayable",
          "type": "constructor"
        },
        {
          "inputs": [],
          "name": "AccessControlBadConfirmation",
          "type": "error"
        },
        {
          "inputs": [
            {
              "internalType": "address",
              "name": "account",
              "type": "address"
            },
            {
              "internalType": "bytes32",
              "name": "neededRole",
              "type": "bytes32"
            }
          ],
          "name": "AccessControlUnauthorizedAccount",
          "type": "error"
        },
        {
          "inputs": [
            {
              "internalType": "address",
              "name": "target",
              "type": "address"
            }
          ],
          "name": "AddressEmptyCode",
          "type": "error"
        },
        {
          "inputs": [
            {
              "internalType": "address",
              "name": "account",
              "type": "address"
            }
          ],
          "name": "AddressInsufficientBalance",
          "type": "error"
        },
        {
          "inputs": [],
          "name": "EnforcedPause",
          "type": "error"
        },
        {
          "inputs": [],
          "name": "ExpectedPause",
          "type": "error"
        },
        {
          "inputs": [],
          "name": "FailedInnerCall",
          "type": "error"
        },
        {
          "inputs": [],
          "name": "InvalidLength",
          "type": "error"
        },
        {
          "inputs": [],
          "name": "InvalidMessageSender",
          "type": "error"
        },
        {
          "inputs": [
            {
              "internalType": "uint256",
              "name": "chainSelector",
              "type": "uint256"
            }
          ],
          "name": "InvalidPeer",
          "type": "error"
        },
        {
          "inputs": [
            {
              "internalType": "address",
              "name": "router",
              "type": "address"
            }
          ],
          "name": "InvalidRouter",
          "type": "error"
        },
        {
          "inputs": [
            {
              "internalType": "address",
              "name": "owner",
              "type": "address"
            }
          ],
          "name": "OwnableInvalidOwner",
          "type": "error"
        },
        {
          "inputs": [
            {
              "internalType": "address",
              "name": "account",
              "type": "address"
            }
          ],
          "name": "OwnableUnauthorizedAccount",
          "type": "error"
        },
        {
          "inputs": [],
          "name": "RouterAddressCannotBeZero",
          "type": "error"
        },
        {
          "inputs": [
            {
              "internalType": "address",
              "name": "token",
              "type": "address"
            }
          ],
          "name": "SafeERC20FailedOperation",
          "type": "error"
        },
        {
          "anonymous": false,
          "inputs": [
            {
              "indexed": true,
              "internalType": "address",
              "name": "previousOwner",
              "type": "address"
            },
            {
              "indexed": true,
              "internalType": "address",
              "name": "newOwner",
              "type": "address"
            }
          ],
          "name": "OwnershipTransferred",
          "type": "event"
        },
        {
          "anonymous": false,
          "inputs": [
            {
              "indexed": false,
              "internalType": "address",
              "name": "account",
              "type": "address"
            }
          ],
          "name": "Paused",
          "type": "event"
        },
        {
          "anonymous": false,
          "inputs": [
            {
              "indexed": true,
              "internalType": "bytes32",
              "name": "role",
              "type": "bytes32"
            },
            {
              "indexed": true,
              "internalType": "bytes32",
              "name": "previousAdminRole",
              "type": "bytes32"
            },
            {
              "indexed": true,
              "internalType": "bytes32",
              "name": "newAdminRole",
              "type": "bytes32"
            }
          ],
          "name": "RoleAdminChanged",
          "type": "event"
        },
        {
          "anonymous": false,
          "inputs": [
            {
              "indexed": true,
              "internalType": "bytes32",
              "name": "role",
              "type": "bytes32"
            },
            {
              "indexed": true,
              "internalType": "address",
              "name": "account",
              "type": "address"
            },
            {
              "indexed": true,
              "internalType": "address",
              "name": "sender",
              "type": "address"
            }
          ],
          "name": "RoleGranted",
          "type": "event"
        },
        {
          "anonymous": false,
          "inputs": [
            {
              "indexed": true,
              "internalType": "bytes32",
              "name": "role",
              "type": "bytes32"
            },
            {
              "indexed": true,
              "internalType": "address",
              "name": "account",
              "type": "address"
            },
            {
              "indexed": true,
              "internalType": "address",
              "name": "sender",
              "type": "address"
            }
          ],
          "name": "RoleRevoked",
          "type": "event"
        },
        {
          "anonymous": false,
          "inputs": [
            {
              "indexed": false,
              "internalType": "address",
              "name": "account",
              "type": "address"
            }
          ],
          "name": "Unpaused",
          "type": "event"
        },
        {
          "inputs": [],
          "name": "DEFAULT_ADMIN_ROLE",
          "outputs": [
            {
              "internalType": "bytes32",
              "name": "",
              "type": "bytes32"
            }
          ],
          "stateMutability": "view",
          "type": "function"
        },
        {
          "inputs": [],
          "name": "TREASURY",
          "outputs": [
            {
              "internalType": "address",
              "name": "",
              "type": "address"
            }
          ],
          "stateMutability": "view",
          "type": "function"
        },
        {
          "inputs": [
            {
              "internalType": "uint256",
              "name": "amountIn",
              "type": "uint256"
            },
            {
              "internalType": "address",
              "name": "tokenIn",
              "type": "address"
            },
            {
              "internalType": "address",
              "name": "tokenOut",
              "type": "address"
            }
          ],
          "name": "bestRouter",
          "outputs": [
            {
              "internalType": "uint256",
              "name": "",
              "type": "uint256"
            },
            {
              "internalType": "address",
              "name": "",
              "type": "address"
            },
            {
              "components": [
                {
                  "internalType": "string",
                  "name": "name",
                  "type": "string"
                },
                {
                  "internalType": "string",
                  "name": "routerURI",
                  "type": "string"
                }
              ],
              "internalType": "struct IHoneyExecutor.Router",
              "name": "",
              "type": "tuple"
            }
          ],
          "stateMutability": "view",
          "type": "function"
        },
        {
          "inputs": [],
          "name": "getEquitoFee",
          "outputs": [
            {
              "internalType": "uint256",
              "name": "",
              "type": "uint256"
            }
          ],
          "stateMutability": "view",
          "type": "function"
        },
        {
          "inputs": [
            {
              "internalType": "uint256",
              "name": "chainSelector",
              "type": "uint256"
            }
          ],
          "name": "getPeer",
          "outputs": [
            {
              "components": [
                {
                  "internalType": "bytes32",
                  "name": "lower",
                  "type": "bytes32"
                },
                {
                  "internalType": "bytes32",
                  "name": "upper",
                  "type": "bytes32"
                }
              ],
              "internalType": "struct bytes64",
              "name": "",
              "type": "tuple"
            }
          ],
          "stateMutability": "view",
          "type": "function"
        },
        {
          "inputs": [
            {
              "internalType": "bytes32",
              "name": "role",
              "type": "bytes32"
            }
          ],
          "name": "getRoleAdmin",
          "outputs": [
            {
              "internalType": "bytes32",
              "name": "",
              "type": "bytes32"
            }
          ],
          "stateMutability": "view",
          "type": "function"
        },
        {
          "inputs": [
            {
              "internalType": "bytes32",
              "name": "role",
              "type": "bytes32"
            },
            {
              "internalType": "address",
              "name": "account",
              "type": "address"
            }
          ],
          "name": "grantRole",
          "outputs": [],
          "stateMutability": "nonpayable",
          "type": "function"
        },
        {
          "inputs": [
            {
              "internalType": "bytes32",
              "name": "role",
              "type": "bytes32"
            },
            {
              "internalType": "address",
              "name": "account",
              "type": "address"
            }
          ],
          "name": "hasRole",
          "outputs": [
            {
              "internalType": "bool",
              "name": "",
              "type": "bool"
            }
          ],
          "stateMutability": "view",
          "type": "function"
        },
        {
          "inputs": [],
          "name": "owner",
          "outputs": [
            {
              "internalType": "address",
              "name": "",
              "type": "address"
            }
          ],
          "stateMutability": "view",
          "type": "function"
        },
        {
          "inputs": [],
          "name": "pause",
          "outputs": [],
          "stateMutability": "nonpayable",
          "type": "function"
        },
        {
          "inputs": [],
          "name": "paused",
          "outputs": [
            {
              "internalType": "bool",
              "name": "",
              "type": "bool"
            }
          ],
          "stateMutability": "view",
          "type": "function"
        },
        {
          "inputs": [
            {
              "internalType": "uint256",
              "name": "",
              "type": "uint256"
            }
          ],
          "name": "peers",
          "outputs": [
            {
              "internalType": "bytes32",
              "name": "lower",
              "type": "bytes32"
            },
            {
              "internalType": "bytes32",
              "name": "upper",
              "type": "bytes32"
            }
          ],
          "stateMutability": "view",
          "type": "function"
        },
        {
          "inputs": [
            {
              "components": [
                {
                  "internalType": "uint256",
                  "name": "blockNumber",
                  "type": "uint256"
                },
                {
                  "internalType": "uint256",
                  "name": "sourceChainSelector",
                  "type": "uint256"
                },
                {
                  "components": [
                    {
                      "internalType": "bytes32",
                      "name": "lower",
                      "type": "bytes32"
                    },
                    {
                      "internalType": "bytes32",
                      "name": "upper",
                      "type": "bytes32"
                    }
                  ],
                  "internalType": "struct bytes64",
                  "name": "sender",
                  "type": "tuple"
                },
                {
                  "internalType": "uint256",
                  "name": "destinationChainSelector",
                  "type": "uint256"
                },
                {
                  "components": [
                    {
                      "internalType": "bytes32",
                      "name": "lower",
                      "type": "bytes32"
                    },
                    {
                      "internalType": "bytes32",
                      "name": "upper",
                      "type": "bytes32"
                    }
                  ],
                  "internalType": "struct bytes64",
                  "name": "receiver",
                  "type": "tuple"
                },
                {
                  "internalType": "bytes32",
                  "name": "hashedData",
                  "type": "bytes32"
                }
              ],
              "internalType": "struct EquitoMessage",
              "name": "message",
              "type": "tuple"
            },
            {
              "internalType": "bytes",
              "name": "messageData",
              "type": "bytes"
            }
          ],
          "name": "receiveMessage",
          "outputs": [],
          "stateMutability": "payable",
          "type": "function"
        },
        {
          "inputs": [],
          "name": "renounceOwnership",
          "outputs": [],
          "stateMutability": "nonpayable",
          "type": "function"
        },
        {
          "inputs": [
            {
              "internalType": "bytes32",
              "name": "role",
              "type": "bytes32"
            },
            {
              "internalType": "address",
              "name": "callerConfirmation",
              "type": "address"
            }
          ],
          "name": "renounceRole",
          "outputs": [],
          "stateMutability": "nonpayable",
          "type": "function"
        },
        {
          "inputs": [
            {
              "internalType": "bytes32",
              "name": "role",
              "type": "bytes32"
            },
            {
              "internalType": "address",
              "name": "account",
              "type": "address"
            }
          ],
          "name": "revokeRole",
          "outputs": [],
          "stateMutability": "nonpayable",
          "type": "function"
        },
        {
          "inputs": [
            {
              "internalType": "uint256[]",
              "name": "chainSelectors",
              "type": "uint256[]"
            },
            {
              "components": [
                {
                  "internalType": "bytes32",
                  "name": "lower",
                  "type": "bytes32"
                },
                {
                  "internalType": "bytes32",
                  "name": "upper",
                  "type": "bytes32"
                }
              ],
              "internalType": "struct bytes64[]",
              "name": "addresses",
              "type": "tuple[]"
            }
          ],
          "name": "setPeers",
          "outputs": [],
          "stateMutability": "nonpayable",
          "type": "function"
        },
        {
          "inputs": [
            {
              "internalType": "bytes4",
              "name": "interfaceId",
              "type": "bytes4"
            }
          ],
          "name": "supportsInterface",
          "outputs": [
            {
              "internalType": "bool",
              "name": "",
              "type": "bool"
            }
          ],
          "stateMutability": "view",
          "type": "function"
        },
        {
          "inputs": [
            {
              "internalType": "address",
              "name": "tokenOut",
              "type": "address"
            },
            {
              "internalType": "uint256",
              "name": "amountOutMin",
              "type": "uint256"
            },
            {
              "internalType": "uint256",
              "name": "destinationChainSelector",
              "type": "uint256"
            }
          ],
          "name": "swapETHToTokens",
          "outputs": [],
          "stateMutability": "payable",
          "type": "function"
        },
        {
          "inputs": [
            {
              "internalType": "address",
              "name": "tokenIn",
              "type": "address"
            },
            {
              "internalType": "uint256",
              "name": "amountIn",
              "type": "uint256"
            },
            {
              "internalType": "uint256",
              "name": "amountOutMin",
              "type": "uint256"
            },
            {
              "internalType": "uint256",
              "name": "destinationChainSelector",
              "type": "uint256"
            }
          ],
          "name": "swapTokensToETH",
          "outputs": [],
          "stateMutability": "payable",
          "type": "function"
        },
        {
          "inputs": [
            {
              "internalType": "address",
              "name": "tokenIn",
              "type": "address"
            },
            {
              "internalType": "uint256",
              "name": "amountIn",
              "type": "uint256"
            },
            {
              "internalType": "address",
              "name": "tokenOut",
              "type": "address"
            },
            {
              "internalType": "uint256",
              "name": "amountOutMin",
              "type": "uint256"
            },
            {
              "internalType": "uint256",
              "name": "destinationChainSelector",
              "type": "uint256"
            }
          ],
          "name": "swapTokensToTokens",
          "outputs": [],
          "stateMutability": "payable",
          "type": "function"
        },
        {
          "inputs": [
            {
              "internalType": "address",
              "name": "value",
              "type": "address"
            }
          ],
          "name": "toBase64",
          "outputs": [
            {
              "components": [
                {
                  "internalType": "bytes32",
                  "name": "lower",
                  "type": "bytes32"
                },
                {
                  "internalType": "bytes32",
                  "name": "upper",
                  "type": "bytes32"
                }
              ],
              "internalType": "struct bytes64",
              "name": "",
              "type": "tuple"
            }
          ],
          "stateMutability": "pure",
          "type": "function"
        },
        {
          "inputs": [
            {
              "internalType": "address",
              "name": "newOwner",
              "type": "address"
            }
          ],
          "name": "transferOwnership",
          "outputs": [],
          "stateMutability": "nonpayable",
          "type": "function"
        },
        {
          "inputs": [],
          "name": "unPause",
          "outputs": [],
          "stateMutability": "nonpayable",
          "type": "function"
        },
        {
          "inputs": [
            {
              "internalType": "address",
              "name": "newExecutor",
              "type": "address"
            }
          ],
          "name": "updateExecutor",
          "outputs": [],
          "stateMutability": "nonpayable",
          "type": "function"
        },
        {
          "inputs": [
            {
              "internalType": "address",
              "name": "newFactory",
              "type": "address"
            }
          ],
          "name": "updateFactory",
          "outputs": [],
          "stateMutability": "nonpayable",
          "type": "function"
        },
        {
          "stateMutability": "payable",
          "type": "receive"
        }
      ],
      "evm": {
        "bytecode": {
          "linkReferences": {
            "contracts/src/lib/HoneyFeeMath.sol": {
              "HoneyFeeMath": [
                {
                  "length": 20,
                  "start": 3131
                }
              ]
            }
          },
          "object": "60a0346200016d57601f62001e2f38819003918201601f19168301916001600160401b0383118484101762000172578084926060946040528339810103126200016d576200004d8162000188565b906200006a6040620000626020840162000188565b920162000188565b91600154331562000154576001600160a81b0319811633600881811b610100600160a81b0316929092176001556040516001600160a01b0395909386939192911c83167f8be0079c531659141344cd1fd0a4f28419497f9722a3daafe3b4186f6b6457e0600080a3169081156200014557506080528160018060a01b031993168360035416176003551690600454161760045562000108336200019d565b50604051611c0090816200022f823960805181818161040e015281816106ff0152818161084d01528181610f010152818161113801526118b00152f35b635008268360e01b8152600490fd5b604051631e4fbdf760e01b815260006004820152602490fd5b600080fd5b634e487b7160e01b600052604160045260246000fd5b51906001600160a01b03821682036200016d57565b6001600160a01b031660008181527fad3228b676f7d3cd4284a5443f17f1962b36e491b30a40b2405849e597ba5fb5602052604081205490919060ff166200022a57818052816020526040822081835260205260408220600160ff1982541617905533917f2f8788117e7eff1d82e926ec794901d17c78024a50270940304540a733656f0d8180a4600190565b509056fe60806040818152600480361015610021575b505050361561001f57600080fd5b005b600092833560e01c90816301ffc9a71461144d57508063248a9ca3146114245780632d2c5565146113fc5780632f2ff15d146113d357806336568abe14611373578381634cbb4505146110955750806359a1aae114610f7d5780635c42132e14610ecd5780635c975abb14610ea957806361ee103114610d1157806367ebb6b214610c65578063715018a614610bf957806374936c1614610bad5780638456cb5914610b53578063879d182d146107f05780638da5cb5b146107c557806391d1485414610780578063a1e8320914610637578063a217fddf1461061c578063a4c021e9146103e2578063be4f3e8f146103b1578063d547741f14610373578063d9f165dc14610324578063ef88e0e11461029c578063f2fde38b146101cf5763f7b188a50361001157346101cb57826003193601126101cb5761016261163f565b6001549060ff8216156101a4575060ff1916600155513381527f5db9ee0a495bf2e6ff9c91a7834c1ba4fdd244a5e8aa4e537bd38aeae4b073aa90602090a180f35b82517f8dfc202b000000000000000000000000000000000000000000000000000000008152fd5b8280fd5b50346101cb5760203660031901126101cb576101e9611502565b6101f16119c6565b6001600160a01b039182821693841561026d57505074ffffffffffffffffffffffffffffffffffffffff006001549160081b1674ffffffffffffffffffffffffffffffffffffffff001982161760015560081c167f8be0079c531659141344cd1fd0a4f28419497f9722a3daafe3b4186f6b6457e0600080a380f35b908560249251917f1e4fbdf7000000000000000000000000000000000000000000000000000000008352820152fd5b505034610320576020366003190112610320579061031c916102bc611502565b916000602083516102cc81611576565b82815201526000602083516102e081611576565b82815201526001600160a01b038251936102f985611576565b168352602083015251918291829190916020806040830194805184520151910152565b0390f35b5080fd5b8334610370576020366003190112610370576001600160a01b03610346611502565b61034e61163f565b1673ffffffffffffffffffffffffffffffffffffffff19600554161760055580f35b80fd5b5090346101cb57806003193601126101cb576103ad91356103a860016103976114ec565b9383875286602052862001546116b0565b611755565b5080f35b50346101cb5760203660031901126101cb579181923581526002602052206001815491015482519182526020820152f35b5060603660031901126101cb576103f7611502565b6044356104026117cb565b6001600160a01b0393847f0000000000000000000000000000000000000000000000000000000000000000168151634e4bc84760e01b80825260209182818981875afa90811561056a579086918b916105eb575b50036105745734965b8289600654169960648751809b81937fd219d1f30000000000000000000000000000000000000000000000000000000083528c169d8e8784015260243560248401523060448401525af197881561056a578a98610539575b5090829185518095819382525afa92831561053057509083929188926104fa575b5050036104ef5750506104ec913390611a21565b80f35b6104ec93503361186d565b8193508092503d8311610529575b61051281836115a8565b810103126105245781905138806104d8565b600080fd5b503d610508565b513d89823e3d90fd5b919097508282813d8311610563575b61055281836115a8565b8101031261052457905196826104b7565b503d610548565b85513d8c823e3d90fd5b8351631711922960e31b815230888201528281602481875afa90811561056a578a916105be575b5034033481116105ab579661045f565b60248a60118a634e487b7160e01b835252fd5b90508281813d83116105e4575b6105d581836115a8565b8101031261052457513861059b565b503d6105cb565b809250848092503d8311610615575b61060481836115a8565b810103126105245785905138610456565b503d6105fa565b50503461032057816003193601126103205751908152602090f35b509060a03660031901126101cb5761064d611502565b906024359261065a611518565b91608435916106676117cb565b866001600160a01b0380961695610684888260065416338a611801565b8060065416978451977ffc7a6a230000000000000000000000000000000000000000000000000000000089528489015260248801528086169788604489015260643560648901523060848901528760a48160209586945af1968715610776578997610747575b508190845193848092634e4bc84760e01b82527f0000000000000000000000000000000000000000000000000000000000000000165afa92831561053057509083929188926104fa575050036104ef5750506104ec913390611a21565b9096508181813d831161076f575b61075f81836115a8565b81010312610524575195816106ea565b503d610755565b84513d8b823e3d90fd5b50346101cb57816003193601126101cb576001600160a01b03826020946107a56114ec565b93358152808652209116600052825260ff81600020541690519015158152f35b5050346103205781600319360112610320576020906001600160a01b0360015460081c169051908152f35b50913660031901610120811261032057610100136103705767ffffffffffffffff610104358181116101cb57366023820112156101cb5780850135828111610b4f576024908201923682850111610b4b576001600160a01b0391827f0000000000000000000000000000000000000000000000000000000000000000163303610b1f5780359081875260209560028752868989208a5161088f81611576565b6001825492838352015492839101526044351490811591610b12575b50156108d9578989517f7fee69a1000000000000000000000000000000000000000000000000000000008152fd5b906060868b939a999a0312610b0e5761095c93876108f8838901611a0d565b94606461090760448b01611a0d565b990135958880875416918d51998a94859384937fb464631b000000000000000000000000000000000000000000000000000000008552168a8401602090939291936001600160a01b0360408201951681520152565b03915afa948515610b04578a95610ac9575b50856005541690813b15610ac5578a8a5180937fc1bf9e580000000000000000000000000000000000000000000000000000000082528183816109ca8b8d8c8401602090939291936001600160a01b0360408201951681520152565b03925af18015610abb57610a96575b505090879182519384927fdbceb0050000000000000000000000000000000000000000000000000000000084528301528173__$cee652c4e9f55bc124e1380243e2f45138$__5af4948515610a8c5787968896610a51575b5050506104ec948280610a479316941684611a21565b6003541690611a21565b91965091945085813d8111610a85575b610a6b81836115a8565b81010312610a8157845194015192848280610a31565b8580fd5b503d610a61565b86513d89823e3d90fd5b819a929a11610aa957885297878a6109d9565b5060418992634e487b7160e01b835252fd5b8a513d8d823e3d90fd5b8a80fd5b9094508781813d8311610afd575b610ae181836115a8565b81010312610af957610af2906115ca565b938a61096e565b8980fd5b503d610ad7565b89513d8c823e3d90fd5b8880fd5b90506064351415386108ab565b86517fd7f7333400000000000000000000000000000000000000000000000000000000815233818a0152fd5b8480fd5b8380fd5b50503461032057816003193601126103205760207f62e78cea01bee320cd4e420270b5ea74000d11b0c9f74754ebdbfc544b05a25891610b9161163f565b610b996117cb565b600160ff198154161760015551338152a180f35b8334610370576020366003190112610370576001600160a01b03610bcf611502565b610bd761163f565b1673ffffffffffffffffffffffffffffffffffffffff19600654161760065580f35b8334610370578060031936011261037057610c126119c6565b806001600160a01b0360015474ffffffffffffffffffffffffffffffffffffffff0019811660015560081c167f8be0079c531659141344cd1fd0a4f28419497f9722a3daafe3b4186f6b6457e08280a380f35b5082903461032057602036600319011261032057828135928060208351610c8b81611576565b828152015283815260026020522091835192610ca684611576565b6001815491828652015490816020860152159081610d08575b50610cd95783518351815260208085015190820152604090f35b602492508351917f78d0dbfc000000000000000000000000000000000000000000000000000000008352820152fd5b90501585610cbf565b50919034610320576060806003193601126101cb57610d2e6114ec565b90610d37611518565b9284815193610d4585611576565b8385528360208096015260646001600160a01b039889978880600654169187519c8d9687957f61ee10310000000000000000000000000000000000000000000000000000000087528035908701521660248501521660448301525afa938415610e9f578580978196610df4575b5050918161031c959493610de0935198899889521684880152818188015284519187015260a0860190611551565b910151838203605f19016080850152611551565b9650965093503d8087873e610e0981876115a8565b85018286820312610e9b57855190610e228588016115ca565b968381015167ffffffffffffffff91828211610ac557018481840312610af957845199610e4e8b611576565b81518381116103205784610e639184016115fa565b8b52878201519283116103705750610de0949261031c9897969492610e8892016115fa565b858a015296979581935094919394610db2565b8680fd5b81513d87823e3d90fd5b50503461032057816003193601126103205760209060ff6001541690519015158152f35b5090346101cb57826003193601126101cb57805191631711922960e31b835230908301526020826024816001600160a01b037f0000000000000000000000000000000000000000000000000000000000000000165afa918215610f73578392610f3b575b6020838351908152f35b9091506020813d602011610f6b575b81610f57602093836115a8565b810103126101cb5760209250519038610f31565b3d9150610f4a565b81513d85823e3d90fd5b5090346101cb57806003193601126101cb5781359167ffffffffffffffff808411610b4b5736602385011215610b4b578382013592818411610a815760249260059236858760051b8901011161109157843591818311610b0e5736602384011215610b0e5782810135918211610b0e5760069136878260061b86010111610af9576110066119c6565b61100e6119c6565b80880361106957895b888110611022578a80f35b818110156110575780871b8a018801358b526002602052858b2081851b86018981013582556044013560019182015501611017565b878b603285634e487b7160e01b835252fd5b5083517f947d5a84000000000000000000000000000000000000000000000000000000008152fd5b8780fd5b919050608036600319011261032057816110ad611502565b60243592606435916110bd6117cb565b6001600160a01b03809116946110d98183600654163389611801565b8160065416908851967f95eb087000000000000000000000000000000000000000000000000000000000885284880152602487015260443560448701523060648701528560848160209788945af194851561136957869561133a575b507f0000000000000000000000000000000000000000000000000000000000000000168651634e4bc84760e01b815284818481855afa801561133057849188916112ff575b50036111af5750505050818080928181156111a6575b3390f11561119c575080f35b51903d90823e3d90fd5b506108fc611190565b91945091949283519073eeeeeeeeeeeeeeeeeeeeeeeeeeeeeeeeeeeeeeee8783015233858301526060820152606081526080810181811067ffffffffffffffff8211176112ec57808552631711922960e31b81523060848301528681602481865afa9081156112e257908793929189916112b0575b5060019394878a526002865261126d878b20938851998a978896879563dc20313760e01b8752815490870152015460248501526044840152608060648401526084830190611551565b03925af19081156112a7575061128257505080f35b813d83116112a0575b61129581836115a8565b810103126103705780f35b503d61128b565b513d85823e3d90fd5b93905081813d83116112db575b6112c781876115a8565b810103126110915791518692906001611224565b503d6112bd565b85513d8a823e3d90fd5b602488604186634e487b7160e01b835252fd5b809250868092503d8311611329575b61131881836115a8565b81010312610e9b578390513861117a565b503d61130e565b88513d89823e3d90fd5b9094508381813d8311611362575b61135281836115a8565b81010312610a8157519338611135565b503d611348565b87513d88823e3d90fd5b5091903461032057806003193601126103205761138e6114ec565b90336001600160a01b038316036113ab57506103ad919235611755565b8390517f6697b232000000000000000000000000000000000000000000000000000000008152fd5b5090346101cb57806003193601126101cb576103ad91356113f760016103976114ec565b6116d6565b5050346103205781600319360112610320576020906001600160a01b03600354169051908152f35b50346101cb5760203660031901126101cb57816020936001923581528085522001549051908152f35b925050346101cb5760203660031901126101cb57357fffffffff0000000000000000000000000000000000000000000000000000000081168091036101cb57602092507f7965db0b0000000000000000000000000000000000000000000000000000000081149081156114c2575b5015158152f35b7f01ffc9a700000000000000000000000000000000000000000000000000000000915014386114bb565b602435906001600160a01b038216820361052457565b600435906001600160a01b038216820361052457565b604435906001600160a01b038216820361052457565b60005b8381106115415750506000910152565b8181015183820152602001611531565b9060209161156a8151809281855285808601910161152e565b601f01601f1916010190565b6040810190811067ffffffffffffffff82111761159257604052565b634e487b7160e01b600052604160045260246000fd5b90601f8019910116810190811067ffffffffffffffff82111761159257604052565b51906001600160a01b038216820361052457565b67ffffffffffffffff811161159257601f01601f191660200190565b81601f82011215610524578051611610816115de565b9261161e60405194856115a8565b818452602082840101116105245761163c916020808501910161152e565b90565b3360009081527fad3228b676f7d3cd4284a5443f17f1962b36e491b30a40b2405849e597ba5fb5602052604081205460ff16156116795750565b604490604051907fe2517d3f0000000000000000000000000000000000000000000000000000000082523360048301526024820152fd5b80600052600060205260406000203360005260205260ff60406000205416156116795750565b90600091808352826020526001600160a01b036040842092169182845260205260ff6040842054161560001461175057808352826020526040832082845260205260408320600160ff198254161790557f2f8788117e7eff1d82e926ec794901d17c78024a50270940304540a733656f0d339380a4600190565b505090565b90600091808352826020526001600160a01b036040842092169182845260205260ff6040842054166000146117505780835282602052604083208284526020526040832060ff1981541690557ff6391f5c32d9c69d2a47ea670b442974b53935d1edc7fd64eb21e047a839171b339380a4600190565b60ff600154166117d757565b60046040517fd93c0665000000000000000000000000000000000000000000000000000000008152fd5b6040517f23b872dd0000000000000000000000000000000000000000000000000000000060208201526001600160a01b039283166024820152929091166044830152606482019290925261186b9161186682608481015b03601f1981018452836115a8565b611a73565b565b604080516001600160a01b03948516602080830191909152929094168482015260608085019590955293835292906118a66080846115a8565b6001600160a01b037f0000000000000000000000000000000000000000000000000000000000000000168251631711922960e31b81523060048201528581602481855afa9081156119bb57908693929160009161198a575b5060019083600052600285528560002061194887519889968795869463dc20313760e01b865280546004870152015460248501526044840152608060648401526084830190611551565b03925af1908115611980575061195c575050565b813d8311611979575b61196f81836115a8565b8101031261052457565b503d611965565b513d6000823e3d90fd5b84819592503d83116119b4575b6119a181836115a8565b81010312610524576001869351906118fe565b503d611997565b84513d6000823e3d90fd5b6001600160a01b0360015460081c1633036119dd57565b60246040517f118cdaa7000000000000000000000000000000000000000000000000000000008152336004820152fd5b35906001600160a01b038216820361052457565b6040517fa9059cbb0000000000000000000000000000000000000000000000000000000060208201526001600160a01b039092166024830152604482019290925261186b916118668260648101611858565b6001600160a01b031690611abe600080836020829551910182875af13d15611b2f573d90611aa0826115de565b91611aae60405193846115a8565b82523d84602084013e5b84611b37565b908151918215159283611b07575b505050611ad65750565b602490604051907f5274afe70000000000000000000000000000000000000000000000000000000082526004820152fd5b8192935090602091810103126103205760200151908115918215036103705750388080611acc565b606090611ab8565b90611b765750805115611b4c57805190602001fd5b60046040517f1425ea42000000000000000000000000000000000000000000000000000000008152fd5b81511580611bc1575b611b87575090565b6024906001600160a01b03604051917f9996b315000000000000000000000000000000000000000000000000000000008352166004820152fd5b50803b15611b7f56fea26469706673582212200a2b3184b8e483405bb980b6722f852981a3ecc5fcd210770d72cd5de38bdfeb64736f6c63430008180033",
          "opcodes": "PUSH1 0xA0 CALLVALUE PUSH3 0x16D JUMPI PUSH1 0x1F PUSH3 0x1E2F CODESIZE DUP2 SWAP1 SUB SWAP2 DUP3 ADD PUSH1 0x1F NOT AND DUP4 ADD SWAP2 PUSH1 0x1 PUSH1 0x1 PUSH1 0x40 SHL SUB DUP4 GT DUP5 DUP5 LT OR PUSH3 0x172 JUMPI DUP1 DUP5 SWAP3 PUSH1 0x60 SWAP5 PUSH1 0x40 MSTORE DUP4 CODECOPY DUP2 ADD SUB SLT PUSH3 0x16D JUMPI PUSH3 0x4D DUP2 PUSH3 0x188 JUMP JUMPDEST SWAP1 PUSH3 0x6A PUSH1 0x40 PUSH3 0x62 PUSH1 0x20 DUP5 ADD PUSH3 0x188 JUMP JUMPDEST SWAP3 ADD PUSH3 0x188 JUMP JUMPDEST SWAP2 PUSH1 0x1 SLOAD CALLER ISZERO PUSH3 0x154 JUMPI PUSH1 0x1 PUSH1 0x1 PUSH1 0xA8 SHL SUB NOT DUP2 AND CALLER PUSH1 0x8 DUP2 DUP2 SHL PUSH2 0x100 PUSH1 0x1 PUSH1 0xA8 SHL SUB AND SWAP3 SWAP1 SWAP3 OR PUSH1 0x1 SSTORE PUSH1 0x40 MLOAD PUSH1 0x1 PUSH1 0x1 PUSH1 0xA0 SHL SUB SWAP6 SWAP1 SWAP4 DUP7 SWAP4 SWAP2 SWAP3 SWAP2 SHR DUP4 AND PUSH32 0x8BE0079C531659141344CD1FD0A4F28419497F9722A3DAAFE3B4186F6B6457E0 PUSH1 0x0 DUP1 LOG3 AND SWAP1 DUP2 ISZERO PUSH3 0x145 JUMPI POP PUSH1 0x80 MSTORE DUP2 PUSH1 0x1 DUP1 PUSH1 0xA0 SHL SUB NOT SWAP4 AND DUP4 PUSH1 0x3 SLOAD AND OR PUSH1 0x3 SSTORE AND SWAP1 PUSH1 0x4 SLOAD AND OR PUSH1 0x4 SSTORE PUSH3 0x108 CALLER PUSH3 0x19D JUMP JUMPDEST POP PUSH1 0x40 MLOAD PUSH2 0x1C00 SWAP1 DUP2 PUSH3 0x22F DUP3 CODECOPY PUSH1 0x80 MLOAD DUP2 DUP2 DUP2 PUSH2 0x40E ADD MSTORE DUP2 DUP2 PUSH2 0x6FF ADD MSTORE DUP2 DUP2 PUSH2 0x84D ADD MSTORE DUP2 DUP2 PUSH2 0xF01 ADD MSTORE DUP2 DUP2 PUSH2 0x1138 ADD MSTORE PUSH2 0x18B0 ADD MSTORE RETURN JUMPDEST PUSH4 0x50082683 PUSH1 0xE0 SHL DUP2 MSTORE PUSH1 0x4 SWAP1 REVERT JUMPDEST PUSH1 0x40 MLOAD PUSH4 0x1E4FBDF7 PUSH1 0xE0 SHL DUP2 MSTORE PUSH1 0x0 PUSH1 0x4 DUP3 ADD MSTORE PUSH1 0x24 SWAP1 REVERT JUMPDEST PUSH1 0x0 DUP1 REVERT JUMPDEST PUSH4 0x4E487B71 PUSH1 0xE0 SHL PUSH1 0x0 MSTORE PUSH1 0x41 PUSH1 0x4 MSTORE PUSH1 0x24 PUSH1 0x0 REVERT JUMPDEST MLOAD SWAP1 PUSH1 0x1 PUSH1 0x1 PUSH1 0xA0 SHL SUB DUP3 AND DUP3 SUB PUSH3 0x16D JUMPI JUMP JUMPDEST PUSH1 0x1 PUSH1 0x1 PUSH1 0xA0 SHL SUB AND PUSH1 0x0 DUP2 DUP2 MSTORE PUSH32 0xAD3228B676F7D3CD4284A5443F17F1962B36E491B30A40B2405849E597BA5FB5 PUSH1 0x20 MSTORE PUSH1 0x40 DUP2 KECCAK256 SLOAD SWAP1 SWAP2 SWAP1 PUSH1 0xFF AND PUSH3 0x22A JUMPI DUP2 DUP1 MSTORE DUP2 PUSH1 0x20 MSTORE PUSH1 0x40 DUP3 KECCAK256 DUP2 DUP4 MSTORE PUSH1 0x20 MSTORE PUSH1 0x40 DUP3 KECCAK256 PUSH1 0x1 PUSH1 0xFF NOT DUP3 SLOAD AND OR SWAP1 SSTORE CALLER SWAP2 PUSH32 0x2F8788117E7EFF1D82E926EC794901D17C78024A50270940304540A733656F0D DUP2 DUP1 LOG4 PUSH1 0x1 SWAP1 JUMP JUMPDEST POP SWAP1 JUMP INVALID PUSH1 0x80 PUSH1 0x40 DUP2 DUP2 MSTORE PUSH1 0x4 DUP1 CALLDATASIZE LT ISZERO PUSH2 0x21 JUMPI JUMPDEST POP POP POP CALLDATASIZE ISZERO PUSH2 0x1F JUMPI PUSH1 0x0 DUP1 REVERT JUMPDEST STOP JUMPDEST PUSH1 0x0 SWAP3 DUP4 CALLDATALOAD PUSH1 0xE0 SHR SWAP1 DUP2 PUSH4 0x1FFC9A7 EQ PUSH2 0x144D JUMPI POP DUP1 PUSH4 0x248A9CA3 EQ PUSH2 0x1424 JUMPI DUP1 PUSH4 0x2D2C5565 EQ PUSH2 0x13FC JUMPI DUP1 PUSH4 0x2F2FF15D EQ PUSH2 0x13D3 JUMPI DUP1 PUSH4 0x36568ABE EQ PUSH2 0x1373 JUMPI DUP4 DUP2 PUSH4 0x4CBB4505 EQ PUSH2 0x1095 JUMPI POP DUP1 PUSH4 0x59A1AAE1 EQ PUSH2 0xF7D JUMPI DUP1 PUSH4 0x5C42132E EQ PUSH2 0xECD JUMPI DUP1 PUSH4 0x5C975ABB EQ PUSH2 0xEA9 JUMPI DUP1 PUSH4 0x61EE1031 EQ PUSH2 0xD11 JUMPI DUP1 PUSH4 0x67EBB6B2 EQ PUSH2 0xC65 JUMPI DUP1 PUSH4 0x715018A6 EQ PUSH2 0xBF9 JUMPI DUP1 PUSH4 0x74936C16 EQ PUSH2 0xBAD JUMPI DUP1 PUSH4 0x8456CB59 EQ PUSH2 0xB53 JUMPI DUP1 PUSH4 0x879D182D EQ PUSH2 0x7F0 JUMPI DUP1 PUSH4 0x8DA5CB5B EQ PUSH2 0x7C5 JUMPI DUP1 PUSH4 0x91D14854 EQ PUSH2 0x780 JUMPI DUP1 PUSH4 0xA1E83209 EQ PUSH2 0x637 JUMPI DUP1 PUSH4 0xA217FDDF EQ PUSH2 0x61C JUMPI DUP1 PUSH4 0xA4C021E9 EQ PUSH2 0x3E2 JUMPI DUP1 PUSH4 0xBE4F3E8F EQ PUSH2 0x3B1 JUMPI DUP1 PUSH4 0xD547741F EQ PUSH2 0x373 JUMPI DUP1 PUSH4 0xD9F165DC EQ PUSH2 0x324 JUMPI DUP1 PUSH4 0xEF88E0E1 EQ PUSH2 0x29C JUMPI DUP1 PUSH4 0xF2FDE38B EQ PUSH2 0x1CF JUMPI PUSH4 0xF7B188A5 SUB PUSH2 0x11 JUMPI CALLVALUE PUSH2 0x1CB JUMPI DUP3 PUSH1 0x3 NOT CALLDATASIZE ADD SLT PUSH2 0x1CB JUMPI PUSH2 0x162 PUSH2 0x163F JUMP JUMPDEST PUSH1 0x1 SLOAD SWAP1 PUSH1 0xFF DUP3 AND ISZERO PUSH2 0x1A4 JUMPI POP PUSH1 0xFF NOT AND PUSH1 0x1 SSTORE MLOAD CALLER DUP2 MSTORE PUSH32 0x5DB9EE0A495BF2E6FF9C91A7834C1BA4FDD244A5E8AA4E537BD38AEAE4B073AA SWAP1 PUSH1 0x20 SWAP1 LOG1 DUP1 RETURN JUMPDEST DUP3 MLOAD PUSH32 0x8DFC202B00000000000000000000000000000000000000000000000000000000 DUP2 MSTORE REVERT JUMPDEST DUP3 DUP1 REVERT JUMPDEST POP CALLVALUE PUSH2 0x1CB JUMPI PUSH1 0x20 CALLDATASIZE PUSH1 0x3 NOT ADD SLT PUSH2 0x1CB JUMPI PUSH2 0x1E9 PUSH2 0x1502 JUMP JUMPDEST PUSH2 0x1F1 PUSH2 0x19C6 JUMP JUMPDEST PUSH1 0x1 PUSH1 0x1 PUSH1 0xA0 SHL SUB SWAP2 DUP3 DUP3 AND SWAP4 DUP5 ISZERO PUSH2 0x26D JUMPI POP POP PUSH21 0xFFFFFFFFFFFFFFFFFFFFFFFFFFFFFFFFFFFFFFFF00 PUSH1 0x1 SLOAD SWAP2 PUSH1 0x8 SHL AND PUSH21 0xFFFFFFFFFFFFFFFFFFFFFFFFFFFFFFFFFFFFFFFF00 NOT DUP3 AND OR PUSH1 0x1 SSTORE PUSH1 0x8 SHR AND PUSH32 0x8BE0079C531659141344CD1FD0A4F28419497F9722A3DAAFE3B4186F6B6457E0 PUSH1 0x0 DUP1 LOG3 DUP1 RETURN JUMPDEST SWAP1 DUP6 PUSH1 0x24 SWAP3 MLOAD SWAP2 PUSH32 0x1E4FBDF700000000000000000000000000000000000000000000000000000000 DUP4 MSTORE DUP3 ADD MSTORE REVERT JUMPDEST POP POP CALLVALUE PUSH2 0x320 JUMPI PUSH1 0x20 CALLDATASIZE PUSH1 0x3 NOT ADD SLT PUSH2 0x320 JUMPI SWAP1 PUSH2 0x31C SWAP2 PUSH2 0x2BC PUSH2 0x1502 JUMP JUMPDEST SWAP2 PUSH1 0x0 PUSH1 0x20 DUP4 MLOAD PUSH2 0x2CC DUP2 PUSH2 0x1576 JUMP JUMPDEST DUP3 DUP2 MSTORE ADD MSTORE PUSH1 0x0 PUSH1 0x20 DUP4 MLOAD PUSH2 0x2E0 DUP2 PUSH2 0x1576 JUMP JUMPDEST DUP3 DUP2 MSTORE ADD MSTORE PUSH1 0x1 PUSH1 0x1 PUSH1 0xA0 SHL SUB DUP3 MLOAD SWAP4 PUSH2 0x2F9 DUP6 PUSH2 0x1576 JUMP JUMPDEST AND DUP4 MSTORE PUSH1 0x20 DUP4 ADD MSTORE MLOAD SWAP2 DUP3 SWAP2 DUP3 SWAP2 SWAP1 SWAP2 PUSH1 0x20 DUP1 PUSH1 0x40 DUP4 ADD SWAP5 DUP1 MLOAD DUP5 MSTORE ADD MLOAD SWAP2 ADD MSTORE JUMP JUMPDEST SUB SWAP1 RETURN JUMPDEST POP DUP1 REVERT JUMPDEST DUP4 CALLVALUE PUSH2 0x370 JUMPI PUSH1 0x20 CALLDATASIZE PUSH1 0x3 NOT ADD SLT PUSH2 0x370 JUMPI PUSH1 0x1 PUSH1 0x1 PUSH1 0xA0 SHL SUB PUSH2 0x346 PUSH2 0x1502 JUMP JUMPDEST PUSH2 0x34E PUSH2 0x163F JUMP JUMPDEST AND PUSH20 0xFFFFFFFFFFFFFFFFFFFFFFFFFFFFFFFFFFFFFFFF NOT PUSH1 0x5 SLOAD AND OR PUSH1 0x5 SSTORE DUP1 RETURN JUMPDEST DUP1 REVERT JUMPDEST POP SWAP1 CALLVALUE PUSH2 0x1CB JUMPI DUP1 PUSH1 0x3 NOT CALLDATASIZE ADD SLT PUSH2 0x1CB JUMPI PUSH2 0x3AD SWAP2 CALLDATALOAD PUSH2 0x3A8 PUSH1 0x1 PUSH2 0x397 PUSH2 0x14EC JUMP JUMPDEST SWAP4 DUP4 DUP8 MSTORE DUP7 PUSH1 0x20 MSTORE DUP7 KECCAK256 ADD SLOAD PUSH2 0x16B0 JUMP JUMPDEST PUSH2 0x1755 JUMP JUMPDEST POP DUP1 RETURN JUMPDEST POP CALLVALUE PUSH2 0x1CB JUMPI PUSH1 0x20 CALLDATASIZE PUSH1 0x3 NOT ADD SLT PUSH2 0x1CB JUMPI SWAP2 DUP2 SWAP3 CALLDATALOAD DUP2 MSTORE PUSH1 0x2 PUSH1 0x20 MSTORE KECCAK256 PUSH1 0x1 DUP2 SLOAD SWAP2 ADD SLOAD DUP3 MLOAD SWAP2 DUP3 MSTORE PUSH1 0x20 DUP3 ADD MSTORE RETURN JUMPDEST POP PUSH1 0x60 CALLDATASIZE PUSH1 0x3 NOT ADD SLT PUSH2 0x1CB JUMPI PUSH2 0x3F7 PUSH2 0x1502 JUMP JUMPDEST PUSH1 0x44 CALLDATALOAD PUSH2 0x402 PUSH2 0x17CB JUMP JUMPDEST PUSH1 0x1 PUSH1 0x1 PUSH1 0xA0 SHL SUB SWAP4 DUP5 PUSH32 0x0 AND DUP2 MLOAD PUSH4 0x4E4BC847 PUSH1 0xE0 SHL DUP1 DUP3 MSTORE PUSH1 0x20 SWAP2 DUP3 DUP2 DUP10 DUP2 DUP8 GAS STATICCALL SWAP1 DUP2 ISZERO PUSH2 0x56A JUMPI SWAP1 DUP7 SWAP2 DUP12 SWAP2 PUSH2 0x5EB JUMPI JUMPDEST POP SUB PUSH2 0x574 JUMPI CALLVALUE SWAP7 JUMPDEST DUP3 DUP10 PUSH1 0x6 SLOAD AND SWAP10 PUSH1 0x64 DUP8 MLOAD DUP1 SWAP12 DUP2 SWAP4 PUSH32 0xD219D1F300000000000000000000000000000000000000000000000000000000 DUP4 MSTORE DUP13 AND SWAP14 DUP15 DUP8 DUP5 ADD MSTORE PUSH1 0x24 CALLDATALOAD PUSH1 0x24 DUP5 ADD MSTORE ADDRESS PUSH1 0x44 DUP5 ADD MSTORE GAS CALL SWAP8 DUP9 ISZERO PUSH2 0x56A JUMPI DUP11 SWAP9 PUSH2 0x539 JUMPI JUMPDEST POP SWAP1 DUP3 SWAP2 DUP6 MLOAD DUP1 SWAP6 DUP2 SWAP4 DUP3 MSTORE GAS STATICCALL SWAP3 DUP4 ISZERO PUSH2 0x530 JUMPI POP SWAP1 DUP4 SWAP3 SWAP2 DUP9 SWAP3 PUSH2 0x4FA JUMPI JUMPDEST POP POP SUB PUSH2 0x4EF JUMPI POP POP PUSH2 0x4EC SWAP2 CALLER SWAP1 PUSH2 0x1A21 JUMP JUMPDEST DUP1 RETURN JUMPDEST PUSH2 0x4EC SWAP4 POP CALLER PUSH2 0x186D JUMP JUMPDEST DUP2 SWAP4 POP DUP1 SWAP3 POP RETURNDATASIZE DUP4 GT PUSH2 0x529 JUMPI JUMPDEST PUSH2 0x512 DUP2 DUP4 PUSH2 0x15A8 JUMP JUMPDEST DUP2 ADD SUB SLT PUSH2 0x524 JUMPI DUP2 SWAP1 MLOAD CODESIZE DUP1 PUSH2 0x4D8 JUMP JUMPDEST PUSH1 0x0 DUP1 REVERT JUMPDEST POP RETURNDATASIZE PUSH2 0x508 JUMP JUMPDEST MLOAD RETURNDATASIZE DUP10 DUP3 RETURNDATACOPY RETURNDATASIZE SWAP1 REVERT JUMPDEST SWAP2 SWAP1 SWAP8 POP DUP3 DUP3 DUP2 RETURNDATASIZE DUP4 GT PUSH2 0x563 JUMPI JUMPDEST PUSH2 0x552 DUP2 DUP4 PUSH2 0x15A8 JUMP JUMPDEST DUP2 ADD SUB SLT PUSH2 0x524 JUMPI SWAP1 MLOAD SWAP7 DUP3 PUSH2 0x4B7 JUMP JUMPDEST POP RETURNDATASIZE PUSH2 0x548 JUMP JUMPDEST DUP6 MLOAD RETURNDATASIZE DUP13 DUP3 RETURNDATACOPY RETURNDATASIZE SWAP1 REVERT JUMPDEST DUP4 MLOAD PUSH4 0x17119229 PUSH1 0xE3 SHL DUP2 MSTORE ADDRESS DUP9 DUP3 ADD MSTORE DUP3 DUP2 PUSH1 0x24 DUP2 DUP8 GAS STATICCALL SWAP1 DUP2 ISZERO PUSH2 0x56A JUMPI DUP11 SWAP2 PUSH2 0x5BE JUMPI JUMPDEST POP CALLVALUE SUB CALLVALUE DUP2 GT PUSH2 0x5AB JUMPI SWAP7 PUSH2 0x45F JUMP JUMPDEST PUSH1 0x24 DUP11 PUSH1 0x11 DUP11 PUSH4 0x4E487B71 PUSH1 0xE0 SHL DUP4 MSTORE MSTORE REVERT JUMPDEST SWAP1 POP DUP3 DUP2 DUP2 RETURNDATASIZE DUP4 GT PUSH2 0x5E4 JUMPI JUMPDEST PUSH2 0x5D5 DUP2 DUP4 PUSH2 0x15A8 JUMP JUMPDEST DUP2 ADD SUB SLT PUSH2 0x524 JUMPI MLOAD CODESIZE PUSH2 0x59B JUMP JUMPDEST POP RETURNDATASIZE PUSH2 0x5CB JUMP JUMPDEST DUP1 SWAP3 POP DUP5 DUP1 SWAP3 POP RETURNDATASIZE DUP4 GT PUSH2 0x615 JUMPI JUMPDEST PUSH2 0x604 DUP2 DUP4 PUSH2 0x15A8 JUMP JUMPDEST DUP2 ADD SUB SLT PUSH2 0x524 JUMPI DUP6 SWAP1 MLOAD CODESIZE PUSH2 0x456 JUMP JUMPDEST POP RETURNDATASIZE PUSH2 0x5FA JUMP JUMPDEST POP POP CALLVALUE PUSH2 0x320 JUMPI DUP2 PUSH1 0x3 NOT CALLDATASIZE ADD SLT PUSH2 0x320 JUMPI MLOAD SWAP1 DUP2 MSTORE PUSH1 0x20 SWAP1 RETURN JUMPDEST POP SWAP1 PUSH1 0xA0 CALLDATASIZE PUSH1 0x3 NOT ADD SLT PUSH2 0x1CB JUMPI PUSH2 0x64D PUSH2 0x1502 JUMP JUMPDEST SWAP1 PUSH1 0x24 CALLDATALOAD SWAP3 PUSH2 0x65A PUSH2 0x1518 JUMP JUMPDEST SWAP2 PUSH1 0x84 CALLDATALOAD SWAP2 PUSH2 0x667 PUSH2 0x17CB JUMP JUMPDEST DUP7 PUSH1 0x1 PUSH1 0x1 PUSH1 0xA0 SHL SUB DUP1 SWAP7 AND SWAP6 PUSH2 0x684 DUP9 DUP3 PUSH1 0x6 SLOAD AND CALLER DUP11 PUSH2 0x1801 JUMP JUMPDEST DUP1 PUSH1 0x6 SLOAD AND SWAP8 DUP5 MLOAD SWAP8 PUSH32 0xFC7A6A2300000000000000000000000000000000000000000000000000000000 DUP10 MSTORE DUP5 DUP10 ADD MSTORE PUSH1 0x24 DUP9 ADD MSTORE DUP1 DUP7 AND SWAP8 DUP9 PUSH1 0x44 DUP10 ADD MSTORE PUSH1 0x64 CALLDATALOAD PUSH1 0x64 DUP10 ADD MSTORE ADDRESS PUSH1 0x84 DUP10 ADD MSTORE DUP8 PUSH1 0xA4 DUP2 PUSH1 0x20 SWAP6 DUP7 SWAP5 GAS CALL SWAP7 DUP8 ISZERO PUSH2 0x776 JUMPI DUP10 SWAP8 PUSH2 0x747 JUMPI JUMPDEST POP DUP2 SWAP1 DUP5 MLOAD SWAP4 DUP5 DUP1 SWAP3 PUSH4 0x4E4BC847 PUSH1 0xE0 SHL DUP3 MSTORE PUSH32 0x0 AND GAS STATICCALL SWAP3 DUP4 ISZERO PUSH2 0x530 JUMPI POP SWAP1 DUP4 SWAP3 SWAP2 DUP9 SWAP3 PUSH2 0x4FA JUMPI POP POP SUB PUSH2 0x4EF JUMPI POP POP PUSH2 0x4EC SWAP2 CALLER SWAP1 PUSH2 0x1A21 JUMP JUMPDEST SWAP1 SWAP7 POP DUP2 DUP2 DUP2 RETURNDATASIZE DUP4 GT PUSH2 0x76F JUMPI JUMPDEST PUSH2 0x75F DUP2 DUP4 PUSH2 0x15A8 JUMP JUMPDEST DUP2 ADD SUB SLT PUSH2 0x524 JUMPI MLOAD SWAP6 DUP2 PUSH2 0x6EA JUMP JUMPDEST POP RETURNDATASIZE PUSH2 0x755 JUMP JUMPDEST DUP5 MLOAD RETURNDATASIZE DUP12 DUP3 RETURNDATACOPY RETURNDATASIZE SWAP1 REVERT JUMPDEST POP CALLVALUE PUSH2 0x1CB JUMPI DUP2 PUSH1 0x3 NOT CALLDATASIZE ADD SLT PUSH2 0x1CB JUMPI PUSH1 0x1 PUSH1 0x1 PUSH1 0xA0 SHL SUB DUP3 PUSH1 0x20 SWAP5 PUSH2 0x7A5 PUSH2 0x14EC JUMP JUMPDEST SWAP4 CALLDATALOAD DUP2 MSTORE DUP1 DUP7 MSTORE KECCAK256 SWAP2 AND PUSH1 0x0 MSTORE DUP3 MSTORE PUSH1 0xFF DUP2 PUSH1 0x0 KECCAK256 SLOAD AND SWAP1 MLOAD SWAP1 ISZERO ISZERO DUP2 MSTORE RETURN JUMPDEST POP POP CALLVALUE PUSH2 0x320 JUMPI DUP2 PUSH1 0x3 NOT CALLDATASIZE ADD SLT PUSH2 0x320 JUMPI PUSH1 0x20 SWAP1 PUSH1 0x1 PUSH1 0x1 PUSH1 0xA0 SHL SUB PUSH1 0x1 SLOAD PUSH1 0x8 SHR AND SWAP1 MLOAD SWAP1 DUP2 MSTORE RETURN JUMPDEST POP SWAP2 CALLDATASIZE PUSH1 0x3 NOT ADD PUSH2 0x120 DUP2 SLT PUSH2 0x320 JUMPI PUSH2 0x100 SGT PUSH2 0x370 JUMPI PUSH8 0xFFFFFFFFFFFFFFFF PUSH2 0x104 CALLDATALOAD DUP2 DUP2 GT PUSH2 0x1CB JUMPI CALLDATASIZE PUSH1 0x23 DUP3 ADD SLT ISZERO PUSH2 0x1CB JUMPI DUP1 DUP6 ADD CALLDATALOAD DUP3 DUP2 GT PUSH2 0xB4F JUMPI PUSH1 0x24 SWAP1 DUP3 ADD SWAP3 CALLDATASIZE DUP3 DUP6 ADD GT PUSH2 0xB4B JUMPI PUSH1 0x1 PUSH1 0x1 PUSH1 0xA0 SHL SUB SWAP2 DUP3 PUSH32 0x0 AND CALLER SUB PUSH2 0xB1F JUMPI DUP1 CALLDATALOAD SWAP1 DUP2 DUP8 MSTORE PUSH1 0x20 SWAP6 PUSH1 0x2 DUP8 MSTORE DUP7 DUP10 DUP10 KECCAK256 DUP11 MLOAD PUSH2 0x88F DUP2 PUSH2 0x1576 JUMP JUMPDEST PUSH1 0x1 DUP3 SLOAD SWAP3 DUP4 DUP4 MSTORE ADD SLOAD SWAP3 DUP4 SWAP2 ADD MSTORE PUSH1 0x44 CALLDATALOAD EQ SWAP1 DUP2 ISZERO SWAP2 PUSH2 0xB12 JUMPI JUMPDEST POP ISZERO PUSH2 0x8D9 JUMPI DUP10 DUP10 MLOAD PUSH32 0x7FEE69A100000000000000000000000000000000000000000000000000000000 DUP2 MSTORE REVERT JUMPDEST SWAP1 PUSH1 0x60 DUP7 DUP12 SWAP4 SWAP11 SWAP10 SWAP11 SUB SLT PUSH2 0xB0E JUMPI PUSH2 0x95C SWAP4 DUP8 PUSH2 0x8F8 DUP4 DUP10 ADD PUSH2 0x1A0D JUMP JUMPDEST SWAP5 PUSH1 0x64 PUSH2 0x907 PUSH1 0x44 DUP12 ADD PUSH2 0x1A0D JUMP JUMPDEST SWAP10 ADD CALLDATALOAD SWAP6 DUP9 DUP1 DUP8 SLOAD AND SWAP2 DUP14 MLOAD SWAP10 DUP11 SWAP5 DUP6 SWAP4 DUP5 SWAP4 PUSH32 0xB464631B00000000000000000000000000000000000000000000000000000000 DUP6 MSTORE AND DUP11 DUP5 ADD PUSH1 0x20 SWAP1 SWAP4 SWAP3 SWAP2 SWAP4 PUSH1 0x1 PUSH1 0x1 PUSH1 0xA0 SHL SUB PUSH1 0x40 DUP3 ADD SWAP6 AND DUP2 MSTORE ADD MSTORE JUMP JUMPDEST SUB SWAP2 GAS STATICCALL SWAP5 DUP6 ISZERO PUSH2 0xB04 JUMPI DUP11 SWAP6 PUSH2 0xAC9 JUMPI JUMPDEST POP DUP6 PUSH1 0x5 SLOAD AND SWAP1 DUP2 EXTCODESIZE ISZERO PUSH2 0xAC5 JUMPI DUP11 DUP11 MLOAD DUP1 SWAP4 PUSH32 0xC1BF9E5800000000000000000000000000000000000000000000000000000000 DUP3 MSTORE DUP2 DUP4 DUP2 PUSH2 0x9CA DUP12 DUP14 DUP13 DUP5 ADD PUSH1 0x20 SWAP1 SWAP4 SWAP3 SWAP2 SWAP4 PUSH1 0x1 PUSH1 0x1 PUSH1 0xA0 SHL SUB PUSH1 0x40 DUP3 ADD SWAP6 AND DUP2 MSTORE ADD MSTORE JUMP JUMPDEST SUB SWAP3 GAS CALL DUP1 ISZERO PUSH2 0xABB JUMPI PUSH2 0xA96 JUMPI JUMPDEST POP POP SWAP1 DUP8 SWAP2 DUP3 MLOAD SWAP4 DUP5 SWAP3 PUSH32 0xDBCEB00500000000000000000000000000000000000000000000000000000000 DUP5 MSTORE DUP4 ADD MSTORE DUP2 PUSH20 0x0 GAS DELEGATECALL SWAP5 DUP6 ISZERO PUSH2 0xA8C JUMPI DUP8 SWAP7 DUP9 SWAP7 PUSH2 0xA51 JUMPI JUMPDEST POP POP POP PUSH2 0x4EC SWAP5 DUP3 DUP1 PUSH2 0xA47 SWAP4 AND SWAP5 AND DUP5 PUSH2 0x1A21 JUMP JUMPDEST PUSH1 0x3 SLOAD AND SWAP1 PUSH2 0x1A21 JUMP JUMPDEST SWAP2 SWAP7 POP SWAP2 SWAP5 POP DUP6 DUP2 RETURNDATASIZE DUP2 GT PUSH2 0xA85 JUMPI JUMPDEST PUSH2 0xA6B DUP2 DUP4 PUSH2 0x15A8 JUMP JUMPDEST DUP2 ADD SUB SLT PUSH2 0xA81 JUMPI DUP5 MLOAD SWAP5 ADD MLOAD SWAP3 DUP5 DUP3 DUP1 PUSH2 0xA31 JUMP JUMPDEST DUP6 DUP1 REVERT JUMPDEST POP RETURNDATASIZE PUSH2 0xA61 JUMP JUMPDEST DUP7 MLOAD RETURNDATASIZE DUP10 DUP3 RETURNDATACOPY RETURNDATASIZE SWAP1 REVERT JUMPDEST DUP2 SWAP11 SWAP3 SWAP11 GT PUSH2 0xAA9 JUMPI DUP9 MSTORE SWAP8 DUP8 DUP11 PUSH2 0x9D9 JUMP JUMPDEST POP PUSH1 0x41 DUP10 SWAP3 PUSH4 0x4E487B71 PUSH1 0xE0 SHL DUP4 MSTORE MSTORE REVERT JUMPDEST DUP11 MLOAD RETURNDATASIZE DUP14 DUP3 RETURNDATACOPY RETURNDATASIZE SWAP1 REVERT JUMPDEST DUP11 DUP1 REVERT JUMPDEST SWAP1 SWAP5 POP DUP8 DUP2 DUP2 RETURNDATASIZE DUP4 GT PUSH2 0xAFD JUMPI JUMPDEST PUSH2 0xAE1 DUP2 DUP4 PUSH2 0x15A8 JUMP JUMPDEST DUP2 ADD SUB SLT PUSH2 0xAF9 JUMPI PUSH2 0xAF2 SWAP1 PUSH2 0x15CA JUMP JUMPDEST SWAP4 DUP11 PUSH2 0x96E JUMP JUMPDEST DUP10 DUP1 REVERT JUMPDEST POP RETURNDATASIZE PUSH2 0xAD7 JUMP JUMPDEST DUP10 MLOAD RETURNDATASIZE DUP13 DUP3 RETURNDATACOPY RETURNDATASIZE SWAP1 REVERT JUMPDEST DUP9 DUP1 REVERT JUMPDEST SWAP1 POP PUSH1 0x64 CALLDATALOAD EQ ISZERO CODESIZE PUSH2 0x8AB JUMP JUMPDEST DUP7 MLOAD PUSH32 0xD7F7333400000000000000000000000000000000000000000000000000000000 DUP2 MSTORE CALLER DUP2 DUP11 ADD MSTORE REVERT JUMPDEST DUP5 DUP1 REVERT JUMPDEST DUP4 DUP1 REVERT JUMPDEST POP POP CALLVALUE PUSH2 0x320 JUMPI DUP2 PUSH1 0x3 NOT CALLDATASIZE ADD SLT PUSH2 0x320 JUMPI PUSH1 0x20 PUSH32 0x62E78CEA01BEE320CD4E420270B5EA74000D11B0C9F74754EBDBFC544B05A258 SWAP2 PUSH2 0xB91 PUSH2 0x163F JUMP JUMPDEST PUSH2 0xB99 PUSH2 0x17CB JUMP JUMPDEST PUSH1 0x1 PUSH1 0xFF NOT DUP2 SLOAD AND OR PUSH1 0x1 SSTORE MLOAD CALLER DUP2 MSTORE LOG1 DUP1 RETURN JUMPDEST DUP4 CALLVALUE PUSH2 0x370 JUMPI PUSH1 0x20 CALLDATASIZE PUSH1 0x3 NOT ADD SLT PUSH2 0x370 JUMPI PUSH1 0x1 PUSH1 0x1 PUSH1 0xA0 SHL SUB PUSH2 0xBCF PUSH2 0x1502 JUMP JUMPDEST PUSH2 0xBD7 PUSH2 0x163F JUMP JUMPDEST AND PUSH20 0xFFFFFFFFFFFFFFFFFFFFFFFFFFFFFFFFFFFFFFFF NOT PUSH1 0x6 SLOAD AND OR PUSH1 0x6 SSTORE DUP1 RETURN JUMPDEST DUP4 CALLVALUE PUSH2 0x370 JUMPI DUP1 PUSH1 0x3 NOT CALLDATASIZE ADD SLT PUSH2 0x370 JUMPI PUSH2 0xC12 PUSH2 0x19C6 JUMP JUMPDEST DUP1 PUSH1 0x1 PUSH1 0x1 PUSH1 0xA0 SHL SUB PUSH1 0x1 SLOAD PUSH21 0xFFFFFFFFFFFFFFFFFFFFFFFFFFFFFFFFFFFFFFFF00 NOT DUP2 AND PUSH1 0x1 SSTORE PUSH1 0x8 SHR AND PUSH32 0x8BE0079C531659141344CD1FD0A4F28419497F9722A3DAAFE3B4186F6B6457E0 DUP3 DUP1 LOG3 DUP1 RETURN JUMPDEST POP DUP3 SWAP1 CALLVALUE PUSH2 0x320 JUMPI PUSH1 0x20 CALLDATASIZE PUSH1 0x3 NOT ADD SLT PUSH2 0x320 JUMPI DUP3 DUP2 CALLDATALOAD SWAP3 DUP1 PUSH1 0x20 DUP4 MLOAD PUSH2 0xC8B DUP2 PUSH2 0x1576 JUMP JUMPDEST DUP3 DUP2 MSTORE ADD MSTORE DUP4 DUP2 MSTORE PUSH1 0x2 PUSH1 0x20 MSTORE KECCAK256 SWAP2 DUP4 MLOAD SWAP3 PUSH2 0xCA6 DUP5 PUSH2 0x1576 JUMP JUMPDEST PUSH1 0x1 DUP2 SLOAD SWAP2 DUP3 DUP7 MSTORE ADD SLOAD SWAP1 DUP2 PUSH1 0x20 DUP7 ADD MSTORE ISZERO SWAP1 DUP2 PUSH2 0xD08 JUMPI JUMPDEST POP PUSH2 0xCD9 JUMPI DUP4 MLOAD DUP4 MLOAD DUP2 MSTORE PUSH1 0x20 DUP1 DUP6 ADD MLOAD SWAP1 DUP3 ADD MSTORE PUSH1 0x40 SWAP1 RETURN JUMPDEST PUSH1 0x24 SWAP3 POP DUP4 MLOAD SWAP2 PUSH32 0x78D0DBFC00000000000000000000000000000000000000000000000000000000 DUP4 MSTORE DUP3 ADD MSTORE REVERT JUMPDEST SWAP1 POP ISZERO DUP6 PUSH2 0xCBF JUMP JUMPDEST POP SWAP2 SWAP1 CALLVALUE PUSH2 0x320 JUMPI PUSH1 0x60 DUP1 PUSH1 0x3 NOT CALLDATASIZE ADD SLT PUSH2 0x1CB JUMPI PUSH2 0xD2E PUSH2 0x14EC JUMP JUMPDEST SWAP1 PUSH2 0xD37 PUSH2 0x1518 JUMP JUMPDEST SWAP3 DUP5 DUP2 MLOAD SWAP4 PUSH2 0xD45 DUP6 PUSH2 0x1576 JUMP JUMPDEST DUP4 DUP6 MSTORE DUP4 PUSH1 0x20 DUP1 SWAP7 ADD MSTORE PUSH1 0x64 PUSH1 0x1 PUSH1 0x1 PUSH1 0xA0 SHL SUB SWAP9 DUP10 SWAP8 DUP9 DUP1 PUSH1 0x6 SLOAD AND SWAP2 DUP8 MLOAD SWAP13 DUP14 SWAP7 DUP8 SWAP6 PUSH32 0x61EE103100000000000000000000000000000000000000000000000000000000 DUP8 MSTORE DUP1 CALLDATALOAD SWAP1 DUP8 ADD MSTORE AND PUSH1 0x24 DUP6 ADD MSTORE AND PUSH1 0x44 DUP4 ADD MSTORE GAS STATICCALL SWAP4 DUP5 ISZERO PUSH2 0xE9F JUMPI DUP6 DUP1 SWAP8 DUP2 SWAP7 PUSH2 0xDF4 JUMPI JUMPDEST POP POP SWAP2 DUP2 PUSH2 0x31C SWAP6 SWAP5 SWAP4 PUSH2 0xDE0 SWAP4 MLOAD SWAP9 DUP10 SWAP9 DUP10 MSTORE AND DUP5 DUP9 ADD MSTORE DUP2 DUP2 DUP9 ADD MSTORE DUP5 MLOAD SWAP2 DUP8 ADD MSTORE PUSH1 0xA0 DUP7 ADD SWAP1 PUSH2 0x1551 JUMP JUMPDEST SWAP2 ADD MLOAD DUP4 DUP3 SUB PUSH1 0x5F NOT ADD PUSH1 0x80 DUP6 ADD MSTORE PUSH2 0x1551 JUMP JUMPDEST SWAP7 POP SWAP7 POP SWAP4 POP RETURNDATASIZE DUP1 DUP8 DUP8 RETURNDATACOPY PUSH2 0xE09 DUP2 DUP8 PUSH2 0x15A8 JUMP JUMPDEST DUP6 ADD DUP3 DUP7 DUP3 SUB SLT PUSH2 0xE9B JUMPI DUP6 MLOAD SWAP1 PUSH2 0xE22 DUP6 DUP9 ADD PUSH2 0x15CA JUMP JUMPDEST SWAP7 DUP4 DUP2 ADD MLOAD PUSH8 0xFFFFFFFFFFFFFFFF SWAP2 DUP3 DUP3 GT PUSH2 0xAC5 JUMPI ADD DUP5 DUP2 DUP5 SUB SLT PUSH2 0xAF9 JUMPI DUP5 MLOAD SWAP10 PUSH2 0xE4E DUP12 PUSH2 0x1576 JUMP JUMPDEST DUP2 MLOAD DUP4 DUP2 GT PUSH2 0x320 JUMPI DUP5 PUSH2 0xE63 SWAP2 DUP5 ADD PUSH2 0x15FA JUMP JUMPDEST DUP12 MSTORE DUP8 DUP3 ADD MLOAD SWAP3 DUP4 GT PUSH2 0x370 JUMPI POP PUSH2 0xDE0 SWAP5 SWAP3 PUSH2 0x31C SWAP9 SWAP8 SWAP7 SWAP5 SWAP3 PUSH2 0xE88 SWAP3 ADD PUSH2 0x15FA JUMP JUMPDEST DUP6 DUP11 ADD MSTORE SWAP7 SWAP8 SWAP6 DUP2 SWAP4 POP SWAP5 SWAP2 SWAP4 SWAP5 PUSH2 0xDB2 JUMP JUMPDEST DUP7 DUP1 REVERT JUMPDEST DUP2 MLOAD RETURNDATASIZE DUP8 DUP3 RETURNDATACOPY RETURNDATASIZE SWAP1 REVERT JUMPDEST POP POP CALLVALUE PUSH2 0x320 JUMPI DUP2 PUSH1 0x3 NOT CALLDATASIZE ADD SLT PUSH2 0x320 JUMPI PUSH1 0x20 SWAP1 PUSH1 0xFF PUSH1 0x1 SLOAD AND SWAP1 MLOAD SWAP1 ISZERO ISZERO DUP2 MSTORE RETURN JUMPDEST POP SWAP1 CALLVALUE PUSH2 0x1CB JUMPI DUP3 PUSH1 0x3 NOT CALLDATASIZE ADD SLT PUSH2 0x1CB JUMPI DUP1 MLOAD SWAP2 PUSH4 0x17119229 PUSH1 0xE3 SHL DUP4 MSTORE ADDRESS SWAP1 DUP4 ADD MSTORE PUSH1 0x20 DUP3 PUSH1 0x24 DUP2 PUSH1 0x1 PUSH1 0x1 PUSH1 0xA0 SHL SUB PUSH32 0x0 AND GAS STATICCALL SWAP2 DUP3 ISZERO PUSH2 0xF73 JUMPI DUP4 SWAP3 PUSH2 0xF3B JUMPI JUMPDEST PUSH1 0x20 DUP4 DUP4 MLOAD SWAP1 DUP2 MSTORE RETURN JUMPDEST SWAP1 SWAP2 POP PUSH1 0x20 DUP2 RETURNDATASIZE PUSH1 0x20 GT PUSH2 0xF6B JUMPI JUMPDEST DUP2 PUSH2 0xF57 PUSH1 0x20 SWAP4 DUP4 PUSH2 0x15A8 JUMP JUMPDEST DUP2 ADD SUB SLT PUSH2 0x1CB JUMPI PUSH1 0x20 SWAP3 POP MLOAD SWAP1 CODESIZE PUSH2 0xF31 JUMP JUMPDEST RETURNDATASIZE SWAP2 POP PUSH2 0xF4A JUMP JUMPDEST DUP2 MLOAD RETURNDATASIZE DUP6 DUP3 RETURNDATACOPY RETURNDATASIZE SWAP1 REVERT JUMPDEST POP SWAP1 CALLVALUE PUSH2 0x1CB JUMPI DUP1 PUSH1 0x3 NOT CALLDATASIZE ADD SLT PUSH2 0x1CB JUMPI DUP2 CALLDATALOAD SWAP2 PUSH8 0xFFFFFFFFFFFFFFFF DUP1 DUP5 GT PUSH2 0xB4B JUMPI CALLDATASIZE PUSH1 0x23 DUP6 ADD SLT ISZERO PUSH2 0xB4B JUMPI DUP4 DUP3 ADD CALLDATALOAD SWAP3 DUP2 DUP5 GT PUSH2 0xA81 JUMPI PUSH1 0x24 SWAP3 PUSH1 0x5 SWAP3 CALLDATASIZE DUP6 DUP8 PUSH1 0x5 SHL DUP10 ADD ADD GT PUSH2 0x1091 JUMPI DUP5 CALLDATALOAD SWAP2 DUP2 DUP4 GT PUSH2 0xB0E JUMPI CALLDATASIZE PUSH1 0x23 DUP5 ADD SLT ISZERO PUSH2 0xB0E JUMPI DUP3 DUP2 ADD CALLDATALOAD SWAP2 DUP3 GT PUSH2 0xB0E JUMPI PUSH1 0x6 SWAP2 CALLDATASIZE DUP8 DUP3 PUSH1 0x6 SHL DUP7 ADD ADD GT PUSH2 0xAF9 JUMPI PUSH2 0x1006 PUSH2 0x19C6 JUMP JUMPDEST PUSH2 0x100E PUSH2 0x19C6 JUMP JUMPDEST DUP1 DUP9 SUB PUSH2 0x1069 JUMPI DUP10 JUMPDEST DUP9 DUP2 LT PUSH2 0x1022 JUMPI DUP11 DUP1 RETURN JUMPDEST DUP2 DUP2 LT ISZERO PUSH2 0x1057 JUMPI DUP1 DUP8 SHL DUP11 ADD DUP9 ADD CALLDATALOAD DUP12 MSTORE PUSH1 0x2 PUSH1 0x20 MSTORE DUP6 DUP12 KECCAK256 DUP2 DUP6 SHL DUP7 ADD DUP10 DUP2 ADD CALLDATALOAD DUP3 SSTORE PUSH1 0x44 ADD CALLDATALOAD PUSH1 0x1 SWAP2 DUP3 ADD SSTORE ADD PUSH2 0x1017 JUMP JUMPDEST DUP8 DUP12 PUSH1 0x32 DUP6 PUSH4 0x4E487B71 PUSH1 0xE0 SHL DUP4 MSTORE MSTORE REVERT JUMPDEST POP DUP4 MLOAD PUSH32 0x947D5A8400000000000000000000000000000000000000000000000000000000 DUP2 MSTORE REVERT JUMPDEST DUP8 DUP1 REVERT JUMPDEST SWAP2 SWAP1 POP PUSH1 0x80 CALLDATASIZE PUSH1 0x3 NOT ADD SLT PUSH2 0x320 JUMPI DUP2 PUSH2 0x10AD PUSH2 0x1502 JUMP JUMPDEST PUSH1 0x24 CALLDATALOAD SWAP3 PUSH1 0x64 CALLDATALOAD SWAP2 PUSH2 0x10BD PUSH2 0x17CB JUMP JUMPDEST PUSH1 0x1 PUSH1 0x1 PUSH1 0xA0 SHL SUB DUP1 SWAP2 AND SWAP5 PUSH2 0x10D9 DUP2 DUP4 PUSH1 0x6 SLOAD AND CALLER DUP10 PUSH2 0x1801 JUMP JUMPDEST DUP2 PUSH1 0x6 SLOAD AND SWAP1 DUP9 MLOAD SWAP7 PUSH32 0x95EB087000000000000000000000000000000000000000000000000000000000 DUP9 MSTORE DUP5 DUP9 ADD MSTORE PUSH1 0x24 DUP8 ADD MSTORE PUSH1 0x44 CALLDATALOAD PUSH1 0x44 DUP8 ADD MSTORE ADDRESS PUSH1 0x64 DUP8 ADD MSTORE DUP6 PUSH1 0x84 DUP2 PUSH1 0x20 SWAP8 DUP9 SWAP5 GAS CALL SWAP5 DUP6 ISZERO PUSH2 0x1369 JUMPI DUP7 SWAP6 PUSH2 0x133A JUMPI JUMPDEST POP PUSH32 0x0 AND DUP7 MLOAD PUSH4 0x4E4BC847 PUSH1 0xE0 SHL DUP2 MSTORE DUP5 DUP2 DUP5 DUP2 DUP6 GAS STATICCALL DUP1 ISZERO PUSH2 0x1330 JUMPI DUP5 SWAP2 DUP9 SWAP2 PUSH2 0x12FF JUMPI JUMPDEST POP SUB PUSH2 0x11AF JUMPI POP POP POP POP DUP2 DUP1 DUP1 SWAP3 DUP2 DUP2 ISZERO PUSH2 0x11A6 JUMPI JUMPDEST CALLER SWAP1 CALL ISZERO PUSH2 0x119C JUMPI POP DUP1 RETURN JUMPDEST MLOAD SWAP1 RETURNDATASIZE SWAP1 DUP3 RETURNDATACOPY RETURNDATASIZE SWAP1 REVERT JUMPDEST POP PUSH2 0x8FC PUSH2 0x1190 JUMP JUMPDEST SWAP2 SWAP5 POP SWAP2 SWAP5 SWAP3 DUP4 MLOAD SWAP1 PUSH20 0xEEEEEEEEEEEEEEEEEEEEEEEEEEEEEEEEEEEEEEEE DUP8 DUP4 ADD MSTORE CALLER DUP6 DUP4 ADD MSTORE PUSH1 0x60 DUP3 ADD MSTORE PUSH1 0x60 DUP2 MSTORE PUSH1 0x80 DUP2 ADD DUP2 DUP2 LT PUSH8 0xFFFFFFFFFFFFFFFF DUP3 GT OR PUSH2 0x12EC JUMPI DUP1 DUP6 MSTORE PUSH4 0x17119229 PUSH1 0xE3 SHL DUP2 MSTORE ADDRESS PUSH1 0x84 DUP4 ADD MSTORE DUP7 DUP2 PUSH1 0x24 DUP2 DUP7 GAS STATICCALL SWAP1 DUP2 ISZERO PUSH2 0x12E2 JUMPI SWAP1 DUP8 SWAP4 SWAP3 SWAP2 DUP10 SWAP2 PUSH2 0x12B0 JUMPI JUMPDEST POP PUSH1 0x1 SWAP4 SWAP5 DUP8 DUP11 MSTORE PUSH1 0x2 DUP7 MSTORE PUSH2 0x126D DUP8 DUP12 KECCAK256 SWAP4 DUP9 MLOAD SWAP10 DUP11 SWAP8 DUP9 SWAP7 DUP8 SWAP6 PUSH4 0xDC203137 PUSH1 0xE0 SHL DUP8 MSTORE DUP2 SLOAD SWAP1 DUP8 ADD MSTORE ADD SLOAD PUSH1 0x24 DUP6 ADD MSTORE PUSH1 0x44 DUP5 ADD MSTORE PUSH1 0x80 PUSH1 0x64 DUP5 ADD MSTORE PUSH1 0x84 DUP4 ADD SWAP1 PUSH2 0x1551 JUMP JUMPDEST SUB SWAP3 GAS CALL SWAP1 DUP2 ISZERO PUSH2 0x12A7 JUMPI POP PUSH2 0x1282 JUMPI POP POP DUP1 RETURN JUMPDEST DUP2 RETURNDATASIZE DUP4 GT PUSH2 0x12A0 JUMPI JUMPDEST PUSH2 0x1295 DUP2 DUP4 PUSH2 0x15A8 JUMP JUMPDEST DUP2 ADD SUB SLT PUSH2 0x370 JUMPI DUP1 RETURN JUMPDEST POP RETURNDATASIZE PUSH2 0x128B JUMP JUMPDEST MLOAD RETURNDATASIZE DUP6 DUP3 RETURNDATACOPY RETURNDATASIZE SWAP1 REVERT JUMPDEST SWAP4 SWAP1 POP DUP2 DUP2 RETURNDATASIZE DUP4 GT PUSH2 0x12DB JUMPI JUMPDEST PUSH2 0x12C7 DUP2 DUP8 PUSH2 0x15A8 JUMP JUMPDEST DUP2 ADD SUB SLT PUSH2 0x1091 JUMPI SWAP2 MLOAD DUP7 SWAP3 SWAP1 PUSH1 0x1 PUSH2 0x1224 JUMP JUMPDEST POP RETURNDATASIZE PUSH2 0x12BD JUMP JUMPDEST DUP6 MLOAD RETURNDATASIZE DUP11 DUP3 RETURNDATACOPY RETURNDATASIZE SWAP1 REVERT JUMPDEST PUSH1 0x24 DUP9 PUSH1 0x41 DUP7 PUSH4 0x4E487B71 PUSH1 0xE0 SHL DUP4 MSTORE MSTORE REVERT JUMPDEST DUP1 SWAP3 POP DUP7 DUP1 SWAP3 POP RETURNDATASIZE DUP4 GT PUSH2 0x1329 JUMPI JUMPDEST PUSH2 0x1318 DUP2 DUP4 PUSH2 0x15A8 JUMP JUMPDEST DUP2 ADD SUB SLT PUSH2 0xE9B JUMPI DUP4 SWAP1 MLOAD CODESIZE PUSH2 0x117A JUMP JUMPDEST POP RETURNDATASIZE PUSH2 0x130E JUMP JUMPDEST DUP9 MLOAD RETURNDATASIZE DUP10 DUP3 RETURNDATACOPY RETURNDATASIZE SWAP1 REVERT JUMPDEST SWAP1 SWAP5 POP DUP4 DUP2 DUP2 RETURNDATASIZE DUP4 GT PUSH2 0x1362 JUMPI JUMPDEST PUSH2 0x1352 DUP2 DUP4 PUSH2 0x15A8 JUMP JUMPDEST DUP2 ADD SUB SLT PUSH2 0xA81 JUMPI MLOAD SWAP4 CODESIZE PUSH2 0x1135 JUMP JUMPDEST POP RETURNDATASIZE PUSH2 0x1348 JUMP JUMPDEST DUP8 MLOAD RETURNDATASIZE DUP9 DUP3 RETURNDATACOPY RETURNDATASIZE SWAP1 REVERT JUMPDEST POP SWAP2 SWAP1 CALLVALUE PUSH2 0x320 JUMPI DUP1 PUSH1 0x3 NOT CALLDATASIZE ADD SLT PUSH2 0x320 JUMPI PUSH2 0x138E PUSH2 0x14EC JUMP JUMPDEST SWAP1 CALLER PUSH1 0x1 PUSH1 0x1 PUSH1 0xA0 SHL SUB DUP4 AND SUB PUSH2 0x13AB JUMPI POP PUSH2 0x3AD SWAP2 SWAP3 CALLDATALOAD PUSH2 0x1755 JUMP JUMPDEST DUP4 SWAP1 MLOAD PUSH32 0x6697B23200000000000000000000000000000000000000000000000000000000 DUP2 MSTORE REVERT JUMPDEST POP SWAP1 CALLVALUE PUSH2 0x1CB JUMPI DUP1 PUSH1 0x3 NOT CALLDATASIZE ADD SLT PUSH2 0x1CB JUMPI PUSH2 0x3AD SWAP2 CALLDATALOAD PUSH2 0x13F7 PUSH1 0x1 PUSH2 0x397 PUSH2 0x14EC JUMP JUMPDEST PUSH2 0x16D6 JUMP JUMPDEST POP POP CALLVALUE PUSH2 0x320 JUMPI DUP2 PUSH1 0x3 NOT CALLDATASIZE ADD SLT PUSH2 0x320 JUMPI PUSH1 0x20 SWAP1 PUSH1 0x1 PUSH1 0x1 PUSH1 0xA0 SHL SUB PUSH1 0x3 SLOAD AND SWAP1 MLOAD SWAP1 DUP2 MSTORE RETURN JUMPDEST POP CALLVALUE PUSH2 0x1CB JUMPI PUSH1 0x20 CALLDATASIZE PUSH1 0x3 NOT ADD SLT PUSH2 0x1CB JUMPI DUP2 PUSH1 0x20 SWAP4 PUSH1 0x1 SWAP3 CALLDATALOAD DUP2 MSTORE DUP1 DUP6 MSTORE KECCAK256 ADD SLOAD SWAP1 MLOAD SWAP1 DUP2 MSTORE RETURN JUMPDEST SWAP3 POP POP CALLVALUE PUSH2 0x1CB JUMPI PUSH1 0x20 CALLDATASIZE PUSH1 0x3 NOT ADD SLT PUSH2 0x1CB JUMPI CALLDATALOAD PUSH32 0xFFFFFFFF00000000000000000000000000000000000000000000000000000000 DUP2 AND DUP1 SWAP2 SUB PUSH2 0x1CB JUMPI PUSH1 0x20 SWAP3 POP PUSH32 0x7965DB0B00000000000000000000000000000000000000000000000000000000 DUP2 EQ SWAP1 DUP2 ISZERO PUSH2 0x14C2 JUMPI JUMPDEST POP ISZERO ISZERO DUP2 MSTORE RETURN JUMPDEST PUSH32 0x1FFC9A700000000000000000000000000000000000000000000000000000000 SWAP2 POP EQ CODESIZE PUSH2 0x14BB JUMP JUMPDEST PUSH1 0x24 CALLDATALOAD SWAP1 PUSH1 0x1 PUSH1 0x1 PUSH1 0xA0 SHL SUB DUP3 AND DUP3 SUB PUSH2 0x524 JUMPI JUMP JUMPDEST PUSH1 0x4 CALLDATALOAD SWAP1 PUSH1 0x1 PUSH1 0x1 PUSH1 0xA0 SHL SUB DUP3 AND DUP3 SUB PUSH2 0x524 JUMPI JUMP JUMPDEST PUSH1 0x44 CALLDATALOAD SWAP1 PUSH1 0x1 PUSH1 0x1 PUSH1 0xA0 SHL SUB DUP3 AND DUP3 SUB PUSH2 0x524 JUMPI JUMP JUMPDEST PUSH1 0x0 JUMPDEST DUP4 DUP2 LT PUSH2 0x1541 JUMPI POP POP PUSH1 0x0 SWAP2 ADD MSTORE JUMP JUMPDEST DUP2 DUP2 ADD MLOAD DUP4 DUP3 ADD MSTORE PUSH1 0x20 ADD PUSH2 0x1531 JUMP JUMPDEST SWAP1 PUSH1 0x20 SWAP2 PUSH2 0x156A DUP2 MLOAD DUP1 SWAP3 DUP2 DUP6 MSTORE DUP6 DUP1 DUP7 ADD SWAP2 ADD PUSH2 0x152E JUMP JUMPDEST PUSH1 0x1F ADD PUSH1 0x1F NOT AND ADD ADD SWAP1 JUMP JUMPDEST PUSH1 0x40 DUP2 ADD SWAP1 DUP2 LT PUSH8 0xFFFFFFFFFFFFFFFF DUP3 GT OR PUSH2 0x1592 JUMPI PUSH1 0x40 MSTORE JUMP JUMPDEST PUSH4 0x4E487B71 PUSH1 0xE0 SHL PUSH1 0x0 MSTORE PUSH1 0x41 PUSH1 0x4 MSTORE PUSH1 0x24 PUSH1 0x0 REVERT JUMPDEST SWAP1 PUSH1 0x1F DUP1 NOT SWAP2 ADD AND DUP2 ADD SWAP1 DUP2 LT PUSH8 0xFFFFFFFFFFFFFFFF DUP3 GT OR PUSH2 0x1592 JUMPI PUSH1 0x40 MSTORE JUMP JUMPDEST MLOAD SWAP1 PUSH1 0x1 PUSH1 0x1 PUSH1 0xA0 SHL SUB DUP3 AND DUP3 SUB PUSH2 0x524 JUMPI JUMP JUMPDEST PUSH8 0xFFFFFFFFFFFFFFFF DUP2 GT PUSH2 0x1592 JUMPI PUSH1 0x1F ADD PUSH1 0x1F NOT AND PUSH1 0x20 ADD SWAP1 JUMP JUMPDEST DUP2 PUSH1 0x1F DUP3 ADD SLT ISZERO PUSH2 0x524 JUMPI DUP1 MLOAD PUSH2 0x1610 DUP2 PUSH2 0x15DE JUMP JUMPDEST SWAP3 PUSH2 0x161E PUSH1 0x40 MLOAD SWAP5 DUP6 PUSH2 0x15A8 JUMP JUMPDEST DUP2 DUP5 MSTORE PUSH1 0x20 DUP3 DUP5 ADD ADD GT PUSH2 0x524 JUMPI PUSH2 0x163C SWAP2 PUSH1 0x20 DUP1 DUP6 ADD SWAP2 ADD PUSH2 0x152E JUMP JUMPDEST SWAP1 JUMP JUMPDEST CALLER PUSH1 0x0 SWAP1 DUP2 MSTORE PUSH32 0xAD3228B676F7D3CD4284A5443F17F1962B36E491B30A40B2405849E597BA5FB5 PUSH1 0x20 MSTORE PUSH1 0x40 DUP2 KECCAK256 SLOAD PUSH1 0xFF AND ISZERO PUSH2 0x1679 JUMPI POP JUMP JUMPDEST PUSH1 0x44 SWAP1 PUSH1 0x40 MLOAD SWAP1 PUSH32 0xE2517D3F00000000000000000000000000000000000000000000000000000000 DUP3 MSTORE CALLER PUSH1 0x4 DUP4 ADD MSTORE PUSH1 0x24 DUP3 ADD MSTORE REVERT JUMPDEST DUP1 PUSH1 0x0 MSTORE PUSH1 0x0 PUSH1 0x20 MSTORE PUSH1 0x40 PUSH1 0x0 KECCAK256 CALLER PUSH1 0x0 MSTORE PUSH1 0x20 MSTORE PUSH1 0xFF PUSH1 0x40 PUSH1 0x0 KECCAK256 SLOAD AND ISZERO PUSH2 0x1679 JUMPI POP JUMP JUMPDEST SWAP1 PUSH1 0x0 SWAP2 DUP1 DUP4 MSTORE DUP3 PUSH1 0x20 MSTORE PUSH1 0x1 PUSH1 0x1 PUSH1 0xA0 SHL SUB PUSH1 0x40 DUP5 KECCAK256 SWAP3 AND SWAP2 DUP3 DUP5 MSTORE PUSH1 0x20 MSTORE PUSH1 0xFF PUSH1 0x40 DUP5 KECCAK256 SLOAD AND ISZERO PUSH1 0x0 EQ PUSH2 0x1750 JUMPI DUP1 DUP4 MSTORE DUP3 PUSH1 0x20 MSTORE PUSH1 0x40 DUP4 KECCAK256 DUP3 DUP5 MSTORE PUSH1 0x20 MSTORE PUSH1 0x40 DUP4 KECCAK256 PUSH1 0x1 PUSH1 0xFF NOT DUP3 SLOAD AND OR SWAP1 SSTORE PUSH32 0x2F8788117E7EFF1D82E926EC794901D17C78024A50270940304540A733656F0D CALLER SWAP4 DUP1 LOG4 PUSH1 0x1 SWAP1 JUMP JUMPDEST POP POP SWAP1 JUMP JUMPDEST SWAP1 PUSH1 0x0 SWAP2 DUP1 DUP4 MSTORE DUP3 PUSH1 0x20 MSTORE PUSH1 0x1 PUSH1 0x1 PUSH1 0xA0 SHL SUB PUSH1 0x40 DUP5 KECCAK256 SWAP3 AND SWAP2 DUP3 DUP5 MSTORE PUSH1 0x20 MSTORE PUSH1 0xFF PUSH1 0x40 DUP5 KECCAK256 SLOAD AND PUSH1 0x0 EQ PUSH2 0x1750 JUMPI DUP1 DUP4 MSTORE DUP3 PUSH1 0x20 MSTORE PUSH1 0x40 DUP4 KECCAK256 DUP3 DUP5 MSTORE PUSH1 0x20 MSTORE PUSH1 0x40 DUP4 KECCAK256 PUSH1 0xFF NOT DUP2 SLOAD AND SWAP1 SSTORE PUSH32 0xF6391F5C32D9C69D2A47EA670B442974B53935D1EDC7FD64EB21E047A839171B CALLER SWAP4 DUP1 LOG4 PUSH1 0x1 SWAP1 JUMP JUMPDEST PUSH1 0xFF PUSH1 0x1 SLOAD AND PUSH2 0x17D7 JUMPI JUMP JUMPDEST PUSH1 0x4 PUSH1 0x40 MLOAD PUSH32 0xD93C066500000000000000000000000000000000000000000000000000000000 DUP2 MSTORE REVERT JUMPDEST PUSH1 0x40 MLOAD PUSH32 0x23B872DD00000000000000000000000000000000000000000000000000000000 PUSH1 0x20 DUP3 ADD MSTORE PUSH1 0x1 PUSH1 0x1 PUSH1 0xA0 SHL SUB SWAP3 DUP4 AND PUSH1 0x24 DUP3 ADD MSTORE SWAP3 SWAP1 SWAP2 AND PUSH1 0x44 DUP4 ADD MSTORE PUSH1 0x64 DUP3 ADD SWAP3 SWAP1 SWAP3 MSTORE PUSH2 0x186B SWAP2 PUSH2 0x1866 DUP3 PUSH1 0x84 DUP2 ADD JUMPDEST SUB PUSH1 0x1F NOT DUP2 ADD DUP5 MSTORE DUP4 PUSH2 0x15A8 JUMP JUMPDEST PUSH2 0x1A73 JUMP JUMPDEST JUMP JUMPDEST PUSH1 0x40 DUP1 MLOAD PUSH1 0x1 PUSH1 0x1 PUSH1 0xA0 SHL SUB SWAP5 DUP6 AND PUSH1 0x20 DUP1 DUP4 ADD SWAP2 SWAP1 SWAP2 MSTORE SWAP3 SWAP1 SWAP5 AND DUP5 DUP3 ADD MSTORE PUSH1 0x60 DUP1 DUP6 ADD SWAP6 SWAP1 SWAP6 MSTORE SWAP4 DUP4 MSTORE SWAP3 SWAP1 PUSH2 0x18A6 PUSH1 0x80 DUP5 PUSH2 0x15A8 JUMP JUMPDEST PUSH1 0x1 PUSH1 0x1 PUSH1 0xA0 SHL SUB PUSH32 0x0 AND DUP3 MLOAD PUSH4 0x17119229 PUSH1 0xE3 SHL DUP2 MSTORE ADDRESS PUSH1 0x4 DUP3 ADD MSTORE DUP6 DUP2 PUSH1 0x24 DUP2 DUP6 GAS STATICCALL SWAP1 DUP2 ISZERO PUSH2 0x19BB JUMPI SWAP1 DUP7 SWAP4 SWAP3 SWAP2 PUSH1 0x0 SWAP2 PUSH2 0x198A JUMPI JUMPDEST POP PUSH1 0x1 SWAP1 DUP4 PUSH1 0x0 MSTORE PUSH1 0x2 DUP6 MSTORE DUP6 PUSH1 0x0 KECCAK256 PUSH2 0x1948 DUP8 MLOAD SWAP9 DUP10 SWAP7 DUP8 SWAP6 DUP7 SWAP5 PUSH4 0xDC203137 PUSH1 0xE0 SHL DUP7 MSTORE DUP1 SLOAD PUSH1 0x4 DUP8 ADD MSTORE ADD SLOAD PUSH1 0x24 DUP6 ADD MSTORE PUSH1 0x44 DUP5 ADD MSTORE PUSH1 0x80 PUSH1 0x64 DUP5 ADD MSTORE PUSH1 0x84 DUP4 ADD SWAP1 PUSH2 0x1551 JUMP JUMPDEST SUB SWAP3 GAS CALL SWAP1 DUP2 ISZERO PUSH2 0x1980 JUMPI POP PUSH2 0x195C JUMPI POP POP JUMP JUMPDEST DUP2 RETURNDATASIZE DUP4 GT PUSH2 0x1979 JUMPI JUMPDEST PUSH2 0x196F DUP2 DUP4 PUSH2 0x15A8 JUMP JUMPDEST DUP2 ADD SUB SLT PUSH2 0x524 JUMPI JUMP JUMPDEST POP RETURNDATASIZE PUSH2 0x1965 JUMP JUMPDEST MLOAD RETURNDATASIZE PUSH1 0x0 DUP3 RETURNDATACOPY RETURNDATASIZE SWAP1 REVERT JUMPDEST DUP5 DUP2 SWAP6 SWAP3 POP RETURNDATASIZE DUP4 GT PUSH2 0x19B4 JUMPI JUMPDEST PUSH2 0x19A1 DUP2 DUP4 PUSH2 0x15A8 JUMP JUMPDEST DUP2 ADD SUB SLT PUSH2 0x524 JUMPI PUSH1 0x1 DUP7 SWAP4 MLOAD SWAP1 PUSH2 0x18FE JUMP JUMPDEST POP RETURNDATASIZE PUSH2 0x1997 JUMP JUMPDEST DUP5 MLOAD RETURNDATASIZE PUSH1 0x0 DUP3 RETURNDATACOPY RETURNDATASIZE SWAP1 REVERT JUMPDEST PUSH1 0x1 PUSH1 0x1 PUSH1 0xA0 SHL SUB PUSH1 0x1 SLOAD PUSH1 0x8 SHR AND CALLER SUB PUSH2 0x19DD JUMPI JUMP JUMPDEST PUSH1 0x24 PUSH1 0x40 MLOAD PUSH32 0x118CDAA700000000000000000000000000000000000000000000000000000000 DUP2 MSTORE CALLER PUSH1 0x4 DUP3 ADD MSTORE REVERT JUMPDEST CALLDATALOAD SWAP1 PUSH1 0x1 PUSH1 0x1 PUSH1 0xA0 SHL SUB DUP3 AND DUP3 SUB PUSH2 0x524 JUMPI JUMP JUMPDEST PUSH1 0x40 MLOAD PUSH32 0xA9059CBB00000000000000000000000000000000000000000000000000000000 PUSH1 0x20 DUP3 ADD MSTORE PUSH1 0x1 PUSH1 0x1 PUSH1 0xA0 SHL SUB SWAP1 SWAP3 AND PUSH1 0x24 DUP4 ADD MSTORE PUSH1 0x44 DUP3 ADD SWAP3 SWAP1 SWAP3 MSTORE PUSH2 0x186B SWAP2 PUSH2 0x1866 DUP3 PUSH1 0x64 DUP2 ADD PUSH2 0x1858 JUMP JUMPDEST PUSH1 0x1 PUSH1 0x1 PUSH1 0xA0 SHL SUB AND SWAP1 PUSH2 0x1ABE PUSH1 0x0 DUP1 DUP4 PUSH1 0x20 DUP3 SWAP6 MLOAD SWAP2 ADD DUP3 DUP8 GAS CALL RETURNDATASIZE ISZERO PUSH2 0x1B2F JUMPI RETURNDATASIZE SWAP1 PUSH2 0x1AA0 DUP3 PUSH2 0x15DE JUMP JUMPDEST SWAP2 PUSH2 0x1AAE PUSH1 0x40 MLOAD SWAP4 DUP5 PUSH2 0x15A8 JUMP JUMPDEST DUP3 MSTORE RETURNDATASIZE DUP5 PUSH1 0x20 DUP5 ADD RETURNDATACOPY JUMPDEST DUP5 PUSH2 0x1B37 JUMP JUMPDEST SWAP1 DUP2 MLOAD SWAP2 DUP3 ISZERO ISZERO SWAP3 DUP4 PUSH2 0x1B07 JUMPI JUMPDEST POP POP POP PUSH2 0x1AD6 JUMPI POP JUMP JUMPDEST PUSH1 0x24 SWAP1 PUSH1 0x40 MLOAD SWAP1 PUSH32 0x5274AFE700000000000000000000000000000000000000000000000000000000 DUP3 MSTORE PUSH1 0x4 DUP3 ADD MSTORE REVERT JUMPDEST DUP2 SWAP3 SWAP4 POP SWAP1 PUSH1 0x20 SWAP2 DUP2 ADD SUB SLT PUSH2 0x320 JUMPI PUSH1 0x20 ADD MLOAD SWAP1 DUP2 ISZERO SWAP2 DUP3 ISZERO SUB PUSH2 0x370 JUMPI POP CODESIZE DUP1 DUP1 PUSH2 0x1ACC JUMP JUMPDEST PUSH1 0x60 SWAP1 PUSH2 0x1AB8 JUMP JUMPDEST SWAP1 PUSH2 0x1B76 JUMPI POP DUP1 MLOAD ISZERO PUSH2 0x1B4C JUMPI DUP1 MLOAD SWAP1 PUSH1 0x20 ADD REVERT JUMPDEST PUSH1 0x4 PUSH1 0x40 MLOAD PUSH32 0x1425EA4200000000000000000000000000000000000000000000000000000000 DUP2 MSTORE REVERT JUMPDEST DUP2 MLOAD ISZERO DUP1 PUSH2 0x1BC1 JUMPI JUMPDEST PUSH2 0x1B87 JUMPI POP SWAP1 JUMP JUMPDEST PUSH1 0x24 SWAP1 PUSH1 0x1 PUSH1 0x1 PUSH1 0xA0 SHL SUB PUSH1 0x40 MLOAD SWAP2 PUSH32 0x9996B31500000000000000000000000000000000000000000000000000000000 DUP4 MSTORE AND PUSH1 0x4 DUP3 ADD MSTORE REVERT JUMPDEST POP DUP1 EXTCODESIZE ISZERO PUSH2 0x1B7F JUMP INVALID LOG2 PUSH5 0x6970667358 0x22 SLT KECCAK256 EXP 0x2B BALANCE DUP5 0xB8 0xE4 DUP4 BLOCKHASH JUMPDEST 0xB9 DUP1 0xB6 PUSH19 0x2F852981A3ECC5FCD210770D72CD5DE38BDFEB PUSH5 0x736F6C6343 STOP ADDMOD XOR STOP CALLER "
        },
        "methodIdentifiers": {
          "DEFAULT_ADMIN_ROLE()": "a217fddf",
          "TREASURY()": "2d2c5565",
          "bestRouter(uint256,address,address)": "61ee1031",
          "getEquitoFee()": "5c42132e",
          "getPeer(uint256)": "67ebb6b2",
          "getRoleAdmin(bytes32)": "248a9ca3",
          "grantRole(bytes32,address)": "2f2ff15d",
          "hasRole(bytes32,address)": "91d14854",
          "owner()": "8da5cb5b",
          "pause()": "8456cb59",
          "paused()": "5c975abb",
          "peers(uint256)": "be4f3e8f",
          "receiveMessage((uint256,uint256,(bytes32,bytes32),uint256,(bytes32,bytes32),bytes32),bytes)": "879d182d",
          "renounceOwnership()": "715018a6",
          "renounceRole(bytes32,address)": "36568abe",
          "revokeRole(bytes32,address)": "d547741f",
          "setPeers(uint256[],(bytes32,bytes32)[])": "59a1aae1",
          "supportsInterface(bytes4)": "01ffc9a7",
          "swapETHToTokens(address,uint256,uint256)": "a4c021e9",
          "swapTokensToETH(address,uint256,uint256,uint256)": "4cbb4505",
          "swapTokensToTokens(address,uint256,address,uint256,uint256)": "a1e83209",
          "toBase64(address)": "ef88e0e1",
          "transferOwnership(address)": "f2fde38b",
          "unPause()": "f7b188a5",
          "updateExecutor(address)": "74936c16",
          "updateFactory(address)": "d9f165dc"
        }
      }
    }
  }
}