{
  "contracts/src/HoneyExecutor.sol": {
    "HoneyExecutor": {
      "abi": [
        {
          "inputs": [],
          "stateMutability": "nonpayable",
          "type": "constructor"
        },
        {
          "inputs": [],
          "name": "AccessControlBadConfirmation",
          "type": "error"
        },
        {
          "inputs": [
            {
              "internalType": "address",
              "name": "account",
              "type": "address"
            },
            {
              "internalType": "bytes32",
              "name": "neededRole",
              "type": "bytes32"
            }
          ],
          "name": "AccessControlUnauthorizedAccount",
          "type": "error"
        },
        {
          "inputs": [
            {
              "internalType": "uint256",
              "name": "amountOut",
              "type": "uint256"
            },
            {
              "internalType": "uint256",
              "name": "expectedAmountOut",
              "type": "uint256"
            }
          ],
          "name": "InsufficientOutputAmount",
          "type": "error"
        },
        {
          "anonymous": false,
          "inputs": [
            {
              "indexed": true,
              "internalType": "bytes32",
              "name": "role",
              "type": "bytes32"
            },
            {
              "indexed": true,
              "internalType": "bytes32",
              "name": "previousAdminRole",
              "type": "bytes32"
            },
            {
              "indexed": true,
              "internalType": "bytes32",
              "name": "newAdminRole",
              "type": "bytes32"
            }
          ],
          "name": "RoleAdminChanged",
          "type": "event"
        },
        {
          "anonymous": false,
          "inputs": [
            {
              "indexed": true,
              "internalType": "bytes32",
              "name": "role",
              "type": "bytes32"
            },
            {
              "indexed": true,
              "internalType": "address",
              "name": "account",
              "type": "address"
            },
            {
              "indexed": true,
              "internalType": "address",
              "name": "sender",
              "type": "address"
            }
          ],
          "name": "RoleGranted",
          "type": "event"
        },
        {
          "anonymous": false,
          "inputs": [
            {
              "indexed": true,
              "internalType": "bytes32",
              "name": "role",
              "type": "bytes32"
            },
            {
              "indexed": true,
              "internalType": "address",
              "name": "account",
              "type": "address"
            },
            {
              "indexed": true,
              "internalType": "address",
              "name": "sender",
              "type": "address"
            }
          ],
          "name": "RoleRevoked",
          "type": "event"
        },
        {
          "inputs": [],
          "name": "DEFAULT_ADMIN_ROLE",
          "outputs": [
            {
              "internalType": "bytes32",
              "name": "",
              "type": "bytes32"
            }
          ],
          "stateMutability": "view",
          "type": "function"
        },
        {
          "inputs": [
            {
              "internalType": "string",
              "name": "name",
              "type": "string"
            },
            {
              "internalType": "string",
              "name": "routerURI",
              "type": "string"
            },
            {
              "internalType": "address",
              "name": "routerId",
              "type": "address"
            }
          ],
          "name": "addRouter",
          "outputs": [],
          "stateMutability": "nonpayable",
          "type": "function"
        },
        {
          "inputs": [
            {
              "internalType": "uint256",
              "name": "amountIn",
              "type": "uint256"
            },
            {
              "internalType": "address",
              "name": "tokenIn",
              "type": "address"
            },
            {
              "internalType": "address",
              "name": "tokenOut",
              "type": "address"
            }
          ],
          "name": "bestRouter",
          "outputs": [
            {
              "internalType": "uint256",
              "name": "",
              "type": "uint256"
            },
            {
              "internalType": "address",
              "name": "",
              "type": "address"
            },
            {
              "components": [
                {
                  "internalType": "string",
                  "name": "name",
                  "type": "string"
                },
                {
                  "internalType": "string",
                  "name": "routerURI",
                  "type": "string"
                }
              ],
              "internalType": "struct IHoneyExecutor.Router",
              "name": "",
              "type": "tuple"
            }
          ],
          "stateMutability": "view",
          "type": "function"
        },
        {
          "inputs": [
            {
              "internalType": "bytes32",
              "name": "role",
              "type": "bytes32"
            }
          ],
          "name": "getRoleAdmin",
          "outputs": [
            {
              "internalType": "bytes32",
              "name": "",
              "type": "bytes32"
            }
          ],
          "stateMutability": "view",
          "type": "function"
        },
        {
          "inputs": [
            {
              "internalType": "address",
              "name": "routerId",
              "type": "address"
            }
          ],
          "name": "getRouter",
          "outputs": [
            {
              "components": [
                {
                  "internalType": "string",
                  "name": "name",
                  "type": "string"
                },
                {
                  "internalType": "string",
                  "name": "routerURI",
                  "type": "string"
                }
              ],
              "internalType": "struct IHoneyExecutor.Router",
              "name": "",
              "type": "tuple"
            }
          ],
          "stateMutability": "view",
          "type": "function"
        },
        {
          "inputs": [],
          "name": "getRouterCount",
          "outputs": [
            {
              "internalType": "uint256",
              "name": "",
              "type": "uint256"
            }
          ],
          "stateMutability": "view",
          "type": "function"
        },
        {
          "inputs": [
            {
              "internalType": "bytes32",
              "name": "role",
              "type": "bytes32"
            },
            {
              "internalType": "address",
              "name": "account",
              "type": "address"
            }
          ],
          "name": "grantRole",
          "outputs": [],
          "stateMutability": "nonpayable",
          "type": "function"
        },
        {
          "inputs": [
            {
              "internalType": "bytes32",
              "name": "role",
              "type": "bytes32"
            },
            {
              "internalType": "address",
              "name": "account",
              "type": "address"
            }
          ],
          "name": "hasRole",
          "outputs": [
            {
              "internalType": "bool",
              "name": "",
              "type": "bool"
            }
          ],
          "stateMutability": "view",
          "type": "function"
        },
        {
          "inputs": [
            {
              "internalType": "address",
              "name": "routerId",
              "type": "address"
            }
          ],
          "name": "removeRouter",
          "outputs": [],
          "stateMutability": "nonpayable",
          "type": "function"
        },
        {
          "inputs": [
            {
              "internalType": "bytes32",
              "name": "role",
              "type": "bytes32"
            },
            {
              "internalType": "address",
              "name": "callerConfirmation",
              "type": "address"
            }
          ],
          "name": "renounceRole",
          "outputs": [],
          "stateMutability": "nonpayable",
          "type": "function"
        },
        {
          "inputs": [
            {
              "internalType": "bytes32",
              "name": "role",
              "type": "bytes32"
            },
            {
              "internalType": "address",
              "name": "account",
              "type": "address"
            }
          ],
          "name": "revokeRole",
          "outputs": [],
          "stateMutability": "nonpayable",
          "type": "function"
        },
        {
          "inputs": [
            {
              "internalType": "uint256",
              "name": "",
              "type": "uint256"
            }
          ],
          "name": "routerIds",
          "outputs": [
            {
              "internalType": "address",
              "name": "",
              "type": "address"
            }
          ],
          "stateMutability": "view",
          "type": "function"
        },
        {
          "inputs": [
            {
              "internalType": "address",
              "name": "",
              "type": "address"
            }
          ],
          "name": "routers",
          "outputs": [
            {
              "internalType": "string",
              "name": "name",
              "type": "string"
            },
            {
              "internalType": "string",
              "name": "routerURI",
              "type": "string"
            }
          ],
          "stateMutability": "view",
          "type": "function"
        },
        {
          "inputs": [
            {
              "internalType": "bytes4",
              "name": "interfaceId",
              "type": "bytes4"
            }
          ],
          "name": "supportsInterface",
          "outputs": [
            {
              "internalType": "bool",
              "name": "",
              "type": "bool"
            }
          ],
          "stateMutability": "view",
          "type": "function"
        },
        {
          "inputs": [
            {
              "internalType": "address",
              "name": "tokenOut",
              "type": "address"
            },
            {
              "internalType": "uint256",
              "name": "amountOutMin",
              "type": "uint256"
            },
            {
              "internalType": "address",
              "name": "to",
              "type": "address"
            }
          ],
          "name": "swapETHToTokens",
          "outputs": [
            {
              "internalType": "uint256",
              "name": "",
              "type": "uint256"
            }
          ],
          "stateMutability": "payable",
          "type": "function"
        },
        {
          "inputs": [
            {
              "internalType": "address",
              "name": "tokenIn",
              "type": "address"
            },
            {
              "internalType": "uint256",
              "name": "amountIn",
              "type": "uint256"
            },
            {
              "internalType": "uint256",
              "name": "amountOutMin",
              "type": "uint256"
            },
            {
              "internalType": "address",
              "name": "to",
              "type": "address"
            }
          ],
          "name": "swapTokensToETH",
          "outputs": [
            {
              "internalType": "uint256",
              "name": "",
              "type": "uint256"
            }
          ],
          "stateMutability": "payable",
          "type": "function"
        },
        {
          "inputs": [
            {
              "internalType": "address",
              "name": "tokenIn",
              "type": "address"
            },
            {
              "internalType": "uint256",
              "name": "amountIn",
              "type": "uint256"
            },
            {
              "internalType": "address",
              "name": "tokenOut",
              "type": "address"
            },
            {
              "internalType": "uint256",
              "name": "amountOutMin",
              "type": "uint256"
            },
            {
              "internalType": "address",
              "name": "to",
              "type": "address"
            }
          ],
          "name": "swapTokensToTokens",
          "outputs": [
            {
              "internalType": "uint256",
              "name": "",
              "type": "uint256"
            }
          ],
          "stateMutability": "payable",
          "type": "function"
        }
      ],
      "evm": {
        "bytecode": {
          "linkReferences": {},
          "object": "6080604052346100225761001233610027565b506040516113f790816100b88239f35b600080fd5b6001600160a01b031660008181527fad3228b676f7d3cd4284a5443f17f1962b36e491b30a40b2405849e597ba5fb5602052604081205490919060ff166100b357818052816020526040822081835260205260408220600160ff1982541617905533917f2f8788117e7eff1d82e926ec794901d17c78024a50270940304540a733656f0d8180a4600190565b509056fe60806040908082526004918236101561001757600080fd5b600091823560e01c90816301ffc9a714610d1f57508063248a9ca314610cf55780632f2ff15d14610ccb57806336568abe14610c6d57806361ee103114610c095780636ae0b15414610af05780636ee4035d14610aae57806380dd9a1f14610a475780638369166d146109ef57806391d14854146109aa57806395eb0870146107b1578063a217fddf14610797578063a5be5f7a14610779578063b89eb11d1461047a578063d219d1f3146102bf578063d547741f1461027c5763fc7a6a23146100e057600080fd5b60a0366003190112610278576100f4610def565b9260243593610101610dd9565b916001600160a01b0360843581811693606435918590036102745761012786828b6112b0565b50929081811061025857505082169386519863095ea7b360e01b8a526020998a818061016c85888b8401602090939291936001600160a01b0360408201951681520152565b03818d8b5af1801561024e5792608495928c989795928c95610221575b50838b519a8b998a987f3f3f80c3000000000000000000000000000000000000000000000000000000008a5289015216602487015260448601526064850152165af19283156102165780936101e1575b505051908152f35b909192508382813d831161020f575b6101fa8183610f2b565b8101031261020c5750519038806101d9565b80fd5b503d6101f0565b8251903d90823e3d90fd5b610240908a3d8c11610247575b6102388183610f2b565b8101906110c5565b5038610189565b503d61022e565b89513d8c823e3d90fd5b60449186918a519263d28d3eb560e01b84528301526024820152fd5b8780fd5b5080fd5b508290346102bb57806003193601126102bb576102b791356102b260016102a1610dbe565b938387528660205286200154611195565b61123a565b5080f35b8280fd5b506060366003190112610278576102d4610def565b92602493602435916102e4610dd9565b926102ed611020565b508596869387946002546001600160a01b039384809416975b8281106103a057505050169182885260209860018a52610327888a20611099565b5081811061038457505091604491889493875196879586947fbed2d5e800000000000000000000000000000000000000000000000000000000865285015216602483015234905af19283156102165780936101e157505051908152f35b604491859189519263d28d3eb560e01b84528301526024820152fd5b90919293506103ae81610e72565b90546003918c5190632550332960e11b825273eeeeeeeeeeeeeeeeeeeeeeeeeeeeeeeeeeeeeeee8b8301528b86830152346044830152816064818b6020968795891b1c165afa91821561046e578e9261043c575b50508d811161041b575b50506001019084939291610306565b86919d5060019295509c61042e86610e72565b9054911b1c1693903861040c565b90809250813d8311610467575b6104538183610f2b565b8101031261046357513880610402565b8c80fd5b503d610449565b8e8e51903d90823e3d90fd5b50346102785760603660031901126102785767ffffffffffffffff908335828111610775576104ac9036908601610ff2565b602493919335828111610771576104c96104f99136908901610ff2565b6104f06104d4610dd9565b976104dd611124565b8751956104e987610ef9565b36916110dd565b845236916110dd565b916020918281019384526001600160a01b03861687526001948584528720905190815183811161075e579086916105308254610ebf565b93601f94858111610732575b5086908583116001146106d05761056b92918c918361061b575b50508160011b916000199060031b1c19161790565b81555b0193519283519283116106bd576105858554610ebf565b828111610687575b5080918311600114610626575081906105bb93889261061b5750508160011b916000199060031b1c19161790565b90555b600254906801000000000000000082101561060857816105e691610605949301600255610e72565b9091906001600160a01b038084549260031b9316831b921b1916179055565b80f35b602484604187634e487b7160e01b835252fd5b015190503880610556565b908593601f198416868a52838a20938a905b82821061066e5750508411610655575b505050811b0190556105be565b015160001960f88460031b161c19169055388080610648565b8484015186558997909501949384019390810190610638565b6106ae90868a52828a208480870160051c8201928588106106b4575b0160051c0190611039565b3861058d565b925081926106a3565b60248860418b634e487b7160e01b835252fd5b838c52878c209190601f1984168d5b8a82821061071c5750509084879594939210610703575b505050811b01815561056e565b015160001960f88460031b161c191690553880806106f6565b8385015186558d989095019493840193016106df565b61075890848d52888d208780860160051c8201928b87106106b4570160051c0190611039565b3861053c565b60248960418c634e487b7160e01b835252fd5b8580fd5b8380fd5b50346102785781600319360112610278576020906002549051908152f35b503461027857816003193601126102785751908152602090f35b506080366003190112610278576107c6610def565b6024359060443594606435956001600160a01b03968781168091036109a6576107ed611020565b50869787908895816002549116965b8181106108e557505081169283895260209960018b5261081d898b20611099565b50818110610258575050865163095ea7b360e01b81526001600160a01b039091168482019081526020810187905289908290819060400103818b895af180156108db57928995949289926064956108be575b50885197889687957f796449dd000000000000000000000000000000000000000000000000000000008752860152602485015260448401525af19283156102165780936101e157505051908152f35b6108d490883d8a11610247576102388183610f2b565b503861086f565b87513d8a823e3d90fd5b6108ee81610e72565b90546003918c5190632550332960e11b82528b8b83015273eeeeeeeeeeeeeeeeeeeeeeeeeeeeeeeeeeeeeeee60248301528c604483015281606481896020968795891b1c165afa91821561046e578e92610978575b50508d8111610957575b50506001016107fc565b84919d5060019295509c61096a86610e72565b9054911b1c1693903861094d565b90809250813d831161099f575b61098f8183610f2b565b8101031261046357513880610943565b503d610985565b8680fd5b5082346102bb57816003193601126102bb578160209360ff926109cb610dbe565b903582528186526001600160a01b0383832091168252855220541690519015158152f35b503461027857602036600319011261027857610a3081610a43936001600160a01b03610a19610def565b610a21611020565b50168152600160205220611099565b9051918291602083526020830190610e45565b0390f35b50346102785760203660031901126102785780916001600160a01b03610a6b610def565b16815260016020522090610a43610a8d6001610a8685610f4d565b9401610f4d565b610aa08351948486958652850190610e05565b908382036020850152610e05565b5082346102bb5760203660031901126102bb57359160025483101561020c57506001600160a01b03610ae1602093610e72565b92905490519260031b1c168152f35b508290346102bb5760203660031901126102bb57600191610b0f610def565b90610b18611124565b6001600160a01b03809216808652610b41858695816020528820610b3b81611050565b01611050565b85945b610b4c578580f35b600280549081871015610c0357849183610b6589610e72565b949054600395861b1c1614610b81575050508380950194610b44565b93925094509460001992838101908111610bf057906105e685610ba6610bb394610e72565b9054908a1b1c1691610e72565b8354908115610bdd57500192610bc884610e72565b81939154921b1b191690555581808080808580f35b866031602492634e487b7160e01b835252fd5b602488601185634e487b7160e01b835252fd5b50508580f35b5091903461020c57606036600319011261020c5750610a43610c47606092610c2f610dbe565b610c37610dd9565b91610c40611020565b50356112b0565b919390946001600160a01b03815196879687521660208601528401526060830190610e45565b5034610278578060031936011261027857610c86610dbe565b90336001600160a01b03831603610ca357506102b791923561123a565b8390517f6697b232000000000000000000000000000000000000000000000000000000008152fd5b508290346102bb57806003193601126102bb576102b79135610cf060016102a1610dbe565b6111bb565b5082346102bb5760203660031901126102bb57816020936001923581528085522001549051908152f35b839085346102bb5760203660031901126102bb57357fffffffff0000000000000000000000000000000000000000000000000000000081168091036102bb57602092507f7965db0b000000000000000000000000000000000000000000000000000000008114908115610d94575b5015158152f35b7f01ffc9a70000000000000000000000000000000000000000000000000000000091501483610d8d565b602435906001600160a01b0382168203610dd457565b600080fd5b604435906001600160a01b0382168203610dd457565b600435906001600160a01b0382168203610dd457565b919082519283825260005b848110610e31575050826000602080949584010152601f8019910116010190565b602081830181015184830182015201610e10565b610e6f916020610e5e8351604084526040840190610e05565b920151906020818403910152610e05565b90565b600254811015610ea95760026000527f405787fa12a823e0f2b7631cc41b3ba8828b3321ca811111fa75cd3aa3bb5ace0190600090565b634e487b7160e01b600052603260045260246000fd5b90600182811c92168015610eef575b6020831014610ed957565b634e487b7160e01b600052602260045260246000fd5b91607f1691610ece565b6040810190811067ffffffffffffffff821117610f1557604052565b634e487b7160e01b600052604160045260246000fd5b90601f8019910116810190811067ffffffffffffffff821117610f1557604052565b90604051918260008254610f6081610ebf565b90818452602094600191600181169081600014610fd05750600114610f91575b505050610f8f92500383610f2b565b565b600090815285812095935091905b818310610fb8575050610f8f9350820101388080610f80565b85548884018501529485019487945091830191610f9f565b92505050610f8f94925060ff191682840152151560051b820101388080610f80565b9181601f84011215610dd45782359167ffffffffffffffff8311610dd45760208381860195010111610dd457565b6040519061102d82610ef9565b60606020838281520152565b818110611044575050565b60008155600101611039565b61105a8154610ebf565b9081611064575050565b81601f60009311600114611076575055565b908083918252611095601f60208420940160051c840160018501611039565b5555565b906040516110a681610ef9565b60206110c0600183956110b881610f4d565b855201610f4d565b910152565b90816020910312610dd457518015158103610dd45790565b92919267ffffffffffffffff8211610f155760405191611107601f8201601f191660200184610f2b565b829481845281830111610dd4578281602093846000960137010152565b3360009081527fad3228b676f7d3cd4284a5443f17f1962b36e491b30a40b2405849e597ba5fb5602052604081205460ff161561115e5750565b604490604051907fe2517d3f0000000000000000000000000000000000000000000000000000000082523360048301526024820152fd5b80600052600060205260406000203360005260205260ff604060002054161561115e5750565b90600091808352826020526001600160a01b036040842092169182845260205260ff6040842054161560001461123557808352826020526040832082845260205260408320600160ff198254161790557f2f8788117e7eff1d82e926ec794901d17c78024a50270940304540a733656f0d339380a4600190565b505090565b90600091808352826020526001600160a01b036040842092169182845260205260ff6040842054166000146112355780835282602052604083208284526020526040832060ff1981541690557ff6391f5c32d9c69d2a47ea670b442974b53935d1edc7fd64eb21e047a839171b339380a4600190565b919290926112bc611020565b506002546000948594855b8381106112f55750505050506001600160a01b0383166000526001602052610e6f6040600020929392611099565b6112fe81610e72565b906001600160a01b03905491600392604090815192632550332960e11b84528489166004850152848b166024850152876044850152836064818760209586958b1b1c165afa9182156113b7575060009161138b575b509050898111611369575b5050506001016112c7565b9091985060019299509761137c8a610e72565b9054911b1c169790388061135e565b82813d83116113b0575b61139f8183610f2b565b8101031261020c5750518038611353565b503d611395565b513d6000823e3d90fdfea2646970667358221220d2a266759921d44505b49b73971d6805d7fb383d107b7e8087dc20f1f8ddf69e64736f6c63430008180033",
          "opcodes": "PUSH1 0x80 PUSH1 0x40 MSTORE CALLVALUE PUSH2 0x22 JUMPI PUSH2 0x12 CALLER PUSH2 0x27 JUMP JUMPDEST POP PUSH1 0x40 MLOAD PUSH2 0x13F7 SWAP1 DUP2 PUSH2 0xB8 DUP3 CODECOPY RETURN JUMPDEST PUSH1 0x0 DUP1 REVERT JUMPDEST PUSH1 0x1 PUSH1 0x1 PUSH1 0xA0 SHL SUB AND PUSH1 0x0 DUP2 DUP2 MSTORE PUSH32 0xAD3228B676F7D3CD4284A5443F17F1962B36E491B30A40B2405849E597BA5FB5 PUSH1 0x20 MSTORE PUSH1 0x40 DUP2 KECCAK256 SLOAD SWAP1 SWAP2 SWAP1 PUSH1 0xFF AND PUSH2 0xB3 JUMPI DUP2 DUP1 MSTORE DUP2 PUSH1 0x20 MSTORE PUSH1 0x40 DUP3 KECCAK256 DUP2 DUP4 MSTORE PUSH1 0x20 MSTORE PUSH1 0x40 DUP3 KECCAK256 PUSH1 0x1 PUSH1 0xFF NOT DUP3 SLOAD AND OR SWAP1 SSTORE CALLER SWAP2 PUSH32 0x2F8788117E7EFF1D82E926EC794901D17C78024A50270940304540A733656F0D DUP2 DUP1 LOG4 PUSH1 0x1 SWAP1 JUMP JUMPDEST POP SWAP1 JUMP INVALID PUSH1 0x80 PUSH1 0x40 SWAP1 DUP1 DUP3 MSTORE PUSH1 0x4 SWAP2 DUP3 CALLDATASIZE LT ISZERO PUSH2 0x17 JUMPI PUSH1 0x0 DUP1 REVERT JUMPDEST PUSH1 0x0 SWAP2 DUP3 CALLDATALOAD PUSH1 0xE0 SHR SWAP1 DUP2 PUSH4 0x1FFC9A7 EQ PUSH2 0xD1F JUMPI POP DUP1 PUSH4 0x248A9CA3 EQ PUSH2 0xCF5 JUMPI DUP1 PUSH4 0x2F2FF15D EQ PUSH2 0xCCB JUMPI DUP1 PUSH4 0x36568ABE EQ PUSH2 0xC6D JUMPI DUP1 PUSH4 0x61EE1031 EQ PUSH2 0xC09 JUMPI DUP1 PUSH4 0x6AE0B154 EQ PUSH2 0xAF0 JUMPI DUP1 PUSH4 0x6EE4035D EQ PUSH2 0xAAE JUMPI DUP1 PUSH4 0x80DD9A1F EQ PUSH2 0xA47 JUMPI DUP1 PUSH4 0x8369166D EQ PUSH2 0x9EF JUMPI DUP1 PUSH4 0x91D14854 EQ PUSH2 0x9AA JUMPI DUP1 PUSH4 0x95EB0870 EQ PUSH2 0x7B1 JUMPI DUP1 PUSH4 0xA217FDDF EQ PUSH2 0x797 JUMPI DUP1 PUSH4 0xA5BE5F7A EQ PUSH2 0x779 JUMPI DUP1 PUSH4 0xB89EB11D EQ PUSH2 0x47A JUMPI DUP1 PUSH4 0xD219D1F3 EQ PUSH2 0x2BF JUMPI DUP1 PUSH4 0xD547741F EQ PUSH2 0x27C JUMPI PUSH4 0xFC7A6A23 EQ PUSH2 0xE0 JUMPI PUSH1 0x0 DUP1 REVERT JUMPDEST PUSH1 0xA0 CALLDATASIZE PUSH1 0x3 NOT ADD SLT PUSH2 0x278 JUMPI PUSH2 0xF4 PUSH2 0xDEF JUMP JUMPDEST SWAP3 PUSH1 0x24 CALLDATALOAD SWAP4 PUSH2 0x101 PUSH2 0xDD9 JUMP JUMPDEST SWAP2 PUSH1 0x1 PUSH1 0x1 PUSH1 0xA0 SHL SUB PUSH1 0x84 CALLDATALOAD DUP2 DUP2 AND SWAP4 PUSH1 0x64 CALLDATALOAD SWAP2 DUP6 SWAP1 SUB PUSH2 0x274 JUMPI PUSH2 0x127 DUP7 DUP3 DUP12 PUSH2 0x12B0 JUMP JUMPDEST POP SWAP3 SWAP1 DUP2 DUP2 LT PUSH2 0x258 JUMPI POP POP DUP3 AND SWAP4 DUP7 MLOAD SWAP9 PUSH4 0x95EA7B3 PUSH1 0xE0 SHL DUP11 MSTORE PUSH1 0x20 SWAP10 DUP11 DUP2 DUP1 PUSH2 0x16C DUP6 DUP9 DUP12 DUP5 ADD PUSH1 0x20 SWAP1 SWAP4 SWAP3 SWAP2 SWAP4 PUSH1 0x1 PUSH1 0x1 PUSH1 0xA0 SHL SUB PUSH1 0x40 DUP3 ADD SWAP6 AND DUP2 MSTORE ADD MSTORE JUMP JUMPDEST SUB DUP2 DUP14 DUP12 GAS CALL DUP1 ISZERO PUSH2 0x24E JUMPI SWAP3 PUSH1 0x84 SWAP6 SWAP3 DUP13 SWAP9 SWAP8 SWAP6 SWAP3 DUP13 SWAP6 PUSH2 0x221 JUMPI JUMPDEST POP DUP4 DUP12 MLOAD SWAP11 DUP12 SWAP10 DUP11 SWAP9 PUSH32 0x3F3F80C300000000000000000000000000000000000000000000000000000000 DUP11 MSTORE DUP10 ADD MSTORE AND PUSH1 0x24 DUP8 ADD MSTORE PUSH1 0x44 DUP7 ADD MSTORE PUSH1 0x64 DUP6 ADD MSTORE AND GAS CALL SWAP3 DUP4 ISZERO PUSH2 0x216 JUMPI DUP1 SWAP4 PUSH2 0x1E1 JUMPI JUMPDEST POP POP MLOAD SWAP1 DUP2 MSTORE RETURN JUMPDEST SWAP1 SWAP2 SWAP3 POP DUP4 DUP3 DUP2 RETURNDATASIZE DUP4 GT PUSH2 0x20F JUMPI JUMPDEST PUSH2 0x1FA DUP2 DUP4 PUSH2 0xF2B JUMP JUMPDEST DUP2 ADD SUB SLT PUSH2 0x20C JUMPI POP MLOAD SWAP1 CODESIZE DUP1 PUSH2 0x1D9 JUMP JUMPDEST DUP1 REVERT JUMPDEST POP RETURNDATASIZE PUSH2 0x1F0 JUMP JUMPDEST DUP3 MLOAD SWAP1 RETURNDATASIZE SWAP1 DUP3 RETURNDATACOPY RETURNDATASIZE SWAP1 REVERT JUMPDEST PUSH2 0x240 SWAP1 DUP11 RETURNDATASIZE DUP13 GT PUSH2 0x247 JUMPI JUMPDEST PUSH2 0x238 DUP2 DUP4 PUSH2 0xF2B JUMP JUMPDEST DUP2 ADD SWAP1 PUSH2 0x10C5 JUMP JUMPDEST POP CODESIZE PUSH2 0x189 JUMP JUMPDEST POP RETURNDATASIZE PUSH2 0x22E JUMP JUMPDEST DUP10 MLOAD RETURNDATASIZE DUP13 DUP3 RETURNDATACOPY RETURNDATASIZE SWAP1 REVERT JUMPDEST PUSH1 0x44 SWAP2 DUP7 SWAP2 DUP11 MLOAD SWAP3 PUSH4 0xD28D3EB5 PUSH1 0xE0 SHL DUP5 MSTORE DUP4 ADD MSTORE PUSH1 0x24 DUP3 ADD MSTORE REVERT JUMPDEST DUP8 DUP1 REVERT JUMPDEST POP DUP1 REVERT JUMPDEST POP DUP3 SWAP1 CALLVALUE PUSH2 0x2BB JUMPI DUP1 PUSH1 0x3 NOT CALLDATASIZE ADD SLT PUSH2 0x2BB JUMPI PUSH2 0x2B7 SWAP2 CALLDATALOAD PUSH2 0x2B2 PUSH1 0x1 PUSH2 0x2A1 PUSH2 0xDBE JUMP JUMPDEST SWAP4 DUP4 DUP8 MSTORE DUP7 PUSH1 0x20 MSTORE DUP7 KECCAK256 ADD SLOAD PUSH2 0x1195 JUMP JUMPDEST PUSH2 0x123A JUMP JUMPDEST POP DUP1 RETURN JUMPDEST DUP3 DUP1 REVERT JUMPDEST POP PUSH1 0x60 CALLDATASIZE PUSH1 0x3 NOT ADD SLT PUSH2 0x278 JUMPI PUSH2 0x2D4 PUSH2 0xDEF JUMP JUMPDEST SWAP3 PUSH1 0x24 SWAP4 PUSH1 0x24 CALLDATALOAD SWAP2 PUSH2 0x2E4 PUSH2 0xDD9 JUMP JUMPDEST SWAP3 PUSH2 0x2ED PUSH2 0x1020 JUMP JUMPDEST POP DUP6 SWAP7 DUP7 SWAP4 DUP8 SWAP5 PUSH1 0x2 SLOAD PUSH1 0x1 PUSH1 0x1 PUSH1 0xA0 SHL SUB SWAP4 DUP5 DUP1 SWAP5 AND SWAP8 JUMPDEST DUP3 DUP2 LT PUSH2 0x3A0 JUMPI POP POP POP AND SWAP2 DUP3 DUP9 MSTORE PUSH1 0x20 SWAP9 PUSH1 0x1 DUP11 MSTORE PUSH2 0x327 DUP9 DUP11 KECCAK256 PUSH2 0x1099 JUMP JUMPDEST POP DUP2 DUP2 LT PUSH2 0x384 JUMPI POP POP SWAP2 PUSH1 0x44 SWAP2 DUP9 SWAP5 SWAP4 DUP8 MLOAD SWAP7 DUP8 SWAP6 DUP7 SWAP5 PUSH32 0xBED2D5E800000000000000000000000000000000000000000000000000000000 DUP7 MSTORE DUP6 ADD MSTORE AND PUSH1 0x24 DUP4 ADD MSTORE CALLVALUE SWAP1 GAS CALL SWAP3 DUP4 ISZERO PUSH2 0x216 JUMPI DUP1 SWAP4 PUSH2 0x1E1 JUMPI POP POP MLOAD SWAP1 DUP2 MSTORE RETURN JUMPDEST PUSH1 0x44 SWAP2 DUP6 SWAP2 DUP10 MLOAD SWAP3 PUSH4 0xD28D3EB5 PUSH1 0xE0 SHL DUP5 MSTORE DUP4 ADD MSTORE PUSH1 0x24 DUP3 ADD MSTORE REVERT JUMPDEST SWAP1 SWAP2 SWAP3 SWAP4 POP PUSH2 0x3AE DUP2 PUSH2 0xE72 JUMP JUMPDEST SWAP1 SLOAD PUSH1 0x3 SWAP2 DUP13 MLOAD SWAP1 PUSH4 0x25503329 PUSH1 0xE1 SHL DUP3 MSTORE PUSH20 0xEEEEEEEEEEEEEEEEEEEEEEEEEEEEEEEEEEEEEEEE DUP12 DUP4 ADD MSTORE DUP12 DUP7 DUP4 ADD MSTORE CALLVALUE PUSH1 0x44 DUP4 ADD MSTORE DUP2 PUSH1 0x64 DUP2 DUP12 PUSH1 0x20 SWAP7 DUP8 SWAP6 DUP10 SHL SHR AND GAS STATICCALL SWAP2 DUP3 ISZERO PUSH2 0x46E JUMPI DUP15 SWAP3 PUSH2 0x43C JUMPI JUMPDEST POP POP DUP14 DUP2 GT PUSH2 0x41B JUMPI JUMPDEST POP POP PUSH1 0x1 ADD SWAP1 DUP5 SWAP4 SWAP3 SWAP2 PUSH2 0x306 JUMP JUMPDEST DUP7 SWAP2 SWAP14 POP PUSH1 0x1 SWAP3 SWAP6 POP SWAP13 PUSH2 0x42E DUP7 PUSH2 0xE72 JUMP JUMPDEST SWAP1 SLOAD SWAP2 SHL SHR AND SWAP4 SWAP1 CODESIZE PUSH2 0x40C JUMP JUMPDEST SWAP1 DUP1 SWAP3 POP DUP2 RETURNDATASIZE DUP4 GT PUSH2 0x467 JUMPI JUMPDEST PUSH2 0x453 DUP2 DUP4 PUSH2 0xF2B JUMP JUMPDEST DUP2 ADD SUB SLT PUSH2 0x463 JUMPI MLOAD CODESIZE DUP1 PUSH2 0x402 JUMP JUMPDEST DUP13 DUP1 REVERT JUMPDEST POP RETURNDATASIZE PUSH2 0x449 JUMP JUMPDEST DUP15 DUP15 MLOAD SWAP1 RETURNDATASIZE SWAP1 DUP3 RETURNDATACOPY RETURNDATASIZE SWAP1 REVERT JUMPDEST POP CALLVALUE PUSH2 0x278 JUMPI PUSH1 0x60 CALLDATASIZE PUSH1 0x3 NOT ADD SLT PUSH2 0x278 JUMPI PUSH8 0xFFFFFFFFFFFFFFFF SWAP1 DUP4 CALLDATALOAD DUP3 DUP2 GT PUSH2 0x775 JUMPI PUSH2 0x4AC SWAP1 CALLDATASIZE SWAP1 DUP7 ADD PUSH2 0xFF2 JUMP JUMPDEST PUSH1 0x24 SWAP4 SWAP2 SWAP4 CALLDATALOAD DUP3 DUP2 GT PUSH2 0x771 JUMPI PUSH2 0x4C9 PUSH2 0x4F9 SWAP2 CALLDATASIZE SWAP1 DUP10 ADD PUSH2 0xFF2 JUMP JUMPDEST PUSH2 0x4F0 PUSH2 0x4D4 PUSH2 0xDD9 JUMP JUMPDEST SWAP8 PUSH2 0x4DD PUSH2 0x1124 JUMP JUMPDEST DUP8 MLOAD SWAP6 PUSH2 0x4E9 DUP8 PUSH2 0xEF9 JUMP JUMPDEST CALLDATASIZE SWAP2 PUSH2 0x10DD JUMP JUMPDEST DUP5 MSTORE CALLDATASIZE SWAP2 PUSH2 0x10DD JUMP JUMPDEST SWAP2 PUSH1 0x20 SWAP2 DUP3 DUP2 ADD SWAP4 DUP5 MSTORE PUSH1 0x1 PUSH1 0x1 PUSH1 0xA0 SHL SUB DUP7 AND DUP8 MSTORE PUSH1 0x1 SWAP5 DUP6 DUP5 MSTORE DUP8 KECCAK256 SWAP1 MLOAD SWAP1 DUP2 MLOAD DUP4 DUP2 GT PUSH2 0x75E JUMPI SWAP1 DUP7 SWAP2 PUSH2 0x530 DUP3 SLOAD PUSH2 0xEBF JUMP JUMPDEST SWAP4 PUSH1 0x1F SWAP5 DUP6 DUP2 GT PUSH2 0x732 JUMPI JUMPDEST POP DUP7 SWAP1 DUP6 DUP4 GT PUSH1 0x1 EQ PUSH2 0x6D0 JUMPI PUSH2 0x56B SWAP3 SWAP2 DUP13 SWAP2 DUP4 PUSH2 0x61B JUMPI JUMPDEST POP POP DUP2 PUSH1 0x1 SHL SWAP2 PUSH1 0x0 NOT SWAP1 PUSH1 0x3 SHL SHR NOT AND OR SWAP1 JUMP JUMPDEST DUP2 SSTORE JUMPDEST ADD SWAP4 MLOAD SWAP3 DUP4 MLOAD SWAP3 DUP4 GT PUSH2 0x6BD JUMPI PUSH2 0x585 DUP6 SLOAD PUSH2 0xEBF JUMP JUMPDEST DUP3 DUP2 GT PUSH2 0x687 JUMPI JUMPDEST POP DUP1 SWAP2 DUP4 GT PUSH1 0x1 EQ PUSH2 0x626 JUMPI POP DUP2 SWAP1 PUSH2 0x5BB SWAP4 DUP9 SWAP3 PUSH2 0x61B JUMPI POP POP DUP2 PUSH1 0x1 SHL SWAP2 PUSH1 0x0 NOT SWAP1 PUSH1 0x3 SHL SHR NOT AND OR SWAP1 JUMP JUMPDEST SWAP1 SSTORE JUMPDEST PUSH1 0x2 SLOAD SWAP1 PUSH9 0x10000000000000000 DUP3 LT ISZERO PUSH2 0x608 JUMPI DUP2 PUSH2 0x5E6 SWAP2 PUSH2 0x605 SWAP5 SWAP4 ADD PUSH1 0x2 SSTORE PUSH2 0xE72 JUMP JUMPDEST SWAP1 SWAP2 SWAP1 PUSH1 0x1 PUSH1 0x1 PUSH1 0xA0 SHL SUB DUP1 DUP5 SLOAD SWAP3 PUSH1 0x3 SHL SWAP4 AND DUP4 SHL SWAP3 SHL NOT AND OR SWAP1 SSTORE JUMP JUMPDEST DUP1 RETURN JUMPDEST PUSH1 0x24 DUP5 PUSH1 0x41 DUP8 PUSH4 0x4E487B71 PUSH1 0xE0 SHL DUP4 MSTORE MSTORE REVERT JUMPDEST ADD MLOAD SWAP1 POP CODESIZE DUP1 PUSH2 0x556 JUMP JUMPDEST SWAP1 DUP6 SWAP4 PUSH1 0x1F NOT DUP5 AND DUP7 DUP11 MSTORE DUP4 DUP11 KECCAK256 SWAP4 DUP11 SWAP1 JUMPDEST DUP3 DUP3 LT PUSH2 0x66E JUMPI POP POP DUP5 GT PUSH2 0x655 JUMPI JUMPDEST POP POP POP DUP2 SHL ADD SWAP1 SSTORE PUSH2 0x5BE JUMP JUMPDEST ADD MLOAD PUSH1 0x0 NOT PUSH1 0xF8 DUP5 PUSH1 0x3 SHL AND SHR NOT AND SWAP1 SSTORE CODESIZE DUP1 DUP1 PUSH2 0x648 JUMP JUMPDEST DUP5 DUP5 ADD MLOAD DUP7 SSTORE DUP10 SWAP8 SWAP1 SWAP6 ADD SWAP5 SWAP4 DUP5 ADD SWAP4 SWAP1 DUP2 ADD SWAP1 PUSH2 0x638 JUMP JUMPDEST PUSH2 0x6AE SWAP1 DUP7 DUP11 MSTORE DUP3 DUP11 KECCAK256 DUP5 DUP1 DUP8 ADD PUSH1 0x5 SHR DUP3 ADD SWAP3 DUP6 DUP9 LT PUSH2 0x6B4 JUMPI JUMPDEST ADD PUSH1 0x5 SHR ADD SWAP1 PUSH2 0x1039 JUMP JUMPDEST CODESIZE PUSH2 0x58D JUMP JUMPDEST SWAP3 POP DUP2 SWAP3 PUSH2 0x6A3 JUMP JUMPDEST PUSH1 0x24 DUP9 PUSH1 0x41 DUP12 PUSH4 0x4E487B71 PUSH1 0xE0 SHL DUP4 MSTORE MSTORE REVERT JUMPDEST DUP4 DUP13 MSTORE DUP8 DUP13 KECCAK256 SWAP2 SWAP1 PUSH1 0x1F NOT DUP5 AND DUP14 JUMPDEST DUP11 DUP3 DUP3 LT PUSH2 0x71C JUMPI POP POP SWAP1 DUP5 DUP8 SWAP6 SWAP5 SWAP4 SWAP3 LT PUSH2 0x703 JUMPI JUMPDEST POP POP POP DUP2 SHL ADD DUP2 SSTORE PUSH2 0x56E JUMP JUMPDEST ADD MLOAD PUSH1 0x0 NOT PUSH1 0xF8 DUP5 PUSH1 0x3 SHL AND SHR NOT AND SWAP1 SSTORE CODESIZE DUP1 DUP1 PUSH2 0x6F6 JUMP JUMPDEST DUP4 DUP6 ADD MLOAD DUP7 SSTORE DUP14 SWAP9 SWAP1 SWAP6 ADD SWAP5 SWAP4 DUP5 ADD SWAP4 ADD PUSH2 0x6DF JUMP JUMPDEST PUSH2 0x758 SWAP1 DUP5 DUP14 MSTORE DUP9 DUP14 KECCAK256 DUP8 DUP1 DUP7 ADD PUSH1 0x5 SHR DUP3 ADD SWAP3 DUP12 DUP8 LT PUSH2 0x6B4 JUMPI ADD PUSH1 0x5 SHR ADD SWAP1 PUSH2 0x1039 JUMP JUMPDEST CODESIZE PUSH2 0x53C JUMP JUMPDEST PUSH1 0x24 DUP10 PUSH1 0x41 DUP13 PUSH4 0x4E487B71 PUSH1 0xE0 SHL DUP4 MSTORE MSTORE REVERT JUMPDEST DUP6 DUP1 REVERT JUMPDEST DUP4 DUP1 REVERT JUMPDEST POP CALLVALUE PUSH2 0x278 JUMPI DUP2 PUSH1 0x3 NOT CALLDATASIZE ADD SLT PUSH2 0x278 JUMPI PUSH1 0x20 SWAP1 PUSH1 0x2 SLOAD SWAP1 MLOAD SWAP1 DUP2 MSTORE RETURN JUMPDEST POP CALLVALUE PUSH2 0x278 JUMPI DUP2 PUSH1 0x3 NOT CALLDATASIZE ADD SLT PUSH2 0x278 JUMPI MLOAD SWAP1 DUP2 MSTORE PUSH1 0x20 SWAP1 RETURN JUMPDEST POP PUSH1 0x80 CALLDATASIZE PUSH1 0x3 NOT ADD SLT PUSH2 0x278 JUMPI PUSH2 0x7C6 PUSH2 0xDEF JUMP JUMPDEST PUSH1 0x24 CALLDATALOAD SWAP1 PUSH1 0x44 CALLDATALOAD SWAP5 PUSH1 0x64 CALLDATALOAD SWAP6 PUSH1 0x1 PUSH1 0x1 PUSH1 0xA0 SHL SUB SWAP7 DUP8 DUP2 AND DUP1 SWAP2 SUB PUSH2 0x9A6 JUMPI PUSH2 0x7ED PUSH2 0x1020 JUMP JUMPDEST POP DUP7 SWAP8 DUP8 SWAP1 DUP9 SWAP6 DUP2 PUSH1 0x2 SLOAD SWAP2 AND SWAP7 JUMPDEST DUP2 DUP2 LT PUSH2 0x8E5 JUMPI POP POP DUP2 AND SWAP3 DUP4 DUP10 MSTORE PUSH1 0x20 SWAP10 PUSH1 0x1 DUP12 MSTORE PUSH2 0x81D DUP10 DUP12 KECCAK256 PUSH2 0x1099 JUMP JUMPDEST POP DUP2 DUP2 LT PUSH2 0x258 JUMPI POP POP DUP7 MLOAD PUSH4 0x95EA7B3 PUSH1 0xE0 SHL DUP2 MSTORE PUSH1 0x1 PUSH1 0x1 PUSH1 0xA0 SHL SUB SWAP1 SWAP2 AND DUP5 DUP3 ADD SWAP1 DUP2 MSTORE PUSH1 0x20 DUP2 ADD DUP8 SWAP1 MSTORE DUP10 SWAP1 DUP3 SWAP1 DUP2 SWAP1 PUSH1 0x40 ADD SUB DUP2 DUP12 DUP10 GAS CALL DUP1 ISZERO PUSH2 0x8DB JUMPI SWAP3 DUP10 SWAP6 SWAP5 SWAP3 DUP10 SWAP3 PUSH1 0x64 SWAP6 PUSH2 0x8BE JUMPI JUMPDEST POP DUP9 MLOAD SWAP8 DUP9 SWAP7 DUP8 SWAP6 PUSH32 0x796449DD00000000000000000000000000000000000000000000000000000000 DUP8 MSTORE DUP7 ADD MSTORE PUSH1 0x24 DUP6 ADD MSTORE PUSH1 0x44 DUP5 ADD MSTORE GAS CALL SWAP3 DUP4 ISZERO PUSH2 0x216 JUMPI DUP1 SWAP4 PUSH2 0x1E1 JUMPI POP POP MLOAD SWAP1 DUP2 MSTORE RETURN JUMPDEST PUSH2 0x8D4 SWAP1 DUP9 RETURNDATASIZE DUP11 GT PUSH2 0x247 JUMPI PUSH2 0x238 DUP2 DUP4 PUSH2 0xF2B JUMP JUMPDEST POP CODESIZE PUSH2 0x86F JUMP JUMPDEST DUP8 MLOAD RETURNDATASIZE DUP11 DUP3 RETURNDATACOPY RETURNDATASIZE SWAP1 REVERT JUMPDEST PUSH2 0x8EE DUP2 PUSH2 0xE72 JUMP JUMPDEST SWAP1 SLOAD PUSH1 0x3 SWAP2 DUP13 MLOAD SWAP1 PUSH4 0x25503329 PUSH1 0xE1 SHL DUP3 MSTORE DUP12 DUP12 DUP4 ADD MSTORE PUSH20 0xEEEEEEEEEEEEEEEEEEEEEEEEEEEEEEEEEEEEEEEE PUSH1 0x24 DUP4 ADD MSTORE DUP13 PUSH1 0x44 DUP4 ADD MSTORE DUP2 PUSH1 0x64 DUP2 DUP10 PUSH1 0x20 SWAP7 DUP8 SWAP6 DUP10 SHL SHR AND GAS STATICCALL SWAP2 DUP3 ISZERO PUSH2 0x46E JUMPI DUP15 SWAP3 PUSH2 0x978 JUMPI JUMPDEST POP POP DUP14 DUP2 GT PUSH2 0x957 JUMPI JUMPDEST POP POP PUSH1 0x1 ADD PUSH2 0x7FC JUMP JUMPDEST DUP5 SWAP2 SWAP14 POP PUSH1 0x1 SWAP3 SWAP6 POP SWAP13 PUSH2 0x96A DUP7 PUSH2 0xE72 JUMP JUMPDEST SWAP1 SLOAD SWAP2 SHL SHR AND SWAP4 SWAP1 CODESIZE PUSH2 0x94D JUMP JUMPDEST SWAP1 DUP1 SWAP3 POP DUP2 RETURNDATASIZE DUP4 GT PUSH2 0x99F JUMPI JUMPDEST PUSH2 0x98F DUP2 DUP4 PUSH2 0xF2B JUMP JUMPDEST DUP2 ADD SUB SLT PUSH2 0x463 JUMPI MLOAD CODESIZE DUP1 PUSH2 0x943 JUMP JUMPDEST POP RETURNDATASIZE PUSH2 0x985 JUMP JUMPDEST DUP7 DUP1 REVERT JUMPDEST POP DUP3 CALLVALUE PUSH2 0x2BB JUMPI DUP2 PUSH1 0x3 NOT CALLDATASIZE ADD SLT PUSH2 0x2BB JUMPI DUP2 PUSH1 0x20 SWAP4 PUSH1 0xFF SWAP3 PUSH2 0x9CB PUSH2 0xDBE JUMP JUMPDEST SWAP1 CALLDATALOAD DUP3 MSTORE DUP2 DUP7 MSTORE PUSH1 0x1 PUSH1 0x1 PUSH1 0xA0 SHL SUB DUP4 DUP4 KECCAK256 SWAP2 AND DUP3 MSTORE DUP6 MSTORE KECCAK256 SLOAD AND SWAP1 MLOAD SWAP1 ISZERO ISZERO DUP2 MSTORE RETURN JUMPDEST POP CALLVALUE PUSH2 0x278 JUMPI PUSH1 0x20 CALLDATASIZE PUSH1 0x3 NOT ADD SLT PUSH2 0x278 JUMPI PUSH2 0xA30 DUP2 PUSH2 0xA43 SWAP4 PUSH1 0x1 PUSH1 0x1 PUSH1 0xA0 SHL SUB PUSH2 0xA19 PUSH2 0xDEF JUMP JUMPDEST PUSH2 0xA21 PUSH2 0x1020 JUMP JUMPDEST POP AND DUP2 MSTORE PUSH1 0x1 PUSH1 0x20 MSTORE KECCAK256 PUSH2 0x1099 JUMP JUMPDEST SWAP1 MLOAD SWAP2 DUP3 SWAP2 PUSH1 0x20 DUP4 MSTORE PUSH1 0x20 DUP4 ADD SWAP1 PUSH2 0xE45 JUMP JUMPDEST SUB SWAP1 RETURN JUMPDEST POP CALLVALUE PUSH2 0x278 JUMPI PUSH1 0x20 CALLDATASIZE PUSH1 0x3 NOT ADD SLT PUSH2 0x278 JUMPI DUP1 SWAP2 PUSH1 0x1 PUSH1 0x1 PUSH1 0xA0 SHL SUB PUSH2 0xA6B PUSH2 0xDEF JUMP JUMPDEST AND DUP2 MSTORE PUSH1 0x1 PUSH1 0x20 MSTORE KECCAK256 SWAP1 PUSH2 0xA43 PUSH2 0xA8D PUSH1 0x1 PUSH2 0xA86 DUP6 PUSH2 0xF4D JUMP JUMPDEST SWAP5 ADD PUSH2 0xF4D JUMP JUMPDEST PUSH2 0xAA0 DUP4 MLOAD SWAP5 DUP5 DUP7 SWAP6 DUP7 MSTORE DUP6 ADD SWAP1 PUSH2 0xE05 JUMP JUMPDEST SWAP1 DUP4 DUP3 SUB PUSH1 0x20 DUP6 ADD MSTORE PUSH2 0xE05 JUMP JUMPDEST POP DUP3 CALLVALUE PUSH2 0x2BB JUMPI PUSH1 0x20 CALLDATASIZE PUSH1 0x3 NOT ADD SLT PUSH2 0x2BB JUMPI CALLDATALOAD SWAP2 PUSH1 0x2 SLOAD DUP4 LT ISZERO PUSH2 0x20C JUMPI POP PUSH1 0x1 PUSH1 0x1 PUSH1 0xA0 SHL SUB PUSH2 0xAE1 PUSH1 0x20 SWAP4 PUSH2 0xE72 JUMP JUMPDEST SWAP3 SWAP1 SLOAD SWAP1 MLOAD SWAP3 PUSH1 0x3 SHL SHR AND DUP2 MSTORE RETURN JUMPDEST POP DUP3 SWAP1 CALLVALUE PUSH2 0x2BB JUMPI PUSH1 0x20 CALLDATASIZE PUSH1 0x3 NOT ADD SLT PUSH2 0x2BB JUMPI PUSH1 0x1 SWAP2 PUSH2 0xB0F PUSH2 0xDEF JUMP JUMPDEST SWAP1 PUSH2 0xB18 PUSH2 0x1124 JUMP JUMPDEST PUSH1 0x1 PUSH1 0x1 PUSH1 0xA0 SHL SUB DUP1 SWAP3 AND DUP1 DUP7 MSTORE PUSH2 0xB41 DUP6 DUP7 SWAP6 DUP2 PUSH1 0x20 MSTORE DUP9 KECCAK256 PUSH2 0xB3B DUP2 PUSH2 0x1050 JUMP JUMPDEST ADD PUSH2 0x1050 JUMP JUMPDEST DUP6 SWAP5 JUMPDEST PUSH2 0xB4C JUMPI DUP6 DUP1 RETURN JUMPDEST PUSH1 0x2 DUP1 SLOAD SWAP1 DUP2 DUP8 LT ISZERO PUSH2 0xC03 JUMPI DUP5 SWAP2 DUP4 PUSH2 0xB65 DUP10 PUSH2 0xE72 JUMP JUMPDEST SWAP5 SWAP1 SLOAD PUSH1 0x3 SWAP6 DUP7 SHL SHR AND EQ PUSH2 0xB81 JUMPI POP POP POP DUP4 DUP1 SWAP6 ADD SWAP5 PUSH2 0xB44 JUMP JUMPDEST SWAP4 SWAP3 POP SWAP5 POP SWAP5 PUSH1 0x0 NOT SWAP3 DUP4 DUP2 ADD SWAP1 DUP2 GT PUSH2 0xBF0 JUMPI SWAP1 PUSH2 0x5E6 DUP6 PUSH2 0xBA6 PUSH2 0xBB3 SWAP5 PUSH2 0xE72 JUMP JUMPDEST SWAP1 SLOAD SWAP1 DUP11 SHL SHR AND SWAP2 PUSH2 0xE72 JUMP JUMPDEST DUP4 SLOAD SWAP1 DUP2 ISZERO PUSH2 0xBDD JUMPI POP ADD SWAP3 PUSH2 0xBC8 DUP5 PUSH2 0xE72 JUMP JUMPDEST DUP2 SWAP4 SWAP2 SLOAD SWAP3 SHL SHL NOT AND SWAP1 SSTORE SSTORE DUP2 DUP1 DUP1 DUP1 DUP1 DUP6 DUP1 RETURN JUMPDEST DUP7 PUSH1 0x31 PUSH1 0x24 SWAP3 PUSH4 0x4E487B71 PUSH1 0xE0 SHL DUP4 MSTORE MSTORE REVERT JUMPDEST PUSH1 0x24 DUP9 PUSH1 0x11 DUP6 PUSH4 0x4E487B71 PUSH1 0xE0 SHL DUP4 MSTORE MSTORE REVERT JUMPDEST POP POP DUP6 DUP1 RETURN JUMPDEST POP SWAP2 SWAP1 CALLVALUE PUSH2 0x20C JUMPI PUSH1 0x60 CALLDATASIZE PUSH1 0x3 NOT ADD SLT PUSH2 0x20C JUMPI POP PUSH2 0xA43 PUSH2 0xC47 PUSH1 0x60 SWAP3 PUSH2 0xC2F PUSH2 0xDBE JUMP JUMPDEST PUSH2 0xC37 PUSH2 0xDD9 JUMP JUMPDEST SWAP2 PUSH2 0xC40 PUSH2 0x1020 JUMP JUMPDEST POP CALLDATALOAD PUSH2 0x12B0 JUMP JUMPDEST SWAP2 SWAP4 SWAP1 SWAP5 PUSH1 0x1 PUSH1 0x1 PUSH1 0xA0 SHL SUB DUP2 MLOAD SWAP7 DUP8 SWAP7 DUP8 MSTORE AND PUSH1 0x20 DUP7 ADD MSTORE DUP5 ADD MSTORE PUSH1 0x60 DUP4 ADD SWAP1 PUSH2 0xE45 JUMP JUMPDEST POP CALLVALUE PUSH2 0x278 JUMPI DUP1 PUSH1 0x3 NOT CALLDATASIZE ADD SLT PUSH2 0x278 JUMPI PUSH2 0xC86 PUSH2 0xDBE JUMP JUMPDEST SWAP1 CALLER PUSH1 0x1 PUSH1 0x1 PUSH1 0xA0 SHL SUB DUP4 AND SUB PUSH2 0xCA3 JUMPI POP PUSH2 0x2B7 SWAP2 SWAP3 CALLDATALOAD PUSH2 0x123A JUMP JUMPDEST DUP4 SWAP1 MLOAD PUSH32 0x6697B23200000000000000000000000000000000000000000000000000000000 DUP2 MSTORE REVERT JUMPDEST POP DUP3 SWAP1 CALLVALUE PUSH2 0x2BB JUMPI DUP1 PUSH1 0x3 NOT CALLDATASIZE ADD SLT PUSH2 0x2BB JUMPI PUSH2 0x2B7 SWAP2 CALLDATALOAD PUSH2 0xCF0 PUSH1 0x1 PUSH2 0x2A1 PUSH2 0xDBE JUMP JUMPDEST PUSH2 0x11BB JUMP JUMPDEST POP DUP3 CALLVALUE PUSH2 0x2BB JUMPI PUSH1 0x20 CALLDATASIZE PUSH1 0x3 NOT ADD SLT PUSH2 0x2BB JUMPI DUP2 PUSH1 0x20 SWAP4 PUSH1 0x1 SWAP3 CALLDATALOAD DUP2 MSTORE DUP1 DUP6 MSTORE KECCAK256 ADD SLOAD SWAP1 MLOAD SWAP1 DUP2 MSTORE RETURN JUMPDEST DUP4 SWAP1 DUP6 CALLVALUE PUSH2 0x2BB JUMPI PUSH1 0x20 CALLDATASIZE PUSH1 0x3 NOT ADD SLT PUSH2 0x2BB JUMPI CALLDATALOAD PUSH32 0xFFFFFFFF00000000000000000000000000000000000000000000000000000000 DUP2 AND DUP1 SWAP2 SUB PUSH2 0x2BB JUMPI PUSH1 0x20 SWAP3 POP PUSH32 0x7965DB0B00000000000000000000000000000000000000000000000000000000 DUP2 EQ SWAP1 DUP2 ISZERO PUSH2 0xD94 JUMPI JUMPDEST POP ISZERO ISZERO DUP2 MSTORE RETURN JUMPDEST PUSH32 0x1FFC9A700000000000000000000000000000000000000000000000000000000 SWAP2 POP EQ DUP4 PUSH2 0xD8D JUMP JUMPDEST PUSH1 0x24 CALLDATALOAD SWAP1 PUSH1 0x1 PUSH1 0x1 PUSH1 0xA0 SHL SUB DUP3 AND DUP3 SUB PUSH2 0xDD4 JUMPI JUMP JUMPDEST PUSH1 0x0 DUP1 REVERT JUMPDEST PUSH1 0x44 CALLDATALOAD SWAP1 PUSH1 0x1 PUSH1 0x1 PUSH1 0xA0 SHL SUB DUP3 AND DUP3 SUB PUSH2 0xDD4 JUMPI JUMP JUMPDEST PUSH1 0x4 CALLDATALOAD SWAP1 PUSH1 0x1 PUSH1 0x1 PUSH1 0xA0 SHL SUB DUP3 AND DUP3 SUB PUSH2 0xDD4 JUMPI JUMP JUMPDEST SWAP2 SWAP1 DUP3 MLOAD SWAP3 DUP4 DUP3 MSTORE PUSH1 0x0 JUMPDEST DUP5 DUP2 LT PUSH2 0xE31 JUMPI POP POP DUP3 PUSH1 0x0 PUSH1 0x20 DUP1 SWAP5 SWAP6 DUP5 ADD ADD MSTORE PUSH1 0x1F DUP1 NOT SWAP2 ADD AND ADD ADD SWAP1 JUMP JUMPDEST PUSH1 0x20 DUP2 DUP4 ADD DUP2 ADD MLOAD DUP5 DUP4 ADD DUP3 ADD MSTORE ADD PUSH2 0xE10 JUMP JUMPDEST PUSH2 0xE6F SWAP2 PUSH1 0x20 PUSH2 0xE5E DUP4 MLOAD PUSH1 0x40 DUP5 MSTORE PUSH1 0x40 DUP5 ADD SWAP1 PUSH2 0xE05 JUMP JUMPDEST SWAP3 ADD MLOAD SWAP1 PUSH1 0x20 DUP2 DUP5 SUB SWAP2 ADD MSTORE PUSH2 0xE05 JUMP JUMPDEST SWAP1 JUMP JUMPDEST PUSH1 0x2 SLOAD DUP2 LT ISZERO PUSH2 0xEA9 JUMPI PUSH1 0x2 PUSH1 0x0 MSTORE PUSH32 0x405787FA12A823E0F2B7631CC41B3BA8828B3321CA811111FA75CD3AA3BB5ACE ADD SWAP1 PUSH1 0x0 SWAP1 JUMP JUMPDEST PUSH4 0x4E487B71 PUSH1 0xE0 SHL PUSH1 0x0 MSTORE PUSH1 0x32 PUSH1 0x4 MSTORE PUSH1 0x24 PUSH1 0x0 REVERT JUMPDEST SWAP1 PUSH1 0x1 DUP3 DUP2 SHR SWAP3 AND DUP1 ISZERO PUSH2 0xEEF JUMPI JUMPDEST PUSH1 0x20 DUP4 LT EQ PUSH2 0xED9 JUMPI JUMP JUMPDEST PUSH4 0x4E487B71 PUSH1 0xE0 SHL PUSH1 0x0 MSTORE PUSH1 0x22 PUSH1 0x4 MSTORE PUSH1 0x24 PUSH1 0x0 REVERT JUMPDEST SWAP2 PUSH1 0x7F AND SWAP2 PUSH2 0xECE JUMP JUMPDEST PUSH1 0x40 DUP2 ADD SWAP1 DUP2 LT PUSH8 0xFFFFFFFFFFFFFFFF DUP3 GT OR PUSH2 0xF15 JUMPI PUSH1 0x40 MSTORE JUMP JUMPDEST PUSH4 0x4E487B71 PUSH1 0xE0 SHL PUSH1 0x0 MSTORE PUSH1 0x41 PUSH1 0x4 MSTORE PUSH1 0x24 PUSH1 0x0 REVERT JUMPDEST SWAP1 PUSH1 0x1F DUP1 NOT SWAP2 ADD AND DUP2 ADD SWAP1 DUP2 LT PUSH8 0xFFFFFFFFFFFFFFFF DUP3 GT OR PUSH2 0xF15 JUMPI PUSH1 0x40 MSTORE JUMP JUMPDEST SWAP1 PUSH1 0x40 MLOAD SWAP2 DUP3 PUSH1 0x0 DUP3 SLOAD PUSH2 0xF60 DUP2 PUSH2 0xEBF JUMP JUMPDEST SWAP1 DUP2 DUP5 MSTORE PUSH1 0x20 SWAP5 PUSH1 0x1 SWAP2 PUSH1 0x1 DUP2 AND SWAP1 DUP2 PUSH1 0x0 EQ PUSH2 0xFD0 JUMPI POP PUSH1 0x1 EQ PUSH2 0xF91 JUMPI JUMPDEST POP POP POP PUSH2 0xF8F SWAP3 POP SUB DUP4 PUSH2 0xF2B JUMP JUMPDEST JUMP JUMPDEST PUSH1 0x0 SWAP1 DUP2 MSTORE DUP6 DUP2 KECCAK256 SWAP6 SWAP4 POP SWAP2 SWAP1 JUMPDEST DUP2 DUP4 LT PUSH2 0xFB8 JUMPI POP POP PUSH2 0xF8F SWAP4 POP DUP3 ADD ADD CODESIZE DUP1 DUP1 PUSH2 0xF80 JUMP JUMPDEST DUP6 SLOAD DUP9 DUP5 ADD DUP6 ADD MSTORE SWAP5 DUP6 ADD SWAP5 DUP8 SWAP5 POP SWAP2 DUP4 ADD SWAP2 PUSH2 0xF9F JUMP JUMPDEST SWAP3 POP POP POP PUSH2 0xF8F SWAP5 SWAP3 POP PUSH1 0xFF NOT AND DUP3 DUP5 ADD MSTORE ISZERO ISZERO PUSH1 0x5 SHL DUP3 ADD ADD CODESIZE DUP1 DUP1 PUSH2 0xF80 JUMP JUMPDEST SWAP2 DUP2 PUSH1 0x1F DUP5 ADD SLT ISZERO PUSH2 0xDD4 JUMPI DUP3 CALLDATALOAD SWAP2 PUSH8 0xFFFFFFFFFFFFFFFF DUP4 GT PUSH2 0xDD4 JUMPI PUSH1 0x20 DUP4 DUP2 DUP7 ADD SWAP6 ADD ADD GT PUSH2 0xDD4 JUMPI JUMP JUMPDEST PUSH1 0x40 MLOAD SWAP1 PUSH2 0x102D DUP3 PUSH2 0xEF9 JUMP JUMPDEST PUSH1 0x60 PUSH1 0x20 DUP4 DUP3 DUP2 MSTORE ADD MSTORE JUMP JUMPDEST DUP2 DUP2 LT PUSH2 0x1044 JUMPI POP POP JUMP JUMPDEST PUSH1 0x0 DUP2 SSTORE PUSH1 0x1 ADD PUSH2 0x1039 JUMP JUMPDEST PUSH2 0x105A DUP2 SLOAD PUSH2 0xEBF JUMP JUMPDEST SWAP1 DUP2 PUSH2 0x1064 JUMPI POP POP JUMP JUMPDEST DUP2 PUSH1 0x1F PUSH1 0x0 SWAP4 GT PUSH1 0x1 EQ PUSH2 0x1076 JUMPI POP SSTORE JUMP JUMPDEST SWAP1 DUP1 DUP4 SWAP2 DUP3 MSTORE PUSH2 0x1095 PUSH1 0x1F PUSH1 0x20 DUP5 KECCAK256 SWAP5 ADD PUSH1 0x5 SHR DUP5 ADD PUSH1 0x1 DUP6 ADD PUSH2 0x1039 JUMP JUMPDEST SSTORE SSTORE JUMP JUMPDEST SWAP1 PUSH1 0x40 MLOAD PUSH2 0x10A6 DUP2 PUSH2 0xEF9 JUMP JUMPDEST PUSH1 0x20 PUSH2 0x10C0 PUSH1 0x1 DUP4 SWAP6 PUSH2 0x10B8 DUP2 PUSH2 0xF4D JUMP JUMPDEST DUP6 MSTORE ADD PUSH2 0xF4D JUMP JUMPDEST SWAP2 ADD MSTORE JUMP JUMPDEST SWAP1 DUP2 PUSH1 0x20 SWAP2 SUB SLT PUSH2 0xDD4 JUMPI MLOAD DUP1 ISZERO ISZERO DUP2 SUB PUSH2 0xDD4 JUMPI SWAP1 JUMP JUMPDEST SWAP3 SWAP2 SWAP3 PUSH8 0xFFFFFFFFFFFFFFFF DUP3 GT PUSH2 0xF15 JUMPI PUSH1 0x40 MLOAD SWAP2 PUSH2 0x1107 PUSH1 0x1F DUP3 ADD PUSH1 0x1F NOT AND PUSH1 0x20 ADD DUP5 PUSH2 0xF2B JUMP JUMPDEST DUP3 SWAP5 DUP2 DUP5 MSTORE DUP2 DUP4 ADD GT PUSH2 0xDD4 JUMPI DUP3 DUP2 PUSH1 0x20 SWAP4 DUP5 PUSH1 0x0 SWAP7 ADD CALLDATACOPY ADD ADD MSTORE JUMP JUMPDEST CALLER PUSH1 0x0 SWAP1 DUP2 MSTORE PUSH32 0xAD3228B676F7D3CD4284A5443F17F1962B36E491B30A40B2405849E597BA5FB5 PUSH1 0x20 MSTORE PUSH1 0x40 DUP2 KECCAK256 SLOAD PUSH1 0xFF AND ISZERO PUSH2 0x115E JUMPI POP JUMP JUMPDEST PUSH1 0x44 SWAP1 PUSH1 0x40 MLOAD SWAP1 PUSH32 0xE2517D3F00000000000000000000000000000000000000000000000000000000 DUP3 MSTORE CALLER PUSH1 0x4 DUP4 ADD MSTORE PUSH1 0x24 DUP3 ADD MSTORE REVERT JUMPDEST DUP1 PUSH1 0x0 MSTORE PUSH1 0x0 PUSH1 0x20 MSTORE PUSH1 0x40 PUSH1 0x0 KECCAK256 CALLER PUSH1 0x0 MSTORE PUSH1 0x20 MSTORE PUSH1 0xFF PUSH1 0x40 PUSH1 0x0 KECCAK256 SLOAD AND ISZERO PUSH2 0x115E JUMPI POP JUMP JUMPDEST SWAP1 PUSH1 0x0 SWAP2 DUP1 DUP4 MSTORE DUP3 PUSH1 0x20 MSTORE PUSH1 0x1 PUSH1 0x1 PUSH1 0xA0 SHL SUB PUSH1 0x40 DUP5 KECCAK256 SWAP3 AND SWAP2 DUP3 DUP5 MSTORE PUSH1 0x20 MSTORE PUSH1 0xFF PUSH1 0x40 DUP5 KECCAK256 SLOAD AND ISZERO PUSH1 0x0 EQ PUSH2 0x1235 JUMPI DUP1 DUP4 MSTORE DUP3 PUSH1 0x20 MSTORE PUSH1 0x40 DUP4 KECCAK256 DUP3 DUP5 MSTORE PUSH1 0x20 MSTORE PUSH1 0x40 DUP4 KECCAK256 PUSH1 0x1 PUSH1 0xFF NOT DUP3 SLOAD AND OR SWAP1 SSTORE PUSH32 0x2F8788117E7EFF1D82E926EC794901D17C78024A50270940304540A733656F0D CALLER SWAP4 DUP1 LOG4 PUSH1 0x1 SWAP1 JUMP JUMPDEST POP POP SWAP1 JUMP JUMPDEST SWAP1 PUSH1 0x0 SWAP2 DUP1 DUP4 MSTORE DUP3 PUSH1 0x20 MSTORE PUSH1 0x1 PUSH1 0x1 PUSH1 0xA0 SHL SUB PUSH1 0x40 DUP5 KECCAK256 SWAP3 AND SWAP2 DUP3 DUP5 MSTORE PUSH1 0x20 MSTORE PUSH1 0xFF PUSH1 0x40 DUP5 KECCAK256 SLOAD AND PUSH1 0x0 EQ PUSH2 0x1235 JUMPI DUP1 DUP4 MSTORE DUP3 PUSH1 0x20 MSTORE PUSH1 0x40 DUP4 KECCAK256 DUP3 DUP5 MSTORE PUSH1 0x20 MSTORE PUSH1 0x40 DUP4 KECCAK256 PUSH1 0xFF NOT DUP2 SLOAD AND SWAP1 SSTORE PUSH32 0xF6391F5C32D9C69D2A47EA670B442974B53935D1EDC7FD64EB21E047A839171B CALLER SWAP4 DUP1 LOG4 PUSH1 0x1 SWAP1 JUMP JUMPDEST SWAP2 SWAP3 SWAP1 SWAP3 PUSH2 0x12BC PUSH2 0x1020 JUMP JUMPDEST POP PUSH1 0x2 SLOAD PUSH1 0x0 SWAP5 DUP6 SWAP5 DUP6 JUMPDEST DUP4 DUP2 LT PUSH2 0x12F5 JUMPI POP POP POP POP POP PUSH1 0x1 PUSH1 0x1 PUSH1 0xA0 SHL SUB DUP4 AND PUSH1 0x0 MSTORE PUSH1 0x1 PUSH1 0x20 MSTORE PUSH2 0xE6F PUSH1 0x40 PUSH1 0x0 KECCAK256 SWAP3 SWAP4 SWAP3 PUSH2 0x1099 JUMP JUMPDEST PUSH2 0x12FE DUP2 PUSH2 0xE72 JUMP JUMPDEST SWAP1 PUSH1 0x1 PUSH1 0x1 PUSH1 0xA0 SHL SUB SWAP1 SLOAD SWAP2 PUSH1 0x3 SWAP3 PUSH1 0x40 SWAP1 DUP2 MLOAD SWAP3 PUSH4 0x25503329 PUSH1 0xE1 SHL DUP5 MSTORE DUP5 DUP10 AND PUSH1 0x4 DUP6 ADD MSTORE DUP5 DUP12 AND PUSH1 0x24 DUP6 ADD MSTORE DUP8 PUSH1 0x44 DUP6 ADD MSTORE DUP4 PUSH1 0x64 DUP2 DUP8 PUSH1 0x20 SWAP6 DUP7 SWAP6 DUP12 SHL SHR AND GAS STATICCALL SWAP2 DUP3 ISZERO PUSH2 0x13B7 JUMPI POP PUSH1 0x0 SWAP2 PUSH2 0x138B JUMPI JUMPDEST POP SWAP1 POP DUP10 DUP2 GT PUSH2 0x1369 JUMPI JUMPDEST POP POP POP PUSH1 0x1 ADD PUSH2 0x12C7 JUMP JUMPDEST SWAP1 SWAP2 SWAP9 POP PUSH1 0x1 SWAP3 SWAP10 POP SWAP8 PUSH2 0x137C DUP11 PUSH2 0xE72 JUMP JUMPDEST SWAP1 SLOAD SWAP2 SHL SHR AND SWAP8 SWAP1 CODESIZE DUP1 PUSH2 0x135E JUMP JUMPDEST DUP3 DUP2 RETURNDATASIZE DUP4 GT PUSH2 0x13B0 JUMPI JUMPDEST PUSH2 0x139F DUP2 DUP4 PUSH2 0xF2B JUMP JUMPDEST DUP2 ADD SUB SLT PUSH2 0x20C JUMPI POP MLOAD DUP1 CODESIZE PUSH2 0x1353 JUMP JUMPDEST POP RETURNDATASIZE PUSH2 0x1395 JUMP JUMPDEST MLOAD RETURNDATASIZE PUSH1 0x0 DUP3 RETURNDATACOPY RETURNDATASIZE SWAP1 REVERT INVALID LOG2 PUSH5 0x6970667358 0x22 SLT KECCAK256 0xD2 LOG2 PUSH7 0x759921D44505B4 SWAP12 PUSH20 0x971D6805D7FB383D107B7E8087DC20F1F8DDF69E PUSH5 0x736F6C6343 STOP ADDMOD XOR STOP CALLER "
        },
        "methodIdentifiers": {
          "DEFAULT_ADMIN_ROLE()": "a217fddf",
          "addRouter(string,string,address)": "b89eb11d",
          "bestRouter(uint256,address,address)": "61ee1031",
          "getRoleAdmin(bytes32)": "248a9ca3",
          "getRouter(address)": "8369166d",
          "getRouterCount()": "a5be5f7a",
          "grantRole(bytes32,address)": "2f2ff15d",
          "hasRole(bytes32,address)": "91d14854",
          "removeRouter(address)": "6ae0b154",
          "renounceRole(bytes32,address)": "36568abe",
          "revokeRole(bytes32,address)": "d547741f",
          "routerIds(uint256)": "6ee4035d",
          "routers(address)": "80dd9a1f",
          "supportsInterface(bytes4)": "01ffc9a7",
          "swapETHToTokens(address,uint256,address)": "d219d1f3",
          "swapTokensToETH(address,uint256,uint256,address)": "95eb0870",
          "swapTokensToTokens(address,uint256,address,uint256,address)": "fc7a6a23"
        }
      }
    }
  }
}