{
  "contracts/routers/BasicRouter.sol": {
    "BasicRouter": {
      "abi": [
        {
          "inputs": [],
          "stateMutability": "nonpayable",
          "type": "constructor"
        },
        {
          "inputs": [],
          "name": "AccessControlBadConfirmation",
          "type": "error"
        },
        {
          "inputs": [
            {
              "internalType": "address",
              "name": "account",
              "type": "address"
            },
            {
              "internalType": "bytes32",
              "name": "neededRole",
              "type": "bytes32"
            }
          ],
          "name": "AccessControlUnauthorizedAccount",
          "type": "error"
        },
        {
          "anonymous": false,
          "inputs": [
            {
              "indexed": true,
              "internalType": "address",
              "name": "from",
              "type": "address"
            },
            {
              "indexed": false,
              "internalType": "uint256",
              "name": "amountIn",
              "type": "uint256"
            },
            {
              "indexed": true,
              "internalType": "address",
              "name": "tokenOut",
              "type": "address"
            },
            {
              "indexed": false,
              "internalType": "uint256",
              "name": "amountOut",
              "type": "uint256"
            }
          ],
          "name": "EthToTokenSwap",
          "type": "event"
        },
        {
          "anonymous": false,
          "inputs": [
            {
              "indexed": true,
              "internalType": "bytes32",
              "name": "role",
              "type": "bytes32"
            },
            {
              "indexed": true,
              "internalType": "bytes32",
              "name": "previousAdminRole",
              "type": "bytes32"
            },
            {
              "indexed": true,
              "internalType": "bytes32",
              "name": "newAdminRole",
              "type": "bytes32"
            }
          ],
          "name": "RoleAdminChanged",
          "type": "event"
        },
        {
          "anonymous": false,
          "inputs": [
            {
              "indexed": true,
              "internalType": "bytes32",
              "name": "role",
              "type": "bytes32"
            },
            {
              "indexed": true,
              "internalType": "address",
              "name": "account",
              "type": "address"
            },
            {
              "indexed": true,
              "internalType": "address",
              "name": "sender",
              "type": "address"
            }
          ],
          "name": "RoleGranted",
          "type": "event"
        },
        {
          "anonymous": false,
          "inputs": [
            {
              "indexed": true,
              "internalType": "bytes32",
              "name": "role",
              "type": "bytes32"
            },
            {
              "indexed": true,
              "internalType": "address",
              "name": "account",
              "type": "address"
            },
            {
              "indexed": true,
              "internalType": "address",
              "name": "sender",
              "type": "address"
            }
          ],
          "name": "RoleRevoked",
          "type": "event"
        },
        {
          "anonymous": false,
          "inputs": [
            {
              "indexed": true,
              "internalType": "address",
              "name": "from",
              "type": "address"
            },
            {
              "indexed": true,
              "internalType": "address",
              "name": "tokenIn",
              "type": "address"
            },
            {
              "indexed": true,
              "internalType": "address",
              "name": "tokenOut",
              "type": "address"
            },
            {
              "indexed": false,
              "internalType": "uint256",
              "name": "amountIn",
              "type": "uint256"
            },
            {
              "indexed": false,
              "internalType": "uint256",
              "name": "amountOut",
              "type": "uint256"
            }
          ],
          "name": "TokenSwap",
          "type": "event"
        },
        {
          "anonymous": false,
          "inputs": [
            {
              "indexed": true,
              "internalType": "address",
              "name": "from",
              "type": "address"
            },
            {
              "indexed": true,
              "internalType": "address",
              "name": "tokenIn",
              "type": "address"
            },
            {
              "indexed": false,
              "internalType": "uint256",
              "name": "amountIn",
              "type": "uint256"
            },
            {
              "indexed": false,
              "internalType": "uint256",
              "name": "amountOut",
              "type": "uint256"
            }
          ],
          "name": "TokenToEthSwap",
          "type": "event"
        },
        {
          "inputs": [],
          "name": "DEFAULT_ADMIN_ROLE",
          "outputs": [
            {
              "internalType": "bytes32",
              "name": "",
              "type": "bytes32"
            }
          ],
          "stateMutability": "view",
          "type": "function"
        },
        {
          "inputs": [
            {
              "internalType": "address",
              "name": "tokenIn",
              "type": "address"
            },
            {
              "internalType": "address",
              "name": "tokenOut",
              "type": "address"
            },
            {
              "internalType": "uint256",
              "name": "amountIn",
              "type": "uint256"
            }
          ],
          "name": "getAmountOut",
          "outputs": [
            {
              "internalType": "uint256",
              "name": "",
              "type": "uint256"
            }
          ],
          "stateMutability": "view",
          "type": "function"
        },
        {
          "inputs": [
            {
              "internalType": "bytes32",
              "name": "role",
              "type": "bytes32"
            }
          ],
          "name": "getRoleAdmin",
          "outputs": [
            {
              "internalType": "bytes32",
              "name": "",
              "type": "bytes32"
            }
          ],
          "stateMutability": "view",
          "type": "function"
        },
        {
          "inputs": [
            {
              "internalType": "bytes32",
              "name": "role",
              "type": "bytes32"
            },
            {
              "internalType": "address",
              "name": "account",
              "type": "address"
            }
          ],
          "name": "grantRole",
          "outputs": [],
          "stateMutability": "nonpayable",
          "type": "function"
        },
        {
          "inputs": [
            {
              "internalType": "bytes32",
              "name": "role",
              "type": "bytes32"
            },
            {
              "internalType": "address",
              "name": "account",
              "type": "address"
            }
          ],
          "name": "hasRole",
          "outputs": [
            {
              "internalType": "bool",
              "name": "",
              "type": "bool"
            }
          ],
          "stateMutability": "view",
          "type": "function"
        },
        {
          "inputs": [
            {
              "internalType": "bytes32",
              "name": "role",
              "type": "bytes32"
            },
            {
              "internalType": "address",
              "name": "callerConfirmation",
              "type": "address"
            }
          ],
          "name": "renounceRole",
          "outputs": [],
          "stateMutability": "nonpayable",
          "type": "function"
        },
        {
          "inputs": [
            {
              "internalType": "bytes32",
              "name": "role",
              "type": "bytes32"
            },
            {
              "internalType": "address",
              "name": "account",
              "type": "address"
            }
          ],
          "name": "revokeRole",
          "outputs": [],
          "stateMutability": "nonpayable",
          "type": "function"
        },
        {
          "inputs": [
            {
              "internalType": "address",
              "name": "token",
              "type": "address"
            },
            {
              "internalType": "uint256",
              "name": "priceUSD",
              "type": "uint256"
            }
          ],
          "name": "setTokenPrice",
          "outputs": [],
          "stateMutability": "nonpayable",
          "type": "function"
        },
        {
          "inputs": [
            {
              "internalType": "bytes4",
              "name": "interfaceId",
              "type": "bytes4"
            }
          ],
          "name": "supportsInterface",
          "outputs": [
            {
              "internalType": "bool",
              "name": "",
              "type": "bool"
            }
          ],
          "stateMutability": "view",
          "type": "function"
        },
        {
          "inputs": [
            {
              "internalType": "address",
              "name": "tokenOut",
              "type": "address"
            },
            {
              "internalType": "address",
              "name": "to",
              "type": "address"
            }
          ],
          "name": "swapETHToTokens",
          "outputs": [
            {
              "internalType": "uint256",
              "name": "",
              "type": "uint256"
            }
          ],
          "stateMutability": "payable",
          "type": "function"
        },
        {
          "inputs": [
            {
              "internalType": "address",
              "name": "tokenIn",
              "type": "address"
            },
            {
              "internalType": "address",
              "name": "tokenOut",
              "type": "address"
            },
            {
              "internalType": "uint256",
              "name": "amountIn",
              "type": "uint256"
            },
            {
              "internalType": "address",
              "name": "to",
              "type": "address"
            }
          ],
          "name": "swapTokenToToken",
          "outputs": [
            {
              "internalType": "uint256",
              "name": "",
              "type": "uint256"
            }
          ],
          "stateMutability": "nonpayable",
          "type": "function"
        },
        {
          "inputs": [
            {
              "internalType": "address",
              "name": "tokenIn",
              "type": "address"
            },
            {
              "internalType": "uint256",
              "name": "amountIn",
              "type": "uint256"
            },
            {
              "internalType": "address",
              "name": "to",
              "type": "address"
            }
          ],
          "name": "swapTokensToETH",
          "outputs": [
            {
              "internalType": "uint256",
              "name": "",
              "type": "uint256"
            }
          ],
          "stateMutability": "nonpayable",
          "type": "function"
        },
        {
          "inputs": [
            {
              "internalType": "address",
              "name": "",
              "type": "address"
            }
          ],
          "name": "tokenPricesUSD",
          "outputs": [
            {
              "internalType": "uint256",
              "name": "",
              "type": "uint256"
            }
          ],
          "stateMutability": "view",
          "type": "function"
        },
        {
          "inputs": [],
          "name": "weth",
          "outputs": [
            {
              "internalType": "address",
              "name": "",
              "type": "address"
            }
          ],
          "stateMutability": "pure",
          "type": "function"
        },
        {
          "stateMutability": "payable",
          "type": "receive"
        }
      ],
      "evm": {
        "bytecode": {
          "linkReferences": {},
          "object": "6080604052346100225761001233610027565b50604051610cd890816100b88239f35b600080fd5b6001600160a01b031660008181527fad3228b676f7d3cd4284a5443f17f1962b36e491b30a40b2405849e597ba5fb5602052604081205490919060ff166100b357818052816020526040822081835260205260408220600160ff1982541617905533917f2f8788117e7eff1d82e926ec794901d17c78024a50270940304540a733656f0d8180a4600190565b509056fe6080604081815260049081361015610022575b505050361561002057600080fd5b005b600092833560e01c90816301ffc9a7146109225750806319089a0d146108eb578063248a9ca3146108c15780632f2ff15d1461089957806336568abe146108395780633f3f80c3146105fe5780633fc8cef3146105cf578063431f63c9146105605780634aa0665214610527578063796449dd1461039357806391d148541461034e578063a217fddf1461032f578063bed2d5e8146101055763d547741f0361001257346101015780600319360112610101576100fd91356100f860016100e76109dc565b938387528660205286200154610b69565b610c2c565b5080f35b8280fd5b5080600319360112610101576101196109c1565b6101216109dc565b9334156102ec5773eeeeeeeeeeeeeeeeeeeeeeeeeeeeeeeeeeeeeeee8152602094600186526101806001600160a01b038584205494169384845261017b8685205491801515806102e3575b61017590610b1e565b34610a42565b610a6b565b9484516370a0823160e01b815230828201528781602481885afa9081156102d95790879185916102a4575b501061026257845163a9059cbb60e01b81526001600160a01b0390921690820190815260208101869052909190869083908190604001038184875af1908115610257575061022a575b50815134815283858201527f59a6c2d15a2ae3486483464c924ab1cb80dcfd000530f15c1f89f25f22e69853833392a351908152f35b61024990853d8711610250575b61024181836109f2565b810190610a2a565b50386101f4565b503d610237565b8451903d90823e3d90fd5b6064908786519162461bcd60e51b8352820152601a60248201527f496e73756666696369656e7420746f6b656e2062616c616e63650000000000006044820152fd5b809250898092503d83116102d2575b6102bd81836109f2565b810103126102ce57869051386101ab565b8380fd5b503d6102b3565b86513d86823e3d90fd5b5082151561016c565b606484602085519162461bcd60e51b8352820152601560248201527f4d7573742073656e642045544820746f207377617000000000000000000000006044820152fd5b83823461034a578160031936011261034a5751908152602090f35b5080fd5b5090346101015781600319360112610101578160209360ff9261036f6109dc565b903582528186526001600160a01b0383832091168252855220541690519015158152f35b5034610101576060366003190112610101576103ad6109c1565b602435604435946001600160a01b039586811680910361034a5773eeeeeeeeeeeeeeeeeeeeeeeeeeeeeeeeeeeeeeee8252610411602097600189528684205495169485845261017b878520548215158061051e575b61040b90610b1e565b86610a42565b85516323b872dd60e01b815233818901908152306020820152604081018690529197918990829081906060010381878a5af18015610514576104f7575b508647106104b557508180808881948282156104ac575bf1156104a15750825190815283858201527f0de0de7715272cc074c6aa787cb38a0922f4f1eb76660f2ec9a2973a1e23ff86833392a351908152f35b8351903d90823e3d90fd5b506108fc610465565b6064908887519162461bcd60e51b8352820152601860248201527f496e73756666696369656e74204554482062616c616e636500000000000000006044820152fd5b61050d90893d8b116102505761024181836109f2565b503861044e565b87513d86823e3d90fd5b50801515610402565b83823461034a57606036600319011261034a576020906105596105486109c1565b6105506109dc565b60443591610a8b565b9051908152f35b50903461010157816003193601126101015761057a6109c1565b908380528360205282842033855260205260ff8385205416156105b257506001600160a01b0316825260016020526024359082205580f35b6044908484519163e2517d3f60e01b835233908301526024820152fd5b83823461034a578160031936011261034a576020905173eeeeeeeeeeeeeeeeeeeeeeeeeeeeeeeeeeeeeeee8152f35b5034610101576080366003190112610101576106186109c1565b916106216109dc565b93604435606435916001600160a01b0392838116810361034a5783610647848a8a610a8b565b9716938651986323b872dd60e01b8a526020998a818061068a89308d339085016040919493929460608201956001600160a01b0380921683521660208201520152565b0381888b5af1801561082f57610812575b50169486516370a0823160e01b8152308282015289816024818a5afa9081156108085790899185916107d7575b501061076f57865163a9059cbb60e01b81526001600160a01b0390921690820190815260208101889052909190889083908190604001038184895af19081156107645750610747575b50835190815284868201527f2e05fc618ccc3aec7d710f137a131e0ab5b31af09fc6a0edb726dcd94b2e478f843392a451908152f35b61075d90873d89116102505761024181836109f2565b5038610711565b8651903d90823e3d90fd5b6084908988519162461bcd60e51b8352820152602160248201527f496e73756666696369656e74206f757470757420746f6b656e2062616c616e6360448201527f65000000000000000000000000000000000000000000000000000000000000006064820152fd5b8092508b8092503d8311610801575b6107f081836109f2565b810103126102ce57889051386106c8565b503d6107e6565b88513d86823e3d90fd5b610828908b3d8d116102505761024181836109f2565b503861069b565b89513d87823e3d90fd5b5082903461034a578060031936011261034a576108546109dc565b90336001600160a01b0383160361087157506100fd919235610c2c565b8390517f6697b232000000000000000000000000000000000000000000000000000000008152fd5b50346101015780600319360112610101576100fd91356108bc60016100e76109dc565b610bad565b50903461010157602036600319011261010157816020936001923581528085522001549051908152f35b83823461034a57602036600319011261034a57806020926001600160a01b036109126109c1565b1681526001845220549051908152f35b8490843461010157602036600319011261010157357fffffffff00000000000000000000000000000000000000000000000000000000811680910361010157602092507f7965db0b000000000000000000000000000000000000000000000000000000008114908115610997575b5015158152f35b7f01ffc9a70000000000000000000000000000000000000000000000000000000091501483610990565b600435906001600160a01b03821682036109d757565b600080fd5b602435906001600160a01b03821682036109d757565b90601f8019910116810190811067ffffffffffffffff821117610a1457604052565b634e487b7160e01b600052604160045260246000fd5b908160209103126109d7575180151581036109d75790565b81810292918115918404141715610a5557565b634e487b7160e01b600052601160045260246000fd5b8115610a75570490565b634e487b7160e01b600052601260045260246000fd5b9190916001600160a01b03809116600052600160205260406000205492166000526040600020549082151580610b15575b15610ad157610ace9261017b91610a42565b90565b606460405162461bcd60e51b815260206004820152601360248201527f546f6b656e207072696365206e6f7420736574000000000000000000000000006044820152fd5b50811515610abc565b15610b2557565b606460405162461bcd60e51b815260206004820152601a60248201527f455448206f7220546f6b656e207072696365206e6f74207365740000000000006044820152fd5b80600052600060205260406000203360005260205260ff6040600020541615610b8f5750565b6044906040519063e2517d3f60e01b82523360048301526024820152fd5b90600091808352826020526001600160a01b036040842092169182845260205260ff60408420541615600014610c2757808352826020526040832082845260205260408320600160ff198254161790557f2f8788117e7eff1d82e926ec794901d17c78024a50270940304540a733656f0d339380a4600190565b505090565b90600091808352826020526001600160a01b036040842092169182845260205260ff604084205416600014610c275780835282602052604083208284526020526040832060ff1981541690557ff6391f5c32d9c69d2a47ea670b442974b53935d1edc7fd64eb21e047a839171b339380a460019056fea2646970667358221220e130075450aab9e4dffd6ccd6501fa2811f3e75a77c589c34ddcc791e593bd3964736f6c63430008180033",
          "opcodes": "PUSH1 0x80 PUSH1 0x40 MSTORE CALLVALUE PUSH2 0x22 JUMPI PUSH2 0x12 CALLER PUSH2 0x27 JUMP JUMPDEST POP PUSH1 0x40 MLOAD PUSH2 0xCD8 SWAP1 DUP2 PUSH2 0xB8 DUP3 CODECOPY RETURN JUMPDEST PUSH1 0x0 DUP1 REVERT JUMPDEST PUSH1 0x1 PUSH1 0x1 PUSH1 0xA0 SHL SUB AND PUSH1 0x0 DUP2 DUP2 MSTORE PUSH32 0xAD3228B676F7D3CD4284A5443F17F1962B36E491B30A40B2405849E597BA5FB5 PUSH1 0x20 MSTORE PUSH1 0x40 DUP2 KECCAK256 SLOAD SWAP1 SWAP2 SWAP1 PUSH1 0xFF AND PUSH2 0xB3 JUMPI DUP2 DUP1 MSTORE DUP2 PUSH1 0x20 MSTORE PUSH1 0x40 DUP3 KECCAK256 DUP2 DUP4 MSTORE PUSH1 0x20 MSTORE PUSH1 0x40 DUP3 KECCAK256 PUSH1 0x1 PUSH1 0xFF NOT DUP3 SLOAD AND OR SWAP1 SSTORE CALLER SWAP2 PUSH32 0x2F8788117E7EFF1D82E926EC794901D17C78024A50270940304540A733656F0D DUP2 DUP1 LOG4 PUSH1 0x1 SWAP1 JUMP JUMPDEST POP SWAP1 JUMP INVALID PUSH1 0x80 PUSH1 0x40 DUP2 DUP2 MSTORE PUSH1 0x4 SWAP1 DUP2 CALLDATASIZE LT ISZERO PUSH2 0x22 JUMPI JUMPDEST POP POP POP CALLDATASIZE ISZERO PUSH2 0x20 JUMPI PUSH1 0x0 DUP1 REVERT JUMPDEST STOP JUMPDEST PUSH1 0x0 SWAP3 DUP4 CALLDATALOAD PUSH1 0xE0 SHR SWAP1 DUP2 PUSH4 0x1FFC9A7 EQ PUSH2 0x922 JUMPI POP DUP1 PUSH4 0x19089A0D EQ PUSH2 0x8EB JUMPI DUP1 PUSH4 0x248A9CA3 EQ PUSH2 0x8C1 JUMPI DUP1 PUSH4 0x2F2FF15D EQ PUSH2 0x899 JUMPI DUP1 PUSH4 0x36568ABE EQ PUSH2 0x839 JUMPI DUP1 PUSH4 0x3F3F80C3 EQ PUSH2 0x5FE JUMPI DUP1 PUSH4 0x3FC8CEF3 EQ PUSH2 0x5CF JUMPI DUP1 PUSH4 0x431F63C9 EQ PUSH2 0x560 JUMPI DUP1 PUSH4 0x4AA06652 EQ PUSH2 0x527 JUMPI DUP1 PUSH4 0x796449DD EQ PUSH2 0x393 JUMPI DUP1 PUSH4 0x91D14854 EQ PUSH2 0x34E JUMPI DUP1 PUSH4 0xA217FDDF EQ PUSH2 0x32F JUMPI DUP1 PUSH4 0xBED2D5E8 EQ PUSH2 0x105 JUMPI PUSH4 0xD547741F SUB PUSH2 0x12 JUMPI CALLVALUE PUSH2 0x101 JUMPI DUP1 PUSH1 0x3 NOT CALLDATASIZE ADD SLT PUSH2 0x101 JUMPI PUSH2 0xFD SWAP2 CALLDATALOAD PUSH2 0xF8 PUSH1 0x1 PUSH2 0xE7 PUSH2 0x9DC JUMP JUMPDEST SWAP4 DUP4 DUP8 MSTORE DUP7 PUSH1 0x20 MSTORE DUP7 KECCAK256 ADD SLOAD PUSH2 0xB69 JUMP JUMPDEST PUSH2 0xC2C JUMP JUMPDEST POP DUP1 RETURN JUMPDEST DUP3 DUP1 REVERT JUMPDEST POP DUP1 PUSH1 0x3 NOT CALLDATASIZE ADD SLT PUSH2 0x101 JUMPI PUSH2 0x119 PUSH2 0x9C1 JUMP JUMPDEST PUSH2 0x121 PUSH2 0x9DC JUMP JUMPDEST SWAP4 CALLVALUE ISZERO PUSH2 0x2EC JUMPI PUSH20 0xEEEEEEEEEEEEEEEEEEEEEEEEEEEEEEEEEEEEEEEE DUP2 MSTORE PUSH1 0x20 SWAP5 PUSH1 0x1 DUP7 MSTORE PUSH2 0x180 PUSH1 0x1 PUSH1 0x1 PUSH1 0xA0 SHL SUB DUP6 DUP5 KECCAK256 SLOAD SWAP5 AND SWAP4 DUP5 DUP5 MSTORE PUSH2 0x17B DUP7 DUP6 KECCAK256 SLOAD SWAP2 DUP1 ISZERO ISZERO DUP1 PUSH2 0x2E3 JUMPI JUMPDEST PUSH2 0x175 SWAP1 PUSH2 0xB1E JUMP JUMPDEST CALLVALUE PUSH2 0xA42 JUMP JUMPDEST PUSH2 0xA6B JUMP JUMPDEST SWAP5 DUP5 MLOAD PUSH4 0x70A08231 PUSH1 0xE0 SHL DUP2 MSTORE ADDRESS DUP3 DUP3 ADD MSTORE DUP8 DUP2 PUSH1 0x24 DUP2 DUP9 GAS STATICCALL SWAP1 DUP2 ISZERO PUSH2 0x2D9 JUMPI SWAP1 DUP8 SWAP2 DUP6 SWAP2 PUSH2 0x2A4 JUMPI JUMPDEST POP LT PUSH2 0x262 JUMPI DUP5 MLOAD PUSH4 0xA9059CBB PUSH1 0xE0 SHL DUP2 MSTORE PUSH1 0x1 PUSH1 0x1 PUSH1 0xA0 SHL SUB SWAP1 SWAP3 AND SWAP1 DUP3 ADD SWAP1 DUP2 MSTORE PUSH1 0x20 DUP2 ADD DUP7 SWAP1 MSTORE SWAP1 SWAP2 SWAP1 DUP7 SWAP1 DUP4 SWAP1 DUP2 SWAP1 PUSH1 0x40 ADD SUB DUP2 DUP5 DUP8 GAS CALL SWAP1 DUP2 ISZERO PUSH2 0x257 JUMPI POP PUSH2 0x22A JUMPI JUMPDEST POP DUP2 MLOAD CALLVALUE DUP2 MSTORE DUP4 DUP6 DUP3 ADD MSTORE PUSH32 0x59A6C2D15A2AE3486483464C924AB1CB80DCFD000530F15C1F89F25F22E69853 DUP4 CALLER SWAP3 LOG3 MLOAD SWAP1 DUP2 MSTORE RETURN JUMPDEST PUSH2 0x249 SWAP1 DUP6 RETURNDATASIZE DUP8 GT PUSH2 0x250 JUMPI JUMPDEST PUSH2 0x241 DUP2 DUP4 PUSH2 0x9F2 JUMP JUMPDEST DUP2 ADD SWAP1 PUSH2 0xA2A JUMP JUMPDEST POP CODESIZE PUSH2 0x1F4 JUMP JUMPDEST POP RETURNDATASIZE PUSH2 0x237 JUMP JUMPDEST DUP5 MLOAD SWAP1 RETURNDATASIZE SWAP1 DUP3 RETURNDATACOPY RETURNDATASIZE SWAP1 REVERT JUMPDEST PUSH1 0x64 SWAP1 DUP8 DUP7 MLOAD SWAP2 PUSH3 0x461BCD PUSH1 0xE5 SHL DUP4 MSTORE DUP3 ADD MSTORE PUSH1 0x1A PUSH1 0x24 DUP3 ADD MSTORE PUSH32 0x496E73756666696369656E7420746F6B656E2062616C616E6365000000000000 PUSH1 0x44 DUP3 ADD MSTORE REVERT JUMPDEST DUP1 SWAP3 POP DUP10 DUP1 SWAP3 POP RETURNDATASIZE DUP4 GT PUSH2 0x2D2 JUMPI JUMPDEST PUSH2 0x2BD DUP2 DUP4 PUSH2 0x9F2 JUMP JUMPDEST DUP2 ADD SUB SLT PUSH2 0x2CE JUMPI DUP7 SWAP1 MLOAD CODESIZE PUSH2 0x1AB JUMP JUMPDEST DUP4 DUP1 REVERT JUMPDEST POP RETURNDATASIZE PUSH2 0x2B3 JUMP JUMPDEST DUP7 MLOAD RETURNDATASIZE DUP7 DUP3 RETURNDATACOPY RETURNDATASIZE SWAP1 REVERT JUMPDEST POP DUP3 ISZERO ISZERO PUSH2 0x16C JUMP JUMPDEST PUSH1 0x64 DUP5 PUSH1 0x20 DUP6 MLOAD SWAP2 PUSH3 0x461BCD PUSH1 0xE5 SHL DUP4 MSTORE DUP3 ADD MSTORE PUSH1 0x15 PUSH1 0x24 DUP3 ADD MSTORE PUSH32 0x4D7573742073656E642045544820746F20737761700000000000000000000000 PUSH1 0x44 DUP3 ADD MSTORE REVERT JUMPDEST DUP4 DUP3 CALLVALUE PUSH2 0x34A JUMPI DUP2 PUSH1 0x3 NOT CALLDATASIZE ADD SLT PUSH2 0x34A JUMPI MLOAD SWAP1 DUP2 MSTORE PUSH1 0x20 SWAP1 RETURN JUMPDEST POP DUP1 REVERT JUMPDEST POP SWAP1 CALLVALUE PUSH2 0x101 JUMPI DUP2 PUSH1 0x3 NOT CALLDATASIZE ADD SLT PUSH2 0x101 JUMPI DUP2 PUSH1 0x20 SWAP4 PUSH1 0xFF SWAP3 PUSH2 0x36F PUSH2 0x9DC JUMP JUMPDEST SWAP1 CALLDATALOAD DUP3 MSTORE DUP2 DUP7 MSTORE PUSH1 0x1 PUSH1 0x1 PUSH1 0xA0 SHL SUB DUP4 DUP4 KECCAK256 SWAP2 AND DUP3 MSTORE DUP6 MSTORE KECCAK256 SLOAD AND SWAP1 MLOAD SWAP1 ISZERO ISZERO DUP2 MSTORE RETURN JUMPDEST POP CALLVALUE PUSH2 0x101 JUMPI PUSH1 0x60 CALLDATASIZE PUSH1 0x3 NOT ADD SLT PUSH2 0x101 JUMPI PUSH2 0x3AD PUSH2 0x9C1 JUMP JUMPDEST PUSH1 0x24 CALLDATALOAD PUSH1 0x44 CALLDATALOAD SWAP5 PUSH1 0x1 PUSH1 0x1 PUSH1 0xA0 SHL SUB SWAP6 DUP7 DUP2 AND DUP1 SWAP2 SUB PUSH2 0x34A JUMPI PUSH20 0xEEEEEEEEEEEEEEEEEEEEEEEEEEEEEEEEEEEEEEEE DUP3 MSTORE PUSH2 0x411 PUSH1 0x20 SWAP8 PUSH1 0x1 DUP10 MSTORE DUP7 DUP5 KECCAK256 SLOAD SWAP6 AND SWAP5 DUP6 DUP5 MSTORE PUSH2 0x17B DUP8 DUP6 KECCAK256 SLOAD DUP3 ISZERO ISZERO DUP1 PUSH2 0x51E JUMPI JUMPDEST PUSH2 0x40B SWAP1 PUSH2 0xB1E JUMP JUMPDEST DUP7 PUSH2 0xA42 JUMP JUMPDEST DUP6 MLOAD PUSH4 0x23B872DD PUSH1 0xE0 SHL DUP2 MSTORE CALLER DUP2 DUP10 ADD SWAP1 DUP2 MSTORE ADDRESS PUSH1 0x20 DUP3 ADD MSTORE PUSH1 0x40 DUP2 ADD DUP7 SWAP1 MSTORE SWAP2 SWAP8 SWAP2 DUP10 SWAP1 DUP3 SWAP1 DUP2 SWAP1 PUSH1 0x60 ADD SUB DUP2 DUP8 DUP11 GAS CALL DUP1 ISZERO PUSH2 0x514 JUMPI PUSH2 0x4F7 JUMPI JUMPDEST POP DUP7 SELFBALANCE LT PUSH2 0x4B5 JUMPI POP DUP2 DUP1 DUP1 DUP9 DUP2 SWAP5 DUP3 DUP3 ISZERO PUSH2 0x4AC JUMPI JUMPDEST CALL ISZERO PUSH2 0x4A1 JUMPI POP DUP3 MLOAD SWAP1 DUP2 MSTORE DUP4 DUP6 DUP3 ADD MSTORE PUSH32 0xDE0DE7715272CC074C6AA787CB38A0922F4F1EB76660F2EC9A2973A1E23FF86 DUP4 CALLER SWAP3 LOG3 MLOAD SWAP1 DUP2 MSTORE RETURN JUMPDEST DUP4 MLOAD SWAP1 RETURNDATASIZE SWAP1 DUP3 RETURNDATACOPY RETURNDATASIZE SWAP1 REVERT JUMPDEST POP PUSH2 0x8FC PUSH2 0x465 JUMP JUMPDEST PUSH1 0x64 SWAP1 DUP9 DUP8 MLOAD SWAP2 PUSH3 0x461BCD PUSH1 0xE5 SHL DUP4 MSTORE DUP3 ADD MSTORE PUSH1 0x18 PUSH1 0x24 DUP3 ADD MSTORE PUSH32 0x496E73756666696369656E74204554482062616C616E63650000000000000000 PUSH1 0x44 DUP3 ADD MSTORE REVERT JUMPDEST PUSH2 0x50D SWAP1 DUP10 RETURNDATASIZE DUP12 GT PUSH2 0x250 JUMPI PUSH2 0x241 DUP2 DUP4 PUSH2 0x9F2 JUMP JUMPDEST POP CODESIZE PUSH2 0x44E JUMP JUMPDEST DUP8 MLOAD RETURNDATASIZE DUP7 DUP3 RETURNDATACOPY RETURNDATASIZE SWAP1 REVERT JUMPDEST POP DUP1 ISZERO ISZERO PUSH2 0x402 JUMP JUMPDEST DUP4 DUP3 CALLVALUE PUSH2 0x34A JUMPI PUSH1 0x60 CALLDATASIZE PUSH1 0x3 NOT ADD SLT PUSH2 0x34A JUMPI PUSH1 0x20 SWAP1 PUSH2 0x559 PUSH2 0x548 PUSH2 0x9C1 JUMP JUMPDEST PUSH2 0x550 PUSH2 0x9DC JUMP JUMPDEST PUSH1 0x44 CALLDATALOAD SWAP2 PUSH2 0xA8B JUMP JUMPDEST SWAP1 MLOAD SWAP1 DUP2 MSTORE RETURN JUMPDEST POP SWAP1 CALLVALUE PUSH2 0x101 JUMPI DUP2 PUSH1 0x3 NOT CALLDATASIZE ADD SLT PUSH2 0x101 JUMPI PUSH2 0x57A PUSH2 0x9C1 JUMP JUMPDEST SWAP1 DUP4 DUP1 MSTORE DUP4 PUSH1 0x20 MSTORE DUP3 DUP5 KECCAK256 CALLER DUP6 MSTORE PUSH1 0x20 MSTORE PUSH1 0xFF DUP4 DUP6 KECCAK256 SLOAD AND ISZERO PUSH2 0x5B2 JUMPI POP PUSH1 0x1 PUSH1 0x1 PUSH1 0xA0 SHL SUB AND DUP3 MSTORE PUSH1 0x1 PUSH1 0x20 MSTORE PUSH1 0x24 CALLDATALOAD SWAP1 DUP3 KECCAK256 SSTORE DUP1 RETURN JUMPDEST PUSH1 0x44 SWAP1 DUP5 DUP5 MLOAD SWAP2 PUSH4 0xE2517D3F PUSH1 0xE0 SHL DUP4 MSTORE CALLER SWAP1 DUP4 ADD MSTORE PUSH1 0x24 DUP3 ADD MSTORE REVERT JUMPDEST DUP4 DUP3 CALLVALUE PUSH2 0x34A JUMPI DUP2 PUSH1 0x3 NOT CALLDATASIZE ADD SLT PUSH2 0x34A JUMPI PUSH1 0x20 SWAP1 MLOAD PUSH20 0xEEEEEEEEEEEEEEEEEEEEEEEEEEEEEEEEEEEEEEEE DUP2 MSTORE RETURN JUMPDEST POP CALLVALUE PUSH2 0x101 JUMPI PUSH1 0x80 CALLDATASIZE PUSH1 0x3 NOT ADD SLT PUSH2 0x101 JUMPI PUSH2 0x618 PUSH2 0x9C1 JUMP JUMPDEST SWAP2 PUSH2 0x621 PUSH2 0x9DC JUMP JUMPDEST SWAP4 PUSH1 0x44 CALLDATALOAD PUSH1 0x64 CALLDATALOAD SWAP2 PUSH1 0x1 PUSH1 0x1 PUSH1 0xA0 SHL SUB SWAP3 DUP4 DUP2 AND DUP2 SUB PUSH2 0x34A JUMPI DUP4 PUSH2 0x647 DUP5 DUP11 DUP11 PUSH2 0xA8B JUMP JUMPDEST SWAP8 AND SWAP4 DUP7 MLOAD SWAP9 PUSH4 0x23B872DD PUSH1 0xE0 SHL DUP11 MSTORE PUSH1 0x20 SWAP10 DUP11 DUP2 DUP1 PUSH2 0x68A DUP10 ADDRESS DUP14 CALLER SWAP1 DUP6 ADD PUSH1 0x40 SWAP2 SWAP5 SWAP4 SWAP3 SWAP5 PUSH1 0x60 DUP3 ADD SWAP6 PUSH1 0x1 PUSH1 0x1 PUSH1 0xA0 SHL SUB DUP1 SWAP3 AND DUP4 MSTORE AND PUSH1 0x20 DUP3 ADD MSTORE ADD MSTORE JUMP JUMPDEST SUB DUP2 DUP9 DUP12 GAS CALL DUP1 ISZERO PUSH2 0x82F JUMPI PUSH2 0x812 JUMPI JUMPDEST POP AND SWAP5 DUP7 MLOAD PUSH4 0x70A08231 PUSH1 0xE0 SHL DUP2 MSTORE ADDRESS DUP3 DUP3 ADD MSTORE DUP10 DUP2 PUSH1 0x24 DUP2 DUP11 GAS STATICCALL SWAP1 DUP2 ISZERO PUSH2 0x808 JUMPI SWAP1 DUP10 SWAP2 DUP6 SWAP2 PUSH2 0x7D7 JUMPI JUMPDEST POP LT PUSH2 0x76F JUMPI DUP7 MLOAD PUSH4 0xA9059CBB PUSH1 0xE0 SHL DUP2 MSTORE PUSH1 0x1 PUSH1 0x1 PUSH1 0xA0 SHL SUB SWAP1 SWAP3 AND SWAP1 DUP3 ADD SWAP1 DUP2 MSTORE PUSH1 0x20 DUP2 ADD DUP9 SWAP1 MSTORE SWAP1 SWAP2 SWAP1 DUP9 SWAP1 DUP4 SWAP1 DUP2 SWAP1 PUSH1 0x40 ADD SUB DUP2 DUP5 DUP10 GAS CALL SWAP1 DUP2 ISZERO PUSH2 0x764 JUMPI POP PUSH2 0x747 JUMPI JUMPDEST POP DUP4 MLOAD SWAP1 DUP2 MSTORE DUP5 DUP7 DUP3 ADD MSTORE PUSH32 0x2E05FC618CCC3AEC7D710F137A131E0AB5B31AF09FC6A0EDB726DCD94B2E478F DUP5 CALLER SWAP3 LOG4 MLOAD SWAP1 DUP2 MSTORE RETURN JUMPDEST PUSH2 0x75D SWAP1 DUP8 RETURNDATASIZE DUP10 GT PUSH2 0x250 JUMPI PUSH2 0x241 DUP2 DUP4 PUSH2 0x9F2 JUMP JUMPDEST POP CODESIZE PUSH2 0x711 JUMP JUMPDEST DUP7 MLOAD SWAP1 RETURNDATASIZE SWAP1 DUP3 RETURNDATACOPY RETURNDATASIZE SWAP1 REVERT JUMPDEST PUSH1 0x84 SWAP1 DUP10 DUP9 MLOAD SWAP2 PUSH3 0x461BCD PUSH1 0xE5 SHL DUP4 MSTORE DUP3 ADD MSTORE PUSH1 0x21 PUSH1 0x24 DUP3 ADD MSTORE PUSH32 0x496E73756666696369656E74206F757470757420746F6B656E2062616C616E63 PUSH1 0x44 DUP3 ADD MSTORE PUSH32 0x6500000000000000000000000000000000000000000000000000000000000000 PUSH1 0x64 DUP3 ADD MSTORE REVERT JUMPDEST DUP1 SWAP3 POP DUP12 DUP1 SWAP3 POP RETURNDATASIZE DUP4 GT PUSH2 0x801 JUMPI JUMPDEST PUSH2 0x7F0 DUP2 DUP4 PUSH2 0x9F2 JUMP JUMPDEST DUP2 ADD SUB SLT PUSH2 0x2CE JUMPI DUP9 SWAP1 MLOAD CODESIZE PUSH2 0x6C8 JUMP JUMPDEST POP RETURNDATASIZE PUSH2 0x7E6 JUMP JUMPDEST DUP9 MLOAD RETURNDATASIZE DUP7 DUP3 RETURNDATACOPY RETURNDATASIZE SWAP1 REVERT JUMPDEST PUSH2 0x828 SWAP1 DUP12 RETURNDATASIZE DUP14 GT PUSH2 0x250 JUMPI PUSH2 0x241 DUP2 DUP4 PUSH2 0x9F2 JUMP JUMPDEST POP CODESIZE PUSH2 0x69B JUMP JUMPDEST DUP10 MLOAD RETURNDATASIZE DUP8 DUP3 RETURNDATACOPY RETURNDATASIZE SWAP1 REVERT JUMPDEST POP DUP3 SWAP1 CALLVALUE PUSH2 0x34A JUMPI DUP1 PUSH1 0x3 NOT CALLDATASIZE ADD SLT PUSH2 0x34A JUMPI PUSH2 0x854 PUSH2 0x9DC JUMP JUMPDEST SWAP1 CALLER PUSH1 0x1 PUSH1 0x1 PUSH1 0xA0 SHL SUB DUP4 AND SUB PUSH2 0x871 JUMPI POP PUSH2 0xFD SWAP2 SWAP3 CALLDATALOAD PUSH2 0xC2C JUMP JUMPDEST DUP4 SWAP1 MLOAD PUSH32 0x6697B23200000000000000000000000000000000000000000000000000000000 DUP2 MSTORE REVERT JUMPDEST POP CALLVALUE PUSH2 0x101 JUMPI DUP1 PUSH1 0x3 NOT CALLDATASIZE ADD SLT PUSH2 0x101 JUMPI PUSH2 0xFD SWAP2 CALLDATALOAD PUSH2 0x8BC PUSH1 0x1 PUSH2 0xE7 PUSH2 0x9DC JUMP JUMPDEST PUSH2 0xBAD JUMP JUMPDEST POP SWAP1 CALLVALUE PUSH2 0x101 JUMPI PUSH1 0x20 CALLDATASIZE PUSH1 0x3 NOT ADD SLT PUSH2 0x101 JUMPI DUP2 PUSH1 0x20 SWAP4 PUSH1 0x1 SWAP3 CALLDATALOAD DUP2 MSTORE DUP1 DUP6 MSTORE KECCAK256 ADD SLOAD SWAP1 MLOAD SWAP1 DUP2 MSTORE RETURN JUMPDEST DUP4 DUP3 CALLVALUE PUSH2 0x34A JUMPI PUSH1 0x20 CALLDATASIZE PUSH1 0x3 NOT ADD SLT PUSH2 0x34A JUMPI DUP1 PUSH1 0x20 SWAP3 PUSH1 0x1 PUSH1 0x1 PUSH1 0xA0 SHL SUB PUSH2 0x912 PUSH2 0x9C1 JUMP JUMPDEST AND DUP2 MSTORE PUSH1 0x1 DUP5 MSTORE KECCAK256 SLOAD SWAP1 MLOAD SWAP1 DUP2 MSTORE RETURN JUMPDEST DUP5 SWAP1 DUP5 CALLVALUE PUSH2 0x101 JUMPI PUSH1 0x20 CALLDATASIZE PUSH1 0x3 NOT ADD SLT PUSH2 0x101 JUMPI CALLDATALOAD PUSH32 0xFFFFFFFF00000000000000000000000000000000000000000000000000000000 DUP2 AND DUP1 SWAP2 SUB PUSH2 0x101 JUMPI PUSH1 0x20 SWAP3 POP PUSH32 0x7965DB0B00000000000000000000000000000000000000000000000000000000 DUP2 EQ SWAP1 DUP2 ISZERO PUSH2 0x997 JUMPI JUMPDEST POP ISZERO ISZERO DUP2 MSTORE RETURN JUMPDEST PUSH32 0x1FFC9A700000000000000000000000000000000000000000000000000000000 SWAP2 POP EQ DUP4 PUSH2 0x990 JUMP JUMPDEST PUSH1 0x4 CALLDATALOAD SWAP1 PUSH1 0x1 PUSH1 0x1 PUSH1 0xA0 SHL SUB DUP3 AND DUP3 SUB PUSH2 0x9D7 JUMPI JUMP JUMPDEST PUSH1 0x0 DUP1 REVERT JUMPDEST PUSH1 0x24 CALLDATALOAD SWAP1 PUSH1 0x1 PUSH1 0x1 PUSH1 0xA0 SHL SUB DUP3 AND DUP3 SUB PUSH2 0x9D7 JUMPI JUMP JUMPDEST SWAP1 PUSH1 0x1F DUP1 NOT SWAP2 ADD AND DUP2 ADD SWAP1 DUP2 LT PUSH8 0xFFFFFFFFFFFFFFFF DUP3 GT OR PUSH2 0xA14 JUMPI PUSH1 0x40 MSTORE JUMP JUMPDEST PUSH4 0x4E487B71 PUSH1 0xE0 SHL PUSH1 0x0 MSTORE PUSH1 0x41 PUSH1 0x4 MSTORE PUSH1 0x24 PUSH1 0x0 REVERT JUMPDEST SWAP1 DUP2 PUSH1 0x20 SWAP2 SUB SLT PUSH2 0x9D7 JUMPI MLOAD DUP1 ISZERO ISZERO DUP2 SUB PUSH2 0x9D7 JUMPI SWAP1 JUMP JUMPDEST DUP2 DUP2 MUL SWAP3 SWAP2 DUP2 ISZERO SWAP2 DUP5 DIV EQ OR ISZERO PUSH2 0xA55 JUMPI JUMP JUMPDEST PUSH4 0x4E487B71 PUSH1 0xE0 SHL PUSH1 0x0 MSTORE PUSH1 0x11 PUSH1 0x4 MSTORE PUSH1 0x24 PUSH1 0x0 REVERT JUMPDEST DUP2 ISZERO PUSH2 0xA75 JUMPI DIV SWAP1 JUMP JUMPDEST PUSH4 0x4E487B71 PUSH1 0xE0 SHL PUSH1 0x0 MSTORE PUSH1 0x12 PUSH1 0x4 MSTORE PUSH1 0x24 PUSH1 0x0 REVERT JUMPDEST SWAP2 SWAP1 SWAP2 PUSH1 0x1 PUSH1 0x1 PUSH1 0xA0 SHL SUB DUP1 SWAP2 AND PUSH1 0x0 MSTORE PUSH1 0x1 PUSH1 0x20 MSTORE PUSH1 0x40 PUSH1 0x0 KECCAK256 SLOAD SWAP3 AND PUSH1 0x0 MSTORE PUSH1 0x40 PUSH1 0x0 KECCAK256 SLOAD SWAP1 DUP3 ISZERO ISZERO DUP1 PUSH2 0xB15 JUMPI JUMPDEST ISZERO PUSH2 0xAD1 JUMPI PUSH2 0xACE SWAP3 PUSH2 0x17B SWAP2 PUSH2 0xA42 JUMP JUMPDEST SWAP1 JUMP JUMPDEST PUSH1 0x64 PUSH1 0x40 MLOAD PUSH3 0x461BCD PUSH1 0xE5 SHL DUP2 MSTORE PUSH1 0x20 PUSH1 0x4 DUP3 ADD MSTORE PUSH1 0x13 PUSH1 0x24 DUP3 ADD MSTORE PUSH32 0x546F6B656E207072696365206E6F742073657400000000000000000000000000 PUSH1 0x44 DUP3 ADD MSTORE REVERT JUMPDEST POP DUP2 ISZERO ISZERO PUSH2 0xABC JUMP JUMPDEST ISZERO PUSH2 0xB25 JUMPI JUMP JUMPDEST PUSH1 0x64 PUSH1 0x40 MLOAD PUSH3 0x461BCD PUSH1 0xE5 SHL DUP2 MSTORE PUSH1 0x20 PUSH1 0x4 DUP3 ADD MSTORE PUSH1 0x1A PUSH1 0x24 DUP3 ADD MSTORE PUSH32 0x455448206F7220546F6B656E207072696365206E6F7420736574000000000000 PUSH1 0x44 DUP3 ADD MSTORE REVERT JUMPDEST DUP1 PUSH1 0x0 MSTORE PUSH1 0x0 PUSH1 0x20 MSTORE PUSH1 0x40 PUSH1 0x0 KECCAK256 CALLER PUSH1 0x0 MSTORE PUSH1 0x20 MSTORE PUSH1 0xFF PUSH1 0x40 PUSH1 0x0 KECCAK256 SLOAD AND ISZERO PUSH2 0xB8F JUMPI POP JUMP JUMPDEST PUSH1 0x44 SWAP1 PUSH1 0x40 MLOAD SWAP1 PUSH4 0xE2517D3F PUSH1 0xE0 SHL DUP3 MSTORE CALLER PUSH1 0x4 DUP4 ADD MSTORE PUSH1 0x24 DUP3 ADD MSTORE REVERT JUMPDEST SWAP1 PUSH1 0x0 SWAP2 DUP1 DUP4 MSTORE DUP3 PUSH1 0x20 MSTORE PUSH1 0x1 PUSH1 0x1 PUSH1 0xA0 SHL SUB PUSH1 0x40 DUP5 KECCAK256 SWAP3 AND SWAP2 DUP3 DUP5 MSTORE PUSH1 0x20 MSTORE PUSH1 0xFF PUSH1 0x40 DUP5 KECCAK256 SLOAD AND ISZERO PUSH1 0x0 EQ PUSH2 0xC27 JUMPI DUP1 DUP4 MSTORE DUP3 PUSH1 0x20 MSTORE PUSH1 0x40 DUP4 KECCAK256 DUP3 DUP5 MSTORE PUSH1 0x20 MSTORE PUSH1 0x40 DUP4 KECCAK256 PUSH1 0x1 PUSH1 0xFF NOT DUP3 SLOAD AND OR SWAP1 SSTORE PUSH32 0x2F8788117E7EFF1D82E926EC794901D17C78024A50270940304540A733656F0D CALLER SWAP4 DUP1 LOG4 PUSH1 0x1 SWAP1 JUMP JUMPDEST POP POP SWAP1 JUMP JUMPDEST SWAP1 PUSH1 0x0 SWAP2 DUP1 DUP4 MSTORE DUP3 PUSH1 0x20 MSTORE PUSH1 0x1 PUSH1 0x1 PUSH1 0xA0 SHL SUB PUSH1 0x40 DUP5 KECCAK256 SWAP3 AND SWAP2 DUP3 DUP5 MSTORE PUSH1 0x20 MSTORE PUSH1 0xFF PUSH1 0x40 DUP5 KECCAK256 SLOAD AND PUSH1 0x0 EQ PUSH2 0xC27 JUMPI DUP1 DUP4 MSTORE DUP3 PUSH1 0x20 MSTORE PUSH1 0x40 DUP4 KECCAK256 DUP3 DUP5 MSTORE PUSH1 0x20 MSTORE PUSH1 0x40 DUP4 KECCAK256 PUSH1 0xFF NOT DUP2 SLOAD AND SWAP1 SSTORE PUSH32 0xF6391F5C32D9C69D2A47EA670B442974B53935D1EDC7FD64EB21E047A839171B CALLER SWAP4 DUP1 LOG4 PUSH1 0x1 SWAP1 JUMP INVALID LOG2 PUSH5 0x6970667358 0x22 SLT KECCAK256 0xE1 ADDRESS SMOD SLOAD POP 0xAA 0xB9 0xE4 0xDF REVERT PUSH13 0xCD6501FA2811F3E75A77C589C3 0x4D 0xDC 0xC7 SWAP2 0xE5 SWAP4 0xBD CODECOPY PUSH5 0x736F6C6343 STOP ADDMOD XOR STOP CALLER "
        },
        "methodIdentifiers": {
          "DEFAULT_ADMIN_ROLE()": "a217fddf",
          "getAmountOut(address,address,uint256)": "4aa06652",
          "getRoleAdmin(bytes32)": "248a9ca3",
          "grantRole(bytes32,address)": "2f2ff15d",
          "hasRole(bytes32,address)": "91d14854",
          "renounceRole(bytes32,address)": "36568abe",
          "revokeRole(bytes32,address)": "d547741f",
          "setTokenPrice(address,uint256)": "431f63c9",
          "supportsInterface(bytes4)": "01ffc9a7",
          "swapETHToTokens(address,address)": "bed2d5e8",
          "swapTokenToToken(address,address,uint256,address)": "3f3f80c3",
          "swapTokensToETH(address,uint256,address)": "796449dd",
          "tokenPricesUSD(address)": "19089a0d",
          "weth()": "3fc8cef3"
        }
      }
    }
  }
}