{
  "contracts/src/HoneyRouter01.sol": {
    "HoneyRouter01": {
      "abi": [
        {
          "inputs": [
            {
              "internalType": "address",
              "name": "_tokenMap",
              "type": "address"
            },
            {
              "internalType": "address",
              "name": "_router",
              "type": "address"
            },
            {
              "internalType": "address",
              "name": "_treasury",
              "type": "address"
            }
          ],
          "stateMutability": "nonpayable",
          "type": "constructor"
        },
        {
          "inputs": [],
          "name": "AccessControlBadConfirmation",
          "type": "error"
        },
        {
          "inputs": [
            {
              "internalType": "address",
              "name": "account",
              "type": "address"
            },
            {
              "internalType": "bytes32",
              "name": "neededRole",
              "type": "bytes32"
            }
          ],
          "name": "AccessControlUnauthorizedAccount",
          "type": "error"
        },
        {
          "inputs": [
            {
              "internalType": "address",
              "name": "target",
              "type": "address"
            }
          ],
          "name": "AddressEmptyCode",
          "type": "error"
        },
        {
          "inputs": [
            {
              "internalType": "address",
              "name": "account",
              "type": "address"
            }
          ],
          "name": "AddressInsufficientBalance",
          "type": "error"
        },
        {
          "inputs": [],
          "name": "EnforcedPause",
          "type": "error"
        },
        {
          "inputs": [],
          "name": "ExpectedPause",
          "type": "error"
        },
        {
          "inputs": [],
          "name": "FailedInnerCall",
          "type": "error"
        },
        {
          "inputs": [],
          "name": "InvalidLength",
          "type": "error"
        },
        {
          "inputs": [],
          "name": "InvalidMessageSender",
          "type": "error"
        },
        {
          "inputs": [
            {
              "internalType": "uint256",
              "name": "chainSelector",
              "type": "uint256"
            }
          ],
          "name": "InvalidPeer",
          "type": "error"
        },
        {
          "inputs": [
            {
              "internalType": "address",
              "name": "router",
              "type": "address"
            }
          ],
          "name": "InvalidRouter",
          "type": "error"
        },
        {
          "inputs": [
            {
              "internalType": "address",
              "name": "owner",
              "type": "address"
            }
          ],
          "name": "OwnableInvalidOwner",
          "type": "error"
        },
        {
          "inputs": [
            {
              "internalType": "address",
              "name": "account",
              "type": "address"
            }
          ],
          "name": "OwnableUnauthorizedAccount",
          "type": "error"
        },
        {
          "inputs": [],
          "name": "RouterAddressCannotBeZero",
          "type": "error"
        },
        {
          "inputs": [
            {
              "internalType": "address",
              "name": "token",
              "type": "address"
            }
          ],
          "name": "SafeERC20FailedOperation",
          "type": "error"
        },
        {
          "anonymous": false,
          "inputs": [
            {
              "indexed": true,
              "internalType": "address",
              "name": "previousOwner",
              "type": "address"
            },
            {
              "indexed": true,
              "internalType": "address",
              "name": "newOwner",
              "type": "address"
            }
          ],
          "name": "OwnershipTransferred",
          "type": "event"
        },
        {
          "anonymous": false,
          "inputs": [
            {
              "indexed": false,
              "internalType": "address",
              "name": "account",
              "type": "address"
            }
          ],
          "name": "Paused",
          "type": "event"
        },
        {
          "anonymous": false,
          "inputs": [
            {
              "indexed": true,
              "internalType": "bytes32",
              "name": "role",
              "type": "bytes32"
            },
            {
              "indexed": true,
              "internalType": "bytes32",
              "name": "previousAdminRole",
              "type": "bytes32"
            },
            {
              "indexed": true,
              "internalType": "bytes32",
              "name": "newAdminRole",
              "type": "bytes32"
            }
          ],
          "name": "RoleAdminChanged",
          "type": "event"
        },
        {
          "anonymous": false,
          "inputs": [
            {
              "indexed": true,
              "internalType": "bytes32",
              "name": "role",
              "type": "bytes32"
            },
            {
              "indexed": true,
              "internalType": "address",
              "name": "account",
              "type": "address"
            },
            {
              "indexed": true,
              "internalType": "address",
              "name": "sender",
              "type": "address"
            }
          ],
          "name": "RoleGranted",
          "type": "event"
        },
        {
          "anonymous": false,
          "inputs": [
            {
              "indexed": true,
              "internalType": "bytes32",
              "name": "role",
              "type": "bytes32"
            },
            {
              "indexed": true,
              "internalType": "address",
              "name": "account",
              "type": "address"
            },
            {
              "indexed": true,
              "internalType": "address",
              "name": "sender",
              "type": "address"
            }
          ],
          "name": "RoleRevoked",
          "type": "event"
        },
        {
          "anonymous": false,
          "inputs": [
            {
              "indexed": false,
              "internalType": "address",
              "name": "account",
              "type": "address"
            }
          ],
          "name": "Unpaused",
          "type": "event"
        },
        {
          "inputs": [],
          "name": "DEFAULT_ADMIN_ROLE",
          "outputs": [
            {
              "internalType": "bytes32",
              "name": "",
              "type": "bytes32"
            }
          ],
          "stateMutability": "view",
          "type": "function"
        },
        {
          "inputs": [],
          "name": "TREASURY",
          "outputs": [
            {
              "internalType": "address",
              "name": "",
              "type": "address"
            }
          ],
          "stateMutability": "view",
          "type": "function"
        },
        {
          "inputs": [
            {
              "internalType": "uint256",
              "name": "amountIn",
              "type": "uint256"
            },
            {
              "internalType": "address",
              "name": "tokenIn",
              "type": "address"
            },
            {
              "internalType": "address",
              "name": "tokenOut",
              "type": "address"
            }
          ],
          "name": "bestRouter",
          "outputs": [
            {
              "internalType": "uint256",
              "name": "",
              "type": "uint256"
            },
            {
              "internalType": "address",
              "name": "",
              "type": "address"
            },
            {
              "components": [
                {
                  "internalType": "string",
                  "name": "name",
                  "type": "string"
                },
                {
                  "internalType": "string",
                  "name": "routerURI",
                  "type": "string"
                }
              ],
              "internalType": "struct IHoneyExecutor.Router",
              "name": "",
              "type": "tuple"
            }
          ],
          "stateMutability": "view",
          "type": "function"
        },
        {
          "inputs": [],
          "name": "getEquitoFee",
          "outputs": [
            {
              "internalType": "uint256",
              "name": "",
              "type": "uint256"
            }
          ],
          "stateMutability": "view",
          "type": "function"
        },
        {
          "inputs": [
            {
              "internalType": "uint256",
              "name": "chainSelector",
              "type": "uint256"
            }
          ],
          "name": "getPeer",
          "outputs": [
            {
              "components": [
                {
                  "internalType": "bytes32",
                  "name": "lower",
                  "type": "bytes32"
                },
                {
                  "internalType": "bytes32",
                  "name": "upper",
                  "type": "bytes32"
                }
              ],
              "internalType": "struct bytes64",
              "name": "",
              "type": "tuple"
            }
          ],
          "stateMutability": "view",
          "type": "function"
        },
        {
          "inputs": [
            {
              "internalType": "bytes32",
              "name": "role",
              "type": "bytes32"
            }
          ],
          "name": "getRoleAdmin",
          "outputs": [
            {
              "internalType": "bytes32",
              "name": "",
              "type": "bytes32"
            }
          ],
          "stateMutability": "view",
          "type": "function"
        },
        {
          "inputs": [
            {
              "internalType": "bytes32",
              "name": "role",
              "type": "bytes32"
            },
            {
              "internalType": "address",
              "name": "account",
              "type": "address"
            }
          ],
          "name": "grantRole",
          "outputs": [],
          "stateMutability": "nonpayable",
          "type": "function"
        },
        {
          "inputs": [
            {
              "internalType": "bytes32",
              "name": "role",
              "type": "bytes32"
            },
            {
              "internalType": "address",
              "name": "account",
              "type": "address"
            }
          ],
          "name": "hasRole",
          "outputs": [
            {
              "internalType": "bool",
              "name": "",
              "type": "bool"
            }
          ],
          "stateMutability": "view",
          "type": "function"
        },
        {
          "inputs": [],
          "name": "owner",
          "outputs": [
            {
              "internalType": "address",
              "name": "",
              "type": "address"
            }
          ],
          "stateMutability": "view",
          "type": "function"
        },
        {
          "inputs": [],
          "name": "pause",
          "outputs": [],
          "stateMutability": "nonpayable",
          "type": "function"
        },
        {
          "inputs": [],
          "name": "paused",
          "outputs": [
            {
              "internalType": "bool",
              "name": "",
              "type": "bool"
            }
          ],
          "stateMutability": "view",
          "type": "function"
        },
        {
          "inputs": [
            {
              "internalType": "uint256",
              "name": "",
              "type": "uint256"
            }
          ],
          "name": "peers",
          "outputs": [
            {
              "internalType": "bytes32",
              "name": "lower",
              "type": "bytes32"
            },
            {
              "internalType": "bytes32",
              "name": "upper",
              "type": "bytes32"
            }
          ],
          "stateMutability": "view",
          "type": "function"
        },
        {
          "inputs": [
            {
              "components": [
                {
                  "internalType": "uint256",
                  "name": "blockNumber",
                  "type": "uint256"
                },
                {
                  "internalType": "uint256",
                  "name": "sourceChainSelector",
                  "type": "uint256"
                },
                {
                  "components": [
                    {
                      "internalType": "bytes32",
                      "name": "lower",
                      "type": "bytes32"
                    },
                    {
                      "internalType": "bytes32",
                      "name": "upper",
                      "type": "bytes32"
                    }
                  ],
                  "internalType": "struct bytes64",
                  "name": "sender",
                  "type": "tuple"
                },
                {
                  "internalType": "uint256",
                  "name": "destinationChainSelector",
                  "type": "uint256"
                },
                {
                  "components": [
                    {
                      "internalType": "bytes32",
                      "name": "lower",
                      "type": "bytes32"
                    },
                    {
                      "internalType": "bytes32",
                      "name": "upper",
                      "type": "bytes32"
                    }
                  ],
                  "internalType": "struct bytes64",
                  "name": "receiver",
                  "type": "tuple"
                },
                {
                  "internalType": "bytes32",
                  "name": "hashedData",
                  "type": "bytes32"
                }
              ],
              "internalType": "struct EquitoMessage",
              "name": "message",
              "type": "tuple"
            },
            {
              "internalType": "bytes",
              "name": "messageData",
              "type": "bytes"
            }
          ],
          "name": "receiveMessage",
          "outputs": [],
          "stateMutability": "payable",
          "type": "function"
        },
        {
          "inputs": [],
          "name": "renounceOwnership",
          "outputs": [],
          "stateMutability": "nonpayable",
          "type": "function"
        },
        {
          "inputs": [
            {
              "internalType": "bytes32",
              "name": "role",
              "type": "bytes32"
            },
            {
              "internalType": "address",
              "name": "callerConfirmation",
              "type": "address"
            }
          ],
          "name": "renounceRole",
          "outputs": [],
          "stateMutability": "nonpayable",
          "type": "function"
        },
        {
          "inputs": [
            {
              "internalType": "bytes32",
              "name": "role",
              "type": "bytes32"
            },
            {
              "internalType": "address",
              "name": "account",
              "type": "address"
            }
          ],
          "name": "revokeRole",
          "outputs": [],
          "stateMutability": "nonpayable",
          "type": "function"
        },
        {
          "inputs": [
            {
              "internalType": "uint256[]",
              "name": "chainSelectors",
              "type": "uint256[]"
            },
            {
              "components": [
                {
                  "internalType": "bytes32",
                  "name": "lower",
                  "type": "bytes32"
                },
                {
                  "internalType": "bytes32",
                  "name": "upper",
                  "type": "bytes32"
                }
              ],
              "internalType": "struct bytes64[]",
              "name": "addresses",
              "type": "tuple[]"
            }
          ],
          "name": "setPeers",
          "outputs": [],
          "stateMutability": "nonpayable",
          "type": "function"
        },
        {
          "inputs": [
            {
              "internalType": "bytes4",
              "name": "interfaceId",
              "type": "bytes4"
            }
          ],
          "name": "supportsInterface",
          "outputs": [
            {
              "internalType": "bool",
              "name": "",
              "type": "bool"
            }
          ],
          "stateMutability": "view",
          "type": "function"
        },
        {
          "inputs": [
            {
              "internalType": "address",
              "name": "tokenOut",
              "type": "address"
            },
            {
              "internalType": "uint256",
              "name": "amountOutMin",
              "type": "uint256"
            },
            {
              "internalType": "uint256",
              "name": "destinationChainSelector",
              "type": "uint256"
            }
          ],
          "name": "swapETHToTokens",
          "outputs": [],
          "stateMutability": "payable",
          "type": "function"
        },
        {
          "inputs": [
            {
              "internalType": "address",
              "name": "tokenIn",
              "type": "address"
            },
            {
              "internalType": "uint256",
              "name": "amountIn",
              "type": "uint256"
            },
            {
              "internalType": "uint256",
              "name": "amountOutMin",
              "type": "uint256"
            },
            {
              "internalType": "uint256",
              "name": "destinationChainSelector",
              "type": "uint256"
            }
          ],
          "name": "swapTokensToETH",
          "outputs": [],
          "stateMutability": "payable",
          "type": "function"
        },
        {
          "inputs": [
            {
              "internalType": "address",
              "name": "tokenIn",
              "type": "address"
            },
            {
              "internalType": "uint256",
              "name": "amountIn",
              "type": "uint256"
            },
            {
              "internalType": "address",
              "name": "tokenOut",
              "type": "address"
            },
            {
              "internalType": "uint256",
              "name": "amountOutMin",
              "type": "uint256"
            },
            {
              "internalType": "uint256",
              "name": "destinationChainSelector",
              "type": "uint256"
            }
          ],
          "name": "swapTokensToTokens",
          "outputs": [],
          "stateMutability": "payable",
          "type": "function"
        },
        {
          "inputs": [
            {
              "internalType": "address",
              "name": "value",
              "type": "address"
            }
          ],
          "name": "toBase64",
          "outputs": [
            {
              "components": [
                {
                  "internalType": "bytes32",
                  "name": "lower",
                  "type": "bytes32"
                },
                {
                  "internalType": "bytes32",
                  "name": "upper",
                  "type": "bytes32"
                }
              ],
              "internalType": "struct bytes64",
              "name": "",
              "type": "tuple"
            }
          ],
          "stateMutability": "pure",
          "type": "function"
        },
        {
          "inputs": [
            {
              "internalType": "address",
              "name": "newOwner",
              "type": "address"
            }
          ],
          "name": "transferOwnership",
          "outputs": [],
          "stateMutability": "nonpayable",
          "type": "function"
        },
        {
          "inputs": [],
          "name": "unPause",
          "outputs": [],
          "stateMutability": "nonpayable",
          "type": "function"
        },
        {
          "inputs": [
            {
              "internalType": "address",
              "name": "newExecutor",
              "type": "address"
            }
          ],
          "name": "updateExecutor",
          "outputs": [],
          "stateMutability": "nonpayable",
          "type": "function"
        },
        {
          "inputs": [
            {
              "internalType": "address",
              "name": "newFactory",
              "type": "address"
            }
          ],
          "name": "updateFactory",
          "outputs": [],
          "stateMutability": "nonpayable",
          "type": "function"
        }
      ],
      "evm": {
        "bytecode": {
          "linkReferences": {
            "contracts/src/lib/HoneyFeeMath.sol": {
              "HoneyFeeMath": [
                {
                  "length": 20,
                  "start": 3124
                }
              ]
            }
          },
          "object": "60a0346200016d57601f62001e2838819003918201601f19168301916001600160401b0383118484101762000172578084926060946040528339810103126200016d576200004d8162000188565b906200006a6040620000626020840162000188565b920162000188565b91600154331562000154576001600160a81b0319811633600881811b610100600160a81b0316929092176001556040516001600160a01b0395909386939192911c83167f8be0079c531659141344cd1fd0a4f28419497f9722a3daafe3b4186f6b6457e0600080a3169081156200014557506080528160018060a01b031993168360035416176003551690600454161760045562000108336200019d565b50604051611bf990816200022f8239608051818181610407015281816106f80152818161084601528181610efa0152818161113101526118a90152f35b635008268360e01b8152600490fd5b604051631e4fbdf760e01b815260006004820152602490fd5b600080fd5b634e487b7160e01b600052604160045260246000fd5b51906001600160a01b03821682036200016d57565b6001600160a01b031660008181527fad3228b676f7d3cd4284a5443f17f1962b36e491b30a40b2405849e597ba5fb5602052604081205490919060ff166200022a57818052816020526040822081835260205260408220600160ff1982541617905533917f2f8788117e7eff1d82e926ec794901d17c78024a50270940304540a733656f0d8180a4600190565b509056fe6080604081815260048036101561001557600080fd5b600092833560e01c90816301ffc9a71461144657508063248a9ca31461141d5780632d2c5565146113f55780632f2ff15d146113cc57806336568abe1461136c578381634cbb45051461108e5750806359a1aae114610f765780635c42132e14610ec65780635c975abb14610ea257806361ee103114610d0a57806367ebb6b214610c5e578063715018a614610bf257806374936c1614610ba65780638456cb5914610b4c578063879d182d146107e95780638da5cb5b146107be57806391d1485414610779578063a1e8320914610630578063a217fddf14610615578063a4c021e9146103db578063be4f3e8f146103aa578063d547741f1461036c578063d9f165dc1461031d578063ef88e0e114610295578063f2fde38b146101c85763f7b188a51461014357600080fd5b346101c457826003193601126101c45761015b611638565b6001549060ff82161561019d575060ff1916600155513381527f5db9ee0a495bf2e6ff9c91a7834c1ba4fdd244a5e8aa4e537bd38aeae4b073aa90602090a180f35b82517f8dfc202b000000000000000000000000000000000000000000000000000000008152fd5b8280fd5b50346101c45760203660031901126101c4576101e26114fb565b6101ea6119bf565b6001600160a01b039182821693841561026657505074ffffffffffffffffffffffffffffffffffffffff006001549160081b1674ffffffffffffffffffffffffffffffffffffffff001982161760015560081c167f8be0079c531659141344cd1fd0a4f28419497f9722a3daafe3b4186f6b6457e0600080a380f35b908560249251917f1e4fbdf7000000000000000000000000000000000000000000000000000000008352820152fd5b5050346103195760203660031901126103195790610315916102b56114fb565b916000602083516102c58161156f565b82815201526000602083516102d98161156f565b82815201526001600160a01b038251936102f28561156f565b168352602083015251918291829190916020806040830194805184520151910152565b0390f35b5080fd5b8334610369576020366003190112610369576001600160a01b0361033f6114fb565b610347611638565b1673ffffffffffffffffffffffffffffffffffffffff19600554161760055580f35b80fd5b5090346101c457806003193601126101c4576103a691356103a160016103906114e5565b9383875286602052862001546116a9565b61174e565b5080f35b50346101c45760203660031901126101c4579181923581526002602052206001815491015482519182526020820152f35b5060603660031901126101c4576103f06114fb565b6044356103fb6117c4565b6001600160a01b0393847f0000000000000000000000000000000000000000000000000000000000000000168151634e4bc84760e01b80825260209182818981875afa908115610563579086918b916105e4575b500361056d5734965b8289600654169960648751809b81937fd219d1f30000000000000000000000000000000000000000000000000000000083528c169d8e8784015260243560248401523060448401525af1978815610563578a98610532575b5090829185518095819382525afa92831561052957509083929188926104f3575b5050036104e85750506104e5913390611a1a565b80f35b6104e5935033611866565b8193508092503d8311610522575b61050b81836115a1565b8101031261051d5781905138806104d1565b600080fd5b503d610501565b513d89823e3d90fd5b919097508282813d831161055c575b61054b81836115a1565b8101031261051d57905196826104b0565b503d610541565b85513d8c823e3d90fd5b8351631711922960e31b815230888201528281602481875afa908115610563578a916105b7575b5034033481116105a45796610458565b60248a60118a634e487b7160e01b835252fd5b90508281813d83116105dd575b6105ce81836115a1565b8101031261051d575138610594565b503d6105c4565b809250848092503d831161060e575b6105fd81836115a1565b8101031261051d578590513861044f565b503d6105f3565b50503461031957816003193601126103195751908152602090f35b509060a03660031901126101c4576106466114fb565b9060243592610653611511565b91608435916106606117c4565b866001600160a01b038096169561067d888260065416338a6117fa565b8060065416978451977ffc7a6a230000000000000000000000000000000000000000000000000000000089528489015260248801528086169788604489015260643560648901523060848901528760a48160209586945af196871561076f578997610740575b508190845193848092634e4bc84760e01b82527f0000000000000000000000000000000000000000000000000000000000000000165afa92831561052957509083929188926104f3575050036104e85750506104e5913390611a1a565b9096508181813d8311610768575b61075881836115a1565b8101031261051d575195816106e3565b503d61074e565b84513d8b823e3d90fd5b50346101c457816003193601126101c4576001600160a01b038260209461079e6114e5565b93358152808652209116600052825260ff81600020541690519015158152f35b5050346103195781600319360112610319576020906001600160a01b0360015460081c169051908152f35b50913660031901610120811261031957610100136103695767ffffffffffffffff610104358181116101c457366023820112156101c45780850135828111610b48576024908201923682850111610b44576001600160a01b0391827f0000000000000000000000000000000000000000000000000000000000000000163303610b185780359081875260209560028752868989208a516108888161156f565b6001825492838352015492839101526044351490811591610b0b575b50156108d2578989517f7fee69a1000000000000000000000000000000000000000000000000000000008152fd5b906060868b939a999a0312610b075761095593876108f1838901611a06565b94606461090060448b01611a06565b990135958880875416918d51998a94859384937fb464631b000000000000000000000000000000000000000000000000000000008552168a8401602090939291936001600160a01b0360408201951681520152565b03915afa948515610afd578a95610ac2575b50856005541690813b15610abe578a8a5180937fc1bf9e580000000000000000000000000000000000000000000000000000000082528183816109c38b8d8c8401602090939291936001600160a01b0360408201951681520152565b03925af18015610ab457610a8f575b505090879182519384927fdbceb0050000000000000000000000000000000000000000000000000000000084528301528173__$cee652c4e9f55bc124e1380243e2f45138$__5af4948515610a855787968896610a4a575b5050506104e5948280610a409316941684611a1a565b6003541690611a1a565b91965091945085813d8111610a7e575b610a6481836115a1565b81010312610a7a57845194015192848280610a2a565b8580fd5b503d610a5a565b86513d89823e3d90fd5b819a929a11610aa257885297878a6109d2565b5060418992634e487b7160e01b835252fd5b8a513d8d823e3d90fd5b8a80fd5b9094508781813d8311610af6575b610ada81836115a1565b81010312610af257610aeb906115c3565b938a610967565b8980fd5b503d610ad0565b89513d8c823e3d90fd5b8880fd5b90506064351415386108a4565b86517fd7f7333400000000000000000000000000000000000000000000000000000000815233818a0152fd5b8480fd5b8380fd5b50503461031957816003193601126103195760207f62e78cea01bee320cd4e420270b5ea74000d11b0c9f74754ebdbfc544b05a25891610b8a611638565b610b926117c4565b600160ff198154161760015551338152a180f35b8334610369576020366003190112610369576001600160a01b03610bc86114fb565b610bd0611638565b1673ffffffffffffffffffffffffffffffffffffffff19600654161760065580f35b8334610369578060031936011261036957610c0b6119bf565b806001600160a01b0360015474ffffffffffffffffffffffffffffffffffffffff0019811660015560081c167f8be0079c531659141344cd1fd0a4f28419497f9722a3daafe3b4186f6b6457e08280a380f35b5082903461031957602036600319011261031957828135928060208351610c848161156f565b828152015283815260026020522091835192610c9f8461156f565b6001815491828652015490816020860152159081610d01575b50610cd25783518351815260208085015190820152604090f35b602492508351917f78d0dbfc000000000000000000000000000000000000000000000000000000008352820152fd5b90501585610cb8565b50919034610319576060806003193601126101c457610d276114e5565b90610d30611511565b9284815193610d3e8561156f565b8385528360208096015260646001600160a01b039889978880600654169187519c8d9687957f61ee10310000000000000000000000000000000000000000000000000000000087528035908701521660248501521660448301525afa938415610e98578580978196610ded575b50509181610315959493610dd9935198899889521684880152818188015284519187015260a086019061154a565b910151838203605f1901608085015261154a565b9650965093503d8087873e610e0281876115a1565b85018286820312610e9457855190610e1b8588016115c3565b968381015167ffffffffffffffff91828211610abe57018481840312610af257845199610e478b61156f565b81518381116103195784610e5c9184016115f3565b8b52878201519283116103695750610dd994926103159897969492610e8192016115f3565b858a015296979581935094919394610dab565b8680fd5b81513d87823e3d90fd5b50503461031957816003193601126103195760209060ff6001541690519015158152f35b5090346101c457826003193601126101c457805191631711922960e31b835230908301526020826024816001600160a01b037f0000000000000000000000000000000000000000000000000000000000000000165afa918215610f6c578392610f34575b6020838351908152f35b9091506020813d602011610f64575b81610f50602093836115a1565b810103126101c45760209250519038610f2a565b3d9150610f43565b81513d85823e3d90fd5b5090346101c457806003193601126101c45781359167ffffffffffffffff808411610b445736602385011215610b44578382013592818411610a7a5760249260059236858760051b8901011161108a57843591818311610b075736602384011215610b075782810135918211610b075760069136878260061b86010111610af257610fff6119bf565b6110076119bf565b80880361106257895b88811061101b578a80f35b818110156110505780871b8a018801358b526002602052858b2081851b86018981013582556044013560019182015501611010565b878b603285634e487b7160e01b835252fd5b5083517f947d5a84000000000000000000000000000000000000000000000000000000008152fd5b8780fd5b919050608036600319011261031957816110a66114fb565b60243592606435916110b66117c4565b6001600160a01b03809116946110d281836006541633896117fa565b8160065416908851967f95eb087000000000000000000000000000000000000000000000000000000000885284880152602487015260443560448701523060648701528560848160209788945af1948515611362578695611333575b507f0000000000000000000000000000000000000000000000000000000000000000168651634e4bc84760e01b815284818481855afa801561132957849188916112f8575b50036111a857505050508180809281811561119f575b3390f115611195575080f35b51903d90823e3d90fd5b506108fc611189565b91945091949283519073eeeeeeeeeeeeeeeeeeeeeeeeeeeeeeeeeeeeeeee8783015233858301526060820152606081526080810181811067ffffffffffffffff8211176112e557808552631711922960e31b81523060848301528681602481865afa9081156112db57908793929189916112a9575b5060019394878a5260028652611266878b20938851998a978896879563dc20313760e01b875281549087015201546024850152604484015260806064840152608483019061154a565b03925af19081156112a0575061127b57505080f35b813d8311611299575b61128e81836115a1565b810103126103695780f35b503d611284565b513d85823e3d90fd5b93905081813d83116112d4575b6112c081876115a1565b8101031261108a579151869290600161121d565b503d6112b6565b85513d8a823e3d90fd5b602488604186634e487b7160e01b835252fd5b809250868092503d8311611322575b61131181836115a1565b81010312610e945783905138611173565b503d611307565b88513d89823e3d90fd5b9094508381813d831161135b575b61134b81836115a1565b81010312610a7a5751933861112e565b503d611341565b87513d88823e3d90fd5b509190346103195780600319360112610319576113876114e5565b90336001600160a01b038316036113a457506103a691923561174e565b8390517f6697b232000000000000000000000000000000000000000000000000000000008152fd5b5090346101c457806003193601126101c4576103a691356113f060016103906114e5565b6116cf565b5050346103195781600319360112610319576020906001600160a01b03600354169051908152f35b50346101c45760203660031901126101c457816020936001923581528085522001549051908152f35b925050346101c45760203660031901126101c457357fffffffff0000000000000000000000000000000000000000000000000000000081168091036101c457602092507f7965db0b0000000000000000000000000000000000000000000000000000000081149081156114bb575b5015158152f35b7f01ffc9a700000000000000000000000000000000000000000000000000000000915014386114b4565b602435906001600160a01b038216820361051d57565b600435906001600160a01b038216820361051d57565b604435906001600160a01b038216820361051d57565b60005b83811061153a5750506000910152565b818101518382015260200161152a565b9060209161156381518092818552858086019101611527565b601f01601f1916010190565b6040810190811067ffffffffffffffff82111761158b57604052565b634e487b7160e01b600052604160045260246000fd5b90601f8019910116810190811067ffffffffffffffff82111761158b57604052565b51906001600160a01b038216820361051d57565b67ffffffffffffffff811161158b57601f01601f191660200190565b81601f8201121561051d578051611609816115d7565b9261161760405194856115a1565b8184526020828401011161051d576116359160208085019101611527565b90565b3360009081527fad3228b676f7d3cd4284a5443f17f1962b36e491b30a40b2405849e597ba5fb5602052604081205460ff16156116725750565b604490604051907fe2517d3f0000000000000000000000000000000000000000000000000000000082523360048301526024820152fd5b80600052600060205260406000203360005260205260ff60406000205416156116725750565b90600091808352826020526001600160a01b036040842092169182845260205260ff6040842054161560001461174957808352826020526040832082845260205260408320600160ff198254161790557f2f8788117e7eff1d82e926ec794901d17c78024a50270940304540a733656f0d339380a4600190565b505090565b90600091808352826020526001600160a01b036040842092169182845260205260ff6040842054166000146117495780835282602052604083208284526020526040832060ff1981541690557ff6391f5c32d9c69d2a47ea670b442974b53935d1edc7fd64eb21e047a839171b339380a4600190565b60ff600154166117d057565b60046040517fd93c0665000000000000000000000000000000000000000000000000000000008152fd5b6040517f23b872dd0000000000000000000000000000000000000000000000000000000060208201526001600160a01b03928316602482015292909116604483015260648201929092526118649161185f82608481015b03601f1981018452836115a1565b611a6c565b565b604080516001600160a01b039485166020808301919091529290941684820152606080850195909552938352929061189f6080846115a1565b6001600160a01b037f0000000000000000000000000000000000000000000000000000000000000000168251631711922960e31b81523060048201528581602481855afa9081156119b4579086939291600091611983575b5060019083600052600285528560002061194187519889968795869463dc20313760e01b86528054600487015201546024850152604484015260806064840152608483019061154a565b03925af19081156119795750611955575050565b813d8311611972575b61196881836115a1565b8101031261051d57565b503d61195e565b513d6000823e3d90fd5b84819592503d83116119ad575b61199a81836115a1565b8101031261051d576001869351906118f7565b503d611990565b84513d6000823e3d90fd5b6001600160a01b0360015460081c1633036119d657565b60246040517f118cdaa7000000000000000000000000000000000000000000000000000000008152336004820152fd5b35906001600160a01b038216820361051d57565b6040517fa9059cbb0000000000000000000000000000000000000000000000000000000060208201526001600160a01b03909216602483015260448201929092526118649161185f8260648101611851565b6001600160a01b031690611ab7600080836020829551910182875af13d15611b28573d90611a99826115d7565b91611aa760405193846115a1565b82523d84602084013e5b84611b30565b908151918215159283611b00575b505050611acf5750565b602490604051907f5274afe70000000000000000000000000000000000000000000000000000000082526004820152fd5b8192935090602091810103126103195760200151908115918215036103695750388080611ac5565b606090611ab1565b90611b6f5750805115611b4557805190602001fd5b60046040517f1425ea42000000000000000000000000000000000000000000000000000000008152fd5b81511580611bba575b611b80575090565b6024906001600160a01b03604051917f9996b315000000000000000000000000000000000000000000000000000000008352166004820152fd5b50803b15611b7856fea264697066735822122088b8aee2ac034802efdc5ca67be9c2f252433902f04fc8983996c87232b3b6aa64736f6c63430008180033",
          "opcodes": "PUSH1 0xA0 CALLVALUE PUSH3 0x16D JUMPI PUSH1 0x1F PUSH3 0x1E28 CODESIZE DUP2 SWAP1 SUB SWAP2 DUP3 ADD PUSH1 0x1F NOT AND DUP4 ADD SWAP2 PUSH1 0x1 PUSH1 0x1 PUSH1 0x40 SHL SUB DUP4 GT DUP5 DUP5 LT OR PUSH3 0x172 JUMPI DUP1 DUP5 SWAP3 PUSH1 0x60 SWAP5 PUSH1 0x40 MSTORE DUP4 CODECOPY DUP2 ADD SUB SLT PUSH3 0x16D JUMPI PUSH3 0x4D DUP2 PUSH3 0x188 JUMP JUMPDEST SWAP1 PUSH3 0x6A PUSH1 0x40 PUSH3 0x62 PUSH1 0x20 DUP5 ADD PUSH3 0x188 JUMP JUMPDEST SWAP3 ADD PUSH3 0x188 JUMP JUMPDEST SWAP2 PUSH1 0x1 SLOAD CALLER ISZERO PUSH3 0x154 JUMPI PUSH1 0x1 PUSH1 0x1 PUSH1 0xA8 SHL SUB NOT DUP2 AND CALLER PUSH1 0x8 DUP2 DUP2 SHL PUSH2 0x100 PUSH1 0x1 PUSH1 0xA8 SHL SUB AND SWAP3 SWAP1 SWAP3 OR PUSH1 0x1 SSTORE PUSH1 0x40 MLOAD PUSH1 0x1 PUSH1 0x1 PUSH1 0xA0 SHL SUB SWAP6 SWAP1 SWAP4 DUP7 SWAP4 SWAP2 SWAP3 SWAP2 SHR DUP4 AND PUSH32 0x8BE0079C531659141344CD1FD0A4F28419497F9722A3DAAFE3B4186F6B6457E0 PUSH1 0x0 DUP1 LOG3 AND SWAP1 DUP2 ISZERO PUSH3 0x145 JUMPI POP PUSH1 0x80 MSTORE DUP2 PUSH1 0x1 DUP1 PUSH1 0xA0 SHL SUB NOT SWAP4 AND DUP4 PUSH1 0x3 SLOAD AND OR PUSH1 0x3 SSTORE AND SWAP1 PUSH1 0x4 SLOAD AND OR PUSH1 0x4 SSTORE PUSH3 0x108 CALLER PUSH3 0x19D JUMP JUMPDEST POP PUSH1 0x40 MLOAD PUSH2 0x1BF9 SWAP1 DUP2 PUSH3 0x22F DUP3 CODECOPY PUSH1 0x80 MLOAD DUP2 DUP2 DUP2 PUSH2 0x407 ADD MSTORE DUP2 DUP2 PUSH2 0x6F8 ADD MSTORE DUP2 DUP2 PUSH2 0x846 ADD MSTORE DUP2 DUP2 PUSH2 0xEFA ADD MSTORE DUP2 DUP2 PUSH2 0x1131 ADD MSTORE PUSH2 0x18A9 ADD MSTORE RETURN JUMPDEST PUSH4 0x50082683 PUSH1 0xE0 SHL DUP2 MSTORE PUSH1 0x4 SWAP1 REVERT JUMPDEST PUSH1 0x40 MLOAD PUSH4 0x1E4FBDF7 PUSH1 0xE0 SHL DUP2 MSTORE PUSH1 0x0 PUSH1 0x4 DUP3 ADD MSTORE PUSH1 0x24 SWAP1 REVERT JUMPDEST PUSH1 0x0 DUP1 REVERT JUMPDEST PUSH4 0x4E487B71 PUSH1 0xE0 SHL PUSH1 0x0 MSTORE PUSH1 0x41 PUSH1 0x4 MSTORE PUSH1 0x24 PUSH1 0x0 REVERT JUMPDEST MLOAD SWAP1 PUSH1 0x1 PUSH1 0x1 PUSH1 0xA0 SHL SUB DUP3 AND DUP3 SUB PUSH3 0x16D JUMPI JUMP JUMPDEST PUSH1 0x1 PUSH1 0x1 PUSH1 0xA0 SHL SUB AND PUSH1 0x0 DUP2 DUP2 MSTORE PUSH32 0xAD3228B676F7D3CD4284A5443F17F1962B36E491B30A40B2405849E597BA5FB5 PUSH1 0x20 MSTORE PUSH1 0x40 DUP2 KECCAK256 SLOAD SWAP1 SWAP2 SWAP1 PUSH1 0xFF AND PUSH3 0x22A JUMPI DUP2 DUP1 MSTORE DUP2 PUSH1 0x20 MSTORE PUSH1 0x40 DUP3 KECCAK256 DUP2 DUP4 MSTORE PUSH1 0x20 MSTORE PUSH1 0x40 DUP3 KECCAK256 PUSH1 0x1 PUSH1 0xFF NOT DUP3 SLOAD AND OR SWAP1 SSTORE CALLER SWAP2 PUSH32 0x2F8788117E7EFF1D82E926EC794901D17C78024A50270940304540A733656F0D DUP2 DUP1 LOG4 PUSH1 0x1 SWAP1 JUMP JUMPDEST POP SWAP1 JUMP INVALID PUSH1 0x80 PUSH1 0x40 DUP2 DUP2 MSTORE PUSH1 0x4 DUP1 CALLDATASIZE LT ISZERO PUSH2 0x15 JUMPI PUSH1 0x0 DUP1 REVERT JUMPDEST PUSH1 0x0 SWAP3 DUP4 CALLDATALOAD PUSH1 0xE0 SHR SWAP1 DUP2 PUSH4 0x1FFC9A7 EQ PUSH2 0x1446 JUMPI POP DUP1 PUSH4 0x248A9CA3 EQ PUSH2 0x141D JUMPI DUP1 PUSH4 0x2D2C5565 EQ PUSH2 0x13F5 JUMPI DUP1 PUSH4 0x2F2FF15D EQ PUSH2 0x13CC JUMPI DUP1 PUSH4 0x36568ABE EQ PUSH2 0x136C JUMPI DUP4 DUP2 PUSH4 0x4CBB4505 EQ PUSH2 0x108E JUMPI POP DUP1 PUSH4 0x59A1AAE1 EQ PUSH2 0xF76 JUMPI DUP1 PUSH4 0x5C42132E EQ PUSH2 0xEC6 JUMPI DUP1 PUSH4 0x5C975ABB EQ PUSH2 0xEA2 JUMPI DUP1 PUSH4 0x61EE1031 EQ PUSH2 0xD0A JUMPI DUP1 PUSH4 0x67EBB6B2 EQ PUSH2 0xC5E JUMPI DUP1 PUSH4 0x715018A6 EQ PUSH2 0xBF2 JUMPI DUP1 PUSH4 0x74936C16 EQ PUSH2 0xBA6 JUMPI DUP1 PUSH4 0x8456CB59 EQ PUSH2 0xB4C JUMPI DUP1 PUSH4 0x879D182D EQ PUSH2 0x7E9 JUMPI DUP1 PUSH4 0x8DA5CB5B EQ PUSH2 0x7BE JUMPI DUP1 PUSH4 0x91D14854 EQ PUSH2 0x779 JUMPI DUP1 PUSH4 0xA1E83209 EQ PUSH2 0x630 JUMPI DUP1 PUSH4 0xA217FDDF EQ PUSH2 0x615 JUMPI DUP1 PUSH4 0xA4C021E9 EQ PUSH2 0x3DB JUMPI DUP1 PUSH4 0xBE4F3E8F EQ PUSH2 0x3AA JUMPI DUP1 PUSH4 0xD547741F EQ PUSH2 0x36C JUMPI DUP1 PUSH4 0xD9F165DC EQ PUSH2 0x31D JUMPI DUP1 PUSH4 0xEF88E0E1 EQ PUSH2 0x295 JUMPI DUP1 PUSH4 0xF2FDE38B EQ PUSH2 0x1C8 JUMPI PUSH4 0xF7B188A5 EQ PUSH2 0x143 JUMPI PUSH1 0x0 DUP1 REVERT JUMPDEST CALLVALUE PUSH2 0x1C4 JUMPI DUP3 PUSH1 0x3 NOT CALLDATASIZE ADD SLT PUSH2 0x1C4 JUMPI PUSH2 0x15B PUSH2 0x1638 JUMP JUMPDEST PUSH1 0x1 SLOAD SWAP1 PUSH1 0xFF DUP3 AND ISZERO PUSH2 0x19D JUMPI POP PUSH1 0xFF NOT AND PUSH1 0x1 SSTORE MLOAD CALLER DUP2 MSTORE PUSH32 0x5DB9EE0A495BF2E6FF9C91A7834C1BA4FDD244A5E8AA4E537BD38AEAE4B073AA SWAP1 PUSH1 0x20 SWAP1 LOG1 DUP1 RETURN JUMPDEST DUP3 MLOAD PUSH32 0x8DFC202B00000000000000000000000000000000000000000000000000000000 DUP2 MSTORE REVERT JUMPDEST DUP3 DUP1 REVERT JUMPDEST POP CALLVALUE PUSH2 0x1C4 JUMPI PUSH1 0x20 CALLDATASIZE PUSH1 0x3 NOT ADD SLT PUSH2 0x1C4 JUMPI PUSH2 0x1E2 PUSH2 0x14FB JUMP JUMPDEST PUSH2 0x1EA PUSH2 0x19BF JUMP JUMPDEST PUSH1 0x1 PUSH1 0x1 PUSH1 0xA0 SHL SUB SWAP2 DUP3 DUP3 AND SWAP4 DUP5 ISZERO PUSH2 0x266 JUMPI POP POP PUSH21 0xFFFFFFFFFFFFFFFFFFFFFFFFFFFFFFFFFFFFFFFF00 PUSH1 0x1 SLOAD SWAP2 PUSH1 0x8 SHL AND PUSH21 0xFFFFFFFFFFFFFFFFFFFFFFFFFFFFFFFFFFFFFFFF00 NOT DUP3 AND OR PUSH1 0x1 SSTORE PUSH1 0x8 SHR AND PUSH32 0x8BE0079C531659141344CD1FD0A4F28419497F9722A3DAAFE3B4186F6B6457E0 PUSH1 0x0 DUP1 LOG3 DUP1 RETURN JUMPDEST SWAP1 DUP6 PUSH1 0x24 SWAP3 MLOAD SWAP2 PUSH32 0x1E4FBDF700000000000000000000000000000000000000000000000000000000 DUP4 MSTORE DUP3 ADD MSTORE REVERT JUMPDEST POP POP CALLVALUE PUSH2 0x319 JUMPI PUSH1 0x20 CALLDATASIZE PUSH1 0x3 NOT ADD SLT PUSH2 0x319 JUMPI SWAP1 PUSH2 0x315 SWAP2 PUSH2 0x2B5 PUSH2 0x14FB JUMP JUMPDEST SWAP2 PUSH1 0x0 PUSH1 0x20 DUP4 MLOAD PUSH2 0x2C5 DUP2 PUSH2 0x156F JUMP JUMPDEST DUP3 DUP2 MSTORE ADD MSTORE PUSH1 0x0 PUSH1 0x20 DUP4 MLOAD PUSH2 0x2D9 DUP2 PUSH2 0x156F JUMP JUMPDEST DUP3 DUP2 MSTORE ADD MSTORE PUSH1 0x1 PUSH1 0x1 PUSH1 0xA0 SHL SUB DUP3 MLOAD SWAP4 PUSH2 0x2F2 DUP6 PUSH2 0x156F JUMP JUMPDEST AND DUP4 MSTORE PUSH1 0x20 DUP4 ADD MSTORE MLOAD SWAP2 DUP3 SWAP2 DUP3 SWAP2 SWAP1 SWAP2 PUSH1 0x20 DUP1 PUSH1 0x40 DUP4 ADD SWAP5 DUP1 MLOAD DUP5 MSTORE ADD MLOAD SWAP2 ADD MSTORE JUMP JUMPDEST SUB SWAP1 RETURN JUMPDEST POP DUP1 REVERT JUMPDEST DUP4 CALLVALUE PUSH2 0x369 JUMPI PUSH1 0x20 CALLDATASIZE PUSH1 0x3 NOT ADD SLT PUSH2 0x369 JUMPI PUSH1 0x1 PUSH1 0x1 PUSH1 0xA0 SHL SUB PUSH2 0x33F PUSH2 0x14FB JUMP JUMPDEST PUSH2 0x347 PUSH2 0x1638 JUMP JUMPDEST AND PUSH20 0xFFFFFFFFFFFFFFFFFFFFFFFFFFFFFFFFFFFFFFFF NOT PUSH1 0x5 SLOAD AND OR PUSH1 0x5 SSTORE DUP1 RETURN JUMPDEST DUP1 REVERT JUMPDEST POP SWAP1 CALLVALUE PUSH2 0x1C4 JUMPI DUP1 PUSH1 0x3 NOT CALLDATASIZE ADD SLT PUSH2 0x1C4 JUMPI PUSH2 0x3A6 SWAP2 CALLDATALOAD PUSH2 0x3A1 PUSH1 0x1 PUSH2 0x390 PUSH2 0x14E5 JUMP JUMPDEST SWAP4 DUP4 DUP8 MSTORE DUP7 PUSH1 0x20 MSTORE DUP7 KECCAK256 ADD SLOAD PUSH2 0x16A9 JUMP JUMPDEST PUSH2 0x174E JUMP JUMPDEST POP DUP1 RETURN JUMPDEST POP CALLVALUE PUSH2 0x1C4 JUMPI PUSH1 0x20 CALLDATASIZE PUSH1 0x3 NOT ADD SLT PUSH2 0x1C4 JUMPI SWAP2 DUP2 SWAP3 CALLDATALOAD DUP2 MSTORE PUSH1 0x2 PUSH1 0x20 MSTORE KECCAK256 PUSH1 0x1 DUP2 SLOAD SWAP2 ADD SLOAD DUP3 MLOAD SWAP2 DUP3 MSTORE PUSH1 0x20 DUP3 ADD MSTORE RETURN JUMPDEST POP PUSH1 0x60 CALLDATASIZE PUSH1 0x3 NOT ADD SLT PUSH2 0x1C4 JUMPI PUSH2 0x3F0 PUSH2 0x14FB JUMP JUMPDEST PUSH1 0x44 CALLDATALOAD PUSH2 0x3FB PUSH2 0x17C4 JUMP JUMPDEST PUSH1 0x1 PUSH1 0x1 PUSH1 0xA0 SHL SUB SWAP4 DUP5 PUSH32 0x0 AND DUP2 MLOAD PUSH4 0x4E4BC847 PUSH1 0xE0 SHL DUP1 DUP3 MSTORE PUSH1 0x20 SWAP2 DUP3 DUP2 DUP10 DUP2 DUP8 GAS STATICCALL SWAP1 DUP2 ISZERO PUSH2 0x563 JUMPI SWAP1 DUP7 SWAP2 DUP12 SWAP2 PUSH2 0x5E4 JUMPI JUMPDEST POP SUB PUSH2 0x56D JUMPI CALLVALUE SWAP7 JUMPDEST DUP3 DUP10 PUSH1 0x6 SLOAD AND SWAP10 PUSH1 0x64 DUP8 MLOAD DUP1 SWAP12 DUP2 SWAP4 PUSH32 0xD219D1F300000000000000000000000000000000000000000000000000000000 DUP4 MSTORE DUP13 AND SWAP14 DUP15 DUP8 DUP5 ADD MSTORE PUSH1 0x24 CALLDATALOAD PUSH1 0x24 DUP5 ADD MSTORE ADDRESS PUSH1 0x44 DUP5 ADD MSTORE GAS CALL SWAP8 DUP9 ISZERO PUSH2 0x563 JUMPI DUP11 SWAP9 PUSH2 0x532 JUMPI JUMPDEST POP SWAP1 DUP3 SWAP2 DUP6 MLOAD DUP1 SWAP6 DUP2 SWAP4 DUP3 MSTORE GAS STATICCALL SWAP3 DUP4 ISZERO PUSH2 0x529 JUMPI POP SWAP1 DUP4 SWAP3 SWAP2 DUP9 SWAP3 PUSH2 0x4F3 JUMPI JUMPDEST POP POP SUB PUSH2 0x4E8 JUMPI POP POP PUSH2 0x4E5 SWAP2 CALLER SWAP1 PUSH2 0x1A1A JUMP JUMPDEST DUP1 RETURN JUMPDEST PUSH2 0x4E5 SWAP4 POP CALLER PUSH2 0x1866 JUMP JUMPDEST DUP2 SWAP4 POP DUP1 SWAP3 POP RETURNDATASIZE DUP4 GT PUSH2 0x522 JUMPI JUMPDEST PUSH2 0x50B DUP2 DUP4 PUSH2 0x15A1 JUMP JUMPDEST DUP2 ADD SUB SLT PUSH2 0x51D JUMPI DUP2 SWAP1 MLOAD CODESIZE DUP1 PUSH2 0x4D1 JUMP JUMPDEST PUSH1 0x0 DUP1 REVERT JUMPDEST POP RETURNDATASIZE PUSH2 0x501 JUMP JUMPDEST MLOAD RETURNDATASIZE DUP10 DUP3 RETURNDATACOPY RETURNDATASIZE SWAP1 REVERT JUMPDEST SWAP2 SWAP1 SWAP8 POP DUP3 DUP3 DUP2 RETURNDATASIZE DUP4 GT PUSH2 0x55C JUMPI JUMPDEST PUSH2 0x54B DUP2 DUP4 PUSH2 0x15A1 JUMP JUMPDEST DUP2 ADD SUB SLT PUSH2 0x51D JUMPI SWAP1 MLOAD SWAP7 DUP3 PUSH2 0x4B0 JUMP JUMPDEST POP RETURNDATASIZE PUSH2 0x541 JUMP JUMPDEST DUP6 MLOAD RETURNDATASIZE DUP13 DUP3 RETURNDATACOPY RETURNDATASIZE SWAP1 REVERT JUMPDEST DUP4 MLOAD PUSH4 0x17119229 PUSH1 0xE3 SHL DUP2 MSTORE ADDRESS DUP9 DUP3 ADD MSTORE DUP3 DUP2 PUSH1 0x24 DUP2 DUP8 GAS STATICCALL SWAP1 DUP2 ISZERO PUSH2 0x563 JUMPI DUP11 SWAP2 PUSH2 0x5B7 JUMPI JUMPDEST POP CALLVALUE SUB CALLVALUE DUP2 GT PUSH2 0x5A4 JUMPI SWAP7 PUSH2 0x458 JUMP JUMPDEST PUSH1 0x24 DUP11 PUSH1 0x11 DUP11 PUSH4 0x4E487B71 PUSH1 0xE0 SHL DUP4 MSTORE MSTORE REVERT JUMPDEST SWAP1 POP DUP3 DUP2 DUP2 RETURNDATASIZE DUP4 GT PUSH2 0x5DD JUMPI JUMPDEST PUSH2 0x5CE DUP2 DUP4 PUSH2 0x15A1 JUMP JUMPDEST DUP2 ADD SUB SLT PUSH2 0x51D JUMPI MLOAD CODESIZE PUSH2 0x594 JUMP JUMPDEST POP RETURNDATASIZE PUSH2 0x5C4 JUMP JUMPDEST DUP1 SWAP3 POP DUP5 DUP1 SWAP3 POP RETURNDATASIZE DUP4 GT PUSH2 0x60E JUMPI JUMPDEST PUSH2 0x5FD DUP2 DUP4 PUSH2 0x15A1 JUMP JUMPDEST DUP2 ADD SUB SLT PUSH2 0x51D JUMPI DUP6 SWAP1 MLOAD CODESIZE PUSH2 0x44F JUMP JUMPDEST POP RETURNDATASIZE PUSH2 0x5F3 JUMP JUMPDEST POP POP CALLVALUE PUSH2 0x319 JUMPI DUP2 PUSH1 0x3 NOT CALLDATASIZE ADD SLT PUSH2 0x319 JUMPI MLOAD SWAP1 DUP2 MSTORE PUSH1 0x20 SWAP1 RETURN JUMPDEST POP SWAP1 PUSH1 0xA0 CALLDATASIZE PUSH1 0x3 NOT ADD SLT PUSH2 0x1C4 JUMPI PUSH2 0x646 PUSH2 0x14FB JUMP JUMPDEST SWAP1 PUSH1 0x24 CALLDATALOAD SWAP3 PUSH2 0x653 PUSH2 0x1511 JUMP JUMPDEST SWAP2 PUSH1 0x84 CALLDATALOAD SWAP2 PUSH2 0x660 PUSH2 0x17C4 JUMP JUMPDEST DUP7 PUSH1 0x1 PUSH1 0x1 PUSH1 0xA0 SHL SUB DUP1 SWAP7 AND SWAP6 PUSH2 0x67D DUP9 DUP3 PUSH1 0x6 SLOAD AND CALLER DUP11 PUSH2 0x17FA JUMP JUMPDEST DUP1 PUSH1 0x6 SLOAD AND SWAP8 DUP5 MLOAD SWAP8 PUSH32 0xFC7A6A2300000000000000000000000000000000000000000000000000000000 DUP10 MSTORE DUP5 DUP10 ADD MSTORE PUSH1 0x24 DUP9 ADD MSTORE DUP1 DUP7 AND SWAP8 DUP9 PUSH1 0x44 DUP10 ADD MSTORE PUSH1 0x64 CALLDATALOAD PUSH1 0x64 DUP10 ADD MSTORE ADDRESS PUSH1 0x84 DUP10 ADD MSTORE DUP8 PUSH1 0xA4 DUP2 PUSH1 0x20 SWAP6 DUP7 SWAP5 GAS CALL SWAP7 DUP8 ISZERO PUSH2 0x76F JUMPI DUP10 SWAP8 PUSH2 0x740 JUMPI JUMPDEST POP DUP2 SWAP1 DUP5 MLOAD SWAP4 DUP5 DUP1 SWAP3 PUSH4 0x4E4BC847 PUSH1 0xE0 SHL DUP3 MSTORE PUSH32 0x0 AND GAS STATICCALL SWAP3 DUP4 ISZERO PUSH2 0x529 JUMPI POP SWAP1 DUP4 SWAP3 SWAP2 DUP9 SWAP3 PUSH2 0x4F3 JUMPI POP POP SUB PUSH2 0x4E8 JUMPI POP POP PUSH2 0x4E5 SWAP2 CALLER SWAP1 PUSH2 0x1A1A JUMP JUMPDEST SWAP1 SWAP7 POP DUP2 DUP2 DUP2 RETURNDATASIZE DUP4 GT PUSH2 0x768 JUMPI JUMPDEST PUSH2 0x758 DUP2 DUP4 PUSH2 0x15A1 JUMP JUMPDEST DUP2 ADD SUB SLT PUSH2 0x51D JUMPI MLOAD SWAP6 DUP2 PUSH2 0x6E3 JUMP JUMPDEST POP RETURNDATASIZE PUSH2 0x74E JUMP JUMPDEST DUP5 MLOAD RETURNDATASIZE DUP12 DUP3 RETURNDATACOPY RETURNDATASIZE SWAP1 REVERT JUMPDEST POP CALLVALUE PUSH2 0x1C4 JUMPI DUP2 PUSH1 0x3 NOT CALLDATASIZE ADD SLT PUSH2 0x1C4 JUMPI PUSH1 0x1 PUSH1 0x1 PUSH1 0xA0 SHL SUB DUP3 PUSH1 0x20 SWAP5 PUSH2 0x79E PUSH2 0x14E5 JUMP JUMPDEST SWAP4 CALLDATALOAD DUP2 MSTORE DUP1 DUP7 MSTORE KECCAK256 SWAP2 AND PUSH1 0x0 MSTORE DUP3 MSTORE PUSH1 0xFF DUP2 PUSH1 0x0 KECCAK256 SLOAD AND SWAP1 MLOAD SWAP1 ISZERO ISZERO DUP2 MSTORE RETURN JUMPDEST POP POP CALLVALUE PUSH2 0x319 JUMPI DUP2 PUSH1 0x3 NOT CALLDATASIZE ADD SLT PUSH2 0x319 JUMPI PUSH1 0x20 SWAP1 PUSH1 0x1 PUSH1 0x1 PUSH1 0xA0 SHL SUB PUSH1 0x1 SLOAD PUSH1 0x8 SHR AND SWAP1 MLOAD SWAP1 DUP2 MSTORE RETURN JUMPDEST POP SWAP2 CALLDATASIZE PUSH1 0x3 NOT ADD PUSH2 0x120 DUP2 SLT PUSH2 0x319 JUMPI PUSH2 0x100 SGT PUSH2 0x369 JUMPI PUSH8 0xFFFFFFFFFFFFFFFF PUSH2 0x104 CALLDATALOAD DUP2 DUP2 GT PUSH2 0x1C4 JUMPI CALLDATASIZE PUSH1 0x23 DUP3 ADD SLT ISZERO PUSH2 0x1C4 JUMPI DUP1 DUP6 ADD CALLDATALOAD DUP3 DUP2 GT PUSH2 0xB48 JUMPI PUSH1 0x24 SWAP1 DUP3 ADD SWAP3 CALLDATASIZE DUP3 DUP6 ADD GT PUSH2 0xB44 JUMPI PUSH1 0x1 PUSH1 0x1 PUSH1 0xA0 SHL SUB SWAP2 DUP3 PUSH32 0x0 AND CALLER SUB PUSH2 0xB18 JUMPI DUP1 CALLDATALOAD SWAP1 DUP2 DUP8 MSTORE PUSH1 0x20 SWAP6 PUSH1 0x2 DUP8 MSTORE DUP7 DUP10 DUP10 KECCAK256 DUP11 MLOAD PUSH2 0x888 DUP2 PUSH2 0x156F JUMP JUMPDEST PUSH1 0x1 DUP3 SLOAD SWAP3 DUP4 DUP4 MSTORE ADD SLOAD SWAP3 DUP4 SWAP2 ADD MSTORE PUSH1 0x44 CALLDATALOAD EQ SWAP1 DUP2 ISZERO SWAP2 PUSH2 0xB0B JUMPI JUMPDEST POP ISZERO PUSH2 0x8D2 JUMPI DUP10 DUP10 MLOAD PUSH32 0x7FEE69A100000000000000000000000000000000000000000000000000000000 DUP2 MSTORE REVERT JUMPDEST SWAP1 PUSH1 0x60 DUP7 DUP12 SWAP4 SWAP11 SWAP10 SWAP11 SUB SLT PUSH2 0xB07 JUMPI PUSH2 0x955 SWAP4 DUP8 PUSH2 0x8F1 DUP4 DUP10 ADD PUSH2 0x1A06 JUMP JUMPDEST SWAP5 PUSH1 0x64 PUSH2 0x900 PUSH1 0x44 DUP12 ADD PUSH2 0x1A06 JUMP JUMPDEST SWAP10 ADD CALLDATALOAD SWAP6 DUP9 DUP1 DUP8 SLOAD AND SWAP2 DUP14 MLOAD SWAP10 DUP11 SWAP5 DUP6 SWAP4 DUP5 SWAP4 PUSH32 0xB464631B00000000000000000000000000000000000000000000000000000000 DUP6 MSTORE AND DUP11 DUP5 ADD PUSH1 0x20 SWAP1 SWAP4 SWAP3 SWAP2 SWAP4 PUSH1 0x1 PUSH1 0x1 PUSH1 0xA0 SHL SUB PUSH1 0x40 DUP3 ADD SWAP6 AND DUP2 MSTORE ADD MSTORE JUMP JUMPDEST SUB SWAP2 GAS STATICCALL SWAP5 DUP6 ISZERO PUSH2 0xAFD JUMPI DUP11 SWAP6 PUSH2 0xAC2 JUMPI JUMPDEST POP DUP6 PUSH1 0x5 SLOAD AND SWAP1 DUP2 EXTCODESIZE ISZERO PUSH2 0xABE JUMPI DUP11 DUP11 MLOAD DUP1 SWAP4 PUSH32 0xC1BF9E5800000000000000000000000000000000000000000000000000000000 DUP3 MSTORE DUP2 DUP4 DUP2 PUSH2 0x9C3 DUP12 DUP14 DUP13 DUP5 ADD PUSH1 0x20 SWAP1 SWAP4 SWAP3 SWAP2 SWAP4 PUSH1 0x1 PUSH1 0x1 PUSH1 0xA0 SHL SUB PUSH1 0x40 DUP3 ADD SWAP6 AND DUP2 MSTORE ADD MSTORE JUMP JUMPDEST SUB SWAP3 GAS CALL DUP1 ISZERO PUSH2 0xAB4 JUMPI PUSH2 0xA8F JUMPI JUMPDEST POP POP SWAP1 DUP8 SWAP2 DUP3 MLOAD SWAP4 DUP5 SWAP3 PUSH32 0xDBCEB00500000000000000000000000000000000000000000000000000000000 DUP5 MSTORE DUP4 ADD MSTORE DUP2 PUSH20 0x0 GAS DELEGATECALL SWAP5 DUP6 ISZERO PUSH2 0xA85 JUMPI DUP8 SWAP7 DUP9 SWAP7 PUSH2 0xA4A JUMPI JUMPDEST POP POP POP PUSH2 0x4E5 SWAP5 DUP3 DUP1 PUSH2 0xA40 SWAP4 AND SWAP5 AND DUP5 PUSH2 0x1A1A JUMP JUMPDEST PUSH1 0x3 SLOAD AND SWAP1 PUSH2 0x1A1A JUMP JUMPDEST SWAP2 SWAP7 POP SWAP2 SWAP5 POP DUP6 DUP2 RETURNDATASIZE DUP2 GT PUSH2 0xA7E JUMPI JUMPDEST PUSH2 0xA64 DUP2 DUP4 PUSH2 0x15A1 JUMP JUMPDEST DUP2 ADD SUB SLT PUSH2 0xA7A JUMPI DUP5 MLOAD SWAP5 ADD MLOAD SWAP3 DUP5 DUP3 DUP1 PUSH2 0xA2A JUMP JUMPDEST DUP6 DUP1 REVERT JUMPDEST POP RETURNDATASIZE PUSH2 0xA5A JUMP JUMPDEST DUP7 MLOAD RETURNDATASIZE DUP10 DUP3 RETURNDATACOPY RETURNDATASIZE SWAP1 REVERT JUMPDEST DUP2 SWAP11 SWAP3 SWAP11 GT PUSH2 0xAA2 JUMPI DUP9 MSTORE SWAP8 DUP8 DUP11 PUSH2 0x9D2 JUMP JUMPDEST POP PUSH1 0x41 DUP10 SWAP3 PUSH4 0x4E487B71 PUSH1 0xE0 SHL DUP4 MSTORE MSTORE REVERT JUMPDEST DUP11 MLOAD RETURNDATASIZE DUP14 DUP3 RETURNDATACOPY RETURNDATASIZE SWAP1 REVERT JUMPDEST DUP11 DUP1 REVERT JUMPDEST SWAP1 SWAP5 POP DUP8 DUP2 DUP2 RETURNDATASIZE DUP4 GT PUSH2 0xAF6 JUMPI JUMPDEST PUSH2 0xADA DUP2 DUP4 PUSH2 0x15A1 JUMP JUMPDEST DUP2 ADD SUB SLT PUSH2 0xAF2 JUMPI PUSH2 0xAEB SWAP1 PUSH2 0x15C3 JUMP JUMPDEST SWAP4 DUP11 PUSH2 0x967 JUMP JUMPDEST DUP10 DUP1 REVERT JUMPDEST POP RETURNDATASIZE PUSH2 0xAD0 JUMP JUMPDEST DUP10 MLOAD RETURNDATASIZE DUP13 DUP3 RETURNDATACOPY RETURNDATASIZE SWAP1 REVERT JUMPDEST DUP9 DUP1 REVERT JUMPDEST SWAP1 POP PUSH1 0x64 CALLDATALOAD EQ ISZERO CODESIZE PUSH2 0x8A4 JUMP JUMPDEST DUP7 MLOAD PUSH32 0xD7F7333400000000000000000000000000000000000000000000000000000000 DUP2 MSTORE CALLER DUP2 DUP11 ADD MSTORE REVERT JUMPDEST DUP5 DUP1 REVERT JUMPDEST DUP4 DUP1 REVERT JUMPDEST POP POP CALLVALUE PUSH2 0x319 JUMPI DUP2 PUSH1 0x3 NOT CALLDATASIZE ADD SLT PUSH2 0x319 JUMPI PUSH1 0x20 PUSH32 0x62E78CEA01BEE320CD4E420270B5EA74000D11B0C9F74754EBDBFC544B05A258 SWAP2 PUSH2 0xB8A PUSH2 0x1638 JUMP JUMPDEST PUSH2 0xB92 PUSH2 0x17C4 JUMP JUMPDEST PUSH1 0x1 PUSH1 0xFF NOT DUP2 SLOAD AND OR PUSH1 0x1 SSTORE MLOAD CALLER DUP2 MSTORE LOG1 DUP1 RETURN JUMPDEST DUP4 CALLVALUE PUSH2 0x369 JUMPI PUSH1 0x20 CALLDATASIZE PUSH1 0x3 NOT ADD SLT PUSH2 0x369 JUMPI PUSH1 0x1 PUSH1 0x1 PUSH1 0xA0 SHL SUB PUSH2 0xBC8 PUSH2 0x14FB JUMP JUMPDEST PUSH2 0xBD0 PUSH2 0x1638 JUMP JUMPDEST AND PUSH20 0xFFFFFFFFFFFFFFFFFFFFFFFFFFFFFFFFFFFFFFFF NOT PUSH1 0x6 SLOAD AND OR PUSH1 0x6 SSTORE DUP1 RETURN JUMPDEST DUP4 CALLVALUE PUSH2 0x369 JUMPI DUP1 PUSH1 0x3 NOT CALLDATASIZE ADD SLT PUSH2 0x369 JUMPI PUSH2 0xC0B PUSH2 0x19BF JUMP JUMPDEST DUP1 PUSH1 0x1 PUSH1 0x1 PUSH1 0xA0 SHL SUB PUSH1 0x1 SLOAD PUSH21 0xFFFFFFFFFFFFFFFFFFFFFFFFFFFFFFFFFFFFFFFF00 NOT DUP2 AND PUSH1 0x1 SSTORE PUSH1 0x8 SHR AND PUSH32 0x8BE0079C531659141344CD1FD0A4F28419497F9722A3DAAFE3B4186F6B6457E0 DUP3 DUP1 LOG3 DUP1 RETURN JUMPDEST POP DUP3 SWAP1 CALLVALUE PUSH2 0x319 JUMPI PUSH1 0x20 CALLDATASIZE PUSH1 0x3 NOT ADD SLT PUSH2 0x319 JUMPI DUP3 DUP2 CALLDATALOAD SWAP3 DUP1 PUSH1 0x20 DUP4 MLOAD PUSH2 0xC84 DUP2 PUSH2 0x156F JUMP JUMPDEST DUP3 DUP2 MSTORE ADD MSTORE DUP4 DUP2 MSTORE PUSH1 0x2 PUSH1 0x20 MSTORE KECCAK256 SWAP2 DUP4 MLOAD SWAP3 PUSH2 0xC9F DUP5 PUSH2 0x156F JUMP JUMPDEST PUSH1 0x1 DUP2 SLOAD SWAP2 DUP3 DUP7 MSTORE ADD SLOAD SWAP1 DUP2 PUSH1 0x20 DUP7 ADD MSTORE ISZERO SWAP1 DUP2 PUSH2 0xD01 JUMPI JUMPDEST POP PUSH2 0xCD2 JUMPI DUP4 MLOAD DUP4 MLOAD DUP2 MSTORE PUSH1 0x20 DUP1 DUP6 ADD MLOAD SWAP1 DUP3 ADD MSTORE PUSH1 0x40 SWAP1 RETURN JUMPDEST PUSH1 0x24 SWAP3 POP DUP4 MLOAD SWAP2 PUSH32 0x78D0DBFC00000000000000000000000000000000000000000000000000000000 DUP4 MSTORE DUP3 ADD MSTORE REVERT JUMPDEST SWAP1 POP ISZERO DUP6 PUSH2 0xCB8 JUMP JUMPDEST POP SWAP2 SWAP1 CALLVALUE PUSH2 0x319 JUMPI PUSH1 0x60 DUP1 PUSH1 0x3 NOT CALLDATASIZE ADD SLT PUSH2 0x1C4 JUMPI PUSH2 0xD27 PUSH2 0x14E5 JUMP JUMPDEST SWAP1 PUSH2 0xD30 PUSH2 0x1511 JUMP JUMPDEST SWAP3 DUP5 DUP2 MLOAD SWAP4 PUSH2 0xD3E DUP6 PUSH2 0x156F JUMP JUMPDEST DUP4 DUP6 MSTORE DUP4 PUSH1 0x20 DUP1 SWAP7 ADD MSTORE PUSH1 0x64 PUSH1 0x1 PUSH1 0x1 PUSH1 0xA0 SHL SUB SWAP9 DUP10 SWAP8 DUP9 DUP1 PUSH1 0x6 SLOAD AND SWAP2 DUP8 MLOAD SWAP13 DUP14 SWAP7 DUP8 SWAP6 PUSH32 0x61EE103100000000000000000000000000000000000000000000000000000000 DUP8 MSTORE DUP1 CALLDATALOAD SWAP1 DUP8 ADD MSTORE AND PUSH1 0x24 DUP6 ADD MSTORE AND PUSH1 0x44 DUP4 ADD MSTORE GAS STATICCALL SWAP4 DUP5 ISZERO PUSH2 0xE98 JUMPI DUP6 DUP1 SWAP8 DUP2 SWAP7 PUSH2 0xDED JUMPI JUMPDEST POP POP SWAP2 DUP2 PUSH2 0x315 SWAP6 SWAP5 SWAP4 PUSH2 0xDD9 SWAP4 MLOAD SWAP9 DUP10 SWAP9 DUP10 MSTORE AND DUP5 DUP9 ADD MSTORE DUP2 DUP2 DUP9 ADD MSTORE DUP5 MLOAD SWAP2 DUP8 ADD MSTORE PUSH1 0xA0 DUP7 ADD SWAP1 PUSH2 0x154A JUMP JUMPDEST SWAP2 ADD MLOAD DUP4 DUP3 SUB PUSH1 0x5F NOT ADD PUSH1 0x80 DUP6 ADD MSTORE PUSH2 0x154A JUMP JUMPDEST SWAP7 POP SWAP7 POP SWAP4 POP RETURNDATASIZE DUP1 DUP8 DUP8 RETURNDATACOPY PUSH2 0xE02 DUP2 DUP8 PUSH2 0x15A1 JUMP JUMPDEST DUP6 ADD DUP3 DUP7 DUP3 SUB SLT PUSH2 0xE94 JUMPI DUP6 MLOAD SWAP1 PUSH2 0xE1B DUP6 DUP9 ADD PUSH2 0x15C3 JUMP JUMPDEST SWAP7 DUP4 DUP2 ADD MLOAD PUSH8 0xFFFFFFFFFFFFFFFF SWAP2 DUP3 DUP3 GT PUSH2 0xABE JUMPI ADD DUP5 DUP2 DUP5 SUB SLT PUSH2 0xAF2 JUMPI DUP5 MLOAD SWAP10 PUSH2 0xE47 DUP12 PUSH2 0x156F JUMP JUMPDEST DUP2 MLOAD DUP4 DUP2 GT PUSH2 0x319 JUMPI DUP5 PUSH2 0xE5C SWAP2 DUP5 ADD PUSH2 0x15F3 JUMP JUMPDEST DUP12 MSTORE DUP8 DUP3 ADD MLOAD SWAP3 DUP4 GT PUSH2 0x369 JUMPI POP PUSH2 0xDD9 SWAP5 SWAP3 PUSH2 0x315 SWAP9 SWAP8 SWAP7 SWAP5 SWAP3 PUSH2 0xE81 SWAP3 ADD PUSH2 0x15F3 JUMP JUMPDEST DUP6 DUP11 ADD MSTORE SWAP7 SWAP8 SWAP6 DUP2 SWAP4 POP SWAP5 SWAP2 SWAP4 SWAP5 PUSH2 0xDAB JUMP JUMPDEST DUP7 DUP1 REVERT JUMPDEST DUP2 MLOAD RETURNDATASIZE DUP8 DUP3 RETURNDATACOPY RETURNDATASIZE SWAP1 REVERT JUMPDEST POP POP CALLVALUE PUSH2 0x319 JUMPI DUP2 PUSH1 0x3 NOT CALLDATASIZE ADD SLT PUSH2 0x319 JUMPI PUSH1 0x20 SWAP1 PUSH1 0xFF PUSH1 0x1 SLOAD AND SWAP1 MLOAD SWAP1 ISZERO ISZERO DUP2 MSTORE RETURN JUMPDEST POP SWAP1 CALLVALUE PUSH2 0x1C4 JUMPI DUP3 PUSH1 0x3 NOT CALLDATASIZE ADD SLT PUSH2 0x1C4 JUMPI DUP1 MLOAD SWAP2 PUSH4 0x17119229 PUSH1 0xE3 SHL DUP4 MSTORE ADDRESS SWAP1 DUP4 ADD MSTORE PUSH1 0x20 DUP3 PUSH1 0x24 DUP2 PUSH1 0x1 PUSH1 0x1 PUSH1 0xA0 SHL SUB PUSH32 0x0 AND GAS STATICCALL SWAP2 DUP3 ISZERO PUSH2 0xF6C JUMPI DUP4 SWAP3 PUSH2 0xF34 JUMPI JUMPDEST PUSH1 0x20 DUP4 DUP4 MLOAD SWAP1 DUP2 MSTORE RETURN JUMPDEST SWAP1 SWAP2 POP PUSH1 0x20 DUP2 RETURNDATASIZE PUSH1 0x20 GT PUSH2 0xF64 JUMPI JUMPDEST DUP2 PUSH2 0xF50 PUSH1 0x20 SWAP4 DUP4 PUSH2 0x15A1 JUMP JUMPDEST DUP2 ADD SUB SLT PUSH2 0x1C4 JUMPI PUSH1 0x20 SWAP3 POP MLOAD SWAP1 CODESIZE PUSH2 0xF2A JUMP JUMPDEST RETURNDATASIZE SWAP2 POP PUSH2 0xF43 JUMP JUMPDEST DUP2 MLOAD RETURNDATASIZE DUP6 DUP3 RETURNDATACOPY RETURNDATASIZE SWAP1 REVERT JUMPDEST POP SWAP1 CALLVALUE PUSH2 0x1C4 JUMPI DUP1 PUSH1 0x3 NOT CALLDATASIZE ADD SLT PUSH2 0x1C4 JUMPI DUP2 CALLDATALOAD SWAP2 PUSH8 0xFFFFFFFFFFFFFFFF DUP1 DUP5 GT PUSH2 0xB44 JUMPI CALLDATASIZE PUSH1 0x23 DUP6 ADD SLT ISZERO PUSH2 0xB44 JUMPI DUP4 DUP3 ADD CALLDATALOAD SWAP3 DUP2 DUP5 GT PUSH2 0xA7A JUMPI PUSH1 0x24 SWAP3 PUSH1 0x5 SWAP3 CALLDATASIZE DUP6 DUP8 PUSH1 0x5 SHL DUP10 ADD ADD GT PUSH2 0x108A JUMPI DUP5 CALLDATALOAD SWAP2 DUP2 DUP4 GT PUSH2 0xB07 JUMPI CALLDATASIZE PUSH1 0x23 DUP5 ADD SLT ISZERO PUSH2 0xB07 JUMPI DUP3 DUP2 ADD CALLDATALOAD SWAP2 DUP3 GT PUSH2 0xB07 JUMPI PUSH1 0x6 SWAP2 CALLDATASIZE DUP8 DUP3 PUSH1 0x6 SHL DUP7 ADD ADD GT PUSH2 0xAF2 JUMPI PUSH2 0xFFF PUSH2 0x19BF JUMP JUMPDEST PUSH2 0x1007 PUSH2 0x19BF JUMP JUMPDEST DUP1 DUP9 SUB PUSH2 0x1062 JUMPI DUP10 JUMPDEST DUP9 DUP2 LT PUSH2 0x101B JUMPI DUP11 DUP1 RETURN JUMPDEST DUP2 DUP2 LT ISZERO PUSH2 0x1050 JUMPI DUP1 DUP8 SHL DUP11 ADD DUP9 ADD CALLDATALOAD DUP12 MSTORE PUSH1 0x2 PUSH1 0x20 MSTORE DUP6 DUP12 KECCAK256 DUP2 DUP6 SHL DUP7 ADD DUP10 DUP2 ADD CALLDATALOAD DUP3 SSTORE PUSH1 0x44 ADD CALLDATALOAD PUSH1 0x1 SWAP2 DUP3 ADD SSTORE ADD PUSH2 0x1010 JUMP JUMPDEST DUP8 DUP12 PUSH1 0x32 DUP6 PUSH4 0x4E487B71 PUSH1 0xE0 SHL DUP4 MSTORE MSTORE REVERT JUMPDEST POP DUP4 MLOAD PUSH32 0x947D5A8400000000000000000000000000000000000000000000000000000000 DUP2 MSTORE REVERT JUMPDEST DUP8 DUP1 REVERT JUMPDEST SWAP2 SWAP1 POP PUSH1 0x80 CALLDATASIZE PUSH1 0x3 NOT ADD SLT PUSH2 0x319 JUMPI DUP2 PUSH2 0x10A6 PUSH2 0x14FB JUMP JUMPDEST PUSH1 0x24 CALLDATALOAD SWAP3 PUSH1 0x64 CALLDATALOAD SWAP2 PUSH2 0x10B6 PUSH2 0x17C4 JUMP JUMPDEST PUSH1 0x1 PUSH1 0x1 PUSH1 0xA0 SHL SUB DUP1 SWAP2 AND SWAP5 PUSH2 0x10D2 DUP2 DUP4 PUSH1 0x6 SLOAD AND CALLER DUP10 PUSH2 0x17FA JUMP JUMPDEST DUP2 PUSH1 0x6 SLOAD AND SWAP1 DUP9 MLOAD SWAP7 PUSH32 0x95EB087000000000000000000000000000000000000000000000000000000000 DUP9 MSTORE DUP5 DUP9 ADD MSTORE PUSH1 0x24 DUP8 ADD MSTORE PUSH1 0x44 CALLDATALOAD PUSH1 0x44 DUP8 ADD MSTORE ADDRESS PUSH1 0x64 DUP8 ADD MSTORE DUP6 PUSH1 0x84 DUP2 PUSH1 0x20 SWAP8 DUP9 SWAP5 GAS CALL SWAP5 DUP6 ISZERO PUSH2 0x1362 JUMPI DUP7 SWAP6 PUSH2 0x1333 JUMPI JUMPDEST POP PUSH32 0x0 AND DUP7 MLOAD PUSH4 0x4E4BC847 PUSH1 0xE0 SHL DUP2 MSTORE DUP5 DUP2 DUP5 DUP2 DUP6 GAS STATICCALL DUP1 ISZERO PUSH2 0x1329 JUMPI DUP5 SWAP2 DUP9 SWAP2 PUSH2 0x12F8 JUMPI JUMPDEST POP SUB PUSH2 0x11A8 JUMPI POP POP POP POP DUP2 DUP1 DUP1 SWAP3 DUP2 DUP2 ISZERO PUSH2 0x119F JUMPI JUMPDEST CALLER SWAP1 CALL ISZERO PUSH2 0x1195 JUMPI POP DUP1 RETURN JUMPDEST MLOAD SWAP1 RETURNDATASIZE SWAP1 DUP3 RETURNDATACOPY RETURNDATASIZE SWAP1 REVERT JUMPDEST POP PUSH2 0x8FC PUSH2 0x1189 JUMP JUMPDEST SWAP2 SWAP5 POP SWAP2 SWAP5 SWAP3 DUP4 MLOAD SWAP1 PUSH20 0xEEEEEEEEEEEEEEEEEEEEEEEEEEEEEEEEEEEEEEEE DUP8 DUP4 ADD MSTORE CALLER DUP6 DUP4 ADD MSTORE PUSH1 0x60 DUP3 ADD MSTORE PUSH1 0x60 DUP2 MSTORE PUSH1 0x80 DUP2 ADD DUP2 DUP2 LT PUSH8 0xFFFFFFFFFFFFFFFF DUP3 GT OR PUSH2 0x12E5 JUMPI DUP1 DUP6 MSTORE PUSH4 0x17119229 PUSH1 0xE3 SHL DUP2 MSTORE ADDRESS PUSH1 0x84 DUP4 ADD MSTORE DUP7 DUP2 PUSH1 0x24 DUP2 DUP7 GAS STATICCALL SWAP1 DUP2 ISZERO PUSH2 0x12DB JUMPI SWAP1 DUP8 SWAP4 SWAP3 SWAP2 DUP10 SWAP2 PUSH2 0x12A9 JUMPI JUMPDEST POP PUSH1 0x1 SWAP4 SWAP5 DUP8 DUP11 MSTORE PUSH1 0x2 DUP7 MSTORE PUSH2 0x1266 DUP8 DUP12 KECCAK256 SWAP4 DUP9 MLOAD SWAP10 DUP11 SWAP8 DUP9 SWAP7 DUP8 SWAP6 PUSH4 0xDC203137 PUSH1 0xE0 SHL DUP8 MSTORE DUP2 SLOAD SWAP1 DUP8 ADD MSTORE ADD SLOAD PUSH1 0x24 DUP6 ADD MSTORE PUSH1 0x44 DUP5 ADD MSTORE PUSH1 0x80 PUSH1 0x64 DUP5 ADD MSTORE PUSH1 0x84 DUP4 ADD SWAP1 PUSH2 0x154A JUMP JUMPDEST SUB SWAP3 GAS CALL SWAP1 DUP2 ISZERO PUSH2 0x12A0 JUMPI POP PUSH2 0x127B JUMPI POP POP DUP1 RETURN JUMPDEST DUP2 RETURNDATASIZE DUP4 GT PUSH2 0x1299 JUMPI JUMPDEST PUSH2 0x128E DUP2 DUP4 PUSH2 0x15A1 JUMP JUMPDEST DUP2 ADD SUB SLT PUSH2 0x369 JUMPI DUP1 RETURN JUMPDEST POP RETURNDATASIZE PUSH2 0x1284 JUMP JUMPDEST MLOAD RETURNDATASIZE DUP6 DUP3 RETURNDATACOPY RETURNDATASIZE SWAP1 REVERT JUMPDEST SWAP4 SWAP1 POP DUP2 DUP2 RETURNDATASIZE DUP4 GT PUSH2 0x12D4 JUMPI JUMPDEST PUSH2 0x12C0 DUP2 DUP8 PUSH2 0x15A1 JUMP JUMPDEST DUP2 ADD SUB SLT PUSH2 0x108A JUMPI SWAP2 MLOAD DUP7 SWAP3 SWAP1 PUSH1 0x1 PUSH2 0x121D JUMP JUMPDEST POP RETURNDATASIZE PUSH2 0x12B6 JUMP JUMPDEST DUP6 MLOAD RETURNDATASIZE DUP11 DUP3 RETURNDATACOPY RETURNDATASIZE SWAP1 REVERT JUMPDEST PUSH1 0x24 DUP9 PUSH1 0x41 DUP7 PUSH4 0x4E487B71 PUSH1 0xE0 SHL DUP4 MSTORE MSTORE REVERT JUMPDEST DUP1 SWAP3 POP DUP7 DUP1 SWAP3 POP RETURNDATASIZE DUP4 GT PUSH2 0x1322 JUMPI JUMPDEST PUSH2 0x1311 DUP2 DUP4 PUSH2 0x15A1 JUMP JUMPDEST DUP2 ADD SUB SLT PUSH2 0xE94 JUMPI DUP4 SWAP1 MLOAD CODESIZE PUSH2 0x1173 JUMP JUMPDEST POP RETURNDATASIZE PUSH2 0x1307 JUMP JUMPDEST DUP9 MLOAD RETURNDATASIZE DUP10 DUP3 RETURNDATACOPY RETURNDATASIZE SWAP1 REVERT JUMPDEST SWAP1 SWAP5 POP DUP4 DUP2 DUP2 RETURNDATASIZE DUP4 GT PUSH2 0x135B JUMPI JUMPDEST PUSH2 0x134B DUP2 DUP4 PUSH2 0x15A1 JUMP JUMPDEST DUP2 ADD SUB SLT PUSH2 0xA7A JUMPI MLOAD SWAP4 CODESIZE PUSH2 0x112E JUMP JUMPDEST POP RETURNDATASIZE PUSH2 0x1341 JUMP JUMPDEST DUP8 MLOAD RETURNDATASIZE DUP9 DUP3 RETURNDATACOPY RETURNDATASIZE SWAP1 REVERT JUMPDEST POP SWAP2 SWAP1 CALLVALUE PUSH2 0x319 JUMPI DUP1 PUSH1 0x3 NOT CALLDATASIZE ADD SLT PUSH2 0x319 JUMPI PUSH2 0x1387 PUSH2 0x14E5 JUMP JUMPDEST SWAP1 CALLER PUSH1 0x1 PUSH1 0x1 PUSH1 0xA0 SHL SUB DUP4 AND SUB PUSH2 0x13A4 JUMPI POP PUSH2 0x3A6 SWAP2 SWAP3 CALLDATALOAD PUSH2 0x174E JUMP JUMPDEST DUP4 SWAP1 MLOAD PUSH32 0x6697B23200000000000000000000000000000000000000000000000000000000 DUP2 MSTORE REVERT JUMPDEST POP SWAP1 CALLVALUE PUSH2 0x1C4 JUMPI DUP1 PUSH1 0x3 NOT CALLDATASIZE ADD SLT PUSH2 0x1C4 JUMPI PUSH2 0x3A6 SWAP2 CALLDATALOAD PUSH2 0x13F0 PUSH1 0x1 PUSH2 0x390 PUSH2 0x14E5 JUMP JUMPDEST PUSH2 0x16CF JUMP JUMPDEST POP POP CALLVALUE PUSH2 0x319 JUMPI DUP2 PUSH1 0x3 NOT CALLDATASIZE ADD SLT PUSH2 0x319 JUMPI PUSH1 0x20 SWAP1 PUSH1 0x1 PUSH1 0x1 PUSH1 0xA0 SHL SUB PUSH1 0x3 SLOAD AND SWAP1 MLOAD SWAP1 DUP2 MSTORE RETURN JUMPDEST POP CALLVALUE PUSH2 0x1C4 JUMPI PUSH1 0x20 CALLDATASIZE PUSH1 0x3 NOT ADD SLT PUSH2 0x1C4 JUMPI DUP2 PUSH1 0x20 SWAP4 PUSH1 0x1 SWAP3 CALLDATALOAD DUP2 MSTORE DUP1 DUP6 MSTORE KECCAK256 ADD SLOAD SWAP1 MLOAD SWAP1 DUP2 MSTORE RETURN JUMPDEST SWAP3 POP POP CALLVALUE PUSH2 0x1C4 JUMPI PUSH1 0x20 CALLDATASIZE PUSH1 0x3 NOT ADD SLT PUSH2 0x1C4 JUMPI CALLDATALOAD PUSH32 0xFFFFFFFF00000000000000000000000000000000000000000000000000000000 DUP2 AND DUP1 SWAP2 SUB PUSH2 0x1C4 JUMPI PUSH1 0x20 SWAP3 POP PUSH32 0x7965DB0B00000000000000000000000000000000000000000000000000000000 DUP2 EQ SWAP1 DUP2 ISZERO PUSH2 0x14BB JUMPI JUMPDEST POP ISZERO ISZERO DUP2 MSTORE RETURN JUMPDEST PUSH32 0x1FFC9A700000000000000000000000000000000000000000000000000000000 SWAP2 POP EQ CODESIZE PUSH2 0x14B4 JUMP JUMPDEST PUSH1 0x24 CALLDATALOAD SWAP1 PUSH1 0x1 PUSH1 0x1 PUSH1 0xA0 SHL SUB DUP3 AND DUP3 SUB PUSH2 0x51D JUMPI JUMP JUMPDEST PUSH1 0x4 CALLDATALOAD SWAP1 PUSH1 0x1 PUSH1 0x1 PUSH1 0xA0 SHL SUB DUP3 AND DUP3 SUB PUSH2 0x51D JUMPI JUMP JUMPDEST PUSH1 0x44 CALLDATALOAD SWAP1 PUSH1 0x1 PUSH1 0x1 PUSH1 0xA0 SHL SUB DUP3 AND DUP3 SUB PUSH2 0x51D JUMPI JUMP JUMPDEST PUSH1 0x0 JUMPDEST DUP4 DUP2 LT PUSH2 0x153A JUMPI POP POP PUSH1 0x0 SWAP2 ADD MSTORE JUMP JUMPDEST DUP2 DUP2 ADD MLOAD DUP4 DUP3 ADD MSTORE PUSH1 0x20 ADD PUSH2 0x152A JUMP JUMPDEST SWAP1 PUSH1 0x20 SWAP2 PUSH2 0x1563 DUP2 MLOAD DUP1 SWAP3 DUP2 DUP6 MSTORE DUP6 DUP1 DUP7 ADD SWAP2 ADD PUSH2 0x1527 JUMP JUMPDEST PUSH1 0x1F ADD PUSH1 0x1F NOT AND ADD ADD SWAP1 JUMP JUMPDEST PUSH1 0x40 DUP2 ADD SWAP1 DUP2 LT PUSH8 0xFFFFFFFFFFFFFFFF DUP3 GT OR PUSH2 0x158B JUMPI PUSH1 0x40 MSTORE JUMP JUMPDEST PUSH4 0x4E487B71 PUSH1 0xE0 SHL PUSH1 0x0 MSTORE PUSH1 0x41 PUSH1 0x4 MSTORE PUSH1 0x24 PUSH1 0x0 REVERT JUMPDEST SWAP1 PUSH1 0x1F DUP1 NOT SWAP2 ADD AND DUP2 ADD SWAP1 DUP2 LT PUSH8 0xFFFFFFFFFFFFFFFF DUP3 GT OR PUSH2 0x158B JUMPI PUSH1 0x40 MSTORE JUMP JUMPDEST MLOAD SWAP1 PUSH1 0x1 PUSH1 0x1 PUSH1 0xA0 SHL SUB DUP3 AND DUP3 SUB PUSH2 0x51D JUMPI JUMP JUMPDEST PUSH8 0xFFFFFFFFFFFFFFFF DUP2 GT PUSH2 0x158B JUMPI PUSH1 0x1F ADD PUSH1 0x1F NOT AND PUSH1 0x20 ADD SWAP1 JUMP JUMPDEST DUP2 PUSH1 0x1F DUP3 ADD SLT ISZERO PUSH2 0x51D JUMPI DUP1 MLOAD PUSH2 0x1609 DUP2 PUSH2 0x15D7 JUMP JUMPDEST SWAP3 PUSH2 0x1617 PUSH1 0x40 MLOAD SWAP5 DUP6 PUSH2 0x15A1 JUMP JUMPDEST DUP2 DUP5 MSTORE PUSH1 0x20 DUP3 DUP5 ADD ADD GT PUSH2 0x51D JUMPI PUSH2 0x1635 SWAP2 PUSH1 0x20 DUP1 DUP6 ADD SWAP2 ADD PUSH2 0x1527 JUMP JUMPDEST SWAP1 JUMP JUMPDEST CALLER PUSH1 0x0 SWAP1 DUP2 MSTORE PUSH32 0xAD3228B676F7D3CD4284A5443F17F1962B36E491B30A40B2405849E597BA5FB5 PUSH1 0x20 MSTORE PUSH1 0x40 DUP2 KECCAK256 SLOAD PUSH1 0xFF AND ISZERO PUSH2 0x1672 JUMPI POP JUMP JUMPDEST PUSH1 0x44 SWAP1 PUSH1 0x40 MLOAD SWAP1 PUSH32 0xE2517D3F00000000000000000000000000000000000000000000000000000000 DUP3 MSTORE CALLER PUSH1 0x4 DUP4 ADD MSTORE PUSH1 0x24 DUP3 ADD MSTORE REVERT JUMPDEST DUP1 PUSH1 0x0 MSTORE PUSH1 0x0 PUSH1 0x20 MSTORE PUSH1 0x40 PUSH1 0x0 KECCAK256 CALLER PUSH1 0x0 MSTORE PUSH1 0x20 MSTORE PUSH1 0xFF PUSH1 0x40 PUSH1 0x0 KECCAK256 SLOAD AND ISZERO PUSH2 0x1672 JUMPI POP JUMP JUMPDEST SWAP1 PUSH1 0x0 SWAP2 DUP1 DUP4 MSTORE DUP3 PUSH1 0x20 MSTORE PUSH1 0x1 PUSH1 0x1 PUSH1 0xA0 SHL SUB PUSH1 0x40 DUP5 KECCAK256 SWAP3 AND SWAP2 DUP3 DUP5 MSTORE PUSH1 0x20 MSTORE PUSH1 0xFF PUSH1 0x40 DUP5 KECCAK256 SLOAD AND ISZERO PUSH1 0x0 EQ PUSH2 0x1749 JUMPI DUP1 DUP4 MSTORE DUP3 PUSH1 0x20 MSTORE PUSH1 0x40 DUP4 KECCAK256 DUP3 DUP5 MSTORE PUSH1 0x20 MSTORE PUSH1 0x40 DUP4 KECCAK256 PUSH1 0x1 PUSH1 0xFF NOT DUP3 SLOAD AND OR SWAP1 SSTORE PUSH32 0x2F8788117E7EFF1D82E926EC794901D17C78024A50270940304540A733656F0D CALLER SWAP4 DUP1 LOG4 PUSH1 0x1 SWAP1 JUMP JUMPDEST POP POP SWAP1 JUMP JUMPDEST SWAP1 PUSH1 0x0 SWAP2 DUP1 DUP4 MSTORE DUP3 PUSH1 0x20 MSTORE PUSH1 0x1 PUSH1 0x1 PUSH1 0xA0 SHL SUB PUSH1 0x40 DUP5 KECCAK256 SWAP3 AND SWAP2 DUP3 DUP5 MSTORE PUSH1 0x20 MSTORE PUSH1 0xFF PUSH1 0x40 DUP5 KECCAK256 SLOAD AND PUSH1 0x0 EQ PUSH2 0x1749 JUMPI DUP1 DUP4 MSTORE DUP3 PUSH1 0x20 MSTORE PUSH1 0x40 DUP4 KECCAK256 DUP3 DUP5 MSTORE PUSH1 0x20 MSTORE PUSH1 0x40 DUP4 KECCAK256 PUSH1 0xFF NOT DUP2 SLOAD AND SWAP1 SSTORE PUSH32 0xF6391F5C32D9C69D2A47EA670B442974B53935D1EDC7FD64EB21E047A839171B CALLER SWAP4 DUP1 LOG4 PUSH1 0x1 SWAP1 JUMP JUMPDEST PUSH1 0xFF PUSH1 0x1 SLOAD AND PUSH2 0x17D0 JUMPI JUMP JUMPDEST PUSH1 0x4 PUSH1 0x40 MLOAD PUSH32 0xD93C066500000000000000000000000000000000000000000000000000000000 DUP2 MSTORE REVERT JUMPDEST PUSH1 0x40 MLOAD PUSH32 0x23B872DD00000000000000000000000000000000000000000000000000000000 PUSH1 0x20 DUP3 ADD MSTORE PUSH1 0x1 PUSH1 0x1 PUSH1 0xA0 SHL SUB SWAP3 DUP4 AND PUSH1 0x24 DUP3 ADD MSTORE SWAP3 SWAP1 SWAP2 AND PUSH1 0x44 DUP4 ADD MSTORE PUSH1 0x64 DUP3 ADD SWAP3 SWAP1 SWAP3 MSTORE PUSH2 0x1864 SWAP2 PUSH2 0x185F DUP3 PUSH1 0x84 DUP2 ADD JUMPDEST SUB PUSH1 0x1F NOT DUP2 ADD DUP5 MSTORE DUP4 PUSH2 0x15A1 JUMP JUMPDEST PUSH2 0x1A6C JUMP JUMPDEST JUMP JUMPDEST PUSH1 0x40 DUP1 MLOAD PUSH1 0x1 PUSH1 0x1 PUSH1 0xA0 SHL SUB SWAP5 DUP6 AND PUSH1 0x20 DUP1 DUP4 ADD SWAP2 SWAP1 SWAP2 MSTORE SWAP3 SWAP1 SWAP5 AND DUP5 DUP3 ADD MSTORE PUSH1 0x60 DUP1 DUP6 ADD SWAP6 SWAP1 SWAP6 MSTORE SWAP4 DUP4 MSTORE SWAP3 SWAP1 PUSH2 0x189F PUSH1 0x80 DUP5 PUSH2 0x15A1 JUMP JUMPDEST PUSH1 0x1 PUSH1 0x1 PUSH1 0xA0 SHL SUB PUSH32 0x0 AND DUP3 MLOAD PUSH4 0x17119229 PUSH1 0xE3 SHL DUP2 MSTORE ADDRESS PUSH1 0x4 DUP3 ADD MSTORE DUP6 DUP2 PUSH1 0x24 DUP2 DUP6 GAS STATICCALL SWAP1 DUP2 ISZERO PUSH2 0x19B4 JUMPI SWAP1 DUP7 SWAP4 SWAP3 SWAP2 PUSH1 0x0 SWAP2 PUSH2 0x1983 JUMPI JUMPDEST POP PUSH1 0x1 SWAP1 DUP4 PUSH1 0x0 MSTORE PUSH1 0x2 DUP6 MSTORE DUP6 PUSH1 0x0 KECCAK256 PUSH2 0x1941 DUP8 MLOAD SWAP9 DUP10 SWAP7 DUP8 SWAP6 DUP7 SWAP5 PUSH4 0xDC203137 PUSH1 0xE0 SHL DUP7 MSTORE DUP1 SLOAD PUSH1 0x4 DUP8 ADD MSTORE ADD SLOAD PUSH1 0x24 DUP6 ADD MSTORE PUSH1 0x44 DUP5 ADD MSTORE PUSH1 0x80 PUSH1 0x64 DUP5 ADD MSTORE PUSH1 0x84 DUP4 ADD SWAP1 PUSH2 0x154A JUMP JUMPDEST SUB SWAP3 GAS CALL SWAP1 DUP2 ISZERO PUSH2 0x1979 JUMPI POP PUSH2 0x1955 JUMPI POP POP JUMP JUMPDEST DUP2 RETURNDATASIZE DUP4 GT PUSH2 0x1972 JUMPI JUMPDEST PUSH2 0x1968 DUP2 DUP4 PUSH2 0x15A1 JUMP JUMPDEST DUP2 ADD SUB SLT PUSH2 0x51D JUMPI JUMP JUMPDEST POP RETURNDATASIZE PUSH2 0x195E JUMP JUMPDEST MLOAD RETURNDATASIZE PUSH1 0x0 DUP3 RETURNDATACOPY RETURNDATASIZE SWAP1 REVERT JUMPDEST DUP5 DUP2 SWAP6 SWAP3 POP RETURNDATASIZE DUP4 GT PUSH2 0x19AD JUMPI JUMPDEST PUSH2 0x199A DUP2 DUP4 PUSH2 0x15A1 JUMP JUMPDEST DUP2 ADD SUB SLT PUSH2 0x51D JUMPI PUSH1 0x1 DUP7 SWAP4 MLOAD SWAP1 PUSH2 0x18F7 JUMP JUMPDEST POP RETURNDATASIZE PUSH2 0x1990 JUMP JUMPDEST DUP5 MLOAD RETURNDATASIZE PUSH1 0x0 DUP3 RETURNDATACOPY RETURNDATASIZE SWAP1 REVERT JUMPDEST PUSH1 0x1 PUSH1 0x1 PUSH1 0xA0 SHL SUB PUSH1 0x1 SLOAD PUSH1 0x8 SHR AND CALLER SUB PUSH2 0x19D6 JUMPI JUMP JUMPDEST PUSH1 0x24 PUSH1 0x40 MLOAD PUSH32 0x118CDAA700000000000000000000000000000000000000000000000000000000 DUP2 MSTORE CALLER PUSH1 0x4 DUP3 ADD MSTORE REVERT JUMPDEST CALLDATALOAD SWAP1 PUSH1 0x1 PUSH1 0x1 PUSH1 0xA0 SHL SUB DUP3 AND DUP3 SUB PUSH2 0x51D JUMPI JUMP JUMPDEST PUSH1 0x40 MLOAD PUSH32 0xA9059CBB00000000000000000000000000000000000000000000000000000000 PUSH1 0x20 DUP3 ADD MSTORE PUSH1 0x1 PUSH1 0x1 PUSH1 0xA0 SHL SUB SWAP1 SWAP3 AND PUSH1 0x24 DUP4 ADD MSTORE PUSH1 0x44 DUP3 ADD SWAP3 SWAP1 SWAP3 MSTORE PUSH2 0x1864 SWAP2 PUSH2 0x185F DUP3 PUSH1 0x64 DUP2 ADD PUSH2 0x1851 JUMP JUMPDEST PUSH1 0x1 PUSH1 0x1 PUSH1 0xA0 SHL SUB AND SWAP1 PUSH2 0x1AB7 PUSH1 0x0 DUP1 DUP4 PUSH1 0x20 DUP3 SWAP6 MLOAD SWAP2 ADD DUP3 DUP8 GAS CALL RETURNDATASIZE ISZERO PUSH2 0x1B28 JUMPI RETURNDATASIZE SWAP1 PUSH2 0x1A99 DUP3 PUSH2 0x15D7 JUMP JUMPDEST SWAP2 PUSH2 0x1AA7 PUSH1 0x40 MLOAD SWAP4 DUP5 PUSH2 0x15A1 JUMP JUMPDEST DUP3 MSTORE RETURNDATASIZE DUP5 PUSH1 0x20 DUP5 ADD RETURNDATACOPY JUMPDEST DUP5 PUSH2 0x1B30 JUMP JUMPDEST SWAP1 DUP2 MLOAD SWAP2 DUP3 ISZERO ISZERO SWAP3 DUP4 PUSH2 0x1B00 JUMPI JUMPDEST POP POP POP PUSH2 0x1ACF JUMPI POP JUMP JUMPDEST PUSH1 0x24 SWAP1 PUSH1 0x40 MLOAD SWAP1 PUSH32 0x5274AFE700000000000000000000000000000000000000000000000000000000 DUP3 MSTORE PUSH1 0x4 DUP3 ADD MSTORE REVERT JUMPDEST DUP2 SWAP3 SWAP4 POP SWAP1 PUSH1 0x20 SWAP2 DUP2 ADD SUB SLT PUSH2 0x319 JUMPI PUSH1 0x20 ADD MLOAD SWAP1 DUP2 ISZERO SWAP2 DUP3 ISZERO SUB PUSH2 0x369 JUMPI POP CODESIZE DUP1 DUP1 PUSH2 0x1AC5 JUMP JUMPDEST PUSH1 0x60 SWAP1 PUSH2 0x1AB1 JUMP JUMPDEST SWAP1 PUSH2 0x1B6F JUMPI POP DUP1 MLOAD ISZERO PUSH2 0x1B45 JUMPI DUP1 MLOAD SWAP1 PUSH1 0x20 ADD REVERT JUMPDEST PUSH1 0x4 PUSH1 0x40 MLOAD PUSH32 0x1425EA4200000000000000000000000000000000000000000000000000000000 DUP2 MSTORE REVERT JUMPDEST DUP2 MLOAD ISZERO DUP1 PUSH2 0x1BBA JUMPI JUMPDEST PUSH2 0x1B80 JUMPI POP SWAP1 JUMP JUMPDEST PUSH1 0x24 SWAP1 PUSH1 0x1 PUSH1 0x1 PUSH1 0xA0 SHL SUB PUSH1 0x40 MLOAD SWAP2 PUSH32 0x9996B31500000000000000000000000000000000000000000000000000000000 DUP4 MSTORE AND PUSH1 0x4 DUP3 ADD MSTORE REVERT JUMPDEST POP DUP1 EXTCODESIZE ISZERO PUSH2 0x1B78 JUMP INVALID LOG2 PUSH5 0x6970667358 0x22 SLT KECCAK256 DUP9 0xB8 0xAE 0xE2 0xAC SUB BASEFEE MUL 0xEF 0xDC TLOAD 0xA6 PUSH28 0xE9C2F252433902F04FC8983996C87232B3B6AA64736F6C6343000818 STOP CALLER "
        },
        "methodIdentifiers": {
          "DEFAULT_ADMIN_ROLE()": "a217fddf",
          "TREASURY()": "2d2c5565",
          "bestRouter(uint256,address,address)": "61ee1031",
          "getEquitoFee()": "5c42132e",
          "getPeer(uint256)": "67ebb6b2",
          "getRoleAdmin(bytes32)": "248a9ca3",
          "grantRole(bytes32,address)": "2f2ff15d",
          "hasRole(bytes32,address)": "91d14854",
          "owner()": "8da5cb5b",
          "pause()": "8456cb59",
          "paused()": "5c975abb",
          "peers(uint256)": "be4f3e8f",
          "receiveMessage((uint256,uint256,(bytes32,bytes32),uint256,(bytes32,bytes32),bytes32),bytes)": "879d182d",
          "renounceOwnership()": "715018a6",
          "renounceRole(bytes32,address)": "36568abe",
          "revokeRole(bytes32,address)": "d547741f",
          "setPeers(uint256[],(bytes32,bytes32)[])": "59a1aae1",
          "supportsInterface(bytes4)": "01ffc9a7",
          "swapETHToTokens(address,uint256,uint256)": "a4c021e9",
          "swapTokensToETH(address,uint256,uint256,uint256)": "4cbb4505",
          "swapTokensToTokens(address,uint256,address,uint256,uint256)": "a1e83209",
          "toBase64(address)": "ef88e0e1",
          "transferOwnership(address)": "f2fde38b",
          "unPause()": "f7b188a5",
          "updateExecutor(address)": "74936c16",
          "updateFactory(address)": "d9f165dc"
        }
      }
    }
  }
}