{
  "contracts/routers/BasicRouter.sol": {
    "BasicRouter": {
      "abi": [
        {
          "inputs": [],
          "stateMutability": "nonpayable",
          "type": "constructor"
        },
        {
          "inputs": [],
          "name": "AccessControlBadConfirmation",
          "type": "error"
        },
        {
          "inputs": [
            {
              "internalType": "address",
              "name": "account",
              "type": "address"
            },
            {
              "internalType": "bytes32",
              "name": "neededRole",
              "type": "bytes32"
            }
          ],
          "name": "AccessControlUnauthorizedAccount",
          "type": "error"
        },
        {
          "inputs": [
            {
              "internalType": "address",
              "name": "target",
              "type": "address"
            }
          ],
          "name": "AddressEmptyCode",
          "type": "error"
        },
        {
          "inputs": [
            {
              "internalType": "address",
              "name": "account",
              "type": "address"
            }
          ],
          "name": "AddressInsufficientBalance",
          "type": "error"
        },
        {
          "inputs": [],
          "name": "FailedInnerCall",
          "type": "error"
        },
        {
          "inputs": [
            {
              "internalType": "address",
              "name": "token",
              "type": "address"
            }
          ],
          "name": "SafeERC20FailedOperation",
          "type": "error"
        },
        {
          "anonymous": false,
          "inputs": [
            {
              "indexed": true,
              "internalType": "address",
              "name": "from",
              "type": "address"
            },
            {
              "indexed": false,
              "internalType": "uint256",
              "name": "amountIn",
              "type": "uint256"
            },
            {
              "indexed": true,
              "internalType": "address",
              "name": "tokenOut",
              "type": "address"
            },
            {
              "indexed": false,
              "internalType": "uint256",
              "name": "amountOut",
              "type": "uint256"
            }
          ],
          "name": "EthToTokenSwap",
          "type": "event"
        },
        {
          "anonymous": false,
          "inputs": [
            {
              "indexed": true,
              "internalType": "bytes32",
              "name": "role",
              "type": "bytes32"
            },
            {
              "indexed": true,
              "internalType": "bytes32",
              "name": "previousAdminRole",
              "type": "bytes32"
            },
            {
              "indexed": true,
              "internalType": "bytes32",
              "name": "newAdminRole",
              "type": "bytes32"
            }
          ],
          "name": "RoleAdminChanged",
          "type": "event"
        },
        {
          "anonymous": false,
          "inputs": [
            {
              "indexed": true,
              "internalType": "bytes32",
              "name": "role",
              "type": "bytes32"
            },
            {
              "indexed": true,
              "internalType": "address",
              "name": "account",
              "type": "address"
            },
            {
              "indexed": true,
              "internalType": "address",
              "name": "sender",
              "type": "address"
            }
          ],
          "name": "RoleGranted",
          "type": "event"
        },
        {
          "anonymous": false,
          "inputs": [
            {
              "indexed": true,
              "internalType": "bytes32",
              "name": "role",
              "type": "bytes32"
            },
            {
              "indexed": true,
              "internalType": "address",
              "name": "account",
              "type": "address"
            },
            {
              "indexed": true,
              "internalType": "address",
              "name": "sender",
              "type": "address"
            }
          ],
          "name": "RoleRevoked",
          "type": "event"
        },
        {
          "anonymous": false,
          "inputs": [
            {
              "indexed": true,
              "internalType": "address",
              "name": "from",
              "type": "address"
            },
            {
              "indexed": true,
              "internalType": "address",
              "name": "tokenIn",
              "type": "address"
            },
            {
              "indexed": true,
              "internalType": "address",
              "name": "tokenOut",
              "type": "address"
            },
            {
              "indexed": false,
              "internalType": "uint256",
              "name": "amountIn",
              "type": "uint256"
            },
            {
              "indexed": false,
              "internalType": "uint256",
              "name": "amountOut",
              "type": "uint256"
            }
          ],
          "name": "TokenSwap",
          "type": "event"
        },
        {
          "anonymous": false,
          "inputs": [
            {
              "indexed": true,
              "internalType": "address",
              "name": "from",
              "type": "address"
            },
            {
              "indexed": true,
              "internalType": "address",
              "name": "tokenIn",
              "type": "address"
            },
            {
              "indexed": false,
              "internalType": "uint256",
              "name": "amountIn",
              "type": "uint256"
            },
            {
              "indexed": false,
              "internalType": "uint256",
              "name": "amountOut",
              "type": "uint256"
            }
          ],
          "name": "TokenToEthSwap",
          "type": "event"
        },
        {
          "inputs": [],
          "name": "DEFAULT_ADMIN_ROLE",
          "outputs": [
            {
              "internalType": "bytes32",
              "name": "",
              "type": "bytes32"
            }
          ],
          "stateMutability": "view",
          "type": "function"
        },
        {
          "inputs": [
            {
              "internalType": "address",
              "name": "tokenIn",
              "type": "address"
            },
            {
              "internalType": "address",
              "name": "tokenOut",
              "type": "address"
            },
            {
              "internalType": "uint256",
              "name": "amountIn",
              "type": "uint256"
            }
          ],
          "name": "getAmountOut",
          "outputs": [
            {
              "internalType": "uint256",
              "name": "",
              "type": "uint256"
            }
          ],
          "stateMutability": "view",
          "type": "function"
        },
        {
          "inputs": [
            {
              "internalType": "bytes32",
              "name": "role",
              "type": "bytes32"
            }
          ],
          "name": "getRoleAdmin",
          "outputs": [
            {
              "internalType": "bytes32",
              "name": "",
              "type": "bytes32"
            }
          ],
          "stateMutability": "view",
          "type": "function"
        },
        {
          "inputs": [
            {
              "internalType": "bytes32",
              "name": "role",
              "type": "bytes32"
            },
            {
              "internalType": "address",
              "name": "account",
              "type": "address"
            }
          ],
          "name": "grantRole",
          "outputs": [],
          "stateMutability": "nonpayable",
          "type": "function"
        },
        {
          "inputs": [
            {
              "internalType": "bytes32",
              "name": "role",
              "type": "bytes32"
            },
            {
              "internalType": "address",
              "name": "account",
              "type": "address"
            }
          ],
          "name": "hasRole",
          "outputs": [
            {
              "internalType": "bool",
              "name": "",
              "type": "bool"
            }
          ],
          "stateMutability": "view",
          "type": "function"
        },
        {
          "inputs": [
            {
              "internalType": "bytes32",
              "name": "role",
              "type": "bytes32"
            },
            {
              "internalType": "address",
              "name": "callerConfirmation",
              "type": "address"
            }
          ],
          "name": "renounceRole",
          "outputs": [],
          "stateMutability": "nonpayable",
          "type": "function"
        },
        {
          "inputs": [
            {
              "internalType": "bytes32",
              "name": "role",
              "type": "bytes32"
            },
            {
              "internalType": "address",
              "name": "account",
              "type": "address"
            }
          ],
          "name": "revokeRole",
          "outputs": [],
          "stateMutability": "nonpayable",
          "type": "function"
        },
        {
          "inputs": [
            {
              "internalType": "address",
              "name": "token",
              "type": "address"
            },
            {
              "internalType": "uint256",
              "name": "priceUSD",
              "type": "uint256"
            }
          ],
          "name": "setTokenPrice",
          "outputs": [],
          "stateMutability": "nonpayable",
          "type": "function"
        },
        {
          "inputs": [
            {
              "internalType": "bytes4",
              "name": "interfaceId",
              "type": "bytes4"
            }
          ],
          "name": "supportsInterface",
          "outputs": [
            {
              "internalType": "bool",
              "name": "",
              "type": "bool"
            }
          ],
          "stateMutability": "view",
          "type": "function"
        },
        {
          "inputs": [
            {
              "internalType": "address",
              "name": "tokenOut",
              "type": "address"
            },
            {
              "internalType": "address",
              "name": "to",
              "type": "address"
            }
          ],
          "name": "swapETHToTokens",
          "outputs": [
            {
              "internalType": "uint256",
              "name": "",
              "type": "uint256"
            }
          ],
          "stateMutability": "payable",
          "type": "function"
        },
        {
          "inputs": [
            {
              "internalType": "address",
              "name": "tokenIn",
              "type": "address"
            },
            {
              "internalType": "address",
              "name": "tokenOut",
              "type": "address"
            },
            {
              "internalType": "uint256",
              "name": "amountIn",
              "type": "uint256"
            },
            {
              "internalType": "address",
              "name": "to",
              "type": "address"
            }
          ],
          "name": "swapTokenToToken",
          "outputs": [
            {
              "internalType": "uint256",
              "name": "",
              "type": "uint256"
            }
          ],
          "stateMutability": "nonpayable",
          "type": "function"
        },
        {
          "inputs": [
            {
              "internalType": "address",
              "name": "tokenIn",
              "type": "address"
            },
            {
              "internalType": "uint256",
              "name": "amountIn",
              "type": "uint256"
            },
            {
              "internalType": "address",
              "name": "to",
              "type": "address"
            }
          ],
          "name": "swapTokensToETH",
          "outputs": [
            {
              "internalType": "uint256",
              "name": "",
              "type": "uint256"
            }
          ],
          "stateMutability": "nonpayable",
          "type": "function"
        },
        {
          "inputs": [
            {
              "internalType": "address",
              "name": "",
              "type": "address"
            }
          ],
          "name": "tokenPricesUSD",
          "outputs": [
            {
              "internalType": "uint256",
              "name": "",
              "type": "uint256"
            }
          ],
          "stateMutability": "view",
          "type": "function"
        },
        {
          "inputs": [],
          "name": "weth",
          "outputs": [
            {
              "internalType": "address",
              "name": "",
              "type": "address"
            }
          ],
          "stateMutability": "pure",
          "type": "function"
        },
        {
          "stateMutability": "payable",
          "type": "receive"
        }
      ],
      "evm": {
        "bytecode": {
          "linkReferences": {},
          "object": "6080604052346100225761001233610027565b50604051610dc990816100b88239f35b600080fd5b6001600160a01b031660008181527fad3228b676f7d3cd4284a5443f17f1962b36e491b30a40b2405849e597ba5fb5602052604081205490919060ff166100b357818052816020526040822081835260205260408220600160ff1982541617905533917f2f8788117e7eff1d82e926ec794901d17c78024a50270940304540a733656f0d8180a4600190565b509056fe6080604081815260049081361015610022575b505050361561002057600080fd5b005b600092833560e01c90816301ffc9a7146108385750806319089a0d14610801578063248a9ca3146107d75780632f2ff15d146107af57806336568abe1461074f5780633f3f80c3146105a15780633fc8cef314610572578063431f63c9146105035780634aa06652146104ca578063796449dd1461032657806391d14854146102e1578063a217fddf146102c6578063bed2d5e8146101055763d547741f0361001257346101015780600319360112610101576100fd91356100f860016100e76108f2565b938387528660205286200154610a7f565b610b42565b5080f35b8280fd5b508083916003193601126102c25761011b6108d7565b6101236108f2565b341561027f5773eeeeeeeeeeeeeeeeeeeeeeeeeeeeeeeeeeeeeeee8452602094600186526101816001600160a01b038587205494169384875261017c868820549180151580610276575b61017690610a1c565b34610940565b610969565b9484516370a0823160e01b815230838201528781602481885afa91821561026b5790818893610235575b5050106101f35750836101be9183610bb8565b815134815283858201527f59a6c2d15a2ae3486483464c924ab1cb80dcfd000530f15c1f89f25f22e69853833392a351908152f35b6064908685519162461bcd60e51b8352820152601a60248201527f496e73756666696369656e7420746f6b656e2062616c616e63650000000000006044820152fd5b915091508782813d8311610264575b61024e8183610908565b81010312610261575085905188806101ab565b80fd5b503d610244565b8651903d90823e3d90fd5b5082151561016d565b606485602085519162461bcd60e51b8352820152601560248201527f4d7573742073656e642045544820746f207377617000000000000000000000006044820152fd5b5080fd5b8382346102c257816003193601126102c25751908152602090f35b5090346101015781600319360112610101578160209360ff926103026108f2565b903582528186526001600160a01b0383832091168252855220541690519015158152f35b5034610101576060366003190112610101576103406108d7565b602435604435946001600160a01b03958681168091036102c25773eeeeeeeeeeeeeeeeeeeeeeeeeeeeeeeeeeeeeeee82526103a4602097600189528684205495169485845261017c87852054821515806104c1575b61039e90610a1c565b86610940565b85516323b872dd60e01b815233818901908152306020820152604081018690529197918990829081906060010381878a5af180156104b75761048a575b50864710610448575081808088819482821561043f575bf1156104345750825190815283858201527f0de0de7715272cc074c6aa787cb38a0922f4f1eb76660f2ec9a2973a1e23ff86833392a351908152f35b8351903d90823e3d90fd5b506108fc6103f8565b6064908887519162461bcd60e51b8352820152601860248201527f496e73756666696369656e74204554482062616c616e636500000000000000006044820152fd5b6104a990893d8b116104b0575b6104a18183610908565b810190610a67565b50386103e1565b503d610497565b87513d86823e3d90fd5b50801515610395565b8382346102c25760603660031901126102c2576020906104fc6104eb6108d7565b6104f36108f2565b60443591610989565b9051908152f35b50903461010157816003193601126101015761051d6108d7565b908380528360205282842033855260205260ff83852054161561055557506001600160a01b0316825260016020526024359082205580f35b6044908484519163e2517d3f60e01b835233908301526024820152fd5b8382346102c257816003193601126102c2576020905173eeeeeeeeeeeeeeeeeeeeeeeeeeeeeeeeeeeeeeee8152f35b508290346102c25760803660031901126102c2576105bd6108d7565b916105c66108f2565b936044356064356001600160a01b0392838216820361074b57836105eb848a8a610989565b87516323b872dd60e01b602080830191909152336024830152306044830152606480830188905282529a91999290921695916106329061062c608482610908565b87610c20565b169486516370a0823160e01b8152308382015289816024818a5afa9182156107405790818a9361070d575b5050106106a55750856106709185610bb8565b835190815284868201527f2e05fc618ccc3aec7d710f137a131e0ab5b31af09fc6a0edb726dcd94b2e478f843392a451908152f35b6084908887519162461bcd60e51b8352820152602160248201527f496e73756666696369656e74206f757470757420746f6b656e2062616c616e6360448201527f65000000000000000000000000000000000000000000000000000000000000006064820152fd5b915091508982813d8311610739575b6107268183610908565b8101031261026157508790518a8061065d565b503d61071c565b8851903d90823e3d90fd5b8480fd5b508290346102c257806003193601126102c25761076a6108f2565b90336001600160a01b0383160361078757506100fd919235610b42565b8390517f6697b232000000000000000000000000000000000000000000000000000000008152fd5b50346101015780600319360112610101576100fd91356107d260016100e76108f2565b610ac3565b50903461010157602036600319011261010157816020936001923581528085522001549051908152f35b8382346102c25760203660031901126102c257806020926001600160a01b036108286108d7565b1681526001845220549051908152f35b8490843461010157602036600319011261010157357fffffffff00000000000000000000000000000000000000000000000000000000811680910361010157602092507f7965db0b0000000000000000000000000000000000000000000000000000000081149081156108ad575b5015158152f35b7f01ffc9a700000000000000000000000000000000000000000000000000000000915014836108a6565b600435906001600160a01b03821682036108ed57565b600080fd5b602435906001600160a01b03821682036108ed57565b90601f8019910116810190811067ffffffffffffffff82111761092a57604052565b634e487b7160e01b600052604160045260246000fd5b8181029291811591840414171561095357565b634e487b7160e01b600052601160045260246000fd5b8115610973570490565b634e487b7160e01b600052601260045260246000fd5b9190916001600160a01b03809116600052600160205260406000205492166000526040600020549082151580610a13575b156109cf576109cc9261017c91610940565b90565b606460405162461bcd60e51b815260206004820152601360248201527f546f6b656e207072696365206e6f7420736574000000000000000000000000006044820152fd5b508115156109ba565b15610a2357565b606460405162461bcd60e51b815260206004820152601a60248201527f455448206f7220546f6b656e207072696365206e6f74207365740000000000006044820152fd5b908160209103126108ed575180151581036108ed5790565b80600052600060205260406000203360005260205260ff6040600020541615610aa55750565b6044906040519063e2517d3f60e01b82523360048301526024820152fd5b90600091808352826020526001600160a01b036040842092169182845260205260ff60408420541615600014610b3d57808352826020526040832082845260205260408320600160ff198254161790557f2f8788117e7eff1d82e926ec794901d17c78024a50270940304540a733656f0d339380a4600190565b505090565b90600091808352826020526001600160a01b036040842092169182845260205260ff604084205416600014610b3d5780835282602052604083208284526020526040832060ff1981541690557ff6391f5c32d9c69d2a47ea670b442974b53935d1edc7fd64eb21e047a839171b339380a4600190565b916001600160a01b03604051927fa9059cbb000000000000000000000000000000000000000000000000000000006020850152166024830152604482015260448152608081019181831067ffffffffffffffff84111761092a57610c1e92604052610c20565b565b6001600160a01b031690600080826020829451910182865af13d15610cf3573d67ffffffffffffffff8111610cdf57604051610c7d939291610c6c601f8201601f191660200183610908565b8152809260203d92013e5b83610d00565b8051908115159182610cc4575b5050610c935750565b602490604051907f5274afe70000000000000000000000000000000000000000000000000000000082526004820152fd5b610cd79250602080918301019101610a67565b153880610c8a565b602483634e487b7160e01b81526041600452fd5b610c7d9150606090610c77565b90610d3f5750805115610d1557805190602001fd5b60046040517f1425ea42000000000000000000000000000000000000000000000000000000008152fd5b81511580610d8a575b610d50575090565b6024906001600160a01b03604051917f9996b315000000000000000000000000000000000000000000000000000000008352166004820152fd5b50803b15610d4856fea2646970667358221220102913725928c657f6e1becefa30313e799b0f1bdec2698b825823b9763cdd7064736f6c63430008180033",
          "opcodes": "PUSH1 0x80 PUSH1 0x40 MSTORE CALLVALUE PUSH2 0x22 JUMPI PUSH2 0x12 CALLER PUSH2 0x27 JUMP JUMPDEST POP PUSH1 0x40 MLOAD PUSH2 0xDC9 SWAP1 DUP2 PUSH2 0xB8 DUP3 CODECOPY RETURN JUMPDEST PUSH1 0x0 DUP1 REVERT JUMPDEST PUSH1 0x1 PUSH1 0x1 PUSH1 0xA0 SHL SUB AND PUSH1 0x0 DUP2 DUP2 MSTORE PUSH32 0xAD3228B676F7D3CD4284A5443F17F1962B36E491B30A40B2405849E597BA5FB5 PUSH1 0x20 MSTORE PUSH1 0x40 DUP2 KECCAK256 SLOAD SWAP1 SWAP2 SWAP1 PUSH1 0xFF AND PUSH2 0xB3 JUMPI DUP2 DUP1 MSTORE DUP2 PUSH1 0x20 MSTORE PUSH1 0x40 DUP3 KECCAK256 DUP2 DUP4 MSTORE PUSH1 0x20 MSTORE PUSH1 0x40 DUP3 KECCAK256 PUSH1 0x1 PUSH1 0xFF NOT DUP3 SLOAD AND OR SWAP1 SSTORE CALLER SWAP2 PUSH32 0x2F8788117E7EFF1D82E926EC794901D17C78024A50270940304540A733656F0D DUP2 DUP1 LOG4 PUSH1 0x1 SWAP1 JUMP JUMPDEST POP SWAP1 JUMP INVALID PUSH1 0x80 PUSH1 0x40 DUP2 DUP2 MSTORE PUSH1 0x4 SWAP1 DUP2 CALLDATASIZE LT ISZERO PUSH2 0x22 JUMPI JUMPDEST POP POP POP CALLDATASIZE ISZERO PUSH2 0x20 JUMPI PUSH1 0x0 DUP1 REVERT JUMPDEST STOP JUMPDEST PUSH1 0x0 SWAP3 DUP4 CALLDATALOAD PUSH1 0xE0 SHR SWAP1 DUP2 PUSH4 0x1FFC9A7 EQ PUSH2 0x838 JUMPI POP DUP1 PUSH4 0x19089A0D EQ PUSH2 0x801 JUMPI DUP1 PUSH4 0x248A9CA3 EQ PUSH2 0x7D7 JUMPI DUP1 PUSH4 0x2F2FF15D EQ PUSH2 0x7AF JUMPI DUP1 PUSH4 0x36568ABE EQ PUSH2 0x74F JUMPI DUP1 PUSH4 0x3F3F80C3 EQ PUSH2 0x5A1 JUMPI DUP1 PUSH4 0x3FC8CEF3 EQ PUSH2 0x572 JUMPI DUP1 PUSH4 0x431F63C9 EQ PUSH2 0x503 JUMPI DUP1 PUSH4 0x4AA06652 EQ PUSH2 0x4CA JUMPI DUP1 PUSH4 0x796449DD EQ PUSH2 0x326 JUMPI DUP1 PUSH4 0x91D14854 EQ PUSH2 0x2E1 JUMPI DUP1 PUSH4 0xA217FDDF EQ PUSH2 0x2C6 JUMPI DUP1 PUSH4 0xBED2D5E8 EQ PUSH2 0x105 JUMPI PUSH4 0xD547741F SUB PUSH2 0x12 JUMPI CALLVALUE PUSH2 0x101 JUMPI DUP1 PUSH1 0x3 NOT CALLDATASIZE ADD SLT PUSH2 0x101 JUMPI PUSH2 0xFD SWAP2 CALLDATALOAD PUSH2 0xF8 PUSH1 0x1 PUSH2 0xE7 PUSH2 0x8F2 JUMP JUMPDEST SWAP4 DUP4 DUP8 MSTORE DUP7 PUSH1 0x20 MSTORE DUP7 KECCAK256 ADD SLOAD PUSH2 0xA7F JUMP JUMPDEST PUSH2 0xB42 JUMP JUMPDEST POP DUP1 RETURN JUMPDEST DUP3 DUP1 REVERT JUMPDEST POP DUP1 DUP4 SWAP2 PUSH1 0x3 NOT CALLDATASIZE ADD SLT PUSH2 0x2C2 JUMPI PUSH2 0x11B PUSH2 0x8D7 JUMP JUMPDEST PUSH2 0x123 PUSH2 0x8F2 JUMP JUMPDEST CALLVALUE ISZERO PUSH2 0x27F JUMPI PUSH20 0xEEEEEEEEEEEEEEEEEEEEEEEEEEEEEEEEEEEEEEEE DUP5 MSTORE PUSH1 0x20 SWAP5 PUSH1 0x1 DUP7 MSTORE PUSH2 0x181 PUSH1 0x1 PUSH1 0x1 PUSH1 0xA0 SHL SUB DUP6 DUP8 KECCAK256 SLOAD SWAP5 AND SWAP4 DUP5 DUP8 MSTORE PUSH2 0x17C DUP7 DUP9 KECCAK256 SLOAD SWAP2 DUP1 ISZERO ISZERO DUP1 PUSH2 0x276 JUMPI JUMPDEST PUSH2 0x176 SWAP1 PUSH2 0xA1C JUMP JUMPDEST CALLVALUE PUSH2 0x940 JUMP JUMPDEST PUSH2 0x969 JUMP JUMPDEST SWAP5 DUP5 MLOAD PUSH4 0x70A08231 PUSH1 0xE0 SHL DUP2 MSTORE ADDRESS DUP4 DUP3 ADD MSTORE DUP8 DUP2 PUSH1 0x24 DUP2 DUP9 GAS STATICCALL SWAP2 DUP3 ISZERO PUSH2 0x26B JUMPI SWAP1 DUP2 DUP9 SWAP4 PUSH2 0x235 JUMPI JUMPDEST POP POP LT PUSH2 0x1F3 JUMPI POP DUP4 PUSH2 0x1BE SWAP2 DUP4 PUSH2 0xBB8 JUMP JUMPDEST DUP2 MLOAD CALLVALUE DUP2 MSTORE DUP4 DUP6 DUP3 ADD MSTORE PUSH32 0x59A6C2D15A2AE3486483464C924AB1CB80DCFD000530F15C1F89F25F22E69853 DUP4 CALLER SWAP3 LOG3 MLOAD SWAP1 DUP2 MSTORE RETURN JUMPDEST PUSH1 0x64 SWAP1 DUP7 DUP6 MLOAD SWAP2 PUSH3 0x461BCD PUSH1 0xE5 SHL DUP4 MSTORE DUP3 ADD MSTORE PUSH1 0x1A PUSH1 0x24 DUP3 ADD MSTORE PUSH32 0x496E73756666696369656E7420746F6B656E2062616C616E6365000000000000 PUSH1 0x44 DUP3 ADD MSTORE REVERT JUMPDEST SWAP2 POP SWAP2 POP DUP8 DUP3 DUP2 RETURNDATASIZE DUP4 GT PUSH2 0x264 JUMPI JUMPDEST PUSH2 0x24E DUP2 DUP4 PUSH2 0x908 JUMP JUMPDEST DUP2 ADD SUB SLT PUSH2 0x261 JUMPI POP DUP6 SWAP1 MLOAD DUP9 DUP1 PUSH2 0x1AB JUMP JUMPDEST DUP1 REVERT JUMPDEST POP RETURNDATASIZE PUSH2 0x244 JUMP JUMPDEST DUP7 MLOAD SWAP1 RETURNDATASIZE SWAP1 DUP3 RETURNDATACOPY RETURNDATASIZE SWAP1 REVERT JUMPDEST POP DUP3 ISZERO ISZERO PUSH2 0x16D JUMP JUMPDEST PUSH1 0x64 DUP6 PUSH1 0x20 DUP6 MLOAD SWAP2 PUSH3 0x461BCD PUSH1 0xE5 SHL DUP4 MSTORE DUP3 ADD MSTORE PUSH1 0x15 PUSH1 0x24 DUP3 ADD MSTORE PUSH32 0x4D7573742073656E642045544820746F20737761700000000000000000000000 PUSH1 0x44 DUP3 ADD MSTORE REVERT JUMPDEST POP DUP1 REVERT JUMPDEST DUP4 DUP3 CALLVALUE PUSH2 0x2C2 JUMPI DUP2 PUSH1 0x3 NOT CALLDATASIZE ADD SLT PUSH2 0x2C2 JUMPI MLOAD SWAP1 DUP2 MSTORE PUSH1 0x20 SWAP1 RETURN JUMPDEST POP SWAP1 CALLVALUE PUSH2 0x101 JUMPI DUP2 PUSH1 0x3 NOT CALLDATASIZE ADD SLT PUSH2 0x101 JUMPI DUP2 PUSH1 0x20 SWAP4 PUSH1 0xFF SWAP3 PUSH2 0x302 PUSH2 0x8F2 JUMP JUMPDEST SWAP1 CALLDATALOAD DUP3 MSTORE DUP2 DUP7 MSTORE PUSH1 0x1 PUSH1 0x1 PUSH1 0xA0 SHL SUB DUP4 DUP4 KECCAK256 SWAP2 AND DUP3 MSTORE DUP6 MSTORE KECCAK256 SLOAD AND SWAP1 MLOAD SWAP1 ISZERO ISZERO DUP2 MSTORE RETURN JUMPDEST POP CALLVALUE PUSH2 0x101 JUMPI PUSH1 0x60 CALLDATASIZE PUSH1 0x3 NOT ADD SLT PUSH2 0x101 JUMPI PUSH2 0x340 PUSH2 0x8D7 JUMP JUMPDEST PUSH1 0x24 CALLDATALOAD PUSH1 0x44 CALLDATALOAD SWAP5 PUSH1 0x1 PUSH1 0x1 PUSH1 0xA0 SHL SUB SWAP6 DUP7 DUP2 AND DUP1 SWAP2 SUB PUSH2 0x2C2 JUMPI PUSH20 0xEEEEEEEEEEEEEEEEEEEEEEEEEEEEEEEEEEEEEEEE DUP3 MSTORE PUSH2 0x3A4 PUSH1 0x20 SWAP8 PUSH1 0x1 DUP10 MSTORE DUP7 DUP5 KECCAK256 SLOAD SWAP6 AND SWAP5 DUP6 DUP5 MSTORE PUSH2 0x17C DUP8 DUP6 KECCAK256 SLOAD DUP3 ISZERO ISZERO DUP1 PUSH2 0x4C1 JUMPI JUMPDEST PUSH2 0x39E SWAP1 PUSH2 0xA1C JUMP JUMPDEST DUP7 PUSH2 0x940 JUMP JUMPDEST DUP6 MLOAD PUSH4 0x23B872DD PUSH1 0xE0 SHL DUP2 MSTORE CALLER DUP2 DUP10 ADD SWAP1 DUP2 MSTORE ADDRESS PUSH1 0x20 DUP3 ADD MSTORE PUSH1 0x40 DUP2 ADD DUP7 SWAP1 MSTORE SWAP2 SWAP8 SWAP2 DUP10 SWAP1 DUP3 SWAP1 DUP2 SWAP1 PUSH1 0x60 ADD SUB DUP2 DUP8 DUP11 GAS CALL DUP1 ISZERO PUSH2 0x4B7 JUMPI PUSH2 0x48A JUMPI JUMPDEST POP DUP7 SELFBALANCE LT PUSH2 0x448 JUMPI POP DUP2 DUP1 DUP1 DUP9 DUP2 SWAP5 DUP3 DUP3 ISZERO PUSH2 0x43F JUMPI JUMPDEST CALL ISZERO PUSH2 0x434 JUMPI POP DUP3 MLOAD SWAP1 DUP2 MSTORE DUP4 DUP6 DUP3 ADD MSTORE PUSH32 0xDE0DE7715272CC074C6AA787CB38A0922F4F1EB76660F2EC9A2973A1E23FF86 DUP4 CALLER SWAP3 LOG3 MLOAD SWAP1 DUP2 MSTORE RETURN JUMPDEST DUP4 MLOAD SWAP1 RETURNDATASIZE SWAP1 DUP3 RETURNDATACOPY RETURNDATASIZE SWAP1 REVERT JUMPDEST POP PUSH2 0x8FC PUSH2 0x3F8 JUMP JUMPDEST PUSH1 0x64 SWAP1 DUP9 DUP8 MLOAD SWAP2 PUSH3 0x461BCD PUSH1 0xE5 SHL DUP4 MSTORE DUP3 ADD MSTORE PUSH1 0x18 PUSH1 0x24 DUP3 ADD MSTORE PUSH32 0x496E73756666696369656E74204554482062616C616E63650000000000000000 PUSH1 0x44 DUP3 ADD MSTORE REVERT JUMPDEST PUSH2 0x4A9 SWAP1 DUP10 RETURNDATASIZE DUP12 GT PUSH2 0x4B0 JUMPI JUMPDEST PUSH2 0x4A1 DUP2 DUP4 PUSH2 0x908 JUMP JUMPDEST DUP2 ADD SWAP1 PUSH2 0xA67 JUMP JUMPDEST POP CODESIZE PUSH2 0x3E1 JUMP JUMPDEST POP RETURNDATASIZE PUSH2 0x497 JUMP JUMPDEST DUP8 MLOAD RETURNDATASIZE DUP7 DUP3 RETURNDATACOPY RETURNDATASIZE SWAP1 REVERT JUMPDEST POP DUP1 ISZERO ISZERO PUSH2 0x395 JUMP JUMPDEST DUP4 DUP3 CALLVALUE PUSH2 0x2C2 JUMPI PUSH1 0x60 CALLDATASIZE PUSH1 0x3 NOT ADD SLT PUSH2 0x2C2 JUMPI PUSH1 0x20 SWAP1 PUSH2 0x4FC PUSH2 0x4EB PUSH2 0x8D7 JUMP JUMPDEST PUSH2 0x4F3 PUSH2 0x8F2 JUMP JUMPDEST PUSH1 0x44 CALLDATALOAD SWAP2 PUSH2 0x989 JUMP JUMPDEST SWAP1 MLOAD SWAP1 DUP2 MSTORE RETURN JUMPDEST POP SWAP1 CALLVALUE PUSH2 0x101 JUMPI DUP2 PUSH1 0x3 NOT CALLDATASIZE ADD SLT PUSH2 0x101 JUMPI PUSH2 0x51D PUSH2 0x8D7 JUMP JUMPDEST SWAP1 DUP4 DUP1 MSTORE DUP4 PUSH1 0x20 MSTORE DUP3 DUP5 KECCAK256 CALLER DUP6 MSTORE PUSH1 0x20 MSTORE PUSH1 0xFF DUP4 DUP6 KECCAK256 SLOAD AND ISZERO PUSH2 0x555 JUMPI POP PUSH1 0x1 PUSH1 0x1 PUSH1 0xA0 SHL SUB AND DUP3 MSTORE PUSH1 0x1 PUSH1 0x20 MSTORE PUSH1 0x24 CALLDATALOAD SWAP1 DUP3 KECCAK256 SSTORE DUP1 RETURN JUMPDEST PUSH1 0x44 SWAP1 DUP5 DUP5 MLOAD SWAP2 PUSH4 0xE2517D3F PUSH1 0xE0 SHL DUP4 MSTORE CALLER SWAP1 DUP4 ADD MSTORE PUSH1 0x24 DUP3 ADD MSTORE REVERT JUMPDEST DUP4 DUP3 CALLVALUE PUSH2 0x2C2 JUMPI DUP2 PUSH1 0x3 NOT CALLDATASIZE ADD SLT PUSH2 0x2C2 JUMPI PUSH1 0x20 SWAP1 MLOAD PUSH20 0xEEEEEEEEEEEEEEEEEEEEEEEEEEEEEEEEEEEEEEEE DUP2 MSTORE RETURN JUMPDEST POP DUP3 SWAP1 CALLVALUE PUSH2 0x2C2 JUMPI PUSH1 0x80 CALLDATASIZE PUSH1 0x3 NOT ADD SLT PUSH2 0x2C2 JUMPI PUSH2 0x5BD PUSH2 0x8D7 JUMP JUMPDEST SWAP2 PUSH2 0x5C6 PUSH2 0x8F2 JUMP JUMPDEST SWAP4 PUSH1 0x44 CALLDATALOAD PUSH1 0x64 CALLDATALOAD PUSH1 0x1 PUSH1 0x1 PUSH1 0xA0 SHL SUB SWAP3 DUP4 DUP3 AND DUP3 SUB PUSH2 0x74B JUMPI DUP4 PUSH2 0x5EB DUP5 DUP11 DUP11 PUSH2 0x989 JUMP JUMPDEST DUP8 MLOAD PUSH4 0x23B872DD PUSH1 0xE0 SHL PUSH1 0x20 DUP1 DUP4 ADD SWAP2 SWAP1 SWAP2 MSTORE CALLER PUSH1 0x24 DUP4 ADD MSTORE ADDRESS PUSH1 0x44 DUP4 ADD MSTORE PUSH1 0x64 DUP1 DUP4 ADD DUP9 SWAP1 MSTORE DUP3 MSTORE SWAP11 SWAP2 SWAP10 SWAP3 SWAP1 SWAP3 AND SWAP6 SWAP2 PUSH2 0x632 SWAP1 PUSH2 0x62C PUSH1 0x84 DUP3 PUSH2 0x908 JUMP JUMPDEST DUP8 PUSH2 0xC20 JUMP JUMPDEST AND SWAP5 DUP7 MLOAD PUSH4 0x70A08231 PUSH1 0xE0 SHL DUP2 MSTORE ADDRESS DUP4 DUP3 ADD MSTORE DUP10 DUP2 PUSH1 0x24 DUP2 DUP11 GAS STATICCALL SWAP2 DUP3 ISZERO PUSH2 0x740 JUMPI SWAP1 DUP2 DUP11 SWAP4 PUSH2 0x70D JUMPI JUMPDEST POP POP LT PUSH2 0x6A5 JUMPI POP DUP6 PUSH2 0x670 SWAP2 DUP6 PUSH2 0xBB8 JUMP JUMPDEST DUP4 MLOAD SWAP1 DUP2 MSTORE DUP5 DUP7 DUP3 ADD MSTORE PUSH32 0x2E05FC618CCC3AEC7D710F137A131E0AB5B31AF09FC6A0EDB726DCD94B2E478F DUP5 CALLER SWAP3 LOG4 MLOAD SWAP1 DUP2 MSTORE RETURN JUMPDEST PUSH1 0x84 SWAP1 DUP9 DUP8 MLOAD SWAP2 PUSH3 0x461BCD PUSH1 0xE5 SHL DUP4 MSTORE DUP3 ADD MSTORE PUSH1 0x21 PUSH1 0x24 DUP3 ADD MSTORE PUSH32 0x496E73756666696369656E74206F757470757420746F6B656E2062616C616E63 PUSH1 0x44 DUP3 ADD MSTORE PUSH32 0x6500000000000000000000000000000000000000000000000000000000000000 PUSH1 0x64 DUP3 ADD MSTORE REVERT JUMPDEST SWAP2 POP SWAP2 POP DUP10 DUP3 DUP2 RETURNDATASIZE DUP4 GT PUSH2 0x739 JUMPI JUMPDEST PUSH2 0x726 DUP2 DUP4 PUSH2 0x908 JUMP JUMPDEST DUP2 ADD SUB SLT PUSH2 0x261 JUMPI POP DUP8 SWAP1 MLOAD DUP11 DUP1 PUSH2 0x65D JUMP JUMPDEST POP RETURNDATASIZE PUSH2 0x71C JUMP JUMPDEST DUP9 MLOAD SWAP1 RETURNDATASIZE SWAP1 DUP3 RETURNDATACOPY RETURNDATASIZE SWAP1 REVERT JUMPDEST DUP5 DUP1 REVERT JUMPDEST POP DUP3 SWAP1 CALLVALUE PUSH2 0x2C2 JUMPI DUP1 PUSH1 0x3 NOT CALLDATASIZE ADD SLT PUSH2 0x2C2 JUMPI PUSH2 0x76A PUSH2 0x8F2 JUMP JUMPDEST SWAP1 CALLER PUSH1 0x1 PUSH1 0x1 PUSH1 0xA0 SHL SUB DUP4 AND SUB PUSH2 0x787 JUMPI POP PUSH2 0xFD SWAP2 SWAP3 CALLDATALOAD PUSH2 0xB42 JUMP JUMPDEST DUP4 SWAP1 MLOAD PUSH32 0x6697B23200000000000000000000000000000000000000000000000000000000 DUP2 MSTORE REVERT JUMPDEST POP CALLVALUE PUSH2 0x101 JUMPI DUP1 PUSH1 0x3 NOT CALLDATASIZE ADD SLT PUSH2 0x101 JUMPI PUSH2 0xFD SWAP2 CALLDATALOAD PUSH2 0x7D2 PUSH1 0x1 PUSH2 0xE7 PUSH2 0x8F2 JUMP JUMPDEST PUSH2 0xAC3 JUMP JUMPDEST POP SWAP1 CALLVALUE PUSH2 0x101 JUMPI PUSH1 0x20 CALLDATASIZE PUSH1 0x3 NOT ADD SLT PUSH2 0x101 JUMPI DUP2 PUSH1 0x20 SWAP4 PUSH1 0x1 SWAP3 CALLDATALOAD DUP2 MSTORE DUP1 DUP6 MSTORE KECCAK256 ADD SLOAD SWAP1 MLOAD SWAP1 DUP2 MSTORE RETURN JUMPDEST DUP4 DUP3 CALLVALUE PUSH2 0x2C2 JUMPI PUSH1 0x20 CALLDATASIZE PUSH1 0x3 NOT ADD SLT PUSH2 0x2C2 JUMPI DUP1 PUSH1 0x20 SWAP3 PUSH1 0x1 PUSH1 0x1 PUSH1 0xA0 SHL SUB PUSH2 0x828 PUSH2 0x8D7 JUMP JUMPDEST AND DUP2 MSTORE PUSH1 0x1 DUP5 MSTORE KECCAK256 SLOAD SWAP1 MLOAD SWAP1 DUP2 MSTORE RETURN JUMPDEST DUP5 SWAP1 DUP5 CALLVALUE PUSH2 0x101 JUMPI PUSH1 0x20 CALLDATASIZE PUSH1 0x3 NOT ADD SLT PUSH2 0x101 JUMPI CALLDATALOAD PUSH32 0xFFFFFFFF00000000000000000000000000000000000000000000000000000000 DUP2 AND DUP1 SWAP2 SUB PUSH2 0x101 JUMPI PUSH1 0x20 SWAP3 POP PUSH32 0x7965DB0B00000000000000000000000000000000000000000000000000000000 DUP2 EQ SWAP1 DUP2 ISZERO PUSH2 0x8AD JUMPI JUMPDEST POP ISZERO ISZERO DUP2 MSTORE RETURN JUMPDEST PUSH32 0x1FFC9A700000000000000000000000000000000000000000000000000000000 SWAP2 POP EQ DUP4 PUSH2 0x8A6 JUMP JUMPDEST PUSH1 0x4 CALLDATALOAD SWAP1 PUSH1 0x1 PUSH1 0x1 PUSH1 0xA0 SHL SUB DUP3 AND DUP3 SUB PUSH2 0x8ED JUMPI JUMP JUMPDEST PUSH1 0x0 DUP1 REVERT JUMPDEST PUSH1 0x24 CALLDATALOAD SWAP1 PUSH1 0x1 PUSH1 0x1 PUSH1 0xA0 SHL SUB DUP3 AND DUP3 SUB PUSH2 0x8ED JUMPI JUMP JUMPDEST SWAP1 PUSH1 0x1F DUP1 NOT SWAP2 ADD AND DUP2 ADD SWAP1 DUP2 LT PUSH8 0xFFFFFFFFFFFFFFFF DUP3 GT OR PUSH2 0x92A JUMPI PUSH1 0x40 MSTORE JUMP JUMPDEST PUSH4 0x4E487B71 PUSH1 0xE0 SHL PUSH1 0x0 MSTORE PUSH1 0x41 PUSH1 0x4 MSTORE PUSH1 0x24 PUSH1 0x0 REVERT JUMPDEST DUP2 DUP2 MUL SWAP3 SWAP2 DUP2 ISZERO SWAP2 DUP5 DIV EQ OR ISZERO PUSH2 0x953 JUMPI JUMP JUMPDEST PUSH4 0x4E487B71 PUSH1 0xE0 SHL PUSH1 0x0 MSTORE PUSH1 0x11 PUSH1 0x4 MSTORE PUSH1 0x24 PUSH1 0x0 REVERT JUMPDEST DUP2 ISZERO PUSH2 0x973 JUMPI DIV SWAP1 JUMP JUMPDEST PUSH4 0x4E487B71 PUSH1 0xE0 SHL PUSH1 0x0 MSTORE PUSH1 0x12 PUSH1 0x4 MSTORE PUSH1 0x24 PUSH1 0x0 REVERT JUMPDEST SWAP2 SWAP1 SWAP2 PUSH1 0x1 PUSH1 0x1 PUSH1 0xA0 SHL SUB DUP1 SWAP2 AND PUSH1 0x0 MSTORE PUSH1 0x1 PUSH1 0x20 MSTORE PUSH1 0x40 PUSH1 0x0 KECCAK256 SLOAD SWAP3 AND PUSH1 0x0 MSTORE PUSH1 0x40 PUSH1 0x0 KECCAK256 SLOAD SWAP1 DUP3 ISZERO ISZERO DUP1 PUSH2 0xA13 JUMPI JUMPDEST ISZERO PUSH2 0x9CF JUMPI PUSH2 0x9CC SWAP3 PUSH2 0x17C SWAP2 PUSH2 0x940 JUMP JUMPDEST SWAP1 JUMP JUMPDEST PUSH1 0x64 PUSH1 0x40 MLOAD PUSH3 0x461BCD PUSH1 0xE5 SHL DUP2 MSTORE PUSH1 0x20 PUSH1 0x4 DUP3 ADD MSTORE PUSH1 0x13 PUSH1 0x24 DUP3 ADD MSTORE PUSH32 0x546F6B656E207072696365206E6F742073657400000000000000000000000000 PUSH1 0x44 DUP3 ADD MSTORE REVERT JUMPDEST POP DUP2 ISZERO ISZERO PUSH2 0x9BA JUMP JUMPDEST ISZERO PUSH2 0xA23 JUMPI JUMP JUMPDEST PUSH1 0x64 PUSH1 0x40 MLOAD PUSH3 0x461BCD PUSH1 0xE5 SHL DUP2 MSTORE PUSH1 0x20 PUSH1 0x4 DUP3 ADD MSTORE PUSH1 0x1A PUSH1 0x24 DUP3 ADD MSTORE PUSH32 0x455448206F7220546F6B656E207072696365206E6F7420736574000000000000 PUSH1 0x44 DUP3 ADD MSTORE REVERT JUMPDEST SWAP1 DUP2 PUSH1 0x20 SWAP2 SUB SLT PUSH2 0x8ED JUMPI MLOAD DUP1 ISZERO ISZERO DUP2 SUB PUSH2 0x8ED JUMPI SWAP1 JUMP JUMPDEST DUP1 PUSH1 0x0 MSTORE PUSH1 0x0 PUSH1 0x20 MSTORE PUSH1 0x40 PUSH1 0x0 KECCAK256 CALLER PUSH1 0x0 MSTORE PUSH1 0x20 MSTORE PUSH1 0xFF PUSH1 0x40 PUSH1 0x0 KECCAK256 SLOAD AND ISZERO PUSH2 0xAA5 JUMPI POP JUMP JUMPDEST PUSH1 0x44 SWAP1 PUSH1 0x40 MLOAD SWAP1 PUSH4 0xE2517D3F PUSH1 0xE0 SHL DUP3 MSTORE CALLER PUSH1 0x4 DUP4 ADD MSTORE PUSH1 0x24 DUP3 ADD MSTORE REVERT JUMPDEST SWAP1 PUSH1 0x0 SWAP2 DUP1 DUP4 MSTORE DUP3 PUSH1 0x20 MSTORE PUSH1 0x1 PUSH1 0x1 PUSH1 0xA0 SHL SUB PUSH1 0x40 DUP5 KECCAK256 SWAP3 AND SWAP2 DUP3 DUP5 MSTORE PUSH1 0x20 MSTORE PUSH1 0xFF PUSH1 0x40 DUP5 KECCAK256 SLOAD AND ISZERO PUSH1 0x0 EQ PUSH2 0xB3D JUMPI DUP1 DUP4 MSTORE DUP3 PUSH1 0x20 MSTORE PUSH1 0x40 DUP4 KECCAK256 DUP3 DUP5 MSTORE PUSH1 0x20 MSTORE PUSH1 0x40 DUP4 KECCAK256 PUSH1 0x1 PUSH1 0xFF NOT DUP3 SLOAD AND OR SWAP1 SSTORE PUSH32 0x2F8788117E7EFF1D82E926EC794901D17C78024A50270940304540A733656F0D CALLER SWAP4 DUP1 LOG4 PUSH1 0x1 SWAP1 JUMP JUMPDEST POP POP SWAP1 JUMP JUMPDEST SWAP1 PUSH1 0x0 SWAP2 DUP1 DUP4 MSTORE DUP3 PUSH1 0x20 MSTORE PUSH1 0x1 PUSH1 0x1 PUSH1 0xA0 SHL SUB PUSH1 0x40 DUP5 KECCAK256 SWAP3 AND SWAP2 DUP3 DUP5 MSTORE PUSH1 0x20 MSTORE PUSH1 0xFF PUSH1 0x40 DUP5 KECCAK256 SLOAD AND PUSH1 0x0 EQ PUSH2 0xB3D JUMPI DUP1 DUP4 MSTORE DUP3 PUSH1 0x20 MSTORE PUSH1 0x40 DUP4 KECCAK256 DUP3 DUP5 MSTORE PUSH1 0x20 MSTORE PUSH1 0x40 DUP4 KECCAK256 PUSH1 0xFF NOT DUP2 SLOAD AND SWAP1 SSTORE PUSH32 0xF6391F5C32D9C69D2A47EA670B442974B53935D1EDC7FD64EB21E047A839171B CALLER SWAP4 DUP1 LOG4 PUSH1 0x1 SWAP1 JUMP JUMPDEST SWAP2 PUSH1 0x1 PUSH1 0x1 PUSH1 0xA0 SHL SUB PUSH1 0x40 MLOAD SWAP3 PUSH32 0xA9059CBB00000000000000000000000000000000000000000000000000000000 PUSH1 0x20 DUP6 ADD MSTORE AND PUSH1 0x24 DUP4 ADD MSTORE PUSH1 0x44 DUP3 ADD MSTORE PUSH1 0x44 DUP2 MSTORE PUSH1 0x80 DUP2 ADD SWAP2 DUP2 DUP4 LT PUSH8 0xFFFFFFFFFFFFFFFF DUP5 GT OR PUSH2 0x92A JUMPI PUSH2 0xC1E SWAP3 PUSH1 0x40 MSTORE PUSH2 0xC20 JUMP JUMPDEST JUMP JUMPDEST PUSH1 0x1 PUSH1 0x1 PUSH1 0xA0 SHL SUB AND SWAP1 PUSH1 0x0 DUP1 DUP3 PUSH1 0x20 DUP3 SWAP5 MLOAD SWAP2 ADD DUP3 DUP7 GAS CALL RETURNDATASIZE ISZERO PUSH2 0xCF3 JUMPI RETURNDATASIZE PUSH8 0xFFFFFFFFFFFFFFFF DUP2 GT PUSH2 0xCDF JUMPI PUSH1 0x40 MLOAD PUSH2 0xC7D SWAP4 SWAP3 SWAP2 PUSH2 0xC6C PUSH1 0x1F DUP3 ADD PUSH1 0x1F NOT AND PUSH1 0x20 ADD DUP4 PUSH2 0x908 JUMP JUMPDEST DUP2 MSTORE DUP1 SWAP3 PUSH1 0x20 RETURNDATASIZE SWAP3 ADD RETURNDATACOPY JUMPDEST DUP4 PUSH2 0xD00 JUMP JUMPDEST DUP1 MLOAD SWAP1 DUP2 ISZERO ISZERO SWAP2 DUP3 PUSH2 0xCC4 JUMPI JUMPDEST POP POP PUSH2 0xC93 JUMPI POP JUMP JUMPDEST PUSH1 0x24 SWAP1 PUSH1 0x40 MLOAD SWAP1 PUSH32 0x5274AFE700000000000000000000000000000000000000000000000000000000 DUP3 MSTORE PUSH1 0x4 DUP3 ADD MSTORE REVERT JUMPDEST PUSH2 0xCD7 SWAP3 POP PUSH1 0x20 DUP1 SWAP2 DUP4 ADD ADD SWAP2 ADD PUSH2 0xA67 JUMP JUMPDEST ISZERO CODESIZE DUP1 PUSH2 0xC8A JUMP JUMPDEST PUSH1 0x24 DUP4 PUSH4 0x4E487B71 PUSH1 0xE0 SHL DUP2 MSTORE PUSH1 0x41 PUSH1 0x4 MSTORE REVERT JUMPDEST PUSH2 0xC7D SWAP2 POP PUSH1 0x60 SWAP1 PUSH2 0xC77 JUMP JUMPDEST SWAP1 PUSH2 0xD3F JUMPI POP DUP1 MLOAD ISZERO PUSH2 0xD15 JUMPI DUP1 MLOAD SWAP1 PUSH1 0x20 ADD REVERT JUMPDEST PUSH1 0x4 PUSH1 0x40 MLOAD PUSH32 0x1425EA4200000000000000000000000000000000000000000000000000000000 DUP2 MSTORE REVERT JUMPDEST DUP2 MLOAD ISZERO DUP1 PUSH2 0xD8A JUMPI JUMPDEST PUSH2 0xD50 JUMPI POP SWAP1 JUMP JUMPDEST PUSH1 0x24 SWAP1 PUSH1 0x1 PUSH1 0x1 PUSH1 0xA0 SHL SUB PUSH1 0x40 MLOAD SWAP2 PUSH32 0x9996B31500000000000000000000000000000000000000000000000000000000 DUP4 MSTORE AND PUSH1 0x4 DUP3 ADD MSTORE REVERT JUMPDEST POP DUP1 EXTCODESIZE ISZERO PUSH2 0xD48 JUMP INVALID LOG2 PUSH5 0x6970667358 0x22 SLT KECCAK256 LT 0x29 SGT PUSH19 0x5928C657F6E1BECEFA30313E799B0F1BDEC269 DUP12 DUP3 PC 0x23 0xB9 PUSH23 0x3CDD7064736F6C63430008180033000000000000000000 "
        },
        "methodIdentifiers": {
          "DEFAULT_ADMIN_ROLE()": "a217fddf",
          "getAmountOut(address,address,uint256)": "4aa06652",
          "getRoleAdmin(bytes32)": "248a9ca3",
          "grantRole(bytes32,address)": "2f2ff15d",
          "hasRole(bytes32,address)": "91d14854",
          "renounceRole(bytes32,address)": "36568abe",
          "revokeRole(bytes32,address)": "d547741f",
          "setTokenPrice(address,uint256)": "431f63c9",
          "supportsInterface(bytes4)": "01ffc9a7",
          "swapETHToTokens(address,address)": "bed2d5e8",
          "swapTokenToToken(address,address,uint256,address)": "3f3f80c3",
          "swapTokensToETH(address,uint256,address)": "796449dd",
          "tokenPricesUSD(address)": "19089a0d",
          "weth()": "3fc8cef3"
        }
      }
    }
  }
}