{
  "contracts/src/lib/HoneyFeeMath.sol": {
    "HoneyFeeMath": {
      "abi": [
        {
          "inputs": [],
          "name": "DENOMINATOR",
          "outputs": [
            {
              "internalType": "uint256",
              "name": "",
              "type": "uint256"
            }
          ],
          "stateMutability": "view",
          "type": "function"
        },
        {
          "inputs": [],
          "name": "HONEY_FEE_PERCENTAGE",
          "outputs": [
            {
              "internalType": "uint256",
              "name": "",
              "type": "uint256"
            }
          ],
          "stateMutability": "view",
          "type": "function"
        },
        {
          "inputs": [
            {
              "internalType": "uint256",
              "name": "value",
              "type": "uint256"
            },
            {
              "internalType": "uint256",
              "name": "percentage",
              "type": "uint256"
            }
          ],
          "name": "extract",
          "outputs": [
            {
              "internalType": "uint256",
              "name": "",
              "type": "uint256"
            }
          ],
          "stateMutability": "pure",
          "type": "function"
        },
        {
          "inputs": [
            {
              "internalType": "uint256",
              "name": "amount",
              "type": "uint256"
            }
          ],
          "name": "split",
          "outputs": [
            {
              "internalType": "uint256",
              "name": "",
              "type": "uint256"
            },
            {
              "internalType": "uint256",
              "name": "",
              "type": "uint256"
            }
          ],
          "stateMutability": "pure",
          "type": "function"
        }
      ],
      "evm": {
        "bytecode": {
          "linkReferences": {},
          "object": "6080806040523461001a576101cd9081610020823930815050f35b600080fdfe608060409080825260048036101561001657600080fd5b600091823560e01c9081637968669714610180575080638139e0f6146100d4578063918f8674146100bb5763dbceb0051461005057600080fd5b60203660031901126100b7578035916103e88084029084820414841517156100a457620f424090049182840393841161009157505082519182526020820152f35b906011602492634e487b7160e01b835252fd5b506011602492634e487b7160e01b835252fd5b5080fd5b8284816003193601126100b75760209051620f42408152f35b5091806003193601126100b75782359060243592620f424092838511610123578481029481860414901517156101105750602093505191048152f35b80601186634e487b7160e01b6024945252fd5b60648660208551917f08c379a0000000000000000000000000000000000000000000000000000000008352820152601d60248201527f50657263656e746167652063616e6e6f742065786365656420313030250000006044820152fd5b8390816003193601126100b757806103e860209252f3fea26469706673582212203555b9dd6bf27bb3011cc04c88cdeb145df4ec576db291e7f543d8a4461b2b7a64736f6c63430008180033",
          "opcodes": "PUSH1 0x80 DUP1 PUSH1 0x40 MSTORE CALLVALUE PUSH2 0x1A JUMPI PUSH2 0x1CD SWAP1 DUP2 PUSH2 0x20 DUP3 CODECOPY ADDRESS DUP2 POP POP RETURN JUMPDEST PUSH1 0x0 DUP1 REVERT INVALID PUSH1 0x80 PUSH1 0x40 SWAP1 DUP1 DUP3 MSTORE PUSH1 0x4 DUP1 CALLDATASIZE LT ISZERO PUSH2 0x16 JUMPI PUSH1 0x0 DUP1 REVERT JUMPDEST PUSH1 0x0 SWAP2 DUP3 CALLDATALOAD PUSH1 0xE0 SHR SWAP1 DUP2 PUSH4 0x79686697 EQ PUSH2 0x180 JUMPI POP DUP1 PUSH4 0x8139E0F6 EQ PUSH2 0xD4 JUMPI DUP1 PUSH4 0x918F8674 EQ PUSH2 0xBB JUMPI PUSH4 0xDBCEB005 EQ PUSH2 0x50 JUMPI PUSH1 0x0 DUP1 REVERT JUMPDEST PUSH1 0x20 CALLDATASIZE PUSH1 0x3 NOT ADD SLT PUSH2 0xB7 JUMPI DUP1 CALLDATALOAD SWAP2 PUSH2 0x3E8 DUP1 DUP5 MUL SWAP1 DUP5 DUP3 DIV EQ DUP5 ISZERO OR ISZERO PUSH2 0xA4 JUMPI PUSH3 0xF4240 SWAP1 DIV SWAP2 DUP3 DUP5 SUB SWAP4 DUP5 GT PUSH2 0x91 JUMPI POP POP DUP3 MLOAD SWAP2 DUP3 MSTORE PUSH1 0x20 DUP3 ADD MSTORE RETURN JUMPDEST SWAP1 PUSH1 0x11 PUSH1 0x24 SWAP3 PUSH4 0x4E487B71 PUSH1 0xE0 SHL DUP4 MSTORE MSTORE REVERT JUMPDEST POP PUSH1 0x11 PUSH1 0x24 SWAP3 PUSH4 0x4E487B71 PUSH1 0xE0 SHL DUP4 MSTORE MSTORE REVERT JUMPDEST POP DUP1 REVERT JUMPDEST DUP3 DUP5 DUP2 PUSH1 0x3 NOT CALLDATASIZE ADD SLT PUSH2 0xB7 JUMPI PUSH1 0x20 SWAP1 MLOAD PUSH3 0xF4240 DUP2 MSTORE RETURN JUMPDEST POP SWAP2 DUP1 PUSH1 0x3 NOT CALLDATASIZE ADD SLT PUSH2 0xB7 JUMPI DUP3 CALLDATALOAD SWAP1 PUSH1 0x24 CALLDATALOAD SWAP3 PUSH3 0xF4240 SWAP3 DUP4 DUP6 GT PUSH2 0x123 JUMPI DUP5 DUP2 MUL SWAP5 DUP2 DUP7 DIV EQ SWAP1 ISZERO OR ISZERO PUSH2 0x110 JUMPI POP PUSH1 0x20 SWAP4 POP MLOAD SWAP2 DIV DUP2 MSTORE RETURN JUMPDEST DUP1 PUSH1 0x11 DUP7 PUSH4 0x4E487B71 PUSH1 0xE0 SHL PUSH1 0x24 SWAP5 MSTORE MSTORE REVERT JUMPDEST PUSH1 0x64 DUP7 PUSH1 0x20 DUP6 MLOAD SWAP2 PUSH32 0x8C379A000000000000000000000000000000000000000000000000000000000 DUP4 MSTORE DUP3 ADD MSTORE PUSH1 0x1D PUSH1 0x24 DUP3 ADD MSTORE PUSH32 0x50657263656E746167652063616E6E6F74206578636565642031303025000000 PUSH1 0x44 DUP3 ADD MSTORE REVERT JUMPDEST DUP4 SWAP1 DUP2 PUSH1 0x3 NOT CALLDATASIZE ADD SLT PUSH2 0xB7 JUMPI DUP1 PUSH2 0x3E8 PUSH1 0x20 SWAP3 MSTORE RETURN INVALID LOG2 PUSH5 0x6970667358 0x22 SLT KECCAK256 CALLDATALOAD SSTORE 0xB9 0xDD PUSH12 0xF27BB3011CC04C88CDEB145D DELEGATECALL 0xEC JUMPI PUSH14 0xB291E7F543D8A4461B2B7A64736F PUSH13 0x63430008180033000000000000 "
        },
        "methodIdentifiers": {
          "DENOMINATOR()": "918f8674",
          "HONEY_FEE_PERCENTAGE()": "79686697",
          "extract(uint256,uint256)": "8139e0f6",
          "split(uint256)": "dbceb005"
        }
      }
    }
  }
}