{
  "contracts/src/HoneyExecutor.sol": {
    "HoneyExecutor": {
      "abi": [
        {
          "inputs": [],
          "stateMutability": "nonpayable",
          "type": "constructor"
        },
        {
          "inputs": [],
          "name": "AccessControlBadConfirmation",
          "type": "error"
        },
        {
          "inputs": [
            {
              "internalType": "address",
              "name": "account",
              "type": "address"
            },
            {
              "internalType": "bytes32",
              "name": "neededRole",
              "type": "bytes32"
            }
          ],
          "name": "AccessControlUnauthorizedAccount",
          "type": "error"
        },
        {
          "inputs": [
            {
              "internalType": "uint256",
              "name": "amountOut",
              "type": "uint256"
            },
            {
              "internalType": "uint256",
              "name": "expectedAmountOut",
              "type": "uint256"
            }
          ],
          "name": "InsufficientOutputAmount",
          "type": "error"
        },
        {
          "anonymous": false,
          "inputs": [
            {
              "indexed": true,
              "internalType": "bytes32",
              "name": "role",
              "type": "bytes32"
            },
            {
              "indexed": true,
              "internalType": "bytes32",
              "name": "previousAdminRole",
              "type": "bytes32"
            },
            {
              "indexed": true,
              "internalType": "bytes32",
              "name": "newAdminRole",
              "type": "bytes32"
            }
          ],
          "name": "RoleAdminChanged",
          "type": "event"
        },
        {
          "anonymous": false,
          "inputs": [
            {
              "indexed": true,
              "internalType": "bytes32",
              "name": "role",
              "type": "bytes32"
            },
            {
              "indexed": true,
              "internalType": "address",
              "name": "account",
              "type": "address"
            },
            {
              "indexed": true,
              "internalType": "address",
              "name": "sender",
              "type": "address"
            }
          ],
          "name": "RoleGranted",
          "type": "event"
        },
        {
          "anonymous": false,
          "inputs": [
            {
              "indexed": true,
              "internalType": "bytes32",
              "name": "role",
              "type": "bytes32"
            },
            {
              "indexed": true,
              "internalType": "address",
              "name": "account",
              "type": "address"
            },
            {
              "indexed": true,
              "internalType": "address",
              "name": "sender",
              "type": "address"
            }
          ],
          "name": "RoleRevoked",
          "type": "event"
        },
        {
          "inputs": [],
          "name": "ADMIN_ROLE",
          "outputs": [
            {
              "internalType": "bytes32",
              "name": "",
              "type": "bytes32"
            }
          ],
          "stateMutability": "view",
          "type": "function"
        },
        {
          "inputs": [],
          "name": "DEFAULT_ADMIN_ROLE",
          "outputs": [
            {
              "internalType": "bytes32",
              "name": "",
              "type": "bytes32"
            }
          ],
          "stateMutability": "view",
          "type": "function"
        },
        {
          "inputs": [
            {
              "internalType": "string",
              "name": "name",
              "type": "string"
            },
            {
              "internalType": "string",
              "name": "routerURI",
              "type": "string"
            },
            {
              "internalType": "address",
              "name": "routerId",
              "type": "address"
            }
          ],
          "name": "addRouter",
          "outputs": [],
          "stateMutability": "nonpayable",
          "type": "function"
        },
        {
          "inputs": [
            {
              "internalType": "uint256",
              "name": "amountIn",
              "type": "uint256"
            },
            {
              "internalType": "address",
              "name": "tokenIn",
              "type": "address"
            },
            {
              "internalType": "address",
              "name": "tokenOut",
              "type": "address"
            }
          ],
          "name": "bestRouter",
          "outputs": [
            {
              "internalType": "uint256",
              "name": "",
              "type": "uint256"
            },
            {
              "internalType": "address",
              "name": "",
              "type": "address"
            }
          ],
          "stateMutability": "view",
          "type": "function"
        },
        {
          "inputs": [
            {
              "internalType": "bytes32",
              "name": "role",
              "type": "bytes32"
            }
          ],
          "name": "getRoleAdmin",
          "outputs": [
            {
              "internalType": "bytes32",
              "name": "",
              "type": "bytes32"
            }
          ],
          "stateMutability": "view",
          "type": "function"
        },
        {
          "inputs": [
            {
              "internalType": "address",
              "name": "routerId",
              "type": "address"
            }
          ],
          "name": "getRouter",
          "outputs": [
            {
              "components": [
                {
                  "internalType": "string",
                  "name": "name",
                  "type": "string"
                },
                {
                  "internalType": "string",
                  "name": "routerURI",
                  "type": "string"
                }
              ],
              "internalType": "struct HoneyExecutor.Router",
              "name": "",
              "type": "tuple"
            }
          ],
          "stateMutability": "view",
          "type": "function"
        },
        {
          "inputs": [],
          "name": "getRouterCount",
          "outputs": [
            {
              "internalType": "uint256",
              "name": "",
              "type": "uint256"
            }
          ],
          "stateMutability": "view",
          "type": "function"
        },
        {
          "inputs": [
            {
              "internalType": "bytes32",
              "name": "role",
              "type": "bytes32"
            },
            {
              "internalType": "address",
              "name": "account",
              "type": "address"
            }
          ],
          "name": "grantRole",
          "outputs": [],
          "stateMutability": "nonpayable",
          "type": "function"
        },
        {
          "inputs": [
            {
              "internalType": "bytes32",
              "name": "role",
              "type": "bytes32"
            },
            {
              "internalType": "address",
              "name": "account",
              "type": "address"
            }
          ],
          "name": "hasRole",
          "outputs": [
            {
              "internalType": "bool",
              "name": "",
              "type": "bool"
            }
          ],
          "stateMutability": "view",
          "type": "function"
        },
        {
          "inputs": [
            {
              "internalType": "address",
              "name": "routerId",
              "type": "address"
            }
          ],
          "name": "removeRouter",
          "outputs": [],
          "stateMutability": "nonpayable",
          "type": "function"
        },
        {
          "inputs": [
            {
              "internalType": "bytes32",
              "name": "role",
              "type": "bytes32"
            },
            {
              "internalType": "address",
              "name": "callerConfirmation",
              "type": "address"
            }
          ],
          "name": "renounceRole",
          "outputs": [],
          "stateMutability": "nonpayable",
          "type": "function"
        },
        {
          "inputs": [
            {
              "internalType": "bytes32",
              "name": "role",
              "type": "bytes32"
            },
            {
              "internalType": "address",
              "name": "account",
              "type": "address"
            }
          ],
          "name": "revokeRole",
          "outputs": [],
          "stateMutability": "nonpayable",
          "type": "function"
        },
        {
          "inputs": [
            {
              "internalType": "uint256",
              "name": "",
              "type": "uint256"
            }
          ],
          "name": "routerIds",
          "outputs": [
            {
              "internalType": "address",
              "name": "",
              "type": "address"
            }
          ],
          "stateMutability": "view",
          "type": "function"
        },
        {
          "inputs": [
            {
              "internalType": "address",
              "name": "",
              "type": "address"
            }
          ],
          "name": "routers",
          "outputs": [
            {
              "internalType": "string",
              "name": "name",
              "type": "string"
            },
            {
              "internalType": "string",
              "name": "routerURI",
              "type": "string"
            }
          ],
          "stateMutability": "view",
          "type": "function"
        },
        {
          "inputs": [
            {
              "internalType": "bytes4",
              "name": "interfaceId",
              "type": "bytes4"
            }
          ],
          "name": "supportsInterface",
          "outputs": [
            {
              "internalType": "bool",
              "name": "",
              "type": "bool"
            }
          ],
          "stateMutability": "view",
          "type": "function"
        },
        {
          "inputs": [
            {
              "internalType": "uint256",
              "name": "amountIn",
              "type": "uint256"
            },
            {
              "internalType": "address",
              "name": "tokenOut",
              "type": "address"
            },
            {
              "internalType": "uint256",
              "name": "amountOutMin",
              "type": "uint256"
            },
            {
              "internalType": "uint256",
              "name": "deadline",
              "type": "uint256"
            }
          ],
          "name": "swapETHToTokens",
          "outputs": [
            {
              "internalType": "uint256",
              "name": "",
              "type": "uint256"
            }
          ],
          "stateMutability": "payable",
          "type": "function"
        },
        {
          "inputs": [
            {
              "internalType": "address",
              "name": "tokenIn",
              "type": "address"
            },
            {
              "internalType": "uint256",
              "name": "amountIn",
              "type": "uint256"
            },
            {
              "internalType": "address",
              "name": "tokenOut",
              "type": "address"
            },
            {
              "internalType": "uint256",
              "name": "amountOutMin",
              "type": "uint256"
            },
            {
              "internalType": "uint256",
              "name": "deadline",
              "type": "uint256"
            }
          ],
          "name": "swapTokensToTokens",
          "outputs": [
            {
              "internalType": "uint256",
              "name": "",
              "type": "uint256"
            }
          ],
          "stateMutability": "payable",
          "type": "function"
        }
      ],
      "evm": {
        "bytecode": {
          "linkReferences": {},
          "object": "60806040523461002c5761001233610031565b5061001c336100d1565b5060405161148190816101508239f35b600080fd5b6001600160a01b031660008181527f7d7ffb7a348e1c6a02869081a26547b49160dd3df72d1d75a570eb9b698292ec60205260408120549091907fa49807205ce4d355092ef5a8a18f56e8913cf4a201fbe287825b095693c217759060ff166100cc57808352826020526040832082845260205260408320600160ff198254161790556000805160206115d1833981519152339380a4600190565b505090565b6001600160a01b031660008181527fad3228b676f7d3cd4284a5443f17f1962b36e491b30a40b2405849e597ba5fb5602052604081205490919060ff1661014b57818052816020526040822081835260205260408220600160ff1982541617905533916000805160206115d18339815191528180a4600190565b509056fe608060408181526004908136101561001657600080fd5b600092833560e01c90816301ffc9a714610cc557508063248a9ca314610c9b5780632f2ff15d14610c7357806336568abe14610c1357806361ee103114610bcd5780636ae0b15414610ab65780636ee4035d14610a7457806375b238fc14610a3957806380dd9a1f146109d15780638369166d1461093057806391d14854146108eb578063a1e8320914610759578063a217fddf1461073e578063a5be5f7a1461071f578063a6b97e271461042f578063b89eb11d1461011f5763d547741f146100df57600080fd5b3461011b578060031936011261011b5761011791356101126001610101610d64565b9383875286602052862001546111f1565b611296565b5080f35b8280fd5b5082903461042b57606036600319011261042b5767ffffffffffffffff908335828111610427576101539036908601610f87565b602493919335828111610423576101706101a09136908901610f87565b61019761017b610d7f565b9761018461115e565b87519561019087610e32565b3691611117565b84523691611117565b916020918281019384526001600160a01b038616875260019485845287209051908151838111610410579086916101d78254610df8565b93601f948581116103e4575b5086908583116001146103825761021292918c9183610377575b50508160011b916000199060031b1c19161790565b81555b0193519283519283116103645761022c8554610df8565b82811161032e575b50809183116001146102cd575081906102629388926102c25750508160011b916000199060031b1c19161790565b90555b60025490680100000000000000008210156102af578161028d916102ac949301600255610dab565b9091906001600160a01b038084549260031b9316831b921b1916179055565b80f35b602484604187634e487b7160e01b835252fd5b0151905088806101fd565b908593601f198416868a52838a20938a905b82821061031557505084116102fc575b505050811b019055610265565b015160001960f88460031b161c191690558780806102ef565b84840151865589979095019493840193908101906102df565b61035590868a52828a208480870160051c82019285881061035b575b0160051c0190610fb5565b89610234565b9250819261034a565b60248860418b634e487b7160e01b835252fd5b015190508d806101fd565b838c52878c209190601f1984168d5b8a8282106103ce57505090848795949392106103b5575b505050811b018155610215565b015160001960f88460031b161c191690558c80806103a8565b8385015186558d98909501949384019301610391565b61040a90848d52888d208780860160051c8201928b871061035b570160051c0190610fb5565b8c6101e3565b60248960418c634e487b7160e01b835252fd5b8580fd5b8380fd5b5080fd5b5082608036600319011261071c578235610447610d64565b60449160443590849285938695600290600254916001600160a01b03809516985b83811061060a57505050508381106105ee5750865163095ea7b360e01b81526001600160a01b038516818a019081526020818101859052908290819060400103818a805af180156105e45791879593916105309795936105b5575b508851946104d086610e64565b6002865289366020880137866104e58761102d565b526104ef8661103a565b5288518097819682957f7ff36ab50000000000000000000000000000000000000000000000000000000084528d8401526080602484015260848301906110da565b33604483015260643560648301520393165af19081156105ab578291610589575b5080516000198101929083116105765760208461056e858561104a565b519051908152f35b80601186634e487b7160e01b6024945252fd5b6105a591503d8084833e61059d8183610e80565b81019061105e565b84610551565b83513d84823e3d90fd5b6105d69060203d6020116105dd575b6105ce8183610e80565b810190611015565b508a6104c3565b503d6105c4565b88513d89823e3d90fd5b88846044928a519263d28d3eb560e01b84528301526024820152fd5b8c8c805161061781610e64565b848152813660208301378d61062b8261102d565b528c6106368261103a565b528d868a8c61064488610dab565b92905460039861067289519889978896879463d06ca61f60e01b865285015260249b8c8501528301906110da565b0393891b1c165afa908115610711578e80926106f6575b505080516000198101929083116106e257508f95949392916106aa9161104a565b518781116106c1575b505060010190919250610468565b6001929b5088919750966106d48c610dab565b9054911b1c1699908f6106b3565b90508f60118f91634e487b7160e01b835252fd5b61070a92503d8091833e61059d8183610e80565b388e610689565b508e513d8f823e3d90fd5b80fd5b83823461042b578160031936011261042b576020906002549051908152f35b83823461042b578160031936011261042b5751908152602090f35b508260a036600319011261071c5761076f610d95565b60243561077a610d7f565b916064359161078a84838361130c565b92908481106108cf57506001600160a01b0380911694826020858b6107d68c51948593849363095ea7b360e01b85528401602090939291936001600160a01b0360408201951681520152565b03818b8b5af180156108c5579188969594939187936108a6575b508951976107fd89610e64565b600289528a3660208b01376108118961102d565b528161081c8961103a565b91169052896108698a51988997889687947f38ed1739000000000000000000000000000000000000000000000000000000008652850152602484015260a0604484015260a48301906110da565b33606483015260843560848301520393165af19081156105ab578291610589575080516000198101929083116105765760208461056e858561104a565b6108be9060203d6020116105dd576105ce8183610e80565b508b6107f0565b89513d8a823e3d90fd5b88856044928a519263d28d3eb560e01b84528301526024820152fd5b50903461011b578160031936011261011b578160209360ff9261090c610d64565b903582528186526001600160a01b0383832091168252855220541690519015158152f35b50823461071c576020908160031936011261071c57826109cd916001600160a01b0361095a610d95565b606086855161096881610e32565b8281520152168152600184522091836109ba61099c600183519661098b88610e32565b61099481610ea2565b885201610ea2565b92808601938452825196879682885251918701526060860190610f47565b915190601f198584030190850152610f47565b0390f35b83823461042b57602036600319011261042b5780916001600160a01b036109f6610d95565b168152600160205220906109cd610a186001610a1185610ea2565b9401610ea2565b610a2b8351948486958652850190610f47565b908382036020850152610f47565b83823461042b578160031936011261042b57602090517fa49807205ce4d355092ef5a8a18f56e8913cf4a201fbe287825b095693c217758152f35b50903461011b57602036600319011261011b57359160025483101561071c57506001600160a01b03610aa7602093610dab565b92905490519260031b1c168152f35b503461011b57602036600319011261011b57600191610ad3610d95565b90610adc61115e565b6001600160a01b03809216808652610b05858695816020528820610aff81610fcc565b01610fcc565b85945b610b10578580f35b600280549081871015610bc757849183610b2989610dab565b949054600395861b1c1614610b45575050508380950194610b08565b93925094509460001992838101908111610bb4579061028d85610b6a610b7794610dab565b9054908a1b1c1691610dab565b8354908115610ba157500192610b8c84610dab565b81939154921b1b191690555538808080808580f35b866031602492634e487b7160e01b835252fd5b602488601185634e487b7160e01b835252fd5b50508580f35b50913461071c57606036600319011261071c5750610c046001600160a01b0391610bf5610d64565b610bfd610d7f565b913561130c565b83519182529091166020820152f35b5082903461042b578060031936011261042b57610c2e610d64565b90336001600160a01b03831603610c4b5750610117919235611296565b8390517f6697b232000000000000000000000000000000000000000000000000000000008152fd5b503461011b578060031936011261011b576101179135610c966001610101610d64565b611217565b50903461011b57602036600319011261011b57816020936001923581528085522001549051908152f35b8490843461011b57602036600319011261011b57357fffffffff00000000000000000000000000000000000000000000000000000000811680910361011b57602092507f7965db0b000000000000000000000000000000000000000000000000000000008114908115610d3a575b5015158152f35b7f01ffc9a70000000000000000000000000000000000000000000000000000000091501483610d33565b602435906001600160a01b0382168203610d7a57565b600080fd5b604435906001600160a01b0382168203610d7a57565b600435906001600160a01b0382168203610d7a57565b600254811015610de25760026000527f405787fa12a823e0f2b7631cc41b3ba8828b3321ca811111fa75cd3aa3bb5ace0190600090565b634e487b7160e01b600052603260045260246000fd5b90600182811c92168015610e28575b6020831014610e1257565b634e487b7160e01b600052602260045260246000fd5b91607f1691610e07565b6040810190811067ffffffffffffffff821117610e4e57604052565b634e487b7160e01b600052604160045260246000fd5b6060810190811067ffffffffffffffff821117610e4e57604052565b90601f8019910116810190811067ffffffffffffffff821117610e4e57604052565b90604051918260008254610eb581610df8565b90818452602094600191600181169081600014610f255750600114610ee6575b505050610ee492500383610e80565b565b600090815285812095935091905b818310610f0d575050610ee49350820101388080610ed5565b85548884018501529485019487945091830191610ef4565b92505050610ee494925060ff191682840152151560051b820101388080610ed5565b919082519283825260005b848110610f73575050826000602080949584010152601f8019910116010190565b602081830181015184830182015201610f52565b9181601f84011215610d7a5782359167ffffffffffffffff8311610d7a5760208381860195010111610d7a57565b818110610fc0575050565b60008155600101610fb5565b610fd68154610df8565b9081610fe0575050565b81601f60009311600114610ff2575055565b908083918252611011601f60208420940160051c840160018501610fb5565b5555565b90816020910312610d7a57518015158103610d7a5790565b805115610de25760200190565b805160011015610de25760400190565b8051821015610de25760209160051b010190565b906020908183820312610d7a57825167ffffffffffffffff93848211610d7a570181601f82011215610d7a578051938411610e4e578360051b90604051946110a885840187610e80565b85528380860192820101928311610d7a578301905b8282106110cb575050505090565b815181529083019083016110bd565b90815180825260208080930193019160005b8281106110fa575050505090565b83516001600160a01b0316855293810193928101926001016110ec565b92919267ffffffffffffffff8211610e4e5760405191611141601f8201601f191660200184610e80565b829481845281830111610d7a578281602093846000960137010152565b3360009081527f7d7ffb7a348e1c6a02869081a26547b49160dd3df72d1d75a570eb9b698292ec60205260409020547fa49807205ce4d355092ef5a8a18f56e8913cf4a201fbe287825b095693c217759060ff16156111ba5750565b604490604051907fe2517d3f0000000000000000000000000000000000000000000000000000000082523360048301526024820152fd5b80600052600060205260406000203360005260205260ff60406000205416156111ba5750565b90600091808352826020526001600160a01b036040842092169182845260205260ff6040842054161560001461129157808352826020526040832082845260205260408320600160ff198254161790557f2f8788117e7eff1d82e926ec794901d17c78024a50270940304540a733656f0d339380a4600190565b505090565b90600091808352826020526001600160a01b036040842092169182845260205260ff6040842054166000146112915780835282602052604083208284526020526040832060ff1981541690557ff6391f5c32d9c69d2a47ea670b442974b53935d1edc7fd64eb21e047a839171b339380a4600190565b600280546000959486949192855b84811061132b575050505050509190565b600060408781519161133c83610e64565b8583528036602085013761134f8361102d565b926001600160a01b0393848a1690526113678161103a565b84891690528361137687610dab565b96905460039785518094819363d06ca61f60e01b83526004998a840152826113a96024998b8b84015260448301906110da565b03938c1b1c165afa9283156114415750600092611426575b508151600019810193908411611413575050906113dd9161104a565b518981116113f1575b50505060010161131a565b909198506001929a50976114048b610dab565b9054911b1c16989038806113e6565b601190634e487b7160e01b600052526000fd5b61143a91923d8091833e61059d8183610e80565b90386113c1565b513d6000823e3d90fdfea264697066735822122057bcf4d44ba8f848009b8a6b5a061958e16717d8ae4aa8171d6a408f9857297e64736f6c634300081800332f8788117e7eff1d82e926ec794901d17c78024a50270940304540a733656f0d",
          "opcodes": "PUSH1 0x80 PUSH1 0x40 MSTORE CALLVALUE PUSH2 0x2C JUMPI PUSH2 0x12 CALLER PUSH2 0x31 JUMP JUMPDEST POP PUSH2 0x1C CALLER PUSH2 0xD1 JUMP JUMPDEST POP PUSH1 0x40 MLOAD PUSH2 0x1481 SWAP1 DUP2 PUSH2 0x150 DUP3 CODECOPY RETURN JUMPDEST PUSH1 0x0 DUP1 REVERT JUMPDEST PUSH1 0x1 PUSH1 0x1 PUSH1 0xA0 SHL SUB AND PUSH1 0x0 DUP2 DUP2 MSTORE PUSH32 0x7D7FFB7A348E1C6A02869081A26547B49160DD3DF72D1D75A570EB9B698292EC PUSH1 0x20 MSTORE PUSH1 0x40 DUP2 KECCAK256 SLOAD SWAP1 SWAP2 SWAP1 PUSH32 0xA49807205CE4D355092EF5A8A18F56E8913CF4A201FBE287825B095693C21775 SWAP1 PUSH1 0xFF AND PUSH2 0xCC JUMPI DUP1 DUP4 MSTORE DUP3 PUSH1 0x20 MSTORE PUSH1 0x40 DUP4 KECCAK256 DUP3 DUP5 MSTORE PUSH1 0x20 MSTORE PUSH1 0x40 DUP4 KECCAK256 PUSH1 0x1 PUSH1 0xFF NOT DUP3 SLOAD AND OR SWAP1 SSTORE PUSH1 0x0 DUP1 MLOAD PUSH1 0x20 PUSH2 0x15D1 DUP4 CODECOPY DUP2 MLOAD SWAP2 MSTORE CALLER SWAP4 DUP1 LOG4 PUSH1 0x1 SWAP1 JUMP JUMPDEST POP POP SWAP1 JUMP JUMPDEST PUSH1 0x1 PUSH1 0x1 PUSH1 0xA0 SHL SUB AND PUSH1 0x0 DUP2 DUP2 MSTORE PUSH32 0xAD3228B676F7D3CD4284A5443F17F1962B36E491B30A40B2405849E597BA5FB5 PUSH1 0x20 MSTORE PUSH1 0x40 DUP2 KECCAK256 SLOAD SWAP1 SWAP2 SWAP1 PUSH1 0xFF AND PUSH2 0x14B JUMPI DUP2 DUP1 MSTORE DUP2 PUSH1 0x20 MSTORE PUSH1 0x40 DUP3 KECCAK256 DUP2 DUP4 MSTORE PUSH1 0x20 MSTORE PUSH1 0x40 DUP3 KECCAK256 PUSH1 0x1 PUSH1 0xFF NOT DUP3 SLOAD AND OR SWAP1 SSTORE CALLER SWAP2 PUSH1 0x0 DUP1 MLOAD PUSH1 0x20 PUSH2 0x15D1 DUP4 CODECOPY DUP2 MLOAD SWAP2 MSTORE DUP2 DUP1 LOG4 PUSH1 0x1 SWAP1 JUMP JUMPDEST POP SWAP1 JUMP INVALID PUSH1 0x80 PUSH1 0x40 DUP2 DUP2 MSTORE PUSH1 0x4 SWAP1 DUP2 CALLDATASIZE LT ISZERO PUSH2 0x16 JUMPI PUSH1 0x0 DUP1 REVERT JUMPDEST PUSH1 0x0 SWAP3 DUP4 CALLDATALOAD PUSH1 0xE0 SHR SWAP1 DUP2 PUSH4 0x1FFC9A7 EQ PUSH2 0xCC5 JUMPI POP DUP1 PUSH4 0x248A9CA3 EQ PUSH2 0xC9B JUMPI DUP1 PUSH4 0x2F2FF15D EQ PUSH2 0xC73 JUMPI DUP1 PUSH4 0x36568ABE EQ PUSH2 0xC13 JUMPI DUP1 PUSH4 0x61EE1031 EQ PUSH2 0xBCD JUMPI DUP1 PUSH4 0x6AE0B154 EQ PUSH2 0xAB6 JUMPI DUP1 PUSH4 0x6EE4035D EQ PUSH2 0xA74 JUMPI DUP1 PUSH4 0x75B238FC EQ PUSH2 0xA39 JUMPI DUP1 PUSH4 0x80DD9A1F EQ PUSH2 0x9D1 JUMPI DUP1 PUSH4 0x8369166D EQ PUSH2 0x930 JUMPI DUP1 PUSH4 0x91D14854 EQ PUSH2 0x8EB JUMPI DUP1 PUSH4 0xA1E83209 EQ PUSH2 0x759 JUMPI DUP1 PUSH4 0xA217FDDF EQ PUSH2 0x73E JUMPI DUP1 PUSH4 0xA5BE5F7A EQ PUSH2 0x71F JUMPI DUP1 PUSH4 0xA6B97E27 EQ PUSH2 0x42F JUMPI DUP1 PUSH4 0xB89EB11D EQ PUSH2 0x11F JUMPI PUSH4 0xD547741F EQ PUSH2 0xDF JUMPI PUSH1 0x0 DUP1 REVERT JUMPDEST CALLVALUE PUSH2 0x11B JUMPI DUP1 PUSH1 0x3 NOT CALLDATASIZE ADD SLT PUSH2 0x11B JUMPI PUSH2 0x117 SWAP2 CALLDATALOAD PUSH2 0x112 PUSH1 0x1 PUSH2 0x101 PUSH2 0xD64 JUMP JUMPDEST SWAP4 DUP4 DUP8 MSTORE DUP7 PUSH1 0x20 MSTORE DUP7 KECCAK256 ADD SLOAD PUSH2 0x11F1 JUMP JUMPDEST PUSH2 0x1296 JUMP JUMPDEST POP DUP1 RETURN JUMPDEST DUP3 DUP1 REVERT JUMPDEST POP DUP3 SWAP1 CALLVALUE PUSH2 0x42B JUMPI PUSH1 0x60 CALLDATASIZE PUSH1 0x3 NOT ADD SLT PUSH2 0x42B JUMPI PUSH8 0xFFFFFFFFFFFFFFFF SWAP1 DUP4 CALLDATALOAD DUP3 DUP2 GT PUSH2 0x427 JUMPI PUSH2 0x153 SWAP1 CALLDATASIZE SWAP1 DUP7 ADD PUSH2 0xF87 JUMP JUMPDEST PUSH1 0x24 SWAP4 SWAP2 SWAP4 CALLDATALOAD DUP3 DUP2 GT PUSH2 0x423 JUMPI PUSH2 0x170 PUSH2 0x1A0 SWAP2 CALLDATASIZE SWAP1 DUP10 ADD PUSH2 0xF87 JUMP JUMPDEST PUSH2 0x197 PUSH2 0x17B PUSH2 0xD7F JUMP JUMPDEST SWAP8 PUSH2 0x184 PUSH2 0x115E JUMP JUMPDEST DUP8 MLOAD SWAP6 PUSH2 0x190 DUP8 PUSH2 0xE32 JUMP JUMPDEST CALLDATASIZE SWAP2 PUSH2 0x1117 JUMP JUMPDEST DUP5 MSTORE CALLDATASIZE SWAP2 PUSH2 0x1117 JUMP JUMPDEST SWAP2 PUSH1 0x20 SWAP2 DUP3 DUP2 ADD SWAP4 DUP5 MSTORE PUSH1 0x1 PUSH1 0x1 PUSH1 0xA0 SHL SUB DUP7 AND DUP8 MSTORE PUSH1 0x1 SWAP5 DUP6 DUP5 MSTORE DUP8 KECCAK256 SWAP1 MLOAD SWAP1 DUP2 MLOAD DUP4 DUP2 GT PUSH2 0x410 JUMPI SWAP1 DUP7 SWAP2 PUSH2 0x1D7 DUP3 SLOAD PUSH2 0xDF8 JUMP JUMPDEST SWAP4 PUSH1 0x1F SWAP5 DUP6 DUP2 GT PUSH2 0x3E4 JUMPI JUMPDEST POP DUP7 SWAP1 DUP6 DUP4 GT PUSH1 0x1 EQ PUSH2 0x382 JUMPI PUSH2 0x212 SWAP3 SWAP2 DUP13 SWAP2 DUP4 PUSH2 0x377 JUMPI JUMPDEST POP POP DUP2 PUSH1 0x1 SHL SWAP2 PUSH1 0x0 NOT SWAP1 PUSH1 0x3 SHL SHR NOT AND OR SWAP1 JUMP JUMPDEST DUP2 SSTORE JUMPDEST ADD SWAP4 MLOAD SWAP3 DUP4 MLOAD SWAP3 DUP4 GT PUSH2 0x364 JUMPI PUSH2 0x22C DUP6 SLOAD PUSH2 0xDF8 JUMP JUMPDEST DUP3 DUP2 GT PUSH2 0x32E JUMPI JUMPDEST POP DUP1 SWAP2 DUP4 GT PUSH1 0x1 EQ PUSH2 0x2CD JUMPI POP DUP2 SWAP1 PUSH2 0x262 SWAP4 DUP9 SWAP3 PUSH2 0x2C2 JUMPI POP POP DUP2 PUSH1 0x1 SHL SWAP2 PUSH1 0x0 NOT SWAP1 PUSH1 0x3 SHL SHR NOT AND OR SWAP1 JUMP JUMPDEST SWAP1 SSTORE JUMPDEST PUSH1 0x2 SLOAD SWAP1 PUSH9 0x10000000000000000 DUP3 LT ISZERO PUSH2 0x2AF JUMPI DUP2 PUSH2 0x28D SWAP2 PUSH2 0x2AC SWAP5 SWAP4 ADD PUSH1 0x2 SSTORE PUSH2 0xDAB JUMP JUMPDEST SWAP1 SWAP2 SWAP1 PUSH1 0x1 PUSH1 0x1 PUSH1 0xA0 SHL SUB DUP1 DUP5 SLOAD SWAP3 PUSH1 0x3 SHL SWAP4 AND DUP4 SHL SWAP3 SHL NOT AND OR SWAP1 SSTORE JUMP JUMPDEST DUP1 RETURN JUMPDEST PUSH1 0x24 DUP5 PUSH1 0x41 DUP8 PUSH4 0x4E487B71 PUSH1 0xE0 SHL DUP4 MSTORE MSTORE REVERT JUMPDEST ADD MLOAD SWAP1 POP DUP9 DUP1 PUSH2 0x1FD JUMP JUMPDEST SWAP1 DUP6 SWAP4 PUSH1 0x1F NOT DUP5 AND DUP7 DUP11 MSTORE DUP4 DUP11 KECCAK256 SWAP4 DUP11 SWAP1 JUMPDEST DUP3 DUP3 LT PUSH2 0x315 JUMPI POP POP DUP5 GT PUSH2 0x2FC JUMPI JUMPDEST POP POP POP DUP2 SHL ADD SWAP1 SSTORE PUSH2 0x265 JUMP JUMPDEST ADD MLOAD PUSH1 0x0 NOT PUSH1 0xF8 DUP5 PUSH1 0x3 SHL AND SHR NOT AND SWAP1 SSTORE DUP8 DUP1 DUP1 PUSH2 0x2EF JUMP JUMPDEST DUP5 DUP5 ADD MLOAD DUP7 SSTORE DUP10 SWAP8 SWAP1 SWAP6 ADD SWAP5 SWAP4 DUP5 ADD SWAP4 SWAP1 DUP2 ADD SWAP1 PUSH2 0x2DF JUMP JUMPDEST PUSH2 0x355 SWAP1 DUP7 DUP11 MSTORE DUP3 DUP11 KECCAK256 DUP5 DUP1 DUP8 ADD PUSH1 0x5 SHR DUP3 ADD SWAP3 DUP6 DUP9 LT PUSH2 0x35B JUMPI JUMPDEST ADD PUSH1 0x5 SHR ADD SWAP1 PUSH2 0xFB5 JUMP JUMPDEST DUP10 PUSH2 0x234 JUMP JUMPDEST SWAP3 POP DUP2 SWAP3 PUSH2 0x34A JUMP JUMPDEST PUSH1 0x24 DUP9 PUSH1 0x41 DUP12 PUSH4 0x4E487B71 PUSH1 0xE0 SHL DUP4 MSTORE MSTORE REVERT JUMPDEST ADD MLOAD SWAP1 POP DUP14 DUP1 PUSH2 0x1FD JUMP JUMPDEST DUP4 DUP13 MSTORE DUP8 DUP13 KECCAK256 SWAP2 SWAP1 PUSH1 0x1F NOT DUP5 AND DUP14 JUMPDEST DUP11 DUP3 DUP3 LT PUSH2 0x3CE JUMPI POP POP SWAP1 DUP5 DUP8 SWAP6 SWAP5 SWAP4 SWAP3 LT PUSH2 0x3B5 JUMPI JUMPDEST POP POP POP DUP2 SHL ADD DUP2 SSTORE PUSH2 0x215 JUMP JUMPDEST ADD MLOAD PUSH1 0x0 NOT PUSH1 0xF8 DUP5 PUSH1 0x3 SHL AND SHR NOT AND SWAP1 SSTORE DUP13 DUP1 DUP1 PUSH2 0x3A8 JUMP JUMPDEST DUP4 DUP6 ADD MLOAD DUP7 SSTORE DUP14 SWAP9 SWAP1 SWAP6 ADD SWAP5 SWAP4 DUP5 ADD SWAP4 ADD PUSH2 0x391 JUMP JUMPDEST PUSH2 0x40A SWAP1 DUP5 DUP14 MSTORE DUP9 DUP14 KECCAK256 DUP8 DUP1 DUP7 ADD PUSH1 0x5 SHR DUP3 ADD SWAP3 DUP12 DUP8 LT PUSH2 0x35B JUMPI ADD PUSH1 0x5 SHR ADD SWAP1 PUSH2 0xFB5 JUMP JUMPDEST DUP13 PUSH2 0x1E3 JUMP JUMPDEST PUSH1 0x24 DUP10 PUSH1 0x41 DUP13 PUSH4 0x4E487B71 PUSH1 0xE0 SHL DUP4 MSTORE MSTORE REVERT JUMPDEST DUP6 DUP1 REVERT JUMPDEST DUP4 DUP1 REVERT JUMPDEST POP DUP1 REVERT JUMPDEST POP DUP3 PUSH1 0x80 CALLDATASIZE PUSH1 0x3 NOT ADD SLT PUSH2 0x71C JUMPI DUP3 CALLDATALOAD PUSH2 0x447 PUSH2 0xD64 JUMP JUMPDEST PUSH1 0x44 SWAP2 PUSH1 0x44 CALLDATALOAD SWAP1 DUP5 SWAP3 DUP6 SWAP4 DUP7 SWAP6 PUSH1 0x2 SWAP1 PUSH1 0x2 SLOAD SWAP2 PUSH1 0x1 PUSH1 0x1 PUSH1 0xA0 SHL SUB DUP1 SWAP6 AND SWAP9 JUMPDEST DUP4 DUP2 LT PUSH2 0x60A JUMPI POP POP POP POP DUP4 DUP2 LT PUSH2 0x5EE JUMPI POP DUP7 MLOAD PUSH4 0x95EA7B3 PUSH1 0xE0 SHL DUP2 MSTORE PUSH1 0x1 PUSH1 0x1 PUSH1 0xA0 SHL SUB DUP6 AND DUP2 DUP11 ADD SWAP1 DUP2 MSTORE PUSH1 0x20 DUP2 DUP2 ADD DUP6 SWAP1 MSTORE SWAP1 DUP3 SWAP1 DUP2 SWAP1 PUSH1 0x40 ADD SUB DUP2 DUP11 DUP1 GAS CALL DUP1 ISZERO PUSH2 0x5E4 JUMPI SWAP2 DUP8 SWAP6 SWAP4 SWAP2 PUSH2 0x530 SWAP8 SWAP6 SWAP4 PUSH2 0x5B5 JUMPI JUMPDEST POP DUP9 MLOAD SWAP5 PUSH2 0x4D0 DUP7 PUSH2 0xE64 JUMP JUMPDEST PUSH1 0x2 DUP7 MSTORE DUP10 CALLDATASIZE PUSH1 0x20 DUP9 ADD CALLDATACOPY DUP7 PUSH2 0x4E5 DUP8 PUSH2 0x102D JUMP JUMPDEST MSTORE PUSH2 0x4EF DUP7 PUSH2 0x103A JUMP JUMPDEST MSTORE DUP9 MLOAD DUP1 SWAP8 DUP2 SWAP7 DUP3 SWAP6 PUSH32 0x7FF36AB500000000000000000000000000000000000000000000000000000000 DUP5 MSTORE DUP14 DUP5 ADD MSTORE PUSH1 0x80 PUSH1 0x24 DUP5 ADD MSTORE PUSH1 0x84 DUP4 ADD SWAP1 PUSH2 0x10DA JUMP JUMPDEST CALLER PUSH1 0x44 DUP4 ADD MSTORE PUSH1 0x64 CALLDATALOAD PUSH1 0x64 DUP4 ADD MSTORE SUB SWAP4 AND GAS CALL SWAP1 DUP2 ISZERO PUSH2 0x5AB JUMPI DUP3 SWAP2 PUSH2 0x589 JUMPI JUMPDEST POP DUP1 MLOAD PUSH1 0x0 NOT DUP2 ADD SWAP3 SWAP1 DUP4 GT PUSH2 0x576 JUMPI PUSH1 0x20 DUP5 PUSH2 0x56E DUP6 DUP6 PUSH2 0x104A JUMP JUMPDEST MLOAD SWAP1 MLOAD SWAP1 DUP2 MSTORE RETURN JUMPDEST DUP1 PUSH1 0x11 DUP7 PUSH4 0x4E487B71 PUSH1 0xE0 SHL PUSH1 0x24 SWAP5 MSTORE MSTORE REVERT JUMPDEST PUSH2 0x5A5 SWAP2 POP RETURNDATASIZE DUP1 DUP5 DUP4 RETURNDATACOPY PUSH2 0x59D DUP2 DUP4 PUSH2 0xE80 JUMP JUMPDEST DUP2 ADD SWAP1 PUSH2 0x105E JUMP JUMPDEST DUP5 PUSH2 0x551 JUMP JUMPDEST DUP4 MLOAD RETURNDATASIZE DUP5 DUP3 RETURNDATACOPY RETURNDATASIZE SWAP1 REVERT JUMPDEST PUSH2 0x5D6 SWAP1 PUSH1 0x20 RETURNDATASIZE PUSH1 0x20 GT PUSH2 0x5DD JUMPI JUMPDEST PUSH2 0x5CE DUP2 DUP4 PUSH2 0xE80 JUMP JUMPDEST DUP2 ADD SWAP1 PUSH2 0x1015 JUMP JUMPDEST POP DUP11 PUSH2 0x4C3 JUMP JUMPDEST POP RETURNDATASIZE PUSH2 0x5C4 JUMP JUMPDEST DUP9 MLOAD RETURNDATASIZE DUP10 DUP3 RETURNDATACOPY RETURNDATASIZE SWAP1 REVERT JUMPDEST DUP9 DUP5 PUSH1 0x44 SWAP3 DUP11 MLOAD SWAP3 PUSH4 0xD28D3EB5 PUSH1 0xE0 SHL DUP5 MSTORE DUP4 ADD MSTORE PUSH1 0x24 DUP3 ADD MSTORE REVERT JUMPDEST DUP13 DUP13 DUP1 MLOAD PUSH2 0x617 DUP2 PUSH2 0xE64 JUMP JUMPDEST DUP5 DUP2 MSTORE DUP2 CALLDATASIZE PUSH1 0x20 DUP4 ADD CALLDATACOPY DUP14 PUSH2 0x62B DUP3 PUSH2 0x102D JUMP JUMPDEST MSTORE DUP13 PUSH2 0x636 DUP3 PUSH2 0x103A JUMP JUMPDEST MSTORE DUP14 DUP7 DUP11 DUP13 PUSH2 0x644 DUP9 PUSH2 0xDAB JUMP JUMPDEST SWAP3 SWAP1 SLOAD PUSH1 0x3 SWAP9 PUSH2 0x672 DUP10 MLOAD SWAP9 DUP10 SWAP8 DUP9 SWAP7 DUP8 SWAP5 PUSH4 0xD06CA61F PUSH1 0xE0 SHL DUP7 MSTORE DUP6 ADD MSTORE PUSH1 0x24 SWAP12 DUP13 DUP6 ADD MSTORE DUP4 ADD SWAP1 PUSH2 0x10DA JUMP JUMPDEST SUB SWAP4 DUP10 SHL SHR AND GAS STATICCALL SWAP1 DUP2 ISZERO PUSH2 0x711 JUMPI DUP15 DUP1 SWAP3 PUSH2 0x6F6 JUMPI JUMPDEST POP POP DUP1 MLOAD PUSH1 0x0 NOT DUP2 ADD SWAP3 SWAP1 DUP4 GT PUSH2 0x6E2 JUMPI POP DUP16 SWAP6 SWAP5 SWAP4 SWAP3 SWAP2 PUSH2 0x6AA SWAP2 PUSH2 0x104A JUMP JUMPDEST MLOAD DUP8 DUP2 GT PUSH2 0x6C1 JUMPI JUMPDEST POP POP PUSH1 0x1 ADD SWAP1 SWAP2 SWAP3 POP PUSH2 0x468 JUMP JUMPDEST PUSH1 0x1 SWAP3 SWAP12 POP DUP9 SWAP2 SWAP8 POP SWAP7 PUSH2 0x6D4 DUP13 PUSH2 0xDAB JUMP JUMPDEST SWAP1 SLOAD SWAP2 SHL SHR AND SWAP10 SWAP1 DUP16 PUSH2 0x6B3 JUMP JUMPDEST SWAP1 POP DUP16 PUSH1 0x11 DUP16 SWAP2 PUSH4 0x4E487B71 PUSH1 0xE0 SHL DUP4 MSTORE MSTORE REVERT JUMPDEST PUSH2 0x70A SWAP3 POP RETURNDATASIZE DUP1 SWAP2 DUP4 RETURNDATACOPY PUSH2 0x59D DUP2 DUP4 PUSH2 0xE80 JUMP JUMPDEST CODESIZE DUP15 PUSH2 0x689 JUMP JUMPDEST POP DUP15 MLOAD RETURNDATASIZE DUP16 DUP3 RETURNDATACOPY RETURNDATASIZE SWAP1 REVERT JUMPDEST DUP1 REVERT JUMPDEST DUP4 DUP3 CALLVALUE PUSH2 0x42B JUMPI DUP2 PUSH1 0x3 NOT CALLDATASIZE ADD SLT PUSH2 0x42B JUMPI PUSH1 0x20 SWAP1 PUSH1 0x2 SLOAD SWAP1 MLOAD SWAP1 DUP2 MSTORE RETURN JUMPDEST DUP4 DUP3 CALLVALUE PUSH2 0x42B JUMPI DUP2 PUSH1 0x3 NOT CALLDATASIZE ADD SLT PUSH2 0x42B JUMPI MLOAD SWAP1 DUP2 MSTORE PUSH1 0x20 SWAP1 RETURN JUMPDEST POP DUP3 PUSH1 0xA0 CALLDATASIZE PUSH1 0x3 NOT ADD SLT PUSH2 0x71C JUMPI PUSH2 0x76F PUSH2 0xD95 JUMP JUMPDEST PUSH1 0x24 CALLDATALOAD PUSH2 0x77A PUSH2 0xD7F JUMP JUMPDEST SWAP2 PUSH1 0x64 CALLDATALOAD SWAP2 PUSH2 0x78A DUP5 DUP4 DUP4 PUSH2 0x130C JUMP JUMPDEST SWAP3 SWAP1 DUP5 DUP2 LT PUSH2 0x8CF JUMPI POP PUSH1 0x1 PUSH1 0x1 PUSH1 0xA0 SHL SUB DUP1 SWAP2 AND SWAP5 DUP3 PUSH1 0x20 DUP6 DUP12 PUSH2 0x7D6 DUP13 MLOAD SWAP5 DUP6 SWAP4 DUP5 SWAP4 PUSH4 0x95EA7B3 PUSH1 0xE0 SHL DUP6 MSTORE DUP5 ADD PUSH1 0x20 SWAP1 SWAP4 SWAP3 SWAP2 SWAP4 PUSH1 0x1 PUSH1 0x1 PUSH1 0xA0 SHL SUB PUSH1 0x40 DUP3 ADD SWAP6 AND DUP2 MSTORE ADD MSTORE JUMP JUMPDEST SUB DUP2 DUP12 DUP12 GAS CALL DUP1 ISZERO PUSH2 0x8C5 JUMPI SWAP2 DUP9 SWAP7 SWAP6 SWAP5 SWAP4 SWAP2 DUP8 SWAP4 PUSH2 0x8A6 JUMPI JUMPDEST POP DUP10 MLOAD SWAP8 PUSH2 0x7FD DUP10 PUSH2 0xE64 JUMP JUMPDEST PUSH1 0x2 DUP10 MSTORE DUP11 CALLDATASIZE PUSH1 0x20 DUP12 ADD CALLDATACOPY PUSH2 0x811 DUP10 PUSH2 0x102D JUMP JUMPDEST MSTORE DUP2 PUSH2 0x81C DUP10 PUSH2 0x103A JUMP JUMPDEST SWAP2 AND SWAP1 MSTORE DUP10 PUSH2 0x869 DUP11 MLOAD SWAP9 DUP10 SWAP8 DUP9 SWAP7 DUP8 SWAP5 PUSH32 0x38ED173900000000000000000000000000000000000000000000000000000000 DUP7 MSTORE DUP6 ADD MSTORE PUSH1 0x24 DUP5 ADD MSTORE PUSH1 0xA0 PUSH1 0x44 DUP5 ADD MSTORE PUSH1 0xA4 DUP4 ADD SWAP1 PUSH2 0x10DA JUMP JUMPDEST CALLER PUSH1 0x64 DUP4 ADD MSTORE PUSH1 0x84 CALLDATALOAD PUSH1 0x84 DUP4 ADD MSTORE SUB SWAP4 AND GAS CALL SWAP1 DUP2 ISZERO PUSH2 0x5AB JUMPI DUP3 SWAP2 PUSH2 0x589 JUMPI POP DUP1 MLOAD PUSH1 0x0 NOT DUP2 ADD SWAP3 SWAP1 DUP4 GT PUSH2 0x576 JUMPI PUSH1 0x20 DUP5 PUSH2 0x56E DUP6 DUP6 PUSH2 0x104A JUMP JUMPDEST PUSH2 0x8BE SWAP1 PUSH1 0x20 RETURNDATASIZE PUSH1 0x20 GT PUSH2 0x5DD JUMPI PUSH2 0x5CE DUP2 DUP4 PUSH2 0xE80 JUMP JUMPDEST POP DUP12 PUSH2 0x7F0 JUMP JUMPDEST DUP10 MLOAD RETURNDATASIZE DUP11 DUP3 RETURNDATACOPY RETURNDATASIZE SWAP1 REVERT JUMPDEST DUP9 DUP6 PUSH1 0x44 SWAP3 DUP11 MLOAD SWAP3 PUSH4 0xD28D3EB5 PUSH1 0xE0 SHL DUP5 MSTORE DUP4 ADD MSTORE PUSH1 0x24 DUP3 ADD MSTORE REVERT JUMPDEST POP SWAP1 CALLVALUE PUSH2 0x11B JUMPI DUP2 PUSH1 0x3 NOT CALLDATASIZE ADD SLT PUSH2 0x11B JUMPI DUP2 PUSH1 0x20 SWAP4 PUSH1 0xFF SWAP3 PUSH2 0x90C PUSH2 0xD64 JUMP JUMPDEST SWAP1 CALLDATALOAD DUP3 MSTORE DUP2 DUP7 MSTORE PUSH1 0x1 PUSH1 0x1 PUSH1 0xA0 SHL SUB DUP4 DUP4 KECCAK256 SWAP2 AND DUP3 MSTORE DUP6 MSTORE KECCAK256 SLOAD AND SWAP1 MLOAD SWAP1 ISZERO ISZERO DUP2 MSTORE RETURN JUMPDEST POP DUP3 CALLVALUE PUSH2 0x71C JUMPI PUSH1 0x20 SWAP1 DUP2 PUSH1 0x3 NOT CALLDATASIZE ADD SLT PUSH2 0x71C JUMPI DUP3 PUSH2 0x9CD SWAP2 PUSH1 0x1 PUSH1 0x1 PUSH1 0xA0 SHL SUB PUSH2 0x95A PUSH2 0xD95 JUMP JUMPDEST PUSH1 0x60 DUP7 DUP6 MLOAD PUSH2 0x968 DUP2 PUSH2 0xE32 JUMP JUMPDEST DUP3 DUP2 MSTORE ADD MSTORE AND DUP2 MSTORE PUSH1 0x1 DUP5 MSTORE KECCAK256 SWAP2 DUP4 PUSH2 0x9BA PUSH2 0x99C PUSH1 0x1 DUP4 MLOAD SWAP7 PUSH2 0x98B DUP9 PUSH2 0xE32 JUMP JUMPDEST PUSH2 0x994 DUP2 PUSH2 0xEA2 JUMP JUMPDEST DUP9 MSTORE ADD PUSH2 0xEA2 JUMP JUMPDEST SWAP3 DUP1 DUP7 ADD SWAP4 DUP5 MSTORE DUP3 MLOAD SWAP7 DUP8 SWAP7 DUP3 DUP9 MSTORE MLOAD SWAP2 DUP8 ADD MSTORE PUSH1 0x60 DUP7 ADD SWAP1 PUSH2 0xF47 JUMP JUMPDEST SWAP2 MLOAD SWAP1 PUSH1 0x1F NOT DUP6 DUP5 SUB ADD SWAP1 DUP6 ADD MSTORE PUSH2 0xF47 JUMP JUMPDEST SUB SWAP1 RETURN JUMPDEST DUP4 DUP3 CALLVALUE PUSH2 0x42B JUMPI PUSH1 0x20 CALLDATASIZE PUSH1 0x3 NOT ADD SLT PUSH2 0x42B JUMPI DUP1 SWAP2 PUSH1 0x1 PUSH1 0x1 PUSH1 0xA0 SHL SUB PUSH2 0x9F6 PUSH2 0xD95 JUMP JUMPDEST AND DUP2 MSTORE PUSH1 0x1 PUSH1 0x20 MSTORE KECCAK256 SWAP1 PUSH2 0x9CD PUSH2 0xA18 PUSH1 0x1 PUSH2 0xA11 DUP6 PUSH2 0xEA2 JUMP JUMPDEST SWAP5 ADD PUSH2 0xEA2 JUMP JUMPDEST PUSH2 0xA2B DUP4 MLOAD SWAP5 DUP5 DUP7 SWAP6 DUP7 MSTORE DUP6 ADD SWAP1 PUSH2 0xF47 JUMP JUMPDEST SWAP1 DUP4 DUP3 SUB PUSH1 0x20 DUP6 ADD MSTORE PUSH2 0xF47 JUMP JUMPDEST DUP4 DUP3 CALLVALUE PUSH2 0x42B JUMPI DUP2 PUSH1 0x3 NOT CALLDATASIZE ADD SLT PUSH2 0x42B JUMPI PUSH1 0x20 SWAP1 MLOAD PUSH32 0xA49807205CE4D355092EF5A8A18F56E8913CF4A201FBE287825B095693C21775 DUP2 MSTORE RETURN JUMPDEST POP SWAP1 CALLVALUE PUSH2 0x11B JUMPI PUSH1 0x20 CALLDATASIZE PUSH1 0x3 NOT ADD SLT PUSH2 0x11B JUMPI CALLDATALOAD SWAP2 PUSH1 0x2 SLOAD DUP4 LT ISZERO PUSH2 0x71C JUMPI POP PUSH1 0x1 PUSH1 0x1 PUSH1 0xA0 SHL SUB PUSH2 0xAA7 PUSH1 0x20 SWAP4 PUSH2 0xDAB JUMP JUMPDEST SWAP3 SWAP1 SLOAD SWAP1 MLOAD SWAP3 PUSH1 0x3 SHL SHR AND DUP2 MSTORE RETURN JUMPDEST POP CALLVALUE PUSH2 0x11B JUMPI PUSH1 0x20 CALLDATASIZE PUSH1 0x3 NOT ADD SLT PUSH2 0x11B JUMPI PUSH1 0x1 SWAP2 PUSH2 0xAD3 PUSH2 0xD95 JUMP JUMPDEST SWAP1 PUSH2 0xADC PUSH2 0x115E JUMP JUMPDEST PUSH1 0x1 PUSH1 0x1 PUSH1 0xA0 SHL SUB DUP1 SWAP3 AND DUP1 DUP7 MSTORE PUSH2 0xB05 DUP6 DUP7 SWAP6 DUP2 PUSH1 0x20 MSTORE DUP9 KECCAK256 PUSH2 0xAFF DUP2 PUSH2 0xFCC JUMP JUMPDEST ADD PUSH2 0xFCC JUMP JUMPDEST DUP6 SWAP5 JUMPDEST PUSH2 0xB10 JUMPI DUP6 DUP1 RETURN JUMPDEST PUSH1 0x2 DUP1 SLOAD SWAP1 DUP2 DUP8 LT ISZERO PUSH2 0xBC7 JUMPI DUP5 SWAP2 DUP4 PUSH2 0xB29 DUP10 PUSH2 0xDAB JUMP JUMPDEST SWAP5 SWAP1 SLOAD PUSH1 0x3 SWAP6 DUP7 SHL SHR AND EQ PUSH2 0xB45 JUMPI POP POP POP DUP4 DUP1 SWAP6 ADD SWAP5 PUSH2 0xB08 JUMP JUMPDEST SWAP4 SWAP3 POP SWAP5 POP SWAP5 PUSH1 0x0 NOT SWAP3 DUP4 DUP2 ADD SWAP1 DUP2 GT PUSH2 0xBB4 JUMPI SWAP1 PUSH2 0x28D DUP6 PUSH2 0xB6A PUSH2 0xB77 SWAP5 PUSH2 0xDAB JUMP JUMPDEST SWAP1 SLOAD SWAP1 DUP11 SHL SHR AND SWAP2 PUSH2 0xDAB JUMP JUMPDEST DUP4 SLOAD SWAP1 DUP2 ISZERO PUSH2 0xBA1 JUMPI POP ADD SWAP3 PUSH2 0xB8C DUP5 PUSH2 0xDAB JUMP JUMPDEST DUP2 SWAP4 SWAP2 SLOAD SWAP3 SHL SHL NOT AND SWAP1 SSTORE SSTORE CODESIZE DUP1 DUP1 DUP1 DUP1 DUP6 DUP1 RETURN JUMPDEST DUP7 PUSH1 0x31 PUSH1 0x24 SWAP3 PUSH4 0x4E487B71 PUSH1 0xE0 SHL DUP4 MSTORE MSTORE REVERT JUMPDEST PUSH1 0x24 DUP9 PUSH1 0x11 DUP6 PUSH4 0x4E487B71 PUSH1 0xE0 SHL DUP4 MSTORE MSTORE REVERT JUMPDEST POP POP DUP6 DUP1 RETURN JUMPDEST POP SWAP2 CALLVALUE PUSH2 0x71C JUMPI PUSH1 0x60 CALLDATASIZE PUSH1 0x3 NOT ADD SLT PUSH2 0x71C JUMPI POP PUSH2 0xC04 PUSH1 0x1 PUSH1 0x1 PUSH1 0xA0 SHL SUB SWAP2 PUSH2 0xBF5 PUSH2 0xD64 JUMP JUMPDEST PUSH2 0xBFD PUSH2 0xD7F JUMP JUMPDEST SWAP2 CALLDATALOAD PUSH2 0x130C JUMP JUMPDEST DUP4 MLOAD SWAP2 DUP3 MSTORE SWAP1 SWAP2 AND PUSH1 0x20 DUP3 ADD MSTORE RETURN JUMPDEST POP DUP3 SWAP1 CALLVALUE PUSH2 0x42B JUMPI DUP1 PUSH1 0x3 NOT CALLDATASIZE ADD SLT PUSH2 0x42B JUMPI PUSH2 0xC2E PUSH2 0xD64 JUMP JUMPDEST SWAP1 CALLER PUSH1 0x1 PUSH1 0x1 PUSH1 0xA0 SHL SUB DUP4 AND SUB PUSH2 0xC4B JUMPI POP PUSH2 0x117 SWAP2 SWAP3 CALLDATALOAD PUSH2 0x1296 JUMP JUMPDEST DUP4 SWAP1 MLOAD PUSH32 0x6697B23200000000000000000000000000000000000000000000000000000000 DUP2 MSTORE REVERT JUMPDEST POP CALLVALUE PUSH2 0x11B JUMPI DUP1 PUSH1 0x3 NOT CALLDATASIZE ADD SLT PUSH2 0x11B JUMPI PUSH2 0x117 SWAP2 CALLDATALOAD PUSH2 0xC96 PUSH1 0x1 PUSH2 0x101 PUSH2 0xD64 JUMP JUMPDEST PUSH2 0x1217 JUMP JUMPDEST POP SWAP1 CALLVALUE PUSH2 0x11B JUMPI PUSH1 0x20 CALLDATASIZE PUSH1 0x3 NOT ADD SLT PUSH2 0x11B JUMPI DUP2 PUSH1 0x20 SWAP4 PUSH1 0x1 SWAP3 CALLDATALOAD DUP2 MSTORE DUP1 DUP6 MSTORE KECCAK256 ADD SLOAD SWAP1 MLOAD SWAP1 DUP2 MSTORE RETURN JUMPDEST DUP5 SWAP1 DUP5 CALLVALUE PUSH2 0x11B JUMPI PUSH1 0x20 CALLDATASIZE PUSH1 0x3 NOT ADD SLT PUSH2 0x11B JUMPI CALLDATALOAD PUSH32 0xFFFFFFFF00000000000000000000000000000000000000000000000000000000 DUP2 AND DUP1 SWAP2 SUB PUSH2 0x11B JUMPI PUSH1 0x20 SWAP3 POP PUSH32 0x7965DB0B00000000000000000000000000000000000000000000000000000000 DUP2 EQ SWAP1 DUP2 ISZERO PUSH2 0xD3A JUMPI JUMPDEST POP ISZERO ISZERO DUP2 MSTORE RETURN JUMPDEST PUSH32 0x1FFC9A700000000000000000000000000000000000000000000000000000000 SWAP2 POP EQ DUP4 PUSH2 0xD33 JUMP JUMPDEST PUSH1 0x24 CALLDATALOAD SWAP1 PUSH1 0x1 PUSH1 0x1 PUSH1 0xA0 SHL SUB DUP3 AND DUP3 SUB PUSH2 0xD7A JUMPI JUMP JUMPDEST PUSH1 0x0 DUP1 REVERT JUMPDEST PUSH1 0x44 CALLDATALOAD SWAP1 PUSH1 0x1 PUSH1 0x1 PUSH1 0xA0 SHL SUB DUP3 AND DUP3 SUB PUSH2 0xD7A JUMPI JUMP JUMPDEST PUSH1 0x4 CALLDATALOAD SWAP1 PUSH1 0x1 PUSH1 0x1 PUSH1 0xA0 SHL SUB DUP3 AND DUP3 SUB PUSH2 0xD7A JUMPI JUMP JUMPDEST PUSH1 0x2 SLOAD DUP2 LT ISZERO PUSH2 0xDE2 JUMPI PUSH1 0x2 PUSH1 0x0 MSTORE PUSH32 0x405787FA12A823E0F2B7631CC41B3BA8828B3321CA811111FA75CD3AA3BB5ACE ADD SWAP1 PUSH1 0x0 SWAP1 JUMP JUMPDEST PUSH4 0x4E487B71 PUSH1 0xE0 SHL PUSH1 0x0 MSTORE PUSH1 0x32 PUSH1 0x4 MSTORE PUSH1 0x24 PUSH1 0x0 REVERT JUMPDEST SWAP1 PUSH1 0x1 DUP3 DUP2 SHR SWAP3 AND DUP1 ISZERO PUSH2 0xE28 JUMPI JUMPDEST PUSH1 0x20 DUP4 LT EQ PUSH2 0xE12 JUMPI JUMP JUMPDEST PUSH4 0x4E487B71 PUSH1 0xE0 SHL PUSH1 0x0 MSTORE PUSH1 0x22 PUSH1 0x4 MSTORE PUSH1 0x24 PUSH1 0x0 REVERT JUMPDEST SWAP2 PUSH1 0x7F AND SWAP2 PUSH2 0xE07 JUMP JUMPDEST PUSH1 0x40 DUP2 ADD SWAP1 DUP2 LT PUSH8 0xFFFFFFFFFFFFFFFF DUP3 GT OR PUSH2 0xE4E JUMPI PUSH1 0x40 MSTORE JUMP JUMPDEST PUSH4 0x4E487B71 PUSH1 0xE0 SHL PUSH1 0x0 MSTORE PUSH1 0x41 PUSH1 0x4 MSTORE PUSH1 0x24 PUSH1 0x0 REVERT JUMPDEST PUSH1 0x60 DUP2 ADD SWAP1 DUP2 LT PUSH8 0xFFFFFFFFFFFFFFFF DUP3 GT OR PUSH2 0xE4E JUMPI PUSH1 0x40 MSTORE JUMP JUMPDEST SWAP1 PUSH1 0x1F DUP1 NOT SWAP2 ADD AND DUP2 ADD SWAP1 DUP2 LT PUSH8 0xFFFFFFFFFFFFFFFF DUP3 GT OR PUSH2 0xE4E JUMPI PUSH1 0x40 MSTORE JUMP JUMPDEST SWAP1 PUSH1 0x40 MLOAD SWAP2 DUP3 PUSH1 0x0 DUP3 SLOAD PUSH2 0xEB5 DUP2 PUSH2 0xDF8 JUMP JUMPDEST SWAP1 DUP2 DUP5 MSTORE PUSH1 0x20 SWAP5 PUSH1 0x1 SWAP2 PUSH1 0x1 DUP2 AND SWAP1 DUP2 PUSH1 0x0 EQ PUSH2 0xF25 JUMPI POP PUSH1 0x1 EQ PUSH2 0xEE6 JUMPI JUMPDEST POP POP POP PUSH2 0xEE4 SWAP3 POP SUB DUP4 PUSH2 0xE80 JUMP JUMPDEST JUMP JUMPDEST PUSH1 0x0 SWAP1 DUP2 MSTORE DUP6 DUP2 KECCAK256 SWAP6 SWAP4 POP SWAP2 SWAP1 JUMPDEST DUP2 DUP4 LT PUSH2 0xF0D JUMPI POP POP PUSH2 0xEE4 SWAP4 POP DUP3 ADD ADD CODESIZE DUP1 DUP1 PUSH2 0xED5 JUMP JUMPDEST DUP6 SLOAD DUP9 DUP5 ADD DUP6 ADD MSTORE SWAP5 DUP6 ADD SWAP5 DUP8 SWAP5 POP SWAP2 DUP4 ADD SWAP2 PUSH2 0xEF4 JUMP JUMPDEST SWAP3 POP POP POP PUSH2 0xEE4 SWAP5 SWAP3 POP PUSH1 0xFF NOT AND DUP3 DUP5 ADD MSTORE ISZERO ISZERO PUSH1 0x5 SHL DUP3 ADD ADD CODESIZE DUP1 DUP1 PUSH2 0xED5 JUMP JUMPDEST SWAP2 SWAP1 DUP3 MLOAD SWAP3 DUP4 DUP3 MSTORE PUSH1 0x0 JUMPDEST DUP5 DUP2 LT PUSH2 0xF73 JUMPI POP POP DUP3 PUSH1 0x0 PUSH1 0x20 DUP1 SWAP5 SWAP6 DUP5 ADD ADD MSTORE PUSH1 0x1F DUP1 NOT SWAP2 ADD AND ADD ADD SWAP1 JUMP JUMPDEST PUSH1 0x20 DUP2 DUP4 ADD DUP2 ADD MLOAD DUP5 DUP4 ADD DUP3 ADD MSTORE ADD PUSH2 0xF52 JUMP JUMPDEST SWAP2 DUP2 PUSH1 0x1F DUP5 ADD SLT ISZERO PUSH2 0xD7A JUMPI DUP3 CALLDATALOAD SWAP2 PUSH8 0xFFFFFFFFFFFFFFFF DUP4 GT PUSH2 0xD7A JUMPI PUSH1 0x20 DUP4 DUP2 DUP7 ADD SWAP6 ADD ADD GT PUSH2 0xD7A JUMPI JUMP JUMPDEST DUP2 DUP2 LT PUSH2 0xFC0 JUMPI POP POP JUMP JUMPDEST PUSH1 0x0 DUP2 SSTORE PUSH1 0x1 ADD PUSH2 0xFB5 JUMP JUMPDEST PUSH2 0xFD6 DUP2 SLOAD PUSH2 0xDF8 JUMP JUMPDEST SWAP1 DUP2 PUSH2 0xFE0 JUMPI POP POP JUMP JUMPDEST DUP2 PUSH1 0x1F PUSH1 0x0 SWAP4 GT PUSH1 0x1 EQ PUSH2 0xFF2 JUMPI POP SSTORE JUMP JUMPDEST SWAP1 DUP1 DUP4 SWAP2 DUP3 MSTORE PUSH2 0x1011 PUSH1 0x1F PUSH1 0x20 DUP5 KECCAK256 SWAP5 ADD PUSH1 0x5 SHR DUP5 ADD PUSH1 0x1 DUP6 ADD PUSH2 0xFB5 JUMP JUMPDEST SSTORE SSTORE JUMP JUMPDEST SWAP1 DUP2 PUSH1 0x20 SWAP2 SUB SLT PUSH2 0xD7A JUMPI MLOAD DUP1 ISZERO ISZERO DUP2 SUB PUSH2 0xD7A JUMPI SWAP1 JUMP JUMPDEST DUP1 MLOAD ISZERO PUSH2 0xDE2 JUMPI PUSH1 0x20 ADD SWAP1 JUMP JUMPDEST DUP1 MLOAD PUSH1 0x1 LT ISZERO PUSH2 0xDE2 JUMPI PUSH1 0x40 ADD SWAP1 JUMP JUMPDEST DUP1 MLOAD DUP3 LT ISZERO PUSH2 0xDE2 JUMPI PUSH1 0x20 SWAP2 PUSH1 0x5 SHL ADD ADD SWAP1 JUMP JUMPDEST SWAP1 PUSH1 0x20 SWAP1 DUP2 DUP4 DUP3 SUB SLT PUSH2 0xD7A JUMPI DUP3 MLOAD PUSH8 0xFFFFFFFFFFFFFFFF SWAP4 DUP5 DUP3 GT PUSH2 0xD7A JUMPI ADD DUP2 PUSH1 0x1F DUP3 ADD SLT ISZERO PUSH2 0xD7A JUMPI DUP1 MLOAD SWAP4 DUP5 GT PUSH2 0xE4E JUMPI DUP4 PUSH1 0x5 SHL SWAP1 PUSH1 0x40 MLOAD SWAP5 PUSH2 0x10A8 DUP6 DUP5 ADD DUP8 PUSH2 0xE80 JUMP JUMPDEST DUP6 MSTORE DUP4 DUP1 DUP7 ADD SWAP3 DUP3 ADD ADD SWAP3 DUP4 GT PUSH2 0xD7A JUMPI DUP4 ADD SWAP1 JUMPDEST DUP3 DUP3 LT PUSH2 0x10CB JUMPI POP POP POP POP SWAP1 JUMP JUMPDEST DUP2 MLOAD DUP2 MSTORE SWAP1 DUP4 ADD SWAP1 DUP4 ADD PUSH2 0x10BD JUMP JUMPDEST SWAP1 DUP2 MLOAD DUP1 DUP3 MSTORE PUSH1 0x20 DUP1 DUP1 SWAP4 ADD SWAP4 ADD SWAP2 PUSH1 0x0 JUMPDEST DUP3 DUP2 LT PUSH2 0x10FA JUMPI POP POP POP POP SWAP1 JUMP JUMPDEST DUP4 MLOAD PUSH1 0x1 PUSH1 0x1 PUSH1 0xA0 SHL SUB AND DUP6 MSTORE SWAP4 DUP2 ADD SWAP4 SWAP3 DUP2 ADD SWAP3 PUSH1 0x1 ADD PUSH2 0x10EC JUMP JUMPDEST SWAP3 SWAP2 SWAP3 PUSH8 0xFFFFFFFFFFFFFFFF DUP3 GT PUSH2 0xE4E JUMPI PUSH1 0x40 MLOAD SWAP2 PUSH2 0x1141 PUSH1 0x1F DUP3 ADD PUSH1 0x1F NOT AND PUSH1 0x20 ADD DUP5 PUSH2 0xE80 JUMP JUMPDEST DUP3 SWAP5 DUP2 DUP5 MSTORE DUP2 DUP4 ADD GT PUSH2 0xD7A JUMPI DUP3 DUP2 PUSH1 0x20 SWAP4 DUP5 PUSH1 0x0 SWAP7 ADD CALLDATACOPY ADD ADD MSTORE JUMP JUMPDEST CALLER PUSH1 0x0 SWAP1 DUP2 MSTORE PUSH32 0x7D7FFB7A348E1C6A02869081A26547B49160DD3DF72D1D75A570EB9B698292EC PUSH1 0x20 MSTORE PUSH1 0x40 SWAP1 KECCAK256 SLOAD PUSH32 0xA49807205CE4D355092EF5A8A18F56E8913CF4A201FBE287825B095693C21775 SWAP1 PUSH1 0xFF AND ISZERO PUSH2 0x11BA JUMPI POP JUMP JUMPDEST PUSH1 0x44 SWAP1 PUSH1 0x40 MLOAD SWAP1 PUSH32 0xE2517D3F00000000000000000000000000000000000000000000000000000000 DUP3 MSTORE CALLER PUSH1 0x4 DUP4 ADD MSTORE PUSH1 0x24 DUP3 ADD MSTORE REVERT JUMPDEST DUP1 PUSH1 0x0 MSTORE PUSH1 0x0 PUSH1 0x20 MSTORE PUSH1 0x40 PUSH1 0x0 KECCAK256 CALLER PUSH1 0x0 MSTORE PUSH1 0x20 MSTORE PUSH1 0xFF PUSH1 0x40 PUSH1 0x0 KECCAK256 SLOAD AND ISZERO PUSH2 0x11BA JUMPI POP JUMP JUMPDEST SWAP1 PUSH1 0x0 SWAP2 DUP1 DUP4 MSTORE DUP3 PUSH1 0x20 MSTORE PUSH1 0x1 PUSH1 0x1 PUSH1 0xA0 SHL SUB PUSH1 0x40 DUP5 KECCAK256 SWAP3 AND SWAP2 DUP3 DUP5 MSTORE PUSH1 0x20 MSTORE PUSH1 0xFF PUSH1 0x40 DUP5 KECCAK256 SLOAD AND ISZERO PUSH1 0x0 EQ PUSH2 0x1291 JUMPI DUP1 DUP4 MSTORE DUP3 PUSH1 0x20 MSTORE PUSH1 0x40 DUP4 KECCAK256 DUP3 DUP5 MSTORE PUSH1 0x20 MSTORE PUSH1 0x40 DUP4 KECCAK256 PUSH1 0x1 PUSH1 0xFF NOT DUP3 SLOAD AND OR SWAP1 SSTORE PUSH32 0x2F8788117E7EFF1D82E926EC794901D17C78024A50270940304540A733656F0D CALLER SWAP4 DUP1 LOG4 PUSH1 0x1 SWAP1 JUMP JUMPDEST POP POP SWAP1 JUMP JUMPDEST SWAP1 PUSH1 0x0 SWAP2 DUP1 DUP4 MSTORE DUP3 PUSH1 0x20 MSTORE PUSH1 0x1 PUSH1 0x1 PUSH1 0xA0 SHL SUB PUSH1 0x40 DUP5 KECCAK256 SWAP3 AND SWAP2 DUP3 DUP5 MSTORE PUSH1 0x20 MSTORE PUSH1 0xFF PUSH1 0x40 DUP5 KECCAK256 SLOAD AND PUSH1 0x0 EQ PUSH2 0x1291 JUMPI DUP1 DUP4 MSTORE DUP3 PUSH1 0x20 MSTORE PUSH1 0x40 DUP4 KECCAK256 DUP3 DUP5 MSTORE PUSH1 0x20 MSTORE PUSH1 0x40 DUP4 KECCAK256 PUSH1 0xFF NOT DUP2 SLOAD AND SWAP1 SSTORE PUSH32 0xF6391F5C32D9C69D2A47EA670B442974B53935D1EDC7FD64EB21E047A839171B CALLER SWAP4 DUP1 LOG4 PUSH1 0x1 SWAP1 JUMP JUMPDEST PUSH1 0x2 DUP1 SLOAD PUSH1 0x0 SWAP6 SWAP5 DUP7 SWAP5 SWAP2 SWAP3 DUP6 JUMPDEST DUP5 DUP2 LT PUSH2 0x132B JUMPI POP POP POP POP POP POP SWAP2 SWAP1 JUMP JUMPDEST PUSH1 0x0 PUSH1 0x40 DUP8 DUP2 MLOAD SWAP2 PUSH2 0x133C DUP4 PUSH2 0xE64 JUMP JUMPDEST DUP6 DUP4 MSTORE DUP1 CALLDATASIZE PUSH1 0x20 DUP6 ADD CALLDATACOPY PUSH2 0x134F DUP4 PUSH2 0x102D JUMP JUMPDEST SWAP3 PUSH1 0x1 PUSH1 0x1 PUSH1 0xA0 SHL SUB SWAP4 DUP5 DUP11 AND SWAP1 MSTORE PUSH2 0x1367 DUP2 PUSH2 0x103A JUMP JUMPDEST DUP5 DUP10 AND SWAP1 MSTORE DUP4 PUSH2 0x1376 DUP8 PUSH2 0xDAB JUMP JUMPDEST SWAP7 SWAP1 SLOAD PUSH1 0x3 SWAP8 DUP6 MLOAD DUP1 SWAP5 DUP2 SWAP4 PUSH4 0xD06CA61F PUSH1 0xE0 SHL DUP4 MSTORE PUSH1 0x4 SWAP10 DUP11 DUP5 ADD MSTORE DUP3 PUSH2 0x13A9 PUSH1 0x24 SWAP10 DUP12 DUP12 DUP5 ADD MSTORE PUSH1 0x44 DUP4 ADD SWAP1 PUSH2 0x10DA JUMP JUMPDEST SUB SWAP4 DUP13 SHL SHR AND GAS STATICCALL SWAP3 DUP4 ISZERO PUSH2 0x1441 JUMPI POP PUSH1 0x0 SWAP3 PUSH2 0x1426 JUMPI JUMPDEST POP DUP2 MLOAD PUSH1 0x0 NOT DUP2 ADD SWAP4 SWAP1 DUP5 GT PUSH2 0x1413 JUMPI POP POP SWAP1 PUSH2 0x13DD SWAP2 PUSH2 0x104A JUMP JUMPDEST MLOAD DUP10 DUP2 GT PUSH2 0x13F1 JUMPI JUMPDEST POP POP POP PUSH1 0x1 ADD PUSH2 0x131A JUMP JUMPDEST SWAP1 SWAP2 SWAP9 POP PUSH1 0x1 SWAP3 SWAP11 POP SWAP8 PUSH2 0x1404 DUP12 PUSH2 0xDAB JUMP JUMPDEST SWAP1 SLOAD SWAP2 SHL SHR AND SWAP9 SWAP1 CODESIZE DUP1 PUSH2 0x13E6 JUMP JUMPDEST PUSH1 0x11 SWAP1 PUSH4 0x4E487B71 PUSH1 0xE0 SHL PUSH1 0x0 MSTORE MSTORE PUSH1 0x0 REVERT JUMPDEST PUSH2 0x143A SWAP2 SWAP3 RETURNDATASIZE DUP1 SWAP2 DUP4 RETURNDATACOPY PUSH2 0x59D DUP2 DUP4 PUSH2 0xE80 JUMP JUMPDEST SWAP1 CODESIZE PUSH2 0x13C1 JUMP JUMPDEST MLOAD RETURNDATASIZE PUSH1 0x0 DUP3 RETURNDATACOPY RETURNDATASIZE SWAP1 REVERT INVALID LOG2 PUSH5 0x6970667358 0x22 SLT KECCAK256 JUMPI 0xBC DELEGATECALL 0xD4 0x4B 0xA8 0xF8 BASEFEE STOP SWAP12 DUP11 PUSH12 0x5A061958E16717D8AE4AA817 SAR PUSH11 0x408F9857297E64736F6C63 NUMBER STOP ADDMOD XOR STOP CALLER 0x2F DUP8 DUP9 GT PUSH31 0x7EFF1D82E926EC794901D17C78024A50270940304540A733656F0D00000000 "
        },
        "methodIdentifiers": {
          "ADMIN_ROLE()": "75b238fc",
          "DEFAULT_ADMIN_ROLE()": "a217fddf",
          "addRouter(string,string,address)": "b89eb11d",
          "bestRouter(uint256,address,address)": "61ee1031",
          "getRoleAdmin(bytes32)": "248a9ca3",
          "getRouter(address)": "8369166d",
          "getRouterCount()": "a5be5f7a",
          "grantRole(bytes32,address)": "2f2ff15d",
          "hasRole(bytes32,address)": "91d14854",
          "removeRouter(address)": "6ae0b154",
          "renounceRole(bytes32,address)": "36568abe",
          "revokeRole(bytes32,address)": "d547741f",
          "routerIds(uint256)": "6ee4035d",
          "routers(address)": "80dd9a1f",
          "supportsInterface(bytes4)": "01ffc9a7",
          "swapETHToTokens(uint256,address,uint256,uint256)": "a6b97e27",
          "swapTokensToTokens(address,uint256,address,uint256,uint256)": "a1e83209"
        }
      }
    }
  }
}