{
  "contracts/src/pools/HoneyERC20Pool.sol": {
    "HoneyERC20Pool": {
      "abi": [
        {
          "inputs": [
            {
              "internalType": "address",
              "name": "_token",
              "type": "address"
            }
          ],
          "stateMutability": "nonpayable",
          "type": "constructor"
        },
        {
          "inputs": [],
          "name": "AccessControlBadConfirmation",
          "type": "error"
        },
        {
          "inputs": [
            {
              "internalType": "address",
              "name": "account",
              "type": "address"
            },
            {
              "internalType": "bytes32",
              "name": "neededRole",
              "type": "bytes32"
            }
          ],
          "name": "AccessControlUnauthorizedAccount",
          "type": "error"
        },
        {
          "inputs": [
            {
              "internalType": "address",
              "name": "target",
              "type": "address"
            }
          ],
          "name": "AddressEmptyCode",
          "type": "error"
        },
        {
          "inputs": [
            {
              "internalType": "address",
              "name": "account",
              "type": "address"
            }
          ],
          "name": "AddressInsufficientBalance",
          "type": "error"
        },
        {
          "inputs": [],
          "name": "AmountInIsZero",
          "type": "error"
        },
        {
          "inputs": [
            {
              "internalType": "address",
              "name": "spender",
              "type": "address"
            },
            {
              "internalType": "uint256",
              "name": "allowance",
              "type": "uint256"
            },
            {
              "internalType": "uint256",
              "name": "needed",
              "type": "uint256"
            }
          ],
          "name": "ERC20InsufficientAllowance",
          "type": "error"
        },
        {
          "inputs": [
            {
              "internalType": "address",
              "name": "sender",
              "type": "address"
            },
            {
              "internalType": "uint256",
              "name": "balance",
              "type": "uint256"
            },
            {
              "internalType": "uint256",
              "name": "needed",
              "type": "uint256"
            }
          ],
          "name": "ERC20InsufficientBalance",
          "type": "error"
        },
        {
          "inputs": [
            {
              "internalType": "address",
              "name": "approver",
              "type": "address"
            }
          ],
          "name": "ERC20InvalidApprover",
          "type": "error"
        },
        {
          "inputs": [
            {
              "internalType": "address",
              "name": "receiver",
              "type": "address"
            }
          ],
          "name": "ERC20InvalidReceiver",
          "type": "error"
        },
        {
          "inputs": [
            {
              "internalType": "address",
              "name": "sender",
              "type": "address"
            }
          ],
          "name": "ERC20InvalidSender",
          "type": "error"
        },
        {
          "inputs": [
            {
              "internalType": "address",
              "name": "spender",
              "type": "address"
            }
          ],
          "name": "ERC20InvalidSpender",
          "type": "error"
        },
        {
          "inputs": [],
          "name": "FailedInnerCall",
          "type": "error"
        },
        {
          "inputs": [
            {
              "internalType": "address",
              "name": "token",
              "type": "address"
            }
          ],
          "name": "SafeERC20FailedOperation",
          "type": "error"
        },
        {
          "anonymous": false,
          "inputs": [
            {
              "indexed": true,
              "internalType": "address",
              "name": "owner",
              "type": "address"
            },
            {
              "indexed": true,
              "internalType": "address",
              "name": "spender",
              "type": "address"
            },
            {
              "indexed": false,
              "internalType": "uint256",
              "name": "value",
              "type": "uint256"
            }
          ],
          "name": "Approval",
          "type": "event"
        },
        {
          "anonymous": false,
          "inputs": [
            {
              "indexed": true,
              "internalType": "bytes32",
              "name": "role",
              "type": "bytes32"
            },
            {
              "indexed": true,
              "internalType": "bytes32",
              "name": "previousAdminRole",
              "type": "bytes32"
            },
            {
              "indexed": true,
              "internalType": "bytes32",
              "name": "newAdminRole",
              "type": "bytes32"
            }
          ],
          "name": "RoleAdminChanged",
          "type": "event"
        },
        {
          "anonymous": false,
          "inputs": [
            {
              "indexed": true,
              "internalType": "bytes32",
              "name": "role",
              "type": "bytes32"
            },
            {
              "indexed": true,
              "internalType": "address",
              "name": "account",
              "type": "address"
            },
            {
              "indexed": true,
              "internalType": "address",
              "name": "sender",
              "type": "address"
            }
          ],
          "name": "RoleGranted",
          "type": "event"
        },
        {
          "anonymous": false,
          "inputs": [
            {
              "indexed": true,
              "internalType": "bytes32",
              "name": "role",
              "type": "bytes32"
            },
            {
              "indexed": true,
              "internalType": "address",
              "name": "account",
              "type": "address"
            },
            {
              "indexed": true,
              "internalType": "address",
              "name": "sender",
              "type": "address"
            }
          ],
          "name": "RoleRevoked",
          "type": "event"
        },
        {
          "anonymous": false,
          "inputs": [
            {
              "indexed": true,
              "internalType": "address",
              "name": "from",
              "type": "address"
            },
            {
              "indexed": true,
              "internalType": "address",
              "name": "to",
              "type": "address"
            },
            {
              "indexed": false,
              "internalType": "uint256",
              "name": "value",
              "type": "uint256"
            }
          ],
          "name": "Transfer",
          "type": "event"
        },
        {
          "inputs": [],
          "name": "ADMIN_ROLE",
          "outputs": [
            {
              "internalType": "bytes32",
              "name": "",
              "type": "bytes32"
            }
          ],
          "stateMutability": "view",
          "type": "function"
        },
        {
          "inputs": [],
          "name": "DEFAULT_ADMIN_ROLE",
          "outputs": [
            {
              "internalType": "bytes32",
              "name": "",
              "type": "bytes32"
            }
          ],
          "stateMutability": "view",
          "type": "function"
        },
        {
          "inputs": [
            {
              "internalType": "uint256",
              "name": "amount",
              "type": "uint256"
            }
          ],
          "name": "addLiquidity",
          "outputs": [],
          "stateMutability": "nonpayable",
          "type": "function"
        },
        {
          "inputs": [
            {
              "internalType": "address",
              "name": "owner",
              "type": "address"
            },
            {
              "internalType": "address",
              "name": "spender",
              "type": "address"
            }
          ],
          "name": "allowance",
          "outputs": [
            {
              "internalType": "uint256",
              "name": "",
              "type": "uint256"
            }
          ],
          "stateMutability": "view",
          "type": "function"
        },
        {
          "inputs": [
            {
              "internalType": "address",
              "name": "spender",
              "type": "address"
            },
            {
              "internalType": "uint256",
              "name": "value",
              "type": "uint256"
            }
          ],
          "name": "approve",
          "outputs": [
            {
              "internalType": "bool",
              "name": "",
              "type": "bool"
            }
          ],
          "stateMutability": "nonpayable",
          "type": "function"
        },
        {
          "inputs": [
            {
              "internalType": "address",
              "name": "account",
              "type": "address"
            }
          ],
          "name": "balanceOf",
          "outputs": [
            {
              "internalType": "uint256",
              "name": "",
              "type": "uint256"
            }
          ],
          "stateMutability": "view",
          "type": "function"
        },
        {
          "inputs": [],
          "name": "decimals",
          "outputs": [
            {
              "internalType": "uint8",
              "name": "",
              "type": "uint8"
            }
          ],
          "stateMutability": "view",
          "type": "function"
        },
        {
          "inputs": [
            {
              "internalType": "uint256",
              "name": "amount",
              "type": "uint256"
            }
          ],
          "name": "deposit",
          "outputs": [],
          "stateMutability": "nonpayable",
          "type": "function"
        },
        {
          "inputs": [
            {
              "internalType": "bytes32",
              "name": "role",
              "type": "bytes32"
            }
          ],
          "name": "getRoleAdmin",
          "outputs": [
            {
              "internalType": "bytes32",
              "name": "",
              "type": "bytes32"
            }
          ],
          "stateMutability": "view",
          "type": "function"
        },
        {
          "inputs": [
            {
              "internalType": "bytes32",
              "name": "role",
              "type": "bytes32"
            },
            {
              "internalType": "address",
              "name": "account",
              "type": "address"
            }
          ],
          "name": "grantRole",
          "outputs": [],
          "stateMutability": "nonpayable",
          "type": "function"
        },
        {
          "inputs": [
            {
              "internalType": "bytes32",
              "name": "role",
              "type": "bytes32"
            },
            {
              "internalType": "address",
              "name": "account",
              "type": "address"
            }
          ],
          "name": "hasRole",
          "outputs": [
            {
              "internalType": "bool",
              "name": "",
              "type": "bool"
            }
          ],
          "stateMutability": "view",
          "type": "function"
        },
        {
          "inputs": [],
          "name": "name",
          "outputs": [
            {
              "internalType": "string",
              "name": "",
              "type": "string"
            }
          ],
          "stateMutability": "view",
          "type": "function"
        },
        {
          "inputs": [
            {
              "internalType": "uint256",
              "name": "lpTokens",
              "type": "uint256"
            },
            {
              "internalType": "uint256",
              "name": "secondaryChainSelector",
              "type": "uint256"
            }
          ],
          "name": "removeLiquidity",
          "outputs": [],
          "stateMutability": "payable",
          "type": "function"
        },
        {
          "inputs": [
            {
              "internalType": "bytes32",
              "name": "role",
              "type": "bytes32"
            },
            {
              "internalType": "address",
              "name": "callerConfirmation",
              "type": "address"
            }
          ],
          "name": "renounceRole",
          "outputs": [],
          "stateMutability": "nonpayable",
          "type": "function"
        },
        {
          "inputs": [
            {
              "internalType": "bytes32",
              "name": "role",
              "type": "bytes32"
            },
            {
              "internalType": "address",
              "name": "account",
              "type": "address"
            }
          ],
          "name": "revokeRole",
          "outputs": [],
          "stateMutability": "nonpayable",
          "type": "function"
        },
        {
          "inputs": [
            {
              "internalType": "bytes4",
              "name": "interfaceId",
              "type": "bytes4"
            }
          ],
          "name": "supportsInterface",
          "outputs": [
            {
              "internalType": "bool",
              "name": "",
              "type": "bool"
            }
          ],
          "stateMutability": "view",
          "type": "function"
        },
        {
          "inputs": [],
          "name": "symbol",
          "outputs": [
            {
              "internalType": "string",
              "name": "",
              "type": "string"
            }
          ],
          "stateMutability": "view",
          "type": "function"
        },
        {
          "inputs": [],
          "name": "token",
          "outputs": [
            {
              "internalType": "address",
              "name": "",
              "type": "address"
            }
          ],
          "stateMutability": "view",
          "type": "function"
        },
        {
          "inputs": [],
          "name": "totalReserves",
          "outputs": [
            {
              "internalType": "uint256",
              "name": "",
              "type": "uint256"
            }
          ],
          "stateMutability": "view",
          "type": "function"
        },
        {
          "inputs": [],
          "name": "totalSupply",
          "outputs": [
            {
              "internalType": "uint256",
              "name": "",
              "type": "uint256"
            }
          ],
          "stateMutability": "view",
          "type": "function"
        },
        {
          "inputs": [
            {
              "internalType": "address",
              "name": "to",
              "type": "address"
            },
            {
              "internalType": "uint256",
              "name": "value",
              "type": "uint256"
            }
          ],
          "name": "transfer",
          "outputs": [
            {
              "internalType": "bool",
              "name": "",
              "type": "bool"
            }
          ],
          "stateMutability": "nonpayable",
          "type": "function"
        },
        {
          "inputs": [
            {
              "internalType": "address",
              "name": "from",
              "type": "address"
            },
            {
              "internalType": "address",
              "name": "to",
              "type": "address"
            },
            {
              "internalType": "uint256",
              "name": "value",
              "type": "uint256"
            }
          ],
          "name": "transferFrom",
          "outputs": [
            {
              "internalType": "bool",
              "name": "",
              "type": "bool"
            }
          ],
          "stateMutability": "nonpayable",
          "type": "function"
        },
        {
          "inputs": [
            {
              "internalType": "uint256",
              "name": "amount",
              "type": "uint256"
            },
            {
              "internalType": "address",
              "name": "to",
              "type": "address"
            }
          ],
          "name": "withdraw",
          "outputs": [],
          "stateMutability": "nonpayable",
          "type": "function"
        }
      ],
      "evm": {
        "bytecode": {
          "linkReferences": {},
          "object": "60a034620003a057601f90601f196001600160401b03620017c9388190038581018416850183811186821017620002a457859282916040528339602094859181010312620003a05751936001600160a01b0385168503620003a05762000064620003a5565b60128152712437b732bca837b7b6102628102a37b5b2b760711b858201526200008c620003a5565b916003928381526212141560ea1b878201528251858111620002a45784546001948582811c9216801562000395575b8a8310146200037f57818584931162000329575b508990858311600114620002c657600092620002ba575b505060001982871b1c191690841b1784555b8051948511620002a45760049687548481811c9116801562000299575b82821014620002845783811162000239575b5080928611600114620001cd575084955090849291600095620001c1575b50501b92600019911b1c19161790555b608052600780546001600160a01b031916339081179091556200017890620003c5565b50620001843362000468565b506040516112bf9081620004ea823960805181818161013f0152818161021e01528181610395015281816104ba0152818161074c0152610cbd0152f35b01519350388062000145565b939295859081168860005285600020956000905b898383106200021e575050501062000203575b50505050811b01905562000155565b01519060f884600019921b161c1916905538808080620001f4565b858701518955909701969485019488935090810190620001e1565b88600052816000208480890160051c820192848a106200027a575b0160051c019085905b8281106200026d57505062000127565b600081550185906200025d565b9250819262000254565b602289634e487b7160e01b6000525260246000fd5b90607f169062000115565b634e487b7160e01b600052604160045260246000fd5b015190503880620000e6565b908987941691886000528b6000209260005b8d828210620003125750508411620002f9575b505050811b018455620000f8565b015160001983891b60f8161c19169055388080620002eb565b8385015186558a97909501949384019301620002d8565b90915086600052896000208580850160051c8201928c861062000375575b918891869594930160051c01915b82811062000365575050620000cf565b6000815585945088910162000355565b9250819262000347565b634e487b7160e01b600052602260045260246000fd5b91607f1691620000bb565b600080fd5b60408051919082016001600160401b03811183821017620002a457604052565b6001600160a01b031660008181527fd8ef4509105c3edb0b04658b4528edc5ddd30ea5a81e623a2623c88db1eb54b660205260408120549091907fa49807205ce4d355092ef5a8a18f56e8913cf4a201fbe287825b095693c217759060ff16620004635780835260056020526040832082845260205260408320600160ff19825416179055600080516020620017a9833981519152339380a4600190565b505090565b6001600160a01b031660008181527f05b8ccbb9d4d8fb16ea74ce3c29a41f1b461fbdaff4714a0d9a8eb05499746bc602052604081205490919060ff16620004e55781805260056020526040822081835260205260408220600160ff198254161790553391600080516020620017a98339815191528180a4600190565b509056fe608060408181526004918236101561001657600080fd5b600092833560e01c918262f714ce14610c5a5750816301ffc9a714610bb957816306fdde0314610ac2578163095ea7b314610a1a57816318160ddd146109fb57816323b872dd146108ec578163248a9ca3146108c15781632f2ff15d14610897578163313ce5671461087b57816336568abe1461081c57816351c6590a1461071f57816370a08231146106e957816375b238fc146106ae5781638f840ddd1461068f57816391d148541461064957816395d89b41146105445781639d7de6b31461029d578163a217fddf14610282578163a9059cbb14610251578163b6b55f25146101f6578163d547741f146101b257508063dd62ed3e146101675763fc0c546a1461012157600080fd5b34610163578160031936011261016357602090516001600160a01b037f0000000000000000000000000000000000000000000000000000000000000000168152f35b5080fd5b5034610163578060031936011261016357602091610183610d22565b8261018c610d07565b926001600160a01b03809316815260018652209116600052825280600020549051908152f35b919050346101f257806003193601126101f2576101ee91356101e960016101d7610d07565b93838752600560205286200154610e1c565b611025565b5080f35b8280fd5b8390346101635760203660031901126101635761024b90356102438130336001600160a01b037f00000000000000000000000000000000000000000000000000000000000000001661109d565b600654610e02565b60065580f35b50503461016357806003193601126101635760209061027b610271610d22565b6024359033610ec8565b5160018152f35b50503461016357816003193601126101635751908152602090f35b9050816003193601126101f25780358015610535576102ca6102c160065483610db9565b60025490610de2565b92831561052657331561051057338552602091858352818620548181106104e457908087923384528386520383832055806002540360025582519081527fddf252ad1be2c89b69c2b068fc378daa952ba7f163c4a11628f55a4df523b3ef843392a38447928584106000146104a2576001600160a01b0390858183600754168651928380927f5c42132e0000000000000000000000000000000000000000000000000000000082525afa91821561049857849261046a575b505061038e8588610e0f565b916103bd817f000000000000000000000000000000000000000000000000000000000000000016963388610e60565b6007541694853b1561046657608491855196879485937fa628b47f000000000000000000000000000000000000000000000000000000008552338b8601526024356024860152604485015260648401525af1801561045c5761042a575b50505061024b905b600654610e0f565b67ffffffffffffffff82959395116104495752915061024b388061041a565b602483604187634e487b7160e01b835252fd5b81513d87823e3d90fd5b8380fd5b90809250813d8311610491575b6104818183610d81565b810103126101f257513880610382565b503d610477565b85513d86823e3d90fd5b5050505050806104df61024b92336001600160a01b037f000000000000000000000000000000000000000000000000000000000000000016610e60565b610422565b825163391434e360e21b8152338187019081526020810192909252604082018390529081906060010390fd5b82856024925191634b637e8f60e11b8352820152fd5b905051636067798b60e01b8152fd5b509051636067798b60e01b8152fd5b83833461016357816003193601126101635780519180938054916001908360011c926001851694851561063f575b602095868610811461062c5785895290811561060857506001146105b0575b6105ac87876105a2828c0383610d81565b5191829182610d38565b0390f35b81529295507f8a35acfbc15ff81a39ae7d344fd709f28e8600b4aa8c65c6b64bfe7fe36bd19b5b8284106105f557505050826105ac946105a292820101948680610591565b80548685018801529286019281016105d7565b60ff19168887015250505050151560051b83010192506105a2826105ac8680610591565b602484602285634e487b7160e01b835252fd5b93607f1693610572565b9050346101f257816003193601126101f2578160209360ff9261066a610d07565b90358252600586526001600160a01b0383832091168252855220541690519015158152f35b5050346101635781600319360112610163576020906006549051908152f35b505034610163578160031936011261016357602090517fa49807205ce4d355092ef5a8a18f56e8913cf4a201fbe287825b095693c217758152f35b50503461016357602036600319011261016357806020926001600160a01b03610710610d22565b16815280845220549051908152f35b8391503461016357602036600319011261016357803590811561080e576107718230336001600160a01b037f00000000000000000000000000000000000000000000000000000000000000001661109d565b600654806107f35750612710905b33156107dd575061024b929361079782600254610e02565b6002553385528460205280852082815401905551908152837fddf252ad1be2c89b69c2b068fc378daa952ba7f163c4a11628f55a4df523b3ef60203393a3600654610e02565b6024908486519163ec442f0560e01b8352820152fd5b6108089061080360025485610db9565b610de2565b9061077f565b8351636067798b60e01b8152fd5b838334610163578060031936011261016357610836610d07565b90336001600160a01b0383160361085357506101ee919235611025565b8390517f6697b232000000000000000000000000000000000000000000000000000000008152fd5b5050346101635781600319360112610163576020905160128152f35b919050346101f257806003193601126101f2576101ee91356108bc60016101d7610d07565b610fa4565b9050346101f25760203660031901126101f25781602093600192358152600585522001549051908152f35b905082346109f85760603660031901126109f857610908610d22565b610910610d07565b91604435936001600160a01b03831680835260016020528683203384526020528683205491600019830361094d575b60208861027b898989610ec8565b8683106109b357811561099d5733156109875750825260016020908152868320338452815291869020908590039055829061027b8761093f565b60249084895191634a1406b160e11b8352820152fd5b6024908489519163e602df0560e01b8352820152fd5b87517ffb8f41b2000000000000000000000000000000000000000000000000000000008152339181019182526020820193909352604081018790528291506060010390fd5b80fd5b5050346101635781600319360112610163576020906002549051908152f35b9050346101f257816003193601126101f257610a34610d22565b602435903315610aac576001600160a01b0316918215610a9657508083602095338152600187528181208582528752205582519081527f8c5be1e5ebec7d5bd14f71427d1e84f3dd0314c0f7b2291e5b200ac8c7c3b925843392a35160018152f35b60249085855191634a1406b160e11b8352820152fd5b6024838686519163e602df0560e01b8352820152fd5b919050346101f257826003193601126101f25780519183600354906001908260011c92600181168015610baf575b6020958686108214610b9c5750848852908115610b7a5750600114610b21575b6105ac86866105a2828b0383610d81565b929550600383527fc2575a0e9e593c00f959f8c92f12db2869c3395a3b0502d05e2516446f71f85b5b828410610b6757505050826105ac946105a2928201019438610b10565b8054868501880152928601928101610b4a565b60ff191687860152505050151560051b83010192506105a2826105ac38610b10565b836022602492634e487b7160e01b835252fd5b93607f1693610af0565b9050346101f25760203660031901126101f25735907fffffffff0000000000000000000000000000000000000000000000000000000082168092036101f257602092507f7965db0b000000000000000000000000000000000000000000000000000000008214918215610c30575b50519015158152f35b7f01ffc9a70000000000000000000000000000000000000000000000000000000014915038610c27565b838591346101f257816003193601126101f257610c75610d07565b9160ff7fa49807205ce4d355092ef5a8a18f56e8913cf4a201fbe287825b095693c217759182865260056020528086203387526020528520541615610ced5783610cea8635857f00000000000000000000000000000000000000000000000000000000000000006001600160a01b0316610e60565b80f35b63e2517d3f60e01b82523382860152602482015260449150fd5b602435906001600160a01b0382168203610d1d57565b600080fd5b600435906001600160a01b0382168203610d1d57565b6020808252825181830181905290939260005b828110610d6d57505060409293506000838284010152601f8019910116010190565b818101860151848201604001528501610d4b565b90601f8019910116810190811067ffffffffffffffff821117610da357604052565b634e487b7160e01b600052604160045260246000fd5b81810292918115918404141715610dcc57565b634e487b7160e01b600052601160045260246000fd5b8115610dec570490565b634e487b7160e01b600052601260045260246000fd5b91908201809211610dcc57565b91908203918211610dcc57565b80600052600560205260406000203360005260205260ff6040600020541615610e425750565b6044906040519063e2517d3f60e01b82523360048301526024820152fd5b916001600160a01b03604051927fa9059cbb000000000000000000000000000000000000000000000000000000006020850152166024830152604482015260448152608081019181831067ffffffffffffffff841117610da357610ec692604052611108565b565b916001600160a01b03808416928315610f8c5716928315610f745760009083825281602052604082205490838210610f42575091604082827fddf252ad1be2c89b69c2b068fc378daa952ba7f163c4a11628f55a4df523b3ef958760209652828652038282205586815220818154019055604051908152a3565b60405163391434e360e21b81526001600160a01b03919091166004820152602481019190915260448101839052606490fd5b602460405163ec442f0560e01b815260006004820152fd5b6024604051634b637e8f60e11b815260006004820152fd5b9060009180835260056020526001600160a01b036040842092169182845260205260ff604084205416156000146110205780835260056020526040832082845260205260408320600160ff198254161790557f2f8788117e7eff1d82e926ec794901d17c78024a50270940304540a733656f0d339380a4600190565b505090565b9060009180835260056020526001600160a01b036040842092169182845260205260ff604084205416600014611020578083526005602052604083208284526020526040832060ff1981541690557ff6391f5c32d9c69d2a47ea670b442974b53935d1edc7fd64eb21e047a839171b339380a4600190565b9290604051927f23b872dd0000000000000000000000000000000000000000000000000000000060208501526001600160a01b03809216602485015216604483015260648201526064815260a081019181831067ffffffffffffffff841117610da357610ec6926040525b6001600160a01b031690600080826020829451910182865af13d156111ea573d9067ffffffffffffffff82116111d6579061116591604051916111556020601f19601f8401160184610d81565b82523d84602084013e5b846111f6565b9081519182151592836111ae575b50505061117d5750565b602490604051907f5274afe70000000000000000000000000000000000000000000000000000000082526004820152fd5b8192935090602091810103126101635760200151908115918215036109f85750388080611173565b602483634e487b7160e01b81526041600452fd5b6111659060609061115f565b90611235575080511561120b57805190602001fd5b60046040517f1425ea42000000000000000000000000000000000000000000000000000000008152fd5b81511580611280575b611246575090565b6024906001600160a01b03604051917f9996b315000000000000000000000000000000000000000000000000000000008352166004820152fd5b50803b1561123e56fea26469706673582212202ab7dcedbc30e7234c690b5fdb6be4e6940e96da1e9254ab38446b3a5252108364736f6c634300081800332f8788117e7eff1d82e926ec794901d17c78024a50270940304540a733656f0d",
          "opcodes": "PUSH1 0xA0 CALLVALUE PUSH3 0x3A0 JUMPI PUSH1 0x1F SWAP1 PUSH1 0x1F NOT PUSH1 0x1 PUSH1 0x1 PUSH1 0x40 SHL SUB PUSH3 0x17C9 CODESIZE DUP2 SWAP1 SUB DUP6 DUP2 ADD DUP5 AND DUP6 ADD DUP4 DUP2 GT DUP7 DUP3 LT OR PUSH3 0x2A4 JUMPI DUP6 SWAP3 DUP3 SWAP2 PUSH1 0x40 MSTORE DUP4 CODECOPY PUSH1 0x20 SWAP5 DUP6 SWAP2 DUP2 ADD SUB SLT PUSH3 0x3A0 JUMPI MLOAD SWAP4 PUSH1 0x1 PUSH1 0x1 PUSH1 0xA0 SHL SUB DUP6 AND DUP6 SUB PUSH3 0x3A0 JUMPI PUSH3 0x64 PUSH3 0x3A5 JUMP JUMPDEST PUSH1 0x12 DUP2 MSTORE PUSH18 0x2437B732BCA837B7B6102628102A37B5B2B7 PUSH1 0x71 SHL DUP6 DUP3 ADD MSTORE PUSH3 0x8C PUSH3 0x3A5 JUMP JUMPDEST SWAP2 PUSH1 0x3 SWAP3 DUP4 DUP2 MSTORE PUSH3 0x121415 PUSH1 0xEA SHL DUP8 DUP3 ADD MSTORE DUP3 MLOAD DUP6 DUP2 GT PUSH3 0x2A4 JUMPI DUP5 SLOAD PUSH1 0x1 SWAP5 DUP6 DUP3 DUP2 SHR SWAP3 AND DUP1 ISZERO PUSH3 0x395 JUMPI JUMPDEST DUP11 DUP4 LT EQ PUSH3 0x37F JUMPI DUP2 DUP6 DUP5 SWAP4 GT PUSH3 0x329 JUMPI JUMPDEST POP DUP10 SWAP1 DUP6 DUP4 GT PUSH1 0x1 EQ PUSH3 0x2C6 JUMPI PUSH1 0x0 SWAP3 PUSH3 0x2BA JUMPI JUMPDEST POP POP PUSH1 0x0 NOT DUP3 DUP8 SHL SHR NOT AND SWAP1 DUP5 SHL OR DUP5 SSTORE JUMPDEST DUP1 MLOAD SWAP5 DUP6 GT PUSH3 0x2A4 JUMPI PUSH1 0x4 SWAP7 DUP8 SLOAD DUP5 DUP2 DUP2 SHR SWAP2 AND DUP1 ISZERO PUSH3 0x299 JUMPI JUMPDEST DUP3 DUP3 LT EQ PUSH3 0x284 JUMPI DUP4 DUP2 GT PUSH3 0x239 JUMPI JUMPDEST POP DUP1 SWAP3 DUP7 GT PUSH1 0x1 EQ PUSH3 0x1CD JUMPI POP DUP5 SWAP6 POP SWAP1 DUP5 SWAP3 SWAP2 PUSH1 0x0 SWAP6 PUSH3 0x1C1 JUMPI JUMPDEST POP POP SHL SWAP3 PUSH1 0x0 NOT SWAP2 SHL SHR NOT AND OR SWAP1 SSTORE JUMPDEST PUSH1 0x80 MSTORE PUSH1 0x7 DUP1 SLOAD PUSH1 0x1 PUSH1 0x1 PUSH1 0xA0 SHL SUB NOT AND CALLER SWAP1 DUP2 OR SWAP1 SWAP2 SSTORE PUSH3 0x178 SWAP1 PUSH3 0x3C5 JUMP JUMPDEST POP PUSH3 0x184 CALLER PUSH3 0x468 JUMP JUMPDEST POP PUSH1 0x40 MLOAD PUSH2 0x12BF SWAP1 DUP2 PUSH3 0x4EA DUP3 CODECOPY PUSH1 0x80 MLOAD DUP2 DUP2 DUP2 PUSH2 0x13F ADD MSTORE DUP2 DUP2 PUSH2 0x21E ADD MSTORE DUP2 DUP2 PUSH2 0x395 ADD MSTORE DUP2 DUP2 PUSH2 0x4BA ADD MSTORE DUP2 DUP2 PUSH2 0x74C ADD MSTORE PUSH2 0xCBD ADD MSTORE RETURN JUMPDEST ADD MLOAD SWAP4 POP CODESIZE DUP1 PUSH3 0x145 JUMP JUMPDEST SWAP4 SWAP3 SWAP6 DUP6 SWAP1 DUP2 AND DUP9 PUSH1 0x0 MSTORE DUP6 PUSH1 0x0 KECCAK256 SWAP6 PUSH1 0x0 SWAP1 JUMPDEST DUP10 DUP4 DUP4 LT PUSH3 0x21E JUMPI POP POP POP LT PUSH3 0x203 JUMPI JUMPDEST POP POP POP POP DUP2 SHL ADD SWAP1 SSTORE PUSH3 0x155 JUMP JUMPDEST ADD MLOAD SWAP1 PUSH1 0xF8 DUP5 PUSH1 0x0 NOT SWAP3 SHL AND SHR NOT AND SWAP1 SSTORE CODESIZE DUP1 DUP1 DUP1 PUSH3 0x1F4 JUMP JUMPDEST DUP6 DUP8 ADD MLOAD DUP10 SSTORE SWAP1 SWAP8 ADD SWAP7 SWAP5 DUP6 ADD SWAP5 DUP9 SWAP4 POP SWAP1 DUP2 ADD SWAP1 PUSH3 0x1E1 JUMP JUMPDEST DUP9 PUSH1 0x0 MSTORE DUP2 PUSH1 0x0 KECCAK256 DUP5 DUP1 DUP10 ADD PUSH1 0x5 SHR DUP3 ADD SWAP3 DUP5 DUP11 LT PUSH3 0x27A JUMPI JUMPDEST ADD PUSH1 0x5 SHR ADD SWAP1 DUP6 SWAP1 JUMPDEST DUP3 DUP2 LT PUSH3 0x26D JUMPI POP POP PUSH3 0x127 JUMP JUMPDEST PUSH1 0x0 DUP2 SSTORE ADD DUP6 SWAP1 PUSH3 0x25D JUMP JUMPDEST SWAP3 POP DUP2 SWAP3 PUSH3 0x254 JUMP JUMPDEST PUSH1 0x22 DUP10 PUSH4 0x4E487B71 PUSH1 0xE0 SHL PUSH1 0x0 MSTORE MSTORE PUSH1 0x24 PUSH1 0x0 REVERT JUMPDEST SWAP1 PUSH1 0x7F AND SWAP1 PUSH3 0x115 JUMP JUMPDEST PUSH4 0x4E487B71 PUSH1 0xE0 SHL PUSH1 0x0 MSTORE PUSH1 0x41 PUSH1 0x4 MSTORE PUSH1 0x24 PUSH1 0x0 REVERT JUMPDEST ADD MLOAD SWAP1 POP CODESIZE DUP1 PUSH3 0xE6 JUMP JUMPDEST SWAP1 DUP10 DUP8 SWAP5 AND SWAP2 DUP9 PUSH1 0x0 MSTORE DUP12 PUSH1 0x0 KECCAK256 SWAP3 PUSH1 0x0 JUMPDEST DUP14 DUP3 DUP3 LT PUSH3 0x312 JUMPI POP POP DUP5 GT PUSH3 0x2F9 JUMPI JUMPDEST POP POP POP DUP2 SHL ADD DUP5 SSTORE PUSH3 0xF8 JUMP JUMPDEST ADD MLOAD PUSH1 0x0 NOT DUP4 DUP10 SHL PUSH1 0xF8 AND SHR NOT AND SWAP1 SSTORE CODESIZE DUP1 DUP1 PUSH3 0x2EB JUMP JUMPDEST DUP4 DUP6 ADD MLOAD DUP7 SSTORE DUP11 SWAP8 SWAP1 SWAP6 ADD SWAP5 SWAP4 DUP5 ADD SWAP4 ADD PUSH3 0x2D8 JUMP JUMPDEST SWAP1 SWAP2 POP DUP7 PUSH1 0x0 MSTORE DUP10 PUSH1 0x0 KECCAK256 DUP6 DUP1 DUP6 ADD PUSH1 0x5 SHR DUP3 ADD SWAP3 DUP13 DUP7 LT PUSH3 0x375 JUMPI JUMPDEST SWAP2 DUP9 SWAP2 DUP7 SWAP6 SWAP5 SWAP4 ADD PUSH1 0x5 SHR ADD SWAP2 JUMPDEST DUP3 DUP2 LT PUSH3 0x365 JUMPI POP POP PUSH3 0xCF JUMP JUMPDEST PUSH1 0x0 DUP2 SSTORE DUP6 SWAP5 POP DUP9 SWAP2 ADD PUSH3 0x355 JUMP JUMPDEST SWAP3 POP DUP2 SWAP3 PUSH3 0x347 JUMP JUMPDEST PUSH4 0x4E487B71 PUSH1 0xE0 SHL PUSH1 0x0 MSTORE PUSH1 0x22 PUSH1 0x4 MSTORE PUSH1 0x24 PUSH1 0x0 REVERT JUMPDEST SWAP2 PUSH1 0x7F AND SWAP2 PUSH3 0xBB JUMP JUMPDEST PUSH1 0x0 DUP1 REVERT JUMPDEST PUSH1 0x40 DUP1 MLOAD SWAP2 SWAP1 DUP3 ADD PUSH1 0x1 PUSH1 0x1 PUSH1 0x40 SHL SUB DUP2 GT DUP4 DUP3 LT OR PUSH3 0x2A4 JUMPI PUSH1 0x40 MSTORE JUMP JUMPDEST PUSH1 0x1 PUSH1 0x1 PUSH1 0xA0 SHL SUB AND PUSH1 0x0 DUP2 DUP2 MSTORE PUSH32 0xD8EF4509105C3EDB0B04658B4528EDC5DDD30EA5A81E623A2623C88DB1EB54B6 PUSH1 0x20 MSTORE PUSH1 0x40 DUP2 KECCAK256 SLOAD SWAP1 SWAP2 SWAP1 PUSH32 0xA49807205CE4D355092EF5A8A18F56E8913CF4A201FBE287825B095693C21775 SWAP1 PUSH1 0xFF AND PUSH3 0x463 JUMPI DUP1 DUP4 MSTORE PUSH1 0x5 PUSH1 0x20 MSTORE PUSH1 0x40 DUP4 KECCAK256 DUP3 DUP5 MSTORE PUSH1 0x20 MSTORE PUSH1 0x40 DUP4 KECCAK256 PUSH1 0x1 PUSH1 0xFF NOT DUP3 SLOAD AND OR SWAP1 SSTORE PUSH1 0x0 DUP1 MLOAD PUSH1 0x20 PUSH3 0x17A9 DUP4 CODECOPY DUP2 MLOAD SWAP2 MSTORE CALLER SWAP4 DUP1 LOG4 PUSH1 0x1 SWAP1 JUMP JUMPDEST POP POP SWAP1 JUMP JUMPDEST PUSH1 0x1 PUSH1 0x1 PUSH1 0xA0 SHL SUB AND PUSH1 0x0 DUP2 DUP2 MSTORE PUSH32 0x5B8CCBB9D4D8FB16EA74CE3C29A41F1B461FBDAFF4714A0D9A8EB05499746BC PUSH1 0x20 MSTORE PUSH1 0x40 DUP2 KECCAK256 SLOAD SWAP1 SWAP2 SWAP1 PUSH1 0xFF AND PUSH3 0x4E5 JUMPI DUP2 DUP1 MSTORE PUSH1 0x5 PUSH1 0x20 MSTORE PUSH1 0x40 DUP3 KECCAK256 DUP2 DUP4 MSTORE PUSH1 0x20 MSTORE PUSH1 0x40 DUP3 KECCAK256 PUSH1 0x1 PUSH1 0xFF NOT DUP3 SLOAD AND OR SWAP1 SSTORE CALLER SWAP2 PUSH1 0x0 DUP1 MLOAD PUSH1 0x20 PUSH3 0x17A9 DUP4 CODECOPY DUP2 MLOAD SWAP2 MSTORE DUP2 DUP1 LOG4 PUSH1 0x1 SWAP1 JUMP JUMPDEST POP SWAP1 JUMP INVALID PUSH1 0x80 PUSH1 0x40 DUP2 DUP2 MSTORE PUSH1 0x4 SWAP2 DUP3 CALLDATASIZE LT ISZERO PUSH2 0x16 JUMPI PUSH1 0x0 DUP1 REVERT JUMPDEST PUSH1 0x0 SWAP3 DUP4 CALLDATALOAD PUSH1 0xE0 SHR SWAP2 DUP3 PUSH3 0xF714CE EQ PUSH2 0xC5A JUMPI POP DUP2 PUSH4 0x1FFC9A7 EQ PUSH2 0xBB9 JUMPI DUP2 PUSH4 0x6FDDE03 EQ PUSH2 0xAC2 JUMPI DUP2 PUSH4 0x95EA7B3 EQ PUSH2 0xA1A JUMPI DUP2 PUSH4 0x18160DDD EQ PUSH2 0x9FB JUMPI DUP2 PUSH4 0x23B872DD EQ PUSH2 0x8EC JUMPI DUP2 PUSH4 0x248A9CA3 EQ PUSH2 0x8C1 JUMPI DUP2 PUSH4 0x2F2FF15D EQ PUSH2 0x897 JUMPI DUP2 PUSH4 0x313CE567 EQ PUSH2 0x87B JUMPI DUP2 PUSH4 0x36568ABE EQ PUSH2 0x81C JUMPI DUP2 PUSH4 0x51C6590A EQ PUSH2 0x71F JUMPI DUP2 PUSH4 0x70A08231 EQ PUSH2 0x6E9 JUMPI DUP2 PUSH4 0x75B238FC EQ PUSH2 0x6AE JUMPI DUP2 PUSH4 0x8F840DDD EQ PUSH2 0x68F JUMPI DUP2 PUSH4 0x91D14854 EQ PUSH2 0x649 JUMPI DUP2 PUSH4 0x95D89B41 EQ PUSH2 0x544 JUMPI DUP2 PUSH4 0x9D7DE6B3 EQ PUSH2 0x29D JUMPI DUP2 PUSH4 0xA217FDDF EQ PUSH2 0x282 JUMPI DUP2 PUSH4 0xA9059CBB EQ PUSH2 0x251 JUMPI DUP2 PUSH4 0xB6B55F25 EQ PUSH2 0x1F6 JUMPI DUP2 PUSH4 0xD547741F EQ PUSH2 0x1B2 JUMPI POP DUP1 PUSH4 0xDD62ED3E EQ PUSH2 0x167 JUMPI PUSH4 0xFC0C546A EQ PUSH2 0x121 JUMPI PUSH1 0x0 DUP1 REVERT JUMPDEST CALLVALUE PUSH2 0x163 JUMPI DUP2 PUSH1 0x3 NOT CALLDATASIZE ADD SLT PUSH2 0x163 JUMPI PUSH1 0x20 SWAP1 MLOAD PUSH1 0x1 PUSH1 0x1 PUSH1 0xA0 SHL SUB PUSH32 0x0 AND DUP2 MSTORE RETURN JUMPDEST POP DUP1 REVERT JUMPDEST POP CALLVALUE PUSH2 0x163 JUMPI DUP1 PUSH1 0x3 NOT CALLDATASIZE ADD SLT PUSH2 0x163 JUMPI PUSH1 0x20 SWAP2 PUSH2 0x183 PUSH2 0xD22 JUMP JUMPDEST DUP3 PUSH2 0x18C PUSH2 0xD07 JUMP JUMPDEST SWAP3 PUSH1 0x1 PUSH1 0x1 PUSH1 0xA0 SHL SUB DUP1 SWAP4 AND DUP2 MSTORE PUSH1 0x1 DUP7 MSTORE KECCAK256 SWAP2 AND PUSH1 0x0 MSTORE DUP3 MSTORE DUP1 PUSH1 0x0 KECCAK256 SLOAD SWAP1 MLOAD SWAP1 DUP2 MSTORE RETURN JUMPDEST SWAP2 SWAP1 POP CALLVALUE PUSH2 0x1F2 JUMPI DUP1 PUSH1 0x3 NOT CALLDATASIZE ADD SLT PUSH2 0x1F2 JUMPI PUSH2 0x1EE SWAP2 CALLDATALOAD PUSH2 0x1E9 PUSH1 0x1 PUSH2 0x1D7 PUSH2 0xD07 JUMP JUMPDEST SWAP4 DUP4 DUP8 MSTORE PUSH1 0x5 PUSH1 0x20 MSTORE DUP7 KECCAK256 ADD SLOAD PUSH2 0xE1C JUMP JUMPDEST PUSH2 0x1025 JUMP JUMPDEST POP DUP1 RETURN JUMPDEST DUP3 DUP1 REVERT JUMPDEST DUP4 SWAP1 CALLVALUE PUSH2 0x163 JUMPI PUSH1 0x20 CALLDATASIZE PUSH1 0x3 NOT ADD SLT PUSH2 0x163 JUMPI PUSH2 0x24B SWAP1 CALLDATALOAD PUSH2 0x243 DUP2 ADDRESS CALLER PUSH1 0x1 PUSH1 0x1 PUSH1 0xA0 SHL SUB PUSH32 0x0 AND PUSH2 0x109D JUMP JUMPDEST PUSH1 0x6 SLOAD PUSH2 0xE02 JUMP JUMPDEST PUSH1 0x6 SSTORE DUP1 RETURN JUMPDEST POP POP CALLVALUE PUSH2 0x163 JUMPI DUP1 PUSH1 0x3 NOT CALLDATASIZE ADD SLT PUSH2 0x163 JUMPI PUSH1 0x20 SWAP1 PUSH2 0x27B PUSH2 0x271 PUSH2 0xD22 JUMP JUMPDEST PUSH1 0x24 CALLDATALOAD SWAP1 CALLER PUSH2 0xEC8 JUMP JUMPDEST MLOAD PUSH1 0x1 DUP2 MSTORE RETURN JUMPDEST POP POP CALLVALUE PUSH2 0x163 JUMPI DUP2 PUSH1 0x3 NOT CALLDATASIZE ADD SLT PUSH2 0x163 JUMPI MLOAD SWAP1 DUP2 MSTORE PUSH1 0x20 SWAP1 RETURN JUMPDEST SWAP1 POP DUP2 PUSH1 0x3 NOT CALLDATASIZE ADD SLT PUSH2 0x1F2 JUMPI DUP1 CALLDATALOAD DUP1 ISZERO PUSH2 0x535 JUMPI PUSH2 0x2CA PUSH2 0x2C1 PUSH1 0x6 SLOAD DUP4 PUSH2 0xDB9 JUMP JUMPDEST PUSH1 0x2 SLOAD SWAP1 PUSH2 0xDE2 JUMP JUMPDEST SWAP3 DUP4 ISZERO PUSH2 0x526 JUMPI CALLER ISZERO PUSH2 0x510 JUMPI CALLER DUP6 MSTORE PUSH1 0x20 SWAP2 DUP6 DUP4 MSTORE DUP2 DUP7 KECCAK256 SLOAD DUP2 DUP2 LT PUSH2 0x4E4 JUMPI SWAP1 DUP1 DUP8 SWAP3 CALLER DUP5 MSTORE DUP4 DUP7 MSTORE SUB DUP4 DUP4 KECCAK256 SSTORE DUP1 PUSH1 0x2 SLOAD SUB PUSH1 0x2 SSTORE DUP3 MLOAD SWAP1 DUP2 MSTORE PUSH32 0xDDF252AD1BE2C89B69C2B068FC378DAA952BA7F163C4A11628F55A4DF523B3EF DUP5 CALLER SWAP3 LOG3 DUP5 SELFBALANCE SWAP3 DUP6 DUP5 LT PUSH1 0x0 EQ PUSH2 0x4A2 JUMPI PUSH1 0x1 PUSH1 0x1 PUSH1 0xA0 SHL SUB SWAP1 DUP6 DUP2 DUP4 PUSH1 0x7 SLOAD AND DUP7 MLOAD SWAP3 DUP4 DUP1 SWAP3 PUSH32 0x5C42132E00000000000000000000000000000000000000000000000000000000 DUP3 MSTORE GAS STATICCALL SWAP2 DUP3 ISZERO PUSH2 0x498 JUMPI DUP5 SWAP3 PUSH2 0x46A JUMPI JUMPDEST POP POP PUSH2 0x38E DUP6 DUP9 PUSH2 0xE0F JUMP JUMPDEST SWAP2 PUSH2 0x3BD DUP2 PUSH32 0x0 AND SWAP7 CALLER DUP9 PUSH2 0xE60 JUMP JUMPDEST PUSH1 0x7 SLOAD AND SWAP5 DUP6 EXTCODESIZE ISZERO PUSH2 0x466 JUMPI PUSH1 0x84 SWAP2 DUP6 MLOAD SWAP7 DUP8 SWAP5 DUP6 SWAP4 PUSH32 0xA628B47F00000000000000000000000000000000000000000000000000000000 DUP6 MSTORE CALLER DUP12 DUP7 ADD MSTORE PUSH1 0x24 CALLDATALOAD PUSH1 0x24 DUP7 ADD MSTORE PUSH1 0x44 DUP6 ADD MSTORE PUSH1 0x64 DUP5 ADD MSTORE GAS CALL DUP1 ISZERO PUSH2 0x45C JUMPI PUSH2 0x42A JUMPI JUMPDEST POP POP POP PUSH2 0x24B SWAP1 JUMPDEST PUSH1 0x6 SLOAD PUSH2 0xE0F JUMP JUMPDEST PUSH8 0xFFFFFFFFFFFFFFFF DUP3 SWAP6 SWAP4 SWAP6 GT PUSH2 0x449 JUMPI MSTORE SWAP2 POP PUSH2 0x24B CODESIZE DUP1 PUSH2 0x41A JUMP JUMPDEST PUSH1 0x24 DUP4 PUSH1 0x41 DUP8 PUSH4 0x4E487B71 PUSH1 0xE0 SHL DUP4 MSTORE MSTORE REVERT JUMPDEST DUP2 MLOAD RETURNDATASIZE DUP8 DUP3 RETURNDATACOPY RETURNDATASIZE SWAP1 REVERT JUMPDEST DUP4 DUP1 REVERT JUMPDEST SWAP1 DUP1 SWAP3 POP DUP2 RETURNDATASIZE DUP4 GT PUSH2 0x491 JUMPI JUMPDEST PUSH2 0x481 DUP2 DUP4 PUSH2 0xD81 JUMP JUMPDEST DUP2 ADD SUB SLT PUSH2 0x1F2 JUMPI MLOAD CODESIZE DUP1 PUSH2 0x382 JUMP JUMPDEST POP RETURNDATASIZE PUSH2 0x477 JUMP JUMPDEST DUP6 MLOAD RETURNDATASIZE DUP7 DUP3 RETURNDATACOPY RETURNDATASIZE SWAP1 REVERT JUMPDEST POP POP POP POP POP DUP1 PUSH2 0x4DF PUSH2 0x24B SWAP3 CALLER PUSH1 0x1 PUSH1 0x1 PUSH1 0xA0 SHL SUB PUSH32 0x0 AND PUSH2 0xE60 JUMP JUMPDEST PUSH2 0x422 JUMP JUMPDEST DUP3 MLOAD PUSH4 0x391434E3 PUSH1 0xE2 SHL DUP2 MSTORE CALLER DUP2 DUP8 ADD SWAP1 DUP2 MSTORE PUSH1 0x20 DUP2 ADD SWAP3 SWAP1 SWAP3 MSTORE PUSH1 0x40 DUP3 ADD DUP4 SWAP1 MSTORE SWAP1 DUP2 SWAP1 PUSH1 0x60 ADD SUB SWAP1 REVERT JUMPDEST DUP3 DUP6 PUSH1 0x24 SWAP3 MLOAD SWAP2 PUSH4 0x4B637E8F PUSH1 0xE1 SHL DUP4 MSTORE DUP3 ADD MSTORE REVERT JUMPDEST SWAP1 POP MLOAD PUSH4 0x6067798B PUSH1 0xE0 SHL DUP2 MSTORE REVERT JUMPDEST POP SWAP1 MLOAD PUSH4 0x6067798B PUSH1 0xE0 SHL DUP2 MSTORE REVERT JUMPDEST DUP4 DUP4 CALLVALUE PUSH2 0x163 JUMPI DUP2 PUSH1 0x3 NOT CALLDATASIZE ADD SLT PUSH2 0x163 JUMPI DUP1 MLOAD SWAP2 DUP1 SWAP4 DUP1 SLOAD SWAP2 PUSH1 0x1 SWAP1 DUP4 PUSH1 0x1 SHR SWAP3 PUSH1 0x1 DUP6 AND SWAP5 DUP6 ISZERO PUSH2 0x63F JUMPI JUMPDEST PUSH1 0x20 SWAP6 DUP7 DUP7 LT DUP2 EQ PUSH2 0x62C JUMPI DUP6 DUP10 MSTORE SWAP1 DUP2 ISZERO PUSH2 0x608 JUMPI POP PUSH1 0x1 EQ PUSH2 0x5B0 JUMPI JUMPDEST PUSH2 0x5AC DUP8 DUP8 PUSH2 0x5A2 DUP3 DUP13 SUB DUP4 PUSH2 0xD81 JUMP JUMPDEST MLOAD SWAP2 DUP3 SWAP2 DUP3 PUSH2 0xD38 JUMP JUMPDEST SUB SWAP1 RETURN JUMPDEST DUP2 MSTORE SWAP3 SWAP6 POP PUSH32 0x8A35ACFBC15FF81A39AE7D344FD709F28E8600B4AA8C65C6B64BFE7FE36BD19B JUMPDEST DUP3 DUP5 LT PUSH2 0x5F5 JUMPI POP POP POP DUP3 PUSH2 0x5AC SWAP5 PUSH2 0x5A2 SWAP3 DUP3 ADD ADD SWAP5 DUP7 DUP1 PUSH2 0x591 JUMP JUMPDEST DUP1 SLOAD DUP7 DUP6 ADD DUP9 ADD MSTORE SWAP3 DUP7 ADD SWAP3 DUP2 ADD PUSH2 0x5D7 JUMP JUMPDEST PUSH1 0xFF NOT AND DUP9 DUP8 ADD MSTORE POP POP POP POP ISZERO ISZERO PUSH1 0x5 SHL DUP4 ADD ADD SWAP3 POP PUSH2 0x5A2 DUP3 PUSH2 0x5AC DUP7 DUP1 PUSH2 0x591 JUMP JUMPDEST PUSH1 0x24 DUP5 PUSH1 0x22 DUP6 PUSH4 0x4E487B71 PUSH1 0xE0 SHL DUP4 MSTORE MSTORE REVERT JUMPDEST SWAP4 PUSH1 0x7F AND SWAP4 PUSH2 0x572 JUMP JUMPDEST SWAP1 POP CALLVALUE PUSH2 0x1F2 JUMPI DUP2 PUSH1 0x3 NOT CALLDATASIZE ADD SLT PUSH2 0x1F2 JUMPI DUP2 PUSH1 0x20 SWAP4 PUSH1 0xFF SWAP3 PUSH2 0x66A PUSH2 0xD07 JUMP JUMPDEST SWAP1 CALLDATALOAD DUP3 MSTORE PUSH1 0x5 DUP7 MSTORE PUSH1 0x1 PUSH1 0x1 PUSH1 0xA0 SHL SUB DUP4 DUP4 KECCAK256 SWAP2 AND DUP3 MSTORE DUP6 MSTORE KECCAK256 SLOAD AND SWAP1 MLOAD SWAP1 ISZERO ISZERO DUP2 MSTORE RETURN JUMPDEST POP POP CALLVALUE PUSH2 0x163 JUMPI DUP2 PUSH1 0x3 NOT CALLDATASIZE ADD SLT PUSH2 0x163 JUMPI PUSH1 0x20 SWAP1 PUSH1 0x6 SLOAD SWAP1 MLOAD SWAP1 DUP2 MSTORE RETURN JUMPDEST POP POP CALLVALUE PUSH2 0x163 JUMPI DUP2 PUSH1 0x3 NOT CALLDATASIZE ADD SLT PUSH2 0x163 JUMPI PUSH1 0x20 SWAP1 MLOAD PUSH32 0xA49807205CE4D355092EF5A8A18F56E8913CF4A201FBE287825B095693C21775 DUP2 MSTORE RETURN JUMPDEST POP POP CALLVALUE PUSH2 0x163 JUMPI PUSH1 0x20 CALLDATASIZE PUSH1 0x3 NOT ADD SLT PUSH2 0x163 JUMPI DUP1 PUSH1 0x20 SWAP3 PUSH1 0x1 PUSH1 0x1 PUSH1 0xA0 SHL SUB PUSH2 0x710 PUSH2 0xD22 JUMP JUMPDEST AND DUP2 MSTORE DUP1 DUP5 MSTORE KECCAK256 SLOAD SWAP1 MLOAD SWAP1 DUP2 MSTORE RETURN JUMPDEST DUP4 SWAP2 POP CALLVALUE PUSH2 0x163 JUMPI PUSH1 0x20 CALLDATASIZE PUSH1 0x3 NOT ADD SLT PUSH2 0x163 JUMPI DUP1 CALLDATALOAD SWAP1 DUP2 ISZERO PUSH2 0x80E JUMPI PUSH2 0x771 DUP3 ADDRESS CALLER PUSH1 0x1 PUSH1 0x1 PUSH1 0xA0 SHL SUB PUSH32 0x0 AND PUSH2 0x109D JUMP JUMPDEST PUSH1 0x6 SLOAD DUP1 PUSH2 0x7F3 JUMPI POP PUSH2 0x2710 SWAP1 JUMPDEST CALLER ISZERO PUSH2 0x7DD JUMPI POP PUSH2 0x24B SWAP3 SWAP4 PUSH2 0x797 DUP3 PUSH1 0x2 SLOAD PUSH2 0xE02 JUMP JUMPDEST PUSH1 0x2 SSTORE CALLER DUP6 MSTORE DUP5 PUSH1 0x20 MSTORE DUP1 DUP6 KECCAK256 DUP3 DUP2 SLOAD ADD SWAP1 SSTORE MLOAD SWAP1 DUP2 MSTORE DUP4 PUSH32 0xDDF252AD1BE2C89B69C2B068FC378DAA952BA7F163C4A11628F55A4DF523B3EF PUSH1 0x20 CALLER SWAP4 LOG3 PUSH1 0x6 SLOAD PUSH2 0xE02 JUMP JUMPDEST PUSH1 0x24 SWAP1 DUP5 DUP7 MLOAD SWAP2 PUSH4 0xEC442F05 PUSH1 0xE0 SHL DUP4 MSTORE DUP3 ADD MSTORE REVERT JUMPDEST PUSH2 0x808 SWAP1 PUSH2 0x803 PUSH1 0x2 SLOAD DUP6 PUSH2 0xDB9 JUMP JUMPDEST PUSH2 0xDE2 JUMP JUMPDEST SWAP1 PUSH2 0x77F JUMP JUMPDEST DUP4 MLOAD PUSH4 0x6067798B PUSH1 0xE0 SHL DUP2 MSTORE REVERT JUMPDEST DUP4 DUP4 CALLVALUE PUSH2 0x163 JUMPI DUP1 PUSH1 0x3 NOT CALLDATASIZE ADD SLT PUSH2 0x163 JUMPI PUSH2 0x836 PUSH2 0xD07 JUMP JUMPDEST SWAP1 CALLER PUSH1 0x1 PUSH1 0x1 PUSH1 0xA0 SHL SUB DUP4 AND SUB PUSH2 0x853 JUMPI POP PUSH2 0x1EE SWAP2 SWAP3 CALLDATALOAD PUSH2 0x1025 JUMP JUMPDEST DUP4 SWAP1 MLOAD PUSH32 0x6697B23200000000000000000000000000000000000000000000000000000000 DUP2 MSTORE REVERT JUMPDEST POP POP CALLVALUE PUSH2 0x163 JUMPI DUP2 PUSH1 0x3 NOT CALLDATASIZE ADD SLT PUSH2 0x163 JUMPI PUSH1 0x20 SWAP1 MLOAD PUSH1 0x12 DUP2 MSTORE RETURN JUMPDEST SWAP2 SWAP1 POP CALLVALUE PUSH2 0x1F2 JUMPI DUP1 PUSH1 0x3 NOT CALLDATASIZE ADD SLT PUSH2 0x1F2 JUMPI PUSH2 0x1EE SWAP2 CALLDATALOAD PUSH2 0x8BC PUSH1 0x1 PUSH2 0x1D7 PUSH2 0xD07 JUMP JUMPDEST PUSH2 0xFA4 JUMP JUMPDEST SWAP1 POP CALLVALUE PUSH2 0x1F2 JUMPI PUSH1 0x20 CALLDATASIZE PUSH1 0x3 NOT ADD SLT PUSH2 0x1F2 JUMPI DUP2 PUSH1 0x20 SWAP4 PUSH1 0x1 SWAP3 CALLDATALOAD DUP2 MSTORE PUSH1 0x5 DUP6 MSTORE KECCAK256 ADD SLOAD SWAP1 MLOAD SWAP1 DUP2 MSTORE RETURN JUMPDEST SWAP1 POP DUP3 CALLVALUE PUSH2 0x9F8 JUMPI PUSH1 0x60 CALLDATASIZE PUSH1 0x3 NOT ADD SLT PUSH2 0x9F8 JUMPI PUSH2 0x908 PUSH2 0xD22 JUMP JUMPDEST PUSH2 0x910 PUSH2 0xD07 JUMP JUMPDEST SWAP2 PUSH1 0x44 CALLDATALOAD SWAP4 PUSH1 0x1 PUSH1 0x1 PUSH1 0xA0 SHL SUB DUP4 AND DUP1 DUP4 MSTORE PUSH1 0x1 PUSH1 0x20 MSTORE DUP7 DUP4 KECCAK256 CALLER DUP5 MSTORE PUSH1 0x20 MSTORE DUP7 DUP4 KECCAK256 SLOAD SWAP2 PUSH1 0x0 NOT DUP4 SUB PUSH2 0x94D JUMPI JUMPDEST PUSH1 0x20 DUP9 PUSH2 0x27B DUP10 DUP10 DUP10 PUSH2 0xEC8 JUMP JUMPDEST DUP7 DUP4 LT PUSH2 0x9B3 JUMPI DUP2 ISZERO PUSH2 0x99D JUMPI CALLER ISZERO PUSH2 0x987 JUMPI POP DUP3 MSTORE PUSH1 0x1 PUSH1 0x20 SWAP1 DUP2 MSTORE DUP7 DUP4 KECCAK256 CALLER DUP5 MSTORE DUP2 MSTORE SWAP2 DUP7 SWAP1 KECCAK256 SWAP1 DUP6 SWAP1 SUB SWAP1 SSTORE DUP3 SWAP1 PUSH2 0x27B DUP8 PUSH2 0x93F JUMP JUMPDEST PUSH1 0x24 SWAP1 DUP5 DUP10 MLOAD SWAP2 PUSH4 0x4A1406B1 PUSH1 0xE1 SHL DUP4 MSTORE DUP3 ADD MSTORE REVERT JUMPDEST PUSH1 0x24 SWAP1 DUP5 DUP10 MLOAD SWAP2 PUSH4 0xE602DF05 PUSH1 0xE0 SHL DUP4 MSTORE DUP3 ADD MSTORE REVERT JUMPDEST DUP8 MLOAD PUSH32 0xFB8F41B200000000000000000000000000000000000000000000000000000000 DUP2 MSTORE CALLER SWAP2 DUP2 ADD SWAP2 DUP3 MSTORE PUSH1 0x20 DUP3 ADD SWAP4 SWAP1 SWAP4 MSTORE PUSH1 0x40 DUP2 ADD DUP8 SWAP1 MSTORE DUP3 SWAP2 POP PUSH1 0x60 ADD SUB SWAP1 REVERT JUMPDEST DUP1 REVERT JUMPDEST POP POP CALLVALUE PUSH2 0x163 JUMPI DUP2 PUSH1 0x3 NOT CALLDATASIZE ADD SLT PUSH2 0x163 JUMPI PUSH1 0x20 SWAP1 PUSH1 0x2 SLOAD SWAP1 MLOAD SWAP1 DUP2 MSTORE RETURN JUMPDEST SWAP1 POP CALLVALUE PUSH2 0x1F2 JUMPI DUP2 PUSH1 0x3 NOT CALLDATASIZE ADD SLT PUSH2 0x1F2 JUMPI PUSH2 0xA34 PUSH2 0xD22 JUMP JUMPDEST PUSH1 0x24 CALLDATALOAD SWAP1 CALLER ISZERO PUSH2 0xAAC JUMPI PUSH1 0x1 PUSH1 0x1 PUSH1 0xA0 SHL SUB AND SWAP2 DUP3 ISZERO PUSH2 0xA96 JUMPI POP DUP1 DUP4 PUSH1 0x20 SWAP6 CALLER DUP2 MSTORE PUSH1 0x1 DUP8 MSTORE DUP2 DUP2 KECCAK256 DUP6 DUP3 MSTORE DUP8 MSTORE KECCAK256 SSTORE DUP3 MLOAD SWAP1 DUP2 MSTORE PUSH32 0x8C5BE1E5EBEC7D5BD14F71427D1E84F3DD0314C0F7B2291E5B200AC8C7C3B925 DUP5 CALLER SWAP3 LOG3 MLOAD PUSH1 0x1 DUP2 MSTORE RETURN JUMPDEST PUSH1 0x24 SWAP1 DUP6 DUP6 MLOAD SWAP2 PUSH4 0x4A1406B1 PUSH1 0xE1 SHL DUP4 MSTORE DUP3 ADD MSTORE REVERT JUMPDEST PUSH1 0x24 DUP4 DUP7 DUP7 MLOAD SWAP2 PUSH4 0xE602DF05 PUSH1 0xE0 SHL DUP4 MSTORE DUP3 ADD MSTORE REVERT JUMPDEST SWAP2 SWAP1 POP CALLVALUE PUSH2 0x1F2 JUMPI DUP3 PUSH1 0x3 NOT CALLDATASIZE ADD SLT PUSH2 0x1F2 JUMPI DUP1 MLOAD SWAP2 DUP4 PUSH1 0x3 SLOAD SWAP1 PUSH1 0x1 SWAP1 DUP3 PUSH1 0x1 SHR SWAP3 PUSH1 0x1 DUP2 AND DUP1 ISZERO PUSH2 0xBAF JUMPI JUMPDEST PUSH1 0x20 SWAP6 DUP7 DUP7 LT DUP3 EQ PUSH2 0xB9C JUMPI POP DUP5 DUP9 MSTORE SWAP1 DUP2 ISZERO PUSH2 0xB7A JUMPI POP PUSH1 0x1 EQ PUSH2 0xB21 JUMPI JUMPDEST PUSH2 0x5AC DUP7 DUP7 PUSH2 0x5A2 DUP3 DUP12 SUB DUP4 PUSH2 0xD81 JUMP JUMPDEST SWAP3 SWAP6 POP PUSH1 0x3 DUP4 MSTORE PUSH32 0xC2575A0E9E593C00F959F8C92F12DB2869C3395A3B0502D05E2516446F71F85B JUMPDEST DUP3 DUP5 LT PUSH2 0xB67 JUMPI POP POP POP DUP3 PUSH2 0x5AC SWAP5 PUSH2 0x5A2 SWAP3 DUP3 ADD ADD SWAP5 CODESIZE PUSH2 0xB10 JUMP JUMPDEST DUP1 SLOAD DUP7 DUP6 ADD DUP9 ADD MSTORE SWAP3 DUP7 ADD SWAP3 DUP2 ADD PUSH2 0xB4A JUMP JUMPDEST PUSH1 0xFF NOT AND DUP8 DUP7 ADD MSTORE POP POP POP ISZERO ISZERO PUSH1 0x5 SHL DUP4 ADD ADD SWAP3 POP PUSH2 0x5A2 DUP3 PUSH2 0x5AC CODESIZE PUSH2 0xB10 JUMP JUMPDEST DUP4 PUSH1 0x22 PUSH1 0x24 SWAP3 PUSH4 0x4E487B71 PUSH1 0xE0 SHL DUP4 MSTORE MSTORE REVERT JUMPDEST SWAP4 PUSH1 0x7F AND SWAP4 PUSH2 0xAF0 JUMP JUMPDEST SWAP1 POP CALLVALUE PUSH2 0x1F2 JUMPI PUSH1 0x20 CALLDATASIZE PUSH1 0x3 NOT ADD SLT PUSH2 0x1F2 JUMPI CALLDATALOAD SWAP1 PUSH32 0xFFFFFFFF00000000000000000000000000000000000000000000000000000000 DUP3 AND DUP1 SWAP3 SUB PUSH2 0x1F2 JUMPI PUSH1 0x20 SWAP3 POP PUSH32 0x7965DB0B00000000000000000000000000000000000000000000000000000000 DUP3 EQ SWAP2 DUP3 ISZERO PUSH2 0xC30 JUMPI JUMPDEST POP MLOAD SWAP1 ISZERO ISZERO DUP2 MSTORE RETURN JUMPDEST PUSH32 0x1FFC9A700000000000000000000000000000000000000000000000000000000 EQ SWAP2 POP CODESIZE PUSH2 0xC27 JUMP JUMPDEST DUP4 DUP6 SWAP2 CALLVALUE PUSH2 0x1F2 JUMPI DUP2 PUSH1 0x3 NOT CALLDATASIZE ADD SLT PUSH2 0x1F2 JUMPI PUSH2 0xC75 PUSH2 0xD07 JUMP JUMPDEST SWAP2 PUSH1 0xFF PUSH32 0xA49807205CE4D355092EF5A8A18F56E8913CF4A201FBE287825B095693C21775 SWAP2 DUP3 DUP7 MSTORE PUSH1 0x5 PUSH1 0x20 MSTORE DUP1 DUP7 KECCAK256 CALLER DUP8 MSTORE PUSH1 0x20 MSTORE DUP6 KECCAK256 SLOAD AND ISZERO PUSH2 0xCED JUMPI DUP4 PUSH2 0xCEA DUP7 CALLDATALOAD DUP6 PUSH32 0x0 PUSH1 0x1 PUSH1 0x1 PUSH1 0xA0 SHL SUB AND PUSH2 0xE60 JUMP JUMPDEST DUP1 RETURN JUMPDEST PUSH4 0xE2517D3F PUSH1 0xE0 SHL DUP3 MSTORE CALLER DUP3 DUP7 ADD MSTORE PUSH1 0x24 DUP3 ADD MSTORE PUSH1 0x44 SWAP2 POP REVERT JUMPDEST PUSH1 0x24 CALLDATALOAD SWAP1 PUSH1 0x1 PUSH1 0x1 PUSH1 0xA0 SHL SUB DUP3 AND DUP3 SUB PUSH2 0xD1D JUMPI JUMP JUMPDEST PUSH1 0x0 DUP1 REVERT JUMPDEST PUSH1 0x4 CALLDATALOAD SWAP1 PUSH1 0x1 PUSH1 0x1 PUSH1 0xA0 SHL SUB DUP3 AND DUP3 SUB PUSH2 0xD1D JUMPI JUMP JUMPDEST PUSH1 0x20 DUP1 DUP3 MSTORE DUP3 MLOAD DUP2 DUP4 ADD DUP2 SWAP1 MSTORE SWAP1 SWAP4 SWAP3 PUSH1 0x0 JUMPDEST DUP3 DUP2 LT PUSH2 0xD6D JUMPI POP POP PUSH1 0x40 SWAP3 SWAP4 POP PUSH1 0x0 DUP4 DUP3 DUP5 ADD ADD MSTORE PUSH1 0x1F DUP1 NOT SWAP2 ADD AND ADD ADD SWAP1 JUMP JUMPDEST DUP2 DUP2 ADD DUP7 ADD MLOAD DUP5 DUP3 ADD PUSH1 0x40 ADD MSTORE DUP6 ADD PUSH2 0xD4B JUMP JUMPDEST SWAP1 PUSH1 0x1F DUP1 NOT SWAP2 ADD AND DUP2 ADD SWAP1 DUP2 LT PUSH8 0xFFFFFFFFFFFFFFFF DUP3 GT OR PUSH2 0xDA3 JUMPI PUSH1 0x40 MSTORE JUMP JUMPDEST PUSH4 0x4E487B71 PUSH1 0xE0 SHL PUSH1 0x0 MSTORE PUSH1 0x41 PUSH1 0x4 MSTORE PUSH1 0x24 PUSH1 0x0 REVERT JUMPDEST DUP2 DUP2 MUL SWAP3 SWAP2 DUP2 ISZERO SWAP2 DUP5 DIV EQ OR ISZERO PUSH2 0xDCC JUMPI JUMP JUMPDEST PUSH4 0x4E487B71 PUSH1 0xE0 SHL PUSH1 0x0 MSTORE PUSH1 0x11 PUSH1 0x4 MSTORE PUSH1 0x24 PUSH1 0x0 REVERT JUMPDEST DUP2 ISZERO PUSH2 0xDEC JUMPI DIV SWAP1 JUMP JUMPDEST PUSH4 0x4E487B71 PUSH1 0xE0 SHL PUSH1 0x0 MSTORE PUSH1 0x12 PUSH1 0x4 MSTORE PUSH1 0x24 PUSH1 0x0 REVERT JUMPDEST SWAP2 SWAP1 DUP3 ADD DUP1 SWAP3 GT PUSH2 0xDCC JUMPI JUMP JUMPDEST SWAP2 SWAP1 DUP3 SUB SWAP2 DUP3 GT PUSH2 0xDCC JUMPI JUMP JUMPDEST DUP1 PUSH1 0x0 MSTORE PUSH1 0x5 PUSH1 0x20 MSTORE PUSH1 0x40 PUSH1 0x0 KECCAK256 CALLER PUSH1 0x0 MSTORE PUSH1 0x20 MSTORE PUSH1 0xFF PUSH1 0x40 PUSH1 0x0 KECCAK256 SLOAD AND ISZERO PUSH2 0xE42 JUMPI POP JUMP JUMPDEST PUSH1 0x44 SWAP1 PUSH1 0x40 MLOAD SWAP1 PUSH4 0xE2517D3F PUSH1 0xE0 SHL DUP3 MSTORE CALLER PUSH1 0x4 DUP4 ADD MSTORE PUSH1 0x24 DUP3 ADD MSTORE REVERT JUMPDEST SWAP2 PUSH1 0x1 PUSH1 0x1 PUSH1 0xA0 SHL SUB PUSH1 0x40 MLOAD SWAP3 PUSH32 0xA9059CBB00000000000000000000000000000000000000000000000000000000 PUSH1 0x20 DUP6 ADD MSTORE AND PUSH1 0x24 DUP4 ADD MSTORE PUSH1 0x44 DUP3 ADD MSTORE PUSH1 0x44 DUP2 MSTORE PUSH1 0x80 DUP2 ADD SWAP2 DUP2 DUP4 LT PUSH8 0xFFFFFFFFFFFFFFFF DUP5 GT OR PUSH2 0xDA3 JUMPI PUSH2 0xEC6 SWAP3 PUSH1 0x40 MSTORE PUSH2 0x1108 JUMP JUMPDEST JUMP JUMPDEST SWAP2 PUSH1 0x1 PUSH1 0x1 PUSH1 0xA0 SHL SUB DUP1 DUP5 AND SWAP3 DUP4 ISZERO PUSH2 0xF8C JUMPI AND SWAP3 DUP4 ISZERO PUSH2 0xF74 JUMPI PUSH1 0x0 SWAP1 DUP4 DUP3 MSTORE DUP2 PUSH1 0x20 MSTORE PUSH1 0x40 DUP3 KECCAK256 SLOAD SWAP1 DUP4 DUP3 LT PUSH2 0xF42 JUMPI POP SWAP2 PUSH1 0x40 DUP3 DUP3 PUSH32 0xDDF252AD1BE2C89B69C2B068FC378DAA952BA7F163C4A11628F55A4DF523B3EF SWAP6 DUP8 PUSH1 0x20 SWAP7 MSTORE DUP3 DUP7 MSTORE SUB DUP3 DUP3 KECCAK256 SSTORE DUP7 DUP2 MSTORE KECCAK256 DUP2 DUP2 SLOAD ADD SWAP1 SSTORE PUSH1 0x40 MLOAD SWAP1 DUP2 MSTORE LOG3 JUMP JUMPDEST PUSH1 0x40 MLOAD PUSH4 0x391434E3 PUSH1 0xE2 SHL DUP2 MSTORE PUSH1 0x1 PUSH1 0x1 PUSH1 0xA0 SHL SUB SWAP2 SWAP1 SWAP2 AND PUSH1 0x4 DUP3 ADD MSTORE PUSH1 0x24 DUP2 ADD SWAP2 SWAP1 SWAP2 MSTORE PUSH1 0x44 DUP2 ADD DUP4 SWAP1 MSTORE PUSH1 0x64 SWAP1 REVERT JUMPDEST PUSH1 0x24 PUSH1 0x40 MLOAD PUSH4 0xEC442F05 PUSH1 0xE0 SHL DUP2 MSTORE PUSH1 0x0 PUSH1 0x4 DUP3 ADD MSTORE REVERT JUMPDEST PUSH1 0x24 PUSH1 0x40 MLOAD PUSH4 0x4B637E8F PUSH1 0xE1 SHL DUP2 MSTORE PUSH1 0x0 PUSH1 0x4 DUP3 ADD MSTORE REVERT JUMPDEST SWAP1 PUSH1 0x0 SWAP2 DUP1 DUP4 MSTORE PUSH1 0x5 PUSH1 0x20 MSTORE PUSH1 0x1 PUSH1 0x1 PUSH1 0xA0 SHL SUB PUSH1 0x40 DUP5 KECCAK256 SWAP3 AND SWAP2 DUP3 DUP5 MSTORE PUSH1 0x20 MSTORE PUSH1 0xFF PUSH1 0x40 DUP5 KECCAK256 SLOAD AND ISZERO PUSH1 0x0 EQ PUSH2 0x1020 JUMPI DUP1 DUP4 MSTORE PUSH1 0x5 PUSH1 0x20 MSTORE PUSH1 0x40 DUP4 KECCAK256 DUP3 DUP5 MSTORE PUSH1 0x20 MSTORE PUSH1 0x40 DUP4 KECCAK256 PUSH1 0x1 PUSH1 0xFF NOT DUP3 SLOAD AND OR SWAP1 SSTORE PUSH32 0x2F8788117E7EFF1D82E926EC794901D17C78024A50270940304540A733656F0D CALLER SWAP4 DUP1 LOG4 PUSH1 0x1 SWAP1 JUMP JUMPDEST POP POP SWAP1 JUMP JUMPDEST SWAP1 PUSH1 0x0 SWAP2 DUP1 DUP4 MSTORE PUSH1 0x5 PUSH1 0x20 MSTORE PUSH1 0x1 PUSH1 0x1 PUSH1 0xA0 SHL SUB PUSH1 0x40 DUP5 KECCAK256 SWAP3 AND SWAP2 DUP3 DUP5 MSTORE PUSH1 0x20 MSTORE PUSH1 0xFF PUSH1 0x40 DUP5 KECCAK256 SLOAD AND PUSH1 0x0 EQ PUSH2 0x1020 JUMPI DUP1 DUP4 MSTORE PUSH1 0x5 PUSH1 0x20 MSTORE PUSH1 0x40 DUP4 KECCAK256 DUP3 DUP5 MSTORE PUSH1 0x20 MSTORE PUSH1 0x40 DUP4 KECCAK256 PUSH1 0xFF NOT DUP2 SLOAD AND SWAP1 SSTORE PUSH32 0xF6391F5C32D9C69D2A47EA670B442974B53935D1EDC7FD64EB21E047A839171B CALLER SWAP4 DUP1 LOG4 PUSH1 0x1 SWAP1 JUMP JUMPDEST SWAP3 SWAP1 PUSH1 0x40 MLOAD SWAP3 PUSH32 0x23B872DD00000000000000000000000000000000000000000000000000000000 PUSH1 0x20 DUP6 ADD MSTORE PUSH1 0x1 PUSH1 0x1 PUSH1 0xA0 SHL SUB DUP1 SWAP3 AND PUSH1 0x24 DUP6 ADD MSTORE AND PUSH1 0x44 DUP4 ADD MSTORE PUSH1 0x64 DUP3 ADD MSTORE PUSH1 0x64 DUP2 MSTORE PUSH1 0xA0 DUP2 ADD SWAP2 DUP2 DUP4 LT PUSH8 0xFFFFFFFFFFFFFFFF DUP5 GT OR PUSH2 0xDA3 JUMPI PUSH2 0xEC6 SWAP3 PUSH1 0x40 MSTORE JUMPDEST PUSH1 0x1 PUSH1 0x1 PUSH1 0xA0 SHL SUB AND SWAP1 PUSH1 0x0 DUP1 DUP3 PUSH1 0x20 DUP3 SWAP5 MLOAD SWAP2 ADD DUP3 DUP7 GAS CALL RETURNDATASIZE ISZERO PUSH2 0x11EA JUMPI RETURNDATASIZE SWAP1 PUSH8 0xFFFFFFFFFFFFFFFF DUP3 GT PUSH2 0x11D6 JUMPI SWAP1 PUSH2 0x1165 SWAP2 PUSH1 0x40 MLOAD SWAP2 PUSH2 0x1155 PUSH1 0x20 PUSH1 0x1F NOT PUSH1 0x1F DUP5 ADD AND ADD DUP5 PUSH2 0xD81 JUMP JUMPDEST DUP3 MSTORE RETURNDATASIZE DUP5 PUSH1 0x20 DUP5 ADD RETURNDATACOPY JUMPDEST DUP5 PUSH2 0x11F6 JUMP JUMPDEST SWAP1 DUP2 MLOAD SWAP2 DUP3 ISZERO ISZERO SWAP3 DUP4 PUSH2 0x11AE JUMPI JUMPDEST POP POP POP PUSH2 0x117D JUMPI POP JUMP JUMPDEST PUSH1 0x24 SWAP1 PUSH1 0x40 MLOAD SWAP1 PUSH32 0x5274AFE700000000000000000000000000000000000000000000000000000000 DUP3 MSTORE PUSH1 0x4 DUP3 ADD MSTORE REVERT JUMPDEST DUP2 SWAP3 SWAP4 POP SWAP1 PUSH1 0x20 SWAP2 DUP2 ADD SUB SLT PUSH2 0x163 JUMPI PUSH1 0x20 ADD MLOAD SWAP1 DUP2 ISZERO SWAP2 DUP3 ISZERO SUB PUSH2 0x9F8 JUMPI POP CODESIZE DUP1 DUP1 PUSH2 0x1173 JUMP JUMPDEST PUSH1 0x24 DUP4 PUSH4 0x4E487B71 PUSH1 0xE0 SHL DUP2 MSTORE PUSH1 0x41 PUSH1 0x4 MSTORE REVERT JUMPDEST PUSH2 0x1165 SWAP1 PUSH1 0x60 SWAP1 PUSH2 0x115F JUMP JUMPDEST SWAP1 PUSH2 0x1235 JUMPI POP DUP1 MLOAD ISZERO PUSH2 0x120B JUMPI DUP1 MLOAD SWAP1 PUSH1 0x20 ADD REVERT JUMPDEST PUSH1 0x4 PUSH1 0x40 MLOAD PUSH32 0x1425EA4200000000000000000000000000000000000000000000000000000000 DUP2 MSTORE REVERT JUMPDEST DUP2 MLOAD ISZERO DUP1 PUSH2 0x1280 JUMPI JUMPDEST PUSH2 0x1246 JUMPI POP SWAP1 JUMP JUMPDEST PUSH1 0x24 SWAP1 PUSH1 0x1 PUSH1 0x1 PUSH1 0xA0 SHL SUB PUSH1 0x40 MLOAD SWAP2 PUSH32 0x9996B31500000000000000000000000000000000000000000000000000000000 DUP4 MSTORE AND PUSH1 0x4 DUP3 ADD MSTORE REVERT JUMPDEST POP DUP1 EXTCODESIZE ISZERO PUSH2 0x123E JUMP INVALID LOG2 PUSH5 0x6970667358 0x22 SLT KECCAK256 0x2A 0xB7 0xDC 0xED 0xBC ADDRESS 0xE7 0x23 0x4C PUSH10 0xB5FDB6BE4E6940E96DA 0x1E SWAP3 SLOAD 0xAB CODESIZE PREVRANDAO PUSH12 0x3A5252108364736F6C634300 ADDMOD XOR STOP CALLER 0x2F DUP8 DUP9 GT PUSH31 0x7EFF1D82E926EC794901D17C78024A50270940304540A733656F0D00000000 "
        },
        "methodIdentifiers": {
          "ADMIN_ROLE()": "75b238fc",
          "DEFAULT_ADMIN_ROLE()": "a217fddf",
          "addLiquidity(uint256)": "51c6590a",
          "allowance(address,address)": "dd62ed3e",
          "approve(address,uint256)": "095ea7b3",
          "balanceOf(address)": "70a08231",
          "decimals()": "313ce567",
          "deposit(uint256)": "b6b55f25",
          "getRoleAdmin(bytes32)": "248a9ca3",
          "grantRole(bytes32,address)": "2f2ff15d",
          "hasRole(bytes32,address)": "91d14854",
          "name()": "06fdde03",
          "removeLiquidity(uint256,uint256)": "9d7de6b3",
          "renounceRole(bytes32,address)": "36568abe",
          "revokeRole(bytes32,address)": "d547741f",
          "supportsInterface(bytes4)": "01ffc9a7",
          "symbol()": "95d89b41",
          "token()": "fc0c546a",
          "totalReserves()": "8f840ddd",
          "totalSupply()": "18160ddd",
          "transfer(address,uint256)": "a9059cbb",
          "transferFrom(address,address,uint256)": "23b872dd",
          "withdraw(uint256,address)": "00f714ce"
        }
      }
    }
  }
}